{
	"votes.sol": {
		"projectVotes": {
			"abi": [
				{
					"inputs": [],
					"stateMutability": "nonpayable",
					"type": "constructor"
				},
				{
					"anonymous": false,
					"inputs": [
						{
							"indexed": true,
							"internalType": "address",
							"name": "previousOwner",
							"type": "address"
						},
						{
							"indexed": true,
							"internalType": "address",
							"name": "newOwner",
							"type": "address"
						}
					],
					"name": "OwnershipTransferred",
					"type": "event"
				},
				{
					"anonymous": false,
					"inputs": [
						{
							"indexed": true,
							"internalType": "bytes32",
							"name": "role",
							"type": "bytes32"
						},
						{
							"indexed": true,
							"internalType": "bytes32",
							"name": "previousAdminRole",
							"type": "bytes32"
						},
						{
							"indexed": true,
							"internalType": "bytes32",
							"name": "newAdminRole",
							"type": "bytes32"
						}
					],
					"name": "RoleAdminChanged",
					"type": "event"
				},
				{
					"anonymous": false,
					"inputs": [
						{
							"indexed": true,
							"internalType": "bytes32",
							"name": "role",
							"type": "bytes32"
						},
						{
							"indexed": true,
							"internalType": "address",
							"name": "account",
							"type": "address"
						},
						{
							"indexed": true,
							"internalType": "address",
							"name": "sender",
							"type": "address"
						}
					],
					"name": "RoleGranted",
					"type": "event"
				},
				{
					"anonymous": false,
					"inputs": [
						{
							"indexed": true,
							"internalType": "bytes32",
							"name": "role",
							"type": "bytes32"
						},
						{
							"indexed": true,
							"internalType": "address",
							"name": "account",
							"type": "address"
						},
						{
							"indexed": true,
							"internalType": "address",
							"name": "sender",
							"type": "address"
						}
					],
					"name": "RoleRevoked",
					"type": "event"
				},
				{
					"inputs": [],
					"name": "DEFAULT_ADMIN_ROLE",
					"outputs": [
						{
							"internalType": "bytes32",
							"name": "",
							"type": "bytes32"
						}
					],
					"stateMutability": "view",
					"type": "function"
				},
				{
					"inputs": [],
					"name": "ROLE_ADMIN",
					"outputs": [
						{
							"internalType": "bytes32",
							"name": "",
							"type": "bytes32"
						}
					],
					"stateMutability": "view",
					"type": "function"
				},
				{
					"inputs": [],
					"name": "ROLE_VOLTANTE",
					"outputs": [
						{
							"internalType": "bytes32",
							"name": "",
							"type": "bytes32"
						}
					],
					"stateMutability": "view",
					"type": "function"
				},
				{
					"inputs": [],
					"name": "addressGanador",
					"outputs": [
						{
							"internalType": "address",
							"name": "addressGanador_",
							"type": "address"
						}
					],
					"stateMutability": "view",
					"type": "function"
				},
				{
					"inputs": [],
					"name": "candidato1",
					"outputs": [
						{
							"internalType": "uint256",
							"name": "id",
							"type": "uint256"
						},
						{
							"internalType": "address",
							"name": "addressCandidato",
							"type": "address"
						},
						{
							"internalType": "string",
							"name": "nombre",
							"type": "string"
						},
						{
							"internalType": "uint256",
							"name": "contadorVotos",
							"type": "uint256"
						}
					],
					"stateMutability": "view",
					"type": "function"
				},
				{
					"inputs": [],
					"name": "candidato2",
					"outputs": [
						{
							"internalType": "uint256",
							"name": "id",
							"type": "uint256"
						},
						{
							"internalType": "address",
							"name": "addressCandidato",
							"type": "address"
						},
						{
							"internalType": "string",
							"name": "nombre",
							"type": "string"
						},
						{
							"internalType": "uint256",
							"name": "contadorVotos",
							"type": "uint256"
						}
					],
					"stateMutability": "view",
					"type": "function"
				},
				{
					"inputs": [],
					"name": "candidato3",
					"outputs": [
						{
							"internalType": "uint256",
							"name": "id",
							"type": "uint256"
						},
						{
							"internalType": "address",
							"name": "addressCandidato",
							"type": "address"
						},
						{
							"internalType": "string",
							"name": "nombre",
							"type": "string"
						},
						{
							"internalType": "uint256",
							"name": "contadorVotos",
							"type": "uint256"
						}
					],
					"stateMutability": "view",
					"type": "function"
				},
				{
					"inputs": [],
					"name": "candidatoGanador",
					"outputs": [
						{
							"internalType": "uint256",
							"name": "candidatoGanador_",
							"type": "uint256"
						}
					],
					"stateMutability": "view",
					"type": "function"
				},
				{
					"inputs": [],
					"name": "derechoVoto",
					"outputs": [
						{
							"internalType": "string",
							"name": "",
							"type": "string"
						}
					],
					"stateMutability": "view",
					"type": "function"
				},
				{
					"inputs": [],
					"name": "duenoChecar",
					"outputs": [],
					"stateMutability": "nonpayable",
					"type": "function"
				},
				{
					"inputs": [
						{
							"internalType": "bytes32",
							"name": "role",
							"type": "bytes32"
						}
					],
					"name": "getRoleAdmin",
					"outputs": [
						{
							"internalType": "bytes32",
							"name": "",
							"type": "bytes32"
						}
					],
					"stateMutability": "view",
					"type": "function"
				},
				{
					"inputs": [
						{
							"internalType": "bytes32",
							"name": "role",
							"type": "bytes32"
						},
						{
							"internalType": "address",
							"name": "account",
							"type": "address"
						}
					],
					"name": "grantRole",
					"outputs": [],
					"stateMutability": "nonpayable",
					"type": "function"
				},
				{
					"inputs": [
						{
							"internalType": "bytes32",
							"name": "role",
							"type": "bytes32"
						},
						{
							"internalType": "address",
							"name": "account",
							"type": "address"
						}
					],
					"name": "hasRole",
					"outputs": [
						{
							"internalType": "bool",
							"name": "",
							"type": "bool"
						}
					],
					"stateMutability": "view",
					"type": "function"
				},
				{
					"inputs": [],
					"name": "nombreGanador",
					"outputs": [
						{
							"internalType": "string",
							"name": "nombreGanador_",
							"type": "string"
						}
					],
					"stateMutability": "view",
					"type": "function"
				},
				{
					"inputs": [],
					"name": "normalCosa",
					"outputs": [],
					"stateMutability": "nonpayable",
					"type": "function"
				},
				{
					"inputs": [],
					"name": "owner",
					"outputs": [
						{
							"internalType": "address",
							"name": "",
							"type": "address"
						}
					],
					"stateMutability": "view",
					"type": "function"
				},
				{
					"inputs": [],
					"name": "permisoVotar",
					"outputs": [
						{
							"internalType": "bool",
							"name": "",
							"type": "bool"
						}
					],
					"stateMutability": "view",
					"type": "function"
				},
				{
					"inputs": [],
					"name": "renounceOwnership",
					"outputs": [],
					"stateMutability": "nonpayable",
					"type": "function"
				},
				{
					"inputs": [
						{
							"internalType": "bytes32",
							"name": "role",
							"type": "bytes32"
						},
						{
							"internalType": "address",
							"name": "account",
							"type": "address"
						}
					],
					"name": "renounceRole",
					"outputs": [],
					"stateMutability": "nonpayable",
					"type": "function"
				},
				{
					"inputs": [
						{
							"internalType": "bytes32",
							"name": "role",
							"type": "bytes32"
						},
						{
							"internalType": "address",
							"name": "account",
							"type": "address"
						}
					],
					"name": "revokeRole",
					"outputs": [],
					"stateMutability": "nonpayable",
					"type": "function"
				},
				{
					"inputs": [
						{
							"internalType": "bytes4",
							"name": "interfaceId",
							"type": "bytes4"
						}
					],
					"name": "supportsInterface",
					"outputs": [
						{
							"internalType": "bool",
							"name": "",
							"type": "bool"
						}
					],
					"stateMutability": "view",
					"type": "function"
				},
				{
					"inputs": [
						{
							"internalType": "address",
							"name": "newOwner",
							"type": "address"
						}
					],
					"name": "transferOwnership",
					"outputs": [],
					"stateMutability": "nonpayable",
					"type": "function"
				},
				{
					"inputs": [
						{
							"internalType": "uint256",
							"name": "_candidato",
							"type": "uint256"
						}
					],
					"name": "votar",
					"outputs": [],
					"stateMutability": "nonpayable",
					"type": "function"
				},
				{
					"inputs": [],
					"name": "voto",
					"outputs": [
						{
							"internalType": "bool",
							"name": "",
							"type": "bool"
						}
					],
					"stateMutability": "view",
					"type": "function"
				},
				{
					"inputs": [],
					"name": "votoBueno",
					"outputs": [
						{
							"internalType": "string",
							"name": "",
							"type": "string"
						}
					],
					"stateMutability": "view",
					"type": "function"
				},
				{
					"inputs": [],
					"name": "votoMalo",
					"outputs": [
						{
							"internalType": "string",
							"name": "",
							"type": "string"
						}
					],
					"stateMutability": "view",
					"type": "function"
				}
			],
			"devdoc": {
				"kind": "dev",
				"methods": {
					"getRoleAdmin(bytes32)": {
						"details": "Returns the admin role that controls `role`. See {grantRole} and {revokeRole}. To change a role's admin, use {_setRoleAdmin}."
					},
					"grantRole(bytes32,address)": {
						"details": "Grants `role` to `account`. If `account` had not been already granted `role`, emits a {RoleGranted} event. Requirements: - the caller must have ``role``'s admin role. May emit a {RoleGranted} event."
					},
					"hasRole(bytes32,address)": {
						"details": "Returns `true` if `account` has been granted `role`."
					},
					"owner()": {
						"details": "Returns the address of the current owner."
					},
					"renounceOwnership()": {
						"details": "Leaves the contract without owner. It will not be possible to call `onlyOwner` functions anymore. Can only be called by the current owner. NOTE: Renouncing ownership will leave the contract without an owner, thereby removing any functionality that is only available to the owner."
					},
					"renounceRole(bytes32,address)": {
						"details": "Revokes `role` from the calling account. Roles are often managed via {grantRole} and {revokeRole}: this function's purpose is to provide a mechanism for accounts to lose their privileges if they are compromised (such as when a trusted device is misplaced). If the calling account had been revoked `role`, emits a {RoleRevoked} event. Requirements: - the caller must be `account`. May emit a {RoleRevoked} event."
					},
					"revokeRole(bytes32,address)": {
						"details": "Revokes `role` from `account`. If `account` had been granted `role`, emits a {RoleRevoked} event. Requirements: - the caller must have ``role``'s admin role. May emit a {RoleRevoked} event."
					},
					"supportsInterface(bytes4)": {
						"details": "See {IERC165-supportsInterface}."
					},
					"transferOwnership(address)": {
						"details": "Transfers ownership of the contract to a new account (`newOwner`). Can only be called by the current owner."
					}
				},
				"version": 1
			},
			"evm": {
				"assembly": "    /* \"votes.sol\":554:555  0 */\n  0x00\n    /* \"votes.sol\":536:555  uint totalVotos = 0 */\n  0x02\n  sstore\n    /* \"votes.sol\":561:597  string public votoBueno = \"Se Voto!\" */\n  0xc0\n    /* \"votes.sol\":170:6423  contract projectVotes is Ownable,AccessControl {... */\n  0x40\n    /* \"votes.sol\":561:597  string public votoBueno = \"Se Voto!\" */\n  mstore\n  0x08\n    /* \"votes.sol\":170:6423  contract projectVotes is Ownable,AccessControl {... */\n  0x80\n    /* \"votes.sol\":561:597  string public votoBueno = \"Se Voto!\" */\n  swap1\n  dup2\n  mstore\n  mstore(0xa0, 0x536520566f746f21000000000000000000000000000000000000000000000000)\n  0x03\n  swap1\n  tag_1\n  swap1\n  dup3\n  tag_2\n  jump\t// in\ntag_1:\n  pop\n    /* \"votes.sol\":603:638  string public votoMalo = \"No Voto!\" */\n  0x40\n  dup1\n  mload\n  dup1\n  dup3\n  add\n  swap1\n  swap2\n  mstore\n  0x08\n  dup2\n  mstore\n  0x4e6f20566f746f21000000000000000000000000000000000000000000000000\n  0x20\n  dup3\n  add\n  mstore\n  0x04\n  swap1\n  tag_3\n  swap1\n  dup3\n  tag_2\n  jump\t// in\ntag_3:\n  pop\n    /* \"votes.sol\":1653:1813  Candidato({... */\n  0x40\n  dup1\n  mload\n  0x80\n  dup2\n  add\n  dup3\n  mstore\n    /* \"votes.sol\":1677:1678  1 */\n  0x01\n    /* \"votes.sol\":1653:1813  Candidato({... */\n  dup2\n  mstore\n    /* \"votes.sol\":1764:1806  0x1234567890123456789100000000000000000000 */\n  0x1234567890123456789100000000000000000000\n    /* \"votes.sol\":1653:1813  Candidato({... */\n  0x20\n  dup1\n  dup4\n  add\n  swap2\n  dup3\n  mstore\n  dup4\n  mload\n  dup1\n  dup6\n  add\n  dup6\n  mstore\n  0x0c\n  dup2\n  mstore\n  0x54726176656c616e6469616e0000000000000000000000000000000000000000\n  swap2\n  dup2\n  add\n  swap2\n  swap1\n  swap2\n  mstore\n  swap3\n  dup3\n  add\n  dup4\n  swap1\n  mstore\n  0x00\n  0x60\n  dup4\n  add\n  mstore\n    /* \"votes.sol\":1623:1813  Candidato public candidato1 = Candidato({... */\n  dup2\n  mload\n  0x06\n  swap1\n  dup2\n  sstore\n  swap1\n  mload\n  0x07\n  dup1\n  sload\n  not(sub(exp(0x02, 0xa0), 0x01))\n  and\n  sub(exp(0x02, 0xa0), 0x01)\n  swap1\n  swap3\n  and\n  swap2\n  swap1\n  swap2\n  or\n  swap1\n  sstore\n    /* \"votes.sol\":1653:1813  Candidato({... */\n  swap1\n  swap2\n    /* \"votes.sol\":1623:1813  Candidato public candidato1 = Candidato({... */\n  0x08\n  swap1\n  tag_4\n  swap1\n  dup3\n  tag_2\n  jump\t// in\ntag_4:\n  pop\n  0x60\n  swap2\n  dup3\n  add\n  mload\n  0x03\n  swap2\n  swap1\n  swap2\n  add\n  sstore\n    /* \"votes.sol\":1851:2009  Candidato({... */\n  0x40\n  dup1\n  mload\n  0x80\n  dup2\n  add\n  dup3\n  mstore\n    /* \"votes.sol\":1875:1876  2 */\n  0x02\n    /* \"votes.sol\":1851:2009  Candidato({... */\n  dup2\n  mstore\n    /* \"votes.sol\":1960:2002  0x1234567890123456789200000000000000000000 */\n  0x1234567890123456789200000000000000000000\n  0x20\n    /* \"votes.sol\":1851:2009  Candidato({... */\n  dup1\n  dup4\n  add\n  swap2\n  dup3\n  mstore\n  dup4\n  mload\n  dup1\n  dup6\n  add\n  dup6\n  mstore\n  0x0a\n  dup1\n  dup3\n  mstore\n  0x4564756c616e6469616e00000000000000000000000000000000000000000000\n  swap3\n  dup3\n  add\n  swap3\n  swap1\n  swap3\n  mstore\n  swap4\n  dup4\n  add\n  dup5\n  swap1\n  mstore\n  0x00\n  swap5\n  dup4\n  add\n  swap5\n  swap1\n  swap5\n  mstore\n    /* \"votes.sol\":1821:2009  Candidato public candidato2 = Candidato({... */\n  dup2\n  mload\n  dup5\n  sstore\n  mload\n  0x0b\n  dup1\n  sload\n  not(sub(exp(0x02, 0xa0), 0x01))\n  and\n  sub(exp(0x02, 0xa0), 0x01)\n  swap1\n  swap3\n  and\n  swap2\n  swap1\n  swap2\n  or\n  swap1\n  sstore\n    /* \"votes.sol\":1851:2009  Candidato({... */\n  swap2\n  swap1\n    /* \"votes.sol\":1821:2009  Candidato public candidato2 = Candidato({... */\n  0x0c\n  swap1\n  tag_5\n  swap1\n  dup3\n  tag_2\n  jump\t// in\ntag_5:\n  pop\n  0x60\n  swap2\n  dup3\n  add\n  mload\n  0x03\n  swap2\n  dup3\n  add\n  sstore\n    /* \"votes.sol\":2047:2206  Candidato({... */\n  0x40\n  dup1\n  mload\n  0x80\n  dup2\n  add\n  dup3\n  mstore\n  swap2\n  dup3\n  mstore\n    /* \"votes.sol\":2157:2199  0x1234567890123456789300000000000000000000 */\n  0x1234567890123456789300000000000000000000\n  0x20\n    /* \"votes.sol\":2047:2206  Candidato({... */\n  dup1\n  dup5\n  add\n  swap2\n  dup3\n  mstore\n  dup3\n  mload\n  dup1\n  dup5\n  add\n  dup5\n  mstore\n  0x0b\n  dup2\n  mstore\n  0x45636f6c616e6469616e32000000000000000000000000000000000000000000\n  swap2\n  dup2\n  add\n  swap2\n  swap1\n  swap2\n  mstore\n  swap2\n  dup4\n  add\n  dup3\n  swap1\n  mstore\n  0x00\n  swap4\n  dup4\n  add\n  swap4\n  swap1\n  swap4\n  mstore\n    /* \"votes.sol\":2017:2206  Candidato public candidato3 = Candidato({... */\n  dup2\n  mload\n  0x0e\n  swap1\n  dup2\n  sstore\n  swap3\n  mload\n  0x0f\n  dup1\n  sload\n  not(sub(exp(0x02, 0xa0), 0x01))\n  and\n  sub(exp(0x02, 0xa0), 0x01)\n  swap1\n  swap3\n  and\n  swap2\n  swap1\n  swap2\n  or\n  swap1\n  sstore\n    /* \"votes.sol\":2047:2206  Candidato({... */\n  swap1\n  swap2\n    /* \"votes.sol\":2017:2206  Candidato public candidato3 = Candidato({... */\n  swap1\n  0x10\n  swap1\n  tag_6\n  swap1\n  dup3\n  tag_2\n  jump\t// in\ntag_6:\n  pop\n  0x60\n  dup3\n  add\n  mload\n  dup2\n  0x03\n  add\n  sstore\n  pop\n  pop\n    /* \"votes.sol\":645:900  constructor() {... */\n  callvalue\n  dup1\n  iszero\n  tag_7\n  jumpi\n  0x00\n  dup1\n  revert\ntag_7:\n  pop\n    /* \"@openzeppelin/contracts/access/Ownable.sol\":936:968  _transferOwnership(_msgSender()) */\n  tag_11\n    /* \"@openzeppelin/contracts/access/Ownable.sol\":955:967  _msgSender() */\n  tag_12\n    /* \"@openzeppelin/contracts/access/Ownable.sol\":955:965  _msgSender */\n  0x0100000000\n  tag_13\n  dup2\n  mul\n    /* \"@openzeppelin/contracts/access/Ownable.sol\":955:967  _msgSender() */\n  div\n  jump\t// in\ntag_12:\n    /* \"@openzeppelin/contracts/access/Ownable.sol\":936:954  _transferOwnership */\n  0x0100000000\n  tag_14\n  dup2\n  mul\n    /* \"@openzeppelin/contracts/access/Ownable.sol\":936:968  _transferOwnership(_msgSender()) */\n  div\n  jump\t// in\ntag_11:\n    /* \"votes.sol\":669:710  _setupRole(DEFAULT_ADMIN_ROLE,msg.sender) */\n  tag_16\n    /* \"@openzeppelin/contracts/access/AccessControl.sol\":2072:2076  0x00 */\n  0x00\n    /* \"votes.sol\":699:709  msg.sender */\n  caller\n    /* \"votes.sol\":669:679  _setupRole */\n  0x0100000000\n  tag_17\n  dup2\n  mul\n    /* \"votes.sol\":669:710  _setupRole(DEFAULT_ADMIN_ROLE,msg.sender) */\n  div\n  jump\t// in\ntag_16:\n    /* \"votes.sol\":720:757  _setupRole(ROLE_VOLTANTE, msg.sender) */\n  tag_18\n    /* \"votes.sol\":263:289  keccak256(\"ROLE_VOLTANTE\") */\n  0x226c4972ab1f314d4ad7ff65fbbf70e5647a0620354d97bff1b978c4cf385edf\n    /* \"votes.sol\":746:756  msg.sender */\n  caller\n    /* \"votes.sol\":720:730  _setupRole */\n  0x0100000000\n  tag_17\n  dup2\n  mul\n    /* \"votes.sol\":720:757  _setupRole(ROLE_VOLTANTE, msg.sender) */\n  div\n  jump\t// in\ntag_18:\n    /* \"votes.sol\":767:803  _setRoleAdmin(ROLE_ADMIN,ROLE_ADMIN) */\n  tag_19\n    /* \"votes.sol\":402:425  keccak256(\"ROLE_ADMIN\") */\n  0x2172861495e7b85edac73e3cd5fbb42dd675baadf627720e687bcfdaca025096\n  dup1\n    /* \"votes.sol\":767:780  _setRoleAdmin */\n  0x0100000000\n  tag_20\n  dup2\n  mul\n    /* \"votes.sol\":767:803  _setRoleAdmin(ROLE_ADMIN,ROLE_ADMIN) */\n  div\n  jump\t// in\ntag_19:\n    /* \"votes.sol\":170:6423  contract projectVotes is Ownable,AccessControl {... */\n  jump(tag_42)\n    /* \"@openzeppelin/contracts/utils/Context.sol\":640:736  function _msgSender() internal view virtual returns (address) {... */\ntag_13:\n    /* \"@openzeppelin/contracts/utils/Context.sol\":719:729  msg.sender */\n  caller\n  swap1\n    /* \"@openzeppelin/contracts/utils/Context.sol\":640:736  function _msgSender() internal view virtual returns (address) {... */\n  jump\t// out\n    /* \"@openzeppelin/contracts/access/Ownable.sol\":2433:2620  function _transferOwnership(address newOwner) internal virtual {... */\ntag_14:\n    /* \"@openzeppelin/contracts/access/Ownable.sol\":2506:2522  address oldOwner */\n  0x00\n    /* \"@openzeppelin/contracts/access/Ownable.sol\":2525:2531  _owner */\n  dup1\n  sload\n  sub(exp(0x02, 0xa0), 0x01)\n    /* \"@openzeppelin/contracts/access/Ownable.sol\":2541:2558  _owner = newOwner */\n  dup4\n  dup2\n  and\n  not(sub(exp(0x02, 0xa0), 0x01))\n  dup4\n  and\n  dup2\n  or\n  dup5\n  sstore\n    /* \"@openzeppelin/contracts/access/Ownable.sol\":2573:2613  OwnershipTransferred(oldOwner, newOwner) */\n  mload(0x40)\n    /* \"@openzeppelin/contracts/access/Ownable.sol\":2525:2531  _owner */\n  swap2\n  swap1\n  swap3\n  and\n  swap3\n  dup4\n  swap2\n    /* \"@openzeppelin/contracts/access/Ownable.sol\":2573:2613  OwnershipTransferred(oldOwner, newOwner) */\n  0x8be0079c531659141344cd1fd0a4f28419497f9722a3daafe3b4186f6b6457e0\n  swap2\n    /* \"@openzeppelin/contracts/access/Ownable.sol\":2506:2522  address oldOwner */\n  swap1\n    /* \"@openzeppelin/contracts/access/Ownable.sol\":2573:2613  OwnershipTransferred(oldOwner, newOwner) */\n  log3\n    /* \"@openzeppelin/contracts/access/Ownable.sol\":2496:2620  {... */\n  pop\n    /* \"@openzeppelin/contracts/access/Ownable.sol\":2433:2620  function _transferOwnership(address newOwner) internal virtual {... */\n  pop\n  jump\t// out\n    /* \"@openzeppelin/contracts/access/AccessControl.sol\":6824:6934  function _setupRole(bytes32 role, address account) internal virtual {... */\ntag_17:\n    /* \"@openzeppelin/contracts/access/AccessControl.sol\":6902:6927  _grantRole(role, account) */\n  tag_25\n    /* \"@openzeppelin/contracts/access/AccessControl.sol\":6913:6917  role */\n  dup3\n    /* \"@openzeppelin/contracts/access/AccessControl.sol\":6919:6926  account */\n  dup3\n    /* \"@openzeppelin/contracts/access/AccessControl.sol\":6902:6912  _grantRole */\n  0x0100000000\n  tag_26\n  dup2\n  mul\n    /* \"@openzeppelin/contracts/access/AccessControl.sol\":6902:6927  _grantRole(role, account) */\n  div\n  jump\t// in\ntag_25:\n    /* \"@openzeppelin/contracts/access/AccessControl.sol\":6824:6934  function _setupRole(bytes32 role, address account) internal virtual {... */\n  pop\n  pop\n  jump\t// out\n    /* \"@openzeppelin/contracts/access/AccessControl.sol\":7059:7306  function _setRoleAdmin(bytes32 role, bytes32 adminRole) internal virtual {... */\ntag_20:\n    /* \"@openzeppelin/contracts/access/AccessControl.sol\":7142:7167  bytes32 previousAdminRole */\n  0x00\n    /* \"@openzeppelin/contracts/access/AccessControl.sol\":7170:7188  getRoleAdmin(role) */\n  tag_28\n    /* \"@openzeppelin/contracts/access/AccessControl.sol\":7183:7187  role */\n  dup4\n    /* \"@openzeppelin/contracts/access/AccessControl.sol\":7170:7182  getRoleAdmin */\n  0x0100000000\n  tag_29\n  dup2\n  mul\n    /* \"@openzeppelin/contracts/access/AccessControl.sol\":7170:7188  getRoleAdmin(role) */\n  div\n  jump\t// in\ntag_28:\n    /* \"@openzeppelin/contracts/access/AccessControl.sol\":7198:7210  _roles[role] */\n  0x00\n  dup5\n  dup2\n  mstore\n    /* \"@openzeppelin/contracts/access/AccessControl.sol\":7198:7204  _roles */\n  0x01\n    /* \"@openzeppelin/contracts/access/AccessControl.sol\":7198:7210  _roles[role] */\n  0x20\n  dup2\n  swap1\n  mstore\n  0x40\n  dup1\n  dup4\n  keccak256\n    /* \"@openzeppelin/contracts/access/AccessControl.sol\":7198:7220  _roles[role].adminRole */\n  swap1\n  swap2\n  add\n    /* \"@openzeppelin/contracts/access/AccessControl.sol\":7198:7232  _roles[role].adminRole = adminRole */\n  dup6\n  swap1\n  sstore\n    /* \"@openzeppelin/contracts/access/AccessControl.sol\":7247:7299  RoleAdminChanged(role, previousAdminRole, adminRole) */\n  mload\n    /* \"@openzeppelin/contracts/access/AccessControl.sol\":7142:7188  bytes32 previousAdminRole = getRoleAdmin(role) */\n  swap2\n  swap3\n  pop\n    /* \"@openzeppelin/contracts/access/AccessControl.sol\":7223:7232  adminRole */\n  dup4\n  swap2\n    /* \"@openzeppelin/contracts/access/AccessControl.sol\":7142:7188  bytes32 previousAdminRole = getRoleAdmin(role) */\n  dup4\n  swap2\n    /* \"@openzeppelin/contracts/access/AccessControl.sol\":7205:7209  role */\n  dup7\n  swap2\n    /* \"@openzeppelin/contracts/access/AccessControl.sol\":7247:7299  RoleAdminChanged(role, previousAdminRole, adminRole) */\n  0xbd79b86ffe0ab8e8776151514217cd7cacd52c909f66475c3af44e129f0b00ff\n  swap2\n    /* \"@openzeppelin/contracts/access/AccessControl.sol\":7198:7210  _roles[role] */\n  swap1\n    /* \"@openzeppelin/contracts/access/AccessControl.sol\":7247:7299  RoleAdminChanged(role, previousAdminRole, adminRole) */\n  log4\n    /* \"@openzeppelin/contracts/access/AccessControl.sol\":7132:7306  {... */\n  pop\n    /* \"@openzeppelin/contracts/access/AccessControl.sol\":7059:7306  function _setRoleAdmin(bytes32 role, bytes32 adminRole) internal virtual {... */\n  pop\n  pop\n  jump\t// out\n    /* \"@openzeppelin/contracts/access/AccessControl.sol\":7474:7707  function _grantRole(bytes32 role, address account) internal virtual {... */\ntag_26:\n    /* \"@openzeppelin/contracts/access/AccessControl.sol\":7557:7579  hasRole(role, account) */\n  tag_31\n    /* \"@openzeppelin/contracts/access/AccessControl.sol\":7565:7569  role */\n  dup3\n    /* \"@openzeppelin/contracts/access/AccessControl.sol\":7571:7578  account */\n  dup3\n    /* \"@openzeppelin/contracts/access/AccessControl.sol\":7557:7564  hasRole */\n  0x0100000000\n  tag_32\n  dup2\n  mul\n    /* \"@openzeppelin/contracts/access/AccessControl.sol\":7557:7579  hasRole(role, account) */\n  div\n  jump\t// in\ntag_31:\n    /* \"@openzeppelin/contracts/access/AccessControl.sol\":7552:7701  if (!hasRole(role, account)) {... */\n  tag_25\n  jumpi\n    /* \"@openzeppelin/contracts/access/AccessControl.sol\":7595:7607  _roles[role] */\n  0x00\n  dup3\n  dup2\n  mstore\n    /* \"@openzeppelin/contracts/access/AccessControl.sol\":7627:7631  true */\n  0x01\n    /* \"@openzeppelin/contracts/access/AccessControl.sol\":7595:7607  _roles[role] */\n  0x20\n  dup2\n  dup2\n  mstore\n  0x40\n  dup1\n  dup5\n  keccak256\n  sub(exp(0x02, 0xa0), 0x01)\n    /* \"@openzeppelin/contracts/access/AccessControl.sol\":7595:7624  _roles[role].members[account] */\n  dup7\n  and\n  dup6\n  mstore\n  swap1\n  swap2\n  mstore\n  swap1\n  swap2\n  keccak256\n    /* \"@openzeppelin/contracts/access/AccessControl.sol\":7595:7631  _roles[role].members[account] = true */\n  dup1\n  sload\n  not(0xff)\n  and\n  swap1\n  swap2\n  or\n  swap1\n  sstore\n    /* \"@openzeppelin/contracts/access/AccessControl.sol\":7677:7689  _msgSender() */\n  tag_34\n    /* \"@openzeppelin/contracts/access/AccessControl.sol\":7677:7687  _msgSender */\n  0x0100000000\n  tag_13\n  dup2\n  mul\n    /* \"@openzeppelin/contracts/access/AccessControl.sol\":7677:7689  _msgSender() */\n  div\n  jump\t// in\ntag_34:\n  sub(exp(0x02, 0xa0), 0x01)\n    /* \"@openzeppelin/contracts/access/AccessControl.sol\":7650:7690  RoleGranted(role, account, _msgSender()) */\n  and\n    /* \"@openzeppelin/contracts/access/AccessControl.sol\":7668:7675  account */\n  dup2\n  sub(exp(0x02, 0xa0), 0x01)\n    /* \"@openzeppelin/contracts/access/AccessControl.sol\":7650:7690  RoleGranted(role, account, _msgSender()) */\n  and\n    /* \"@openzeppelin/contracts/access/AccessControl.sol\":7662:7666  role */\n  dup4\n    /* \"@openzeppelin/contracts/access/AccessControl.sol\":7650:7690  RoleGranted(role, account, _msgSender()) */\n  0x2f8788117e7eff1d82e926ec794901d17c78024a50270940304540a733656f0d\n  mload(0x40)\n  mload(0x40)\n  dup1\n  swap2\n  sub\n  swap1\n  log4\n    /* \"@openzeppelin/contracts/access/AccessControl.sol\":7474:7707  function _grantRole(bytes32 role, address account) internal virtual {... */\n  pop\n  pop\n  jump\t// out\n    /* \"@openzeppelin/contracts/access/AccessControl.sol\":4391:4520  function getRoleAdmin(bytes32 role) public view virtual override returns (bytes32) {... */\ntag_29:\n    /* \"@openzeppelin/contracts/access/AccessControl.sol\":4465:4472  bytes32 */\n  0x00\n    /* \"@openzeppelin/contracts/access/AccessControl.sol\":4491:4503  _roles[role] */\n  swap1\n  dup2\n  mstore\n    /* \"@openzeppelin/contracts/access/AccessControl.sol\":4491:4497  _roles */\n  0x01\n    /* \"@openzeppelin/contracts/access/AccessControl.sol\":4491:4503  _roles[role] */\n  0x20\n  dup2\n  swap1\n  mstore\n  0x40\n  swap1\n  swap2\n  keccak256\n    /* \"@openzeppelin/contracts/access/AccessControl.sol\":4491:4513  _roles[role].adminRole */\n  add\n  sload\n  swap1\n    /* \"@openzeppelin/contracts/access/AccessControl.sol\":4391:4520  function getRoleAdmin(bytes32 role) public view virtual override returns (bytes32) {... */\n  jump\t// out\n    /* \"@openzeppelin/contracts/access/AccessControl.sol\":2895:3040  function hasRole(bytes32 role, address account) public view virtual override returns (bool) {... */\ntag_32:\n    /* \"@openzeppelin/contracts/access/AccessControl.sol\":2981:2985  bool */\n  0x00\n    /* \"@openzeppelin/contracts/access/AccessControl.sol\":3004:3016  _roles[role] */\n  swap2\n  dup3\n  mstore\n    /* \"@openzeppelin/contracts/access/AccessControl.sol\":3004:3010  _roles */\n  0x01\n    /* \"@openzeppelin/contracts/access/AccessControl.sol\":3004:3016  _roles[role] */\n  0x20\n  swap1\n  dup2\n  mstore\n  0x40\n  dup1\n  dup5\n  keccak256\n  sub(exp(0x02, 0xa0), 0x01)\n    /* \"@openzeppelin/contracts/access/AccessControl.sol\":3004:3033  _roles[role].members[account] */\n  swap4\n  swap1\n  swap4\n  and\n  dup5\n  mstore\n  swap2\n  swap1\n  mstore\n  swap1\n  keccak256\n  sload\n  0xff\n  and\n  swap1\n    /* \"@openzeppelin/contracts/access/AccessControl.sol\":2895:3040  function hasRole(bytes32 role, address account) public view virtual override returns (bool) {... */\n  jump\t// out\n    /* \"#utility.yul\":14:198   */\ntag_37:\n    /* \"#utility.yul\":66:143   */\n  0x4e487b7100000000000000000000000000000000000000000000000000000000\n    /* \"#utility.yul\":63:64   */\n  0x00\n    /* \"#utility.yul\":56:144   */\n  mstore\n    /* \"#utility.yul\":163:167   */\n  0x41\n    /* \"#utility.yul\":160:161   */\n  0x04\n    /* \"#utility.yul\":153:168   */\n  mstore\n    /* \"#utility.yul\":187:191   */\n  0x24\n    /* \"#utility.yul\":184:185   */\n  0x00\n    /* \"#utility.yul\":177:192   */\n  revert\n    /* \"#utility.yul\":203:640   */\ntag_38:\n    /* \"#utility.yul\":288:289   */\n  0x02\n    /* \"#utility.yul\":278:290   */\n  dup2\n  div\n    /* \"#utility.yul\":335:336   */\n  0x01\n    /* \"#utility.yul\":325:337   */\n  dup3\n  and\n  dup1\n    /* \"#utility.yul\":346:407   */\n  tag_45\n  jumpi\n    /* \"#utility.yul\":400:404   */\n  0x7f\n    /* \"#utility.yul\":392:398   */\n  dup3\n    /* \"#utility.yul\":388:405   */\n  and\n    /* \"#utility.yul\":378:405   */\n  swap2\n  pop\n    /* \"#utility.yul\":346:407   */\ntag_45:\n    /* \"#utility.yul\":453:455   */\n  0x20\n    /* \"#utility.yul\":445:451   */\n  dup3\n    /* \"#utility.yul\":442:456   */\n  lt\n    /* \"#utility.yul\":422:440   */\n  dup2\n    /* \"#utility.yul\":419:457   */\n  sub\n    /* \"#utility.yul\":416:634   */\n  tag_46\n  jumpi\n    /* \"#utility.yul\":490:567   */\n  0x4e487b7100000000000000000000000000000000000000000000000000000000\n    /* \"#utility.yul\":487:488   */\n  0x00\n    /* \"#utility.yul\":480:568   */\n  mstore\n    /* \"#utility.yul\":591:595   */\n  0x22\n    /* \"#utility.yul\":588:589   */\n  0x04\n    /* \"#utility.yul\":581:596   */\n  mstore\n    /* \"#utility.yul\":619:623   */\n  0x24\n    /* \"#utility.yul\":616:617   */\n  0x00\n    /* \"#utility.yul\":609:624   */\n  revert\n    /* \"#utility.yul\":416:634   */\ntag_46:\n  pop\n    /* \"#utility.yul\":203:640   */\n  swap2\n  swap1\n  pop\n  jump\t// out\n    /* \"#utility.yul\":771:1322   */\ntag_40:\n    /* \"#utility.yul\":873:875   */\n  0x1f\n    /* \"#utility.yul\":868:871   */\n  dup3\n    /* \"#utility.yul\":865:876   */\n  gt\n    /* \"#utility.yul\":862:1316   */\n  iszero\n  tag_49\n  jumpi\n    /* \"#utility.yul\":909:910   */\n  0x00\n    /* \"#utility.yul\":934:939   */\n  dup2\n    /* \"#utility.yul\":930:932   */\n  dup2\n    /* \"#utility.yul\":923:940   */\n  mstore\n    /* \"#utility.yul\":979:983   */\n  0x20\n    /* \"#utility.yul\":975:977   */\n  dup2\n    /* \"#utility.yul\":965:984   */\n  keccak256\n    /* \"#utility.yul\":1051:1055   */\n  0x20\n    /* \"#utility.yul\":1046:1048   */\n  0x1f\n    /* \"#utility.yul\":1034:1044   */\n  dup7\n    /* \"#utility.yul\":1030:1049   */\n  add\n    /* \"#utility.yul\":1026:1056   */\n  div\n    /* \"#utility.yul\":1020:1024   */\n  dup2\n    /* \"#utility.yul\":1016:1057   */\n  add\n    /* \"#utility.yul\":1088:1092   */\n  0x20\n    /* \"#utility.yul\":1076:1086   */\n  dup7\n    /* \"#utility.yul\":1073:1093   */\n  lt\n    /* \"#utility.yul\":1070:1117   */\n  iszero\n  tag_50\n  jumpi\n  pop\n    /* \"#utility.yul\":1111:1115   */\n  dup1\n    /* \"#utility.yul\":1070:1117   */\ntag_50:\n    /* \"#utility.yul\":1168:1172   */\n  0x20\n    /* \"#utility.yul\":1163:1165   */\n  0x1f\n    /* \"#utility.yul\":1158:1161   */\n  dup7\n    /* \"#utility.yul\":1154:1166   */\n  add\n    /* \"#utility.yul\":1150:1173   */\n  div\n    /* \"#utility.yul\":1144:1148   */\n  dup3\n    /* \"#utility.yul\":1140:1174   */\n  add\n    /* \"#utility.yul\":1130:1174   */\n  swap2\n  pop\n    /* \"#utility.yul\":1224:1306   */\ntag_51:\n    /* \"#utility.yul\":1242:1244   */\n  dup2\n    /* \"#utility.yul\":1235:1240   */\n  dup2\n    /* \"#utility.yul\":1232:1245   */\n  lt\n    /* \"#utility.yul\":1224:1306   */\n  iszero\n  tag_53\n  jumpi\n    /* \"#utility.yul\":1287:1304   */\n  dup3\n  dup2\n  sstore\n    /* \"#utility.yul\":1268:1269   */\n  0x01\n    /* \"#utility.yul\":1257:1270   */\n  add\n    /* \"#utility.yul\":1224:1306   */\n  jump(tag_51)\ntag_53:\n    /* \"#utility.yul\":1228:1231   */\n  pop\n  pop\n  pop\n    /* \"#utility.yul\":862:1316   */\ntag_49:\n    /* \"#utility.yul\":771:1322   */\n  pop\n  pop\n  pop\n  jump\t// out\n    /* \"#utility.yul\":1506:2865   */\ntag_2:\n    /* \"#utility.yul\":1632:1635   */\n  dup2\n    /* \"#utility.yul\":1626:1636   */\n  mload\n    /* \"#utility.yul\":1659:1677   */\n  0xffffffffffffffff\n    /* \"#utility.yul\":1651:1657   */\n  dup2\n    /* \"#utility.yul\":1648:1678   */\n  gt\n    /* \"#utility.yul\":1645:1701   */\n  iszero\n  tag_57\n  jumpi\n    /* \"#utility.yul\":1681:1699   */\n  tag_57\n  tag_37\n  jump\t// in\ntag_57:\n    /* \"#utility.yul\":1710:1807   */\n  tag_58\n    /* \"#utility.yul\":1800:1806   */\n  dup2\n    /* \"#utility.yul\":1760:1798   */\n  tag_59\n    /* \"#utility.yul\":1792:1796   */\n  dup5\n    /* \"#utility.yul\":1786:1797   */\n  sload\n    /* \"#utility.yul\":1760:1798   */\n  tag_38\n  jump\t// in\ntag_59:\n    /* \"#utility.yul\":1754:1758   */\n  dup5\n    /* \"#utility.yul\":1710:1807   */\n  tag_40\n  jump\t// in\ntag_58:\n    /* \"#utility.yul\":1862:1866   */\n  0x20\n  dup1\n    /* \"#utility.yul\":1926:1928   */\n  0x1f\n    /* \"#utility.yul\":1915:1929   */\n  dup4\n  gt\n    /* \"#utility.yul\":1943:1944   */\n  0x01\n    /* \"#utility.yul\":1938:2608   */\n  dup2\n  eq\n  tag_61\n  jumpi\n    /* \"#utility.yul\":2652:2653   */\n  0x00\n    /* \"#utility.yul\":2669:2675   */\n  dup5\n    /* \"#utility.yul\":2666:2755   */\n  iszero\n  tag_62\n  jumpi\n  pop\n    /* \"#utility.yul\":2721:2740   */\n  dup6\n  dup4\n  add\n    /* \"#utility.yul\":2715:2741   */\n  mload\n    /* \"#utility.yul\":2666:2755   */\ntag_62:\n    /* \"#utility.yul\":1487:1488   */\n  0x02\n    /* \"#utility.yul\":1483:1494   */\n  dup1\n  dup7\n  mul\n    /* \"#utility.yul\":1470:1471   */\n  0x08\n    /* \"#utility.yul\":1466:1477   */\n  dup8\n  mul\n    /* \"#utility.yul\":1459:1478   */\n  swap1\n  swap2\n  exp\n  not(0x00)\n    /* \"#utility.yul\":1447:1479   */\n  div\n    /* \"#utility.yul\":1443:1480   */\n  not\n    /* \"#utility.yul\":1433:1481   */\n  dup3\n  and\n    /* \"#utility.yul\":1430:1495   */\n  or\n    /* \"#utility.yul\":2775:2779   */\n  dup7\n    /* \"#utility.yul\":2768:2849   */\n  sstore\n  pop\n    /* \"#utility.yul\":1908:2859   */\n  jump(tag_53)\n    /* \"#utility.yul\":1938:2608   */\ntag_61:\n    /* \"#utility.yul\":718:719   */\n  0x00\n    /* \"#utility.yul\":711:725   */\n  dup6\n  dup2\n  mstore\n    /* \"#utility.yul\":755:759   */\n  0x20\n    /* \"#utility.yul\":742:760   */\n  dup2\n  keccak256\n  not(0x1f)\n    /* \"#utility.yul\":1974:1994   */\n  dup7\n  and\n  swap2\n    /* \"#utility.yul\":2092:2328   */\ntag_65:\n    /* \"#utility.yul\":2106:2113   */\n  dup3\n    /* \"#utility.yul\":2103:2104   */\n  dup2\n    /* \"#utility.yul\":2100:2114   */\n  lt\n    /* \"#utility.yul\":2092:2328   */\n  iszero\n  tag_67\n  jumpi\n    /* \"#utility.yul\":2195:2214   */\n  dup9\n  dup7\n  add\n    /* \"#utility.yul\":2189:2215   */\n  mload\n    /* \"#utility.yul\":2174:2216   */\n  dup3\n  sstore\n    /* \"#utility.yul\":2287:2314   */\n  swap5\n  dup5\n  add\n  swap5\n    /* \"#utility.yul\":2255:2256   */\n  0x01\n    /* \"#utility.yul\":2243:2257   */\n  swap1\n  swap2\n  add\n  swap1\n    /* \"#utility.yul\":2122:2141   */\n  dup5\n  add\n    /* \"#utility.yul\":2092:2328   */\n  jump(tag_65)\ntag_67:\n    /* \"#utility.yul\":2096:2099   */\n  pop\n    /* \"#utility.yul\":2356:2362   */\n  dup6\n    /* \"#utility.yul\":2347:2354   */\n  dup3\n    /* \"#utility.yul\":2344:2363   */\n  lt\n    /* \"#utility.yul\":2341:2549   */\n  iszero\n  tag_68\n  jumpi\n    /* \"#utility.yul\":2417:2436   */\n  dup8\n  dup6\n  add\n    /* \"#utility.yul\":2411:2437   */\n  mload\n    /* \"#utility.yul\":2511:2512   */\n  0x08\n    /* \"#utility.yul\":2526:2528   */\n  0x1f\n    /* \"#utility.yul\":2514:2529   */\n  dup9\n  and\n    /* \"#utility.yul\":2507:2530   */\n  mul\n    /* \"#utility.yul\":2504:2505   */\n  0x02\n    /* \"#utility.yul\":2500:2531   */\n  exp\n  not(0x00)\n    /* \"#utility.yul\":2488:2532   */\n  div\n    /* \"#utility.yul\":2484:2533   */\n  not\n    /* \"#utility.yul\":2469:2534   */\n  and\n    /* \"#utility.yul\":2454:2535   */\n  dup2\n  sstore\n    /* \"#utility.yul\":2341:2549   */\ntag_68:\n  pop\n  pop\n  pop\n  pop\n  pop\n    /* \"#utility.yul\":2591:2592   */\n  0x02\n    /* \"#utility.yul\":2579:2593   */\n  mul\n    /* \"#utility.yul\":2595:2596   */\n  0x01\n    /* \"#utility.yul\":2575:2597   */\n  add\n    /* \"#utility.yul\":2562:2598   */\n  swap1\n  sstore\n  pop\n    /* \"#utility.yul\":1506:2865   */\n  jump\t// out\ntag_42:\n    /* \"votes.sol\":170:6423  contract projectVotes is Ownable,AccessControl {... */\n  dataSize(sub_0)\n  dup1\n  dataOffset(sub_0)\n  0x00\n  codecopy\n  0x00\n  return\nstop\n\nsub_0: assembly {\n        /* \"votes.sol\":170:6423  contract projectVotes is Ownable,AccessControl {... */\n      mstore(0x40, 0x80)\n      callvalue\n      dup1\n      iszero\n      tag_1\n      jumpi\n      0x00\n      dup1\n      revert\n    tag_1:\n      pop\n      jumpi(tag_2, lt(calldatasize, 0x04))\n      calldataload(0x00)\n      0x0100000000000000000000000000000000000000000000000000000000\n      swap1\n      div\n      dup1\n      0xa217fddf\n      gt\n      tag_29\n      jumpi\n      dup1\n      0xc7876434\n      gt\n      tag_30\n      jumpi\n      dup1\n      0xf222b579\n      gt\n      tag_31\n      jumpi\n      dup1\n      0xf222b579\n      eq\n      tag_25\n      jumpi\n      dup1\n      0xf2fde38b\n      eq\n      tag_26\n      jumpi\n      dup1\n      0xfa0c3ab8\n      eq\n      tag_27\n      jumpi\n      dup1\n      0xffd7e4e7\n      eq\n      tag_28\n      jumpi\n      0x00\n      dup1\n      revert\n    tag_31:\n      dup1\n      0xc7876434\n      eq\n      tag_22\n      jumpi\n      dup1\n      0xd391014b\n      eq\n      tag_23\n      jumpi\n      dup1\n      0xd547741f\n      eq\n      tag_24\n      jumpi\n      0x00\n      dup1\n      revert\n    tag_30:\n      dup1\n      0xa217fddf\n      eq\n      tag_16\n      jumpi\n      dup1\n      0xae60bb23\n      eq\n      tag_17\n      jumpi\n      dup1\n      0xb1c78ebc\n      eq\n      tag_18\n      jumpi\n      dup1\n      0xb49cd0f7\n      eq\n      tag_40\n      jumpi\n      dup1\n      0xc360a03b\n      eq\n      tag_20\n      jumpi\n      dup1\n      0xc363091c\n      eq\n      tag_21\n      jumpi\n      0x00\n      dup1\n      revert\n    tag_29:\n      dup1\n      0x36568abe\n      gt\n      tag_32\n      jumpi\n      dup1\n      0x715018a6\n      gt\n      tag_33\n      jumpi\n      dup1\n      0x715018a6\n      eq\n      tag_12\n      jumpi\n      dup1\n      0x8356e8e1\n      eq\n      tag_13\n      jumpi\n      dup1\n      0x8da5cb5b\n      eq\n      tag_14\n      jumpi\n      dup1\n      0x91d14854\n      eq\n      tag_15\n      jumpi\n      0x00\n      dup1\n      revert\n    tag_33:\n      dup1\n      0x36568abe\n      eq\n      tag_9\n      jumpi\n      dup1\n      0x5792febf\n      eq\n      tag_10\n      jumpi\n      dup1\n      0x61c78cce\n      eq\n      tag_11\n      jumpi\n      0x00\n      dup1\n      revert\n    tag_32:\n      dup1\n      0x01ffc9a7\n      eq\n      tag_3\n      jumpi\n      dup1\n      0x21606831\n      eq\n      tag_4\n      jumpi\n      dup1\n      0x226839ba\n      eq\n      tag_5\n      jumpi\n      dup1\n      0x248a9ca3\n      eq\n      tag_6\n      jumpi\n      dup1\n      0x2b553fb4\n      eq\n      tag_7\n      jumpi\n      dup1\n      0x2f2ff15d\n      eq\n      tag_8\n      jumpi\n    tag_2:\n      0x00\n      dup1\n      revert\n        /* \"@openzeppelin/contracts/access/AccessControl.sol\":2606:2808  function supportsInterface(bytes4 interfaceId) public view virtual override returns (bool) {... */\n    tag_3:\n      tag_34\n      tag_35\n      calldatasize\n      0x04\n      tag_36\n      jump\t// in\n    tag_35:\n      tag_37\n      jump\t// in\n    tag_34:\n      mload(0x40)\n        /* \"#utility.yul\":516:530   */\n      swap1\n      iszero\n        /* \"#utility.yul\":509:531   */\n      iszero\n        /* \"#utility.yul\":491:532   */\n      dup2\n      mstore\n        /* \"#utility.yul\":479:481   */\n      0x20\n        /* \"#utility.yul\":464:482   */\n      add\n        /* \"@openzeppelin/contracts/access/AccessControl.sol\":2606:2808  function supportsInterface(bytes4 interfaceId) public view virtual override returns (bool) {... */\n    tag_38:\n      mload(0x40)\n      dup1\n      swap2\n      sub\n      swap1\n      return\n        /* \"votes.sol\":3084:3685  function votar (uint _candidato) public {... */\n    tag_4:\n      tag_40\n      tag_41\n      calldatasize\n      0x04\n      tag_42\n      jump\t// in\n    tag_41:\n      tag_43\n      jump\t// in\n    tag_40:\n      stop\n        /* \"votes.sol\":2794:2999  function derechoVoto() public view returns(string memory){... */\n    tag_5:\n      tag_44\n      tag_45\n      jump\t// in\n    tag_44:\n      mload(0x40)\n      tag_38\n      swap2\n      swap1\n      tag_47\n      jump\t// in\n        /* \"@openzeppelin/contracts/access/AccessControl.sol\":4391:4520  function getRoleAdmin(bytes32 role) public view virtual override returns (bytes32) {... */\n    tag_6:\n      tag_48\n      tag_49\n      calldatasize\n      0x04\n      tag_42\n      jump\t// in\n    tag_49:\n        /* \"@openzeppelin/contracts/access/AccessControl.sol\":4465:4472  bytes32 */\n      0x00\n        /* \"@openzeppelin/contracts/access/AccessControl.sol\":4491:4503  _roles[role] */\n      swap1\n      dup2\n      mstore\n        /* \"@openzeppelin/contracts/access/AccessControl.sol\":4491:4497  _roles */\n      0x01\n        /* \"@openzeppelin/contracts/access/AccessControl.sol\":4491:4503  _roles[role] */\n      0x20\n      dup2\n      swap1\n      mstore\n      0x40\n      swap1\n      swap2\n      keccak256\n        /* \"@openzeppelin/contracts/access/AccessControl.sol\":4491:4513  _roles[role].adminRole */\n      add\n      sload\n      swap1\n        /* \"@openzeppelin/contracts/access/AccessControl.sol\":4391:4520  function getRoleAdmin(bytes32 role) public view virtual override returns (bytes32) {... */\n      jump\n    tag_48:\n      mload(0x40)\n        /* \"#utility.yul\":1815:1840   */\n      swap1\n      dup2\n      mstore\n        /* \"#utility.yul\":1803:1805   */\n      0x20\n        /* \"#utility.yul\":1788:1806   */\n      add\n        /* \"@openzeppelin/contracts/access/AccessControl.sol\":4391:4520  function getRoleAdmin(bytes32 role) public view virtual override returns (bytes32) {... */\n      tag_38\n        /* \"#utility.yul\":1669:1846   */\n      jump\n        /* \"votes.sol\":2555:2635  function duenoChecar() public onlyOwner {... */\n    tag_7:\n      tag_40\n      tag_55\n      jump\t// in\n        /* \"@openzeppelin/contracts/access/AccessControl.sol\":4816:4961  function grantRole(bytes32 role, address account) public virtual override onlyRole(getRoleAdmin(role)) {... */\n    tag_8:\n      tag_40\n      tag_57\n      calldatasize\n      0x04\n      tag_58\n      jump\t// in\n    tag_57:\n      tag_59\n      jump\t// in\n        /* \"@openzeppelin/contracts/access/AccessControl.sol\":5925:6139  function renounceRole(bytes32 role, address account) public virtual override {... */\n    tag_9:\n      tag_40\n      tag_61\n      calldatasize\n      0x04\n      tag_58\n      jump\t// in\n    tag_61:\n      tag_62\n      jump\t// in\n        /* \"votes.sol\":4341:5520  function candidatoGanador() public view returns (uint candidatoGanador_)... */\n    tag_10:\n      tag_48\n      tag_64\n      jump\t// in\n        /* \"votes.sol\":1821:2009  Candidato public candidato2 = Candidato({... */\n    tag_11:\n      tag_67\n      tag_68\n      jump\t// in\n    tag_67:\n      mload(0x40)\n      tag_38\n      swap5\n      swap4\n      swap3\n      swap2\n      swap1\n      tag_70\n      jump\t// in\n        /* \"@openzeppelin/contracts/access/Ownable.sol\":1831:1932  function renounceOwnership() public virtual onlyOwner {... */\n    tag_12:\n      tag_40\n      tag_72\n      jump\t// in\n        /* \"votes.sol\":223:289  bytes32 public constant ROLE_VOLTANTE = keccak256(\"ROLE_VOLTANTE\") */\n    tag_13:\n      tag_48\n      0x00\n      dup1\n      mload\n      0x20\n      data_198bebe9962b5ee2dce0a2dd3eab4c01cd873d2542d3fc48a6e161e1a0e8d753\n      dup4\n      codecopy\n      dup2\n      mload\n      swap2\n      mstore\n      dup2\n      jump\n        /* \"@openzeppelin/contracts/access/Ownable.sol\":1201:1286  function owner() public view virtual returns (address) {... */\n    tag_14:\n        /* \"@openzeppelin/contracts/access/Ownable.sol\":1247:1254  address */\n      0x00\n        /* \"@openzeppelin/contracts/access/Ownable.sol\":1273:1279  _owner */\n      sload\n      sub(exp(0x02, 0xa0), 0x01)\n      and\n        /* \"@openzeppelin/contracts/access/Ownable.sol\":1201:1286  function owner() public view virtual returns (address) {... */\n    tag_76:\n      mload(0x40)\n      sub(exp(0x02, 0xa0), 0x01)\n        /* \"#utility.yul\":3146:3201   */\n      swap1\n      swap2\n      and\n        /* \"#utility.yul\":3128:3202   */\n      dup2\n      mstore\n        /* \"#utility.yul\":3116:3118   */\n      0x20\n        /* \"#utility.yul\":3101:3119   */\n      add\n        /* \"@openzeppelin/contracts/access/Ownable.sol\":1201:1286  function owner() public view virtual returns (address) {... */\n      tag_38\n        /* \"#utility.yul\":2982:3208   */\n      jump\n        /* \"@openzeppelin/contracts/access/AccessControl.sol\":2895:3040  function hasRole(bytes32 role, address account) public view virtual override returns (bool) {... */\n    tag_15:\n      tag_34\n      tag_81\n      calldatasize\n      0x04\n      tag_58\n      jump\t// in\n    tag_81:\n      tag_82\n      jump\t// in\n        /* \"@openzeppelin/contracts/access/AccessControl.sol\":2027:2076  bytes32 public constant DEFAULT_ADMIN_ROLE = 0x00 */\n    tag_16:\n      tag_48\n        /* \"@openzeppelin/contracts/access/AccessControl.sol\":2072:2076  0x00 */\n      0x00\n        /* \"@openzeppelin/contracts/access/AccessControl.sol\":2027:2076  bytes32 public constant DEFAULT_ADMIN_ROLE = 0x00 */\n      dup2\n      jump\n        /* \"votes.sol\":603:638  string public votoMalo = \"No Voto!\" */\n    tag_17:\n      tag_44\n      tag_88\n      jump\t// in\n        /* \"votes.sol\":561:597  string public votoBueno = \"Se Voto!\" */\n    tag_18:\n      tag_44\n      tag_91\n      jump\t// in\n        /* \"votes.sol\":6004:6419  function addressGanador() external view returns (address addressGanador_){ ... */\n    tag_20:\n      tag_76\n      tag_96\n      jump\t// in\n        /* \"votes.sol\":2645:2788  function permisoVotar() public view returns(bool) {... */\n    tag_21:\n      tag_34\n      tag_99\n      jump\t// in\n        /* \"votes.sol\":906:1134  function voto() public view returns(bool) {... */\n    tag_22:\n      tag_34\n      tag_102\n      jump\t// in\n        /* \"votes.sol\":365:425  bytes32 public constant ROLE_ADMIN = keccak256(\"ROLE_ADMIN\") */\n    tag_23:\n      tag_48\n        /* \"votes.sol\":402:425  keccak256(\"ROLE_ADMIN\") */\n      0x2172861495e7b85edac73e3cd5fbb42dd675baadf627720e687bcfdaca025096\n        /* \"votes.sol\":365:425  bytes32 public constant ROLE_ADMIN = keccak256(\"ROLE_ADMIN\") */\n      dup2\n      jump\n        /* \"@openzeppelin/contracts/access/AccessControl.sol\":5241:5388  function revokeRole(bytes32 role, address account) public virtual override onlyRole(getRoleAdmin(role)) {... */\n    tag_24:\n      tag_40\n      tag_108\n      calldatasize\n      0x04\n      tag_58\n      jump\t// in\n    tag_108:\n      tag_109\n      jump\t// in\n        /* \"votes.sol\":2017:2206  Candidato public candidato3 = Candidato({... */\n    tag_25:\n      tag_67\n      tag_111\n      jump\t// in\n        /* \"@openzeppelin/contracts/access/Ownable.sol\":2081:2279  function transferOwnership(address newOwner) public virtual onlyOwner {... */\n    tag_26:\n      tag_40\n      tag_114\n      calldatasize\n      0x04\n      tag_115\n      jump\t// in\n    tag_114:\n      tag_116\n      jump\t// in\n        /* \"votes.sol\":1623:1813  Candidato public candidato1 = Candidato({... */\n    tag_27:\n      tag_67\n      tag_118\n      jump\t// in\n        /* \"votes.sol\":5527:5996  function nombreGanador() external view... */\n    tag_28:\n      tag_44\n      tag_121\n      jump\t// in\n        /* \"@openzeppelin/contracts/access/AccessControl.sol\":2606:2808  function supportsInterface(bytes4 interfaceId) public view virtual override returns (bool) {... */\n    tag_37:\n        /* \"@openzeppelin/contracts/access/AccessControl.sol\":2691:2695  bool */\n      0x00\n      not(0xffffffffffffffffffffffffffffffffffffffffffffffffffffffff)\n        /* \"@openzeppelin/contracts/access/AccessControl.sol\":2714:2761  interfaceId == type(IAccessControl).interfaceId */\n      dup3\n      and\n        /* \"@openzeppelin/contracts/access/AccessControl.sol\":2729:2761  type(IAccessControl).interfaceId */\n      0x7965db0b00000000000000000000000000000000000000000000000000000000\n        /* \"@openzeppelin/contracts/access/AccessControl.sol\":2714:2761  interfaceId == type(IAccessControl).interfaceId */\n      eq\n      dup1\n        /* \"@openzeppelin/contracts/access/AccessControl.sol\":2714:2801  interfaceId == type(IAccessControl).interfaceId || super.supportsInterface(interfaceId) */\n      tag_125\n      jumpi\n      pop\n        /* \"@openzeppelin/contracts/utils/introspection/ERC165.sol\":952:977  type(IERC165).interfaceId */\n      0x01ffc9a700000000000000000000000000000000000000000000000000000000\n      not(0xffffffffffffffffffffffffffffffffffffffffffffffffffffffff)\n        /* \"@openzeppelin/contracts/utils/introspection/ERC165.sol\":937:977  interfaceId == type(IERC165).interfaceId */\n      dup4\n      and\n      eq\n        /* \"@openzeppelin/contracts/access/AccessControl.sol\":2765:2801  super.supportsInterface(interfaceId) */\n    tag_125:\n        /* \"@openzeppelin/contracts/access/AccessControl.sol\":2707:2801  return interfaceId == type(IAccessControl).interfaceId || super.supportsInterface(interfaceId) */\n      swap3\n        /* \"@openzeppelin/contracts/access/AccessControl.sol\":2606:2808  function supportsInterface(bytes4 interfaceId) public view virtual override returns (bool) {... */\n      swap2\n      pop\n      pop\n      jump\t// out\n        /* \"votes.sol\":3084:3685  function votar (uint _candidato) public {... */\n    tag_43:\n        /* \"votes.sol\":3151:3161  msg.sender */\n      caller\n        /* \"votes.sol\":3142:3162  votantes[msg.sender] */\n      0x00\n      swap1\n      dup2\n      mstore\n        /* \"votes.sol\":3142:3150  votantes */\n      0x05\n        /* \"votes.sol\":3142:3162  votantes[msg.sender] */\n      0x20\n      mstore\n      0x40\n      swap1\n      keccak256\n        /* \"votes.sol\":3142:3173  votantes[msg.sender].puedeVotar */\n      sload\n      0x0100\n      swap1\n      div\n      0xff\n      and\n        /* \"votes.sol\":3134:3193  require(votantes[msg.sender].puedeVotar, \"No puedes votar\") */\n      tag_128\n      jumpi\n      mload(0x40)\n      mul(0x461bcd, exp(0x02, 0xe5))\n      dup2\n      mstore\n        /* \"#utility.yul\":3606:3608   */\n      0x20\n        /* \"votes.sol\":3134:3193  require(votantes[msg.sender].puedeVotar, \"No puedes votar\") */\n      0x04\n      dup3\n      add\n        /* \"#utility.yul\":3588:3609   */\n      mstore\n        /* \"#utility.yul\":3645:3647   */\n      0x0f\n        /* \"#utility.yul\":3625:3643   */\n      0x24\n      dup3\n      add\n        /* \"#utility.yul\":3618:3648   */\n      mstore\n        /* \"#utility.yul\":3684:3701   */\n      0x4e6f2070756564657320766f7461720000000000000000000000000000000000\n        /* \"#utility.yul\":3664:3682   */\n      0x44\n      dup3\n      add\n        /* \"#utility.yul\":3657:3702   */\n      mstore\n        /* \"#utility.yul\":3719:3737   */\n      0x64\n      add\n        /* \"votes.sol\":3134:3193  require(votantes[msg.sender].puedeVotar, \"No puedes votar\") */\n    tag_129:\n      mload(0x40)\n      dup1\n      swap2\n      sub\n      swap1\n      revert\n    tag_128:\n        /* \"votes.sol\":3212:3222  msg.sender */\n      caller\n        /* \"votes.sol\":3203:3223  votantes[msg.sender] */\n      0x00\n      swap1\n      dup2\n      mstore\n        /* \"votes.sol\":3203:3211  votantes */\n      0x05\n        /* \"votes.sol\":3203:3223  votantes[msg.sender] */\n      0x20\n      mstore\n      0x40\n      swap1\n      keccak256\n        /* \"votes.sol\":3203:3235  votantes[msg.sender].voto = true */\n      dup1\n      sload\n      not(0xff)\n      and\n        /* \"votes.sol\":3231:3235  true */\n      0x01\n        /* \"votes.sol\":3203:3235  votantes[msg.sender].voto = true */\n      swap1\n      dup2\n      or\n      swap1\n      swap2\n      sstore\n        /* \"votes.sol\":3307:3322  _candidato == 1 */\n      dup2\n      swap1\n      sub\n        /* \"votes.sol\":3303:3428  if (_candidato == 1){... */\n      tag_131\n      jumpi\n        /* \"votes.sol\":3403:3404  1 */\n      0x01\n        /* \"votes.sol\":3375:3385  candidato1 */\n      0x06\n        /* \"votes.sol\":3375:3399  candidato1.contadorVotos */\n      0x03\n      add\n      0x00\n        /* \"votes.sol\":3375:3404  candidato1.contadorVotos += 1 */\n      dup3\n      dup3\n      sload\n      tag_132\n      swap2\n      swap1\n      tag_133\n      jump\t// in\n    tag_132:\n      swap1\n      swap2\n      sstore\n      pop\n      pop\n        /* \"votes.sol\":3303:3428  if (_candidato == 1){... */\n    tag_131:\n        /* \"votes.sol\":3441:3451  _candidato */\n      dup1\n        /* \"votes.sol\":3455:3456  2 */\n      0x02\n        /* \"votes.sol\":3441:3456  _candidato == 2 */\n      sub\n        /* \"votes.sol\":3437:3559  if (_candidato == 2){ ... */\n      tag_134\n      jumpi\n        /* \"votes.sol\":3536:3537  1 */\n      0x01\n        /* \"votes.sol\":3508:3518  candidato2 */\n      0x0a\n        /* \"votes.sol\":3508:3532  candidato2.contadorVotos */\n      0x03\n      add\n      0x00\n        /* \"votes.sol\":3508:3537  candidato2.contadorVotos += 1 */\n      dup3\n      dup3\n      sload\n      tag_135\n      swap2\n      swap1\n      tag_133\n      jump\t// in\n    tag_135:\n      swap1\n      swap2\n      sstore\n      pop\n      pop\n        /* \"votes.sol\":3437:3559  if (_candidato == 2){ ... */\n    tag_134:\n        /* \"votes.sol\":3572:3582  _candidato */\n      dup1\n        /* \"votes.sol\":3586:3587  3 */\n      0x03\n        /* \"votes.sol\":3572:3587  _candidato == 3 */\n      sub\n        /* \"votes.sol\":3568:3678  if (_candidato == 3){... */\n      tag_136\n      jumpi\n        /* \"votes.sol\":3666:3667  1 */\n      0x01\n        /* \"votes.sol\":3638:3648  candidato3 */\n      0x0e\n        /* \"votes.sol\":3638:3662  candidato3.contadorVotos */\n      0x03\n      add\n      0x00\n        /* \"votes.sol\":3638:3667  candidato3.contadorVotos += 1 */\n      dup3\n      dup3\n      sload\n      tag_137\n      swap2\n      swap1\n      tag_133\n      jump\t// in\n    tag_137:\n      swap1\n      swap2\n      sstore\n      pop\n      pop\n        /* \"votes.sol\":3568:3678  if (_candidato == 3){... */\n    tag_136:\n        /* \"votes.sol\":3084:3685  function votar (uint _candidato) public {... */\n      pop\n      jump\t// out\n        /* \"votes.sol\":2794:2999  function derechoVoto() public view returns(string memory){... */\n    tag_45:\n        /* \"votes.sol\":2837:2850  string memory */\n      0x60\n        /* \"votes.sol\":2869:2903  hasRole(ROLE_VOLTANTE, msg.sender) */\n      tag_139\n      0x00\n      dup1\n      mload\n      0x20\n      data_198bebe9962b5ee2dce0a2dd3eab4c01cd873d2542d3fc48a6e161e1a0e8d753\n      dup4\n      codecopy\n      dup2\n      mload\n      swap2\n      mstore\n        /* \"votes.sol\":2892:2902  msg.sender */\n      caller\n        /* \"votes.sol\":2869:2876  hasRole */\n      tag_82\n        /* \"votes.sol\":2869:2903  hasRole(ROLE_VOLTANTE, msg.sender) */\n      jump\t// in\n    tag_139:\n        /* \"votes.sol\":2861:2954  require(hasRole(ROLE_VOLTANTE, msg.sender), \"Solo las voltante puede darte derecho al Voto.\") */\n      tag_140\n      jumpi\n      mload(0x40)\n      mul(0x461bcd, exp(0x02, 0xe5))\n      dup2\n      mstore\n        /* \"#utility.yul\":4269:4271   */\n      0x20\n        /* \"votes.sol\":2861:2954  require(hasRole(ROLE_VOLTANTE, msg.sender), \"Solo las voltante puede darte derecho al Voto.\") */\n      0x04\n      dup3\n      add\n        /* \"#utility.yul\":4251:4272   */\n      mstore\n        /* \"#utility.yul\":4308:4310   */\n      0x2e\n        /* \"#utility.yul\":4288:4306   */\n      0x24\n      dup3\n      add\n        /* \"#utility.yul\":4281:4311   */\n      mstore\n        /* \"#utility.yul\":4347:4381   */\n      0x536f6c6f206c617320766f6c74616e7465207075656465206461727465206465\n        /* \"#utility.yul\":4327:4345   */\n      0x44\n      dup3\n      add\n        /* \"#utility.yul\":4320:4382   */\n      mstore\n        /* \"#utility.yul\":4418:4434   */\n      0x726563686f20616c20566f746f2e000000000000000000000000000000000000\n        /* \"#utility.yul\":4398:4416   */\n      0x64\n      dup3\n      add\n        /* \"#utility.yul\":4391:4435   */\n      mstore\n        /* \"#utility.yul\":4452:4471   */\n      0x84\n      add\n        /* \"votes.sol\":2861:2954  require(hasRole(ROLE_VOLTANTE, msg.sender), \"Solo las voltante puede darte derecho al Voto.\") */\n      tag_129\n        /* \"#utility.yul\":4067:4477   */\n      jump\n        /* \"votes.sol\":2861:2954  require(hasRole(ROLE_VOLTANTE, msg.sender), \"Solo las voltante puede darte derecho al Voto.\") */\n    tag_140:\n      pop\n        /* \"votes.sol\":2964:2992  return \"El votante ya voto.\" */\n      0x40\n      dup1\n      mload\n      dup1\n      dup3\n      add\n      swap1\n      swap2\n      mstore\n      0x13\n      dup2\n      mstore\n      0x456c20766f74616e746520796120766f746f2e00000000000000000000000000\n      0x20\n      dup3\n      add\n      mstore\n      swap1\n        /* \"votes.sol\":2794:2999  function derechoVoto() public view returns(string memory){... */\n      jump\t// out\n        /* \"votes.sol\":2555:2635  function duenoChecar() public onlyOwner {... */\n    tag_55:\n        /* \"@openzeppelin/contracts/access/Ownable.sol\":1094:1107  _checkOwner() */\n      tag_145\n        /* \"@openzeppelin/contracts/access/Ownable.sol\":1094:1105  _checkOwner */\n      tag_146\n        /* \"@openzeppelin/contracts/access/Ownable.sol\":1094:1107  _checkOwner() */\n      jump\t// in\n    tag_145:\n        /* \"votes.sol\":2555:2635  function duenoChecar() public onlyOwner {... */\n      jump\t// out\n        /* \"@openzeppelin/contracts/access/AccessControl.sol\":4816:4961  function grantRole(bytes32 role, address account) public virtual override onlyRole(getRoleAdmin(role)) {... */\n    tag_59:\n        /* \"@openzeppelin/contracts/access/AccessControl.sol\":4465:4472  bytes32 */\n      0x00\n        /* \"@openzeppelin/contracts/access/AccessControl.sol\":4491:4503  _roles[role] */\n      dup3\n      dup2\n      mstore\n        /* \"@openzeppelin/contracts/access/AccessControl.sol\":4491:4497  _roles */\n      0x01\n        /* \"@openzeppelin/contracts/access/AccessControl.sol\":4491:4503  _roles[role] */\n      0x20\n      dup2\n      swap1\n      mstore\n      0x40\n      swap1\n      swap2\n      keccak256\n        /* \"@openzeppelin/contracts/access/AccessControl.sol\":4491:4513  _roles[role].adminRole */\n      add\n      sload\n        /* \"@openzeppelin/contracts/access/AccessControl.sol\":2505:2521  _checkRole(role) */\n      tag_150\n        /* \"@openzeppelin/contracts/access/AccessControl.sol\":2516:2520  role */\n      dup2\n        /* \"@openzeppelin/contracts/access/AccessControl.sol\":2505:2515  _checkRole */\n      tag_151\n        /* \"@openzeppelin/contracts/access/AccessControl.sol\":2505:2521  _checkRole(role) */\n      jump\t// in\n    tag_150:\n        /* \"@openzeppelin/contracts/access/AccessControl.sol\":4929:4954  _grantRole(role, account) */\n      tag_153\n        /* \"@openzeppelin/contracts/access/AccessControl.sol\":4940:4944  role */\n      dup4\n        /* \"@openzeppelin/contracts/access/AccessControl.sol\":4946:4953  account */\n      dup4\n        /* \"@openzeppelin/contracts/access/AccessControl.sol\":4929:4939  _grantRole */\n      tag_154\n        /* \"@openzeppelin/contracts/access/AccessControl.sol\":4929:4954  _grantRole(role, account) */\n      jump\t// in\n    tag_153:\n        /* \"@openzeppelin/contracts/access/AccessControl.sol\":4816:4961  function grantRole(bytes32 role, address account) public virtual override onlyRole(getRoleAdmin(role)) {... */\n      pop\n      pop\n      pop\n      jump\t// out\n        /* \"@openzeppelin/contracts/access/AccessControl.sol\":5925:6139  function renounceRole(bytes32 role, address account) public virtual override {... */\n    tag_62:\n      sub(exp(0x02, 0xa0), 0x01)\n        /* \"@openzeppelin/contracts/access/AccessControl.sol\":6020:6043  account == _msgSender() */\n      dup2\n      and\n        /* \"@openzeppelin/contracts/utils/Context.sol\":719:729  msg.sender */\n      caller\n        /* \"@openzeppelin/contracts/access/AccessControl.sol\":6020:6043  account == _msgSender() */\n      eq\n        /* \"@openzeppelin/contracts/access/AccessControl.sol\":6012:6095  require(account == _msgSender(), \"AccessControl: can only renounce roles for self\") */\n      tag_158\n      jumpi\n      mload(0x40)\n      mul(0x461bcd, exp(0x02, 0xe5))\n      dup2\n      mstore\n        /* \"#utility.yul\":4684:4686   */\n      0x20\n        /* \"@openzeppelin/contracts/access/AccessControl.sol\":6012:6095  require(account == _msgSender(), \"AccessControl: can only renounce roles for self\") */\n      0x04\n      dup3\n      add\n        /* \"#utility.yul\":4666:4687   */\n      mstore\n        /* \"#utility.yul\":4723:4725   */\n      0x2f\n        /* \"#utility.yul\":4703:4721   */\n      0x24\n      dup3\n      add\n        /* \"#utility.yul\":4696:4726   */\n      mstore\n        /* \"#utility.yul\":4762:4796   */\n      0x416363657373436f6e74726f6c3a2063616e206f6e6c792072656e6f756e6365\n        /* \"#utility.yul\":4742:4760   */\n      0x44\n      dup3\n      add\n        /* \"#utility.yul\":4735:4797   */\n      mstore\n        /* \"#utility.yul\":4833:4850   */\n      0x20726f6c657320666f722073656c660000000000000000000000000000000000\n        /* \"#utility.yul\":4813:4831   */\n      0x64\n      dup3\n      add\n        /* \"#utility.yul\":4806:4851   */\n      mstore\n        /* \"#utility.yul\":4868:4887   */\n      0x84\n      add\n        /* \"@openzeppelin/contracts/access/AccessControl.sol\":6012:6095  require(account == _msgSender(), \"AccessControl: can only renounce roles for self\") */\n      tag_129\n        /* \"#utility.yul\":4482:4893   */\n      jump\n        /* \"@openzeppelin/contracts/access/AccessControl.sol\":6012:6095  require(account == _msgSender(), \"AccessControl: can only renounce roles for self\") */\n    tag_158:\n        /* \"@openzeppelin/contracts/access/AccessControl.sol\":6106:6132  _revokeRole(role, account) */\n      tag_161\n        /* \"@openzeppelin/contracts/access/AccessControl.sol\":6118:6122  role */\n      dup3\n        /* \"@openzeppelin/contracts/access/AccessControl.sol\":6124:6131  account */\n      dup3\n        /* \"@openzeppelin/contracts/access/AccessControl.sol\":6106:6117  _revokeRole */\n      tag_162\n        /* \"@openzeppelin/contracts/access/AccessControl.sol\":6106:6132  _revokeRole(role, account) */\n      jump\t// in\n    tag_161:\n        /* \"@openzeppelin/contracts/access/AccessControl.sol\":5925:6139  function renounceRole(bytes32 role, address account) public virtual override {... */\n      pop\n      pop\n      jump\t// out\n        /* \"votes.sol\":4341:5520  function candidatoGanador() public view returns (uint candidatoGanador_)... */\n    tag_64:\n        /* \"votes.sol\":4390:4412  uint candidatoGanador_ */\n      0x00\n      dup1\n      dup1\n        /* \"votes.sol\":4784:5513  for (uint p = 0; p <= 3; p++) {... */\n    tag_164:\n        /* \"votes.sol\":4806:4807  3 */\n      0x03\n        /* \"votes.sol\":4801:4802  p */\n      dup2\n        /* \"votes.sol\":4801:4807  p <= 3 */\n      gt\n        /* \"votes.sol\":4784:5513  for (uint p = 0; p <= 3; p++) {... */\n      tag_165\n      jumpi\n        /* \"votes.sol\":4855:4879  candidato2.contadorVotos */\n      sload(0x0d)\n        /* \"votes.sol\":4828:4852  candidato1.contadorVotos */\n      sload(0x09)\n        /* \"votes.sol\":4828:4879  candidato1.contadorVotos > candidato2.contadorVotos */\n      gt\n        /* \"votes.sol\":4828:4934  candidato1.contadorVotos > candidato2.contadorVotos && candidato1.contadorVotos > candidato3.contadorVotos */\n      dup1\n      iszero\n      tag_167\n      jumpi\n      pop\n        /* \"votes.sol\":4910:4934  candidato3.contadorVotos */\n      sload(0x11)\n        /* \"votes.sol\":4883:4907  candidato1.contadorVotos */\n      sload(0x09)\n        /* \"votes.sol\":4883:4934  candidato1.contadorVotos > candidato3.contadorVotos */\n      gt\n        /* \"votes.sol\":4828:4934  candidato1.contadorVotos > candidato2.contadorVotos && candidato1.contadorVotos > candidato3.contadorVotos */\n    tag_167:\n        /* \"votes.sol\":4824:5044  if (candidato1.contadorVotos > candidato2.contadorVotos && candidato1.contadorVotos > candidato3.contadorVotos){... */\n      iszero\n      tag_168\n      jumpi\n        /* \"votes.sol\":4972:4996  candidato1.contadorVotos */\n      sload(0x09)\n        /* \"votes.sol\":5030:5031  1 */\n      0x01\n      swap4\n      pop\n        /* \"votes.sol\":4972:4996  candidato1.contadorVotos */\n      swap2\n      pop\n        /* \"votes.sol\":4824:5044  if (candidato1.contadorVotos > candidato2.contadorVotos && candidato1.contadorVotos > candidato3.contadorVotos){... */\n    tag_168:\n        /* \"votes.sol\":5084:5108  candidato1.contadorVotos */\n      sload(0x09)\n        /* \"votes.sol\":5057:5081  candidato2.contadorVotos */\n      sload(0x0d)\n        /* \"votes.sol\":5057:5108  candidato2.contadorVotos > candidato1.contadorVotos */\n      gt\n        /* \"votes.sol\":5057:5163  candidato2.contadorVotos > candidato1.contadorVotos && candidato2.contadorVotos > candidato3.contadorVotos */\n      dup1\n      iszero\n      tag_169\n      jumpi\n      pop\n        /* \"votes.sol\":5139:5163  candidato3.contadorVotos */\n      sload(0x11)\n        /* \"votes.sol\":5112:5136  candidato2.contadorVotos */\n      sload(0x0d)\n        /* \"votes.sol\":5112:5163  candidato2.contadorVotos > candidato3.contadorVotos */\n      gt\n        /* \"votes.sol\":5057:5163  candidato2.contadorVotos > candidato1.contadorVotos && candidato2.contadorVotos > candidato3.contadorVotos */\n    tag_169:\n        /* \"votes.sol\":5053:5271  if (candidato2.contadorVotos > candidato1.contadorVotos && candidato2.contadorVotos > candidato3.contadorVotos){... */\n      iszero\n      tag_170\n      jumpi\n        /* \"votes.sol\":5201:5225  candidato2.contadorVotos */\n      sload(0x0d)\n        /* \"votes.sol\":5259:5260  2 */\n      0x02\n      swap4\n      pop\n        /* \"votes.sol\":5201:5225  candidato2.contadorVotos */\n      swap2\n      pop\n        /* \"votes.sol\":5053:5271  if (candidato2.contadorVotos > candidato1.contadorVotos && candidato2.contadorVotos > candidato3.contadorVotos){... */\n    tag_170:\n        /* \"votes.sol\":5311:5335  candidato1.contadorVotos */\n      sload(0x09)\n        /* \"votes.sol\":5284:5308  candidato3.contadorVotos */\n      sload(0x11)\n        /* \"votes.sol\":5284:5335  candidato3.contadorVotos > candidato1.contadorVotos */\n      gt\n        /* \"votes.sol\":5284:5390  candidato3.contadorVotos > candidato1.contadorVotos && candidato3.contadorVotos > candidato2.contadorVotos */\n      dup1\n      iszero\n      tag_171\n      jumpi\n      pop\n        /* \"votes.sol\":5366:5390  candidato2.contadorVotos */\n      sload(0x0d)\n        /* \"votes.sol\":5339:5363  candidato3.contadorVotos */\n      sload(0x11)\n        /* \"votes.sol\":5339:5390  candidato3.contadorVotos > candidato2.contadorVotos */\n      gt\n        /* \"votes.sol\":5284:5390  candidato3.contadorVotos > candidato1.contadorVotos && candidato3.contadorVotos > candidato2.contadorVotos */\n    tag_171:\n        /* \"votes.sol\":5280:5498  if (candidato3.contadorVotos > candidato1.contadorVotos && candidato3.contadorVotos > candidato2.contadorVotos){... */\n      iszero\n      tag_172\n      jumpi\n        /* \"votes.sol\":5428:5452  candidato3.contadorVotos */\n      sload(0x11)\n      0x03\n      swap4\n      pop\n      swap2\n      pop\n        /* \"votes.sol\":5280:5498  if (candidato3.contadorVotos > candidato1.contadorVotos && candidato3.contadorVotos > candidato2.contadorVotos){... */\n    tag_172:\n        /* \"votes.sol\":4809:4812  p++ */\n      dup1\n      tag_173\n      dup2\n      tag_174\n      jump\t// in\n    tag_173:\n      swap2\n      pop\n      pop\n        /* \"votes.sol\":4784:5513  for (uint p = 0; p <= 3; p++) {... */\n      jump(tag_164)\n    tag_165:\n      pop\n        /* \"votes.sol\":4418:5520  {... */\n      pop\n        /* \"votes.sol\":4341:5520  function candidatoGanador() public view returns (uint candidatoGanador_)... */\n      swap1\n      jump\t// out\n        /* \"votes.sol\":1821:2009  Candidato public candidato2 = Candidato({... */\n    tag_68:\n      0x0a\n      dup1\n      sload\n      sload(0x0b)\n      0x0c\n      dup1\n      sload\n      swap3\n      swap4\n      sub(exp(0x02, 0xa0), 0x01)\n      swap1\n      swap3\n      and\n      swap3\n      tag_175\n      swap1\n      tag_176\n      jump\t// in\n    tag_175:\n      dup1\n      0x1f\n      add\n      0x20\n      dup1\n      swap2\n      div\n      mul\n      0x20\n      add\n      mload(0x40)\n      swap1\n      dup2\n      add\n      0x40\n      mstore\n      dup1\n      swap3\n      swap2\n      swap1\n      dup2\n      dup2\n      mstore\n      0x20\n      add\n      dup3\n      dup1\n      sload\n      tag_177\n      swap1\n      tag_176\n      jump\t// in\n    tag_177:\n      dup1\n      iszero\n      tag_178\n      jumpi\n      dup1\n      0x1f\n      lt\n      tag_179\n      jumpi\n      0x0100\n      dup1\n      dup4\n      sload\n      div\n      mul\n      dup4\n      mstore\n      swap2\n      0x20\n      add\n      swap2\n      jump(tag_178)\n    tag_179:\n      dup3\n      add\n      swap2\n      swap1\n      0x00\n      mstore\n      keccak256(0x00, 0x20)\n      swap1\n    tag_180:\n      dup2\n      sload\n      dup2\n      mstore\n      swap1\n      0x01\n      add\n      swap1\n      0x20\n      add\n      dup1\n      dup4\n      gt\n      tag_180\n      jumpi\n      dup3\n      swap1\n      sub\n      0x1f\n      and\n      dup3\n      add\n      swap2\n    tag_178:\n      pop\n      pop\n      pop\n      pop\n      pop\n      swap1\n      dup1\n      0x03\n      add\n      sload\n      swap1\n      pop\n      dup5\n      jump\t// out\n        /* \"@openzeppelin/contracts/access/Ownable.sol\":1831:1932  function renounceOwnership() public virtual onlyOwner {... */\n    tag_72:\n        /* \"@openzeppelin/contracts/access/Ownable.sol\":1094:1107  _checkOwner() */\n      tag_182\n        /* \"@openzeppelin/contracts/access/Ownable.sol\":1094:1105  _checkOwner */\n      tag_146\n        /* \"@openzeppelin/contracts/access/Ownable.sol\":1094:1107  _checkOwner() */\n      jump\t// in\n    tag_182:\n        /* \"@openzeppelin/contracts/access/Ownable.sol\":1895:1925  _transferOwnership(address(0)) */\n      tag_145\n        /* \"@openzeppelin/contracts/access/Ownable.sol\":1922:1923  0 */\n      0x00\n        /* \"@openzeppelin/contracts/access/Ownable.sol\":1895:1913  _transferOwnership */\n      tag_185\n        /* \"@openzeppelin/contracts/access/Ownable.sol\":1895:1925  _transferOwnership(address(0)) */\n      jump\t// in\n        /* \"@openzeppelin/contracts/access/AccessControl.sol\":2895:3040  function hasRole(bytes32 role, address account) public view virtual override returns (bool) {... */\n    tag_82:\n        /* \"@openzeppelin/contracts/access/AccessControl.sol\":2981:2985  bool */\n      0x00\n        /* \"@openzeppelin/contracts/access/AccessControl.sol\":3004:3016  _roles[role] */\n      swap2\n      dup3\n      mstore\n        /* \"@openzeppelin/contracts/access/AccessControl.sol\":3004:3010  _roles */\n      0x01\n        /* \"@openzeppelin/contracts/access/AccessControl.sol\":3004:3016  _roles[role] */\n      0x20\n      swap1\n      dup2\n      mstore\n      0x40\n      dup1\n      dup5\n      keccak256\n      sub(exp(0x02, 0xa0), 0x01)\n        /* \"@openzeppelin/contracts/access/AccessControl.sol\":3004:3033  _roles[role].members[account] */\n      swap4\n      swap1\n      swap4\n      and\n      dup5\n      mstore\n      swap2\n      swap1\n      mstore\n      swap1\n      keccak256\n      sload\n      0xff\n      and\n      swap1\n        /* \"@openzeppelin/contracts/access/AccessControl.sol\":2895:3040  function hasRole(bytes32 role, address account) public view virtual override returns (bool) {... */\n      jump\t// out\n        /* \"votes.sol\":603:638  string public votoMalo = \"No Voto!\" */\n    tag_88:\n      0x04\n      dup1\n      sload\n      tag_188\n      swap1\n      tag_176\n      jump\t// in\n    tag_188:\n      dup1\n      0x1f\n      add\n      0x20\n      dup1\n      swap2\n      div\n      mul\n      0x20\n      add\n      mload(0x40)\n      swap1\n      dup2\n      add\n      0x40\n      mstore\n      dup1\n      swap3\n      swap2\n      swap1\n      dup2\n      dup2\n      mstore\n      0x20\n      add\n      dup3\n      dup1\n      sload\n      tag_189\n      swap1\n      tag_176\n      jump\t// in\n    tag_189:\n      dup1\n      iszero\n      tag_190\n      jumpi\n      dup1\n      0x1f\n      lt\n      tag_191\n      jumpi\n      0x0100\n      dup1\n      dup4\n      sload\n      div\n      mul\n      dup4\n      mstore\n      swap2\n      0x20\n      add\n      swap2\n      jump(tag_190)\n    tag_191:\n      dup3\n      add\n      swap2\n      swap1\n      0x00\n      mstore\n      keccak256(0x00, 0x20)\n      swap1\n    tag_192:\n      dup2\n      sload\n      dup2\n      mstore\n      swap1\n      0x01\n      add\n      swap1\n      0x20\n      add\n      dup1\n      dup4\n      gt\n      tag_192\n      jumpi\n      dup3\n      swap1\n      sub\n      0x1f\n      and\n      dup3\n      add\n      swap2\n    tag_190:\n      pop\n      pop\n      pop\n      pop\n      pop\n      dup2\n      jump\t// out\n        /* \"votes.sol\":561:597  string public votoBueno = \"Se Voto!\" */\n    tag_91:\n      0x03\n      dup1\n      sload\n      tag_188\n      swap1\n      tag_176\n      jump\t// in\n        /* \"votes.sol\":6004:6419  function addressGanador() external view returns (address addressGanador_){ ... */\n    tag_96:\n        /* \"votes.sol\":6053:6076  address addressGanador_ */\n      0x00\n        /* \"votes.sol\":6101:6119  candidatoGanador() */\n      tag_200\n        /* \"votes.sol\":6101:6117  candidatoGanador */\n      tag_64\n        /* \"votes.sol\":6101:6119  candidatoGanador() */\n      jump\t// in\n    tag_200:\n        /* \"votes.sol\":6123:6124  1 */\n      0x01\n        /* \"votes.sol\":6101:6124  candidatoGanador() == 1 */\n      sub\n        /* \"votes.sol\":6097:6196  if (candidatoGanador() == 1){... */\n      tag_201\n      jumpi\n      pop\n        /* \"votes.sol\":6157:6184  candidato1.addressCandidato */\n      and(sub(exp(0x02, 0xa0), 0x01), sload(0x07))\n        /* \"votes.sol\":6097:6196  if (candidatoGanador() == 1){... */\n    tag_201:\n        /* \"votes.sol\":6209:6227  candidatoGanador() */\n      tag_202\n        /* \"votes.sol\":6209:6225  candidatoGanador */\n      tag_64\n        /* \"votes.sol\":6209:6227  candidatoGanador() */\n      jump\t// in\n    tag_202:\n        /* \"votes.sol\":6231:6232  2 */\n      0x02\n        /* \"votes.sol\":6209:6232  candidatoGanador() == 2 */\n      sub\n        /* \"votes.sol\":6205:6304  if (candidatoGanador() == 2){... */\n      tag_203\n      jumpi\n      pop\n        /* \"votes.sol\":6265:6292  candidato2.addressCandidato */\n      and(sub(exp(0x02, 0xa0), 0x01), sload(0x0b))\n        /* \"votes.sol\":6205:6304  if (candidatoGanador() == 2){... */\n    tag_203:\n        /* \"votes.sol\":6317:6335  candidatoGanador() */\n      tag_204\n        /* \"votes.sol\":6317:6333  candidatoGanador */\n      tag_64\n        /* \"votes.sol\":6317:6335  candidatoGanador() */\n      jump\t// in\n    tag_204:\n        /* \"votes.sol\":6339:6340  3 */\n      0x03\n        /* \"votes.sol\":6317:6340  candidatoGanador() == 3 */\n      sub\n        /* \"votes.sol\":6313:6412  if (candidatoGanador() == 3){... */\n      tag_205\n      jumpi\n      pop\n        /* \"votes.sol\":6373:6400  candidato3.addressCandidato */\n      and(sub(exp(0x02, 0xa0), 0x01), sload(0x0f))\n        /* \"votes.sol\":6313:6412  if (candidatoGanador() == 3){... */\n    tag_205:\n        /* \"votes.sol\":6004:6419  function addressGanador() external view returns (address addressGanador_){ ... */\n      swap1\n      jump\t// out\n        /* \"votes.sol\":2645:2788  function permisoVotar() public view returns(bool) {... */\n    tag_99:\n        /* \"votes.sol\":2689:2693  bool */\n      0x00\n        /* \"votes.sol\":2713:2747  hasRole(ROLE_VOLTANTE, msg.sender) */\n      tag_207\n      0x00\n      dup1\n      mload\n      0x20\n      data_198bebe9962b5ee2dce0a2dd3eab4c01cd873d2542d3fc48a6e161e1a0e8d753\n      dup4\n      codecopy\n      dup2\n      mload\n      swap2\n      mstore\n        /* \"votes.sol\":2736:2746  msg.sender */\n      caller\n        /* \"votes.sol\":2713:2720  hasRole */\n      tag_82\n        /* \"votes.sol\":2713:2747  hasRole(ROLE_VOLTANTE, msg.sender) */\n      jump\t// in\n    tag_207:\n        /* \"votes.sol\":2705:2760  require(hasRole(ROLE_VOLTANTE, msg.sender), \"No Voto!\") */\n      tag_208\n      jumpi\n      mload(0x40)\n      mul(0x461bcd, exp(0x02, 0xe5))\n      dup2\n      mstore\n        /* \"#utility.yul\":5682:5684   */\n      0x20\n        /* \"votes.sol\":2705:2760  require(hasRole(ROLE_VOLTANTE, msg.sender), \"No Voto!\") */\n      0x04\n      dup3\n      add\n        /* \"#utility.yul\":5664:5685   */\n      mstore\n        /* \"#utility.yul\":5721:5722   */\n      0x08\n        /* \"#utility.yul\":5701:5719   */\n      0x24\n      dup3\n      add\n        /* \"#utility.yul\":5694:5723   */\n      mstore\n        /* \"#utility.yul\":5759:5769   */\n      0x4e6f20566f746f21000000000000000000000000000000000000000000000000\n        /* \"#utility.yul\":5739:5757   */\n      0x44\n      dup3\n      add\n        /* \"#utility.yul\":5732:5770   */\n      mstore\n        /* \"#utility.yul\":5787:5805   */\n      0x64\n      add\n        /* \"votes.sol\":2705:2760  require(hasRole(ROLE_VOLTANTE, msg.sender), \"No Voto!\") */\n      tag_129\n        /* \"#utility.yul\":5480:5811   */\n      jump\n        /* \"votes.sol\":2705:2760  require(hasRole(ROLE_VOLTANTE, msg.sender), \"No Voto!\") */\n    tag_208:\n      pop\n        /* \"votes.sol\":2777:2781  true */\n      0x01\n      swap1\n        /* \"votes.sol\":2645:2788  function permisoVotar() public view returns(bool) {... */\n      jump\t// out\n        /* \"votes.sol\":906:1134  function voto() public view returns(bool) {... */\n    tag_102:\n        /* \"votes.sol\":942:946  bool */\n      0x00\n        /* \"votes.sol\":1053:1087  hasRole(ROLE_VOLTANTE, msg.sender) */\n      tag_212\n      0x00\n      dup1\n      mload\n      0x20\n      data_198bebe9962b5ee2dce0a2dd3eab4c01cd873d2542d3fc48a6e161e1a0e8d753\n      dup4\n      codecopy\n      dup2\n      mload\n      swap2\n      mstore\n        /* \"votes.sol\":1076:1086  msg.sender */\n      caller\n        /* \"votes.sol\":1053:1060  hasRole */\n      tag_82\n        /* \"votes.sol\":1053:1087  hasRole(ROLE_VOLTANTE, msg.sender) */\n      jump\t// in\n    tag_212:\n        /* \"votes.sol\":1045:1106  require(hasRole(ROLE_VOLTANTE, msg.sender), \"Tu puedes voto\") */\n      tag_208\n      jumpi\n      mload(0x40)\n      mul(0x461bcd, exp(0x02, 0xe5))\n      dup2\n      mstore\n        /* \"#utility.yul\":6018:6020   */\n      0x20\n        /* \"votes.sol\":1045:1106  require(hasRole(ROLE_VOLTANTE, msg.sender), \"Tu puedes voto\") */\n      0x04\n      dup3\n      add\n        /* \"#utility.yul\":6000:6021   */\n      mstore\n        /* \"#utility.yul\":6057:6059   */\n      0x0e\n        /* \"#utility.yul\":6037:6055   */\n      0x24\n      dup3\n      add\n        /* \"#utility.yul\":6030:6060   */\n      mstore\n        /* \"#utility.yul\":6096:6112   */\n      0x54752070756564657320766f746f000000000000000000000000000000000000\n        /* \"#utility.yul\":6076:6094   */\n      0x44\n      dup3\n      add\n        /* \"#utility.yul\":6069:6113   */\n      mstore\n        /* \"#utility.yul\":6130:6148   */\n      0x64\n      add\n        /* \"votes.sol\":1045:1106  require(hasRole(ROLE_VOLTANTE, msg.sender), \"Tu puedes voto\") */\n      tag_129\n        /* \"#utility.yul\":5816:6154   */\n      jump\n        /* \"@openzeppelin/contracts/access/AccessControl.sol\":5241:5388  function revokeRole(bytes32 role, address account) public virtual override onlyRole(getRoleAdmin(role)) {... */\n    tag_109:\n        /* \"@openzeppelin/contracts/access/AccessControl.sol\":4465:4472  bytes32 */\n      0x00\n        /* \"@openzeppelin/contracts/access/AccessControl.sol\":4491:4503  _roles[role] */\n      dup3\n      dup2\n      mstore\n        /* \"@openzeppelin/contracts/access/AccessControl.sol\":4491:4497  _roles */\n      0x01\n        /* \"@openzeppelin/contracts/access/AccessControl.sol\":4491:4503  _roles[role] */\n      0x20\n      dup2\n      swap1\n      mstore\n      0x40\n      swap1\n      swap2\n      keccak256\n        /* \"@openzeppelin/contracts/access/AccessControl.sol\":4491:4513  _roles[role].adminRole */\n      add\n      sload\n        /* \"@openzeppelin/contracts/access/AccessControl.sol\":2505:2521  _checkRole(role) */\n      tag_218\n        /* \"@openzeppelin/contracts/access/AccessControl.sol\":2516:2520  role */\n      dup2\n        /* \"@openzeppelin/contracts/access/AccessControl.sol\":2505:2515  _checkRole */\n      tag_151\n        /* \"@openzeppelin/contracts/access/AccessControl.sol\":2505:2521  _checkRole(role) */\n      jump\t// in\n    tag_218:\n        /* \"@openzeppelin/contracts/access/AccessControl.sol\":5355:5381  _revokeRole(role, account) */\n      tag_153\n        /* \"@openzeppelin/contracts/access/AccessControl.sol\":5367:5371  role */\n      dup4\n        /* \"@openzeppelin/contracts/access/AccessControl.sol\":5373:5380  account */\n      dup4\n        /* \"@openzeppelin/contracts/access/AccessControl.sol\":5355:5366  _revokeRole */\n      tag_162\n        /* \"@openzeppelin/contracts/access/AccessControl.sol\":5355:5381  _revokeRole(role, account) */\n      jump\t// in\n        /* \"votes.sol\":2017:2206  Candidato public candidato3 = Candidato({... */\n    tag_111:\n      0x0e\n      dup1\n      sload\n      sload(0x0f)\n      0x10\n      dup1\n      sload\n      swap3\n      swap4\n      sub(exp(0x02, 0xa0), 0x01)\n      swap1\n      swap3\n      and\n      swap3\n      tag_175\n      swap1\n      tag_176\n      jump\t// in\n        /* \"@openzeppelin/contracts/access/Ownable.sol\":2081:2279  function transferOwnership(address newOwner) public virtual onlyOwner {... */\n    tag_116:\n        /* \"@openzeppelin/contracts/access/Ownable.sol\":1094:1107  _checkOwner() */\n      tag_227\n        /* \"@openzeppelin/contracts/access/Ownable.sol\":1094:1105  _checkOwner */\n      tag_146\n        /* \"@openzeppelin/contracts/access/Ownable.sol\":1094:1107  _checkOwner() */\n      jump\t// in\n    tag_227:\n      sub(exp(0x02, 0xa0), 0x01)\n        /* \"@openzeppelin/contracts/access/Ownable.sol\":2169:2191  newOwner != address(0) */\n      dup2\n      and\n        /* \"@openzeppelin/contracts/access/Ownable.sol\":2161:2234  require(newOwner != address(0), \"Ownable: new owner is the zero address\") */\n      tag_229\n      jumpi\n      mload(0x40)\n      mul(0x461bcd, exp(0x02, 0xe5))\n      dup2\n      mstore\n        /* \"#utility.yul\":6361:6363   */\n      0x20\n        /* \"@openzeppelin/contracts/access/Ownable.sol\":2161:2234  require(newOwner != address(0), \"Ownable: new owner is the zero address\") */\n      0x04\n      dup3\n      add\n        /* \"#utility.yul\":6343:6364   */\n      mstore\n        /* \"#utility.yul\":6400:6402   */\n      0x26\n        /* \"#utility.yul\":6380:6398   */\n      0x24\n      dup3\n      add\n        /* \"#utility.yul\":6373:6403   */\n      mstore\n        /* \"#utility.yul\":6439:6473   */\n      0x4f776e61626c653a206e6577206f776e657220697320746865207a65726f2061\n        /* \"#utility.yul\":6419:6437   */\n      0x44\n      dup3\n      add\n        /* \"#utility.yul\":6412:6474   */\n      mstore\n        /* \"#utility.yul\":6510:6518   */\n      0x6464726573730000000000000000000000000000000000000000000000000000\n        /* \"#utility.yul\":6490:6508   */\n      0x64\n      dup3\n      add\n        /* \"#utility.yul\":6483:6519   */\n      mstore\n        /* \"#utility.yul\":6536:6555   */\n      0x84\n      add\n        /* \"@openzeppelin/contracts/access/Ownable.sol\":2161:2234  require(newOwner != address(0), \"Ownable: new owner is the zero address\") */\n      tag_129\n        /* \"#utility.yul\":6159:6561   */\n      jump\n        /* \"@openzeppelin/contracts/access/Ownable.sol\":2161:2234  require(newOwner != address(0), \"Ownable: new owner is the zero address\") */\n    tag_229:\n        /* \"@openzeppelin/contracts/access/Ownable.sol\":2244:2272  _transferOwnership(newOwner) */\n      tag_136\n        /* \"@openzeppelin/contracts/access/Ownable.sol\":2263:2271  newOwner */\n      dup2\n        /* \"@openzeppelin/contracts/access/Ownable.sol\":2244:2262  _transferOwnership */\n      tag_185\n        /* \"@openzeppelin/contracts/access/Ownable.sol\":2244:2272  _transferOwnership(newOwner) */\n      jump\t// in\n        /* \"votes.sol\":1623:1813  Candidato public candidato1 = Candidato({... */\n    tag_118:\n      0x06\n      dup1\n      sload\n      sload(0x07)\n      0x08\n      dup1\n      sload\n      swap3\n      swap4\n      sub(exp(0x02, 0xa0), 0x01)\n      swap1\n      swap3\n      and\n      swap3\n      tag_175\n      swap1\n      tag_176\n      jump\t// in\n        /* \"votes.sol\":5527:5996  function nombreGanador() external view... */\n    tag_121:\n        /* \"votes.sol\":5587:5615  string memory nombreGanador_ */\n      0x60\n        /* \"votes.sol\":5711:5729  candidatoGanador() */\n      tag_239\n        /* \"votes.sol\":5711:5727  candidatoGanador */\n      tag_64\n        /* \"votes.sol\":5711:5729  candidatoGanador() */\n      jump\t// in\n    tag_239:\n        /* \"votes.sol\":5733:5734  1 */\n      0x01\n        /* \"votes.sol\":5711:5734  candidatoGanador() == 1 */\n      sub\n        /* \"votes.sol\":5707:5795  if (candidatoGanador() == 1){... */\n      tag_240\n      jumpi\n        /* \"votes.sol\":5766:5783  candidato1.nombre */\n      0x08\n        /* \"votes.sol\":5749:5783  nombreGanador_ = candidato1.nombre */\n      dup1\n      sload\n      tag_241\n      swap1\n      tag_176\n      jump\t// in\n    tag_241:\n      dup1\n      0x1f\n      add\n      0x20\n      dup1\n      swap2\n      div\n      mul\n      0x20\n      add\n      mload(0x40)\n      swap1\n      dup2\n      add\n      0x40\n      mstore\n      dup1\n      swap3\n      swap2\n      swap1\n      dup2\n      dup2\n      mstore\n      0x20\n      add\n      dup3\n      dup1\n      sload\n      tag_242\n      swap1\n      tag_176\n      jump\t// in\n    tag_242:\n      dup1\n      iszero\n      tag_243\n      jumpi\n      dup1\n      0x1f\n      lt\n      tag_244\n      jumpi\n      0x0100\n      dup1\n      dup4\n      sload\n      div\n      mul\n      dup4\n      mstore\n      swap2\n      0x20\n      add\n      swap2\n      jump(tag_243)\n    tag_244:\n      dup3\n      add\n      swap2\n      swap1\n      0x00\n      mstore\n      keccak256(0x00, 0x20)\n      swap1\n    tag_245:\n      dup2\n      sload\n      dup2\n      mstore\n      swap1\n      0x01\n      add\n      swap1\n      0x20\n      add\n      dup1\n      dup4\n      gt\n      tag_245\n      jumpi\n      dup3\n      swap1\n      sub\n      0x1f\n      and\n      dup3\n      add\n      swap2\n    tag_243:\n      pop\n      pop\n      pop\n      pop\n      pop\n      swap1\n      pop\n        /* \"votes.sol\":5707:5795  if (candidatoGanador() == 1){... */\n    tag_240:\n        /* \"votes.sol\":5808:5826  candidatoGanador() */\n      tag_246\n        /* \"votes.sol\":5808:5824  candidatoGanador */\n      tag_64\n        /* \"votes.sol\":5808:5826  candidatoGanador() */\n      jump\t// in\n    tag_246:\n        /* \"votes.sol\":5830:5831  2 */\n      0x02\n        /* \"votes.sol\":5808:5831  candidatoGanador() == 2 */\n      sub\n        /* \"votes.sol\":5804:5892  if (candidatoGanador() == 2){... */\n      tag_247\n      jumpi\n        /* \"votes.sol\":5863:5880  candidato2.nombre */\n      0x0c\n        /* \"votes.sol\":5846:5880  nombreGanador_ = candidato2.nombre */\n      dup1\n      sload\n      tag_248\n      swap1\n      tag_176\n      jump\t// in\n    tag_248:\n      dup1\n      0x1f\n      add\n      0x20\n      dup1\n      swap2\n      div\n      mul\n      0x20\n      add\n      mload(0x40)\n      swap1\n      dup2\n      add\n      0x40\n      mstore\n      dup1\n      swap3\n      swap2\n      swap1\n      dup2\n      dup2\n      mstore\n      0x20\n      add\n      dup3\n      dup1\n      sload\n      tag_249\n      swap1\n      tag_176\n      jump\t// in\n    tag_249:\n      dup1\n      iszero\n      tag_250\n      jumpi\n      dup1\n      0x1f\n      lt\n      tag_251\n      jumpi\n      0x0100\n      dup1\n      dup4\n      sload\n      div\n      mul\n      dup4\n      mstore\n      swap2\n      0x20\n      add\n      swap2\n      jump(tag_250)\n    tag_251:\n      dup3\n      add\n      swap2\n      swap1\n      0x00\n      mstore\n      keccak256(0x00, 0x20)\n      swap1\n    tag_252:\n      dup2\n      sload\n      dup2\n      mstore\n      swap1\n      0x01\n      add\n      swap1\n      0x20\n      add\n      dup1\n      dup4\n      gt\n      tag_252\n      jumpi\n      dup3\n      swap1\n      sub\n      0x1f\n      and\n      dup3\n      add\n      swap2\n    tag_250:\n      pop\n      pop\n      pop\n      pop\n      pop\n      swap1\n      pop\n        /* \"votes.sol\":5804:5892  if (candidatoGanador() == 2){... */\n    tag_247:\n        /* \"votes.sol\":5905:5923  candidatoGanador() */\n      tag_253\n        /* \"votes.sol\":5905:5921  candidatoGanador */\n      tag_64\n        /* \"votes.sol\":5905:5923  candidatoGanador() */\n      jump\t// in\n    tag_253:\n        /* \"votes.sol\":5927:5928  3 */\n      0x03\n        /* \"votes.sol\":5905:5928  candidatoGanador() == 3 */\n      sub\n        /* \"votes.sol\":5901:5989  if (candidatoGanador() == 3){... */\n      tag_205\n      jumpi\n        /* \"votes.sol\":5960:5977  candidato3.nombre */\n      0x10\n        /* \"votes.sol\":5943:5977  nombreGanador_ = candidato3.nombre */\n      dup1\n      sload\n      tag_255\n      swap1\n      tag_176\n      jump\t// in\n    tag_255:\n      dup1\n      0x1f\n      add\n      0x20\n      dup1\n      swap2\n      div\n      mul\n      0x20\n      add\n      mload(0x40)\n      swap1\n      dup2\n      add\n      0x40\n      mstore\n      dup1\n      swap3\n      swap2\n      swap1\n      dup2\n      dup2\n      mstore\n      0x20\n      add\n      dup3\n      dup1\n      sload\n      tag_256\n      swap1\n      tag_176\n      jump\t// in\n    tag_256:\n      dup1\n      iszero\n      tag_257\n      jumpi\n      dup1\n      0x1f\n      lt\n      tag_258\n      jumpi\n      0x0100\n      dup1\n      dup4\n      sload\n      div\n      mul\n      dup4\n      mstore\n      swap2\n      0x20\n      add\n      swap2\n      jump(tag_257)\n    tag_258:\n      dup3\n      add\n      swap2\n      swap1\n      0x00\n      mstore\n      keccak256(0x00, 0x20)\n      swap1\n    tag_259:\n      dup2\n      sload\n      dup2\n      mstore\n      swap1\n      0x01\n      add\n      swap1\n      0x20\n      add\n      dup1\n      dup4\n      gt\n      tag_259\n      jumpi\n      dup3\n      swap1\n      sub\n      0x1f\n      and\n      dup3\n      add\n      swap2\n    tag_257:\n      pop\n      pop\n      pop\n      pop\n      pop\n      swap1\n      pop\n        /* \"votes.sol\":5527:5996  function nombreGanador() external view... */\n      swap1\n      jump\t// out\n        /* \"@openzeppelin/contracts/access/Ownable.sol\":1359:1489  function _checkOwner() internal view virtual {... */\n    tag_146:\n        /* \"@openzeppelin/contracts/access/Ownable.sol\":1247:1254  address */\n      0x00\n        /* \"@openzeppelin/contracts/access/Ownable.sol\":1273:1279  _owner */\n      sload\n      sub(exp(0x02, 0xa0), 0x01)\n      and\n        /* \"@openzeppelin/contracts/utils/Context.sol\":719:729  msg.sender */\n      caller\n        /* \"@openzeppelin/contracts/access/Ownable.sol\":1422:1445  owner() == _msgSender() */\n      eq\n        /* \"@openzeppelin/contracts/access/Ownable.sol\":1414:1482  require(owner() == _msgSender(), \"Ownable: caller is not the owner\") */\n      tag_145\n      jumpi\n      mload(0x40)\n      mul(0x461bcd, exp(0x02, 0xe5))\n      dup2\n      mstore\n        /* \"#utility.yul\":6768:6770   */\n      0x20\n        /* \"@openzeppelin/contracts/access/Ownable.sol\":1414:1482  require(owner() == _msgSender(), \"Ownable: caller is not the owner\") */\n      0x04\n      dup3\n      add\n        /* \"#utility.yul\":6750:6771   */\n      dup2\n      swap1\n      mstore\n        /* \"#utility.yul\":6787:6805   */\n      0x24\n      dup3\n      add\n        /* \"#utility.yul\":6780:6810   */\n      mstore\n        /* \"#utility.yul\":6846:6880   */\n      0x4f776e61626c653a2063616c6c6572206973206e6f7420746865206f776e6572\n        /* \"#utility.yul\":6826:6844   */\n      0x44\n      dup3\n      add\n        /* \"#utility.yul\":6819:6881   */\n      mstore\n        /* \"#utility.yul\":6898:6916   */\n      0x64\n      add\n        /* \"@openzeppelin/contracts/access/Ownable.sol\":1414:1482  require(owner() == _msgSender(), \"Ownable: caller is not the owner\") */\n      tag_129\n        /* \"#utility.yul\":6566:6922   */\n      jump\n        /* \"@openzeppelin/contracts/access/AccessControl.sol\":3334:3437  function _checkRole(bytes32 role) internal view virtual {... */\n    tag_151:\n        /* \"@openzeppelin/contracts/access/AccessControl.sol\":3400:3430  _checkRole(role, _msgSender()) */\n      tag_136\n        /* \"@openzeppelin/contracts/access/AccessControl.sol\":3411:3415  role */\n      dup2\n        /* \"@openzeppelin/contracts/utils/Context.sol\":719:729  msg.sender */\n      caller\n        /* \"@openzeppelin/contracts/access/AccessControl.sol\":3400:3410  _checkRole */\n      tag_270\n        /* \"@openzeppelin/contracts/access/AccessControl.sol\":3400:3430  _checkRole(role, _msgSender()) */\n      jump\t// in\n        /* \"@openzeppelin/contracts/access/AccessControl.sol\":7474:7707  function _grantRole(bytes32 role, address account) internal virtual {... */\n    tag_154:\n        /* \"@openzeppelin/contracts/access/AccessControl.sol\":7557:7579  hasRole(role, account) */\n      tag_272\n        /* \"@openzeppelin/contracts/access/AccessControl.sol\":7565:7569  role */\n      dup3\n        /* \"@openzeppelin/contracts/access/AccessControl.sol\":7571:7578  account */\n      dup3\n        /* \"@openzeppelin/contracts/access/AccessControl.sol\":7557:7564  hasRole */\n      tag_82\n        /* \"@openzeppelin/contracts/access/AccessControl.sol\":7557:7579  hasRole(role, account) */\n      jump\t// in\n    tag_272:\n        /* \"@openzeppelin/contracts/access/AccessControl.sol\":7552:7701  if (!hasRole(role, account)) {... */\n      tag_161\n      jumpi\n        /* \"@openzeppelin/contracts/access/AccessControl.sol\":7595:7607  _roles[role] */\n      0x00\n      dup3\n      dup2\n      mstore\n        /* \"@openzeppelin/contracts/access/AccessControl.sol\":7627:7631  true */\n      0x01\n        /* \"@openzeppelin/contracts/access/AccessControl.sol\":7595:7607  _roles[role] */\n      0x20\n      dup2\n      dup2\n      mstore\n      0x40\n      dup1\n      dup5\n      keccak256\n      sub(exp(0x02, 0xa0), 0x01)\n        /* \"@openzeppelin/contracts/access/AccessControl.sol\":7595:7624  _roles[role].members[account] */\n      dup7\n      and\n      dup1\n      dup7\n      mstore\n      swap3\n      mstore\n      dup1\n      dup5\n      keccak256\n        /* \"@openzeppelin/contracts/access/AccessControl.sol\":7595:7631  _roles[role].members[account] = true */\n      dup1\n      sload\n      not(0xff)\n      and\n      swap1\n      swap4\n      or\n      swap1\n      swap3\n      sstore\n        /* \"@openzeppelin/contracts/access/AccessControl.sol\":7650:7690  RoleGranted(role, account, _msgSender()) */\n      swap1\n      mload\n        /* \"@openzeppelin/contracts/utils/Context.sol\":719:729  msg.sender */\n      caller\n      swap3\n        /* \"@openzeppelin/contracts/access/AccessControl.sol\":7595:7607  _roles[role] */\n      dup6\n      swap2\n        /* \"@openzeppelin/contracts/access/AccessControl.sol\":7650:7690  RoleGranted(role, account, _msgSender()) */\n      0x2f8788117e7eff1d82e926ec794901d17c78024a50270940304540a733656f0d\n      swap2\n        /* \"@openzeppelin/contracts/access/AccessControl.sol\":7595:7607  _roles[role] */\n      swap1\n        /* \"@openzeppelin/contracts/access/AccessControl.sol\":7650:7690  RoleGranted(role, account, _msgSender()) */\n      log4\n        /* \"@openzeppelin/contracts/access/AccessControl.sol\":7474:7707  function _grantRole(bytes32 role, address account) internal virtual {... */\n      pop\n      pop\n      jump\t// out\n        /* \"@openzeppelin/contracts/access/AccessControl.sol\":7878:8112  function _revokeRole(bytes32 role, address account) internal virtual {... */\n    tag_162:\n        /* \"@openzeppelin/contracts/access/AccessControl.sol\":7961:7983  hasRole(role, account) */\n      tag_277\n        /* \"@openzeppelin/contracts/access/AccessControl.sol\":7969:7973  role */\n      dup3\n        /* \"@openzeppelin/contracts/access/AccessControl.sol\":7975:7982  account */\n      dup3\n        /* \"@openzeppelin/contracts/access/AccessControl.sol\":7961:7968  hasRole */\n      tag_82\n        /* \"@openzeppelin/contracts/access/AccessControl.sol\":7961:7983  hasRole(role, account) */\n      jump\t// in\n    tag_277:\n        /* \"@openzeppelin/contracts/access/AccessControl.sol\":7957:8106  if (hasRole(role, account)) {... */\n      iszero\n      tag_161\n      jumpi\n        /* \"@openzeppelin/contracts/access/AccessControl.sol\":8031:8036  false */\n      0x00\n        /* \"@openzeppelin/contracts/access/AccessControl.sol\":7999:8011  _roles[role] */\n      dup3\n      dup2\n      mstore\n        /* \"@openzeppelin/contracts/access/AccessControl.sol\":7999:8005  _roles */\n      0x01\n        /* \"@openzeppelin/contracts/access/AccessControl.sol\":7999:8011  _roles[role] */\n      0x20\n      swap1\n      dup2\n      mstore\n      0x40\n      dup1\n      dup4\n      keccak256\n      sub(exp(0x02, 0xa0), 0x01)\n        /* \"@openzeppelin/contracts/access/AccessControl.sol\":7999:8028  _roles[role].members[account] */\n      dup6\n      and\n      dup1\n      dup6\n      mstore\n      swap3\n      mstore\n      dup1\n      dup4\n      keccak256\n        /* \"@openzeppelin/contracts/access/AccessControl.sol\":7999:8036  _roles[role].members[account] = false */\n      dup1\n      sload\n      not(0xff)\n      and\n      swap1\n      sstore\n        /* \"@openzeppelin/contracts/access/AccessControl.sol\":8055:8095  RoleRevoked(role, account, _msgSender()) */\n      mload\n        /* \"@openzeppelin/contracts/utils/Context.sol\":719:729  msg.sender */\n      caller\n      swap3\n        /* \"@openzeppelin/contracts/access/AccessControl.sol\":7999:8011  _roles[role] */\n      dup6\n      swap2\n        /* \"@openzeppelin/contracts/access/AccessControl.sol\":8055:8095  RoleRevoked(role, account, _msgSender()) */\n      0xf6391f5c32d9c69d2a47ea670b442974b53935d1edc7fd64eb21e047a839171b\n      swap2\n        /* \"@openzeppelin/contracts/access/AccessControl.sol\":8031:8036  false */\n      swap1\n        /* \"@openzeppelin/contracts/access/AccessControl.sol\":8055:8095  RoleRevoked(role, account, _msgSender()) */\n      log4\n        /* \"@openzeppelin/contracts/access/AccessControl.sol\":7878:8112  function _revokeRole(bytes32 role, address account) internal virtual {... */\n      pop\n      pop\n      jump\t// out\n        /* \"@openzeppelin/contracts/access/Ownable.sol\":2433:2620  function _transferOwnership(address newOwner) internal virtual {... */\n    tag_185:\n        /* \"@openzeppelin/contracts/access/Ownable.sol\":2506:2522  address oldOwner */\n      0x00\n        /* \"@openzeppelin/contracts/access/Ownable.sol\":2525:2531  _owner */\n      dup1\n      sload\n      sub(exp(0x02, 0xa0), 0x01)\n        /* \"@openzeppelin/contracts/access/Ownable.sol\":2541:2558  _owner = newOwner */\n      dup4\n      dup2\n      and\n      not(0xffffffffffffffffffffffffffffffffffffffff)\n      dup4\n      and\n      dup2\n      or\n      dup5\n      sstore\n        /* \"@openzeppelin/contracts/access/Ownable.sol\":2573:2613  OwnershipTransferred(oldOwner, newOwner) */\n      mload(0x40)\n        /* \"@openzeppelin/contracts/access/Ownable.sol\":2525:2531  _owner */\n      swap2\n      swap1\n      swap3\n      and\n      swap3\n      dup4\n      swap2\n        /* \"@openzeppelin/contracts/access/Ownable.sol\":2573:2613  OwnershipTransferred(oldOwner, newOwner) */\n      0x8be0079c531659141344cd1fd0a4f28419497f9722a3daafe3b4186f6b6457e0\n      swap2\n        /* \"@openzeppelin/contracts/access/Ownable.sol\":2506:2522  address oldOwner */\n      swap1\n        /* \"@openzeppelin/contracts/access/Ownable.sol\":2573:2613  OwnershipTransferred(oldOwner, newOwner) */\n      log3\n        /* \"@openzeppelin/contracts/access/Ownable.sol\":2496:2620  {... */\n      pop\n        /* \"@openzeppelin/contracts/access/Ownable.sol\":2433:2620  function _transferOwnership(address newOwner) internal virtual {... */\n      pop\n      jump\t// out\n        /* \"@openzeppelin/contracts/access/AccessControl.sol\":3718:4210  function _checkRole(bytes32 role, address account) internal view virtual {... */\n    tag_270:\n        /* \"@openzeppelin/contracts/access/AccessControl.sol\":3806:3828  hasRole(role, account) */\n      tag_282\n        /* \"@openzeppelin/contracts/access/AccessControl.sol\":3814:3818  role */\n      dup3\n        /* \"@openzeppelin/contracts/access/AccessControl.sol\":3820:3827  account */\n      dup3\n        /* \"@openzeppelin/contracts/access/AccessControl.sol\":3806:3813  hasRole */\n      tag_82\n        /* \"@openzeppelin/contracts/access/AccessControl.sol\":3806:3828  hasRole(role, account) */\n      jump\t// in\n    tag_282:\n        /* \"@openzeppelin/contracts/access/AccessControl.sol\":3801:4204  if (!hasRole(role, account)) {... */\n      tag_161\n      jumpi\n        /* \"@openzeppelin/contracts/access/AccessControl.sol\":3989:4030  Strings.toHexString(uint160(account), 20) */\n      tag_284\n        /* \"@openzeppelin/contracts/access/AccessControl.sol\":4017:4024  account */\n      dup2\n      sub(exp(0x02, 0xa0), 0x01)\n        /* \"@openzeppelin/contracts/access/AccessControl.sol\":3989:4030  Strings.toHexString(uint160(account), 20) */\n      and\n        /* \"@openzeppelin/contracts/access/AccessControl.sol\":4027:4029  20 */\n      0x14\n        /* \"@openzeppelin/contracts/access/AccessControl.sol\":3989:4008  Strings.toHexString */\n      tag_285\n        /* \"@openzeppelin/contracts/access/AccessControl.sol\":3989:4030  Strings.toHexString(uint160(account), 20) */\n      jump\t// in\n    tag_284:\n        /* \"@openzeppelin/contracts/access/AccessControl.sol\":4101:4139  Strings.toHexString(uint256(role), 32) */\n      tag_286\n        /* \"@openzeppelin/contracts/access/AccessControl.sol\":4129:4133  role */\n      dup4\n        /* \"@openzeppelin/contracts/access/AccessControl.sol\":4136:4138  32 */\n      0x20\n        /* \"@openzeppelin/contracts/access/AccessControl.sol\":4101:4120  Strings.toHexString */\n      tag_285\n        /* \"@openzeppelin/contracts/access/AccessControl.sol\":4101:4139  Strings.toHexString(uint256(role), 32) */\n      jump\t// in\n    tag_286:\n        /* \"@openzeppelin/contracts/access/AccessControl.sol\":3896:4161  abi.encodePacked(... */\n      add(0x20, mload(0x40))\n      tag_287\n      swap3\n      swap2\n      swap1\n      tag_288\n      jump\t// in\n    tag_287:\n      0x40\n      dup1\n      mload\n      not(0x1f)\n      dup2\n      dup5\n      sub\n      add\n      dup2\n      mstore\n      swap1\n      dup3\n      swap1\n      mstore\n      mul(0x461bcd, exp(0x02, 0xe5))\n        /* \"@openzeppelin/contracts/access/AccessControl.sol\":3844:4193  revert(... */\n      dup3\n      mstore\n      tag_129\n      swap2\n      0x04\n      add\n      tag_47\n      jump\t// in\n        /* \"@openzeppelin/contracts/utils/Strings.sol\":1652:2093  function toHexString(uint256 value, uint256 length) internal pure returns (string memory) {... */\n    tag_285:\n        /* \"@openzeppelin/contracts/utils/Strings.sol\":1727:1740  string memory */\n      0x60\n        /* \"@openzeppelin/contracts/utils/Strings.sol\":1752:1771  bytes memory buffer */\n      0x00\n        /* \"@openzeppelin/contracts/utils/Strings.sol\":1784:1794  2 * length */\n      tag_291\n        /* \"@openzeppelin/contracts/utils/Strings.sol\":1788:1794  length */\n      dup4\n        /* \"@openzeppelin/contracts/utils/Strings.sol\":1784:1785  2 */\n      0x02\n        /* \"@openzeppelin/contracts/utils/Strings.sol\":1784:1794  2 * length */\n      tag_292\n      jump\t// in\n    tag_291:\n        /* \"@openzeppelin/contracts/utils/Strings.sol\":1784:1798  2 * length + 2 */\n      tag_293\n      swap1\n        /* \"@openzeppelin/contracts/utils/Strings.sol\":1797:1798  2 */\n      0x02\n        /* \"@openzeppelin/contracts/utils/Strings.sol\":1784:1798  2 * length + 2 */\n      tag_133\n      jump\t// in\n    tag_293:\n        /* \"@openzeppelin/contracts/utils/Strings.sol\":1774:1799  new bytes(2 * length + 2) */\n      0xffffffffffffffff\n      dup2\n      gt\n      iszero\n      tag_295\n      jumpi\n      tag_295\n      tag_296\n      jump\t// in\n    tag_295:\n      mload(0x40)\n      swap1\n      dup1\n      dup3\n      mstore\n      dup1\n      0x1f\n      add\n      not(0x1f)\n      and\n      0x20\n      add\n      dup3\n      add\n      0x40\n      mstore\n      dup1\n      iszero\n      tag_297\n      jumpi\n      0x20\n      dup3\n      add\n      dup2\n      dup1\n      calldatasize\n      dup4\n      calldatacopy\n      add\n      swap1\n      pop\n    tag_297:\n      pop\n        /* \"@openzeppelin/contracts/utils/Strings.sol\":1752:1799  bytes memory buffer = new bytes(2 * length + 2) */\n      swap1\n      pop\n        /* \"@openzeppelin/contracts/utils/Strings.sol\":1809:1824  buffer[0] = \"0\" */\n      0x3000000000000000000000000000000000000000000000000000000000000000\n        /* \"@openzeppelin/contracts/utils/Strings.sol\":1809:1815  buffer */\n      dup2\n        /* \"@openzeppelin/contracts/utils/Strings.sol\":1816:1817  0 */\n      0x00\n        /* \"@openzeppelin/contracts/utils/Strings.sol\":1809:1818  buffer[0] */\n      dup2\n      mload\n      dup2\n      lt\n      tag_299\n      jumpi\n      tag_299\n      tag_300\n      jump\t// in\n    tag_299:\n      0x20\n      add\n      add\n        /* \"@openzeppelin/contracts/utils/Strings.sol\":1809:1824  buffer[0] = \"0\" */\n      swap1\n      not(0xffffffffffffffffffffffffffffffffffffffffffffffffffffffffffffff)\n      and\n      swap1\n      dup2\n      0x00\n      byte\n      swap1\n      mstore8\n      pop\n        /* \"@openzeppelin/contracts/utils/Strings.sol\":1834:1849  buffer[1] = \"x\" */\n      0x7800000000000000000000000000000000000000000000000000000000000000\n        /* \"@openzeppelin/contracts/utils/Strings.sol\":1834:1840  buffer */\n      dup2\n        /* \"@openzeppelin/contracts/utils/Strings.sol\":1841:1842  1 */\n      0x01\n        /* \"@openzeppelin/contracts/utils/Strings.sol\":1834:1843  buffer[1] */\n      dup2\n      mload\n      dup2\n      lt\n      tag_302\n      jumpi\n      tag_302\n      tag_300\n      jump\t// in\n    tag_302:\n      0x20\n      add\n      add\n        /* \"@openzeppelin/contracts/utils/Strings.sol\":1834:1849  buffer[1] = \"x\" */\n      swap1\n      not(0xffffffffffffffffffffffffffffffffffffffffffffffffffffffffffffff)\n      and\n      swap1\n      dup2\n      0x00\n      byte\n      swap1\n      mstore8\n      pop\n        /* \"@openzeppelin/contracts/utils/Strings.sol\":1864:1873  uint256 i */\n      0x00\n        /* \"@openzeppelin/contracts/utils/Strings.sol\":1876:1886  2 * length */\n      tag_306\n        /* \"@openzeppelin/contracts/utils/Strings.sol\":1880:1886  length */\n      dup5\n        /* \"@openzeppelin/contracts/utils/Strings.sol\":1876:1877  2 */\n      0x02\n        /* \"@openzeppelin/contracts/utils/Strings.sol\":1876:1886  2 * length */\n      tag_292\n      jump\t// in\n    tag_306:\n        /* \"@openzeppelin/contracts/utils/Strings.sol\":1876:1890  2 * length + 1 */\n      tag_307\n      swap1\n        /* \"@openzeppelin/contracts/utils/Strings.sol\":1889:1890  1 */\n      0x01\n        /* \"@openzeppelin/contracts/utils/Strings.sol\":1876:1890  2 * length + 1 */\n      tag_133\n      jump\t// in\n    tag_307:\n        /* \"@openzeppelin/contracts/utils/Strings.sol\":1864:1890  uint256 i = 2 * length + 1 */\n      swap1\n      pop\n        /* \"@openzeppelin/contracts/utils/Strings.sol\":1859:1991  for (uint256 i = 2 * length + 1; i > 1; --i) {... */\n    tag_303:\n        /* \"@openzeppelin/contracts/utils/Strings.sol\":1896:1897  1 */\n      0x01\n        /* \"@openzeppelin/contracts/utils/Strings.sol\":1892:1893  i */\n      dup2\n        /* \"@openzeppelin/contracts/utils/Strings.sol\":1892:1897  i > 1 */\n      gt\n        /* \"@openzeppelin/contracts/utils/Strings.sol\":1859:1991  for (uint256 i = 2 * length + 1; i > 1; --i) {... */\n      iszero\n      tag_304\n      jumpi\n        /* \"@openzeppelin/contracts/utils/Strings.sol\":1930:1942  _HEX_SYMBOLS */\n      0x3031323334353637383961626364656600000000000000000000000000000000\n        /* \"@openzeppelin/contracts/utils/Strings.sol\":1943:1948  value */\n      dup6\n        /* \"@openzeppelin/contracts/utils/Strings.sol\":1951:1954  0xf */\n      0x0f\n        /* \"@openzeppelin/contracts/utils/Strings.sol\":1943:1954  value & 0xf */\n      and\n        /* \"@openzeppelin/contracts/utils/Strings.sol\":1930:1955  _HEX_SYMBOLS[value & 0xf] */\n      0x10\n      dup2\n      lt\n      tag_309\n      jumpi\n      tag_309\n      tag_300\n      jump\t// in\n    tag_309:\n      byte\n      0x0100000000000000000000000000000000000000000000000000000000000000\n      mul\n        /* \"@openzeppelin/contracts/utils/Strings.sol\":1918:1924  buffer */\n      dup3\n        /* \"@openzeppelin/contracts/utils/Strings.sol\":1925:1926  i */\n      dup3\n        /* \"@openzeppelin/contracts/utils/Strings.sol\":1918:1927  buffer[i] */\n      dup2\n      mload\n      dup2\n      lt\n      tag_311\n      jumpi\n      tag_311\n      tag_300\n      jump\t// in\n    tag_311:\n      0x20\n      add\n      add\n        /* \"@openzeppelin/contracts/utils/Strings.sol\":1918:1955  buffer[i] = _HEX_SYMBOLS[value & 0xf] */\n      swap1\n      not(0xffffffffffffffffffffffffffffffffffffffffffffffffffffffffffffff)\n      and\n      swap1\n      dup2\n      0x00\n      byte\n      swap1\n      mstore8\n      pop\n        /* \"@openzeppelin/contracts/utils/Strings.sol\":1969:1980  value >>= 4 */\n      0x10\n      swap1\n      swap5\n      div\n      swap4\n        /* \"@openzeppelin/contracts/utils/Strings.sol\":1899:1902  --i */\n      tag_312\n      dup2\n      tag_313\n      jump\t// in\n    tag_312:\n      swap1\n      pop\n        /* \"@openzeppelin/contracts/utils/Strings.sol\":1859:1991  for (uint256 i = 2 * length + 1; i > 1; --i) {... */\n      jump(tag_303)\n    tag_304:\n      pop\n        /* \"@openzeppelin/contracts/utils/Strings.sol\":2008:2018  value == 0 */\n      dup4\n      iszero\n        /* \"@openzeppelin/contracts/utils/Strings.sol\":2000:2055  require(value == 0, \"Strings: hex length insufficient\") */\n      tag_314\n      jumpi\n      mload(0x40)\n      mul(0x461bcd, exp(0x02, 0xe5))\n      dup2\n      mstore\n        /* \"#utility.yul\":8638:8640   */\n      0x20\n        /* \"@openzeppelin/contracts/utils/Strings.sol\":2000:2055  require(value == 0, \"Strings: hex length insufficient\") */\n      0x04\n      dup3\n      add\n        /* \"#utility.yul\":8620:8641   */\n      dup2\n      swap1\n      mstore\n        /* \"#utility.yul\":8657:8675   */\n      0x24\n      dup3\n      add\n        /* \"#utility.yul\":8650:8680   */\n      mstore\n        /* \"#utility.yul\":8716:8750   */\n      0x537472696e67733a20686578206c656e67746820696e73756666696369656e74\n        /* \"#utility.yul\":8696:8714   */\n      0x44\n      dup3\n      add\n        /* \"#utility.yul\":8689:8751   */\n      mstore\n        /* \"#utility.yul\":8768:8786   */\n      0x64\n      add\n        /* \"@openzeppelin/contracts/utils/Strings.sol\":2000:2055  require(value == 0, \"Strings: hex length insufficient\") */\n      tag_129\n        /* \"#utility.yul\":8436:8792   */\n      jump\n        /* \"@openzeppelin/contracts/utils/Strings.sol\":2000:2055  require(value == 0, \"Strings: hex length insufficient\") */\n    tag_314:\n        /* \"@openzeppelin/contracts/utils/Strings.sol\":2079:2085  buffer */\n      swap4\n        /* \"@openzeppelin/contracts/utils/Strings.sol\":1652:2093  function toHexString(uint256 value, uint256 length) internal pure returns (string memory) {... */\n      swap3\n      pop\n      pop\n      pop\n      jump\t// out\n        /* \"#utility.yul\":14:346   */\n    tag_36:\n        /* \"#utility.yul\":72:78   */\n      0x00\n        /* \"#utility.yul\":125:127   */\n      0x20\n        /* \"#utility.yul\":113:122   */\n      dup3\n        /* \"#utility.yul\":104:111   */\n      dup5\n        /* \"#utility.yul\":100:123   */\n      sub\n        /* \"#utility.yul\":96:128   */\n      slt\n        /* \"#utility.yul\":93:145   */\n      iszero\n      tag_323\n      jumpi\n        /* \"#utility.yul\":141:142   */\n      0x00\n        /* \"#utility.yul\":138:139   */\n      dup1\n        /* \"#utility.yul\":131:143   */\n      revert\n        /* \"#utility.yul\":93:145   */\n    tag_323:\n        /* \"#utility.yul\":180:189   */\n      dup2\n        /* \"#utility.yul\":167:190   */\n      calldataload\n      not(0xffffffffffffffffffffffffffffffffffffffffffffffffffffffff)\n        /* \"#utility.yul\":223:228   */\n      dup2\n        /* \"#utility.yul\":219:297   */\n      and\n        /* \"#utility.yul\":212:217   */\n      dup2\n        /* \"#utility.yul\":209:298   */\n      eq\n        /* \"#utility.yul\":199:316   */\n      tag_314\n      jumpi\n        /* \"#utility.yul\":312:313   */\n      0x00\n        /* \"#utility.yul\":309:310   */\n      dup1\n        /* \"#utility.yul\":302:314   */\n      revert\n        /* \"#utility.yul\":543:723   */\n    tag_42:\n        /* \"#utility.yul\":602:608   */\n      0x00\n        /* \"#utility.yul\":655:657   */\n      0x20\n        /* \"#utility.yul\":643:652   */\n      dup3\n        /* \"#utility.yul\":634:641   */\n      dup5\n        /* \"#utility.yul\":630:653   */\n      sub\n        /* \"#utility.yul\":626:658   */\n      slt\n        /* \"#utility.yul\":623:675   */\n      iszero\n      tag_327\n      jumpi\n        /* \"#utility.yul\":671:672   */\n      0x00\n        /* \"#utility.yul\":668:669   */\n      dup1\n        /* \"#utility.yul\":661:673   */\n      revert\n        /* \"#utility.yul\":623:675   */\n    tag_327:\n      pop\n        /* \"#utility.yul\":694:717   */\n      calldataload\n      swap2\n        /* \"#utility.yul\":543:723   */\n      swap1\n      pop\n      jump\t// out\n        /* \"#utility.yul\":728:978   */\n    tag_317:\n        /* \"#utility.yul\":813:814   */\n      0x00\n        /* \"#utility.yul\":823:936   */\n    tag_329:\n        /* \"#utility.yul\":837:843   */\n      dup4\n        /* \"#utility.yul\":834:835   */\n      dup2\n        /* \"#utility.yul\":831:844   */\n      lt\n        /* \"#utility.yul\":823:936   */\n      iszero\n      tag_331\n      jumpi\n        /* \"#utility.yul\":913:924   */\n      dup2\n      dup2\n      add\n        /* \"#utility.yul\":907:925   */\n      mload\n        /* \"#utility.yul\":894:905   */\n      dup4\n      dup3\n      add\n        /* \"#utility.yul\":887:926   */\n      mstore\n        /* \"#utility.yul\":859:861   */\n      0x20\n        /* \"#utility.yul\":852:862   */\n      add\n        /* \"#utility.yul\":823:936   */\n      jump(tag_329)\n    tag_331:\n      pop\n      pop\n        /* \"#utility.yul\":970:971   */\n      0x00\n        /* \"#utility.yul\":952:968   */\n      swap2\n      add\n        /* \"#utility.yul\":945:972   */\n      mstore\n        /* \"#utility.yul\":728:978   */\n      jump\t// out\n        /* \"#utility.yul\":983:1254   */\n    tag_318:\n        /* \"#utility.yul\":1025:1028   */\n      0x00\n        /* \"#utility.yul\":1063:1068   */\n      dup2\n        /* \"#utility.yul\":1057:1069   */\n      mload\n        /* \"#utility.yul\":1090:1096   */\n      dup1\n        /* \"#utility.yul\":1085:1088   */\n      dup5\n        /* \"#utility.yul\":1078:1097   */\n      mstore\n        /* \"#utility.yul\":1106:1182   */\n      tag_333\n        /* \"#utility.yul\":1175:1181   */\n      dup2\n        /* \"#utility.yul\":1168:1172   */\n      0x20\n        /* \"#utility.yul\":1163:1166   */\n      dup7\n        /* \"#utility.yul\":1159:1173   */\n      add\n        /* \"#utility.yul\":1152:1156   */\n      0x20\n        /* \"#utility.yul\":1145:1150   */\n      dup7\n        /* \"#utility.yul\":1141:1157   */\n      add\n        /* \"#utility.yul\":1106:1182   */\n      tag_317\n      jump\t// in\n    tag_333:\n        /* \"#utility.yul\":1236:1238   */\n      0x1f\n        /* \"#utility.yul\":1215:1230   */\n      add\n      not(0x1f)\n        /* \"#utility.yul\":1211:1240   */\n      and\n        /* \"#utility.yul\":1202:1241   */\n      swap3\n      swap1\n      swap3\n      add\n        /* \"#utility.yul\":1243:1247   */\n      0x20\n        /* \"#utility.yul\":1198:1248   */\n      add\n      swap3\n        /* \"#utility.yul\":983:1254   */\n      swap2\n      pop\n      pop\n      jump\t// out\n        /* \"#utility.yul\":1259:1479   */\n    tag_47:\n        /* \"#utility.yul\":1408:1410   */\n      0x20\n        /* \"#utility.yul\":1397:1406   */\n      dup2\n        /* \"#utility.yul\":1390:1411   */\n      mstore\n        /* \"#utility.yul\":1371:1375   */\n      0x00\n        /* \"#utility.yul\":1428:1473   */\n      tag_314\n        /* \"#utility.yul\":1469:1471   */\n      0x20\n        /* \"#utility.yul\":1458:1467   */\n      dup4\n        /* \"#utility.yul\":1454:1472   */\n      add\n        /* \"#utility.yul\":1446:1452   */\n      dup5\n        /* \"#utility.yul\":1428:1473   */\n      tag_318\n      jump\t// in\n        /* \"#utility.yul\":1851:2047   */\n    tag_319:\n        /* \"#utility.yul\":1919:1939   */\n      dup1\n      calldataload\n      sub(exp(0x02, 0xa0), 0x01)\n        /* \"#utility.yul\":1968:2022   */\n      dup2\n      and\n        /* \"#utility.yul\":1958:2023   */\n      dup2\n      eq\n        /* \"#utility.yul\":1948:2041   */\n      tag_340\n      jumpi\n        /* \"#utility.yul\":2037:2038   */\n      0x00\n        /* \"#utility.yul\":2034:2035   */\n      dup1\n        /* \"#utility.yul\":2027:2039   */\n      revert\n        /* \"#utility.yul\":1948:2041   */\n    tag_340:\n        /* \"#utility.yul\":1851:2047   */\n      swap2\n      swap1\n      pop\n      jump\t// out\n        /* \"#utility.yul\":2052:2306   */\n    tag_58:\n        /* \"#utility.yul\":2120:2126   */\n      0x00\n        /* \"#utility.yul\":2128:2134   */\n      dup1\n        /* \"#utility.yul\":2181:2183   */\n      0x40\n        /* \"#utility.yul\":2169:2178   */\n      dup4\n        /* \"#utility.yul\":2160:2167   */\n      dup6\n        /* \"#utility.yul\":2156:2179   */\n      sub\n        /* \"#utility.yul\":2152:2184   */\n      slt\n        /* \"#utility.yul\":2149:2201   */\n      iszero\n      tag_342\n      jumpi\n        /* \"#utility.yul\":2197:2198   */\n      0x00\n        /* \"#utility.yul\":2194:2195   */\n      dup1\n        /* \"#utility.yul\":2187:2199   */\n      revert\n        /* \"#utility.yul\":2149:2201   */\n    tag_342:\n        /* \"#utility.yul\":2233:2242   */\n      dup3\n        /* \"#utility.yul\":2220:2243   */\n      calldataload\n        /* \"#utility.yul\":2210:2243   */\n      swap2\n      pop\n        /* \"#utility.yul\":2262:2300   */\n      tag_343\n        /* \"#utility.yul\":2296:2298   */\n      0x20\n        /* \"#utility.yul\":2285:2294   */\n      dup5\n        /* \"#utility.yul\":2281:2299   */\n      add\n        /* \"#utility.yul\":2262:2300   */\n      tag_319\n      jump\t// in\n    tag_343:\n        /* \"#utility.yul\":2252:2300   */\n      swap1\n      pop\n        /* \"#utility.yul\":2052:2306   */\n      swap3\n      pop\n      swap3\n      swap1\n      pop\n      jump\t// out\n        /* \"#utility.yul\":2493:2977   */\n    tag_70:\n        /* \"#utility.yul\":2726:2732   */\n      dup5\n        /* \"#utility.yul\":2715:2724   */\n      dup2\n        /* \"#utility.yul\":2708:2733   */\n      mstore\n      sub(exp(0x02, 0xa0), 0x01)\n        /* \"#utility.yul\":2773:2779   */\n      dup5\n        /* \"#utility.yul\":2769:2824   */\n      and\n        /* \"#utility.yul\":2764:2766   */\n      0x20\n        /* \"#utility.yul\":2753:2762   */\n      dup3\n        /* \"#utility.yul\":2749:2767   */\n      add\n        /* \"#utility.yul\":2742:2825   */\n      mstore\n        /* \"#utility.yul\":2861:2864   */\n      0x80\n        /* \"#utility.yul\":2856:2858   */\n      0x40\n        /* \"#utility.yul\":2845:2854   */\n      dup3\n        /* \"#utility.yul\":2841:2859   */\n      add\n        /* \"#utility.yul\":2834:2865   */\n      mstore\n        /* \"#utility.yul\":2689:2693   */\n      0x00\n        /* \"#utility.yul\":2882:2928   */\n      tag_346\n        /* \"#utility.yul\":2923:2926   */\n      0x80\n        /* \"#utility.yul\":2912:2921   */\n      dup4\n        /* \"#utility.yul\":2908:2927   */\n      add\n        /* \"#utility.yul\":2900:2906   */\n      dup6\n        /* \"#utility.yul\":2882:2928   */\n      tag_318\n      jump\t// in\n    tag_346:\n        /* \"#utility.yul\":2874:2928   */\n      swap1\n      pop\n        /* \"#utility.yul\":2964:2970   */\n      dup3\n        /* \"#utility.yul\":2959:2961   */\n      0x60\n        /* \"#utility.yul\":2948:2957   */\n      dup4\n        /* \"#utility.yul\":2944:2962   */\n      add\n        /* \"#utility.yul\":2937:2971   */\n      mstore\n        /* \"#utility.yul\":2493:2977   */\n      swap6\n      swap5\n      pop\n      pop\n      pop\n      pop\n      pop\n      jump\t// out\n        /* \"#utility.yul\":3213:3399   */\n    tag_115:\n        /* \"#utility.yul\":3272:3278   */\n      0x00\n        /* \"#utility.yul\":3325:3327   */\n      0x20\n        /* \"#utility.yul\":3313:3322   */\n      dup3\n        /* \"#utility.yul\":3304:3311   */\n      dup5\n        /* \"#utility.yul\":3300:3323   */\n      sub\n        /* \"#utility.yul\":3296:3328   */\n      slt\n        /* \"#utility.yul\":3293:3345   */\n      iszero\n      tag_349\n      jumpi\n        /* \"#utility.yul\":3341:3342   */\n      0x00\n        /* \"#utility.yul\":3338:3339   */\n      dup1\n        /* \"#utility.yul\":3331:3343   */\n      revert\n        /* \"#utility.yul\":3293:3345   */\n    tag_349:\n        /* \"#utility.yul\":3364:3393   */\n      tag_314\n        /* \"#utility.yul\":3383:3392   */\n      dup3\n        /* \"#utility.yul\":3364:3393   */\n      tag_319\n      jump\t// in\n        /* \"#utility.yul\":3748:3932   */\n    tag_320:\n      mul(0x4e487b71, exp(0x02, 0xe0))\n        /* \"#utility.yul\":3797:3798   */\n      0x00\n        /* \"#utility.yul\":3790:3878   */\n      mstore\n        /* \"#utility.yul\":3897:3901   */\n      0x11\n        /* \"#utility.yul\":3894:3895   */\n      0x04\n        /* \"#utility.yul\":3887:3902   */\n      mstore\n        /* \"#utility.yul\":3921:3925   */\n      0x24\n        /* \"#utility.yul\":3918:3919   */\n      0x00\n        /* \"#utility.yul\":3911:3926   */\n      revert\n        /* \"#utility.yul\":3937:4062   */\n    tag_133:\n        /* \"#utility.yul\":4002:4011   */\n      dup1\n      dup3\n      add\n        /* \"#utility.yul\":4023:4033   */\n      dup1\n      dup3\n      gt\n        /* \"#utility.yul\":4020:4056   */\n      iszero\n      tag_125\n      jumpi\n        /* \"#utility.yul\":4036:4054   */\n      tag_125\n      tag_320\n      jump\t// in\n        /* \"#utility.yul\":4898:5033   */\n    tag_174:\n        /* \"#utility.yul\":4937:4940   */\n      0x00\n        /* \"#utility.yul\":4958:4975   */\n      0x01\n      dup3\n      add\n        /* \"#utility.yul\":4955:4998   */\n      tag_360\n      jumpi\n        /* \"#utility.yul\":4978:4996   */\n      tag_360\n      tag_320\n      jump\t// in\n    tag_360:\n      pop\n        /* \"#utility.yul\":5025:5026   */\n      0x01\n        /* \"#utility.yul\":5014:5027   */\n      add\n      swap1\n        /* \"#utility.yul\":4898:5033   */\n      jump\t// out\n        /* \"#utility.yul\":5038:5475   */\n    tag_176:\n        /* \"#utility.yul\":5123:5124   */\n      0x02\n        /* \"#utility.yul\":5113:5125   */\n      dup2\n      div\n        /* \"#utility.yul\":5170:5171   */\n      0x01\n        /* \"#utility.yul\":5160:5172   */\n      dup3\n      and\n      dup1\n        /* \"#utility.yul\":5181:5242   */\n      tag_362\n      jumpi\n        /* \"#utility.yul\":5235:5239   */\n      0x7f\n        /* \"#utility.yul\":5227:5233   */\n      dup3\n        /* \"#utility.yul\":5223:5240   */\n      and\n        /* \"#utility.yul\":5213:5240   */\n      swap2\n      pop\n        /* \"#utility.yul\":5181:5242   */\n    tag_362:\n        /* \"#utility.yul\":5288:5290   */\n      0x20\n        /* \"#utility.yul\":5280:5286   */\n      dup3\n        /* \"#utility.yul\":5277:5291   */\n      lt\n        /* \"#utility.yul\":5257:5275   */\n      dup2\n        /* \"#utility.yul\":5254:5292   */\n      sub\n        /* \"#utility.yul\":5251:5469   */\n      tag_363\n      jumpi\n      mul(0x4e487b71, exp(0x02, 0xe0))\n        /* \"#utility.yul\":5322:5323   */\n      0x00\n        /* \"#utility.yul\":5315:5403   */\n      mstore\n        /* \"#utility.yul\":5426:5430   */\n      0x22\n        /* \"#utility.yul\":5423:5424   */\n      0x04\n        /* \"#utility.yul\":5416:5431   */\n      mstore\n        /* \"#utility.yul\":5454:5458   */\n      0x24\n        /* \"#utility.yul\":5451:5452   */\n      0x00\n        /* \"#utility.yul\":5444:5459   */\n      revert\n        /* \"#utility.yul\":5251:5469   */\n    tag_363:\n      pop\n        /* \"#utility.yul\":5038:5475   */\n      swap2\n      swap1\n      pop\n      jump\t// out\n        /* \"#utility.yul\":6927:7739   */\n    tag_288:\n        /* \"#utility.yul\":7338:7363   */\n      0x416363657373436f6e74726f6c3a206163636f756e7420000000000000000000\n        /* \"#utility.yul\":7333:7336   */\n      dup2\n        /* \"#utility.yul\":7326:7364   */\n      mstore\n        /* \"#utility.yul\":7308:7311   */\n      0x00\n        /* \"#utility.yul\":7393:7399   */\n      dup4\n        /* \"#utility.yul\":7387:7400   */\n      mload\n        /* \"#utility.yul\":7409:7484   */\n      tag_369\n        /* \"#utility.yul\":7477:7483   */\n      dup2\n        /* \"#utility.yul\":7472:7474   */\n      0x17\n        /* \"#utility.yul\":7467:7470   */\n      dup6\n        /* \"#utility.yul\":7463:7475   */\n      add\n        /* \"#utility.yul\":7456:7460   */\n      0x20\n        /* \"#utility.yul\":7448:7454   */\n      dup9\n        /* \"#utility.yul\":7444:7461   */\n      add\n        /* \"#utility.yul\":7409:7484   */\n      tag_317\n      jump\t// in\n    tag_369:\n        /* \"#utility.yul\":7548:7567   */\n      0x206973206d697373696e6720726f6c6520000000000000000000000000000000\n        /* \"#utility.yul\":7543:7545   */\n      0x17\n        /* \"#utility.yul\":7503:7519   */\n      swap2\n      dup5\n      add\n        /* \"#utility.yul\":7535:7546   */\n      swap2\n      dup3\n      add\n        /* \"#utility.yul\":7528:7568   */\n      mstore\n        /* \"#utility.yul\":7593:7606   */\n      dup4\n      mload\n        /* \"#utility.yul\":7615:7691   */\n      tag_370\n        /* \"#utility.yul\":7593:7606   */\n      dup2\n        /* \"#utility.yul\":7677:7679   */\n      0x28\n        /* \"#utility.yul\":7669:7680   */\n      dup5\n      add\n        /* \"#utility.yul\":7662:7666   */\n      0x20\n        /* \"#utility.yul\":7650:7667   */\n      dup9\n      add\n        /* \"#utility.yul\":7615:7691   */\n      tag_317\n      jump\t// in\n    tag_370:\n        /* \"#utility.yul\":7711:7728   */\n      add\n        /* \"#utility.yul\":7730:7732   */\n      0x28\n        /* \"#utility.yul\":7707:7733   */\n      add\n      swap5\n        /* \"#utility.yul\":6927:7739   */\n      swap4\n      pop\n      pop\n      pop\n      pop\n      jump\t// out\n        /* \"#utility.yul\":7744:7912   */\n    tag_292:\n        /* \"#utility.yul\":7784:7791   */\n      0x00\n        /* \"#utility.yul\":7850:7851   */\n      dup2\n        /* \"#utility.yul\":7846:7847   */\n      0x00\n        /* \"#utility.yul\":7842:7848   */\n      not\n        /* \"#utility.yul\":7838:7852   */\n      div\n        /* \"#utility.yul\":7835:7836   */\n      dup4\n        /* \"#utility.yul\":7832:7853   */\n      gt\n        /* \"#utility.yul\":7827:7828   */\n      dup3\n        /* \"#utility.yul\":7820:7829   */\n      iszero\n        /* \"#utility.yul\":7813:7830   */\n      iszero\n        /* \"#utility.yul\":7809:7854   */\n      and\n        /* \"#utility.yul\":7806:7877   */\n      iszero\n      tag_373\n      jumpi\n        /* \"#utility.yul\":7857:7875   */\n      tag_373\n      tag_320\n      jump\t// in\n    tag_373:\n      pop\n        /* \"#utility.yul\":7897:7906   */\n      mul\n      swap1\n        /* \"#utility.yul\":7744:7912   */\n      jump\t// out\n        /* \"#utility.yul\":7917:8101   */\n    tag_296:\n      mul(0x4e487b71, exp(0x02, 0xe0))\n        /* \"#utility.yul\":7966:7967   */\n      0x00\n        /* \"#utility.yul\":7959:8047   */\n      mstore\n        /* \"#utility.yul\":8066:8070   */\n      0x41\n        /* \"#utility.yul\":8063:8064   */\n      0x04\n        /* \"#utility.yul\":8056:8071   */\n      mstore\n        /* \"#utility.yul\":8090:8094   */\n      0x24\n        /* \"#utility.yul\":8087:8088   */\n      0x00\n        /* \"#utility.yul\":8080:8095   */\n      revert\n        /* \"#utility.yul\":8106:8290   */\n    tag_300:\n      mul(0x4e487b71, exp(0x02, 0xe0))\n        /* \"#utility.yul\":8155:8156   */\n      0x00\n        /* \"#utility.yul\":8148:8236   */\n      mstore\n        /* \"#utility.yul\":8255:8259   */\n      0x32\n        /* \"#utility.yul\":8252:8253   */\n      0x04\n        /* \"#utility.yul\":8245:8260   */\n      mstore\n        /* \"#utility.yul\":8279:8283   */\n      0x24\n        /* \"#utility.yul\":8276:8277   */\n      0x00\n        /* \"#utility.yul\":8269:8284   */\n      revert\n        /* \"#utility.yul\":8295:8431   */\n    tag_313:\n        /* \"#utility.yul\":8334:8337   */\n      0x00\n        /* \"#utility.yul\":8362:8367   */\n      dup2\n        /* \"#utility.yul\":8352:8391   */\n      tag_378\n      jumpi\n        /* \"#utility.yul\":8371:8389   */\n      tag_378\n      tag_320\n      jump\t// in\n    tag_378:\n      pop\n      not(0x00)\n        /* \"#utility.yul\":8407:8425   */\n      add\n      swap1\n        /* \"#utility.yul\":8295:8431   */\n      jump\t// out\n    stop\n    data_198bebe9962b5ee2dce0a2dd3eab4c01cd873d2542d3fc48a6e161e1a0e8d753 226c4972ab1f314d4ad7ff65fbbf70e5647a0620354d97bff1b978c4cf385edf\n\n    auxdata: 0xa26469706673582212202c8cdbca7154b79b66ba14666f7300c5dffa14eb1be50608d242a45b818f84bb64736f6c63430008100033\n}\n",
				"bytecode": {
					"linkReferences": {},
					"object": "600060025560c0604052600860809081527f536520566f746f2100000000000000000000000000000000000000000000000060a052600390620000439082620005db565b5060408051808201909152600881527f4e6f20566f746f210000000000000000000000000000000000000000000000006020820152600490620000879082620005db565b506040805160808101825260018152731234567890123456789100000000000000000000602080830191825283518085018552600c81527f54726176656c616e6469616e0000000000000000000000000000000000000000918101919091529282018390526000606083015281516006908155905160078054600160a060020a031916600160a060020a0390921691909117905590916008906200012c9082620005db565b50606091820151600391909101556040805160808101825260028152731234567890123456789200000000000000000000602080830191825283518085018552600a8082527f4564756c616e6469616e00000000000000000000000000000000000000000000928201929092529383018490526000948301949094528151845551600b8054600160a060020a031916600160a060020a039092169190911790559190600c90620001dd9082620005db565b5060609182015160039182015560408051608081018252918252731234567890123456789300000000000000000000602080840191825282518084018452600b81527f45636f6c616e6469616e32000000000000000000000000000000000000000000918101919091529183018290526000938301939093528151600e9081559251600f8054600160a060020a031916600160a060020a03909216919091179055909190601090620002909082620005db565b50606082015181600301555050348015620002aa57600080fd5b50620002d1620002c264010000000062000357810204565b6401000000006200035b810204565b620002e7600033640100000000620003ab810204565b6200031c7f226c4972ab1f314d4ad7ff65fbbf70e5647a0620354d97bff1b978c4cf385edf33640100000000620003ab810204565b620003517f2172861495e7b85edac73e3cd5fbb42dd675baadf627720e687bcfdaca02509680640100000000620003c4810204565b620006ae565b3390565b60008054600160a060020a03838116600160a060020a0319831681178455604051919092169283917f8be0079c531659141344cd1fd0a4f28419497f9722a3daafe3b4186f6b6457e09190a35050565b620003c0828264010000000062000424810204565b5050565b6000620003da83640100000000620004c3810204565b6000848152600160208190526040808320909101859055519192508391839186917fbd79b86ffe0ab8e8776151514217cd7cacd52c909f66475c3af44e129f0b00ff9190a4505050565b620004398282640100000000620004d9810204565b620003c0576000828152600160208181526040808420600160a060020a0386168552909152909120805460ff191690911790556200047f64010000000062000357810204565b600160a060020a031681600160a060020a0316837f2f8788117e7eff1d82e926ec794901d17c78024a50270940304540a733656f0d60405160405180910390a45050565b6000908152600160208190526040909120015490565b6000918252600160209081526040808420600160a060020a0393909316845291905290205460ff1690565b7f4e487b7100000000000000000000000000000000000000000000000000000000600052604160045260246000fd5b6002810460018216806200054857607f821691505b60208210810362000582577f4e487b7100000000000000000000000000000000000000000000000000000000600052602260045260246000fd5b50919050565b601f821115620005d6576000818152602081206020601f86010481016020861015620005b15750805b6020601f860104820191505b81811015620005d257828155600101620005bd565b5050505b505050565b815167ffffffffffffffff811115620005f857620005f862000504565b620006108162000609845462000533565b8462000588565b602080601f8311600181146200064c57600084156200062f5750858301515b60028086026008870290910a6000190419821617865550620005d2565b600085815260208120601f198616915b828110156200067d578886015182559484019460019091019084016200065c565b50858210156200069e57878501516008601f88160260020a60001904191681555b5050505050600202600101905550565b61140680620006be6000396000f3fe608060405234801561001057600080fd5b50600436106101ab576000357c010000000000000000000000000000000000000000000000000000000090048063a217fddf116100fb578063c7876434116100b4578063f222b5791161008e578063f222b57914610341578063f2fde38b14610349578063fa0c3ab81461035c578063ffd7e4e71461036457600080fd5b8063c7876434146102ff578063d391014b14610307578063d547741f1461032e57600080fd5b8063a217fddf146102d7578063ae60bb23146102df578063b1c78ebc146102e7578063b49cd0f7146101eb578063c360a03b146102ef578063c363091c146102f757600080fd5b806336568abe11610168578063715018a611610142578063715018a6146102825780638356e8e11461028a5780638da5cb5b1461029f57806391d14854146102c457600080fd5b806336568abe1461024f5780635792febf1461026257806361c78cce1461026a57600080fd5b806301ffc9a7146101b057806321606831146101d8578063226839ba146101ed578063248a9ca3146102025780632b553fb4146102345780632f2ff15d1461023c575b600080fd5b6101c36101be3660046110ee565b61036c565b60405190151581526020015b60405180910390f35b6101eb6101e636600461112d565b6103ff565b005b6101f56104f6565b6040516101cf9190611196565b61022661021036600461112d565b6000908152600160208190526040909120015490565b6040519081526020016101cf565b6101eb6105bd565b6101eb61024a3660046111c5565b6105c7565b6101eb61025d3660046111c5565b6105f2565b610226610681565b610272610714565b6040516101cf94939291906111f1565b6101eb6107bf565b6102266000805160206113b183398151915281565b600054600160a060020a03165b604051600160a060020a0390911681526020016101cf565b6101c36102d23660046111c5565b6107d1565b610226600081565b6101f56107fc565b6101f561088a565b6102ac610897565b6101c36108f3565b6101c3610962565b6102267f2172861495e7b85edac73e3cd5fbb42dd675baadf627720e687bcfdaca02509681565b6101eb61033c3660046111c5565b6109cb565b6102726109f1565b6101eb61035736600461122a565b610a13565b610272610aa3565b6101f5610ac5565b60007bffffffffffffffffffffffffffffffffffffffffffffffffffffffff1982167f7965db0b0000000000000000000000000000000000000000000000000000000014806103f957507f01ffc9a7000000000000000000000000000000000000000000000000000000007bffffffffffffffffffffffffffffffffffffffffffffffffffffffff198316145b92915050565b33600090815260056020526040902054610100900460ff1661046b5760405160e560020a62461bcd02815260206004820152600f60248201527f4e6f2070756564657320766f746172000000000000000000000000000000000060448201526064015b60405180910390fd5b336000908152600560205260409020805460ff191660019081179091558190036104ab576001600660030160008282546104a5919061125e565b90915550505b806002036104cf576001600a60030160008282546104c9919061125e565b90915550505b806003036104f3576001600e60030160008282546104ed919061125e565b90915550505b50565b60606105106000805160206113b1833981519152336107d1565b6105855760405160e560020a62461bcd02815260206004820152602e60248201527f536f6c6f206c617320766f6c74616e746520707565646520646172746520646560448201527f726563686f20616c20566f746f2e0000000000000000000000000000000000006064820152608401610462565b5060408051808201909152601381527f456c20766f74616e746520796120766f746f2e00000000000000000000000000602082015290565b6105c5610ca0565b565b600082815260016020819052604090912001546105e381610cfd565b6105ed8383610d07565b505050565b600160a060020a03811633146106735760405160e560020a62461bcd02815260206004820152602f60248201527f416363657373436f6e74726f6c3a2063616e206f6e6c792072656e6f756e636560448201527f20726f6c657320666f722073656c6600000000000000000000000000000000006064820152608401610462565b61067d8282610d72565b5050565b600080805b6003811161070f57600d546009541180156106a45750601154600954115b156106b3576009546001935091505b600954600d541180156106c95750601154600d54115b156106d857600d546002935091505b6009546011541180156106ee5750600d54601154115b156106fd576011546003935091505b8061070781611271565b915050610686565b505090565b600a8054600b54600c80549293600160a060020a03909216926107369061128a565b80601f01602080910402602001604051908101604052809291908181526020018280546107629061128a565b80156107af5780601f10610784576101008083540402835291602001916107af565b820191906000526020600020905b81548152906001019060200180831161079257829003601f168201915b5050505050908060030154905084565b6107c7610ca0565b6105c56000610dd9565b6000918252600160209081526040808420600160a060020a0393909316845291905290205460ff1690565b600480546108099061128a565b80601f01602080910402602001604051908101604052809291908181526020018280546108359061128a565b80156108825780601f1061085757610100808354040283529160200191610882565b820191906000526020600020905b81548152906001019060200180831161086557829003601f168201915b505050505081565b600380546108099061128a565b60006108a1610681565b6001036108b65750600754600160a060020a03165b6108be610681565b6002036108d35750600b54600160a060020a03165b6108db610681565b6003036108f05750600f54600160a060020a03165b90565b600061090d6000805160206113b1833981519152336107d1565b61095c5760405160e560020a62461bcd02815260206004820152600860248201527f4e6f20566f746f210000000000000000000000000000000000000000000000006044820152606401610462565b50600190565b600061097c6000805160206113b1833981519152336107d1565b61095c5760405160e560020a62461bcd02815260206004820152600e60248201527f54752070756564657320766f746f0000000000000000000000000000000000006044820152606401610462565b600082815260016020819052604090912001546109e781610cfd565b6105ed8383610d72565b600e8054600f54601080549293600160a060020a03909216926107369061128a565b610a1b610ca0565b600160a060020a038116610a9a5760405160e560020a62461bcd02815260206004820152602660248201527f4f776e61626c653a206e6577206f776e657220697320746865207a65726f206160448201527f64647265737300000000000000000000000000000000000000000000000000006064820152608401610462565b6104f381610dd9565b60068054600754600880549293600160a060020a03909216926107369061128a565b6060610acf610681565b600103610b645760088054610ae39061128a565b80601f0160208091040260200160405190810160405280929190818152602001828054610b0f9061128a565b8015610b5c5780601f10610b3157610100808354040283529160200191610b5c565b820191906000526020600020905b815481529060010190602001808311610b3f57829003601f168201915b505050505090505b610b6c610681565b600203610c0157600c8054610b809061128a565b80601f0160208091040260200160405190810160405280929190818152602001828054610bac9061128a565b8015610bf95780601f10610bce57610100808354040283529160200191610bf9565b820191906000526020600020905b815481529060010190602001808311610bdc57829003601f168201915b505050505090505b610c09610681565b6003036108f05760108054610c1d9061128a565b80601f0160208091040260200160405190810160405280929190818152602001828054610c499061128a565b8015610c965780601f10610c6b57610100808354040283529160200191610c96565b820191906000526020600020905b815481529060010190602001808311610c7957829003601f168201915b5050505050905090565b600054600160a060020a031633146105c55760405160e560020a62461bcd02815260206004820181905260248201527f4f776e61626c653a2063616c6c6572206973206e6f7420746865206f776e65726044820152606401610462565b6104f38133610e36565b610d1182826107d1565b61067d576000828152600160208181526040808420600160a060020a0386168086529252808420805460ff19169093179092559051339285917f2f8788117e7eff1d82e926ec794901d17c78024a50270940304540a733656f0d9190a45050565b610d7c82826107d1565b1561067d576000828152600160209081526040808320600160a060020a0385168085529252808320805460ff1916905551339285917ff6391f5c32d9c69d2a47ea670b442974b53935d1edc7fd64eb21e047a839171b9190a45050565b60008054600160a060020a0383811673ffffffffffffffffffffffffffffffffffffffff19831681178455604051919092169283917f8be0079c531659141344cd1fd0a4f28419497f9722a3daafe3b4186f6b6457e09190a35050565b610e4082826107d1565b61067d57610e5881600160a060020a03166014610e9d565b610e63836020610e9d565b604051602001610e749291906112c7565b60408051601f198184030181529082905260e560020a62461bcd02825261046291600401611196565b60606000610eac836002611348565b610eb790600261125e565b67ffffffffffffffff811115610ecf57610ecf611367565b6040519080825280601f01601f191660200182016040528015610ef9576020820181803683370190505b5090507f300000000000000000000000000000000000000000000000000000000000000081600081518110610f3057610f30611380565b60200101907effffffffffffffffffffffffffffffffffffffffffffffffffffffffffffff1916908160001a9053507f780000000000000000000000000000000000000000000000000000000000000081600181518110610f9357610f93611380565b60200101907effffffffffffffffffffffffffffffffffffffffffffffffffffffffffffff1916908160001a9053506000610fcf846002611348565b610fda90600161125e565b90505b6001811115611095577f303132333435363738396162636465660000000000000000000000000000000085600f166010811061101b5761101b611380565b1a7f01000000000000000000000000000000000000000000000000000000000000000282828151811061105057611050611380565b60200101907effffffffffffffffffffffffffffffffffffffffffffffffffffffffffffff1916908160001a90535060109094049361108e81611399565b9050610fdd565b5083156110e75760405160e560020a62461bcd02815260206004820181905260248201527f537472696e67733a20686578206c656e67746820696e73756666696369656e746044820152606401610462565b9392505050565b60006020828403121561110057600080fd5b81357bffffffffffffffffffffffffffffffffffffffffffffffffffffffff19811681146110e757600080fd5b60006020828403121561113f57600080fd5b5035919050565b60005b83811015611161578181015183820152602001611149565b50506000910152565b60008151808452611182816020860160208601611146565b601f01601f19169290920160200192915050565b6020815260006110e7602083018461116a565b8035600160a060020a03811681146111c057600080fd5b919050565b600080604083850312156111d857600080fd5b823591506111e8602084016111a9565b90509250929050565b848152600160a060020a0384166020820152608060408201526000611219608083018561116a565b905082606083015295945050505050565b60006020828403121561123c57600080fd5b6110e7826111a9565b60e060020a634e487b7102600052601160045260246000fd5b808201808211156103f9576103f9611245565b60006001820161128357611283611245565b5060010190565b60028104600182168061129e57607f821691505b6020821081036112c15760e060020a634e487b7102600052602260045260246000fd5b50919050565b7f416363657373436f6e74726f6c3a206163636f756e74200000000000000000008152600083516112ff816017850160208801611146565b7f206973206d697373696e6720726f6c6520000000000000000000000000000000601791840191820152835161133c816028840160208801611146565b01602801949350505050565b600081600019048311821515161561136257611362611245565b500290565b60e060020a634e487b7102600052604160045260246000fd5b60e060020a634e487b7102600052603260045260246000fd5b6000816113a8576113a8611245565b50600019019056fe226c4972ab1f314d4ad7ff65fbbf70e5647a0620354d97bff1b978c4cf385edfa26469706673582212202c8cdbca7154b79b66ba14666f7300c5dffa14eb1be50608d242a45b818f84bb64736f6c63430008100033",
					"opcodes": "PUSH1 0x0 PUSH1 0x2 SSTORE PUSH1 0xC0 PUSH1 0x40 MSTORE PUSH1 0x8 PUSH1 0x80 SWAP1 DUP2 MSTORE PUSH32 0x536520566F746F21000000000000000000000000000000000000000000000000 PUSH1 0xA0 MSTORE PUSH1 0x3 SWAP1 PUSH3 0x43 SWAP1 DUP3 PUSH3 0x5DB JUMP JUMPDEST POP PUSH1 0x40 DUP1 MLOAD DUP1 DUP3 ADD SWAP1 SWAP2 MSTORE PUSH1 0x8 DUP2 MSTORE PUSH32 0x4E6F20566F746F21000000000000000000000000000000000000000000000000 PUSH1 0x20 DUP3 ADD MSTORE PUSH1 0x4 SWAP1 PUSH3 0x87 SWAP1 DUP3 PUSH3 0x5DB JUMP JUMPDEST POP PUSH1 0x40 DUP1 MLOAD PUSH1 0x80 DUP2 ADD DUP3 MSTORE PUSH1 0x1 DUP2 MSTORE PUSH20 0x1234567890123456789100000000000000000000 PUSH1 0x20 DUP1 DUP4 ADD SWAP2 DUP3 MSTORE DUP4 MLOAD DUP1 DUP6 ADD DUP6 MSTORE PUSH1 0xC DUP2 MSTORE PUSH32 0x54726176656C616E6469616E0000000000000000000000000000000000000000 SWAP2 DUP2 ADD SWAP2 SWAP1 SWAP2 MSTORE SWAP3 DUP3 ADD DUP4 SWAP1 MSTORE PUSH1 0x0 PUSH1 0x60 DUP4 ADD MSTORE DUP2 MLOAD PUSH1 0x6 SWAP1 DUP2 SSTORE SWAP1 MLOAD PUSH1 0x7 DUP1 SLOAD PUSH1 0x1 PUSH1 0xA0 PUSH1 0x2 EXP SUB NOT AND PUSH1 0x1 PUSH1 0xA0 PUSH1 0x2 EXP SUB SWAP1 SWAP3 AND SWAP2 SWAP1 SWAP2 OR SWAP1 SSTORE SWAP1 SWAP2 PUSH1 0x8 SWAP1 PUSH3 0x12C SWAP1 DUP3 PUSH3 0x5DB JUMP JUMPDEST POP PUSH1 0x60 SWAP2 DUP3 ADD MLOAD PUSH1 0x3 SWAP2 SWAP1 SWAP2 ADD SSTORE PUSH1 0x40 DUP1 MLOAD PUSH1 0x80 DUP2 ADD DUP3 MSTORE PUSH1 0x2 DUP2 MSTORE PUSH20 0x1234567890123456789200000000000000000000 PUSH1 0x20 DUP1 DUP4 ADD SWAP2 DUP3 MSTORE DUP4 MLOAD DUP1 DUP6 ADD DUP6 MSTORE PUSH1 0xA DUP1 DUP3 MSTORE PUSH32 0x4564756C616E6469616E00000000000000000000000000000000000000000000 SWAP3 DUP3 ADD SWAP3 SWAP1 SWAP3 MSTORE SWAP4 DUP4 ADD DUP5 SWAP1 MSTORE PUSH1 0x0 SWAP5 DUP4 ADD SWAP5 SWAP1 SWAP5 MSTORE DUP2 MLOAD DUP5 SSTORE MLOAD PUSH1 0xB DUP1 SLOAD PUSH1 0x1 PUSH1 0xA0 PUSH1 0x2 EXP SUB NOT AND PUSH1 0x1 PUSH1 0xA0 PUSH1 0x2 EXP SUB SWAP1 SWAP3 AND SWAP2 SWAP1 SWAP2 OR SWAP1 SSTORE SWAP2 SWAP1 PUSH1 0xC SWAP1 PUSH3 0x1DD SWAP1 DUP3 PUSH3 0x5DB JUMP JUMPDEST POP PUSH1 0x60 SWAP2 DUP3 ADD MLOAD PUSH1 0x3 SWAP2 DUP3 ADD SSTORE PUSH1 0x40 DUP1 MLOAD PUSH1 0x80 DUP2 ADD DUP3 MSTORE SWAP2 DUP3 MSTORE PUSH20 0x1234567890123456789300000000000000000000 PUSH1 0x20 DUP1 DUP5 ADD SWAP2 DUP3 MSTORE DUP3 MLOAD DUP1 DUP5 ADD DUP5 MSTORE PUSH1 0xB DUP2 MSTORE PUSH32 0x45636F6C616E6469616E32000000000000000000000000000000000000000000 SWAP2 DUP2 ADD SWAP2 SWAP1 SWAP2 MSTORE SWAP2 DUP4 ADD DUP3 SWAP1 MSTORE PUSH1 0x0 SWAP4 DUP4 ADD SWAP4 SWAP1 SWAP4 MSTORE DUP2 MLOAD PUSH1 0xE SWAP1 DUP2 SSTORE SWAP3 MLOAD PUSH1 0xF DUP1 SLOAD PUSH1 0x1 PUSH1 0xA0 PUSH1 0x2 EXP SUB NOT AND PUSH1 0x1 PUSH1 0xA0 PUSH1 0x2 EXP SUB SWAP1 SWAP3 AND SWAP2 SWAP1 SWAP2 OR SWAP1 SSTORE SWAP1 SWAP2 SWAP1 PUSH1 0x10 SWAP1 PUSH3 0x290 SWAP1 DUP3 PUSH3 0x5DB JUMP JUMPDEST POP PUSH1 0x60 DUP3 ADD MLOAD DUP2 PUSH1 0x3 ADD SSTORE POP POP CALLVALUE DUP1 ISZERO PUSH3 0x2AA JUMPI PUSH1 0x0 DUP1 REVERT JUMPDEST POP PUSH3 0x2D1 PUSH3 0x2C2 PUSH5 0x100000000 PUSH3 0x357 DUP2 MUL DIV JUMP JUMPDEST PUSH5 0x100000000 PUSH3 0x35B DUP2 MUL DIV JUMP JUMPDEST PUSH3 0x2E7 PUSH1 0x0 CALLER PUSH5 0x100000000 PUSH3 0x3AB DUP2 MUL DIV JUMP JUMPDEST PUSH3 0x31C PUSH32 0x226C4972AB1F314D4AD7FF65FBBF70E5647A0620354D97BFF1B978C4CF385EDF CALLER PUSH5 0x100000000 PUSH3 0x3AB DUP2 MUL DIV JUMP JUMPDEST PUSH3 0x351 PUSH32 0x2172861495E7B85EDAC73E3CD5FBB42DD675BAADF627720E687BCFDACA025096 DUP1 PUSH5 0x100000000 PUSH3 0x3C4 DUP2 MUL DIV JUMP JUMPDEST PUSH3 0x6AE JUMP JUMPDEST CALLER SWAP1 JUMP JUMPDEST PUSH1 0x0 DUP1 SLOAD PUSH1 0x1 PUSH1 0xA0 PUSH1 0x2 EXP SUB DUP4 DUP2 AND PUSH1 0x1 PUSH1 0xA0 PUSH1 0x2 EXP SUB NOT DUP4 AND DUP2 OR DUP5 SSTORE PUSH1 0x40 MLOAD SWAP2 SWAP1 SWAP3 AND SWAP3 DUP4 SWAP2 PUSH32 0x8BE0079C531659141344CD1FD0A4F28419497F9722A3DAAFE3B4186F6B6457E0 SWAP2 SWAP1 LOG3 POP POP JUMP JUMPDEST PUSH3 0x3C0 DUP3 DUP3 PUSH5 0x100000000 PUSH3 0x424 DUP2 MUL DIV JUMP JUMPDEST POP POP JUMP JUMPDEST PUSH1 0x0 PUSH3 0x3DA DUP4 PUSH5 0x100000000 PUSH3 0x4C3 DUP2 MUL DIV JUMP JUMPDEST PUSH1 0x0 DUP5 DUP2 MSTORE PUSH1 0x1 PUSH1 0x20 DUP2 SWAP1 MSTORE PUSH1 0x40 DUP1 DUP4 KECCAK256 SWAP1 SWAP2 ADD DUP6 SWAP1 SSTORE MLOAD SWAP2 SWAP3 POP DUP4 SWAP2 DUP4 SWAP2 DUP7 SWAP2 PUSH32 0xBD79B86FFE0AB8E8776151514217CD7CACD52C909F66475C3AF44E129F0B00FF SWAP2 SWAP1 LOG4 POP POP POP JUMP JUMPDEST PUSH3 0x439 DUP3 DUP3 PUSH5 0x100000000 PUSH3 0x4D9 DUP2 MUL DIV JUMP JUMPDEST PUSH3 0x3C0 JUMPI PUSH1 0x0 DUP3 DUP2 MSTORE PUSH1 0x1 PUSH1 0x20 DUP2 DUP2 MSTORE PUSH1 0x40 DUP1 DUP5 KECCAK256 PUSH1 0x1 PUSH1 0xA0 PUSH1 0x2 EXP SUB DUP7 AND DUP6 MSTORE SWAP1 SWAP2 MSTORE SWAP1 SWAP2 KECCAK256 DUP1 SLOAD PUSH1 0xFF NOT AND SWAP1 SWAP2 OR SWAP1 SSTORE PUSH3 0x47F PUSH5 0x100000000 PUSH3 0x357 DUP2 MUL DIV JUMP JUMPDEST PUSH1 0x1 PUSH1 0xA0 PUSH1 0x2 EXP SUB AND DUP2 PUSH1 0x1 PUSH1 0xA0 PUSH1 0x2 EXP SUB AND DUP4 PUSH32 0x2F8788117E7EFF1D82E926EC794901D17C78024A50270940304540A733656F0D PUSH1 0x40 MLOAD PUSH1 0x40 MLOAD DUP1 SWAP2 SUB SWAP1 LOG4 POP POP JUMP JUMPDEST PUSH1 0x0 SWAP1 DUP2 MSTORE PUSH1 0x1 PUSH1 0x20 DUP2 SWAP1 MSTORE PUSH1 0x40 SWAP1 SWAP2 KECCAK256 ADD SLOAD SWAP1 JUMP JUMPDEST PUSH1 0x0 SWAP2 DUP3 MSTORE PUSH1 0x1 PUSH1 0x20 SWAP1 DUP2 MSTORE PUSH1 0x40 DUP1 DUP5 KECCAK256 PUSH1 0x1 PUSH1 0xA0 PUSH1 0x2 EXP SUB SWAP4 SWAP1 SWAP4 AND DUP5 MSTORE SWAP2 SWAP1 MSTORE SWAP1 KECCAK256 SLOAD PUSH1 0xFF AND SWAP1 JUMP JUMPDEST PUSH32 0x4E487B7100000000000000000000000000000000000000000000000000000000 PUSH1 0x0 MSTORE PUSH1 0x41 PUSH1 0x4 MSTORE PUSH1 0x24 PUSH1 0x0 REVERT JUMPDEST PUSH1 0x2 DUP2 DIV PUSH1 0x1 DUP3 AND DUP1 PUSH3 0x548 JUMPI PUSH1 0x7F DUP3 AND SWAP2 POP JUMPDEST PUSH1 0x20 DUP3 LT DUP2 SUB PUSH3 0x582 JUMPI PUSH32 0x4E487B7100000000000000000000000000000000000000000000000000000000 PUSH1 0x0 MSTORE PUSH1 0x22 PUSH1 0x4 MSTORE PUSH1 0x24 PUSH1 0x0 REVERT JUMPDEST POP SWAP2 SWAP1 POP JUMP JUMPDEST PUSH1 0x1F DUP3 GT ISZERO PUSH3 0x5D6 JUMPI PUSH1 0x0 DUP2 DUP2 MSTORE PUSH1 0x20 DUP2 KECCAK256 PUSH1 0x20 PUSH1 0x1F DUP7 ADD DIV DUP2 ADD PUSH1 0x20 DUP7 LT ISZERO PUSH3 0x5B1 JUMPI POP DUP1 JUMPDEST PUSH1 0x20 PUSH1 0x1F DUP7 ADD DIV DUP3 ADD SWAP2 POP JUMPDEST DUP2 DUP2 LT ISZERO PUSH3 0x5D2 JUMPI DUP3 DUP2 SSTORE PUSH1 0x1 ADD PUSH3 0x5BD JUMP JUMPDEST POP POP POP JUMPDEST POP POP POP JUMP JUMPDEST DUP2 MLOAD PUSH8 0xFFFFFFFFFFFFFFFF DUP2 GT ISZERO PUSH3 0x5F8 JUMPI PUSH3 0x5F8 PUSH3 0x504 JUMP JUMPDEST PUSH3 0x610 DUP2 PUSH3 0x609 DUP5 SLOAD PUSH3 0x533 JUMP JUMPDEST DUP5 PUSH3 0x588 JUMP JUMPDEST PUSH1 0x20 DUP1 PUSH1 0x1F DUP4 GT PUSH1 0x1 DUP2 EQ PUSH3 0x64C JUMPI PUSH1 0x0 DUP5 ISZERO PUSH3 0x62F JUMPI POP DUP6 DUP4 ADD MLOAD JUMPDEST PUSH1 0x2 DUP1 DUP7 MUL PUSH1 0x8 DUP8 MUL SWAP1 SWAP2 EXP PUSH1 0x0 NOT DIV NOT DUP3 AND OR DUP7 SSTORE POP PUSH3 0x5D2 JUMP JUMPDEST PUSH1 0x0 DUP6 DUP2 MSTORE PUSH1 0x20 DUP2 KECCAK256 PUSH1 0x1F NOT DUP7 AND SWAP2 JUMPDEST DUP3 DUP2 LT ISZERO PUSH3 0x67D JUMPI DUP9 DUP7 ADD MLOAD DUP3 SSTORE SWAP5 DUP5 ADD SWAP5 PUSH1 0x1 SWAP1 SWAP2 ADD SWAP1 DUP5 ADD PUSH3 0x65C JUMP JUMPDEST POP DUP6 DUP3 LT ISZERO PUSH3 0x69E JUMPI DUP8 DUP6 ADD MLOAD PUSH1 0x8 PUSH1 0x1F DUP9 AND MUL PUSH1 0x2 EXP PUSH1 0x0 NOT DIV NOT AND DUP2 SSTORE JUMPDEST POP POP POP POP POP PUSH1 0x2 MUL PUSH1 0x1 ADD SWAP1 SSTORE POP JUMP JUMPDEST PUSH2 0x1406 DUP1 PUSH3 0x6BE PUSH1 0x0 CODECOPY PUSH1 0x0 RETURN INVALID PUSH1 0x80 PUSH1 0x40 MSTORE CALLVALUE DUP1 ISZERO PUSH2 0x10 JUMPI PUSH1 0x0 DUP1 REVERT JUMPDEST POP PUSH1 0x4 CALLDATASIZE LT PUSH2 0x1AB JUMPI PUSH1 0x0 CALLDATALOAD PUSH29 0x100000000000000000000000000000000000000000000000000000000 SWAP1 DIV DUP1 PUSH4 0xA217FDDF GT PUSH2 0xFB JUMPI DUP1 PUSH4 0xC7876434 GT PUSH2 0xB4 JUMPI DUP1 PUSH4 0xF222B579 GT PUSH2 0x8E JUMPI DUP1 PUSH4 0xF222B579 EQ PUSH2 0x341 JUMPI DUP1 PUSH4 0xF2FDE38B EQ PUSH2 0x349 JUMPI DUP1 PUSH4 0xFA0C3AB8 EQ PUSH2 0x35C JUMPI DUP1 PUSH4 0xFFD7E4E7 EQ PUSH2 0x364 JUMPI PUSH1 0x0 DUP1 REVERT JUMPDEST DUP1 PUSH4 0xC7876434 EQ PUSH2 0x2FF JUMPI DUP1 PUSH4 0xD391014B EQ PUSH2 0x307 JUMPI DUP1 PUSH4 0xD547741F EQ PUSH2 0x32E JUMPI PUSH1 0x0 DUP1 REVERT JUMPDEST DUP1 PUSH4 0xA217FDDF EQ PUSH2 0x2D7 JUMPI DUP1 PUSH4 0xAE60BB23 EQ PUSH2 0x2DF JUMPI DUP1 PUSH4 0xB1C78EBC EQ PUSH2 0x2E7 JUMPI DUP1 PUSH4 0xB49CD0F7 EQ PUSH2 0x1EB JUMPI DUP1 PUSH4 0xC360A03B EQ PUSH2 0x2EF JUMPI DUP1 PUSH4 0xC363091C EQ PUSH2 0x2F7 JUMPI PUSH1 0x0 DUP1 REVERT JUMPDEST DUP1 PUSH4 0x36568ABE GT PUSH2 0x168 JUMPI DUP1 PUSH4 0x715018A6 GT PUSH2 0x142 JUMPI DUP1 PUSH4 0x715018A6 EQ PUSH2 0x282 JUMPI DUP1 PUSH4 0x8356E8E1 EQ PUSH2 0x28A JUMPI DUP1 PUSH4 0x8DA5CB5B EQ PUSH2 0x29F JUMPI DUP1 PUSH4 0x91D14854 EQ PUSH2 0x2C4 JUMPI PUSH1 0x0 DUP1 REVERT JUMPDEST DUP1 PUSH4 0x36568ABE EQ PUSH2 0x24F JUMPI DUP1 PUSH4 0x5792FEBF EQ PUSH2 0x262 JUMPI DUP1 PUSH4 0x61C78CCE EQ PUSH2 0x26A JUMPI PUSH1 0x0 DUP1 REVERT JUMPDEST DUP1 PUSH4 0x1FFC9A7 EQ PUSH2 0x1B0 JUMPI DUP1 PUSH4 0x21606831 EQ PUSH2 0x1D8 JUMPI DUP1 PUSH4 0x226839BA EQ PUSH2 0x1ED JUMPI DUP1 PUSH4 0x248A9CA3 EQ PUSH2 0x202 JUMPI DUP1 PUSH4 0x2B553FB4 EQ PUSH2 0x234 JUMPI DUP1 PUSH4 0x2F2FF15D EQ PUSH2 0x23C JUMPI JUMPDEST PUSH1 0x0 DUP1 REVERT JUMPDEST PUSH2 0x1C3 PUSH2 0x1BE CALLDATASIZE PUSH1 0x4 PUSH2 0x10EE JUMP JUMPDEST PUSH2 0x36C JUMP JUMPDEST PUSH1 0x40 MLOAD SWAP1 ISZERO ISZERO DUP2 MSTORE PUSH1 0x20 ADD JUMPDEST PUSH1 0x40 MLOAD DUP1 SWAP2 SUB SWAP1 RETURN JUMPDEST PUSH2 0x1EB PUSH2 0x1E6 CALLDATASIZE PUSH1 0x4 PUSH2 0x112D JUMP JUMPDEST PUSH2 0x3FF JUMP JUMPDEST STOP JUMPDEST PUSH2 0x1F5 PUSH2 0x4F6 JUMP JUMPDEST PUSH1 0x40 MLOAD PUSH2 0x1CF SWAP2 SWAP1 PUSH2 0x1196 JUMP JUMPDEST PUSH2 0x226 PUSH2 0x210 CALLDATASIZE PUSH1 0x4 PUSH2 0x112D JUMP JUMPDEST PUSH1 0x0 SWAP1 DUP2 MSTORE PUSH1 0x1 PUSH1 0x20 DUP2 SWAP1 MSTORE PUSH1 0x40 SWAP1 SWAP2 KECCAK256 ADD SLOAD SWAP1 JUMP JUMPDEST PUSH1 0x40 MLOAD SWAP1 DUP2 MSTORE PUSH1 0x20 ADD PUSH2 0x1CF JUMP JUMPDEST PUSH2 0x1EB PUSH2 0x5BD JUMP JUMPDEST PUSH2 0x1EB PUSH2 0x24A CALLDATASIZE PUSH1 0x4 PUSH2 0x11C5 JUMP JUMPDEST PUSH2 0x5C7 JUMP JUMPDEST PUSH2 0x1EB PUSH2 0x25D CALLDATASIZE PUSH1 0x4 PUSH2 0x11C5 JUMP JUMPDEST PUSH2 0x5F2 JUMP JUMPDEST PUSH2 0x226 PUSH2 0x681 JUMP JUMPDEST PUSH2 0x272 PUSH2 0x714 JUMP JUMPDEST PUSH1 0x40 MLOAD PUSH2 0x1CF SWAP5 SWAP4 SWAP3 SWAP2 SWAP1 PUSH2 0x11F1 JUMP JUMPDEST PUSH2 0x1EB PUSH2 0x7BF JUMP JUMPDEST PUSH2 0x226 PUSH1 0x0 DUP1 MLOAD PUSH1 0x20 PUSH2 0x13B1 DUP4 CODECOPY DUP2 MLOAD SWAP2 MSTORE DUP2 JUMP JUMPDEST PUSH1 0x0 SLOAD PUSH1 0x1 PUSH1 0xA0 PUSH1 0x2 EXP SUB AND JUMPDEST PUSH1 0x40 MLOAD PUSH1 0x1 PUSH1 0xA0 PUSH1 0x2 EXP SUB SWAP1 SWAP2 AND DUP2 MSTORE PUSH1 0x20 ADD PUSH2 0x1CF JUMP JUMPDEST PUSH2 0x1C3 PUSH2 0x2D2 CALLDATASIZE PUSH1 0x4 PUSH2 0x11C5 JUMP JUMPDEST PUSH2 0x7D1 JUMP JUMPDEST PUSH2 0x226 PUSH1 0x0 DUP2 JUMP JUMPDEST PUSH2 0x1F5 PUSH2 0x7FC JUMP JUMPDEST PUSH2 0x1F5 PUSH2 0x88A JUMP JUMPDEST PUSH2 0x2AC PUSH2 0x897 JUMP JUMPDEST PUSH2 0x1C3 PUSH2 0x8F3 JUMP JUMPDEST PUSH2 0x1C3 PUSH2 0x962 JUMP JUMPDEST PUSH2 0x226 PUSH32 0x2172861495E7B85EDAC73E3CD5FBB42DD675BAADF627720E687BCFDACA025096 DUP2 JUMP JUMPDEST PUSH2 0x1EB PUSH2 0x33C CALLDATASIZE PUSH1 0x4 PUSH2 0x11C5 JUMP JUMPDEST PUSH2 0x9CB JUMP JUMPDEST PUSH2 0x272 PUSH2 0x9F1 JUMP JUMPDEST PUSH2 0x1EB PUSH2 0x357 CALLDATASIZE PUSH1 0x4 PUSH2 0x122A JUMP JUMPDEST PUSH2 0xA13 JUMP JUMPDEST PUSH2 0x272 PUSH2 0xAA3 JUMP JUMPDEST PUSH2 0x1F5 PUSH2 0xAC5 JUMP JUMPDEST PUSH1 0x0 PUSH28 0xFFFFFFFFFFFFFFFFFFFFFFFFFFFFFFFFFFFFFFFFFFFFFFFFFFFFFFFF NOT DUP3 AND PUSH32 0x7965DB0B00000000000000000000000000000000000000000000000000000000 EQ DUP1 PUSH2 0x3F9 JUMPI POP PUSH32 0x1FFC9A700000000000000000000000000000000000000000000000000000000 PUSH28 0xFFFFFFFFFFFFFFFFFFFFFFFFFFFFFFFFFFFFFFFFFFFFFFFFFFFFFFFF NOT DUP4 AND EQ JUMPDEST SWAP3 SWAP2 POP POP JUMP JUMPDEST CALLER PUSH1 0x0 SWAP1 DUP2 MSTORE PUSH1 0x5 PUSH1 0x20 MSTORE PUSH1 0x40 SWAP1 KECCAK256 SLOAD PUSH2 0x100 SWAP1 DIV PUSH1 0xFF AND PUSH2 0x46B JUMPI PUSH1 0x40 MLOAD PUSH1 0xE5 PUSH1 0x2 EXP PUSH3 0x461BCD MUL DUP2 MSTORE PUSH1 0x20 PUSH1 0x4 DUP3 ADD MSTORE PUSH1 0xF PUSH1 0x24 DUP3 ADD MSTORE PUSH32 0x4E6F2070756564657320766F7461720000000000000000000000000000000000 PUSH1 0x44 DUP3 ADD MSTORE PUSH1 0x64 ADD JUMPDEST PUSH1 0x40 MLOAD DUP1 SWAP2 SUB SWAP1 REVERT JUMPDEST CALLER PUSH1 0x0 SWAP1 DUP2 MSTORE PUSH1 0x5 PUSH1 0x20 MSTORE PUSH1 0x40 SWAP1 KECCAK256 DUP1 SLOAD PUSH1 0xFF NOT AND PUSH1 0x1 SWAP1 DUP2 OR SWAP1 SWAP2 SSTORE DUP2 SWAP1 SUB PUSH2 0x4AB JUMPI PUSH1 0x1 PUSH1 0x6 PUSH1 0x3 ADD PUSH1 0x0 DUP3 DUP3 SLOAD PUSH2 0x4A5 SWAP2 SWAP1 PUSH2 0x125E JUMP JUMPDEST SWAP1 SWAP2 SSTORE POP POP JUMPDEST DUP1 PUSH1 0x2 SUB PUSH2 0x4CF JUMPI PUSH1 0x1 PUSH1 0xA PUSH1 0x3 ADD PUSH1 0x0 DUP3 DUP3 SLOAD PUSH2 0x4C9 SWAP2 SWAP1 PUSH2 0x125E JUMP JUMPDEST SWAP1 SWAP2 SSTORE POP POP JUMPDEST DUP1 PUSH1 0x3 SUB PUSH2 0x4F3 JUMPI PUSH1 0x1 PUSH1 0xE PUSH1 0x3 ADD PUSH1 0x0 DUP3 DUP3 SLOAD PUSH2 0x4ED SWAP2 SWAP1 PUSH2 0x125E JUMP JUMPDEST SWAP1 SWAP2 SSTORE POP POP JUMPDEST POP JUMP JUMPDEST PUSH1 0x60 PUSH2 0x510 PUSH1 0x0 DUP1 MLOAD PUSH1 0x20 PUSH2 0x13B1 DUP4 CODECOPY DUP2 MLOAD SWAP2 MSTORE CALLER PUSH2 0x7D1 JUMP JUMPDEST PUSH2 0x585 JUMPI PUSH1 0x40 MLOAD PUSH1 0xE5 PUSH1 0x2 EXP PUSH3 0x461BCD MUL DUP2 MSTORE PUSH1 0x20 PUSH1 0x4 DUP3 ADD MSTORE PUSH1 0x2E PUSH1 0x24 DUP3 ADD MSTORE PUSH32 0x536F6C6F206C617320766F6C74616E7465207075656465206461727465206465 PUSH1 0x44 DUP3 ADD MSTORE PUSH32 0x726563686F20616C20566F746F2E000000000000000000000000000000000000 PUSH1 0x64 DUP3 ADD MSTORE PUSH1 0x84 ADD PUSH2 0x462 JUMP JUMPDEST POP PUSH1 0x40 DUP1 MLOAD DUP1 DUP3 ADD SWAP1 SWAP2 MSTORE PUSH1 0x13 DUP2 MSTORE PUSH32 0x456C20766F74616E746520796120766F746F2E00000000000000000000000000 PUSH1 0x20 DUP3 ADD MSTORE SWAP1 JUMP JUMPDEST PUSH2 0x5C5 PUSH2 0xCA0 JUMP JUMPDEST JUMP JUMPDEST PUSH1 0x0 DUP3 DUP2 MSTORE PUSH1 0x1 PUSH1 0x20 DUP2 SWAP1 MSTORE PUSH1 0x40 SWAP1 SWAP2 KECCAK256 ADD SLOAD PUSH2 0x5E3 DUP2 PUSH2 0xCFD JUMP JUMPDEST PUSH2 0x5ED DUP4 DUP4 PUSH2 0xD07 JUMP JUMPDEST POP POP POP JUMP JUMPDEST PUSH1 0x1 PUSH1 0xA0 PUSH1 0x2 EXP SUB DUP2 AND CALLER EQ PUSH2 0x673 JUMPI PUSH1 0x40 MLOAD PUSH1 0xE5 PUSH1 0x2 EXP PUSH3 0x461BCD MUL DUP2 MSTORE PUSH1 0x20 PUSH1 0x4 DUP3 ADD MSTORE PUSH1 0x2F PUSH1 0x24 DUP3 ADD MSTORE PUSH32 0x416363657373436F6E74726F6C3A2063616E206F6E6C792072656E6F756E6365 PUSH1 0x44 DUP3 ADD MSTORE PUSH32 0x20726F6C657320666F722073656C660000000000000000000000000000000000 PUSH1 0x64 DUP3 ADD MSTORE PUSH1 0x84 ADD PUSH2 0x462 JUMP JUMPDEST PUSH2 0x67D DUP3 DUP3 PUSH2 0xD72 JUMP JUMPDEST POP POP JUMP JUMPDEST PUSH1 0x0 DUP1 DUP1 JUMPDEST PUSH1 0x3 DUP2 GT PUSH2 0x70F JUMPI PUSH1 0xD SLOAD PUSH1 0x9 SLOAD GT DUP1 ISZERO PUSH2 0x6A4 JUMPI POP PUSH1 0x11 SLOAD PUSH1 0x9 SLOAD GT JUMPDEST ISZERO PUSH2 0x6B3 JUMPI PUSH1 0x9 SLOAD PUSH1 0x1 SWAP4 POP SWAP2 POP JUMPDEST PUSH1 0x9 SLOAD PUSH1 0xD SLOAD GT DUP1 ISZERO PUSH2 0x6C9 JUMPI POP PUSH1 0x11 SLOAD PUSH1 0xD SLOAD GT JUMPDEST ISZERO PUSH2 0x6D8 JUMPI PUSH1 0xD SLOAD PUSH1 0x2 SWAP4 POP SWAP2 POP JUMPDEST PUSH1 0x9 SLOAD PUSH1 0x11 SLOAD GT DUP1 ISZERO PUSH2 0x6EE JUMPI POP PUSH1 0xD SLOAD PUSH1 0x11 SLOAD GT JUMPDEST ISZERO PUSH2 0x6FD JUMPI PUSH1 0x11 SLOAD PUSH1 0x3 SWAP4 POP SWAP2 POP JUMPDEST DUP1 PUSH2 0x707 DUP2 PUSH2 0x1271 JUMP JUMPDEST SWAP2 POP POP PUSH2 0x686 JUMP JUMPDEST POP POP SWAP1 JUMP JUMPDEST PUSH1 0xA DUP1 SLOAD PUSH1 0xB SLOAD PUSH1 0xC DUP1 SLOAD SWAP3 SWAP4 PUSH1 0x1 PUSH1 0xA0 PUSH1 0x2 EXP SUB SWAP1 SWAP3 AND SWAP3 PUSH2 0x736 SWAP1 PUSH2 0x128A JUMP JUMPDEST DUP1 PUSH1 0x1F ADD PUSH1 0x20 DUP1 SWAP2 DIV MUL PUSH1 0x20 ADD PUSH1 0x40 MLOAD SWAP1 DUP2 ADD PUSH1 0x40 MSTORE DUP1 SWAP3 SWAP2 SWAP1 DUP2 DUP2 MSTORE PUSH1 0x20 ADD DUP3 DUP1 SLOAD PUSH2 0x762 SWAP1 PUSH2 0x128A JUMP JUMPDEST DUP1 ISZERO PUSH2 0x7AF JUMPI DUP1 PUSH1 0x1F LT PUSH2 0x784 JUMPI PUSH2 0x100 DUP1 DUP4 SLOAD DIV MUL DUP4 MSTORE SWAP2 PUSH1 0x20 ADD SWAP2 PUSH2 0x7AF JUMP JUMPDEST DUP3 ADD SWAP2 SWAP1 PUSH1 0x0 MSTORE PUSH1 0x20 PUSH1 0x0 KECCAK256 SWAP1 JUMPDEST DUP2 SLOAD DUP2 MSTORE SWAP1 PUSH1 0x1 ADD SWAP1 PUSH1 0x20 ADD DUP1 DUP4 GT PUSH2 0x792 JUMPI DUP3 SWAP1 SUB PUSH1 0x1F AND DUP3 ADD SWAP2 JUMPDEST POP POP POP POP POP SWAP1 DUP1 PUSH1 0x3 ADD SLOAD SWAP1 POP DUP5 JUMP JUMPDEST PUSH2 0x7C7 PUSH2 0xCA0 JUMP JUMPDEST PUSH2 0x5C5 PUSH1 0x0 PUSH2 0xDD9 JUMP JUMPDEST PUSH1 0x0 SWAP2 DUP3 MSTORE PUSH1 0x1 PUSH1 0x20 SWAP1 DUP2 MSTORE PUSH1 0x40 DUP1 DUP5 KECCAK256 PUSH1 0x1 PUSH1 0xA0 PUSH1 0x2 EXP SUB SWAP4 SWAP1 SWAP4 AND DUP5 MSTORE SWAP2 SWAP1 MSTORE SWAP1 KECCAK256 SLOAD PUSH1 0xFF AND SWAP1 JUMP JUMPDEST PUSH1 0x4 DUP1 SLOAD PUSH2 0x809 SWAP1 PUSH2 0x128A JUMP JUMPDEST DUP1 PUSH1 0x1F ADD PUSH1 0x20 DUP1 SWAP2 DIV MUL PUSH1 0x20 ADD PUSH1 0x40 MLOAD SWAP1 DUP2 ADD PUSH1 0x40 MSTORE DUP1 SWAP3 SWAP2 SWAP1 DUP2 DUP2 MSTORE PUSH1 0x20 ADD DUP3 DUP1 SLOAD PUSH2 0x835 SWAP1 PUSH2 0x128A JUMP JUMPDEST DUP1 ISZERO PUSH2 0x882 JUMPI DUP1 PUSH1 0x1F LT PUSH2 0x857 JUMPI PUSH2 0x100 DUP1 DUP4 SLOAD DIV MUL DUP4 MSTORE SWAP2 PUSH1 0x20 ADD SWAP2 PUSH2 0x882 JUMP JUMPDEST DUP3 ADD SWAP2 SWAP1 PUSH1 0x0 MSTORE PUSH1 0x20 PUSH1 0x0 KECCAK256 SWAP1 JUMPDEST DUP2 SLOAD DUP2 MSTORE SWAP1 PUSH1 0x1 ADD SWAP1 PUSH1 0x20 ADD DUP1 DUP4 GT PUSH2 0x865 JUMPI DUP3 SWAP1 SUB PUSH1 0x1F AND DUP3 ADD SWAP2 JUMPDEST POP POP POP POP POP DUP2 JUMP JUMPDEST PUSH1 0x3 DUP1 SLOAD PUSH2 0x809 SWAP1 PUSH2 0x128A JUMP JUMPDEST PUSH1 0x0 PUSH2 0x8A1 PUSH2 0x681 JUMP JUMPDEST PUSH1 0x1 SUB PUSH2 0x8B6 JUMPI POP PUSH1 0x7 SLOAD PUSH1 0x1 PUSH1 0xA0 PUSH1 0x2 EXP SUB AND JUMPDEST PUSH2 0x8BE PUSH2 0x681 JUMP JUMPDEST PUSH1 0x2 SUB PUSH2 0x8D3 JUMPI POP PUSH1 0xB SLOAD PUSH1 0x1 PUSH1 0xA0 PUSH1 0x2 EXP SUB AND JUMPDEST PUSH2 0x8DB PUSH2 0x681 JUMP JUMPDEST PUSH1 0x3 SUB PUSH2 0x8F0 JUMPI POP PUSH1 0xF SLOAD PUSH1 0x1 PUSH1 0xA0 PUSH1 0x2 EXP SUB AND JUMPDEST SWAP1 JUMP JUMPDEST PUSH1 0x0 PUSH2 0x90D PUSH1 0x0 DUP1 MLOAD PUSH1 0x20 PUSH2 0x13B1 DUP4 CODECOPY DUP2 MLOAD SWAP2 MSTORE CALLER PUSH2 0x7D1 JUMP JUMPDEST PUSH2 0x95C JUMPI PUSH1 0x40 MLOAD PUSH1 0xE5 PUSH1 0x2 EXP PUSH3 0x461BCD MUL DUP2 MSTORE PUSH1 0x20 PUSH1 0x4 DUP3 ADD MSTORE PUSH1 0x8 PUSH1 0x24 DUP3 ADD MSTORE PUSH32 0x4E6F20566F746F21000000000000000000000000000000000000000000000000 PUSH1 0x44 DUP3 ADD MSTORE PUSH1 0x64 ADD PUSH2 0x462 JUMP JUMPDEST POP PUSH1 0x1 SWAP1 JUMP JUMPDEST PUSH1 0x0 PUSH2 0x97C PUSH1 0x0 DUP1 MLOAD PUSH1 0x20 PUSH2 0x13B1 DUP4 CODECOPY DUP2 MLOAD SWAP2 MSTORE CALLER PUSH2 0x7D1 JUMP JUMPDEST PUSH2 0x95C JUMPI PUSH1 0x40 MLOAD PUSH1 0xE5 PUSH1 0x2 EXP PUSH3 0x461BCD MUL DUP2 MSTORE PUSH1 0x20 PUSH1 0x4 DUP3 ADD MSTORE PUSH1 0xE PUSH1 0x24 DUP3 ADD MSTORE PUSH32 0x54752070756564657320766F746F000000000000000000000000000000000000 PUSH1 0x44 DUP3 ADD MSTORE PUSH1 0x64 ADD PUSH2 0x462 JUMP JUMPDEST PUSH1 0x0 DUP3 DUP2 MSTORE PUSH1 0x1 PUSH1 0x20 DUP2 SWAP1 MSTORE PUSH1 0x40 SWAP1 SWAP2 KECCAK256 ADD SLOAD PUSH2 0x9E7 DUP2 PUSH2 0xCFD JUMP JUMPDEST PUSH2 0x5ED DUP4 DUP4 PUSH2 0xD72 JUMP JUMPDEST PUSH1 0xE DUP1 SLOAD PUSH1 0xF SLOAD PUSH1 0x10 DUP1 SLOAD SWAP3 SWAP4 PUSH1 0x1 PUSH1 0xA0 PUSH1 0x2 EXP SUB SWAP1 SWAP3 AND SWAP3 PUSH2 0x736 SWAP1 PUSH2 0x128A JUMP JUMPDEST PUSH2 0xA1B PUSH2 0xCA0 JUMP JUMPDEST PUSH1 0x1 PUSH1 0xA0 PUSH1 0x2 EXP SUB DUP2 AND PUSH2 0xA9A JUMPI PUSH1 0x40 MLOAD PUSH1 0xE5 PUSH1 0x2 EXP PUSH3 0x461BCD MUL DUP2 MSTORE PUSH1 0x20 PUSH1 0x4 DUP3 ADD MSTORE PUSH1 0x26 PUSH1 0x24 DUP3 ADD MSTORE PUSH32 0x4F776E61626C653A206E6577206F776E657220697320746865207A65726F2061 PUSH1 0x44 DUP3 ADD MSTORE PUSH32 0x6464726573730000000000000000000000000000000000000000000000000000 PUSH1 0x64 DUP3 ADD MSTORE PUSH1 0x84 ADD PUSH2 0x462 JUMP JUMPDEST PUSH2 0x4F3 DUP2 PUSH2 0xDD9 JUMP JUMPDEST PUSH1 0x6 DUP1 SLOAD PUSH1 0x7 SLOAD PUSH1 0x8 DUP1 SLOAD SWAP3 SWAP4 PUSH1 0x1 PUSH1 0xA0 PUSH1 0x2 EXP SUB SWAP1 SWAP3 AND SWAP3 PUSH2 0x736 SWAP1 PUSH2 0x128A JUMP JUMPDEST PUSH1 0x60 PUSH2 0xACF PUSH2 0x681 JUMP JUMPDEST PUSH1 0x1 SUB PUSH2 0xB64 JUMPI PUSH1 0x8 DUP1 SLOAD PUSH2 0xAE3 SWAP1 PUSH2 0x128A JUMP JUMPDEST DUP1 PUSH1 0x1F ADD PUSH1 0x20 DUP1 SWAP2 DIV MUL PUSH1 0x20 ADD PUSH1 0x40 MLOAD SWAP1 DUP2 ADD PUSH1 0x40 MSTORE DUP1 SWAP3 SWAP2 SWAP1 DUP2 DUP2 MSTORE PUSH1 0x20 ADD DUP3 DUP1 SLOAD PUSH2 0xB0F SWAP1 PUSH2 0x128A JUMP JUMPDEST DUP1 ISZERO PUSH2 0xB5C JUMPI DUP1 PUSH1 0x1F LT PUSH2 0xB31 JUMPI PUSH2 0x100 DUP1 DUP4 SLOAD DIV MUL DUP4 MSTORE SWAP2 PUSH1 0x20 ADD SWAP2 PUSH2 0xB5C JUMP JUMPDEST DUP3 ADD SWAP2 SWAP1 PUSH1 0x0 MSTORE PUSH1 0x20 PUSH1 0x0 KECCAK256 SWAP1 JUMPDEST DUP2 SLOAD DUP2 MSTORE SWAP1 PUSH1 0x1 ADD SWAP1 PUSH1 0x20 ADD DUP1 DUP4 GT PUSH2 0xB3F JUMPI DUP3 SWAP1 SUB PUSH1 0x1F AND DUP3 ADD SWAP2 JUMPDEST POP POP POP POP POP SWAP1 POP JUMPDEST PUSH2 0xB6C PUSH2 0x681 JUMP JUMPDEST PUSH1 0x2 SUB PUSH2 0xC01 JUMPI PUSH1 0xC DUP1 SLOAD PUSH2 0xB80 SWAP1 PUSH2 0x128A JUMP JUMPDEST DUP1 PUSH1 0x1F ADD PUSH1 0x20 DUP1 SWAP2 DIV MUL PUSH1 0x20 ADD PUSH1 0x40 MLOAD SWAP1 DUP2 ADD PUSH1 0x40 MSTORE DUP1 SWAP3 SWAP2 SWAP1 DUP2 DUP2 MSTORE PUSH1 0x20 ADD DUP3 DUP1 SLOAD PUSH2 0xBAC SWAP1 PUSH2 0x128A JUMP JUMPDEST DUP1 ISZERO PUSH2 0xBF9 JUMPI DUP1 PUSH1 0x1F LT PUSH2 0xBCE JUMPI PUSH2 0x100 DUP1 DUP4 SLOAD DIV MUL DUP4 MSTORE SWAP2 PUSH1 0x20 ADD SWAP2 PUSH2 0xBF9 JUMP JUMPDEST DUP3 ADD SWAP2 SWAP1 PUSH1 0x0 MSTORE PUSH1 0x20 PUSH1 0x0 KECCAK256 SWAP1 JUMPDEST DUP2 SLOAD DUP2 MSTORE SWAP1 PUSH1 0x1 ADD SWAP1 PUSH1 0x20 ADD DUP1 DUP4 GT PUSH2 0xBDC JUMPI DUP3 SWAP1 SUB PUSH1 0x1F AND DUP3 ADD SWAP2 JUMPDEST POP POP POP POP POP SWAP1 POP JUMPDEST PUSH2 0xC09 PUSH2 0x681 JUMP JUMPDEST PUSH1 0x3 SUB PUSH2 0x8F0 JUMPI PUSH1 0x10 DUP1 SLOAD PUSH2 0xC1D SWAP1 PUSH2 0x128A JUMP JUMPDEST DUP1 PUSH1 0x1F ADD PUSH1 0x20 DUP1 SWAP2 DIV MUL PUSH1 0x20 ADD PUSH1 0x40 MLOAD SWAP1 DUP2 ADD PUSH1 0x40 MSTORE DUP1 SWAP3 SWAP2 SWAP1 DUP2 DUP2 MSTORE PUSH1 0x20 ADD DUP3 DUP1 SLOAD PUSH2 0xC49 SWAP1 PUSH2 0x128A JUMP JUMPDEST DUP1 ISZERO PUSH2 0xC96 JUMPI DUP1 PUSH1 0x1F LT PUSH2 0xC6B JUMPI PUSH2 0x100 DUP1 DUP4 SLOAD DIV MUL DUP4 MSTORE SWAP2 PUSH1 0x20 ADD SWAP2 PUSH2 0xC96 JUMP JUMPDEST DUP3 ADD SWAP2 SWAP1 PUSH1 0x0 MSTORE PUSH1 0x20 PUSH1 0x0 KECCAK256 SWAP1 JUMPDEST DUP2 SLOAD DUP2 MSTORE SWAP1 PUSH1 0x1 ADD SWAP1 PUSH1 0x20 ADD DUP1 DUP4 GT PUSH2 0xC79 JUMPI DUP3 SWAP1 SUB PUSH1 0x1F AND DUP3 ADD SWAP2 JUMPDEST POP POP POP POP POP SWAP1 POP SWAP1 JUMP JUMPDEST PUSH1 0x0 SLOAD PUSH1 0x1 PUSH1 0xA0 PUSH1 0x2 EXP SUB AND CALLER EQ PUSH2 0x5C5 JUMPI PUSH1 0x40 MLOAD PUSH1 0xE5 PUSH1 0x2 EXP PUSH3 0x461BCD MUL DUP2 MSTORE PUSH1 0x20 PUSH1 0x4 DUP3 ADD DUP2 SWAP1 MSTORE PUSH1 0x24 DUP3 ADD MSTORE PUSH32 0x4F776E61626C653A2063616C6C6572206973206E6F7420746865206F776E6572 PUSH1 0x44 DUP3 ADD MSTORE PUSH1 0x64 ADD PUSH2 0x462 JUMP JUMPDEST PUSH2 0x4F3 DUP2 CALLER PUSH2 0xE36 JUMP JUMPDEST PUSH2 0xD11 DUP3 DUP3 PUSH2 0x7D1 JUMP JUMPDEST PUSH2 0x67D JUMPI PUSH1 0x0 DUP3 DUP2 MSTORE PUSH1 0x1 PUSH1 0x20 DUP2 DUP2 MSTORE PUSH1 0x40 DUP1 DUP5 KECCAK256 PUSH1 0x1 PUSH1 0xA0 PUSH1 0x2 EXP SUB DUP7 AND DUP1 DUP7 MSTORE SWAP3 MSTORE DUP1 DUP5 KECCAK256 DUP1 SLOAD PUSH1 0xFF NOT AND SWAP1 SWAP4 OR SWAP1 SWAP3 SSTORE SWAP1 MLOAD CALLER SWAP3 DUP6 SWAP2 PUSH32 0x2F8788117E7EFF1D82E926EC794901D17C78024A50270940304540A733656F0D SWAP2 SWAP1 LOG4 POP POP JUMP JUMPDEST PUSH2 0xD7C DUP3 DUP3 PUSH2 0x7D1 JUMP JUMPDEST ISZERO PUSH2 0x67D JUMPI PUSH1 0x0 DUP3 DUP2 MSTORE PUSH1 0x1 PUSH1 0x20 SWAP1 DUP2 MSTORE PUSH1 0x40 DUP1 DUP4 KECCAK256 PUSH1 0x1 PUSH1 0xA0 PUSH1 0x2 EXP SUB DUP6 AND DUP1 DUP6 MSTORE SWAP3 MSTORE DUP1 DUP4 KECCAK256 DUP1 SLOAD PUSH1 0xFF NOT AND SWAP1 SSTORE MLOAD CALLER SWAP3 DUP6 SWAP2 PUSH32 0xF6391F5C32D9C69D2A47EA670B442974B53935D1EDC7FD64EB21E047A839171B SWAP2 SWAP1 LOG4 POP POP JUMP JUMPDEST PUSH1 0x0 DUP1 SLOAD PUSH1 0x1 PUSH1 0xA0 PUSH1 0x2 EXP SUB DUP4 DUP2 AND PUSH20 0xFFFFFFFFFFFFFFFFFFFFFFFFFFFFFFFFFFFFFFFF NOT DUP4 AND DUP2 OR DUP5 SSTORE PUSH1 0x40 MLOAD SWAP2 SWAP1 SWAP3 AND SWAP3 DUP4 SWAP2 PUSH32 0x8BE0079C531659141344CD1FD0A4F28419497F9722A3DAAFE3B4186F6B6457E0 SWAP2 SWAP1 LOG3 POP POP JUMP JUMPDEST PUSH2 0xE40 DUP3 DUP3 PUSH2 0x7D1 JUMP JUMPDEST PUSH2 0x67D JUMPI PUSH2 0xE58 DUP2 PUSH1 0x1 PUSH1 0xA0 PUSH1 0x2 EXP SUB AND PUSH1 0x14 PUSH2 0xE9D JUMP JUMPDEST PUSH2 0xE63 DUP4 PUSH1 0x20 PUSH2 0xE9D JUMP JUMPDEST PUSH1 0x40 MLOAD PUSH1 0x20 ADD PUSH2 0xE74 SWAP3 SWAP2 SWAP1 PUSH2 0x12C7 JUMP JUMPDEST PUSH1 0x40 DUP1 MLOAD PUSH1 0x1F NOT DUP2 DUP5 SUB ADD DUP2 MSTORE SWAP1 DUP3 SWAP1 MSTORE PUSH1 0xE5 PUSH1 0x2 EXP PUSH3 0x461BCD MUL DUP3 MSTORE PUSH2 0x462 SWAP2 PUSH1 0x4 ADD PUSH2 0x1196 JUMP JUMPDEST PUSH1 0x60 PUSH1 0x0 PUSH2 0xEAC DUP4 PUSH1 0x2 PUSH2 0x1348 JUMP JUMPDEST PUSH2 0xEB7 SWAP1 PUSH1 0x2 PUSH2 0x125E JUMP JUMPDEST PUSH8 0xFFFFFFFFFFFFFFFF DUP2 GT ISZERO PUSH2 0xECF JUMPI PUSH2 0xECF PUSH2 0x1367 JUMP JUMPDEST PUSH1 0x40 MLOAD SWAP1 DUP1 DUP3 MSTORE DUP1 PUSH1 0x1F ADD PUSH1 0x1F NOT AND PUSH1 0x20 ADD DUP3 ADD PUSH1 0x40 MSTORE DUP1 ISZERO PUSH2 0xEF9 JUMPI PUSH1 0x20 DUP3 ADD DUP2 DUP1 CALLDATASIZE DUP4 CALLDATACOPY ADD SWAP1 POP JUMPDEST POP SWAP1 POP PUSH32 0x3000000000000000000000000000000000000000000000000000000000000000 DUP2 PUSH1 0x0 DUP2 MLOAD DUP2 LT PUSH2 0xF30 JUMPI PUSH2 0xF30 PUSH2 0x1380 JUMP JUMPDEST PUSH1 0x20 ADD ADD SWAP1 PUSH31 0xFFFFFFFFFFFFFFFFFFFFFFFFFFFFFFFFFFFFFFFFFFFFFFFFFFFFFFFFFFFFFF NOT AND SWAP1 DUP2 PUSH1 0x0 BYTE SWAP1 MSTORE8 POP PUSH32 0x7800000000000000000000000000000000000000000000000000000000000000 DUP2 PUSH1 0x1 DUP2 MLOAD DUP2 LT PUSH2 0xF93 JUMPI PUSH2 0xF93 PUSH2 0x1380 JUMP JUMPDEST PUSH1 0x20 ADD ADD SWAP1 PUSH31 0xFFFFFFFFFFFFFFFFFFFFFFFFFFFFFFFFFFFFFFFFFFFFFFFFFFFFFFFFFFFFFF NOT AND SWAP1 DUP2 PUSH1 0x0 BYTE SWAP1 MSTORE8 POP PUSH1 0x0 PUSH2 0xFCF DUP5 PUSH1 0x2 PUSH2 0x1348 JUMP JUMPDEST PUSH2 0xFDA SWAP1 PUSH1 0x1 PUSH2 0x125E JUMP JUMPDEST SWAP1 POP JUMPDEST PUSH1 0x1 DUP2 GT ISZERO PUSH2 0x1095 JUMPI PUSH32 0x3031323334353637383961626364656600000000000000000000000000000000 DUP6 PUSH1 0xF AND PUSH1 0x10 DUP2 LT PUSH2 0x101B JUMPI PUSH2 0x101B PUSH2 0x1380 JUMP JUMPDEST BYTE PUSH32 0x100000000000000000000000000000000000000000000000000000000000000 MUL DUP3 DUP3 DUP2 MLOAD DUP2 LT PUSH2 0x1050 JUMPI PUSH2 0x1050 PUSH2 0x1380 JUMP JUMPDEST PUSH1 0x20 ADD ADD SWAP1 PUSH31 0xFFFFFFFFFFFFFFFFFFFFFFFFFFFFFFFFFFFFFFFFFFFFFFFFFFFFFFFFFFFFFF NOT AND SWAP1 DUP2 PUSH1 0x0 BYTE SWAP1 MSTORE8 POP PUSH1 0x10 SWAP1 SWAP5 DIV SWAP4 PUSH2 0x108E DUP2 PUSH2 0x1399 JUMP JUMPDEST SWAP1 POP PUSH2 0xFDD JUMP JUMPDEST POP DUP4 ISZERO PUSH2 0x10E7 JUMPI PUSH1 0x40 MLOAD PUSH1 0xE5 PUSH1 0x2 EXP PUSH3 0x461BCD MUL DUP2 MSTORE PUSH1 0x20 PUSH1 0x4 DUP3 ADD DUP2 SWAP1 MSTORE PUSH1 0x24 DUP3 ADD MSTORE PUSH32 0x537472696E67733A20686578206C656E67746820696E73756666696369656E74 PUSH1 0x44 DUP3 ADD MSTORE PUSH1 0x64 ADD PUSH2 0x462 JUMP JUMPDEST SWAP4 SWAP3 POP POP POP JUMP JUMPDEST PUSH1 0x0 PUSH1 0x20 DUP3 DUP5 SUB SLT ISZERO PUSH2 0x1100 JUMPI PUSH1 0x0 DUP1 REVERT JUMPDEST DUP2 CALLDATALOAD PUSH28 0xFFFFFFFFFFFFFFFFFFFFFFFFFFFFFFFFFFFFFFFFFFFFFFFFFFFFFFFF NOT DUP2 AND DUP2 EQ PUSH2 0x10E7 JUMPI PUSH1 0x0 DUP1 REVERT JUMPDEST PUSH1 0x0 PUSH1 0x20 DUP3 DUP5 SUB SLT ISZERO PUSH2 0x113F JUMPI PUSH1 0x0 DUP1 REVERT JUMPDEST POP CALLDATALOAD SWAP2 SWAP1 POP JUMP JUMPDEST PUSH1 0x0 JUMPDEST DUP4 DUP2 LT ISZERO PUSH2 0x1161 JUMPI DUP2 DUP2 ADD MLOAD DUP4 DUP3 ADD MSTORE PUSH1 0x20 ADD PUSH2 0x1149 JUMP JUMPDEST POP POP PUSH1 0x0 SWAP2 ADD MSTORE JUMP JUMPDEST PUSH1 0x0 DUP2 MLOAD DUP1 DUP5 MSTORE PUSH2 0x1182 DUP2 PUSH1 0x20 DUP7 ADD PUSH1 0x20 DUP7 ADD PUSH2 0x1146 JUMP JUMPDEST PUSH1 0x1F ADD PUSH1 0x1F NOT AND SWAP3 SWAP1 SWAP3 ADD PUSH1 0x20 ADD SWAP3 SWAP2 POP POP JUMP JUMPDEST PUSH1 0x20 DUP2 MSTORE PUSH1 0x0 PUSH2 0x10E7 PUSH1 0x20 DUP4 ADD DUP5 PUSH2 0x116A JUMP JUMPDEST DUP1 CALLDATALOAD PUSH1 0x1 PUSH1 0xA0 PUSH1 0x2 EXP SUB DUP2 AND DUP2 EQ PUSH2 0x11C0 JUMPI PUSH1 0x0 DUP1 REVERT JUMPDEST SWAP2 SWAP1 POP JUMP JUMPDEST PUSH1 0x0 DUP1 PUSH1 0x40 DUP4 DUP6 SUB SLT ISZERO PUSH2 0x11D8 JUMPI PUSH1 0x0 DUP1 REVERT JUMPDEST DUP3 CALLDATALOAD SWAP2 POP PUSH2 0x11E8 PUSH1 0x20 DUP5 ADD PUSH2 0x11A9 JUMP JUMPDEST SWAP1 POP SWAP3 POP SWAP3 SWAP1 POP JUMP JUMPDEST DUP5 DUP2 MSTORE PUSH1 0x1 PUSH1 0xA0 PUSH1 0x2 EXP SUB DUP5 AND PUSH1 0x20 DUP3 ADD MSTORE PUSH1 0x80 PUSH1 0x40 DUP3 ADD MSTORE PUSH1 0x0 PUSH2 0x1219 PUSH1 0x80 DUP4 ADD DUP6 PUSH2 0x116A JUMP JUMPDEST SWAP1 POP DUP3 PUSH1 0x60 DUP4 ADD MSTORE SWAP6 SWAP5 POP POP POP POP POP JUMP JUMPDEST PUSH1 0x0 PUSH1 0x20 DUP3 DUP5 SUB SLT ISZERO PUSH2 0x123C JUMPI PUSH1 0x0 DUP1 REVERT JUMPDEST PUSH2 0x10E7 DUP3 PUSH2 0x11A9 JUMP JUMPDEST PUSH1 0xE0 PUSH1 0x2 EXP PUSH4 0x4E487B71 MUL PUSH1 0x0 MSTORE PUSH1 0x11 PUSH1 0x4 MSTORE PUSH1 0x24 PUSH1 0x0 REVERT JUMPDEST DUP1 DUP3 ADD DUP1 DUP3 GT ISZERO PUSH2 0x3F9 JUMPI PUSH2 0x3F9 PUSH2 0x1245 JUMP JUMPDEST PUSH1 0x0 PUSH1 0x1 DUP3 ADD PUSH2 0x1283 JUMPI PUSH2 0x1283 PUSH2 0x1245 JUMP JUMPDEST POP PUSH1 0x1 ADD SWAP1 JUMP JUMPDEST PUSH1 0x2 DUP2 DIV PUSH1 0x1 DUP3 AND DUP1 PUSH2 0x129E JUMPI PUSH1 0x7F DUP3 AND SWAP2 POP JUMPDEST PUSH1 0x20 DUP3 LT DUP2 SUB PUSH2 0x12C1 JUMPI PUSH1 0xE0 PUSH1 0x2 EXP PUSH4 0x4E487B71 MUL PUSH1 0x0 MSTORE PUSH1 0x22 PUSH1 0x4 MSTORE PUSH1 0x24 PUSH1 0x0 REVERT JUMPDEST POP SWAP2 SWAP1 POP JUMP JUMPDEST PUSH32 0x416363657373436F6E74726F6C3A206163636F756E7420000000000000000000 DUP2 MSTORE PUSH1 0x0 DUP4 MLOAD PUSH2 0x12FF DUP2 PUSH1 0x17 DUP6 ADD PUSH1 0x20 DUP9 ADD PUSH2 0x1146 JUMP JUMPDEST PUSH32 0x206973206D697373696E6720726F6C6520000000000000000000000000000000 PUSH1 0x17 SWAP2 DUP5 ADD SWAP2 DUP3 ADD MSTORE DUP4 MLOAD PUSH2 0x133C DUP2 PUSH1 0x28 DUP5 ADD PUSH1 0x20 DUP9 ADD PUSH2 0x1146 JUMP JUMPDEST ADD PUSH1 0x28 ADD SWAP5 SWAP4 POP POP POP POP JUMP JUMPDEST PUSH1 0x0 DUP2 PUSH1 0x0 NOT DIV DUP4 GT DUP3 ISZERO ISZERO AND ISZERO PUSH2 0x1362 JUMPI PUSH2 0x1362 PUSH2 0x1245 JUMP JUMPDEST POP MUL SWAP1 JUMP JUMPDEST PUSH1 0xE0 PUSH1 0x2 EXP PUSH4 0x4E487B71 MUL PUSH1 0x0 MSTORE PUSH1 0x41 PUSH1 0x4 MSTORE PUSH1 0x24 PUSH1 0x0 REVERT JUMPDEST PUSH1 0xE0 PUSH1 0x2 EXP PUSH4 0x4E487B71 MUL PUSH1 0x0 MSTORE PUSH1 0x32 PUSH1 0x4 MSTORE PUSH1 0x24 PUSH1 0x0 REVERT JUMPDEST PUSH1 0x0 DUP2 PUSH2 0x13A8 JUMPI PUSH2 0x13A8 PUSH2 0x1245 JUMP JUMPDEST POP PUSH1 0x0 NOT ADD SWAP1 JUMP INVALID 0x22 PUSH13 0x4972AB1F314D4AD7FF65FBBF70 0xE5 PUSH5 0x7A0620354D SWAP8 0xBF CALL 0xB9 PUSH25 0xC4CF385EDFA26469706673582212202C8CDBCA7154B79B66BA EQ PUSH7 0x6F7300C5DFFA14 0xEB SHL 0xE5 MOD ADDMOD 0xD2 TIMESTAMP LOG4 JUMPDEST DUP2 DUP16 DUP5 0xBB PUSH5 0x736F6C6343 STOP ADDMOD LT STOP CALLER "
				},
				"gasEstimates": {
					"creation": {
						"codeDepositCost": "1025200",
						"executionCost": "infinite",
						"totalCost": "infinite"
					},
					"external": {
						"DEFAULT_ADMIN_ROLE()": "223",
						"ROLE_ADMIN()": "267",
						"ROLE_VOLTANTE()": "infinite",
						"addressGanador()": "infinite",
						"candidato1()": "infinite",
						"candidato2()": "infinite",
						"candidato3()": "infinite",
						"candidatoGanador()": "infinite",
						"derechoVoto()": "infinite",
						"duenoChecar()": "infinite",
						"getRoleAdmin(bytes32)": "645",
						"grantRole(bytes32,address)": "infinite",
						"hasRole(bytes32,address)": "984",
						"nombreGanador()": "infinite",
						"normalCosa()": "214",
						"owner()": "628",
						"permisoVotar()": "infinite",
						"renounceOwnership()": "infinite",
						"renounceRole(bytes32,address)": "23380",
						"revokeRole(bytes32,address)": "infinite",
						"supportsInterface(bytes4)": "407",
						"transferOwnership(address)": "22720",
						"votar(uint256)": "41252",
						"voto()": "infinite",
						"votoBueno()": "infinite",
						"votoMalo()": "infinite"
					}
				},
				"methodIdentifiers": {
					"DEFAULT_ADMIN_ROLE()": "a217fddf",
					"ROLE_ADMIN()": "d391014b",
					"ROLE_VOLTANTE()": "8356e8e1",
					"addressGanador()": "c360a03b",
					"candidato1()": "fa0c3ab8",
					"candidato2()": "61c78cce",
					"candidato3()": "f222b579",
					"candidatoGanador()": "5792febf",
					"derechoVoto()": "226839ba",
					"duenoChecar()": "2b553fb4",
					"getRoleAdmin(bytes32)": "248a9ca3",
					"grantRole(bytes32,address)": "2f2ff15d",
					"hasRole(bytes32,address)": "91d14854",
					"nombreGanador()": "ffd7e4e7",
					"normalCosa()": "b49cd0f7",
					"owner()": "8da5cb5b",
					"permisoVotar()": "c363091c",
					"renounceOwnership()": "715018a6",
					"renounceRole(bytes32,address)": "36568abe",
					"revokeRole(bytes32,address)": "d547741f",
					"supportsInterface(bytes4)": "01ffc9a7",
					"transferOwnership(address)": "f2fde38b",
					"votar(uint256)": "21606831",
					"voto()": "c7876434",
					"votoBueno()": "b1c78ebc",
					"votoMalo()": "ae60bb23"
				}
			},
			"storageLayout": {
				"storage": [
					{
						"astId": 400,
						"contract": "votes.sol:projectVotes",
						"label": "_owner",
						"offset": 0,
						"slot": "0",
						"type": "t_address"
					},
					{
						"astId": 24,
						"contract": "votes.sol:projectVotes",
						"label": "_roles",
						"offset": 0,
						"slot": "1",
						"type": "t_mapping(t_bytes32,t_struct(RoleData)19_storage)"
					},
					{
						"astId": 810,
						"contract": "votes.sol:projectVotes",
						"label": "totalVotos",
						"offset": 0,
						"slot": "2",
						"type": "t_uint256"
					},
					{
						"astId": 813,
						"contract": "votes.sol:projectVotes",
						"label": "votoBueno",
						"offset": 0,
						"slot": "3",
						"type": "t_string_storage"
					},
					{
						"astId": 816,
						"contract": "votes.sol:projectVotes",
						"label": "votoMalo",
						"offset": 0,
						"slot": "4",
						"type": "t_string_storage"
					},
					{
						"astId": 873,
						"contract": "votes.sol:projectVotes",
						"label": "votantes",
						"offset": 0,
						"slot": "5",
						"type": "t_mapping(t_address,t_struct(Votante)868_storage)"
					},
					{
						"astId": 891,
						"contract": "votes.sol:projectVotes",
						"label": "candidato1",
						"offset": 0,
						"slot": "6",
						"type": "t_struct(Candidato)882_storage"
					},
					{
						"astId": 900,
						"contract": "votes.sol:projectVotes",
						"label": "candidato2",
						"offset": 0,
						"slot": "10",
						"type": "t_struct(Candidato)882_storage"
					},
					{
						"astId": 909,
						"contract": "votes.sol:projectVotes",
						"label": "candidato3",
						"offset": 0,
						"slot": "14",
						"type": "t_struct(Candidato)882_storage"
					}
				],
				"types": {
					"t_address": {
						"encoding": "inplace",
						"label": "address",
						"numberOfBytes": "20"
					},
					"t_bool": {
						"encoding": "inplace",
						"label": "bool",
						"numberOfBytes": "1"
					},
					"t_bytes32": {
						"encoding": "inplace",
						"label": "bytes32",
						"numberOfBytes": "32"
					},
					"t_mapping(t_address,t_bool)": {
						"encoding": "mapping",
						"key": "t_address",
						"label": "mapping(address => bool)",
						"numberOfBytes": "32",
						"value": "t_bool"
					},
					"t_mapping(t_address,t_struct(Votante)868_storage)": {
						"encoding": "mapping",
						"key": "t_address",
						"label": "mapping(address => struct projectVotes.Votante)",
						"numberOfBytes": "32",
						"value": "t_struct(Votante)868_storage"
					},
					"t_mapping(t_bytes32,t_struct(RoleData)19_storage)": {
						"encoding": "mapping",
						"key": "t_bytes32",
						"label": "mapping(bytes32 => struct AccessControl.RoleData)",
						"numberOfBytes": "32",
						"value": "t_struct(RoleData)19_storage"
					},
					"t_string_storage": {
						"encoding": "bytes",
						"label": "string",
						"numberOfBytes": "32"
					},
					"t_struct(Candidato)882_storage": {
						"encoding": "inplace",
						"label": "struct projectVotes.Candidato",
						"members": [
							{
								"astId": 875,
								"contract": "votes.sol:projectVotes",
								"label": "id",
								"offset": 0,
								"slot": "0",
								"type": "t_uint256"
							},
							{
								"astId": 877,
								"contract": "votes.sol:projectVotes",
								"label": "addressCandidato",
								"offset": 0,
								"slot": "1",
								"type": "t_address"
							},
							{
								"astId": 879,
								"contract": "votes.sol:projectVotes",
								"label": "nombre",
								"offset": 0,
								"slot": "2",
								"type": "t_string_storage"
							},
							{
								"astId": 881,
								"contract": "votes.sol:projectVotes",
								"label": "contadorVotos",
								"offset": 0,
								"slot": "3",
								"type": "t_uint256"
							}
						],
						"numberOfBytes": "128"
					},
					"t_struct(RoleData)19_storage": {
						"encoding": "inplace",
						"label": "struct AccessControl.RoleData",
						"members": [
							{
								"astId": 16,
								"contract": "votes.sol:projectVotes",
								"label": "members",
								"offset": 0,
								"slot": "0",
								"type": "t_mapping(t_address,t_bool)"
							},
							{
								"astId": 18,
								"contract": "votes.sol:projectVotes",
								"label": "adminRole",
								"offset": 0,
								"slot": "1",
								"type": "t_bytes32"
							}
						],
						"numberOfBytes": "64"
					},
					"t_struct(Votante)868_storage": {
						"encoding": "inplace",
						"label": "struct projectVotes.Votante",
						"members": [
							{
								"astId": 861,
								"contract": "votes.sol:projectVotes",
								"label": "voto",
								"offset": 0,
								"slot": "0",
								"type": "t_bool"
							},
							{
								"astId": 863,
								"contract": "votes.sol:projectVotes",
								"label": "puedeVotar",
								"offset": 1,
								"slot": "0",
								"type": "t_bool"
							},
							{
								"astId": 865,
								"contract": "votes.sol:projectVotes",
								"label": "votos",
								"offset": 0,
								"slot": "1",
								"type": "t_uint256"
							},
							{
								"astId": 867,
								"contract": "votes.sol:projectVotes",
								"label": "tiempoVoto",
								"offset": 0,
								"slot": "2",
								"type": "t_uint256"
							}
						],
						"numberOfBytes": "96"
					},
					"t_uint256": {
						"encoding": "inplace",
						"label": "uint256",
						"numberOfBytes": "32"
					}
				}
			},
			"userdoc": {
				"kind": "user",
				"methods": {},
				"version": 1
			}
		}
	}
}