{
	"votes.sol": {
		"projectVotes": {
			"abi": [
				{
					"inputs": [],
					"stateMutability": "nonpayable",
					"type": "constructor"
				},
				{
					"anonymous": false,
					"inputs": [
						{
							"indexed": true,
							"internalType": "address",
							"name": "previousOwner",
							"type": "address"
						},
						{
							"indexed": true,
							"internalType": "address",
							"name": "newOwner",
							"type": "address"
						}
					],
					"name": "OwnershipTransferred",
					"type": "event"
				},
				{
					"anonymous": false,
					"inputs": [
						{
							"indexed": true,
							"internalType": "bytes32",
							"name": "role",
							"type": "bytes32"
						},
						{
							"indexed": true,
							"internalType": "bytes32",
							"name": "previousAdminRole",
							"type": "bytes32"
						},
						{
							"indexed": true,
							"internalType": "bytes32",
							"name": "newAdminRole",
							"type": "bytes32"
						}
					],
					"name": "RoleAdminChanged",
					"type": "event"
				},
				{
					"anonymous": false,
					"inputs": [
						{
							"indexed": true,
							"internalType": "bytes32",
							"name": "role",
							"type": "bytes32"
						},
						{
							"indexed": true,
							"internalType": "address",
							"name": "account",
							"type": "address"
						},
						{
							"indexed": true,
							"internalType": "address",
							"name": "sender",
							"type": "address"
						}
					],
					"name": "RoleGranted",
					"type": "event"
				},
				{
					"anonymous": false,
					"inputs": [
						{
							"indexed": true,
							"internalType": "bytes32",
							"name": "role",
							"type": "bytes32"
						},
						{
							"indexed": true,
							"internalType": "address",
							"name": "account",
							"type": "address"
						},
						{
							"indexed": true,
							"internalType": "address",
							"name": "sender",
							"type": "address"
						}
					],
					"name": "RoleRevoked",
					"type": "event"
				},
				{
					"inputs": [],
					"name": "DEFAULT_ADMIN_ROLE",
					"outputs": [
						{
							"internalType": "bytes32",
							"name": "",
							"type": "bytes32"
						}
					],
					"stateMutability": "view",
					"type": "function"
				},
				{
					"inputs": [],
					"name": "ROLE_ADMIN",
					"outputs": [
						{
							"internalType": "bytes32",
							"name": "",
							"type": "bytes32"
						}
					],
					"stateMutability": "view",
					"type": "function"
				},
				{
					"inputs": [],
					"name": "ROLE_VOLTANTE",
					"outputs": [
						{
							"internalType": "bytes32",
							"name": "",
							"type": "bytes32"
						}
					],
					"stateMutability": "view",
					"type": "function"
				},
				{
					"inputs": [],
					"name": "addressGanador",
					"outputs": [
						{
							"internalType": "address",
							"name": "addressGanador_",
							"type": "address"
						}
					],
					"stateMutability": "view",
					"type": "function"
				},
				{
					"inputs": [],
					"name": "candidato1",
					"outputs": [
						{
							"internalType": "uint256",
							"name": "id",
							"type": "uint256"
						},
						{
							"internalType": "address",
							"name": "addressCandidato",
							"type": "address"
						},
						{
							"internalType": "string",
							"name": "nombre",
							"type": "string"
						},
						{
							"internalType": "uint256",
							"name": "contadorVotos",
							"type": "uint256"
						}
					],
					"stateMutability": "view",
					"type": "function"
				},
				{
					"inputs": [],
					"name": "candidato2",
					"outputs": [
						{
							"internalType": "uint256",
							"name": "id",
							"type": "uint256"
						},
						{
							"internalType": "address",
							"name": "addressCandidato",
							"type": "address"
						},
						{
							"internalType": "string",
							"name": "nombre",
							"type": "string"
						},
						{
							"internalType": "uint256",
							"name": "contadorVotos",
							"type": "uint256"
						}
					],
					"stateMutability": "view",
					"type": "function"
				},
				{
					"inputs": [],
					"name": "candidato3",
					"outputs": [
						{
							"internalType": "uint256",
							"name": "id",
							"type": "uint256"
						},
						{
							"internalType": "address",
							"name": "addressCandidato",
							"type": "address"
						},
						{
							"internalType": "string",
							"name": "nombre",
							"type": "string"
						},
						{
							"internalType": "uint256",
							"name": "contadorVotos",
							"type": "uint256"
						}
					],
					"stateMutability": "view",
					"type": "function"
				},
				{
					"inputs": [],
					"name": "candidatoGanador",
					"outputs": [
						{
							"internalType": "uint256",
							"name": "candidatoGanador_",
							"type": "uint256"
						}
					],
					"stateMutability": "view",
					"type": "function"
				},
				{
					"inputs": [],
					"name": "derechoVoto",
					"outputs": [
						{
							"internalType": "string",
							"name": "",
							"type": "string"
						}
					],
					"stateMutability": "view",
					"type": "function"
				},
				{
					"inputs": [],
					"name": "duenoChecar",
					"outputs": [],
					"stateMutability": "nonpayable",
					"type": "function"
				},
				{
					"inputs": [
						{
							"internalType": "bytes32",
							"name": "role",
							"type": "bytes32"
						}
					],
					"name": "getRoleAdmin",
					"outputs": [
						{
							"internalType": "bytes32",
							"name": "",
							"type": "bytes32"
						}
					],
					"stateMutability": "view",
					"type": "function"
				},
				{
					"inputs": [
						{
							"internalType": "bytes32",
							"name": "role",
							"type": "bytes32"
						},
						{
							"internalType": "address",
							"name": "account",
							"type": "address"
						}
					],
					"name": "grantRole",
					"outputs": [],
					"stateMutability": "nonpayable",
					"type": "function"
				},
				{
					"inputs": [
						{
							"internalType": "bytes32",
							"name": "role",
							"type": "bytes32"
						},
						{
							"internalType": "address",
							"name": "account",
							"type": "address"
						}
					],
					"name": "hasRole",
					"outputs": [
						{
							"internalType": "bool",
							"name": "",
							"type": "bool"
						}
					],
					"stateMutability": "view",
					"type": "function"
				},
				{
					"inputs": [],
					"name": "nombreGanador",
					"outputs": [
						{
							"internalType": "string",
							"name": "nombreGanador_",
							"type": "string"
						}
					],
					"stateMutability": "view",
					"type": "function"
				},
				{
					"inputs": [],
					"name": "normalCosa",
					"outputs": [],
					"stateMutability": "nonpayable",
					"type": "function"
				},
				{
					"inputs": [],
					"name": "owner",
					"outputs": [
						{
							"internalType": "address",
							"name": "",
							"type": "address"
						}
					],
					"stateMutability": "view",
					"type": "function"
				},
				{
					"inputs": [],
					"name": "permisoVotar",
					"outputs": [
						{
							"internalType": "bool",
							"name": "",
							"type": "bool"
						}
					],
					"stateMutability": "view",
					"type": "function"
				},
				{
					"inputs": [],
					"name": "renounceOwnership",
					"outputs": [],
					"stateMutability": "nonpayable",
					"type": "function"
				},
				{
					"inputs": [
						{
							"internalType": "bytes32",
							"name": "role",
							"type": "bytes32"
						},
						{
							"internalType": "address",
							"name": "account",
							"type": "address"
						}
					],
					"name": "renounceRole",
					"outputs": [],
					"stateMutability": "nonpayable",
					"type": "function"
				},
				{
					"inputs": [
						{
							"internalType": "bytes32",
							"name": "role",
							"type": "bytes32"
						},
						{
							"internalType": "address",
							"name": "account",
							"type": "address"
						}
					],
					"name": "revokeRole",
					"outputs": [],
					"stateMutability": "nonpayable",
					"type": "function"
				},
				{
					"inputs": [
						{
							"internalType": "bytes4",
							"name": "interfaceId",
							"type": "bytes4"
						}
					],
					"name": "supportsInterface",
					"outputs": [
						{
							"internalType": "bool",
							"name": "",
							"type": "bool"
						}
					],
					"stateMutability": "view",
					"type": "function"
				},
				{
					"inputs": [
						{
							"internalType": "address",
							"name": "newOwner",
							"type": "address"
						}
					],
					"name": "transferOwnership",
					"outputs": [],
					"stateMutability": "nonpayable",
					"type": "function"
				},
				{
					"inputs": [
						{
							"internalType": "uint256",
							"name": "_candidato",
							"type": "uint256"
						}
					],
					"name": "votar",
					"outputs": [],
					"stateMutability": "nonpayable",
					"type": "function"
				},
				{
					"inputs": [],
					"name": "voto",
					"outputs": [
						{
							"internalType": "bool",
							"name": "",
							"type": "bool"
						}
					],
					"stateMutability": "view",
					"type": "function"
				},
				{
					"inputs": [],
					"name": "votoBueno",
					"outputs": [
						{
							"internalType": "string",
							"name": "",
							"type": "string"
						}
					],
					"stateMutability": "view",
					"type": "function"
				},
				{
					"inputs": [],
					"name": "votoMalo",
					"outputs": [
						{
							"internalType": "string",
							"name": "",
							"type": "string"
						}
					],
					"stateMutability": "view",
					"type": "function"
				}
			],
			"devdoc": {
				"kind": "dev",
				"methods": {
					"getRoleAdmin(bytes32)": {
						"details": "Returns the admin role that controls `role`. See {grantRole} and {revokeRole}. To change a role's admin, use {_setRoleAdmin}."
					},
					"grantRole(bytes32,address)": {
						"details": "Grants `role` to `account`. If `account` had not been already granted `role`, emits a {RoleGranted} event. Requirements: - the caller must have ``role``'s admin role. May emit a {RoleGranted} event."
					},
					"hasRole(bytes32,address)": {
						"details": "Returns `true` if `account` has been granted `role`."
					},
					"owner()": {
						"details": "Returns the address of the current owner."
					},
					"renounceOwnership()": {
						"details": "Leaves the contract without owner. It will not be possible to call `onlyOwner` functions anymore. Can only be called by the current owner. NOTE: Renouncing ownership will leave the contract without an owner, thereby removing any functionality that is only available to the owner."
					},
					"renounceRole(bytes32,address)": {
						"details": "Revokes `role` from the calling account. Roles are often managed via {grantRole} and {revokeRole}: this function's purpose is to provide a mechanism for accounts to lose their privileges if they are compromised (such as when a trusted device is misplaced). If the calling account had been revoked `role`, emits a {RoleRevoked} event. Requirements: - the caller must be `account`. May emit a {RoleRevoked} event."
					},
					"revokeRole(bytes32,address)": {
						"details": "Revokes `role` from `account`. If `account` had been granted `role`, emits a {RoleRevoked} event. Requirements: - the caller must have ``role``'s admin role. May emit a {RoleRevoked} event."
					},
					"supportsInterface(bytes4)": {
						"details": "See {IERC165-supportsInterface}."
					},
					"transferOwnership(address)": {
						"details": "Transfers ownership of the contract to a new account (`newOwner`). Can only be called by the current owner."
					}
				},
				"version": 1
			},
			"evm": {
				"assembly": "    /* \"votes.sol\":554:555  0 */\n  0x00\n    /* \"votes.sol\":536:555  uint totalVotos = 0 */\n  0x02\n  sstore\n    /* \"votes.sol\":561:597  string public votoBueno = \"Se Voto!\" */\n  0xc0\n    /* \"votes.sol\":170:6432  contract projectVotes is Ownable,AccessControl {... */\n  0x40\n    /* \"votes.sol\":561:597  string public votoBueno = \"Se Voto!\" */\n  mstore\n  0x08\n    /* \"votes.sol\":170:6432  contract projectVotes is Ownable,AccessControl {... */\n  0x80\n    /* \"votes.sol\":561:597  string public votoBueno = \"Se Voto!\" */\n  dup2\n  swap1\n  mstore\n  0x536520566f746f21000000000000000000000000000000000000000000000000\n  0xa0\n  swap1\n  dup2\n  mstore\n  tag_1\n  swap2\n  0x03\n  swap2\n  swap1\n  tag_2\n  jump\t// in\ntag_1:\n  pop\n    /* \"votes.sol\":603:638  string public votoMalo = \"No Voto!\" */\n  0x40\n  dup1\n  mload\n  dup1\n  dup3\n  add\n  swap1\n  swap2\n  mstore\n  0x08\n  dup1\n  dup3\n  mstore\n  0x4e6f20566f746f21000000000000000000000000000000000000000000000000\n  0x20\n  swap1\n  swap3\n  add\n  swap2\n  dup3\n  mstore\n  tag_3\n  swap2\n  0x04\n  swap2\n  tag_2\n  jump\t// in\ntag_3:\n  pop\n    /* \"votes.sol\":1653:1813  Candidato({... */\n  0x40\n  dup1\n  mload\n  0x80\n  dup2\n  add\n  dup3\n  mstore\n    /* \"votes.sol\":1677:1678  1 */\n  0x01\n    /* \"votes.sol\":1653:1813  Candidato({... */\n  dup2\n  mstore\n    /* \"votes.sol\":1764:1806  0x1234567890123456789100000000000000000000 */\n  0x1234567890123456789100000000000000000000\n    /* \"votes.sol\":1653:1813  Candidato({... */\n  0x20\n  dup1\n  dup4\n  add\n  swap2\n  dup3\n  mstore\n  dup4\n  mload\n  dup1\n  dup6\n  add\n  dup6\n  mstore\n  0x0c\n  dup2\n  mstore\n  0x54726176656c616e6469616e0000000000000000000000000000000000000000\n  swap2\n  dup2\n  add\n  swap2\n  dup3\n  mstore\n  swap4\n  dup4\n  add\n  dup5\n  swap1\n  mstore\n  0x00\n  0x60\n  dup5\n  add\n  mstore\n    /* \"votes.sol\":1623:1813  Candidato public candidato1 = Candidato({... */\n  dup3\n  mload\n  0x06\n  swap1\n  dup2\n  sstore\n  swap2\n  mload\n  0x07\n  dup1\n  sload\n  not(sub(exp(0x02, 0xa0), 0x01))\n  and\n  sub(exp(0x02, 0xa0), 0x01)\n  swap1\n  swap3\n  and\n  swap2\n  swap1\n  swap2\n  or\n  swap1\n  sstore\n  swap3\n  mload\n    /* \"votes.sol\":1653:1813  Candidato({... */\n  swap2\n  swap3\n    /* \"votes.sol\":1623:1813  Candidato public candidato1 = Candidato({... */\n  swap1\n  swap2\n  tag_4\n  swap2\n  0x08\n  swap2\n  tag_2\n  jump\t// in\ntag_4:\n  pop\n  0x60\n  swap2\n  dup3\n  add\n  mload\n  0x03\n  swap2\n  swap1\n  swap2\n  add\n  sstore\n    /* \"votes.sol\":1851:2009  Candidato({... */\n  0x40\n  dup1\n  mload\n  0x80\n  dup2\n  add\n  dup3\n  mstore\n    /* \"votes.sol\":1875:1876  2 */\n  0x02\n    /* \"votes.sol\":1851:2009  Candidato({... */\n  dup2\n  mstore\n    /* \"votes.sol\":1960:2002  0x1234567890123456789200000000000000000000 */\n  0x1234567890123456789200000000000000000000\n  0x20\n    /* \"votes.sol\":1851:2009  Candidato({... */\n  dup1\n  dup4\n  add\n  swap2\n  dup3\n  mstore\n  dup4\n  mload\n  dup1\n  dup6\n  add\n  dup6\n  mstore\n  0x0a\n  dup1\n  dup3\n  mstore\n  0x4564756c616e6469616e00000000000000000000000000000000000000000000\n  swap3\n  dup3\n  add\n  swap3\n  dup4\n  mstore\n  swap5\n  dup5\n  add\n  dup2\n  swap1\n  mstore\n  0x00\n  swap6\n  dup5\n  add\n  swap6\n  swap1\n  swap6\n  mstore\n    /* \"votes.sol\":1821:2009  Candidato public candidato2 = Candidato({... */\n  dup3\n  mload\n  dup5\n  sstore\n  swap1\n  mload\n  0x0b\n  dup1\n  sload\n  not(sub(exp(0x02, 0xa0), 0x01))\n  and\n  sub(exp(0x02, 0xa0), 0x01)\n  swap1\n  swap3\n  and\n  swap2\n  swap1\n  swap2\n  or\n  swap1\n  sstore\n  swap3\n  mload\n    /* \"votes.sol\":1851:2009  Candidato({... */\n  swap1\n  swap3\n    /* \"votes.sol\":1821:2009  Candidato public candidato2 = Candidato({... */\n  tag_5\n  swap2\n  0x0c\n  swap2\n    /* \"votes.sol\":1851:2009  Candidato({... */\n  swap1\n    /* \"votes.sol\":1821:2009  Candidato public candidato2 = Candidato({... */\n  tag_2\n  jump\t// in\ntag_5:\n  pop\n  0x60\n  swap2\n  dup3\n  add\n  mload\n  0x03\n  swap2\n  dup3\n  add\n  sstore\n    /* \"votes.sol\":2047:2206  Candidato({... */\n  0x40\n  dup1\n  mload\n  0x80\n  dup2\n  add\n  dup3\n  mstore\n  swap2\n  dup3\n  mstore\n    /* \"votes.sol\":2157:2199  0x1234567890123456789300000000000000000000 */\n  0x1234567890123456789300000000000000000000\n  0x20\n    /* \"votes.sol\":2047:2206  Candidato({... */\n  dup1\n  dup5\n  add\n  swap2\n  dup3\n  mstore\n  dup3\n  mload\n  dup1\n  dup5\n  add\n  dup5\n  mstore\n  0x0b\n  dup2\n  mstore\n  0x45636f6c616e6469616e32000000000000000000000000000000000000000000\n  swap2\n  dup2\n  add\n  swap2\n  dup3\n  mstore\n  swap3\n  dup5\n  add\n  dup4\n  swap1\n  mstore\n  0x00\n  swap5\n  dup5\n  add\n  swap5\n  swap1\n  swap5\n  mstore\n    /* \"votes.sol\":2017:2206  Candidato public candidato3 = Candidato({... */\n  dup3\n  mload\n  0x0e\n  swap1\n  dup2\n  sstore\n  swap1\n  mload\n  0x0f\n  dup1\n  sload\n  not(sub(exp(0x02, 0xa0), 0x01))\n  and\n  sub(exp(0x02, 0xa0), 0x01)\n  swap1\n  swap3\n  and\n  swap2\n  swap1\n  swap2\n  or\n  swap1\n  sstore\n  swap1\n  mload\n    /* \"votes.sol\":2047:2206  Candidato({... */\n  swap2\n  swap3\n    /* \"votes.sol\":2017:2206  Candidato public candidato3 = Candidato({... */\n  swap1\n  swap2\n  tag_6\n  swap2\n  0x10\n  swap2\n  tag_2\n  jump\t// in\ntag_6:\n  pop\n  0x60\n  dup3\n  add\n  mload\n  dup2\n  0x03\n  add\n  sstore\n  pop\n  pop\n    /* \"votes.sol\":645:900  constructor() {... */\n  callvalue\n  dup1\n  iszero\n  tag_7\n  jumpi\n  0x00\n  dup1\n  revert\ntag_7:\n  pop\n    /* \"@openzeppelin/contracts/access/Ownable.sol\":936:968  _transferOwnership(_msgSender()) */\n  tag_11\n    /* \"@openzeppelin/contracts/access/Ownable.sol\":955:967  _msgSender() */\n  tag_12\n    /* \"@openzeppelin/contracts/access/Ownable.sol\":955:965  _msgSender */\n  0x0100000000\n  tag_13\n  dup2\n  mul\n    /* \"@openzeppelin/contracts/access/Ownable.sol\":955:967  _msgSender() */\n  div\n  jump\t// in\ntag_12:\n    /* \"@openzeppelin/contracts/access/Ownable.sol\":936:954  _transferOwnership */\n  0x0100000000\n  tag_14\n  dup2\n  mul\n    /* \"@openzeppelin/contracts/access/Ownable.sol\":936:968  _transferOwnership(_msgSender()) */\n  div\n  jump\t// in\ntag_11:\n    /* \"votes.sol\":669:710  _setupRole(DEFAULT_ADMIN_ROLE,msg.sender) */\n  tag_16\n    /* \"@openzeppelin/contracts/access/AccessControl.sol\":2072:2076  0x00 */\n  0x00\n    /* \"votes.sol\":699:709  msg.sender */\n  caller\n    /* \"votes.sol\":669:679  _setupRole */\n  0x0100000000\n  tag_17\n  dup2\n  mul\n    /* \"votes.sol\":669:710  _setupRole(DEFAULT_ADMIN_ROLE,msg.sender) */\n  div\n  jump\t// in\ntag_16:\n    /* \"votes.sol\":720:757  _setupRole(ROLE_VOLTANTE, msg.sender) */\n  tag_18\n    /* \"votes.sol\":263:289  keccak256(\"ROLE_VOLTANTE\") */\n  0x226c4972ab1f314d4ad7ff65fbbf70e5647a0620354d97bff1b978c4cf385edf\n    /* \"votes.sol\":746:756  msg.sender */\n  caller\n    /* \"votes.sol\":720:730  _setupRole */\n  0x0100000000\n  tag_17\n  dup2\n  mul\n    /* \"votes.sol\":720:757  _setupRole(ROLE_VOLTANTE, msg.sender) */\n  div\n  jump\t// in\ntag_18:\n    /* \"votes.sol\":767:803  _setRoleAdmin(ROLE_ADMIN,ROLE_ADMIN) */\n  tag_19\n    /* \"votes.sol\":402:425  keccak256(\"ROLE_ADMIN\") */\n  0x2172861495e7b85edac73e3cd5fbb42dd675baadf627720e687bcfdaca025096\n  dup1\n    /* \"votes.sol\":767:780  _setRoleAdmin */\n  0x0100000000\n  tag_20\n  dup2\n  mul\n    /* \"votes.sol\":767:803  _setRoleAdmin(ROLE_ADMIN,ROLE_ADMIN) */\n  div\n  jump\t// in\ntag_19:\n    /* \"votes.sol\":170:6432  contract projectVotes is Ownable,AccessControl {... */\n  jump(tag_48)\n    /* \"@openzeppelin/contracts/utils/Context.sol\":640:736  function _msgSender() internal view virtual returns (address) {... */\ntag_13:\n    /* \"@openzeppelin/contracts/utils/Context.sol\":719:729  msg.sender */\n  caller\n  swap1\n    /* \"@openzeppelin/contracts/utils/Context.sol\":640:736  function _msgSender() internal view virtual returns (address) {... */\n  jump\t// out\n    /* \"@openzeppelin/contracts/access/Ownable.sol\":2433:2620  function _transferOwnership(address newOwner) internal virtual {... */\ntag_14:\n    /* \"@openzeppelin/contracts/access/Ownable.sol\":2506:2522  address oldOwner */\n  0x00\n    /* \"@openzeppelin/contracts/access/Ownable.sol\":2525:2531  _owner */\n  dup1\n  sload\n  sub(exp(0x02, 0xa0), 0x01)\n    /* \"@openzeppelin/contracts/access/Ownable.sol\":2541:2558  _owner = newOwner */\n  dup4\n  dup2\n  and\n  not(sub(exp(0x02, 0xa0), 0x01))\n  dup4\n  and\n  dup2\n  or\n  dup5\n  sstore\n    /* \"@openzeppelin/contracts/access/Ownable.sol\":2573:2613  OwnershipTransferred(oldOwner, newOwner) */\n  mload(0x40)\n    /* \"@openzeppelin/contracts/access/Ownable.sol\":2525:2531  _owner */\n  swap2\n  swap1\n  swap3\n  and\n  swap3\n  dup4\n  swap2\n    /* \"@openzeppelin/contracts/access/Ownable.sol\":2573:2613  OwnershipTransferred(oldOwner, newOwner) */\n  0x8be0079c531659141344cd1fd0a4f28419497f9722a3daafe3b4186f6b6457e0\n  swap2\n    /* \"@openzeppelin/contracts/access/Ownable.sol\":2506:2522  address oldOwner */\n  swap1\n    /* \"@openzeppelin/contracts/access/Ownable.sol\":2573:2613  OwnershipTransferred(oldOwner, newOwner) */\n  log3\n    /* \"@openzeppelin/contracts/access/Ownable.sol\":2496:2620  {... */\n  pop\n    /* \"@openzeppelin/contracts/access/Ownable.sol\":2433:2620  function _transferOwnership(address newOwner) internal virtual {... */\n  pop\n  jump\t// out\n    /* \"@openzeppelin/contracts/access/AccessControl.sol\":6824:6934  function _setupRole(bytes32 role, address account) internal virtual {... */\ntag_17:\n    /* \"@openzeppelin/contracts/access/AccessControl.sol\":6902:6927  _grantRole(role, account) */\n  tag_25\n    /* \"@openzeppelin/contracts/access/AccessControl.sol\":6913:6917  role */\n  dup3\n    /* \"@openzeppelin/contracts/access/AccessControl.sol\":6919:6926  account */\n  dup3\n    /* \"@openzeppelin/contracts/access/AccessControl.sol\":6902:6912  _grantRole */\n  0x0100000000\n  tag_26\n  dup2\n  mul\n    /* \"@openzeppelin/contracts/access/AccessControl.sol\":6902:6927  _grantRole(role, account) */\n  div\n  jump\t// in\ntag_25:\n    /* \"@openzeppelin/contracts/access/AccessControl.sol\":6824:6934  function _setupRole(bytes32 role, address account) internal virtual {... */\n  pop\n  pop\n  jump\t// out\n    /* \"@openzeppelin/contracts/access/AccessControl.sol\":7059:7306  function _setRoleAdmin(bytes32 role, bytes32 adminRole) internal virtual {... */\ntag_20:\n    /* \"@openzeppelin/contracts/access/AccessControl.sol\":7142:7167  bytes32 previousAdminRole */\n  0x00\n    /* \"@openzeppelin/contracts/access/AccessControl.sol\":7170:7188  getRoleAdmin(role) */\n  tag_28\n    /* \"@openzeppelin/contracts/access/AccessControl.sol\":7183:7187  role */\n  dup4\n    /* \"@openzeppelin/contracts/access/AccessControl.sol\":7170:7182  getRoleAdmin */\n  0x0100000000\n  tag_29\n  dup2\n  mul\n    /* \"@openzeppelin/contracts/access/AccessControl.sol\":7170:7188  getRoleAdmin(role) */\n  div\n  jump\t// in\ntag_28:\n    /* \"@openzeppelin/contracts/access/AccessControl.sol\":7198:7210  _roles[role] */\n  0x00\n  dup5\n  dup2\n  mstore\n    /* \"@openzeppelin/contracts/access/AccessControl.sol\":7198:7204  _roles */\n  0x01\n    /* \"@openzeppelin/contracts/access/AccessControl.sol\":7198:7210  _roles[role] */\n  0x20\n  dup2\n  swap1\n  mstore\n  0x40\n  dup1\n  dup4\n  keccak256\n    /* \"@openzeppelin/contracts/access/AccessControl.sol\":7198:7220  _roles[role].adminRole */\n  swap1\n  swap2\n  add\n    /* \"@openzeppelin/contracts/access/AccessControl.sol\":7198:7232  _roles[role].adminRole = adminRole */\n  dup6\n  swap1\n  sstore\n    /* \"@openzeppelin/contracts/access/AccessControl.sol\":7247:7299  RoleAdminChanged(role, previousAdminRole, adminRole) */\n  mload\n    /* \"@openzeppelin/contracts/access/AccessControl.sol\":7142:7188  bytes32 previousAdminRole = getRoleAdmin(role) */\n  swap2\n  swap3\n  pop\n    /* \"@openzeppelin/contracts/access/AccessControl.sol\":7223:7232  adminRole */\n  dup4\n  swap2\n    /* \"@openzeppelin/contracts/access/AccessControl.sol\":7142:7188  bytes32 previousAdminRole = getRoleAdmin(role) */\n  dup4\n  swap2\n    /* \"@openzeppelin/contracts/access/AccessControl.sol\":7205:7209  role */\n  dup7\n  swap2\n    /* \"@openzeppelin/contracts/access/AccessControl.sol\":7247:7299  RoleAdminChanged(role, previousAdminRole, adminRole) */\n  0xbd79b86ffe0ab8e8776151514217cd7cacd52c909f66475c3af44e129f0b00ff\n  swap2\n    /* \"@openzeppelin/contracts/access/AccessControl.sol\":7198:7210  _roles[role] */\n  swap1\n    /* \"@openzeppelin/contracts/access/AccessControl.sol\":7247:7299  RoleAdminChanged(role, previousAdminRole, adminRole) */\n  log4\n    /* \"@openzeppelin/contracts/access/AccessControl.sol\":7132:7306  {... */\n  pop\n    /* \"@openzeppelin/contracts/access/AccessControl.sol\":7059:7306  function _setRoleAdmin(bytes32 role, bytes32 adminRole) internal virtual {... */\n  pop\n  pop\n  jump\t// out\n    /* \"@openzeppelin/contracts/access/AccessControl.sol\":7474:7707  function _grantRole(bytes32 role, address account) internal virtual {... */\ntag_26:\n    /* \"@openzeppelin/contracts/access/AccessControl.sol\":7557:7579  hasRole(role, account) */\n  tag_31\n    /* \"@openzeppelin/contracts/access/AccessControl.sol\":7565:7569  role */\n  dup3\n    /* \"@openzeppelin/contracts/access/AccessControl.sol\":7571:7578  account */\n  dup3\n    /* \"@openzeppelin/contracts/access/AccessControl.sol\":7557:7564  hasRole */\n  0x0100000000\n  tag_32\n  dup2\n  mul\n    /* \"@openzeppelin/contracts/access/AccessControl.sol\":7557:7579  hasRole(role, account) */\n  div\n  jump\t// in\ntag_31:\n    /* \"@openzeppelin/contracts/access/AccessControl.sol\":7552:7701  if (!hasRole(role, account)) {... */\n  tag_25\n  jumpi\n    /* \"@openzeppelin/contracts/access/AccessControl.sol\":7595:7607  _roles[role] */\n  0x00\n  dup3\n  dup2\n  mstore\n    /* \"@openzeppelin/contracts/access/AccessControl.sol\":7627:7631  true */\n  0x01\n    /* \"@openzeppelin/contracts/access/AccessControl.sol\":7595:7607  _roles[role] */\n  0x20\n  dup2\n  dup2\n  mstore\n  0x40\n  dup1\n  dup5\n  keccak256\n  sub(exp(0x02, 0xa0), 0x01)\n    /* \"@openzeppelin/contracts/access/AccessControl.sol\":7595:7624  _roles[role].members[account] */\n  dup7\n  and\n  dup6\n  mstore\n  swap1\n  swap2\n  mstore\n  swap1\n  swap2\n  keccak256\n    /* \"@openzeppelin/contracts/access/AccessControl.sol\":7595:7631  _roles[role].members[account] = true */\n  dup1\n  sload\n  not(0xff)\n  and\n  swap1\n  swap2\n  or\n  swap1\n  sstore\n    /* \"@openzeppelin/contracts/access/AccessControl.sol\":7677:7689  _msgSender() */\n  tag_34\n    /* \"@openzeppelin/contracts/access/AccessControl.sol\":7677:7687  _msgSender */\n  0x0100000000\n  tag_13\n  dup2\n  mul\n    /* \"@openzeppelin/contracts/access/AccessControl.sol\":7677:7689  _msgSender() */\n  div\n  jump\t// in\ntag_34:\n  sub(exp(0x02, 0xa0), 0x01)\n    /* \"@openzeppelin/contracts/access/AccessControl.sol\":7650:7690  RoleGranted(role, account, _msgSender()) */\n  and\n    /* \"@openzeppelin/contracts/access/AccessControl.sol\":7668:7675  account */\n  dup2\n  sub(exp(0x02, 0xa0), 0x01)\n    /* \"@openzeppelin/contracts/access/AccessControl.sol\":7650:7690  RoleGranted(role, account, _msgSender()) */\n  and\n    /* \"@openzeppelin/contracts/access/AccessControl.sol\":7662:7666  role */\n  dup4\n    /* \"@openzeppelin/contracts/access/AccessControl.sol\":7650:7690  RoleGranted(role, account, _msgSender()) */\n  0x2f8788117e7eff1d82e926ec794901d17c78024a50270940304540a733656f0d\n  mload(0x40)\n  mload(0x40)\n  dup1\n  swap2\n  sub\n  swap1\n  log4\n    /* \"@openzeppelin/contracts/access/AccessControl.sol\":7474:7707  function _grantRole(bytes32 role, address account) internal virtual {... */\n  pop\n  pop\n  jump\t// out\n    /* \"@openzeppelin/contracts/access/AccessControl.sol\":4391:4520  function getRoleAdmin(bytes32 role) public view virtual override returns (bytes32) {... */\ntag_29:\n    /* \"@openzeppelin/contracts/access/AccessControl.sol\":4465:4472  bytes32 */\n  0x00\n    /* \"@openzeppelin/contracts/access/AccessControl.sol\":4491:4503  _roles[role] */\n  swap1\n  dup2\n  mstore\n    /* \"@openzeppelin/contracts/access/AccessControl.sol\":4491:4497  _roles */\n  0x01\n    /* \"@openzeppelin/contracts/access/AccessControl.sol\":4491:4503  _roles[role] */\n  0x20\n  dup2\n  swap1\n  mstore\n  0x40\n  swap1\n  swap2\n  keccak256\n    /* \"@openzeppelin/contracts/access/AccessControl.sol\":4491:4513  _roles[role].adminRole */\n  add\n  sload\n  swap1\n    /* \"@openzeppelin/contracts/access/AccessControl.sol\":4391:4520  function getRoleAdmin(bytes32 role) public view virtual override returns (bytes32) {... */\n  jump\t// out\n    /* \"@openzeppelin/contracts/access/AccessControl.sol\":2895:3040  function hasRole(bytes32 role, address account) public view virtual override returns (bool) {... */\ntag_32:\n    /* \"@openzeppelin/contracts/access/AccessControl.sol\":2981:2985  bool */\n  0x00\n    /* \"@openzeppelin/contracts/access/AccessControl.sol\":3004:3016  _roles[role] */\n  swap2\n  dup3\n  mstore\n    /* \"@openzeppelin/contracts/access/AccessControl.sol\":3004:3010  _roles */\n  0x01\n    /* \"@openzeppelin/contracts/access/AccessControl.sol\":3004:3016  _roles[role] */\n  0x20\n  swap1\n  dup2\n  mstore\n  0x40\n  dup1\n  dup5\n  keccak256\n  sub(exp(0x02, 0xa0), 0x01)\n    /* \"@openzeppelin/contracts/access/AccessControl.sol\":3004:3033  _roles[role].members[account] */\n  swap4\n  swap1\n  swap4\n  and\n  dup5\n  mstore\n  swap2\n  swap1\n  mstore\n  swap1\n  keccak256\n  sload\n  0xff\n  and\n  swap1\n    /* \"@openzeppelin/contracts/access/AccessControl.sol\":2895:3040  function hasRole(bytes32 role, address account) public view virtual override returns (bool) {... */\n  jump\t// out\n    /* \"votes.sol\":170:6432  contract projectVotes is Ownable,AccessControl {... */\ntag_2:\n  dup3\n  dup1\n  sload\n  tag_37\n  swap1\n  tag_38\n  jump\t// in\ntag_37:\n  swap1\n  0x00\n  mstore\n  keccak256(0x00, 0x20)\n  swap1\n  0x1f\n  add\n  0x20\n  swap1\n  div\n  dup2\n  add\n  swap3\n  dup3\n  tag_40\n  jumpi\n  0x00\n  dup6\n  sstore\n  jump(tag_43)\ntag_40:\n  dup3\n  0x1f\n  lt\n  tag_41\n  jumpi\n  dup1\n  mload\n  not(0xff)\n  and\n  dup4\n  dup1\n  add\n  or\n  dup6\n  sstore\n  jump(tag_43)\ntag_41:\n  dup3\n  dup1\n  add\n  0x01\n  add\n  dup6\n  sstore\n  dup3\n  iszero\n  tag_43\n  jumpi\n  swap2\n  dup3\n  add\ntag_42:\n  dup3\n  dup2\n  gt\n  iszero\n  tag_43\n  jumpi\n  dup3\n  mload\n  dup3\n  sstore\n  swap2\n  0x20\n  add\n  swap2\n  swap1\n  0x01\n  add\n  swap1\n  jump(tag_42)\ntag_43:\n  pop\n  tag_44\n  swap3\n  swap2\n  pop\n  tag_45\n  jump\t// in\ntag_44:\n  pop\n  swap1\n  jump\t// out\ntag_45:\ntag_46:\n  dup1\n  dup3\n  gt\n  iszero\n  tag_44\n  jumpi\n  0x00\n  dup2\n  sstore\n  0x01\n  add\n  jump(tag_46)\n    /* \"#utility.yul\":14:451   */\ntag_38:\n    /* \"#utility.yul\":99:100   */\n  0x02\n    /* \"#utility.yul\":89:101   */\n  dup2\n  div\n    /* \"#utility.yul\":146:147   */\n  0x01\n    /* \"#utility.yul\":136:148   */\n  dup3\n  and\n  dup1\n    /* \"#utility.yul\":157:218   */\n  tag_50\n  jumpi\n    /* \"#utility.yul\":211:215   */\n  0x7f\n    /* \"#utility.yul\":203:209   */\n  dup3\n    /* \"#utility.yul\":199:216   */\n  and\n    /* \"#utility.yul\":189:216   */\n  swap2\n  pop\n    /* \"#utility.yul\":157:218   */\ntag_50:\n    /* \"#utility.yul\":264:266   */\n  0x20\n    /* \"#utility.yul\":256:262   */\n  dup3\n    /* \"#utility.yul\":253:267   */\n  lt\n    /* \"#utility.yul\":233:251   */\n  dup2\n    /* \"#utility.yul\":230:268   */\n  eq\n    /* \"#utility.yul\":227:445   */\n  iszero\n  tag_51\n  jumpi\n    /* \"#utility.yul\":301:378   */\n  0x4e487b7100000000000000000000000000000000000000000000000000000000\n    /* \"#utility.yul\":298:299   */\n  0x00\n    /* \"#utility.yul\":291:379   */\n  mstore\n    /* \"#utility.yul\":402:406   */\n  0x22\n    /* \"#utility.yul\":399:400   */\n  0x04\n    /* \"#utility.yul\":392:407   */\n  mstore\n    /* \"#utility.yul\":430:434   */\n  0x24\n    /* \"#utility.yul\":427:428   */\n  0x00\n    /* \"#utility.yul\":420:435   */\n  revert\n    /* \"#utility.yul\":227:445   */\ntag_51:\n  pop\n    /* \"#utility.yul\":14:451   */\n  swap2\n  swap1\n  pop\n  jump\t// out\ntag_48:\n    /* \"votes.sol\":170:6432  contract projectVotes is Ownable,AccessControl {... */\n  dataSize(sub_0)\n  dup1\n  dataOffset(sub_0)\n  0x00\n  codecopy\n  0x00\n  return\nstop\n\nsub_0: assembly {\n        /* \"votes.sol\":170:6432  contract projectVotes is Ownable,AccessControl {... */\n      mstore(0x40, 0x80)\n      callvalue\n      dup1\n      iszero\n      tag_1\n      jumpi\n      0x00\n      dup1\n      revert\n    tag_1:\n      pop\n      jumpi(tag_2, lt(calldatasize, 0x04))\n      calldataload(0x00)\n      0x0100000000000000000000000000000000000000000000000000000000\n      swap1\n      div\n      dup1\n      0xa217fddf\n      gt\n      tag_29\n      jumpi\n      dup1\n      0xc7876434\n      gt\n      tag_30\n      jumpi\n      dup1\n      0xf222b579\n      gt\n      tag_31\n      jumpi\n      dup1\n      0xf222b579\n      eq\n      tag_25\n      jumpi\n      dup1\n      0xf2fde38b\n      eq\n      tag_26\n      jumpi\n      dup1\n      0xfa0c3ab8\n      eq\n      tag_27\n      jumpi\n      dup1\n      0xffd7e4e7\n      eq\n      tag_28\n      jumpi\n      0x00\n      dup1\n      revert\n    tag_31:\n      dup1\n      0xc7876434\n      eq\n      tag_22\n      jumpi\n      dup1\n      0xd391014b\n      eq\n      tag_23\n      jumpi\n      dup1\n      0xd547741f\n      eq\n      tag_24\n      jumpi\n      0x00\n      dup1\n      revert\n    tag_30:\n      dup1\n      0xa217fddf\n      eq\n      tag_16\n      jumpi\n      dup1\n      0xae60bb23\n      eq\n      tag_17\n      jumpi\n      dup1\n      0xb1c78ebc\n      eq\n      tag_18\n      jumpi\n      dup1\n      0xb49cd0f7\n      eq\n      tag_40\n      jumpi\n      dup1\n      0xc360a03b\n      eq\n      tag_20\n      jumpi\n      dup1\n      0xc363091c\n      eq\n      tag_21\n      jumpi\n      0x00\n      dup1\n      revert\n    tag_29:\n      dup1\n      0x36568abe\n      gt\n      tag_32\n      jumpi\n      dup1\n      0x715018a6\n      gt\n      tag_33\n      jumpi\n      dup1\n      0x715018a6\n      eq\n      tag_12\n      jumpi\n      dup1\n      0x8356e8e1\n      eq\n      tag_13\n      jumpi\n      dup1\n      0x8da5cb5b\n      eq\n      tag_14\n      jumpi\n      dup1\n      0x91d14854\n      eq\n      tag_15\n      jumpi\n      0x00\n      dup1\n      revert\n    tag_33:\n      dup1\n      0x36568abe\n      eq\n      tag_9\n      jumpi\n      dup1\n      0x5792febf\n      eq\n      tag_10\n      jumpi\n      dup1\n      0x61c78cce\n      eq\n      tag_11\n      jumpi\n      0x00\n      dup1\n      revert\n    tag_32:\n      dup1\n      0x01ffc9a7\n      eq\n      tag_3\n      jumpi\n      dup1\n      0x21606831\n      eq\n      tag_4\n      jumpi\n      dup1\n      0x226839ba\n      eq\n      tag_5\n      jumpi\n      dup1\n      0x248a9ca3\n      eq\n      tag_6\n      jumpi\n      dup1\n      0x2b553fb4\n      eq\n      tag_7\n      jumpi\n      dup1\n      0x2f2ff15d\n      eq\n      tag_8\n      jumpi\n    tag_2:\n      0x00\n      dup1\n      revert\n        /* \"@openzeppelin/contracts/access/AccessControl.sol\":2606:2808  function supportsInterface(bytes4 interfaceId) public view virtual override returns (bool) {... */\n    tag_3:\n      tag_34\n      tag_35\n      calldatasize\n      0x04\n      tag_36\n      jump\t// in\n    tag_35:\n      tag_37\n      jump\t// in\n    tag_34:\n      mload(0x40)\n        /* \"#utility.yul\":2822:2836   */\n      swap1\n      iszero\n        /* \"#utility.yul\":2815:2837   */\n      iszero\n        /* \"#utility.yul\":2797:2838   */\n      dup2\n      mstore\n        /* \"#utility.yul\":2785:2787   */\n      0x20\n        /* \"#utility.yul\":2770:2788   */\n      add\n        /* \"@openzeppelin/contracts/access/AccessControl.sol\":2606:2808  function supportsInterface(bytes4 interfaceId) public view virtual override returns (bool) {... */\n    tag_38:\n      mload(0x40)\n      dup1\n      swap2\n      sub\n      swap1\n      return\n        /* \"votes.sol\":3084:3694  function votar (uint _candidato) public {... */\n    tag_4:\n      tag_40\n      tag_41\n      calldatasize\n      0x04\n      tag_50\n      jump\t// in\n    tag_41:\n      tag_43\n      jump\t// in\n    tag_40:\n      stop\n        /* \"votes.sol\":2794:2999  function derechoVoto() public view returns(string memory){... */\n    tag_5:\n      tag_44\n      tag_45\n      jump\t// in\n    tag_44:\n      mload(0x40)\n      tag_38\n      swap2\n      swap1\n      tag_47\n      jump\t// in\n        /* \"@openzeppelin/contracts/access/AccessControl.sol\":4391:4520  function getRoleAdmin(bytes32 role) public view virtual override returns (bytes32) {... */\n    tag_6:\n      tag_48\n      tag_49\n      calldatasize\n      0x04\n      tag_50\n      jump\t// in\n    tag_49:\n        /* \"@openzeppelin/contracts/access/AccessControl.sol\":4465:4472  bytes32 */\n      0x00\n        /* \"@openzeppelin/contracts/access/AccessControl.sol\":4491:4503  _roles[role] */\n      swap1\n      dup2\n      mstore\n        /* \"@openzeppelin/contracts/access/AccessControl.sol\":4491:4497  _roles */\n      0x01\n        /* \"@openzeppelin/contracts/access/AccessControl.sol\":4491:4503  _roles[role] */\n      0x20\n      dup2\n      swap1\n      mstore\n      0x40\n      swap1\n      swap2\n      keccak256\n        /* \"@openzeppelin/contracts/access/AccessControl.sol\":4491:4513  _roles[role].adminRole */\n      add\n      sload\n      swap1\n        /* \"@openzeppelin/contracts/access/AccessControl.sol\":4391:4520  function getRoleAdmin(bytes32 role) public view virtual override returns (bytes32) {... */\n      jump\n    tag_48:\n      mload(0x40)\n        /* \"#utility.yul\":2995:3020   */\n      swap1\n      dup2\n      mstore\n        /* \"#utility.yul\":2983:2985   */\n      0x20\n        /* \"#utility.yul\":2968:2986   */\n      add\n        /* \"@openzeppelin/contracts/access/AccessControl.sol\":4391:4520  function getRoleAdmin(bytes32 role) public view virtual override returns (bytes32) {... */\n      tag_38\n        /* \"#utility.yul\":2849:3026   */\n      jump\n        /* \"votes.sol\":2555:2635  function duenoChecar() public onlyOwner {... */\n    tag_7:\n      tag_40\n      tag_55\n      jump\t// in\n        /* \"@openzeppelin/contracts/access/AccessControl.sol\":4816:4961  function grantRole(bytes32 role, address account) public virtual override onlyRole(getRoleAdmin(role)) {... */\n    tag_8:\n      tag_40\n      tag_57\n      calldatasize\n      0x04\n      tag_58\n      jump\t// in\n    tag_57:\n      tag_59\n      jump\t// in\n        /* \"@openzeppelin/contracts/access/AccessControl.sol\":5925:6139  function renounceRole(bytes32 role, address account) public virtual override {... */\n    tag_9:\n      tag_40\n      tag_61\n      calldatasize\n      0x04\n      tag_58\n      jump\t// in\n    tag_61:\n      tag_62\n      jump\t// in\n        /* \"votes.sol\":4350:5529  function candidatoGanador() public view returns (uint candidatoGanador_)... */\n    tag_10:\n      tag_48\n      tag_64\n      jump\t// in\n        /* \"votes.sol\":1821:2009  Candidato public candidato2 = Candidato({... */\n    tag_11:\n      tag_67\n      tag_68\n      jump\t// in\n    tag_67:\n      mload(0x40)\n      tag_38\n      swap5\n      swap4\n      swap3\n      swap2\n      swap1\n      tag_70\n      jump\t// in\n        /* \"@openzeppelin/contracts/access/Ownable.sol\":1831:1932  function renounceOwnership() public virtual onlyOwner {... */\n    tag_12:\n      tag_40\n      tag_72\n      jump\t// in\n        /* \"votes.sol\":223:289  bytes32 public constant ROLE_VOLTANTE = keccak256(\"ROLE_VOLTANTE\") */\n    tag_13:\n      tag_48\n      0x00\n      dup1\n      mload\n      0x20\n      data_198bebe9962b5ee2dce0a2dd3eab4c01cd873d2542d3fc48a6e161e1a0e8d753\n      dup4\n      codecopy\n      dup2\n      mload\n      swap2\n      mstore\n      dup2\n      jump\n        /* \"@openzeppelin/contracts/access/Ownable.sol\":1201:1286  function owner() public view virtual returns (address) {... */\n    tag_14:\n        /* \"@openzeppelin/contracts/access/Ownable.sol\":1247:1254  address */\n      0x00\n        /* \"@openzeppelin/contracts/access/Ownable.sol\":1273:1279  _owner */\n      sload\n      sub(exp(0x02, 0xa0), 0x01)\n      and\n        /* \"@openzeppelin/contracts/access/Ownable.sol\":1201:1286  function owner() public view virtual returns (address) {... */\n    tag_76:\n      mload(0x40)\n      sub(exp(0x02, 0xa0), 0x01)\n        /* \"#utility.yul\":2590:2645   */\n      swap1\n      swap2\n      and\n        /* \"#utility.yul\":2572:2646   */\n      dup2\n      mstore\n        /* \"#utility.yul\":2560:2562   */\n      0x20\n        /* \"#utility.yul\":2545:2563   */\n      add\n        /* \"@openzeppelin/contracts/access/Ownable.sol\":1201:1286  function owner() public view virtual returns (address) {... */\n      tag_38\n        /* \"#utility.yul\":2426:2652   */\n      jump\n        /* \"@openzeppelin/contracts/access/AccessControl.sol\":2895:3040  function hasRole(bytes32 role, address account) public view virtual override returns (bool) {... */\n    tag_15:\n      tag_34\n      tag_81\n      calldatasize\n      0x04\n      tag_58\n      jump\t// in\n    tag_81:\n      tag_82\n      jump\t// in\n        /* \"@openzeppelin/contracts/access/AccessControl.sol\":2027:2076  bytes32 public constant DEFAULT_ADMIN_ROLE = 0x00 */\n    tag_16:\n      tag_48\n        /* \"@openzeppelin/contracts/access/AccessControl.sol\":2072:2076  0x00 */\n      0x00\n        /* \"@openzeppelin/contracts/access/AccessControl.sol\":2027:2076  bytes32 public constant DEFAULT_ADMIN_ROLE = 0x00 */\n      dup2\n      jump\n        /* \"votes.sol\":603:638  string public votoMalo = \"No Voto!\" */\n    tag_17:\n      tag_44\n      tag_88\n      jump\t// in\n        /* \"votes.sol\":561:597  string public votoBueno = \"Se Voto!\" */\n    tag_18:\n      tag_44\n      tag_91\n      jump\t// in\n        /* \"votes.sol\":6013:6428  function addressGanador() external view returns (address addressGanador_){ ... */\n    tag_20:\n      tag_76\n      tag_96\n      jump\t// in\n        /* \"votes.sol\":2645:2788  function permisoVotar() public view returns(bool) {... */\n    tag_21:\n      tag_34\n      tag_99\n      jump\t// in\n        /* \"votes.sol\":906:1134  function voto() public view returns(bool) {... */\n    tag_22:\n      tag_34\n      tag_102\n      jump\t// in\n        /* \"votes.sol\":365:425  bytes32 public constant ROLE_ADMIN = keccak256(\"ROLE_ADMIN\") */\n    tag_23:\n      tag_48\n        /* \"votes.sol\":402:425  keccak256(\"ROLE_ADMIN\") */\n      0x2172861495e7b85edac73e3cd5fbb42dd675baadf627720e687bcfdaca025096\n        /* \"votes.sol\":365:425  bytes32 public constant ROLE_ADMIN = keccak256(\"ROLE_ADMIN\") */\n      dup2\n      jump\n        /* \"@openzeppelin/contracts/access/AccessControl.sol\":5241:5388  function revokeRole(bytes32 role, address account) public virtual override onlyRole(getRoleAdmin(role)) {... */\n    tag_24:\n      tag_40\n      tag_108\n      calldatasize\n      0x04\n      tag_58\n      jump\t// in\n    tag_108:\n      tag_109\n      jump\t// in\n        /* \"votes.sol\":2017:2206  Candidato public candidato3 = Candidato({... */\n    tag_25:\n      tag_67\n      tag_111\n      jump\t// in\n        /* \"@openzeppelin/contracts/access/Ownable.sol\":2081:2279  function transferOwnership(address newOwner) public virtual onlyOwner {... */\n    tag_26:\n      tag_40\n      tag_114\n      calldatasize\n      0x04\n      tag_115\n      jump\t// in\n    tag_114:\n      tag_116\n      jump\t// in\n        /* \"votes.sol\":1623:1813  Candidato public candidato1 = Candidato({... */\n    tag_27:\n      tag_67\n      tag_118\n      jump\t// in\n        /* \"votes.sol\":5536:6005  function nombreGanador() external view... */\n    tag_28:\n      tag_44\n      tag_121\n      jump\t// in\n        /* \"@openzeppelin/contracts/access/AccessControl.sol\":2606:2808  function supportsInterface(bytes4 interfaceId) public view virtual override returns (bool) {... */\n    tag_37:\n        /* \"@openzeppelin/contracts/access/AccessControl.sol\":2691:2695  bool */\n      0x00\n      not(0xffffffffffffffffffffffffffffffffffffffffffffffffffffffff)\n        /* \"@openzeppelin/contracts/access/AccessControl.sol\":2714:2761  interfaceId == type(IAccessControl).interfaceId */\n      dup3\n      and\n        /* \"@openzeppelin/contracts/access/AccessControl.sol\":2729:2761  type(IAccessControl).interfaceId */\n      0x7965db0b00000000000000000000000000000000000000000000000000000000\n        /* \"@openzeppelin/contracts/access/AccessControl.sol\":2714:2761  interfaceId == type(IAccessControl).interfaceId */\n      eq\n      dup1\n        /* \"@openzeppelin/contracts/access/AccessControl.sol\":2714:2801  interfaceId == type(IAccessControl).interfaceId || super.supportsInterface(interfaceId) */\n      tag_125\n      jumpi\n      pop\n        /* \"@openzeppelin/contracts/utils/introspection/ERC165.sol\":952:977  type(IERC165).interfaceId */\n      0x01ffc9a700000000000000000000000000000000000000000000000000000000\n      not(0xffffffffffffffffffffffffffffffffffffffffffffffffffffffff)\n        /* \"@openzeppelin/contracts/utils/introspection/ERC165.sol\":937:977  interfaceId == type(IERC165).interfaceId */\n      dup4\n      and\n      eq\n        /* \"@openzeppelin/contracts/access/AccessControl.sol\":2765:2801  super.supportsInterface(interfaceId) */\n    tag_125:\n        /* \"@openzeppelin/contracts/access/AccessControl.sol\":2707:2801  return interfaceId == type(IAccessControl).interfaceId || super.supportsInterface(interfaceId) */\n      swap3\n        /* \"@openzeppelin/contracts/access/AccessControl.sol\":2606:2808  function supportsInterface(bytes4 interfaceId) public view virtual override returns (bool) {... */\n      swap2\n      pop\n      pop\n      jump\t// out\n        /* \"votes.sol\":3084:3694  function votar (uint _candidato) public {... */\n    tag_43:\n        /* \"votes.sol\":3151:3161  msg.sender */\n      caller\n        /* \"votes.sol\":3142:3162  votantes[msg.sender] */\n      0x00\n      swap1\n      dup2\n      mstore\n        /* \"votes.sol\":3142:3150  votantes */\n      0x05\n        /* \"votes.sol\":3142:3162  votantes[msg.sender] */\n      0x20\n      mstore\n      0x40\n      swap1\n      keccak256\n        /* \"votes.sol\":3142:3173  votantes[msg.sender].puedeVotar */\n      sload\n      0x0100\n      swap1\n      div\n      0xff\n      and\n        /* \"votes.sol\":3134:3193  require(votantes[msg.sender].puedeVotar, \"No puedes votar\") */\n      tag_128\n      jumpi\n      mload(0x40)\n      mul(0x461bcd, exp(0x02, 0xe5))\n      dup2\n      mstore\n        /* \"#utility.yul\":5681:5683   */\n      0x20\n        /* \"votes.sol\":3134:3193  require(votantes[msg.sender].puedeVotar, \"No puedes votar\") */\n      0x04\n      dup3\n      add\n        /* \"#utility.yul\":5663:5684   */\n      mstore\n        /* \"#utility.yul\":5720:5722   */\n      0x0f\n        /* \"#utility.yul\":5700:5718   */\n      0x24\n      dup3\n      add\n        /* \"#utility.yul\":5693:5723   */\n      mstore\n        /* \"#utility.yul\":5759:5776   */\n      0x4e6f2070756564657320766f7461720000000000000000000000000000000000\n        /* \"#utility.yul\":5739:5757   */\n      0x44\n      dup3\n      add\n        /* \"#utility.yul\":5732:5777   */\n      mstore\n        /* \"#utility.yul\":5794:5812   */\n      0x64\n      add\n        /* \"votes.sol\":3134:3193  require(votantes[msg.sender].puedeVotar, \"No puedes votar\") */\n    tag_129:\n      mload(0x40)\n      dup1\n      swap2\n      sub\n      swap1\n      revert\n    tag_128:\n        /* \"votes.sol\":3212:3222  msg.sender */\n      caller\n        /* \"votes.sol\":3203:3223  votantes[msg.sender] */\n      0x00\n      swap1\n      dup2\n      mstore\n        /* \"votes.sol\":3203:3211  votantes */\n      0x05\n        /* \"votes.sol\":3203:3223  votantes[msg.sender] */\n      0x20\n      mstore\n      0x40\n      swap1\n      keccak256\n        /* \"votes.sol\":3203:3235  votantes[msg.sender].voto = true */\n      dup1\n      sload\n      not(0xff)\n      and\n        /* \"votes.sol\":3231:3235  true */\n      0x01\n        /* \"votes.sol\":3203:3235  votantes[msg.sender].voto = true */\n      swap1\n      dup2\n      or\n      swap1\n      swap2\n      sstore\n        /* \"votes.sol\":3316:3331  _candidato == 1 */\n      dup2\n      eq\n        /* \"votes.sol\":3312:3437  if (_candidato == 1){... */\n      iszero\n      tag_131\n      jumpi\n        /* \"votes.sol\":3412:3413  1 */\n      0x01\n        /* \"votes.sol\":3384:3394  candidato1 */\n      0x06\n        /* \"votes.sol\":3384:3408  candidato1.contadorVotos */\n      0x03\n      add\n      0x00\n        /* \"votes.sol\":3384:3413  candidato1.contadorVotos += 1 */\n      dup3\n      dup3\n      sload\n      tag_132\n      swap2\n      swap1\n      tag_133\n      jump\t// in\n    tag_132:\n      swap1\n      swap2\n      sstore\n      pop\n      pop\n        /* \"votes.sol\":3312:3437  if (_candidato == 1){... */\n    tag_131:\n        /* \"votes.sol\":3450:3460  _candidato */\n      dup1\n        /* \"votes.sol\":3464:3465  2 */\n      0x02\n        /* \"votes.sol\":3450:3465  _candidato == 2 */\n      eq\n        /* \"votes.sol\":3446:3568  if (_candidato == 2){ ... */\n      iszero\n      tag_134\n      jumpi\n        /* \"votes.sol\":3545:3546  1 */\n      0x01\n        /* \"votes.sol\":3517:3527  candidato2 */\n      0x0a\n        /* \"votes.sol\":3517:3541  candidato2.contadorVotos */\n      0x03\n      add\n      0x00\n        /* \"votes.sol\":3517:3546  candidato2.contadorVotos += 1 */\n      dup3\n      dup3\n      sload\n      tag_135\n      swap2\n      swap1\n      tag_133\n      jump\t// in\n    tag_135:\n      swap1\n      swap2\n      sstore\n      pop\n      pop\n        /* \"votes.sol\":3446:3568  if (_candidato == 2){ ... */\n    tag_134:\n        /* \"votes.sol\":3581:3591  _candidato */\n      dup1\n        /* \"votes.sol\":3595:3596  3 */\n      0x03\n        /* \"votes.sol\":3581:3596  _candidato == 3 */\n      eq\n        /* \"votes.sol\":3577:3687  if (_candidato == 3){... */\n      iszero\n      tag_136\n      jumpi\n        /* \"votes.sol\":3675:3676  1 */\n      0x01\n        /* \"votes.sol\":3647:3657  candidato3 */\n      0x0e\n        /* \"votes.sol\":3647:3671  candidato3.contadorVotos */\n      0x03\n      add\n      0x00\n        /* \"votes.sol\":3647:3676  candidato3.contadorVotos += 1 */\n      dup3\n      dup3\n      sload\n      tag_137\n      swap2\n      swap1\n      tag_133\n      jump\t// in\n    tag_137:\n      swap1\n      swap2\n      sstore\n      pop\n      pop\n        /* \"votes.sol\":3577:3687  if (_candidato == 3){... */\n    tag_136:\n        /* \"votes.sol\":3084:3694  function votar (uint _candidato) public {... */\n      pop\n      jump\t// out\n        /* \"votes.sol\":2794:2999  function derechoVoto() public view returns(string memory){... */\n    tag_45:\n        /* \"votes.sol\":2837:2850  string memory */\n      0x60\n        /* \"votes.sol\":2869:2903  hasRole(ROLE_VOLTANTE, msg.sender) */\n      tag_139\n      0x00\n      dup1\n      mload\n      0x20\n      data_198bebe9962b5ee2dce0a2dd3eab4c01cd873d2542d3fc48a6e161e1a0e8d753\n      dup4\n      codecopy\n      dup2\n      mload\n      swap2\n      mstore\n        /* \"votes.sol\":2892:2902  msg.sender */\n      caller\n        /* \"votes.sol\":2869:2876  hasRole */\n      tag_82\n        /* \"votes.sol\":2869:2903  hasRole(ROLE_VOLTANTE, msg.sender) */\n      jump\t// in\n    tag_139:\n        /* \"votes.sol\":2861:2954  require(hasRole(ROLE_VOLTANTE, msg.sender), \"Solo las voltante puede darte derecho al Voto.\") */\n      tag_140\n      jumpi\n      mload(0x40)\n      mul(0x461bcd, exp(0x02, 0xe5))\n      dup2\n      mstore\n        /* \"#utility.yul\":3819:3821   */\n      0x20\n        /* \"votes.sol\":2861:2954  require(hasRole(ROLE_VOLTANTE, msg.sender), \"Solo las voltante puede darte derecho al Voto.\") */\n      0x04\n      dup3\n      add\n        /* \"#utility.yul\":3801:3822   */\n      mstore\n        /* \"#utility.yul\":3858:3860   */\n      0x2e\n        /* \"#utility.yul\":3838:3856   */\n      0x24\n      dup3\n      add\n        /* \"#utility.yul\":3831:3861   */\n      mstore\n        /* \"#utility.yul\":3897:3931   */\n      0x536f6c6f206c617320766f6c74616e7465207075656465206461727465206465\n        /* \"#utility.yul\":3877:3895   */\n      0x44\n      dup3\n      add\n        /* \"#utility.yul\":3870:3932   */\n      mstore\n        /* \"#utility.yul\":3968:3984   */\n      0x726563686f20616c20566f746f2e000000000000000000000000000000000000\n        /* \"#utility.yul\":3948:3966   */\n      0x64\n      dup3\n      add\n        /* \"#utility.yul\":3941:3985   */\n      mstore\n        /* \"#utility.yul\":4002:4021   */\n      0x84\n      add\n        /* \"votes.sol\":2861:2954  require(hasRole(ROLE_VOLTANTE, msg.sender), \"Solo las voltante puede darte derecho al Voto.\") */\n      tag_129\n        /* \"#utility.yul\":3617:4027   */\n      jump\n        /* \"votes.sol\":2861:2954  require(hasRole(ROLE_VOLTANTE, msg.sender), \"Solo las voltante puede darte derecho al Voto.\") */\n    tag_140:\n      pop\n        /* \"votes.sol\":2964:2992  return \"El votante ya voto.\" */\n      0x40\n      dup1\n      mload\n      dup1\n      dup3\n      add\n      swap1\n      swap2\n      mstore\n      0x13\n      dup2\n      mstore\n      0x456c20766f74616e746520796120766f746f2e00000000000000000000000000\n      0x20\n      dup3\n      add\n      mstore\n      swap1\n        /* \"votes.sol\":2794:2999  function derechoVoto() public view returns(string memory){... */\n      jump\t// out\n        /* \"votes.sol\":2555:2635  function duenoChecar() public onlyOwner {... */\n    tag_55:\n        /* \"@openzeppelin/contracts/access/Ownable.sol\":1094:1107  _checkOwner() */\n      tag_145\n        /* \"@openzeppelin/contracts/access/Ownable.sol\":1094:1105  _checkOwner */\n      tag_146\n        /* \"@openzeppelin/contracts/access/Ownable.sol\":1094:1107  _checkOwner() */\n      jump\t// in\n    tag_145:\n        /* \"votes.sol\":2555:2635  function duenoChecar() public onlyOwner {... */\n      jump\t// out\n        /* \"@openzeppelin/contracts/access/AccessControl.sol\":4816:4961  function grantRole(bytes32 role, address account) public virtual override onlyRole(getRoleAdmin(role)) {... */\n    tag_59:\n        /* \"@openzeppelin/contracts/access/AccessControl.sol\":4465:4472  bytes32 */\n      0x00\n        /* \"@openzeppelin/contracts/access/AccessControl.sol\":4491:4503  _roles[role] */\n      dup3\n      dup2\n      mstore\n        /* \"@openzeppelin/contracts/access/AccessControl.sol\":4491:4497  _roles */\n      0x01\n        /* \"@openzeppelin/contracts/access/AccessControl.sol\":4491:4503  _roles[role] */\n      0x20\n      dup2\n      swap1\n      mstore\n      0x40\n      swap1\n      swap2\n      keccak256\n        /* \"@openzeppelin/contracts/access/AccessControl.sol\":4491:4513  _roles[role].adminRole */\n      add\n      sload\n        /* \"@openzeppelin/contracts/access/AccessControl.sol\":2505:2521  _checkRole(role) */\n      tag_150\n        /* \"@openzeppelin/contracts/access/AccessControl.sol\":2516:2520  role */\n      dup2\n        /* \"@openzeppelin/contracts/access/AccessControl.sol\":2505:2515  _checkRole */\n      tag_151\n        /* \"@openzeppelin/contracts/access/AccessControl.sol\":2505:2521  _checkRole(role) */\n      jump\t// in\n    tag_150:\n        /* \"@openzeppelin/contracts/access/AccessControl.sol\":4929:4954  _grantRole(role, account) */\n      tag_153\n        /* \"@openzeppelin/contracts/access/AccessControl.sol\":4940:4944  role */\n      dup4\n        /* \"@openzeppelin/contracts/access/AccessControl.sol\":4946:4953  account */\n      dup4\n        /* \"@openzeppelin/contracts/access/AccessControl.sol\":4929:4939  _grantRole */\n      tag_154\n        /* \"@openzeppelin/contracts/access/AccessControl.sol\":4929:4954  _grantRole(role, account) */\n      jump\t// in\n    tag_153:\n        /* \"@openzeppelin/contracts/access/AccessControl.sol\":4816:4961  function grantRole(bytes32 role, address account) public virtual override onlyRole(getRoleAdmin(role)) {... */\n      pop\n      pop\n      pop\n      jump\t// out\n        /* \"@openzeppelin/contracts/access/AccessControl.sol\":5925:6139  function renounceRole(bytes32 role, address account) public virtual override {... */\n    tag_62:\n      sub(exp(0x02, 0xa0), 0x01)\n        /* \"@openzeppelin/contracts/access/AccessControl.sol\":6020:6043  account == _msgSender() */\n      dup2\n      and\n        /* \"@openzeppelin/contracts/utils/Context.sol\":719:729  msg.sender */\n      caller\n        /* \"@openzeppelin/contracts/access/AccessControl.sol\":6020:6043  account == _msgSender() */\n      eq\n        /* \"@openzeppelin/contracts/access/AccessControl.sol\":6012:6095  require(account == _msgSender(), \"AccessControl: can only renounce roles for self\") */\n      tag_158\n      jumpi\n      mload(0x40)\n      mul(0x461bcd, exp(0x02, 0xe5))\n      dup2\n      mstore\n        /* \"#utility.yul\":6025:6027   */\n      0x20\n        /* \"@openzeppelin/contracts/access/AccessControl.sol\":6012:6095  require(account == _msgSender(), \"AccessControl: can only renounce roles for self\") */\n      0x04\n      dup3\n      add\n        /* \"#utility.yul\":6007:6028   */\n      mstore\n        /* \"#utility.yul\":6064:6066   */\n      0x2f\n        /* \"#utility.yul\":6044:6062   */\n      0x24\n      dup3\n      add\n        /* \"#utility.yul\":6037:6067   */\n      mstore\n        /* \"#utility.yul\":6103:6137   */\n      0x416363657373436f6e74726f6c3a2063616e206f6e6c792072656e6f756e6365\n        /* \"#utility.yul\":6083:6101   */\n      0x44\n      dup3\n      add\n        /* \"#utility.yul\":6076:6138   */\n      mstore\n        /* \"#utility.yul\":6174:6191   */\n      0x20726f6c657320666f722073656c660000000000000000000000000000000000\n        /* \"#utility.yul\":6154:6172   */\n      0x64\n      dup3\n      add\n        /* \"#utility.yul\":6147:6192   */\n      mstore\n        /* \"#utility.yul\":6209:6228   */\n      0x84\n      add\n        /* \"@openzeppelin/contracts/access/AccessControl.sol\":6012:6095  require(account == _msgSender(), \"AccessControl: can only renounce roles for self\") */\n      tag_129\n        /* \"#utility.yul\":5823:6234   */\n      jump\n        /* \"@openzeppelin/contracts/access/AccessControl.sol\":6012:6095  require(account == _msgSender(), \"AccessControl: can only renounce roles for self\") */\n    tag_158:\n        /* \"@openzeppelin/contracts/access/AccessControl.sol\":6106:6132  _revokeRole(role, account) */\n      tag_161\n        /* \"@openzeppelin/contracts/access/AccessControl.sol\":6118:6122  role */\n      dup3\n        /* \"@openzeppelin/contracts/access/AccessControl.sol\":6124:6131  account */\n      dup3\n        /* \"@openzeppelin/contracts/access/AccessControl.sol\":6106:6117  _revokeRole */\n      tag_162\n        /* \"@openzeppelin/contracts/access/AccessControl.sol\":6106:6132  _revokeRole(role, account) */\n      jump\t// in\n    tag_161:\n        /* \"@openzeppelin/contracts/access/AccessControl.sol\":5925:6139  function renounceRole(bytes32 role, address account) public virtual override {... */\n      pop\n      pop\n      jump\t// out\n        /* \"votes.sol\":4350:5529  function candidatoGanador() public view returns (uint candidatoGanador_)... */\n    tag_64:\n        /* \"votes.sol\":4399:4421  uint candidatoGanador_ */\n      0x00\n      dup1\n      dup1\n        /* \"votes.sol\":4793:5522  for (uint p = 0; p <= 3; p++) {... */\n    tag_164:\n        /* \"votes.sol\":4815:4816  3 */\n      0x03\n        /* \"votes.sol\":4810:4811  p */\n      dup2\n        /* \"votes.sol\":4810:4816  p <= 3 */\n      gt\n        /* \"votes.sol\":4793:5522  for (uint p = 0; p <= 3; p++) {... */\n      tag_165\n      jumpi\n        /* \"votes.sol\":4864:4888  candidato2.contadorVotos */\n      sload(0x0d)\n        /* \"votes.sol\":4837:4861  candidato1.contadorVotos */\n      sload(0x09)\n        /* \"votes.sol\":4837:4888  candidato1.contadorVotos > candidato2.contadorVotos */\n      gt\n        /* \"votes.sol\":4837:4943  candidato1.contadorVotos > candidato2.contadorVotos && candidato1.contadorVotos > candidato3.contadorVotos */\n      dup1\n      iszero\n      tag_167\n      jumpi\n      pop\n        /* \"votes.sol\":4919:4943  candidato3.contadorVotos */\n      sload(0x11)\n        /* \"votes.sol\":4892:4916  candidato1.contadorVotos */\n      sload(0x09)\n        /* \"votes.sol\":4892:4943  candidato1.contadorVotos > candidato3.contadorVotos */\n      gt\n        /* \"votes.sol\":4837:4943  candidato1.contadorVotos > candidato2.contadorVotos && candidato1.contadorVotos > candidato3.contadorVotos */\n    tag_167:\n        /* \"votes.sol\":4833:5053  if (candidato1.contadorVotos > candidato2.contadorVotos && candidato1.contadorVotos > candidato3.contadorVotos){... */\n      iszero\n      tag_168\n      jumpi\n        /* \"votes.sol\":4981:5005  candidato1.contadorVotos */\n      sload(0x09)\n        /* \"votes.sol\":5039:5040  1 */\n      0x01\n      swap4\n      pop\n        /* \"votes.sol\":4981:5005  candidato1.contadorVotos */\n      swap2\n      pop\n        /* \"votes.sol\":4833:5053  if (candidato1.contadorVotos > candidato2.contadorVotos && candidato1.contadorVotos > candidato3.contadorVotos){... */\n    tag_168:\n        /* \"votes.sol\":5093:5117  candidato1.contadorVotos */\n      sload(0x09)\n        /* \"votes.sol\":5066:5090  candidato2.contadorVotos */\n      sload(0x0d)\n        /* \"votes.sol\":5066:5117  candidato2.contadorVotos > candidato1.contadorVotos */\n      gt\n        /* \"votes.sol\":5066:5172  candidato2.contadorVotos > candidato1.contadorVotos && candidato2.contadorVotos > candidato3.contadorVotos */\n      dup1\n      iszero\n      tag_169\n      jumpi\n      pop\n        /* \"votes.sol\":5148:5172  candidato3.contadorVotos */\n      sload(0x11)\n        /* \"votes.sol\":5121:5145  candidato2.contadorVotos */\n      sload(0x0d)\n        /* \"votes.sol\":5121:5172  candidato2.contadorVotos > candidato3.contadorVotos */\n      gt\n        /* \"votes.sol\":5066:5172  candidato2.contadorVotos > candidato1.contadorVotos && candidato2.contadorVotos > candidato3.contadorVotos */\n    tag_169:\n        /* \"votes.sol\":5062:5280  if (candidato2.contadorVotos > candidato1.contadorVotos && candidato2.contadorVotos > candidato3.contadorVotos){... */\n      iszero\n      tag_170\n      jumpi\n        /* \"votes.sol\":5210:5234  candidato2.contadorVotos */\n      sload(0x0d)\n        /* \"votes.sol\":5268:5269  2 */\n      0x02\n      swap4\n      pop\n        /* \"votes.sol\":5210:5234  candidato2.contadorVotos */\n      swap2\n      pop\n        /* \"votes.sol\":5062:5280  if (candidato2.contadorVotos > candidato1.contadorVotos && candidato2.contadorVotos > candidato3.contadorVotos){... */\n    tag_170:\n        /* \"votes.sol\":5320:5344  candidato1.contadorVotos */\n      sload(0x09)\n        /* \"votes.sol\":5293:5317  candidato3.contadorVotos */\n      sload(0x11)\n        /* \"votes.sol\":5293:5344  candidato3.contadorVotos > candidato1.contadorVotos */\n      gt\n        /* \"votes.sol\":5293:5399  candidato3.contadorVotos > candidato1.contadorVotos && candidato3.contadorVotos > candidato2.contadorVotos */\n      dup1\n      iszero\n      tag_171\n      jumpi\n      pop\n        /* \"votes.sol\":5375:5399  candidato2.contadorVotos */\n      sload(0x0d)\n        /* \"votes.sol\":5348:5372  candidato3.contadorVotos */\n      sload(0x11)\n        /* \"votes.sol\":5348:5399  candidato3.contadorVotos > candidato2.contadorVotos */\n      gt\n        /* \"votes.sol\":5293:5399  candidato3.contadorVotos > candidato1.contadorVotos && candidato3.contadorVotos > candidato2.contadorVotos */\n    tag_171:\n        /* \"votes.sol\":5289:5507  if (candidato3.contadorVotos > candidato1.contadorVotos && candidato3.contadorVotos > candidato2.contadorVotos){... */\n      iszero\n      tag_172\n      jumpi\n        /* \"votes.sol\":5437:5461  candidato3.contadorVotos */\n      sload(0x11)\n      0x03\n      swap4\n      pop\n      swap2\n      pop\n        /* \"votes.sol\":5289:5507  if (candidato3.contadorVotos > candidato1.contadorVotos && candidato3.contadorVotos > candidato2.contadorVotos){... */\n    tag_172:\n        /* \"votes.sol\":4818:4821  p++ */\n      dup1\n      tag_173\n      dup2\n      tag_174\n      jump\t// in\n    tag_173:\n      swap2\n      pop\n      pop\n        /* \"votes.sol\":4793:5522  for (uint p = 0; p <= 3; p++) {... */\n      jump(tag_164)\n    tag_165:\n      pop\n        /* \"votes.sol\":4427:5529  {... */\n      pop\n        /* \"votes.sol\":4350:5529  function candidatoGanador() public view returns (uint candidatoGanador_)... */\n      swap1\n      jump\t// out\n        /* \"votes.sol\":1821:2009  Candidato public candidato2 = Candidato({... */\n    tag_68:\n      0x0a\n      dup1\n      sload\n      sload(0x0b)\n      0x0c\n      dup1\n      sload\n      swap3\n      swap4\n      sub(exp(0x02, 0xa0), 0x01)\n      swap1\n      swap3\n      and\n      swap3\n      tag_175\n      swap1\n      tag_176\n      jump\t// in\n    tag_175:\n      dup1\n      0x1f\n      add\n      0x20\n      dup1\n      swap2\n      div\n      mul\n      0x20\n      add\n      mload(0x40)\n      swap1\n      dup2\n      add\n      0x40\n      mstore\n      dup1\n      swap3\n      swap2\n      swap1\n      dup2\n      dup2\n      mstore\n      0x20\n      add\n      dup3\n      dup1\n      sload\n      tag_177\n      swap1\n      tag_176\n      jump\t// in\n    tag_177:\n      dup1\n      iszero\n      tag_178\n      jumpi\n      dup1\n      0x1f\n      lt\n      tag_179\n      jumpi\n      0x0100\n      dup1\n      dup4\n      sload\n      div\n      mul\n      dup4\n      mstore\n      swap2\n      0x20\n      add\n      swap2\n      jump(tag_178)\n    tag_179:\n      dup3\n      add\n      swap2\n      swap1\n      0x00\n      mstore\n      keccak256(0x00, 0x20)\n      swap1\n    tag_180:\n      dup2\n      sload\n      dup2\n      mstore\n      swap1\n      0x01\n      add\n      swap1\n      0x20\n      add\n      dup1\n      dup4\n      gt\n      tag_180\n      jumpi\n      dup3\n      swap1\n      sub\n      0x1f\n      and\n      dup3\n      add\n      swap2\n    tag_178:\n      pop\n      pop\n      pop\n      pop\n      pop\n      swap1\n      dup1\n      0x03\n      add\n      sload\n      swap1\n      pop\n      dup5\n      jump\t// out\n        /* \"@openzeppelin/contracts/access/Ownable.sol\":1831:1932  function renounceOwnership() public virtual onlyOwner {... */\n    tag_72:\n        /* \"@openzeppelin/contracts/access/Ownable.sol\":1094:1107  _checkOwner() */\n      tag_182\n        /* \"@openzeppelin/contracts/access/Ownable.sol\":1094:1105  _checkOwner */\n      tag_146\n        /* \"@openzeppelin/contracts/access/Ownable.sol\":1094:1107  _checkOwner() */\n      jump\t// in\n    tag_182:\n        /* \"@openzeppelin/contracts/access/Ownable.sol\":1895:1925  _transferOwnership(address(0)) */\n      tag_145\n        /* \"@openzeppelin/contracts/access/Ownable.sol\":1922:1923  0 */\n      0x00\n        /* \"@openzeppelin/contracts/access/Ownable.sol\":1895:1913  _transferOwnership */\n      tag_185\n        /* \"@openzeppelin/contracts/access/Ownable.sol\":1895:1925  _transferOwnership(address(0)) */\n      jump\t// in\n        /* \"@openzeppelin/contracts/access/AccessControl.sol\":2895:3040  function hasRole(bytes32 role, address account) public view virtual override returns (bool) {... */\n    tag_82:\n        /* \"@openzeppelin/contracts/access/AccessControl.sol\":2981:2985  bool */\n      0x00\n        /* \"@openzeppelin/contracts/access/AccessControl.sol\":3004:3016  _roles[role] */\n      swap2\n      dup3\n      mstore\n        /* \"@openzeppelin/contracts/access/AccessControl.sol\":3004:3010  _roles */\n      0x01\n        /* \"@openzeppelin/contracts/access/AccessControl.sol\":3004:3016  _roles[role] */\n      0x20\n      swap1\n      dup2\n      mstore\n      0x40\n      dup1\n      dup5\n      keccak256\n      sub(exp(0x02, 0xa0), 0x01)\n        /* \"@openzeppelin/contracts/access/AccessControl.sol\":3004:3033  _roles[role].members[account] */\n      swap4\n      swap1\n      swap4\n      and\n      dup5\n      mstore\n      swap2\n      swap1\n      mstore\n      swap1\n      keccak256\n      sload\n      0xff\n      and\n      swap1\n        /* \"@openzeppelin/contracts/access/AccessControl.sol\":2895:3040  function hasRole(bytes32 role, address account) public view virtual override returns (bool) {... */\n      jump\t// out\n        /* \"votes.sol\":603:638  string public votoMalo = \"No Voto!\" */\n    tag_88:\n      0x04\n      dup1\n      sload\n      tag_188\n      swap1\n      tag_176\n      jump\t// in\n    tag_188:\n      dup1\n      0x1f\n      add\n      0x20\n      dup1\n      swap2\n      div\n      mul\n      0x20\n      add\n      mload(0x40)\n      swap1\n      dup2\n      add\n      0x40\n      mstore\n      dup1\n      swap3\n      swap2\n      swap1\n      dup2\n      dup2\n      mstore\n      0x20\n      add\n      dup3\n      dup1\n      sload\n      tag_189\n      swap1\n      tag_176\n      jump\t// in\n    tag_189:\n      dup1\n      iszero\n      tag_190\n      jumpi\n      dup1\n      0x1f\n      lt\n      tag_191\n      jumpi\n      0x0100\n      dup1\n      dup4\n      sload\n      div\n      mul\n      dup4\n      mstore\n      swap2\n      0x20\n      add\n      swap2\n      jump(tag_190)\n    tag_191:\n      dup3\n      add\n      swap2\n      swap1\n      0x00\n      mstore\n      keccak256(0x00, 0x20)\n      swap1\n    tag_192:\n      dup2\n      sload\n      dup2\n      mstore\n      swap1\n      0x01\n      add\n      swap1\n      0x20\n      add\n      dup1\n      dup4\n      gt\n      tag_192\n      jumpi\n      dup3\n      swap1\n      sub\n      0x1f\n      and\n      dup3\n      add\n      swap2\n    tag_190:\n      pop\n      pop\n      pop\n      pop\n      pop\n      dup2\n      jump\t// out\n        /* \"votes.sol\":561:597  string public votoBueno = \"Se Voto!\" */\n    tag_91:\n      0x03\n      dup1\n      sload\n      tag_188\n      swap1\n      tag_176\n      jump\t// in\n        /* \"votes.sol\":6013:6428  function addressGanador() external view returns (address addressGanador_){ ... */\n    tag_96:\n        /* \"votes.sol\":6062:6085  address addressGanador_ */\n      0x00\n        /* \"votes.sol\":6110:6128  candidatoGanador() */\n      tag_200\n        /* \"votes.sol\":6110:6126  candidatoGanador */\n      tag_64\n        /* \"votes.sol\":6110:6128  candidatoGanador() */\n      jump\t// in\n    tag_200:\n        /* \"votes.sol\":6132:6133  1 */\n      0x01\n        /* \"votes.sol\":6110:6133  candidatoGanador() == 1 */\n      eq\n        /* \"votes.sol\":6106:6205  if (candidatoGanador() == 1){... */\n      iszero\n      tag_201\n      jumpi\n      pop\n        /* \"votes.sol\":6166:6193  candidato1.addressCandidato */\n      and(sub(exp(0x02, 0xa0), 0x01), sload(0x07))\n        /* \"votes.sol\":6106:6205  if (candidatoGanador() == 1){... */\n    tag_201:\n        /* \"votes.sol\":6218:6236  candidatoGanador() */\n      tag_202\n        /* \"votes.sol\":6218:6234  candidatoGanador */\n      tag_64\n        /* \"votes.sol\":6218:6236  candidatoGanador() */\n      jump\t// in\n    tag_202:\n        /* \"votes.sol\":6240:6241  2 */\n      0x02\n        /* \"votes.sol\":6218:6241  candidatoGanador() == 2 */\n      eq\n        /* \"votes.sol\":6214:6313  if (candidatoGanador() == 2){... */\n      iszero\n      tag_203\n      jumpi\n      pop\n        /* \"votes.sol\":6274:6301  candidato2.addressCandidato */\n      and(sub(exp(0x02, 0xa0), 0x01), sload(0x0b))\n        /* \"votes.sol\":6214:6313  if (candidatoGanador() == 2){... */\n    tag_203:\n        /* \"votes.sol\":6326:6344  candidatoGanador() */\n      tag_204\n        /* \"votes.sol\":6326:6342  candidatoGanador */\n      tag_64\n        /* \"votes.sol\":6326:6344  candidatoGanador() */\n      jump\t// in\n    tag_204:\n        /* \"votes.sol\":6348:6349  3 */\n      0x03\n        /* \"votes.sol\":6326:6349  candidatoGanador() == 3 */\n      eq\n        /* \"votes.sol\":6322:6421  if (candidatoGanador() == 3){... */\n      iszero\n      tag_205\n      jumpi\n      pop\n        /* \"votes.sol\":6382:6409  candidato3.addressCandidato */\n      and(sub(exp(0x02, 0xa0), 0x01), sload(0x0f))\n        /* \"votes.sol\":6322:6421  if (candidatoGanador() == 3){... */\n    tag_205:\n        /* \"votes.sol\":6013:6428  function addressGanador() external view returns (address addressGanador_){ ... */\n      swap1\n      jump\t// out\n        /* \"votes.sol\":2645:2788  function permisoVotar() public view returns(bool) {... */\n    tag_99:\n        /* \"votes.sol\":2689:2693  bool */\n      0x00\n        /* \"votes.sol\":2713:2747  hasRole(ROLE_VOLTANTE, msg.sender) */\n      tag_207\n      0x00\n      dup1\n      mload\n      0x20\n      data_198bebe9962b5ee2dce0a2dd3eab4c01cd873d2542d3fc48a6e161e1a0e8d753\n      dup4\n      codecopy\n      dup2\n      mload\n      swap2\n      mstore\n        /* \"votes.sol\":2736:2746  msg.sender */\n      caller\n        /* \"votes.sol\":2713:2720  hasRole */\n      tag_82\n        /* \"votes.sol\":2713:2747  hasRole(ROLE_VOLTANTE, msg.sender) */\n      jump\t// in\n    tag_207:\n        /* \"votes.sol\":2705:2760  require(hasRole(ROLE_VOLTANTE, msg.sender), \"No Voto!\") */\n      tag_208\n      jumpi\n      mload(0x40)\n      mul(0x461bcd, exp(0x02, 0xe5))\n      dup2\n      mstore\n        /* \"#utility.yul\":4641:4643   */\n      0x20\n        /* \"votes.sol\":2705:2760  require(hasRole(ROLE_VOLTANTE, msg.sender), \"No Voto!\") */\n      0x04\n      dup3\n      add\n        /* \"#utility.yul\":4623:4644   */\n      mstore\n        /* \"#utility.yul\":4680:4681   */\n      0x08\n        /* \"#utility.yul\":4660:4678   */\n      0x24\n      dup3\n      add\n        /* \"#utility.yul\":4653:4682   */\n      mstore\n        /* \"#utility.yul\":4718:4728   */\n      0x4e6f20566f746f21000000000000000000000000000000000000000000000000\n        /* \"#utility.yul\":4698:4716   */\n      0x44\n      dup3\n      add\n        /* \"#utility.yul\":4691:4729   */\n      mstore\n        /* \"#utility.yul\":4746:4764   */\n      0x64\n      add\n        /* \"votes.sol\":2705:2760  require(hasRole(ROLE_VOLTANTE, msg.sender), \"No Voto!\") */\n      tag_129\n        /* \"#utility.yul\":4439:4770   */\n      jump\n        /* \"votes.sol\":2705:2760  require(hasRole(ROLE_VOLTANTE, msg.sender), \"No Voto!\") */\n    tag_208:\n      pop\n        /* \"votes.sol\":2777:2781  true */\n      0x01\n      swap1\n        /* \"votes.sol\":2645:2788  function permisoVotar() public view returns(bool) {... */\n      jump\t// out\n        /* \"votes.sol\":906:1134  function voto() public view returns(bool) {... */\n    tag_102:\n        /* \"votes.sol\":942:946  bool */\n      0x00\n        /* \"votes.sol\":1053:1087  hasRole(ROLE_VOLTANTE, msg.sender) */\n      tag_212\n      0x00\n      dup1\n      mload\n      0x20\n      data_198bebe9962b5ee2dce0a2dd3eab4c01cd873d2542d3fc48a6e161e1a0e8d753\n      dup4\n      codecopy\n      dup2\n      mload\n      swap2\n      mstore\n        /* \"votes.sol\":1076:1086  msg.sender */\n      caller\n        /* \"votes.sol\":1053:1060  hasRole */\n      tag_82\n        /* \"votes.sol\":1053:1087  hasRole(ROLE_VOLTANTE, msg.sender) */\n      jump\t// in\n    tag_212:\n        /* \"votes.sol\":1045:1106  require(hasRole(ROLE_VOLTANTE, msg.sender), \"Tu puedes voto\") */\n      tag_208\n      jumpi\n      mload(0x40)\n      mul(0x461bcd, exp(0x02, 0xe5))\n      dup2\n      mstore\n        /* \"#utility.yul\":4977:4979   */\n      0x20\n        /* \"votes.sol\":1045:1106  require(hasRole(ROLE_VOLTANTE, msg.sender), \"Tu puedes voto\") */\n      0x04\n      dup3\n      add\n        /* \"#utility.yul\":4959:4980   */\n      mstore\n        /* \"#utility.yul\":5016:5018   */\n      0x0e\n        /* \"#utility.yul\":4996:5014   */\n      0x24\n      dup3\n      add\n        /* \"#utility.yul\":4989:5019   */\n      mstore\n        /* \"#utility.yul\":5055:5071   */\n      0x54752070756564657320766f746f000000000000000000000000000000000000\n        /* \"#utility.yul\":5035:5053   */\n      0x44\n      dup3\n      add\n        /* \"#utility.yul\":5028:5072   */\n      mstore\n        /* \"#utility.yul\":5089:5107   */\n      0x64\n      add\n        /* \"votes.sol\":1045:1106  require(hasRole(ROLE_VOLTANTE, msg.sender), \"Tu puedes voto\") */\n      tag_129\n        /* \"#utility.yul\":4775:5113   */\n      jump\n        /* \"@openzeppelin/contracts/access/AccessControl.sol\":5241:5388  function revokeRole(bytes32 role, address account) public virtual override onlyRole(getRoleAdmin(role)) {... */\n    tag_109:\n        /* \"@openzeppelin/contracts/access/AccessControl.sol\":4465:4472  bytes32 */\n      0x00\n        /* \"@openzeppelin/contracts/access/AccessControl.sol\":4491:4503  _roles[role] */\n      dup3\n      dup2\n      mstore\n        /* \"@openzeppelin/contracts/access/AccessControl.sol\":4491:4497  _roles */\n      0x01\n        /* \"@openzeppelin/contracts/access/AccessControl.sol\":4491:4503  _roles[role] */\n      0x20\n      dup2\n      swap1\n      mstore\n      0x40\n      swap1\n      swap2\n      keccak256\n        /* \"@openzeppelin/contracts/access/AccessControl.sol\":4491:4513  _roles[role].adminRole */\n      add\n      sload\n        /* \"@openzeppelin/contracts/access/AccessControl.sol\":2505:2521  _checkRole(role) */\n      tag_218\n        /* \"@openzeppelin/contracts/access/AccessControl.sol\":2516:2520  role */\n      dup2\n        /* \"@openzeppelin/contracts/access/AccessControl.sol\":2505:2515  _checkRole */\n      tag_151\n        /* \"@openzeppelin/contracts/access/AccessControl.sol\":2505:2521  _checkRole(role) */\n      jump\t// in\n    tag_218:\n        /* \"@openzeppelin/contracts/access/AccessControl.sol\":5355:5381  _revokeRole(role, account) */\n      tag_153\n        /* \"@openzeppelin/contracts/access/AccessControl.sol\":5367:5371  role */\n      dup4\n        /* \"@openzeppelin/contracts/access/AccessControl.sol\":5373:5380  account */\n      dup4\n        /* \"@openzeppelin/contracts/access/AccessControl.sol\":5355:5366  _revokeRole */\n      tag_162\n        /* \"@openzeppelin/contracts/access/AccessControl.sol\":5355:5381  _revokeRole(role, account) */\n      jump\t// in\n        /* \"votes.sol\":2017:2206  Candidato public candidato3 = Candidato({... */\n    tag_111:\n      0x0e\n      dup1\n      sload\n      sload(0x0f)\n      0x10\n      dup1\n      sload\n      swap3\n      swap4\n      sub(exp(0x02, 0xa0), 0x01)\n      swap1\n      swap3\n      and\n      swap3\n      tag_175\n      swap1\n      tag_176\n      jump\t// in\n        /* \"@openzeppelin/contracts/access/Ownable.sol\":2081:2279  function transferOwnership(address newOwner) public virtual onlyOwner {... */\n    tag_116:\n        /* \"@openzeppelin/contracts/access/Ownable.sol\":1094:1107  _checkOwner() */\n      tag_227\n        /* \"@openzeppelin/contracts/access/Ownable.sol\":1094:1105  _checkOwner */\n      tag_146\n        /* \"@openzeppelin/contracts/access/Ownable.sol\":1094:1107  _checkOwner() */\n      jump\t// in\n    tag_227:\n      sub(exp(0x02, 0xa0), 0x01)\n        /* \"@openzeppelin/contracts/access/Ownable.sol\":2169:2191  newOwner != address(0) */\n      dup2\n      and\n        /* \"@openzeppelin/contracts/access/Ownable.sol\":2161:2234  require(newOwner != address(0), \"Ownable: new owner is the zero address\") */\n      tag_229\n      jumpi\n      mload(0x40)\n      mul(0x461bcd, exp(0x02, 0xe5))\n      dup2\n      mstore\n        /* \"#utility.yul\":4234:4236   */\n      0x20\n        /* \"@openzeppelin/contracts/access/Ownable.sol\":2161:2234  require(newOwner != address(0), \"Ownable: new owner is the zero address\") */\n      0x04\n      dup3\n      add\n        /* \"#utility.yul\":4216:4237   */\n      mstore\n        /* \"#utility.yul\":4273:4275   */\n      0x26\n        /* \"#utility.yul\":4253:4271   */\n      0x24\n      dup3\n      add\n        /* \"#utility.yul\":4246:4276   */\n      mstore\n        /* \"#utility.yul\":4312:4346   */\n      0x4f776e61626c653a206e6577206f776e657220697320746865207a65726f2061\n        /* \"#utility.yul\":4292:4310   */\n      0x44\n      dup3\n      add\n        /* \"#utility.yul\":4285:4347   */\n      mstore\n        /* \"#utility.yul\":4383:4391   */\n      0x6464726573730000000000000000000000000000000000000000000000000000\n        /* \"#utility.yul\":4363:4381   */\n      0x64\n      dup3\n      add\n        /* \"#utility.yul\":4356:4392   */\n      mstore\n        /* \"#utility.yul\":4409:4428   */\n      0x84\n      add\n        /* \"@openzeppelin/contracts/access/Ownable.sol\":2161:2234  require(newOwner != address(0), \"Ownable: new owner is the zero address\") */\n      tag_129\n        /* \"#utility.yul\":4032:4434   */\n      jump\n        /* \"@openzeppelin/contracts/access/Ownable.sol\":2161:2234  require(newOwner != address(0), \"Ownable: new owner is the zero address\") */\n    tag_229:\n        /* \"@openzeppelin/contracts/access/Ownable.sol\":2244:2272  _transferOwnership(newOwner) */\n      tag_136\n        /* \"@openzeppelin/contracts/access/Ownable.sol\":2263:2271  newOwner */\n      dup2\n        /* \"@openzeppelin/contracts/access/Ownable.sol\":2244:2262  _transferOwnership */\n      tag_185\n        /* \"@openzeppelin/contracts/access/Ownable.sol\":2244:2272  _transferOwnership(newOwner) */\n      jump\t// in\n        /* \"votes.sol\":1623:1813  Candidato public candidato1 = Candidato({... */\n    tag_118:\n      0x06\n      dup1\n      sload\n      sload(0x07)\n      0x08\n      dup1\n      sload\n      swap3\n      swap4\n      sub(exp(0x02, 0xa0), 0x01)\n      swap1\n      swap3\n      and\n      swap3\n      tag_175\n      swap1\n      tag_176\n      jump\t// in\n        /* \"votes.sol\":5536:6005  function nombreGanador() external view... */\n    tag_121:\n        /* \"votes.sol\":5596:5624  string memory nombreGanador_ */\n      0x60\n        /* \"votes.sol\":5720:5738  candidatoGanador() */\n      tag_239\n        /* \"votes.sol\":5720:5736  candidatoGanador */\n      tag_64\n        /* \"votes.sol\":5720:5738  candidatoGanador() */\n      jump\t// in\n    tag_239:\n        /* \"votes.sol\":5742:5743  1 */\n      0x01\n        /* \"votes.sol\":5720:5743  candidatoGanador() == 1 */\n      eq\n        /* \"votes.sol\":5716:5804  if (candidatoGanador() == 1){... */\n      iszero\n      tag_240\n      jumpi\n        /* \"votes.sol\":5775:5792  candidato1.nombre */\n      0x08\n        /* \"votes.sol\":5758:5792  nombreGanador_ = candidato1.nombre */\n      dup1\n      sload\n      tag_241\n      swap1\n      tag_176\n      jump\t// in\n    tag_241:\n      dup1\n      0x1f\n      add\n      0x20\n      dup1\n      swap2\n      div\n      mul\n      0x20\n      add\n      mload(0x40)\n      swap1\n      dup2\n      add\n      0x40\n      mstore\n      dup1\n      swap3\n      swap2\n      swap1\n      dup2\n      dup2\n      mstore\n      0x20\n      add\n      dup3\n      dup1\n      sload\n      tag_242\n      swap1\n      tag_176\n      jump\t// in\n    tag_242:\n      dup1\n      iszero\n      tag_243\n      jumpi\n      dup1\n      0x1f\n      lt\n      tag_244\n      jumpi\n      0x0100\n      dup1\n      dup4\n      sload\n      div\n      mul\n      dup4\n      mstore\n      swap2\n      0x20\n      add\n      swap2\n      jump(tag_243)\n    tag_244:\n      dup3\n      add\n      swap2\n      swap1\n      0x00\n      mstore\n      keccak256(0x00, 0x20)\n      swap1\n    tag_245:\n      dup2\n      sload\n      dup2\n      mstore\n      swap1\n      0x01\n      add\n      swap1\n      0x20\n      add\n      dup1\n      dup4\n      gt\n      tag_245\n      jumpi\n      dup3\n      swap1\n      sub\n      0x1f\n      and\n      dup3\n      add\n      swap2\n    tag_243:\n      pop\n      pop\n      pop\n      pop\n      pop\n      swap1\n      pop\n        /* \"votes.sol\":5716:5804  if (candidatoGanador() == 1){... */\n    tag_240:\n        /* \"votes.sol\":5817:5835  candidatoGanador() */\n      tag_246\n        /* \"votes.sol\":5817:5833  candidatoGanador */\n      tag_64\n        /* \"votes.sol\":5817:5835  candidatoGanador() */\n      jump\t// in\n    tag_246:\n        /* \"votes.sol\":5839:5840  2 */\n      0x02\n        /* \"votes.sol\":5817:5840  candidatoGanador() == 2 */\n      eq\n        /* \"votes.sol\":5813:5901  if (candidatoGanador() == 2){... */\n      iszero\n      tag_247\n      jumpi\n        /* \"votes.sol\":5872:5889  candidato2.nombre */\n      0x0c\n        /* \"votes.sol\":5855:5889  nombreGanador_ = candidato2.nombre */\n      dup1\n      sload\n      tag_248\n      swap1\n      tag_176\n      jump\t// in\n    tag_248:\n      dup1\n      0x1f\n      add\n      0x20\n      dup1\n      swap2\n      div\n      mul\n      0x20\n      add\n      mload(0x40)\n      swap1\n      dup2\n      add\n      0x40\n      mstore\n      dup1\n      swap3\n      swap2\n      swap1\n      dup2\n      dup2\n      mstore\n      0x20\n      add\n      dup3\n      dup1\n      sload\n      tag_249\n      swap1\n      tag_176\n      jump\t// in\n    tag_249:\n      dup1\n      iszero\n      tag_250\n      jumpi\n      dup1\n      0x1f\n      lt\n      tag_251\n      jumpi\n      0x0100\n      dup1\n      dup4\n      sload\n      div\n      mul\n      dup4\n      mstore\n      swap2\n      0x20\n      add\n      swap2\n      jump(tag_250)\n    tag_251:\n      dup3\n      add\n      swap2\n      swap1\n      0x00\n      mstore\n      keccak256(0x00, 0x20)\n      swap1\n    tag_252:\n      dup2\n      sload\n      dup2\n      mstore\n      swap1\n      0x01\n      add\n      swap1\n      0x20\n      add\n      dup1\n      dup4\n      gt\n      tag_252\n      jumpi\n      dup3\n      swap1\n      sub\n      0x1f\n      and\n      dup3\n      add\n      swap2\n    tag_250:\n      pop\n      pop\n      pop\n      pop\n      pop\n      swap1\n      pop\n        /* \"votes.sol\":5813:5901  if (candidatoGanador() == 2){... */\n    tag_247:\n        /* \"votes.sol\":5914:5932  candidatoGanador() */\n      tag_253\n        /* \"votes.sol\":5914:5930  candidatoGanador */\n      tag_64\n        /* \"votes.sol\":5914:5932  candidatoGanador() */\n      jump\t// in\n    tag_253:\n        /* \"votes.sol\":5936:5937  3 */\n      0x03\n        /* \"votes.sol\":5914:5937  candidatoGanador() == 3 */\n      eq\n        /* \"votes.sol\":5910:5998  if (candidatoGanador() == 3){... */\n      iszero\n      tag_205\n      jumpi\n        /* \"votes.sol\":5969:5986  candidato3.nombre */\n      0x10\n        /* \"votes.sol\":5952:5986  nombreGanador_ = candidato3.nombre */\n      dup1\n      sload\n      tag_255\n      swap1\n      tag_176\n      jump\t// in\n    tag_255:\n      dup1\n      0x1f\n      add\n      0x20\n      dup1\n      swap2\n      div\n      mul\n      0x20\n      add\n      mload(0x40)\n      swap1\n      dup2\n      add\n      0x40\n      mstore\n      dup1\n      swap3\n      swap2\n      swap1\n      dup2\n      dup2\n      mstore\n      0x20\n      add\n      dup3\n      dup1\n      sload\n      tag_256\n      swap1\n      tag_176\n      jump\t// in\n    tag_256:\n      dup1\n      iszero\n      tag_257\n      jumpi\n      dup1\n      0x1f\n      lt\n      tag_258\n      jumpi\n      0x0100\n      dup1\n      dup4\n      sload\n      div\n      mul\n      dup4\n      mstore\n      swap2\n      0x20\n      add\n      swap2\n      jump(tag_257)\n    tag_258:\n      dup3\n      add\n      swap2\n      swap1\n      0x00\n      mstore\n      keccak256(0x00, 0x20)\n      swap1\n    tag_259:\n      dup2\n      sload\n      dup2\n      mstore\n      swap1\n      0x01\n      add\n      swap1\n      0x20\n      add\n      dup1\n      dup4\n      gt\n      tag_259\n      jumpi\n      dup3\n      swap1\n      sub\n      0x1f\n      and\n      dup3\n      add\n      swap2\n    tag_257:\n      pop\n      pop\n      pop\n      pop\n      pop\n      swap1\n      pop\n        /* \"votes.sol\":5536:6005  function nombreGanador() external view... */\n      swap1\n      jump\t// out\n        /* \"@openzeppelin/contracts/access/Ownable.sol\":1359:1489  function _checkOwner() internal view virtual {... */\n    tag_146:\n        /* \"@openzeppelin/contracts/access/Ownable.sol\":1247:1254  address */\n      0x00\n        /* \"@openzeppelin/contracts/access/Ownable.sol\":1273:1279  _owner */\n      sload\n      sub(exp(0x02, 0xa0), 0x01)\n      and\n        /* \"@openzeppelin/contracts/utils/Context.sol\":719:729  msg.sender */\n      caller\n        /* \"@openzeppelin/contracts/access/Ownable.sol\":1422:1445  owner() == _msgSender() */\n      eq\n        /* \"@openzeppelin/contracts/access/Ownable.sol\":1414:1482  require(owner() == _msgSender(), \"Ownable: caller is not the owner\") */\n      tag_145\n      jumpi\n      mload(0x40)\n      mul(0x461bcd, exp(0x02, 0xe5))\n      dup2\n      mstore\n        /* \"#utility.yul\":5320:5322   */\n      0x20\n        /* \"@openzeppelin/contracts/access/Ownable.sol\":1414:1482  require(owner() == _msgSender(), \"Ownable: caller is not the owner\") */\n      0x04\n      dup3\n      add\n        /* \"#utility.yul\":5302:5323   */\n      dup2\n      swap1\n      mstore\n        /* \"#utility.yul\":5339:5357   */\n      0x24\n      dup3\n      add\n        /* \"#utility.yul\":5332:5362   */\n      mstore\n        /* \"#utility.yul\":5398:5432   */\n      0x4f776e61626c653a2063616c6c6572206973206e6f7420746865206f776e6572\n        /* \"#utility.yul\":5378:5396   */\n      0x44\n      dup3\n      add\n        /* \"#utility.yul\":5371:5433   */\n      mstore\n        /* \"#utility.yul\":5450:5468   */\n      0x64\n      add\n        /* \"@openzeppelin/contracts/access/Ownable.sol\":1414:1482  require(owner() == _msgSender(), \"Ownable: caller is not the owner\") */\n      tag_129\n        /* \"#utility.yul\":5118:5474   */\n      jump\n        /* \"@openzeppelin/contracts/access/AccessControl.sol\":3334:3437  function _checkRole(bytes32 role) internal view virtual {... */\n    tag_151:\n        /* \"@openzeppelin/contracts/access/AccessControl.sol\":3400:3430  _checkRole(role, _msgSender()) */\n      tag_136\n        /* \"@openzeppelin/contracts/access/AccessControl.sol\":3411:3415  role */\n      dup2\n        /* \"@openzeppelin/contracts/utils/Context.sol\":719:729  msg.sender */\n      caller\n        /* \"@openzeppelin/contracts/access/AccessControl.sol\":3400:3410  _checkRole */\n      tag_270\n        /* \"@openzeppelin/contracts/access/AccessControl.sol\":3400:3430  _checkRole(role, _msgSender()) */\n      jump\t// in\n        /* \"@openzeppelin/contracts/access/AccessControl.sol\":7474:7707  function _grantRole(bytes32 role, address account) internal virtual {... */\n    tag_154:\n        /* \"@openzeppelin/contracts/access/AccessControl.sol\":7557:7579  hasRole(role, account) */\n      tag_272\n        /* \"@openzeppelin/contracts/access/AccessControl.sol\":7565:7569  role */\n      dup3\n        /* \"@openzeppelin/contracts/access/AccessControl.sol\":7571:7578  account */\n      dup3\n        /* \"@openzeppelin/contracts/access/AccessControl.sol\":7557:7564  hasRole */\n      tag_82\n        /* \"@openzeppelin/contracts/access/AccessControl.sol\":7557:7579  hasRole(role, account) */\n      jump\t// in\n    tag_272:\n        /* \"@openzeppelin/contracts/access/AccessControl.sol\":7552:7701  if (!hasRole(role, account)) {... */\n      tag_161\n      jumpi\n        /* \"@openzeppelin/contracts/access/AccessControl.sol\":7595:7607  _roles[role] */\n      0x00\n      dup3\n      dup2\n      mstore\n        /* \"@openzeppelin/contracts/access/AccessControl.sol\":7627:7631  true */\n      0x01\n        /* \"@openzeppelin/contracts/access/AccessControl.sol\":7595:7607  _roles[role] */\n      0x20\n      dup2\n      dup2\n      mstore\n      0x40\n      dup1\n      dup5\n      keccak256\n      sub(exp(0x02, 0xa0), 0x01)\n        /* \"@openzeppelin/contracts/access/AccessControl.sol\":7595:7624  _roles[role].members[account] */\n      dup7\n      and\n      dup1\n      dup7\n      mstore\n      swap3\n      mstore\n      dup1\n      dup5\n      keccak256\n        /* \"@openzeppelin/contracts/access/AccessControl.sol\":7595:7631  _roles[role].members[account] = true */\n      dup1\n      sload\n      not(0xff)\n      and\n      swap1\n      swap4\n      or\n      swap1\n      swap3\n      sstore\n        /* \"@openzeppelin/contracts/access/AccessControl.sol\":7650:7690  RoleGranted(role, account, _msgSender()) */\n      swap1\n      mload\n        /* \"@openzeppelin/contracts/utils/Context.sol\":719:729  msg.sender */\n      caller\n      swap3\n        /* \"@openzeppelin/contracts/access/AccessControl.sol\":7595:7607  _roles[role] */\n      dup6\n      swap2\n        /* \"@openzeppelin/contracts/access/AccessControl.sol\":7650:7690  RoleGranted(role, account, _msgSender()) */\n      0x2f8788117e7eff1d82e926ec794901d17c78024a50270940304540a733656f0d\n      swap2\n        /* \"@openzeppelin/contracts/access/AccessControl.sol\":7595:7607  _roles[role] */\n      swap1\n        /* \"@openzeppelin/contracts/access/AccessControl.sol\":7650:7690  RoleGranted(role, account, _msgSender()) */\n      log4\n        /* \"@openzeppelin/contracts/access/AccessControl.sol\":7474:7707  function _grantRole(bytes32 role, address account) internal virtual {... */\n      pop\n      pop\n      jump\t// out\n        /* \"@openzeppelin/contracts/access/AccessControl.sol\":7878:8112  function _revokeRole(bytes32 role, address account) internal virtual {... */\n    tag_162:\n        /* \"@openzeppelin/contracts/access/AccessControl.sol\":7961:7983  hasRole(role, account) */\n      tag_277\n        /* \"@openzeppelin/contracts/access/AccessControl.sol\":7969:7973  role */\n      dup3\n        /* \"@openzeppelin/contracts/access/AccessControl.sol\":7975:7982  account */\n      dup3\n        /* \"@openzeppelin/contracts/access/AccessControl.sol\":7961:7968  hasRole */\n      tag_82\n        /* \"@openzeppelin/contracts/access/AccessControl.sol\":7961:7983  hasRole(role, account) */\n      jump\t// in\n    tag_277:\n        /* \"@openzeppelin/contracts/access/AccessControl.sol\":7957:8106  if (hasRole(role, account)) {... */\n      iszero\n      tag_161\n      jumpi\n        /* \"@openzeppelin/contracts/access/AccessControl.sol\":8031:8036  false */\n      0x00\n        /* \"@openzeppelin/contracts/access/AccessControl.sol\":7999:8011  _roles[role] */\n      dup3\n      dup2\n      mstore\n        /* \"@openzeppelin/contracts/access/AccessControl.sol\":7999:8005  _roles */\n      0x01\n        /* \"@openzeppelin/contracts/access/AccessControl.sol\":7999:8011  _roles[role] */\n      0x20\n      swap1\n      dup2\n      mstore\n      0x40\n      dup1\n      dup4\n      keccak256\n      sub(exp(0x02, 0xa0), 0x01)\n        /* \"@openzeppelin/contracts/access/AccessControl.sol\":7999:8028  _roles[role].members[account] */\n      dup6\n      and\n      dup1\n      dup6\n      mstore\n      swap3\n      mstore\n      dup1\n      dup4\n      keccak256\n        /* \"@openzeppelin/contracts/access/AccessControl.sol\":7999:8036  _roles[role].members[account] = false */\n      dup1\n      sload\n      not(0xff)\n      and\n      swap1\n      sstore\n        /* \"@openzeppelin/contracts/access/AccessControl.sol\":8055:8095  RoleRevoked(role, account, _msgSender()) */\n      mload\n        /* \"@openzeppelin/contracts/utils/Context.sol\":719:729  msg.sender */\n      caller\n      swap3\n        /* \"@openzeppelin/contracts/access/AccessControl.sol\":7999:8011  _roles[role] */\n      dup6\n      swap2\n        /* \"@openzeppelin/contracts/access/AccessControl.sol\":8055:8095  RoleRevoked(role, account, _msgSender()) */\n      0xf6391f5c32d9c69d2a47ea670b442974b53935d1edc7fd64eb21e047a839171b\n      swap2\n        /* \"@openzeppelin/contracts/access/AccessControl.sol\":8031:8036  false */\n      swap1\n        /* \"@openzeppelin/contracts/access/AccessControl.sol\":8055:8095  RoleRevoked(role, account, _msgSender()) */\n      log4\n        /* \"@openzeppelin/contracts/access/AccessControl.sol\":7878:8112  function _revokeRole(bytes32 role, address account) internal virtual {... */\n      pop\n      pop\n      jump\t// out\n        /* \"@openzeppelin/contracts/access/Ownable.sol\":2433:2620  function _transferOwnership(address newOwner) internal virtual {... */\n    tag_185:\n        /* \"@openzeppelin/contracts/access/Ownable.sol\":2506:2522  address oldOwner */\n      0x00\n        /* \"@openzeppelin/contracts/access/Ownable.sol\":2525:2531  _owner */\n      dup1\n      sload\n      sub(exp(0x02, 0xa0), 0x01)\n        /* \"@openzeppelin/contracts/access/Ownable.sol\":2541:2558  _owner = newOwner */\n      dup4\n      dup2\n      and\n      not(0xffffffffffffffffffffffffffffffffffffffff)\n      dup4\n      and\n      dup2\n      or\n      dup5\n      sstore\n        /* \"@openzeppelin/contracts/access/Ownable.sol\":2573:2613  OwnershipTransferred(oldOwner, newOwner) */\n      mload(0x40)\n        /* \"@openzeppelin/contracts/access/Ownable.sol\":2525:2531  _owner */\n      swap2\n      swap1\n      swap3\n      and\n      swap3\n      dup4\n      swap2\n        /* \"@openzeppelin/contracts/access/Ownable.sol\":2573:2613  OwnershipTransferred(oldOwner, newOwner) */\n      0x8be0079c531659141344cd1fd0a4f28419497f9722a3daafe3b4186f6b6457e0\n      swap2\n        /* \"@openzeppelin/contracts/access/Ownable.sol\":2506:2522  address oldOwner */\n      swap1\n        /* \"@openzeppelin/contracts/access/Ownable.sol\":2573:2613  OwnershipTransferred(oldOwner, newOwner) */\n      log3\n        /* \"@openzeppelin/contracts/access/Ownable.sol\":2496:2620  {... */\n      pop\n        /* \"@openzeppelin/contracts/access/Ownable.sol\":2433:2620  function _transferOwnership(address newOwner) internal virtual {... */\n      pop\n      jump\t// out\n        /* \"@openzeppelin/contracts/access/AccessControl.sol\":3718:4210  function _checkRole(bytes32 role, address account) internal view virtual {... */\n    tag_270:\n        /* \"@openzeppelin/contracts/access/AccessControl.sol\":3806:3828  hasRole(role, account) */\n      tag_282\n        /* \"@openzeppelin/contracts/access/AccessControl.sol\":3814:3818  role */\n      dup3\n        /* \"@openzeppelin/contracts/access/AccessControl.sol\":3820:3827  account */\n      dup3\n        /* \"@openzeppelin/contracts/access/AccessControl.sol\":3806:3813  hasRole */\n      tag_82\n        /* \"@openzeppelin/contracts/access/AccessControl.sol\":3806:3828  hasRole(role, account) */\n      jump\t// in\n    tag_282:\n        /* \"@openzeppelin/contracts/access/AccessControl.sol\":3801:4204  if (!hasRole(role, account)) {... */\n      tag_161\n      jumpi\n        /* \"@openzeppelin/contracts/access/AccessControl.sol\":3989:4030  Strings.toHexString(uint160(account), 20) */\n      tag_284\n        /* \"@openzeppelin/contracts/access/AccessControl.sol\":4017:4024  account */\n      dup2\n      sub(exp(0x02, 0xa0), 0x01)\n        /* \"@openzeppelin/contracts/access/AccessControl.sol\":3989:4030  Strings.toHexString(uint160(account), 20) */\n      and\n        /* \"@openzeppelin/contracts/access/AccessControl.sol\":4027:4029  20 */\n      0x14\n        /* \"@openzeppelin/contracts/access/AccessControl.sol\":3989:4008  Strings.toHexString */\n      tag_285\n        /* \"@openzeppelin/contracts/access/AccessControl.sol\":3989:4030  Strings.toHexString(uint160(account), 20) */\n      jump\t// in\n    tag_284:\n        /* \"@openzeppelin/contracts/access/AccessControl.sol\":4101:4139  Strings.toHexString(uint256(role), 32) */\n      tag_286\n        /* \"@openzeppelin/contracts/access/AccessControl.sol\":4129:4133  role */\n      dup4\n        /* \"@openzeppelin/contracts/access/AccessControl.sol\":4136:4138  32 */\n      0x20\n        /* \"@openzeppelin/contracts/access/AccessControl.sol\":4101:4120  Strings.toHexString */\n      tag_285\n        /* \"@openzeppelin/contracts/access/AccessControl.sol\":4101:4139  Strings.toHexString(uint256(role), 32) */\n      jump\t// in\n    tag_286:\n        /* \"@openzeppelin/contracts/access/AccessControl.sol\":3896:4161  abi.encodePacked(... */\n      add(0x20, mload(0x40))\n      tag_287\n      swap3\n      swap2\n      swap1\n      tag_288\n      jump\t// in\n    tag_287:\n      0x40\n      dup1\n      mload\n      not(0x1f)\n      dup2\n      dup5\n      sub\n      add\n      dup2\n      mstore\n      swap1\n      dup3\n      swap1\n      mstore\n      mul(0x461bcd, exp(0x02, 0xe5))\n        /* \"@openzeppelin/contracts/access/AccessControl.sol\":3844:4193  revert(... */\n      dup3\n      mstore\n      tag_129\n      swap2\n      0x04\n      add\n      tag_47\n      jump\t// in\n        /* \"@openzeppelin/contracts/utils/Strings.sol\":1652:2093  function toHexString(uint256 value, uint256 length) internal pure returns (string memory) {... */\n    tag_285:\n        /* \"@openzeppelin/contracts/utils/Strings.sol\":1727:1740  string memory */\n      0x60\n        /* \"@openzeppelin/contracts/utils/Strings.sol\":1752:1771  bytes memory buffer */\n      0x00\n        /* \"@openzeppelin/contracts/utils/Strings.sol\":1784:1794  2 * length */\n      tag_291\n        /* \"@openzeppelin/contracts/utils/Strings.sol\":1788:1794  length */\n      dup4\n        /* \"@openzeppelin/contracts/utils/Strings.sol\":1784:1785  2 */\n      0x02\n        /* \"@openzeppelin/contracts/utils/Strings.sol\":1784:1794  2 * length */\n      tag_292\n      jump\t// in\n    tag_291:\n        /* \"@openzeppelin/contracts/utils/Strings.sol\":1784:1798  2 * length + 2 */\n      tag_293\n      swap1\n        /* \"@openzeppelin/contracts/utils/Strings.sol\":1797:1798  2 */\n      0x02\n        /* \"@openzeppelin/contracts/utils/Strings.sol\":1784:1798  2 * length + 2 */\n      tag_133\n      jump\t// in\n    tag_293:\n        /* \"@openzeppelin/contracts/utils/Strings.sol\":1774:1799  new bytes(2 * length + 2) */\n      0xffffffffffffffff\n      dup2\n      gt\n      iszero\n      tag_295\n      jumpi\n      tag_295\n      tag_296\n      jump\t// in\n    tag_295:\n      mload(0x40)\n      swap1\n      dup1\n      dup3\n      mstore\n      dup1\n      0x1f\n      add\n      not(0x1f)\n      and\n      0x20\n      add\n      dup3\n      add\n      0x40\n      mstore\n      dup1\n      iszero\n      tag_297\n      jumpi\n      0x20\n      dup3\n      add\n      dup2\n      dup1\n      calldatasize\n      dup4\n      calldatacopy\n      add\n      swap1\n      pop\n    tag_297:\n      pop\n        /* \"@openzeppelin/contracts/utils/Strings.sol\":1752:1799  bytes memory buffer = new bytes(2 * length + 2) */\n      swap1\n      pop\n        /* \"@openzeppelin/contracts/utils/Strings.sol\":1809:1824  buffer[0] = \"0\" */\n      0x3000000000000000000000000000000000000000000000000000000000000000\n        /* \"@openzeppelin/contracts/utils/Strings.sol\":1809:1815  buffer */\n      dup2\n        /* \"@openzeppelin/contracts/utils/Strings.sol\":1816:1817  0 */\n      0x00\n        /* \"@openzeppelin/contracts/utils/Strings.sol\":1809:1818  buffer[0] */\n      dup2\n      mload\n      dup2\n      lt\n      tag_299\n      jumpi\n      tag_299\n      tag_300\n      jump\t// in\n    tag_299:\n      0x20\n      add\n      add\n        /* \"@openzeppelin/contracts/utils/Strings.sol\":1809:1824  buffer[0] = \"0\" */\n      swap1\n      not(0xffffffffffffffffffffffffffffffffffffffffffffffffffffffffffffff)\n      and\n      swap1\n      dup2\n      0x00\n      byte\n      swap1\n      mstore8\n      pop\n        /* \"@openzeppelin/contracts/utils/Strings.sol\":1834:1849  buffer[1] = \"x\" */\n      0x7800000000000000000000000000000000000000000000000000000000000000\n        /* \"@openzeppelin/contracts/utils/Strings.sol\":1834:1840  buffer */\n      dup2\n        /* \"@openzeppelin/contracts/utils/Strings.sol\":1841:1842  1 */\n      0x01\n        /* \"@openzeppelin/contracts/utils/Strings.sol\":1834:1843  buffer[1] */\n      dup2\n      mload\n      dup2\n      lt\n      tag_302\n      jumpi\n      tag_302\n      tag_300\n      jump\t// in\n    tag_302:\n      0x20\n      add\n      add\n        /* \"@openzeppelin/contracts/utils/Strings.sol\":1834:1849  buffer[1] = \"x\" */\n      swap1\n      not(0xffffffffffffffffffffffffffffffffffffffffffffffffffffffffffffff)\n      and\n      swap1\n      dup2\n      0x00\n      byte\n      swap1\n      mstore8\n      pop\n        /* \"@openzeppelin/contracts/utils/Strings.sol\":1864:1873  uint256 i */\n      0x00\n        /* \"@openzeppelin/contracts/utils/Strings.sol\":1876:1886  2 * length */\n      tag_306\n        /* \"@openzeppelin/contracts/utils/Strings.sol\":1880:1886  length */\n      dup5\n        /* \"@openzeppelin/contracts/utils/Strings.sol\":1876:1877  2 */\n      0x02\n        /* \"@openzeppelin/contracts/utils/Strings.sol\":1876:1886  2 * length */\n      tag_292\n      jump\t// in\n    tag_306:\n        /* \"@openzeppelin/contracts/utils/Strings.sol\":1876:1890  2 * length + 1 */\n      tag_307\n      swap1\n        /* \"@openzeppelin/contracts/utils/Strings.sol\":1889:1890  1 */\n      0x01\n        /* \"@openzeppelin/contracts/utils/Strings.sol\":1876:1890  2 * length + 1 */\n      tag_133\n      jump\t// in\n    tag_307:\n        /* \"@openzeppelin/contracts/utils/Strings.sol\":1864:1890  uint256 i = 2 * length + 1 */\n      swap1\n      pop\n        /* \"@openzeppelin/contracts/utils/Strings.sol\":1859:1991  for (uint256 i = 2 * length + 1; i > 1; --i) {... */\n    tag_303:\n        /* \"@openzeppelin/contracts/utils/Strings.sol\":1896:1897  1 */\n      0x01\n        /* \"@openzeppelin/contracts/utils/Strings.sol\":1892:1893  i */\n      dup2\n        /* \"@openzeppelin/contracts/utils/Strings.sol\":1892:1897  i > 1 */\n      gt\n        /* \"@openzeppelin/contracts/utils/Strings.sol\":1859:1991  for (uint256 i = 2 * length + 1; i > 1; --i) {... */\n      iszero\n      tag_304\n      jumpi\n        /* \"@openzeppelin/contracts/utils/Strings.sol\":1930:1942  _HEX_SYMBOLS */\n      0x3031323334353637383961626364656600000000000000000000000000000000\n        /* \"@openzeppelin/contracts/utils/Strings.sol\":1943:1948  value */\n      dup6\n        /* \"@openzeppelin/contracts/utils/Strings.sol\":1951:1954  0xf */\n      0x0f\n        /* \"@openzeppelin/contracts/utils/Strings.sol\":1943:1954  value & 0xf */\n      and\n        /* \"@openzeppelin/contracts/utils/Strings.sol\":1930:1955  _HEX_SYMBOLS[value & 0xf] */\n      0x10\n      dup2\n      lt\n      tag_309\n      jumpi\n      tag_309\n      tag_300\n      jump\t// in\n    tag_309:\n      byte\n      0x0100000000000000000000000000000000000000000000000000000000000000\n      mul\n        /* \"@openzeppelin/contracts/utils/Strings.sol\":1918:1924  buffer */\n      dup3\n        /* \"@openzeppelin/contracts/utils/Strings.sol\":1925:1926  i */\n      dup3\n        /* \"@openzeppelin/contracts/utils/Strings.sol\":1918:1927  buffer[i] */\n      dup2\n      mload\n      dup2\n      lt\n      tag_311\n      jumpi\n      tag_311\n      tag_300\n      jump\t// in\n    tag_311:\n      0x20\n      add\n      add\n        /* \"@openzeppelin/contracts/utils/Strings.sol\":1918:1955  buffer[i] = _HEX_SYMBOLS[value & 0xf] */\n      swap1\n      not(0xffffffffffffffffffffffffffffffffffffffffffffffffffffffffffffff)\n      and\n      swap1\n      dup2\n      0x00\n      byte\n      swap1\n      mstore8\n      pop\n        /* \"@openzeppelin/contracts/utils/Strings.sol\":1969:1980  value >>= 4 */\n      0x10\n      swap1\n      swap5\n      div\n      swap4\n        /* \"@openzeppelin/contracts/utils/Strings.sol\":1899:1902  --i */\n      tag_312\n      dup2\n      tag_313\n      jump\t// in\n    tag_312:\n      swap1\n      pop\n        /* \"@openzeppelin/contracts/utils/Strings.sol\":1859:1991  for (uint256 i = 2 * length + 1; i > 1; --i) {... */\n      jump(tag_303)\n    tag_304:\n      pop\n        /* \"@openzeppelin/contracts/utils/Strings.sol\":2008:2018  value == 0 */\n      dup4\n      iszero\n        /* \"@openzeppelin/contracts/utils/Strings.sol\":2000:2055  require(value == 0, \"Strings: hex length insufficient\") */\n      tag_314\n      jumpi\n      mload(0x40)\n      mul(0x461bcd, exp(0x02, 0xe5))\n      dup2\n      mstore\n        /* \"#utility.yul\":3458:3460   */\n      0x20\n        /* \"@openzeppelin/contracts/utils/Strings.sol\":2000:2055  require(value == 0, \"Strings: hex length insufficient\") */\n      0x04\n      dup3\n      add\n        /* \"#utility.yul\":3440:3461   */\n      dup2\n      swap1\n      mstore\n        /* \"#utility.yul\":3477:3495   */\n      0x24\n      dup3\n      add\n        /* \"#utility.yul\":3470:3500   */\n      mstore\n        /* \"#utility.yul\":3536:3570   */\n      0x537472696e67733a20686578206c656e67746820696e73756666696369656e74\n        /* \"#utility.yul\":3516:3534   */\n      0x44\n      dup3\n      add\n        /* \"#utility.yul\":3509:3571   */\n      mstore\n        /* \"#utility.yul\":3588:3606   */\n      0x64\n      add\n        /* \"@openzeppelin/contracts/utils/Strings.sol\":2000:2055  require(value == 0, \"Strings: hex length insufficient\") */\n      tag_129\n        /* \"#utility.yul\":3256:3612   */\n      jump\n        /* \"@openzeppelin/contracts/utils/Strings.sol\":2000:2055  require(value == 0, \"Strings: hex length insufficient\") */\n    tag_314:\n        /* \"@openzeppelin/contracts/utils/Strings.sol\":2079:2085  buffer */\n      swap4\n        /* \"@openzeppelin/contracts/utils/Strings.sol\":1652:2093  function toHexString(uint256 value, uint256 length) internal pure returns (string memory) {... */\n      swap3\n      pop\n      pop\n      pop\n      jump\t// out\n        /* \"#utility.yul\":14:210   */\n    tag_318:\n        /* \"#utility.yul\":82:102   */\n      dup1\n      calldataload\n      sub(exp(0x02, 0xa0), 0x01)\n        /* \"#utility.yul\":131:185   */\n      dup2\n      and\n        /* \"#utility.yul\":121:186   */\n      dup2\n      eq\n        /* \"#utility.yul\":111:204   */\n      tag_320\n      jumpi\n        /* \"#utility.yul\":200:201   */\n      0x00\n        /* \"#utility.yul\":197:198   */\n      dup1\n        /* \"#utility.yul\":190:202   */\n      revert\n        /* \"#utility.yul\":111:204   */\n    tag_320:\n        /* \"#utility.yul\":14:210   */\n      swap2\n      swap1\n      pop\n      jump\t// out\n        /* \"#utility.yul\":215:401   */\n    tag_115:\n        /* \"#utility.yul\":274:280   */\n      0x00\n        /* \"#utility.yul\":327:329   */\n      0x20\n        /* \"#utility.yul\":315:324   */\n      dup3\n        /* \"#utility.yul\":306:313   */\n      dup5\n        /* \"#utility.yul\":302:325   */\n      sub\n        /* \"#utility.yul\":298:330   */\n      slt\n        /* \"#utility.yul\":295:347   */\n      iszero\n      tag_322\n      jumpi\n        /* \"#utility.yul\":343:344   */\n      0x00\n        /* \"#utility.yul\":340:341   */\n      dup1\n        /* \"#utility.yul\":333:345   */\n      revert\n        /* \"#utility.yul\":295:347   */\n    tag_322:\n        /* \"#utility.yul\":366:395   */\n      tag_314\n        /* \"#utility.yul\":385:394   */\n      dup3\n        /* \"#utility.yul\":366:395   */\n      tag_318\n      jump\t// in\n        /* \"#utility.yul\":406:586   */\n    tag_50:\n        /* \"#utility.yul\":465:471   */\n      0x00\n        /* \"#utility.yul\":518:520   */\n      0x20\n        /* \"#utility.yul\":506:515   */\n      dup3\n        /* \"#utility.yul\":497:504   */\n      dup5\n        /* \"#utility.yul\":493:516   */\n      sub\n        /* \"#utility.yul\":489:521   */\n      slt\n        /* \"#utility.yul\":486:538   */\n      iszero\n      tag_325\n      jumpi\n        /* \"#utility.yul\":534:535   */\n      0x00\n        /* \"#utility.yul\":531:532   */\n      dup1\n        /* \"#utility.yul\":524:536   */\n      revert\n        /* \"#utility.yul\":486:538   */\n    tag_325:\n      pop\n        /* \"#utility.yul\":557:580   */\n      calldataload\n      swap2\n        /* \"#utility.yul\":406:586   */\n      swap1\n      pop\n      jump\t// out\n        /* \"#utility.yul\":591:845   */\n    tag_58:\n        /* \"#utility.yul\":659:665   */\n      0x00\n        /* \"#utility.yul\":667:673   */\n      dup1\n        /* \"#utility.yul\":720:722   */\n      0x40\n        /* \"#utility.yul\":708:717   */\n      dup4\n        /* \"#utility.yul\":699:706   */\n      dup6\n        /* \"#utility.yul\":695:718   */\n      sub\n        /* \"#utility.yul\":691:723   */\n      slt\n        /* \"#utility.yul\":688:740   */\n      iszero\n      tag_327\n      jumpi\n        /* \"#utility.yul\":736:737   */\n      0x00\n        /* \"#utility.yul\":733:734   */\n      dup1\n        /* \"#utility.yul\":726:738   */\n      revert\n        /* \"#utility.yul\":688:740   */\n    tag_327:\n        /* \"#utility.yul\":772:781   */\n      dup3\n        /* \"#utility.yul\":759:782   */\n      calldataload\n        /* \"#utility.yul\":749:782   */\n      swap2\n      pop\n        /* \"#utility.yul\":801:839   */\n      tag_328\n        /* \"#utility.yul\":835:837   */\n      0x20\n        /* \"#utility.yul\":824:833   */\n      dup5\n        /* \"#utility.yul\":820:838   */\n      add\n        /* \"#utility.yul\":801:839   */\n      tag_318\n      jump\t// in\n    tag_328:\n        /* \"#utility.yul\":791:839   */\n      swap1\n      pop\n        /* \"#utility.yul\":591:845   */\n      swap3\n      pop\n      swap3\n      swap1\n      pop\n      jump\t// out\n        /* \"#utility.yul\":850:1182   */\n    tag_36:\n        /* \"#utility.yul\":908:914   */\n      0x00\n        /* \"#utility.yul\":961:963   */\n      0x20\n        /* \"#utility.yul\":949:958   */\n      dup3\n        /* \"#utility.yul\":940:947   */\n      dup5\n        /* \"#utility.yul\":936:959   */\n      sub\n        /* \"#utility.yul\":932:964   */\n      slt\n        /* \"#utility.yul\":929:981   */\n      iszero\n      tag_330\n      jumpi\n        /* \"#utility.yul\":977:978   */\n      0x00\n        /* \"#utility.yul\":974:975   */\n      dup1\n        /* \"#utility.yul\":967:979   */\n      revert\n        /* \"#utility.yul\":929:981   */\n    tag_330:\n        /* \"#utility.yul\":1016:1025   */\n      dup2\n        /* \"#utility.yul\":1003:1026   */\n      calldataload\n      not(0xffffffffffffffffffffffffffffffffffffffffffffffffffffffff)\n        /* \"#utility.yul\":1059:1064   */\n      dup2\n        /* \"#utility.yul\":1055:1133   */\n      and\n        /* \"#utility.yul\":1048:1053   */\n      dup2\n        /* \"#utility.yul\":1045:1134   */\n      eq\n        /* \"#utility.yul\":1035:1152   */\n      tag_314\n      jumpi\n        /* \"#utility.yul\":1148:1149   */\n      0x00\n        /* \"#utility.yul\":1145:1146   */\n      dup1\n        /* \"#utility.yul\":1138:1150   */\n      revert\n        /* \"#utility.yul\":1372:1630   */\n    tag_334:\n        /* \"#utility.yul\":1414:1417   */\n      0x00\n        /* \"#utility.yul\":1452:1457   */\n      dup2\n        /* \"#utility.yul\":1446:1458   */\n      mload\n        /* \"#utility.yul\":1479:1485   */\n      dup1\n        /* \"#utility.yul\":1474:1477   */\n      dup5\n        /* \"#utility.yul\":1467:1486   */\n      mstore\n        /* \"#utility.yul\":1495:1558   */\n      tag_336\n        /* \"#utility.yul\":1551:1557   */\n      dup2\n        /* \"#utility.yul\":1544:1548   */\n      0x20\n        /* \"#utility.yul\":1539:1542   */\n      dup7\n        /* \"#utility.yul\":1535:1549   */\n      add\n        /* \"#utility.yul\":1528:1532   */\n      0x20\n        /* \"#utility.yul\":1521:1526   */\n      dup7\n        /* \"#utility.yul\":1517:1533   */\n      add\n        /* \"#utility.yul\":1495:1558   */\n      tag_337\n      jump\t// in\n    tag_336:\n        /* \"#utility.yul\":1612:1614   */\n      0x1f\n        /* \"#utility.yul\":1591:1606   */\n      add\n      not(0x1f)\n        /* \"#utility.yul\":1587:1616   */\n      and\n        /* \"#utility.yul\":1578:1617   */\n      swap3\n      swap1\n      swap3\n      add\n        /* \"#utility.yul\":1619:1623   */\n      0x20\n        /* \"#utility.yul\":1574:1624   */\n      add\n      swap3\n        /* \"#utility.yul\":1372:1630   */\n      swap2\n      pop\n      pop\n      jump\t// out\n        /* \"#utility.yul\":1635:2421   */\n    tag_288:\n        /* \"#utility.yul\":2046:2071   */\n      0x416363657373436f6e74726f6c3a206163636f756e7420000000000000000000\n        /* \"#utility.yul\":2041:2044   */\n      dup2\n        /* \"#utility.yul\":2034:2072   */\n      mstore\n        /* \"#utility.yul\":2016:2019   */\n      0x00\n        /* \"#utility.yul\":2101:2107   */\n      dup4\n        /* \"#utility.yul\":2095:2108   */\n      mload\n        /* \"#utility.yul\":2117:2179   */\n      tag_339\n        /* \"#utility.yul\":2172:2178   */\n      dup2\n        /* \"#utility.yul\":2167:2169   */\n      0x17\n        /* \"#utility.yul\":2162:2165   */\n      dup6\n        /* \"#utility.yul\":2158:2170   */\n      add\n        /* \"#utility.yul\":2151:2155   */\n      0x20\n        /* \"#utility.yul\":2143:2149   */\n      dup9\n        /* \"#utility.yul\":2139:2156   */\n      add\n        /* \"#utility.yul\":2117:2179   */\n      tag_337\n      jump\t// in\n    tag_339:\n        /* \"#utility.yul\":2243:2262   */\n      0x206973206d697373696e6720726f6c6520000000000000000000000000000000\n        /* \"#utility.yul\":2238:2240   */\n      0x17\n        /* \"#utility.yul\":2198:2214   */\n      swap2\n      dup5\n      add\n        /* \"#utility.yul\":2230:2241   */\n      swap2\n      dup3\n      add\n        /* \"#utility.yul\":2223:2263   */\n      mstore\n        /* \"#utility.yul\":2288:2301   */\n      dup4\n      mload\n        /* \"#utility.yul\":2310:2373   */\n      tag_340\n        /* \"#utility.yul\":2288:2301   */\n      dup2\n        /* \"#utility.yul\":2359:2361   */\n      0x28\n        /* \"#utility.yul\":2351:2362   */\n      dup5\n      add\n        /* \"#utility.yul\":2344:2348   */\n      0x20\n        /* \"#utility.yul\":2332:2349   */\n      dup9\n      add\n        /* \"#utility.yul\":2310:2373   */\n      tag_337\n      jump\t// in\n    tag_340:\n        /* \"#utility.yul\":2393:2410   */\n      add\n        /* \"#utility.yul\":2412:2414   */\n      0x28\n        /* \"#utility.yul\":2389:2415   */\n      add\n      swap5\n        /* \"#utility.yul\":1635:2421   */\n      swap4\n      pop\n      pop\n      pop\n      pop\n      jump\t// out\n        /* \"#utility.yul\":3031:3251   */\n    tag_47:\n        /* \"#utility.yul\":3180:3182   */\n      0x20\n        /* \"#utility.yul\":3169:3178   */\n      dup2\n        /* \"#utility.yul\":3162:3183   */\n      mstore\n        /* \"#utility.yul\":3143:3147   */\n      0x00\n        /* \"#utility.yul\":3200:3245   */\n      tag_314\n        /* \"#utility.yul\":3241:3243   */\n      0x20\n        /* \"#utility.yul\":3230:3239   */\n      dup4\n        /* \"#utility.yul\":3226:3244   */\n      add\n        /* \"#utility.yul\":3218:3224   */\n      dup5\n        /* \"#utility.yul\":3200:3245   */\n      tag_334\n      jump\t// in\n        /* \"#utility.yul\":6421:6905   */\n    tag_70:\n        /* \"#utility.yul\":6654:6660   */\n      dup5\n        /* \"#utility.yul\":6643:6652   */\n      dup2\n        /* \"#utility.yul\":6636:6661   */\n      mstore\n      sub(exp(0x02, 0xa0), 0x01)\n        /* \"#utility.yul\":6701:6707   */\n      dup5\n        /* \"#utility.yul\":6697:6752   */\n      and\n        /* \"#utility.yul\":6692:6694   */\n      0x20\n        /* \"#utility.yul\":6681:6690   */\n      dup3\n        /* \"#utility.yul\":6677:6695   */\n      add\n        /* \"#utility.yul\":6670:6753   */\n      mstore\n        /* \"#utility.yul\":6789:6792   */\n      0x80\n        /* \"#utility.yul\":6784:6786   */\n      0x40\n        /* \"#utility.yul\":6773:6782   */\n      dup3\n        /* \"#utility.yul\":6769:6787   */\n      add\n        /* \"#utility.yul\":6762:6793   */\n      mstore\n        /* \"#utility.yul\":6617:6621   */\n      0x00\n        /* \"#utility.yul\":6810:6856   */\n      tag_356\n        /* \"#utility.yul\":6851:6854   */\n      0x80\n        /* \"#utility.yul\":6840:6849   */\n      dup4\n        /* \"#utility.yul\":6836:6855   */\n      add\n        /* \"#utility.yul\":6828:6834   */\n      dup6\n        /* \"#utility.yul\":6810:6856   */\n      tag_334\n      jump\t// in\n    tag_356:\n        /* \"#utility.yul\":6802:6856   */\n      swap1\n      pop\n        /* \"#utility.yul\":6892:6898   */\n      dup3\n        /* \"#utility.yul\":6887:6889   */\n      0x60\n        /* \"#utility.yul\":6876:6885   */\n      dup4\n        /* \"#utility.yul\":6872:6890   */\n      add\n        /* \"#utility.yul\":6865:6899   */\n      mstore\n        /* \"#utility.yul\":6421:6905   */\n      swap6\n      swap5\n      pop\n      pop\n      pop\n      pop\n      pop\n      jump\t// out\n        /* \"#utility.yul\":6910:7038   */\n    tag_133:\n        /* \"#utility.yul\":6950:6953   */\n      0x00\n        /* \"#utility.yul\":6981:6982   */\n      dup3\n        /* \"#utility.yul\":6977:6983   */\n      not\n        /* \"#utility.yul\":6974:6975   */\n      dup3\n        /* \"#utility.yul\":6971:6984   */\n      gt\n        /* \"#utility.yul\":6968:7007   */\n      iszero\n      tag_359\n      jumpi\n        /* \"#utility.yul\":6987:7005   */\n      tag_359\n      tag_360\n      jump\t// in\n    tag_359:\n      pop\n        /* \"#utility.yul\":7023:7032   */\n      add\n      swap1\n        /* \"#utility.yul\":6910:7038   */\n      jump\t// out\n        /* \"#utility.yul\":7043:7211   */\n    tag_292:\n        /* \"#utility.yul\":7083:7090   */\n      0x00\n        /* \"#utility.yul\":7149:7150   */\n      dup2\n        /* \"#utility.yul\":7145:7146   */\n      0x00\n        /* \"#utility.yul\":7141:7147   */\n      not\n        /* \"#utility.yul\":7137:7151   */\n      div\n        /* \"#utility.yul\":7134:7135   */\n      dup4\n        /* \"#utility.yul\":7131:7152   */\n      gt\n        /* \"#utility.yul\":7126:7127   */\n      dup3\n        /* \"#utility.yul\":7119:7128   */\n      iszero\n        /* \"#utility.yul\":7112:7129   */\n      iszero\n        /* \"#utility.yul\":7108:7153   */\n      and\n        /* \"#utility.yul\":7105:7176   */\n      iszero\n      tag_363\n      jumpi\n        /* \"#utility.yul\":7156:7174   */\n      tag_363\n      tag_360\n      jump\t// in\n    tag_363:\n      pop\n        /* \"#utility.yul\":7196:7205   */\n      mul\n      swap1\n        /* \"#utility.yul\":7043:7211   */\n      jump\t// out\n        /* \"#utility.yul\":7216:7474   */\n    tag_337:\n        /* \"#utility.yul\":7288:7289   */\n      0x00\n        /* \"#utility.yul\":7298:7411   */\n    tag_365:\n        /* \"#utility.yul\":7312:7318   */\n      dup4\n        /* \"#utility.yul\":7309:7310   */\n      dup2\n        /* \"#utility.yul\":7306:7319   */\n      lt\n        /* \"#utility.yul\":7298:7411   */\n      iszero\n      tag_367\n      jumpi\n        /* \"#utility.yul\":7388:7399   */\n      dup2\n      dup2\n      add\n        /* \"#utility.yul\":7382:7400   */\n      mload\n        /* \"#utility.yul\":7369:7380   */\n      dup4\n      dup3\n      add\n        /* \"#utility.yul\":7362:7401   */\n      mstore\n        /* \"#utility.yul\":7334:7336   */\n      0x20\n        /* \"#utility.yul\":7327:7337   */\n      add\n        /* \"#utility.yul\":7298:7411   */\n      jump(tag_365)\n    tag_367:\n        /* \"#utility.yul\":7429:7435   */\n      dup4\n        /* \"#utility.yul\":7426:7427   */\n      dup2\n        /* \"#utility.yul\":7423:7436   */\n      gt\n        /* \"#utility.yul\":7420:7468   */\n      iszero\n      tag_368\n      jumpi\n        /* \"#utility.yul\":7464:7465   */\n      0x00\n        /* \"#utility.yul\":7455:7461   */\n      dup5\n        /* \"#utility.yul\":7450:7453   */\n      dup5\n        /* \"#utility.yul\":7446:7462   */\n      add\n        /* \"#utility.yul\":7439:7466   */\n      mstore\n        /* \"#utility.yul\":7420:7468   */\n    tag_368:\n      pop\n        /* \"#utility.yul\":7216:7474   */\n      pop\n      pop\n      pop\n      jump\t// out\n        /* \"#utility.yul\":7479:7615   */\n    tag_313:\n        /* \"#utility.yul\":7518:7521   */\n      0x00\n        /* \"#utility.yul\":7546:7551   */\n      dup2\n        /* \"#utility.yul\":7536:7575   */\n      tag_371\n      jumpi\n        /* \"#utility.yul\":7555:7573   */\n      tag_371\n      tag_360\n      jump\t// in\n    tag_371:\n      pop\n      not(0x00)\n        /* \"#utility.yul\":7591:7609   */\n      add\n      swap1\n        /* \"#utility.yul\":7479:7615   */\n      jump\t// out\n        /* \"#utility.yul\":7620:8057   */\n    tag_176:\n        /* \"#utility.yul\":7705:7706   */\n      0x02\n        /* \"#utility.yul\":7695:7707   */\n      dup2\n      div\n        /* \"#utility.yul\":7752:7753   */\n      0x01\n        /* \"#utility.yul\":7742:7754   */\n      dup3\n      and\n      dup1\n        /* \"#utility.yul\":7763:7824   */\n      tag_373\n      jumpi\n        /* \"#utility.yul\":7817:7821   */\n      0x7f\n        /* \"#utility.yul\":7809:7815   */\n      dup3\n        /* \"#utility.yul\":7805:7822   */\n      and\n        /* \"#utility.yul\":7795:7822   */\n      swap2\n      pop\n        /* \"#utility.yul\":7763:7824   */\n    tag_373:\n        /* \"#utility.yul\":7870:7872   */\n      0x20\n        /* \"#utility.yul\":7862:7868   */\n      dup3\n        /* \"#utility.yul\":7859:7873   */\n      lt\n        /* \"#utility.yul\":7839:7857   */\n      dup2\n        /* \"#utility.yul\":7836:7874   */\n      eq\n        /* \"#utility.yul\":7833:8051   */\n      iszero\n      tag_374\n      jumpi\n      mul(0x4e487b71, exp(0x02, 0xe0))\n        /* \"#utility.yul\":7904:7905   */\n      0x00\n        /* \"#utility.yul\":7897:7985   */\n      mstore\n        /* \"#utility.yul\":8008:8012   */\n      0x22\n        /* \"#utility.yul\":8005:8006   */\n      0x04\n        /* \"#utility.yul\":7998:8013   */\n      mstore\n        /* \"#utility.yul\":8036:8040   */\n      0x24\n        /* \"#utility.yul\":8033:8034   */\n      0x00\n        /* \"#utility.yul\":8026:8041   */\n      revert\n        /* \"#utility.yul\":7833:8051   */\n    tag_374:\n      pop\n        /* \"#utility.yul\":7620:8057   */\n      swap2\n      swap1\n      pop\n      jump\t// out\n        /* \"#utility.yul\":8062:8197   */\n    tag_174:\n        /* \"#utility.yul\":8101:8104   */\n      0x00\n      not(0x00)\n        /* \"#utility.yul\":8122:8139   */\n      dup3\n      eq\n        /* \"#utility.yul\":8119:8162   */\n      iszero\n      tag_377\n      jumpi\n        /* \"#utility.yul\":8142:8160   */\n      tag_377\n      tag_360\n      jump\t// in\n    tag_377:\n      pop\n        /* \"#utility.yul\":8189:8190   */\n      0x01\n        /* \"#utility.yul\":8178:8191   */\n      add\n      swap1\n        /* \"#utility.yul\":8062:8197   */\n      jump\t// out\n        /* \"#utility.yul\":8202:8386   */\n    tag_360:\n      mul(0x4e487b71, exp(0x02, 0xe0))\n        /* \"#utility.yul\":8251:8252   */\n      0x00\n        /* \"#utility.yul\":8244:8332   */\n      mstore\n        /* \"#utility.yul\":8351:8355   */\n      0x11\n        /* \"#utility.yul\":8348:8349   */\n      0x04\n        /* \"#utility.yul\":8341:8356   */\n      mstore\n        /* \"#utility.yul\":8375:8379   */\n      0x24\n        /* \"#utility.yul\":8372:8373   */\n      0x00\n        /* \"#utility.yul\":8365:8380   */\n      revert\n        /* \"#utility.yul\":8391:8575   */\n    tag_300:\n      mul(0x4e487b71, exp(0x02, 0xe0))\n        /* \"#utility.yul\":8440:8441   */\n      0x00\n        /* \"#utility.yul\":8433:8521   */\n      mstore\n        /* \"#utility.yul\":8540:8544   */\n      0x32\n        /* \"#utility.yul\":8537:8538   */\n      0x04\n        /* \"#utility.yul\":8530:8545   */\n      mstore\n        /* \"#utility.yul\":8564:8568   */\n      0x24\n        /* \"#utility.yul\":8561:8562   */\n      0x00\n        /* \"#utility.yul\":8554:8569   */\n      revert\n        /* \"#utility.yul\":8580:8764   */\n    tag_296:\n      mul(0x4e487b71, exp(0x02, 0xe0))\n        /* \"#utility.yul\":8629:8630   */\n      0x00\n        /* \"#utility.yul\":8622:8710   */\n      mstore\n        /* \"#utility.yul\":8729:8733   */\n      0x41\n        /* \"#utility.yul\":8726:8727   */\n      0x04\n        /* \"#utility.yul\":8719:8734   */\n      mstore\n        /* \"#utility.yul\":8753:8757   */\n      0x24\n        /* \"#utility.yul\":8750:8751   */\n      0x00\n        /* \"#utility.yul\":8743:8758   */\n      revert\n    stop\n    data_198bebe9962b5ee2dce0a2dd3eab4c01cd873d2542d3fc48a6e161e1a0e8d753 226c4972ab1f314d4ad7ff65fbbf70e5647a0620354d97bff1b978c4cf385edf\n\n    auxdata: 0xa26469706673582212209804c2f5aafbb1e9674b6c003b70ac746414ba645359af2e974c26c83ada275a64736f6c63430008070033\n}\n",
				"bytecode": {
					"linkReferences": {},
					"object": "600060025560c0604052600860808190527f536520566f746f2100000000000000000000000000000000000000000000000060a09081526200004591600391906200050e565b506040805180820190915260088082527f4e6f20566f746f2100000000000000000000000000000000000000000000000060209092019182526200008c916004916200050e565b506040805160808101825260018152731234567890123456789100000000000000000000602080830191825283518085018552600c81527f54726176656c616e6469616e00000000000000000000000000000000000000009181019182529383018490526000606084015282516006908155915160078054600160a060020a031916600160a060020a0390921691909117905592519192909162000133916008916200050e565b50606091820151600391909101556040805160808101825260028152731234567890123456789200000000000000000000602080830191825283518085018552600a8082527f4564756c616e6469616e00000000000000000000000000000000000000000000928201928352948401819052600095840195909552825184559051600b8054600160a060020a031916600160a060020a0390921691909117905592519092620001e691600c91906200050e565b5060609182015160039182015560408051608081018252918252731234567890123456789300000000000000000000602080840191825282518084018452600b81527f45636f6c616e6469616e320000000000000000000000000000000000000000009181019182529284018390526000948401949094528251600e9081559051600f8054600160a060020a031916600160a060020a039092169190911790559051919290916200029a916010916200050e565b50606082015181600301555050348015620002b457600080fd5b50620002db620002cc64010000000062000361810204565b64010000000062000365810204565b620002f1600033640100000000620003b5810204565b620003267f226c4972ab1f314d4ad7ff65fbbf70e5647a0620354d97bff1b978c4cf385edf33640100000000620003b5810204565b6200035b7f2172861495e7b85edac73e3cd5fbb42dd675baadf627720e687bcfdaca02509680640100000000620003ce810204565b6200060a565b3390565b60008054600160a060020a03838116600160a060020a0319831681178455604051919092169283917f8be0079c531659141344cd1fd0a4f28419497f9722a3daafe3b4186f6b6457e09190a35050565b620003ca82826401000000006200042e810204565b5050565b6000620003e483640100000000620004cd810204565b6000848152600160208190526040808320909101859055519192508391839186917fbd79b86ffe0ab8e8776151514217cd7cacd52c909f66475c3af44e129f0b00ff9190a4505050565b620004438282640100000000620004e3810204565b620003ca576000828152600160208181526040808420600160a060020a0386168552909152909120805460ff191690911790556200048964010000000062000361810204565b600160a060020a031681600160a060020a0316837f2f8788117e7eff1d82e926ec794901d17c78024a50270940304540a733656f0d60405160405180910390a45050565b6000908152600160208190526040909120015490565b6000918252600160209081526040808420600160a060020a0393909316845291905290205460ff1690565b8280546200051c90620005b4565b90600052602060002090601f0160209004810192826200054057600085556200058b565b82601f106200055b57805160ff19168380011785556200058b565b828001600101855582156200058b579182015b828111156200058b5782518255916020019190600101906200056e565b50620005999291506200059d565b5090565b5b808211156200059957600081556001016200059e565b600281046001821680620005c957607f821691505b6020821081141562000604577f4e487b7100000000000000000000000000000000000000000000000000000000600052602260045260246000fd5b50919050565b611422806200061a6000396000f3fe608060405234801561001057600080fd5b50600436106101ab576000357c010000000000000000000000000000000000000000000000000000000090048063a217fddf116100fb578063c7876434116100b4578063f222b5791161008e578063f222b57914610341578063f2fde38b14610349578063fa0c3ab81461035c578063ffd7e4e71461036457600080fd5b8063c7876434146102ff578063d391014b14610307578063d547741f1461032e57600080fd5b8063a217fddf146102d7578063ae60bb23146102df578063b1c78ebc146102e7578063b49cd0f7146101eb578063c360a03b146102ef578063c363091c146102f757600080fd5b806336568abe11610168578063715018a611610142578063715018a6146102825780638356e8e11461028a5780638da5cb5b1461029f57806391d14854146102c457600080fd5b806336568abe1461024f5780635792febf1461026257806361c78cce1461026a57600080fd5b806301ffc9a7146101b057806321606831146101d8578063226839ba146101ed578063248a9ca3146102025780632b553fb4146102345780632f2ff15d1461023c575b600080fd5b6101c36101be366004611172565b61036c565b60405190151581526020015b60405180910390f35b6101eb6101e636600461112d565b6103ff565b005b6101f56104f8565b6040516101cf919061125e565b61022661021036600461112d565b6000908152600160208190526040909120015490565b6040519081526020016101cf565b6101eb6105bf565b6101eb61024a366004611146565b6105c9565b6101eb61025d366004611146565b6105f4565b610226610683565b610272610716565b6040516101cf9493929190611271565b6101eb6107c1565b6102266000805160206113cd83398151915281565b600054600160a060020a03165b604051600160a060020a0390911681526020016101cf565b6101c36102d2366004611146565b6107d3565b610226600081565b6101f56107fe565b6101f561088c565b6102ac610899565b6101c36108f8565b6101c3610967565b6102267f2172861495e7b85edac73e3cd5fbb42dd675baadf627720e687bcfdaca02509681565b6101eb61033c366004611146565b6109d0565b6102726109f6565b6101eb610357366004611112565b610a18565b610272610aa8565b6101f5610aca565b60007bffffffffffffffffffffffffffffffffffffffffffffffffffffffff1982167f7965db0b0000000000000000000000000000000000000000000000000000000014806103f957507f01ffc9a7000000000000000000000000000000000000000000000000000000007bffffffffffffffffffffffffffffffffffffffffffffffffffffffff198316145b92915050565b33600090815260056020526040902054610100900460ff1661046b5760405160e560020a62461bcd02815260206004820152600f60248201527f4e6f2070756564657320766f746172000000000000000000000000000000000060448201526064015b60405180910390fd5b336000908152600560205260409020805460ff191660019081179091558114156104ab576001600660030160008282546104a591906112aa565b90915550505b80600214156104d0576001600a60030160008282546104ca91906112aa565b90915550505b80600314156104f5576001600e60030160008282546104ef91906112aa565b90915550505b50565b60606105126000805160206113cd833981519152336107d3565b6105875760405160e560020a62461bcd02815260206004820152602e60248201527f536f6c6f206c617320766f6c74616e746520707565646520646172746520646560448201527f726563686f20616c20566f746f2e0000000000000000000000000000000000006064820152608401610462565b5060408051808201909152601381527f456c20766f74616e746520796120766f746f2e00000000000000000000000000602082015290565b6105c7610ca8565b565b600082815260016020819052604090912001546105e581610d05565b6105ef8383610d0f565b505050565b600160a060020a03811633146106755760405160e560020a62461bcd02815260206004820152602f60248201527f416363657373436f6e74726f6c3a2063616e206f6e6c792072656e6f756e636560448201527f20726f6c657320666f722073656c6600000000000000000000000000000000006064820152608401610462565b61067f8282610d7a565b5050565b600080805b6003811161071157600d546009541180156106a65750601154600954115b156106b5576009546001935091505b600954600d541180156106cb5750601154600d54115b156106da57600d546002935091505b6009546011541180156106f05750600d54601154115b156106ff576011546003935091505b8061070981611366565b915050610688565b505090565b600a8054600b54600c80549293600160a060020a039092169261073890611328565b80601f016020809104026020016040519081016040528092919081815260200182805461076490611328565b80156107b15780601f10610786576101008083540402835291602001916107b1565b820191906000526020600020905b81548152906001019060200180831161079457829003601f168201915b5050505050908060030154905084565b6107c9610ca8565b6105c76000610de1565b6000918252600160209081526040808420600160a060020a0393909316845291905290205460ff1690565b6004805461080b90611328565b80601f016020809104026020016040519081016040528092919081815260200182805461083790611328565b80156108845780601f1061085957610100808354040283529160200191610884565b820191906000526020600020905b81548152906001019060200180831161086757829003601f168201915b505050505081565b6003805461080b90611328565b60006108a3610683565b600114156108b95750600754600160a060020a03165b6108c1610683565b600214156108d75750600b54600160a060020a03165b6108df610683565b600314156108f55750600f54600160a060020a03165b90565b60006109126000805160206113cd833981519152336107d3565b6109615760405160e560020a62461bcd02815260206004820152600860248201527f4e6f20566f746f210000000000000000000000000000000000000000000000006044820152606401610462565b50600190565b60006109816000805160206113cd833981519152336107d3565b6109615760405160e560020a62461bcd02815260206004820152600e60248201527f54752070756564657320766f746f0000000000000000000000000000000000006044820152606401610462565b600082815260016020819052604090912001546109ec81610d05565b6105ef8383610d7a565b600e8054600f54601080549293600160a060020a039092169261073890611328565b610a20610ca8565b600160a060020a038116610a9f5760405160e560020a62461bcd02815260206004820152602660248201527f4f776e61626c653a206e6577206f776e657220697320746865207a65726f206160448201527f64647265737300000000000000000000000000000000000000000000000000006064820152608401610462565b6104f581610de1565b60068054600754600880549293600160a060020a039092169261073890611328565b6060610ad4610683565b60011415610b6a5760088054610ae990611328565b80601f0160208091040260200160405190810160405280929190818152602001828054610b1590611328565b8015610b625780601f10610b3757610100808354040283529160200191610b62565b820191906000526020600020905b815481529060010190602001808311610b4557829003601f168201915b505050505090505b610b72610683565b60021415610c0857600c8054610b8790611328565b80601f0160208091040260200160405190810160405280929190818152602001828054610bb390611328565b8015610c005780601f10610bd557610100808354040283529160200191610c00565b820191906000526020600020905b815481529060010190602001808311610be357829003601f168201915b505050505090505b610c10610683565b600314156108f55760108054610c2590611328565b80601f0160208091040260200160405190810160405280929190818152602001828054610c5190611328565b8015610c9e5780601f10610c7357610100808354040283529160200191610c9e565b820191906000526020600020905b815481529060010190602001808311610c8157829003601f168201915b5050505050905090565b600054600160a060020a031633146105c75760405160e560020a62461bcd02815260206004820181905260248201527f4f776e61626c653a2063616c6c6572206973206e6f7420746865206f776e65726044820152606401610462565b6104f58133610e3e565b610d1982826107d3565b61067f576000828152600160208181526040808420600160a060020a0386168086529252808420805460ff19169093179092559051339285917f2f8788117e7eff1d82e926ec794901d17c78024a50270940304540a733656f0d9190a45050565b610d8482826107d3565b1561067f576000828152600160209081526040808320600160a060020a0385168085529252808320805460ff1916905551339285917ff6391f5c32d9c69d2a47ea670b442974b53935d1edc7fd64eb21e047a839171b9190a45050565b60008054600160a060020a0383811673ffffffffffffffffffffffffffffffffffffffff19831681178455604051919092169283917f8be0079c531659141344cd1fd0a4f28419497f9722a3daafe3b4186f6b6457e09190a35050565b610e4882826107d3565b61067f57610e6081600160a060020a03166014610ea5565b610e6b836020610ea5565b604051602001610e7c9291906111dd565b60408051601f198184030181529082905260e560020a62461bcd0282526104629160040161125e565b60606000610eb48360026112c2565b610ebf9060026112aa565b67ffffffffffffffff811115610ed757610ed76113b3565b6040519080825280601f01601f191660200182016040528015610f01576020820181803683370190505b5090507f300000000000000000000000000000000000000000000000000000000000000081600081518110610f3857610f3861139a565b60200101907effffffffffffffffffffffffffffffffffffffffffffffffffffffffffffff1916908160001a9053507f780000000000000000000000000000000000000000000000000000000000000081600181518110610f9b57610f9b61139a565b60200101907effffffffffffffffffffffffffffffffffffffffffffffffffffffffffffff1916908160001a9053506000610fd78460026112c2565b610fe29060016112aa565b90505b600181111561109d577f303132333435363738396162636465660000000000000000000000000000000085600f16601081106110235761102361139a565b1a7f0100000000000000000000000000000000000000000000000000000000000000028282815181106110585761105861139a565b60200101907effffffffffffffffffffffffffffffffffffffffffffffffffffffffffffff1916908160001a90535060109094049361109681611311565b9050610fe5565b5083156110ef5760405160e560020a62461bcd02815260206004820181905260248201527f537472696e67733a20686578206c656e67746820696e73756666696369656e746044820152606401610462565b9392505050565b8035600160a060020a038116811461110d57600080fd5b919050565b60006020828403121561112457600080fd5b6110ef826110f6565b60006020828403121561113f57600080fd5b5035919050565b6000806040838503121561115957600080fd5b82359150611169602084016110f6565b90509250929050565b60006020828403121561118457600080fd5b81357bffffffffffffffffffffffffffffffffffffffffffffffffffffffff19811681146110ef57600080fd5b600081518084526111c98160208601602086016112e1565b601f01601f19169290920160200192915050565b7f416363657373436f6e74726f6c3a206163636f756e74200000000000000000008152600083516112158160178501602088016112e1565b7f206973206d697373696e6720726f6c652000000000000000000000000000000060179184019182015283516112528160288401602088016112e1565b01602801949350505050565b6020815260006110ef60208301846111b1565b848152600160a060020a038416602082015260806040820152600061129960808301856111b1565b905082606083015295945050505050565b600082198211156112bd576112bd611381565b500190565b60008160001904831182151516156112dc576112dc611381565b500290565b60005b838110156112fc5781810151838201526020016112e4565b8381111561130b576000848401525b50505050565b60008161132057611320611381565b506000190190565b60028104600182168061133c57607f821691505b602082108114156113605760e060020a634e487b7102600052602260045260246000fd5b50919050565b600060001982141561137a5761137a611381565b5060010190565b60e060020a634e487b7102600052601160045260246000fd5b60e060020a634e487b7102600052603260045260246000fd5b60e060020a634e487b7102600052604160045260246000fdfe226c4972ab1f314d4ad7ff65fbbf70e5647a0620354d97bff1b978c4cf385edfa26469706673582212209804c2f5aafbb1e9674b6c003b70ac746414ba645359af2e974c26c83ada275a64736f6c63430008070033",
					"opcodes": "PUSH1 0x0 PUSH1 0x2 SSTORE PUSH1 0xC0 PUSH1 0x40 MSTORE PUSH1 0x8 PUSH1 0x80 DUP2 SWAP1 MSTORE PUSH32 0x536520566F746F21000000000000000000000000000000000000000000000000 PUSH1 0xA0 SWAP1 DUP2 MSTORE PUSH3 0x45 SWAP2 PUSH1 0x3 SWAP2 SWAP1 PUSH3 0x50E JUMP JUMPDEST POP PUSH1 0x40 DUP1 MLOAD DUP1 DUP3 ADD SWAP1 SWAP2 MSTORE PUSH1 0x8 DUP1 DUP3 MSTORE PUSH32 0x4E6F20566F746F21000000000000000000000000000000000000000000000000 PUSH1 0x20 SWAP1 SWAP3 ADD SWAP2 DUP3 MSTORE PUSH3 0x8C SWAP2 PUSH1 0x4 SWAP2 PUSH3 0x50E JUMP JUMPDEST POP PUSH1 0x40 DUP1 MLOAD PUSH1 0x80 DUP2 ADD DUP3 MSTORE PUSH1 0x1 DUP2 MSTORE PUSH20 0x1234567890123456789100000000000000000000 PUSH1 0x20 DUP1 DUP4 ADD SWAP2 DUP3 MSTORE DUP4 MLOAD DUP1 DUP6 ADD DUP6 MSTORE PUSH1 0xC DUP2 MSTORE PUSH32 0x54726176656C616E6469616E0000000000000000000000000000000000000000 SWAP2 DUP2 ADD SWAP2 DUP3 MSTORE SWAP4 DUP4 ADD DUP5 SWAP1 MSTORE PUSH1 0x0 PUSH1 0x60 DUP5 ADD MSTORE DUP3 MLOAD PUSH1 0x6 SWAP1 DUP2 SSTORE SWAP2 MLOAD PUSH1 0x7 DUP1 SLOAD PUSH1 0x1 PUSH1 0xA0 PUSH1 0x2 EXP SUB NOT AND PUSH1 0x1 PUSH1 0xA0 PUSH1 0x2 EXP SUB SWAP1 SWAP3 AND SWAP2 SWAP1 SWAP2 OR SWAP1 SSTORE SWAP3 MLOAD SWAP2 SWAP3 SWAP1 SWAP2 PUSH3 0x133 SWAP2 PUSH1 0x8 SWAP2 PUSH3 0x50E JUMP JUMPDEST POP PUSH1 0x60 SWAP2 DUP3 ADD MLOAD PUSH1 0x3 SWAP2 SWAP1 SWAP2 ADD SSTORE PUSH1 0x40 DUP1 MLOAD PUSH1 0x80 DUP2 ADD DUP3 MSTORE PUSH1 0x2 DUP2 MSTORE PUSH20 0x1234567890123456789200000000000000000000 PUSH1 0x20 DUP1 DUP4 ADD SWAP2 DUP3 MSTORE DUP4 MLOAD DUP1 DUP6 ADD DUP6 MSTORE PUSH1 0xA DUP1 DUP3 MSTORE PUSH32 0x4564756C616E6469616E00000000000000000000000000000000000000000000 SWAP3 DUP3 ADD SWAP3 DUP4 MSTORE SWAP5 DUP5 ADD DUP2 SWAP1 MSTORE PUSH1 0x0 SWAP6 DUP5 ADD SWAP6 SWAP1 SWAP6 MSTORE DUP3 MLOAD DUP5 SSTORE SWAP1 MLOAD PUSH1 0xB DUP1 SLOAD PUSH1 0x1 PUSH1 0xA0 PUSH1 0x2 EXP SUB NOT AND PUSH1 0x1 PUSH1 0xA0 PUSH1 0x2 EXP SUB SWAP1 SWAP3 AND SWAP2 SWAP1 SWAP2 OR SWAP1 SSTORE SWAP3 MLOAD SWAP1 SWAP3 PUSH3 0x1E6 SWAP2 PUSH1 0xC SWAP2 SWAP1 PUSH3 0x50E JUMP JUMPDEST POP PUSH1 0x60 SWAP2 DUP3 ADD MLOAD PUSH1 0x3 SWAP2 DUP3 ADD SSTORE PUSH1 0x40 DUP1 MLOAD PUSH1 0x80 DUP2 ADD DUP3 MSTORE SWAP2 DUP3 MSTORE PUSH20 0x1234567890123456789300000000000000000000 PUSH1 0x20 DUP1 DUP5 ADD SWAP2 DUP3 MSTORE DUP3 MLOAD DUP1 DUP5 ADD DUP5 MSTORE PUSH1 0xB DUP2 MSTORE PUSH32 0x45636F6C616E6469616E32000000000000000000000000000000000000000000 SWAP2 DUP2 ADD SWAP2 DUP3 MSTORE SWAP3 DUP5 ADD DUP4 SWAP1 MSTORE PUSH1 0x0 SWAP5 DUP5 ADD SWAP5 SWAP1 SWAP5 MSTORE DUP3 MLOAD PUSH1 0xE SWAP1 DUP2 SSTORE SWAP1 MLOAD PUSH1 0xF DUP1 SLOAD PUSH1 0x1 PUSH1 0xA0 PUSH1 0x2 EXP SUB NOT AND PUSH1 0x1 PUSH1 0xA0 PUSH1 0x2 EXP SUB SWAP1 SWAP3 AND SWAP2 SWAP1 SWAP2 OR SWAP1 SSTORE SWAP1 MLOAD SWAP2 SWAP3 SWAP1 SWAP2 PUSH3 0x29A SWAP2 PUSH1 0x10 SWAP2 PUSH3 0x50E JUMP JUMPDEST POP PUSH1 0x60 DUP3 ADD MLOAD DUP2 PUSH1 0x3 ADD SSTORE POP POP CALLVALUE DUP1 ISZERO PUSH3 0x2B4 JUMPI PUSH1 0x0 DUP1 REVERT JUMPDEST POP PUSH3 0x2DB PUSH3 0x2CC PUSH5 0x100000000 PUSH3 0x361 DUP2 MUL DIV JUMP JUMPDEST PUSH5 0x100000000 PUSH3 0x365 DUP2 MUL DIV JUMP JUMPDEST PUSH3 0x2F1 PUSH1 0x0 CALLER PUSH5 0x100000000 PUSH3 0x3B5 DUP2 MUL DIV JUMP JUMPDEST PUSH3 0x326 PUSH32 0x226C4972AB1F314D4AD7FF65FBBF70E5647A0620354D97BFF1B978C4CF385EDF CALLER PUSH5 0x100000000 PUSH3 0x3B5 DUP2 MUL DIV JUMP JUMPDEST PUSH3 0x35B PUSH32 0x2172861495E7B85EDAC73E3CD5FBB42DD675BAADF627720E687BCFDACA025096 DUP1 PUSH5 0x100000000 PUSH3 0x3CE DUP2 MUL DIV JUMP JUMPDEST PUSH3 0x60A JUMP JUMPDEST CALLER SWAP1 JUMP JUMPDEST PUSH1 0x0 DUP1 SLOAD PUSH1 0x1 PUSH1 0xA0 PUSH1 0x2 EXP SUB DUP4 DUP2 AND PUSH1 0x1 PUSH1 0xA0 PUSH1 0x2 EXP SUB NOT DUP4 AND DUP2 OR DUP5 SSTORE PUSH1 0x40 MLOAD SWAP2 SWAP1 SWAP3 AND SWAP3 DUP4 SWAP2 PUSH32 0x8BE0079C531659141344CD1FD0A4F28419497F9722A3DAAFE3B4186F6B6457E0 SWAP2 SWAP1 LOG3 POP POP JUMP JUMPDEST PUSH3 0x3CA DUP3 DUP3 PUSH5 0x100000000 PUSH3 0x42E DUP2 MUL DIV JUMP JUMPDEST POP POP JUMP JUMPDEST PUSH1 0x0 PUSH3 0x3E4 DUP4 PUSH5 0x100000000 PUSH3 0x4CD DUP2 MUL DIV JUMP JUMPDEST PUSH1 0x0 DUP5 DUP2 MSTORE PUSH1 0x1 PUSH1 0x20 DUP2 SWAP1 MSTORE PUSH1 0x40 DUP1 DUP4 KECCAK256 SWAP1 SWAP2 ADD DUP6 SWAP1 SSTORE MLOAD SWAP2 SWAP3 POP DUP4 SWAP2 DUP4 SWAP2 DUP7 SWAP2 PUSH32 0xBD79B86FFE0AB8E8776151514217CD7CACD52C909F66475C3AF44E129F0B00FF SWAP2 SWAP1 LOG4 POP POP POP JUMP JUMPDEST PUSH3 0x443 DUP3 DUP3 PUSH5 0x100000000 PUSH3 0x4E3 DUP2 MUL DIV JUMP JUMPDEST PUSH3 0x3CA JUMPI PUSH1 0x0 DUP3 DUP2 MSTORE PUSH1 0x1 PUSH1 0x20 DUP2 DUP2 MSTORE PUSH1 0x40 DUP1 DUP5 KECCAK256 PUSH1 0x1 PUSH1 0xA0 PUSH1 0x2 EXP SUB DUP7 AND DUP6 MSTORE SWAP1 SWAP2 MSTORE SWAP1 SWAP2 KECCAK256 DUP1 SLOAD PUSH1 0xFF NOT AND SWAP1 SWAP2 OR SWAP1 SSTORE PUSH3 0x489 PUSH5 0x100000000 PUSH3 0x361 DUP2 MUL DIV JUMP JUMPDEST PUSH1 0x1 PUSH1 0xA0 PUSH1 0x2 EXP SUB AND DUP2 PUSH1 0x1 PUSH1 0xA0 PUSH1 0x2 EXP SUB AND DUP4 PUSH32 0x2F8788117E7EFF1D82E926EC794901D17C78024A50270940304540A733656F0D PUSH1 0x40 MLOAD PUSH1 0x40 MLOAD DUP1 SWAP2 SUB SWAP1 LOG4 POP POP JUMP JUMPDEST PUSH1 0x0 SWAP1 DUP2 MSTORE PUSH1 0x1 PUSH1 0x20 DUP2 SWAP1 MSTORE PUSH1 0x40 SWAP1 SWAP2 KECCAK256 ADD SLOAD SWAP1 JUMP JUMPDEST PUSH1 0x0 SWAP2 DUP3 MSTORE PUSH1 0x1 PUSH1 0x20 SWAP1 DUP2 MSTORE PUSH1 0x40 DUP1 DUP5 KECCAK256 PUSH1 0x1 PUSH1 0xA0 PUSH1 0x2 EXP SUB SWAP4 SWAP1 SWAP4 AND DUP5 MSTORE SWAP2 SWAP1 MSTORE SWAP1 KECCAK256 SLOAD PUSH1 0xFF AND SWAP1 JUMP JUMPDEST DUP3 DUP1 SLOAD PUSH3 0x51C SWAP1 PUSH3 0x5B4 JUMP JUMPDEST SWAP1 PUSH1 0x0 MSTORE PUSH1 0x20 PUSH1 0x0 KECCAK256 SWAP1 PUSH1 0x1F ADD PUSH1 0x20 SWAP1 DIV DUP2 ADD SWAP3 DUP3 PUSH3 0x540 JUMPI PUSH1 0x0 DUP6 SSTORE PUSH3 0x58B JUMP JUMPDEST DUP3 PUSH1 0x1F LT PUSH3 0x55B JUMPI DUP1 MLOAD PUSH1 0xFF NOT AND DUP4 DUP1 ADD OR DUP6 SSTORE PUSH3 0x58B JUMP JUMPDEST DUP3 DUP1 ADD PUSH1 0x1 ADD DUP6 SSTORE DUP3 ISZERO PUSH3 0x58B JUMPI SWAP2 DUP3 ADD JUMPDEST DUP3 DUP2 GT ISZERO PUSH3 0x58B JUMPI DUP3 MLOAD DUP3 SSTORE SWAP2 PUSH1 0x20 ADD SWAP2 SWAP1 PUSH1 0x1 ADD SWAP1 PUSH3 0x56E JUMP JUMPDEST POP PUSH3 0x599 SWAP3 SWAP2 POP PUSH3 0x59D JUMP JUMPDEST POP SWAP1 JUMP JUMPDEST JUMPDEST DUP1 DUP3 GT ISZERO PUSH3 0x599 JUMPI PUSH1 0x0 DUP2 SSTORE PUSH1 0x1 ADD PUSH3 0x59E JUMP JUMPDEST PUSH1 0x2 DUP2 DIV PUSH1 0x1 DUP3 AND DUP1 PUSH3 0x5C9 JUMPI PUSH1 0x7F DUP3 AND SWAP2 POP JUMPDEST PUSH1 0x20 DUP3 LT DUP2 EQ ISZERO PUSH3 0x604 JUMPI PUSH32 0x4E487B7100000000000000000000000000000000000000000000000000000000 PUSH1 0x0 MSTORE PUSH1 0x22 PUSH1 0x4 MSTORE PUSH1 0x24 PUSH1 0x0 REVERT JUMPDEST POP SWAP2 SWAP1 POP JUMP JUMPDEST PUSH2 0x1422 DUP1 PUSH3 0x61A PUSH1 0x0 CODECOPY PUSH1 0x0 RETURN INVALID PUSH1 0x80 PUSH1 0x40 MSTORE CALLVALUE DUP1 ISZERO PUSH2 0x10 JUMPI PUSH1 0x0 DUP1 REVERT JUMPDEST POP PUSH1 0x4 CALLDATASIZE LT PUSH2 0x1AB JUMPI PUSH1 0x0 CALLDATALOAD PUSH29 0x100000000000000000000000000000000000000000000000000000000 SWAP1 DIV DUP1 PUSH4 0xA217FDDF GT PUSH2 0xFB JUMPI DUP1 PUSH4 0xC7876434 GT PUSH2 0xB4 JUMPI DUP1 PUSH4 0xF222B579 GT PUSH2 0x8E JUMPI DUP1 PUSH4 0xF222B579 EQ PUSH2 0x341 JUMPI DUP1 PUSH4 0xF2FDE38B EQ PUSH2 0x349 JUMPI DUP1 PUSH4 0xFA0C3AB8 EQ PUSH2 0x35C JUMPI DUP1 PUSH4 0xFFD7E4E7 EQ PUSH2 0x364 JUMPI PUSH1 0x0 DUP1 REVERT JUMPDEST DUP1 PUSH4 0xC7876434 EQ PUSH2 0x2FF JUMPI DUP1 PUSH4 0xD391014B EQ PUSH2 0x307 JUMPI DUP1 PUSH4 0xD547741F EQ PUSH2 0x32E JUMPI PUSH1 0x0 DUP1 REVERT JUMPDEST DUP1 PUSH4 0xA217FDDF EQ PUSH2 0x2D7 JUMPI DUP1 PUSH4 0xAE60BB23 EQ PUSH2 0x2DF JUMPI DUP1 PUSH4 0xB1C78EBC EQ PUSH2 0x2E7 JUMPI DUP1 PUSH4 0xB49CD0F7 EQ PUSH2 0x1EB JUMPI DUP1 PUSH4 0xC360A03B EQ PUSH2 0x2EF JUMPI DUP1 PUSH4 0xC363091C EQ PUSH2 0x2F7 JUMPI PUSH1 0x0 DUP1 REVERT JUMPDEST DUP1 PUSH4 0x36568ABE GT PUSH2 0x168 JUMPI DUP1 PUSH4 0x715018A6 GT PUSH2 0x142 JUMPI DUP1 PUSH4 0x715018A6 EQ PUSH2 0x282 JUMPI DUP1 PUSH4 0x8356E8E1 EQ PUSH2 0x28A JUMPI DUP1 PUSH4 0x8DA5CB5B EQ PUSH2 0x29F JUMPI DUP1 PUSH4 0x91D14854 EQ PUSH2 0x2C4 JUMPI PUSH1 0x0 DUP1 REVERT JUMPDEST DUP1 PUSH4 0x36568ABE EQ PUSH2 0x24F JUMPI DUP1 PUSH4 0x5792FEBF EQ PUSH2 0x262 JUMPI DUP1 PUSH4 0x61C78CCE EQ PUSH2 0x26A JUMPI PUSH1 0x0 DUP1 REVERT JUMPDEST DUP1 PUSH4 0x1FFC9A7 EQ PUSH2 0x1B0 JUMPI DUP1 PUSH4 0x21606831 EQ PUSH2 0x1D8 JUMPI DUP1 PUSH4 0x226839BA EQ PUSH2 0x1ED JUMPI DUP1 PUSH4 0x248A9CA3 EQ PUSH2 0x202 JUMPI DUP1 PUSH4 0x2B553FB4 EQ PUSH2 0x234 JUMPI DUP1 PUSH4 0x2F2FF15D EQ PUSH2 0x23C JUMPI JUMPDEST PUSH1 0x0 DUP1 REVERT JUMPDEST PUSH2 0x1C3 PUSH2 0x1BE CALLDATASIZE PUSH1 0x4 PUSH2 0x1172 JUMP JUMPDEST PUSH2 0x36C JUMP JUMPDEST PUSH1 0x40 MLOAD SWAP1 ISZERO ISZERO DUP2 MSTORE PUSH1 0x20 ADD JUMPDEST PUSH1 0x40 MLOAD DUP1 SWAP2 SUB SWAP1 RETURN JUMPDEST PUSH2 0x1EB PUSH2 0x1E6 CALLDATASIZE PUSH1 0x4 PUSH2 0x112D JUMP JUMPDEST PUSH2 0x3FF JUMP JUMPDEST STOP JUMPDEST PUSH2 0x1F5 PUSH2 0x4F8 JUMP JUMPDEST PUSH1 0x40 MLOAD PUSH2 0x1CF SWAP2 SWAP1 PUSH2 0x125E JUMP JUMPDEST PUSH2 0x226 PUSH2 0x210 CALLDATASIZE PUSH1 0x4 PUSH2 0x112D JUMP JUMPDEST PUSH1 0x0 SWAP1 DUP2 MSTORE PUSH1 0x1 PUSH1 0x20 DUP2 SWAP1 MSTORE PUSH1 0x40 SWAP1 SWAP2 KECCAK256 ADD SLOAD SWAP1 JUMP JUMPDEST PUSH1 0x40 MLOAD SWAP1 DUP2 MSTORE PUSH1 0x20 ADD PUSH2 0x1CF JUMP JUMPDEST PUSH2 0x1EB PUSH2 0x5BF JUMP JUMPDEST PUSH2 0x1EB PUSH2 0x24A CALLDATASIZE PUSH1 0x4 PUSH2 0x1146 JUMP JUMPDEST PUSH2 0x5C9 JUMP JUMPDEST PUSH2 0x1EB PUSH2 0x25D CALLDATASIZE PUSH1 0x4 PUSH2 0x1146 JUMP JUMPDEST PUSH2 0x5F4 JUMP JUMPDEST PUSH2 0x226 PUSH2 0x683 JUMP JUMPDEST PUSH2 0x272 PUSH2 0x716 JUMP JUMPDEST PUSH1 0x40 MLOAD PUSH2 0x1CF SWAP5 SWAP4 SWAP3 SWAP2 SWAP1 PUSH2 0x1271 JUMP JUMPDEST PUSH2 0x1EB PUSH2 0x7C1 JUMP JUMPDEST PUSH2 0x226 PUSH1 0x0 DUP1 MLOAD PUSH1 0x20 PUSH2 0x13CD DUP4 CODECOPY DUP2 MLOAD SWAP2 MSTORE DUP2 JUMP JUMPDEST PUSH1 0x0 SLOAD PUSH1 0x1 PUSH1 0xA0 PUSH1 0x2 EXP SUB AND JUMPDEST PUSH1 0x40 MLOAD PUSH1 0x1 PUSH1 0xA0 PUSH1 0x2 EXP SUB SWAP1 SWAP2 AND DUP2 MSTORE PUSH1 0x20 ADD PUSH2 0x1CF JUMP JUMPDEST PUSH2 0x1C3 PUSH2 0x2D2 CALLDATASIZE PUSH1 0x4 PUSH2 0x1146 JUMP JUMPDEST PUSH2 0x7D3 JUMP JUMPDEST PUSH2 0x226 PUSH1 0x0 DUP2 JUMP JUMPDEST PUSH2 0x1F5 PUSH2 0x7FE JUMP JUMPDEST PUSH2 0x1F5 PUSH2 0x88C JUMP JUMPDEST PUSH2 0x2AC PUSH2 0x899 JUMP JUMPDEST PUSH2 0x1C3 PUSH2 0x8F8 JUMP JUMPDEST PUSH2 0x1C3 PUSH2 0x967 JUMP JUMPDEST PUSH2 0x226 PUSH32 0x2172861495E7B85EDAC73E3CD5FBB42DD675BAADF627720E687BCFDACA025096 DUP2 JUMP JUMPDEST PUSH2 0x1EB PUSH2 0x33C CALLDATASIZE PUSH1 0x4 PUSH2 0x1146 JUMP JUMPDEST PUSH2 0x9D0 JUMP JUMPDEST PUSH2 0x272 PUSH2 0x9F6 JUMP JUMPDEST PUSH2 0x1EB PUSH2 0x357 CALLDATASIZE PUSH1 0x4 PUSH2 0x1112 JUMP JUMPDEST PUSH2 0xA18 JUMP JUMPDEST PUSH2 0x272 PUSH2 0xAA8 JUMP JUMPDEST PUSH2 0x1F5 PUSH2 0xACA JUMP JUMPDEST PUSH1 0x0 PUSH28 0xFFFFFFFFFFFFFFFFFFFFFFFFFFFFFFFFFFFFFFFFFFFFFFFFFFFFFFFF NOT DUP3 AND PUSH32 0x7965DB0B00000000000000000000000000000000000000000000000000000000 EQ DUP1 PUSH2 0x3F9 JUMPI POP PUSH32 0x1FFC9A700000000000000000000000000000000000000000000000000000000 PUSH28 0xFFFFFFFFFFFFFFFFFFFFFFFFFFFFFFFFFFFFFFFFFFFFFFFFFFFFFFFF NOT DUP4 AND EQ JUMPDEST SWAP3 SWAP2 POP POP JUMP JUMPDEST CALLER PUSH1 0x0 SWAP1 DUP2 MSTORE PUSH1 0x5 PUSH1 0x20 MSTORE PUSH1 0x40 SWAP1 KECCAK256 SLOAD PUSH2 0x100 SWAP1 DIV PUSH1 0xFF AND PUSH2 0x46B JUMPI PUSH1 0x40 MLOAD PUSH1 0xE5 PUSH1 0x2 EXP PUSH3 0x461BCD MUL DUP2 MSTORE PUSH1 0x20 PUSH1 0x4 DUP3 ADD MSTORE PUSH1 0xF PUSH1 0x24 DUP3 ADD MSTORE PUSH32 0x4E6F2070756564657320766F7461720000000000000000000000000000000000 PUSH1 0x44 DUP3 ADD MSTORE PUSH1 0x64 ADD JUMPDEST PUSH1 0x40 MLOAD DUP1 SWAP2 SUB SWAP1 REVERT JUMPDEST CALLER PUSH1 0x0 SWAP1 DUP2 MSTORE PUSH1 0x5 PUSH1 0x20 MSTORE PUSH1 0x40 SWAP1 KECCAK256 DUP1 SLOAD PUSH1 0xFF NOT AND PUSH1 0x1 SWAP1 DUP2 OR SWAP1 SWAP2 SSTORE DUP2 EQ ISZERO PUSH2 0x4AB JUMPI PUSH1 0x1 PUSH1 0x6 PUSH1 0x3 ADD PUSH1 0x0 DUP3 DUP3 SLOAD PUSH2 0x4A5 SWAP2 SWAP1 PUSH2 0x12AA JUMP JUMPDEST SWAP1 SWAP2 SSTORE POP POP JUMPDEST DUP1 PUSH1 0x2 EQ ISZERO PUSH2 0x4D0 JUMPI PUSH1 0x1 PUSH1 0xA PUSH1 0x3 ADD PUSH1 0x0 DUP3 DUP3 SLOAD PUSH2 0x4CA SWAP2 SWAP1 PUSH2 0x12AA JUMP JUMPDEST SWAP1 SWAP2 SSTORE POP POP JUMPDEST DUP1 PUSH1 0x3 EQ ISZERO PUSH2 0x4F5 JUMPI PUSH1 0x1 PUSH1 0xE PUSH1 0x3 ADD PUSH1 0x0 DUP3 DUP3 SLOAD PUSH2 0x4EF SWAP2 SWAP1 PUSH2 0x12AA JUMP JUMPDEST SWAP1 SWAP2 SSTORE POP POP JUMPDEST POP JUMP JUMPDEST PUSH1 0x60 PUSH2 0x512 PUSH1 0x0 DUP1 MLOAD PUSH1 0x20 PUSH2 0x13CD DUP4 CODECOPY DUP2 MLOAD SWAP2 MSTORE CALLER PUSH2 0x7D3 JUMP JUMPDEST PUSH2 0x587 JUMPI PUSH1 0x40 MLOAD PUSH1 0xE5 PUSH1 0x2 EXP PUSH3 0x461BCD MUL DUP2 MSTORE PUSH1 0x20 PUSH1 0x4 DUP3 ADD MSTORE PUSH1 0x2E PUSH1 0x24 DUP3 ADD MSTORE PUSH32 0x536F6C6F206C617320766F6C74616E7465207075656465206461727465206465 PUSH1 0x44 DUP3 ADD MSTORE PUSH32 0x726563686F20616C20566F746F2E000000000000000000000000000000000000 PUSH1 0x64 DUP3 ADD MSTORE PUSH1 0x84 ADD PUSH2 0x462 JUMP JUMPDEST POP PUSH1 0x40 DUP1 MLOAD DUP1 DUP3 ADD SWAP1 SWAP2 MSTORE PUSH1 0x13 DUP2 MSTORE PUSH32 0x456C20766F74616E746520796120766F746F2E00000000000000000000000000 PUSH1 0x20 DUP3 ADD MSTORE SWAP1 JUMP JUMPDEST PUSH2 0x5C7 PUSH2 0xCA8 JUMP JUMPDEST JUMP JUMPDEST PUSH1 0x0 DUP3 DUP2 MSTORE PUSH1 0x1 PUSH1 0x20 DUP2 SWAP1 MSTORE PUSH1 0x40 SWAP1 SWAP2 KECCAK256 ADD SLOAD PUSH2 0x5E5 DUP2 PUSH2 0xD05 JUMP JUMPDEST PUSH2 0x5EF DUP4 DUP4 PUSH2 0xD0F JUMP JUMPDEST POP POP POP JUMP JUMPDEST PUSH1 0x1 PUSH1 0xA0 PUSH1 0x2 EXP SUB DUP2 AND CALLER EQ PUSH2 0x675 JUMPI PUSH1 0x40 MLOAD PUSH1 0xE5 PUSH1 0x2 EXP PUSH3 0x461BCD MUL DUP2 MSTORE PUSH1 0x20 PUSH1 0x4 DUP3 ADD MSTORE PUSH1 0x2F PUSH1 0x24 DUP3 ADD MSTORE PUSH32 0x416363657373436F6E74726F6C3A2063616E206F6E6C792072656E6F756E6365 PUSH1 0x44 DUP3 ADD MSTORE PUSH32 0x20726F6C657320666F722073656C660000000000000000000000000000000000 PUSH1 0x64 DUP3 ADD MSTORE PUSH1 0x84 ADD PUSH2 0x462 JUMP JUMPDEST PUSH2 0x67F DUP3 DUP3 PUSH2 0xD7A JUMP JUMPDEST POP POP JUMP JUMPDEST PUSH1 0x0 DUP1 DUP1 JUMPDEST PUSH1 0x3 DUP2 GT PUSH2 0x711 JUMPI PUSH1 0xD SLOAD PUSH1 0x9 SLOAD GT DUP1 ISZERO PUSH2 0x6A6 JUMPI POP PUSH1 0x11 SLOAD PUSH1 0x9 SLOAD GT JUMPDEST ISZERO PUSH2 0x6B5 JUMPI PUSH1 0x9 SLOAD PUSH1 0x1 SWAP4 POP SWAP2 POP JUMPDEST PUSH1 0x9 SLOAD PUSH1 0xD SLOAD GT DUP1 ISZERO PUSH2 0x6CB JUMPI POP PUSH1 0x11 SLOAD PUSH1 0xD SLOAD GT JUMPDEST ISZERO PUSH2 0x6DA JUMPI PUSH1 0xD SLOAD PUSH1 0x2 SWAP4 POP SWAP2 POP JUMPDEST PUSH1 0x9 SLOAD PUSH1 0x11 SLOAD GT DUP1 ISZERO PUSH2 0x6F0 JUMPI POP PUSH1 0xD SLOAD PUSH1 0x11 SLOAD GT JUMPDEST ISZERO PUSH2 0x6FF JUMPI PUSH1 0x11 SLOAD PUSH1 0x3 SWAP4 POP SWAP2 POP JUMPDEST DUP1 PUSH2 0x709 DUP2 PUSH2 0x1366 JUMP JUMPDEST SWAP2 POP POP PUSH2 0x688 JUMP JUMPDEST POP POP SWAP1 JUMP JUMPDEST PUSH1 0xA DUP1 SLOAD PUSH1 0xB SLOAD PUSH1 0xC DUP1 SLOAD SWAP3 SWAP4 PUSH1 0x1 PUSH1 0xA0 PUSH1 0x2 EXP SUB SWAP1 SWAP3 AND SWAP3 PUSH2 0x738 SWAP1 PUSH2 0x1328 JUMP JUMPDEST DUP1 PUSH1 0x1F ADD PUSH1 0x20 DUP1 SWAP2 DIV MUL PUSH1 0x20 ADD PUSH1 0x40 MLOAD SWAP1 DUP2 ADD PUSH1 0x40 MSTORE DUP1 SWAP3 SWAP2 SWAP1 DUP2 DUP2 MSTORE PUSH1 0x20 ADD DUP3 DUP1 SLOAD PUSH2 0x764 SWAP1 PUSH2 0x1328 JUMP JUMPDEST DUP1 ISZERO PUSH2 0x7B1 JUMPI DUP1 PUSH1 0x1F LT PUSH2 0x786 JUMPI PUSH2 0x100 DUP1 DUP4 SLOAD DIV MUL DUP4 MSTORE SWAP2 PUSH1 0x20 ADD SWAP2 PUSH2 0x7B1 JUMP JUMPDEST DUP3 ADD SWAP2 SWAP1 PUSH1 0x0 MSTORE PUSH1 0x20 PUSH1 0x0 KECCAK256 SWAP1 JUMPDEST DUP2 SLOAD DUP2 MSTORE SWAP1 PUSH1 0x1 ADD SWAP1 PUSH1 0x20 ADD DUP1 DUP4 GT PUSH2 0x794 JUMPI DUP3 SWAP1 SUB PUSH1 0x1F AND DUP3 ADD SWAP2 JUMPDEST POP POP POP POP POP SWAP1 DUP1 PUSH1 0x3 ADD SLOAD SWAP1 POP DUP5 JUMP JUMPDEST PUSH2 0x7C9 PUSH2 0xCA8 JUMP JUMPDEST PUSH2 0x5C7 PUSH1 0x0 PUSH2 0xDE1 JUMP JUMPDEST PUSH1 0x0 SWAP2 DUP3 MSTORE PUSH1 0x1 PUSH1 0x20 SWAP1 DUP2 MSTORE PUSH1 0x40 DUP1 DUP5 KECCAK256 PUSH1 0x1 PUSH1 0xA0 PUSH1 0x2 EXP SUB SWAP4 SWAP1 SWAP4 AND DUP5 MSTORE SWAP2 SWAP1 MSTORE SWAP1 KECCAK256 SLOAD PUSH1 0xFF AND SWAP1 JUMP JUMPDEST PUSH1 0x4 DUP1 SLOAD PUSH2 0x80B SWAP1 PUSH2 0x1328 JUMP JUMPDEST DUP1 PUSH1 0x1F ADD PUSH1 0x20 DUP1 SWAP2 DIV MUL PUSH1 0x20 ADD PUSH1 0x40 MLOAD SWAP1 DUP2 ADD PUSH1 0x40 MSTORE DUP1 SWAP3 SWAP2 SWAP1 DUP2 DUP2 MSTORE PUSH1 0x20 ADD DUP3 DUP1 SLOAD PUSH2 0x837 SWAP1 PUSH2 0x1328 JUMP JUMPDEST DUP1 ISZERO PUSH2 0x884 JUMPI DUP1 PUSH1 0x1F LT PUSH2 0x859 JUMPI PUSH2 0x100 DUP1 DUP4 SLOAD DIV MUL DUP4 MSTORE SWAP2 PUSH1 0x20 ADD SWAP2 PUSH2 0x884 JUMP JUMPDEST DUP3 ADD SWAP2 SWAP1 PUSH1 0x0 MSTORE PUSH1 0x20 PUSH1 0x0 KECCAK256 SWAP1 JUMPDEST DUP2 SLOAD DUP2 MSTORE SWAP1 PUSH1 0x1 ADD SWAP1 PUSH1 0x20 ADD DUP1 DUP4 GT PUSH2 0x867 JUMPI DUP3 SWAP1 SUB PUSH1 0x1F AND DUP3 ADD SWAP2 JUMPDEST POP POP POP POP POP DUP2 JUMP JUMPDEST PUSH1 0x3 DUP1 SLOAD PUSH2 0x80B SWAP1 PUSH2 0x1328 JUMP JUMPDEST PUSH1 0x0 PUSH2 0x8A3 PUSH2 0x683 JUMP JUMPDEST PUSH1 0x1 EQ ISZERO PUSH2 0x8B9 JUMPI POP PUSH1 0x7 SLOAD PUSH1 0x1 PUSH1 0xA0 PUSH1 0x2 EXP SUB AND JUMPDEST PUSH2 0x8C1 PUSH2 0x683 JUMP JUMPDEST PUSH1 0x2 EQ ISZERO PUSH2 0x8D7 JUMPI POP PUSH1 0xB SLOAD PUSH1 0x1 PUSH1 0xA0 PUSH1 0x2 EXP SUB AND JUMPDEST PUSH2 0x8DF PUSH2 0x683 JUMP JUMPDEST PUSH1 0x3 EQ ISZERO PUSH2 0x8F5 JUMPI POP PUSH1 0xF SLOAD PUSH1 0x1 PUSH1 0xA0 PUSH1 0x2 EXP SUB AND JUMPDEST SWAP1 JUMP JUMPDEST PUSH1 0x0 PUSH2 0x912 PUSH1 0x0 DUP1 MLOAD PUSH1 0x20 PUSH2 0x13CD DUP4 CODECOPY DUP2 MLOAD SWAP2 MSTORE CALLER PUSH2 0x7D3 JUMP JUMPDEST PUSH2 0x961 JUMPI PUSH1 0x40 MLOAD PUSH1 0xE5 PUSH1 0x2 EXP PUSH3 0x461BCD MUL DUP2 MSTORE PUSH1 0x20 PUSH1 0x4 DUP3 ADD MSTORE PUSH1 0x8 PUSH1 0x24 DUP3 ADD MSTORE PUSH32 0x4E6F20566F746F21000000000000000000000000000000000000000000000000 PUSH1 0x44 DUP3 ADD MSTORE PUSH1 0x64 ADD PUSH2 0x462 JUMP JUMPDEST POP PUSH1 0x1 SWAP1 JUMP JUMPDEST PUSH1 0x0 PUSH2 0x981 PUSH1 0x0 DUP1 MLOAD PUSH1 0x20 PUSH2 0x13CD DUP4 CODECOPY DUP2 MLOAD SWAP2 MSTORE CALLER PUSH2 0x7D3 JUMP JUMPDEST PUSH2 0x961 JUMPI PUSH1 0x40 MLOAD PUSH1 0xE5 PUSH1 0x2 EXP PUSH3 0x461BCD MUL DUP2 MSTORE PUSH1 0x20 PUSH1 0x4 DUP3 ADD MSTORE PUSH1 0xE PUSH1 0x24 DUP3 ADD MSTORE PUSH32 0x54752070756564657320766F746F000000000000000000000000000000000000 PUSH1 0x44 DUP3 ADD MSTORE PUSH1 0x64 ADD PUSH2 0x462 JUMP JUMPDEST PUSH1 0x0 DUP3 DUP2 MSTORE PUSH1 0x1 PUSH1 0x20 DUP2 SWAP1 MSTORE PUSH1 0x40 SWAP1 SWAP2 KECCAK256 ADD SLOAD PUSH2 0x9EC DUP2 PUSH2 0xD05 JUMP JUMPDEST PUSH2 0x5EF DUP4 DUP4 PUSH2 0xD7A JUMP JUMPDEST PUSH1 0xE DUP1 SLOAD PUSH1 0xF SLOAD PUSH1 0x10 DUP1 SLOAD SWAP3 SWAP4 PUSH1 0x1 PUSH1 0xA0 PUSH1 0x2 EXP SUB SWAP1 SWAP3 AND SWAP3 PUSH2 0x738 SWAP1 PUSH2 0x1328 JUMP JUMPDEST PUSH2 0xA20 PUSH2 0xCA8 JUMP JUMPDEST PUSH1 0x1 PUSH1 0xA0 PUSH1 0x2 EXP SUB DUP2 AND PUSH2 0xA9F JUMPI PUSH1 0x40 MLOAD PUSH1 0xE5 PUSH1 0x2 EXP PUSH3 0x461BCD MUL DUP2 MSTORE PUSH1 0x20 PUSH1 0x4 DUP3 ADD MSTORE PUSH1 0x26 PUSH1 0x24 DUP3 ADD MSTORE PUSH32 0x4F776E61626C653A206E6577206F776E657220697320746865207A65726F2061 PUSH1 0x44 DUP3 ADD MSTORE PUSH32 0x6464726573730000000000000000000000000000000000000000000000000000 PUSH1 0x64 DUP3 ADD MSTORE PUSH1 0x84 ADD PUSH2 0x462 JUMP JUMPDEST PUSH2 0x4F5 DUP2 PUSH2 0xDE1 JUMP JUMPDEST PUSH1 0x6 DUP1 SLOAD PUSH1 0x7 SLOAD PUSH1 0x8 DUP1 SLOAD SWAP3 SWAP4 PUSH1 0x1 PUSH1 0xA0 PUSH1 0x2 EXP SUB SWAP1 SWAP3 AND SWAP3 PUSH2 0x738 SWAP1 PUSH2 0x1328 JUMP JUMPDEST PUSH1 0x60 PUSH2 0xAD4 PUSH2 0x683 JUMP JUMPDEST PUSH1 0x1 EQ ISZERO PUSH2 0xB6A JUMPI PUSH1 0x8 DUP1 SLOAD PUSH2 0xAE9 SWAP1 PUSH2 0x1328 JUMP JUMPDEST DUP1 PUSH1 0x1F ADD PUSH1 0x20 DUP1 SWAP2 DIV MUL PUSH1 0x20 ADD PUSH1 0x40 MLOAD SWAP1 DUP2 ADD PUSH1 0x40 MSTORE DUP1 SWAP3 SWAP2 SWAP1 DUP2 DUP2 MSTORE PUSH1 0x20 ADD DUP3 DUP1 SLOAD PUSH2 0xB15 SWAP1 PUSH2 0x1328 JUMP JUMPDEST DUP1 ISZERO PUSH2 0xB62 JUMPI DUP1 PUSH1 0x1F LT PUSH2 0xB37 JUMPI PUSH2 0x100 DUP1 DUP4 SLOAD DIV MUL DUP4 MSTORE SWAP2 PUSH1 0x20 ADD SWAP2 PUSH2 0xB62 JUMP JUMPDEST DUP3 ADD SWAP2 SWAP1 PUSH1 0x0 MSTORE PUSH1 0x20 PUSH1 0x0 KECCAK256 SWAP1 JUMPDEST DUP2 SLOAD DUP2 MSTORE SWAP1 PUSH1 0x1 ADD SWAP1 PUSH1 0x20 ADD DUP1 DUP4 GT PUSH2 0xB45 JUMPI DUP3 SWAP1 SUB PUSH1 0x1F AND DUP3 ADD SWAP2 JUMPDEST POP POP POP POP POP SWAP1 POP JUMPDEST PUSH2 0xB72 PUSH2 0x683 JUMP JUMPDEST PUSH1 0x2 EQ ISZERO PUSH2 0xC08 JUMPI PUSH1 0xC DUP1 SLOAD PUSH2 0xB87 SWAP1 PUSH2 0x1328 JUMP JUMPDEST DUP1 PUSH1 0x1F ADD PUSH1 0x20 DUP1 SWAP2 DIV MUL PUSH1 0x20 ADD PUSH1 0x40 MLOAD SWAP1 DUP2 ADD PUSH1 0x40 MSTORE DUP1 SWAP3 SWAP2 SWAP1 DUP2 DUP2 MSTORE PUSH1 0x20 ADD DUP3 DUP1 SLOAD PUSH2 0xBB3 SWAP1 PUSH2 0x1328 JUMP JUMPDEST DUP1 ISZERO PUSH2 0xC00 JUMPI DUP1 PUSH1 0x1F LT PUSH2 0xBD5 JUMPI PUSH2 0x100 DUP1 DUP4 SLOAD DIV MUL DUP4 MSTORE SWAP2 PUSH1 0x20 ADD SWAP2 PUSH2 0xC00 JUMP JUMPDEST DUP3 ADD SWAP2 SWAP1 PUSH1 0x0 MSTORE PUSH1 0x20 PUSH1 0x0 KECCAK256 SWAP1 JUMPDEST DUP2 SLOAD DUP2 MSTORE SWAP1 PUSH1 0x1 ADD SWAP1 PUSH1 0x20 ADD DUP1 DUP4 GT PUSH2 0xBE3 JUMPI DUP3 SWAP1 SUB PUSH1 0x1F AND DUP3 ADD SWAP2 JUMPDEST POP POP POP POP POP SWAP1 POP JUMPDEST PUSH2 0xC10 PUSH2 0x683 JUMP JUMPDEST PUSH1 0x3 EQ ISZERO PUSH2 0x8F5 JUMPI PUSH1 0x10 DUP1 SLOAD PUSH2 0xC25 SWAP1 PUSH2 0x1328 JUMP JUMPDEST DUP1 PUSH1 0x1F ADD PUSH1 0x20 DUP1 SWAP2 DIV MUL PUSH1 0x20 ADD PUSH1 0x40 MLOAD SWAP1 DUP2 ADD PUSH1 0x40 MSTORE DUP1 SWAP3 SWAP2 SWAP1 DUP2 DUP2 MSTORE PUSH1 0x20 ADD DUP3 DUP1 SLOAD PUSH2 0xC51 SWAP1 PUSH2 0x1328 JUMP JUMPDEST DUP1 ISZERO PUSH2 0xC9E JUMPI DUP1 PUSH1 0x1F LT PUSH2 0xC73 JUMPI PUSH2 0x100 DUP1 DUP4 SLOAD DIV MUL DUP4 MSTORE SWAP2 PUSH1 0x20 ADD SWAP2 PUSH2 0xC9E JUMP JUMPDEST DUP3 ADD SWAP2 SWAP1 PUSH1 0x0 MSTORE PUSH1 0x20 PUSH1 0x0 KECCAK256 SWAP1 JUMPDEST DUP2 SLOAD DUP2 MSTORE SWAP1 PUSH1 0x1 ADD SWAP1 PUSH1 0x20 ADD DUP1 DUP4 GT PUSH2 0xC81 JUMPI DUP3 SWAP1 SUB PUSH1 0x1F AND DUP3 ADD SWAP2 JUMPDEST POP POP POP POP POP SWAP1 POP SWAP1 JUMP JUMPDEST PUSH1 0x0 SLOAD PUSH1 0x1 PUSH1 0xA0 PUSH1 0x2 EXP SUB AND CALLER EQ PUSH2 0x5C7 JUMPI PUSH1 0x40 MLOAD PUSH1 0xE5 PUSH1 0x2 EXP PUSH3 0x461BCD MUL DUP2 MSTORE PUSH1 0x20 PUSH1 0x4 DUP3 ADD DUP2 SWAP1 MSTORE PUSH1 0x24 DUP3 ADD MSTORE PUSH32 0x4F776E61626C653A2063616C6C6572206973206E6F7420746865206F776E6572 PUSH1 0x44 DUP3 ADD MSTORE PUSH1 0x64 ADD PUSH2 0x462 JUMP JUMPDEST PUSH2 0x4F5 DUP2 CALLER PUSH2 0xE3E JUMP JUMPDEST PUSH2 0xD19 DUP3 DUP3 PUSH2 0x7D3 JUMP JUMPDEST PUSH2 0x67F JUMPI PUSH1 0x0 DUP3 DUP2 MSTORE PUSH1 0x1 PUSH1 0x20 DUP2 DUP2 MSTORE PUSH1 0x40 DUP1 DUP5 KECCAK256 PUSH1 0x1 PUSH1 0xA0 PUSH1 0x2 EXP SUB DUP7 AND DUP1 DUP7 MSTORE SWAP3 MSTORE DUP1 DUP5 KECCAK256 DUP1 SLOAD PUSH1 0xFF NOT AND SWAP1 SWAP4 OR SWAP1 SWAP3 SSTORE SWAP1 MLOAD CALLER SWAP3 DUP6 SWAP2 PUSH32 0x2F8788117E7EFF1D82E926EC794901D17C78024A50270940304540A733656F0D SWAP2 SWAP1 LOG4 POP POP JUMP JUMPDEST PUSH2 0xD84 DUP3 DUP3 PUSH2 0x7D3 JUMP JUMPDEST ISZERO PUSH2 0x67F JUMPI PUSH1 0x0 DUP3 DUP2 MSTORE PUSH1 0x1 PUSH1 0x20 SWAP1 DUP2 MSTORE PUSH1 0x40 DUP1 DUP4 KECCAK256 PUSH1 0x1 PUSH1 0xA0 PUSH1 0x2 EXP SUB DUP6 AND DUP1 DUP6 MSTORE SWAP3 MSTORE DUP1 DUP4 KECCAK256 DUP1 SLOAD PUSH1 0xFF NOT AND SWAP1 SSTORE MLOAD CALLER SWAP3 DUP6 SWAP2 PUSH32 0xF6391F5C32D9C69D2A47EA670B442974B53935D1EDC7FD64EB21E047A839171B SWAP2 SWAP1 LOG4 POP POP JUMP JUMPDEST PUSH1 0x0 DUP1 SLOAD PUSH1 0x1 PUSH1 0xA0 PUSH1 0x2 EXP SUB DUP4 DUP2 AND PUSH20 0xFFFFFFFFFFFFFFFFFFFFFFFFFFFFFFFFFFFFFFFF NOT DUP4 AND DUP2 OR DUP5 SSTORE PUSH1 0x40 MLOAD SWAP2 SWAP1 SWAP3 AND SWAP3 DUP4 SWAP2 PUSH32 0x8BE0079C531659141344CD1FD0A4F28419497F9722A3DAAFE3B4186F6B6457E0 SWAP2 SWAP1 LOG3 POP POP JUMP JUMPDEST PUSH2 0xE48 DUP3 DUP3 PUSH2 0x7D3 JUMP JUMPDEST PUSH2 0x67F JUMPI PUSH2 0xE60 DUP2 PUSH1 0x1 PUSH1 0xA0 PUSH1 0x2 EXP SUB AND PUSH1 0x14 PUSH2 0xEA5 JUMP JUMPDEST PUSH2 0xE6B DUP4 PUSH1 0x20 PUSH2 0xEA5 JUMP JUMPDEST PUSH1 0x40 MLOAD PUSH1 0x20 ADD PUSH2 0xE7C SWAP3 SWAP2 SWAP1 PUSH2 0x11DD JUMP JUMPDEST PUSH1 0x40 DUP1 MLOAD PUSH1 0x1F NOT DUP2 DUP5 SUB ADD DUP2 MSTORE SWAP1 DUP3 SWAP1 MSTORE PUSH1 0xE5 PUSH1 0x2 EXP PUSH3 0x461BCD MUL DUP3 MSTORE PUSH2 0x462 SWAP2 PUSH1 0x4 ADD PUSH2 0x125E JUMP JUMPDEST PUSH1 0x60 PUSH1 0x0 PUSH2 0xEB4 DUP4 PUSH1 0x2 PUSH2 0x12C2 JUMP JUMPDEST PUSH2 0xEBF SWAP1 PUSH1 0x2 PUSH2 0x12AA JUMP JUMPDEST PUSH8 0xFFFFFFFFFFFFFFFF DUP2 GT ISZERO PUSH2 0xED7 JUMPI PUSH2 0xED7 PUSH2 0x13B3 JUMP JUMPDEST PUSH1 0x40 MLOAD SWAP1 DUP1 DUP3 MSTORE DUP1 PUSH1 0x1F ADD PUSH1 0x1F NOT AND PUSH1 0x20 ADD DUP3 ADD PUSH1 0x40 MSTORE DUP1 ISZERO PUSH2 0xF01 JUMPI PUSH1 0x20 DUP3 ADD DUP2 DUP1 CALLDATASIZE DUP4 CALLDATACOPY ADD SWAP1 POP JUMPDEST POP SWAP1 POP PUSH32 0x3000000000000000000000000000000000000000000000000000000000000000 DUP2 PUSH1 0x0 DUP2 MLOAD DUP2 LT PUSH2 0xF38 JUMPI PUSH2 0xF38 PUSH2 0x139A JUMP JUMPDEST PUSH1 0x20 ADD ADD SWAP1 PUSH31 0xFFFFFFFFFFFFFFFFFFFFFFFFFFFFFFFFFFFFFFFFFFFFFFFFFFFFFFFFFFFFFF NOT AND SWAP1 DUP2 PUSH1 0x0 BYTE SWAP1 MSTORE8 POP PUSH32 0x7800000000000000000000000000000000000000000000000000000000000000 DUP2 PUSH1 0x1 DUP2 MLOAD DUP2 LT PUSH2 0xF9B JUMPI PUSH2 0xF9B PUSH2 0x139A JUMP JUMPDEST PUSH1 0x20 ADD ADD SWAP1 PUSH31 0xFFFFFFFFFFFFFFFFFFFFFFFFFFFFFFFFFFFFFFFFFFFFFFFFFFFFFFFFFFFFFF NOT AND SWAP1 DUP2 PUSH1 0x0 BYTE SWAP1 MSTORE8 POP PUSH1 0x0 PUSH2 0xFD7 DUP5 PUSH1 0x2 PUSH2 0x12C2 JUMP JUMPDEST PUSH2 0xFE2 SWAP1 PUSH1 0x1 PUSH2 0x12AA JUMP JUMPDEST SWAP1 POP JUMPDEST PUSH1 0x1 DUP2 GT ISZERO PUSH2 0x109D JUMPI PUSH32 0x3031323334353637383961626364656600000000000000000000000000000000 DUP6 PUSH1 0xF AND PUSH1 0x10 DUP2 LT PUSH2 0x1023 JUMPI PUSH2 0x1023 PUSH2 0x139A JUMP JUMPDEST BYTE PUSH32 0x100000000000000000000000000000000000000000000000000000000000000 MUL DUP3 DUP3 DUP2 MLOAD DUP2 LT PUSH2 0x1058 JUMPI PUSH2 0x1058 PUSH2 0x139A JUMP JUMPDEST PUSH1 0x20 ADD ADD SWAP1 PUSH31 0xFFFFFFFFFFFFFFFFFFFFFFFFFFFFFFFFFFFFFFFFFFFFFFFFFFFFFFFFFFFFFF NOT AND SWAP1 DUP2 PUSH1 0x0 BYTE SWAP1 MSTORE8 POP PUSH1 0x10 SWAP1 SWAP5 DIV SWAP4 PUSH2 0x1096 DUP2 PUSH2 0x1311 JUMP JUMPDEST SWAP1 POP PUSH2 0xFE5 JUMP JUMPDEST POP DUP4 ISZERO PUSH2 0x10EF JUMPI PUSH1 0x40 MLOAD PUSH1 0xE5 PUSH1 0x2 EXP PUSH3 0x461BCD MUL DUP2 MSTORE PUSH1 0x20 PUSH1 0x4 DUP3 ADD DUP2 SWAP1 MSTORE PUSH1 0x24 DUP3 ADD MSTORE PUSH32 0x537472696E67733A20686578206C656E67746820696E73756666696369656E74 PUSH1 0x44 DUP3 ADD MSTORE PUSH1 0x64 ADD PUSH2 0x462 JUMP JUMPDEST SWAP4 SWAP3 POP POP POP JUMP JUMPDEST DUP1 CALLDATALOAD PUSH1 0x1 PUSH1 0xA0 PUSH1 0x2 EXP SUB DUP2 AND DUP2 EQ PUSH2 0x110D JUMPI PUSH1 0x0 DUP1 REVERT JUMPDEST SWAP2 SWAP1 POP JUMP JUMPDEST PUSH1 0x0 PUSH1 0x20 DUP3 DUP5 SUB SLT ISZERO PUSH2 0x1124 JUMPI PUSH1 0x0 DUP1 REVERT JUMPDEST PUSH2 0x10EF DUP3 PUSH2 0x10F6 JUMP JUMPDEST PUSH1 0x0 PUSH1 0x20 DUP3 DUP5 SUB SLT ISZERO PUSH2 0x113F JUMPI PUSH1 0x0 DUP1 REVERT JUMPDEST POP CALLDATALOAD SWAP2 SWAP1 POP JUMP JUMPDEST PUSH1 0x0 DUP1 PUSH1 0x40 DUP4 DUP6 SUB SLT ISZERO PUSH2 0x1159 JUMPI PUSH1 0x0 DUP1 REVERT JUMPDEST DUP3 CALLDATALOAD SWAP2 POP PUSH2 0x1169 PUSH1 0x20 DUP5 ADD PUSH2 0x10F6 JUMP JUMPDEST SWAP1 POP SWAP3 POP SWAP3 SWAP1 POP JUMP JUMPDEST PUSH1 0x0 PUSH1 0x20 DUP3 DUP5 SUB SLT ISZERO PUSH2 0x1184 JUMPI PUSH1 0x0 DUP1 REVERT JUMPDEST DUP2 CALLDATALOAD PUSH28 0xFFFFFFFFFFFFFFFFFFFFFFFFFFFFFFFFFFFFFFFFFFFFFFFFFFFFFFFF NOT DUP2 AND DUP2 EQ PUSH2 0x10EF JUMPI PUSH1 0x0 DUP1 REVERT JUMPDEST PUSH1 0x0 DUP2 MLOAD DUP1 DUP5 MSTORE PUSH2 0x11C9 DUP2 PUSH1 0x20 DUP7 ADD PUSH1 0x20 DUP7 ADD PUSH2 0x12E1 JUMP JUMPDEST PUSH1 0x1F ADD PUSH1 0x1F NOT AND SWAP3 SWAP1 SWAP3 ADD PUSH1 0x20 ADD SWAP3 SWAP2 POP POP JUMP JUMPDEST PUSH32 0x416363657373436F6E74726F6C3A206163636F756E7420000000000000000000 DUP2 MSTORE PUSH1 0x0 DUP4 MLOAD PUSH2 0x1215 DUP2 PUSH1 0x17 DUP6 ADD PUSH1 0x20 DUP9 ADD PUSH2 0x12E1 JUMP JUMPDEST PUSH32 0x206973206D697373696E6720726F6C6520000000000000000000000000000000 PUSH1 0x17 SWAP2 DUP5 ADD SWAP2 DUP3 ADD MSTORE DUP4 MLOAD PUSH2 0x1252 DUP2 PUSH1 0x28 DUP5 ADD PUSH1 0x20 DUP9 ADD PUSH2 0x12E1 JUMP JUMPDEST ADD PUSH1 0x28 ADD SWAP5 SWAP4 POP POP POP POP JUMP JUMPDEST PUSH1 0x20 DUP2 MSTORE PUSH1 0x0 PUSH2 0x10EF PUSH1 0x20 DUP4 ADD DUP5 PUSH2 0x11B1 JUMP JUMPDEST DUP5 DUP2 MSTORE PUSH1 0x1 PUSH1 0xA0 PUSH1 0x2 EXP SUB DUP5 AND PUSH1 0x20 DUP3 ADD MSTORE PUSH1 0x80 PUSH1 0x40 DUP3 ADD MSTORE PUSH1 0x0 PUSH2 0x1299 PUSH1 0x80 DUP4 ADD DUP6 PUSH2 0x11B1 JUMP JUMPDEST SWAP1 POP DUP3 PUSH1 0x60 DUP4 ADD MSTORE SWAP6 SWAP5 POP POP POP POP POP JUMP JUMPDEST PUSH1 0x0 DUP3 NOT DUP3 GT ISZERO PUSH2 0x12BD JUMPI PUSH2 0x12BD PUSH2 0x1381 JUMP JUMPDEST POP ADD SWAP1 JUMP JUMPDEST PUSH1 0x0 DUP2 PUSH1 0x0 NOT DIV DUP4 GT DUP3 ISZERO ISZERO AND ISZERO PUSH2 0x12DC JUMPI PUSH2 0x12DC PUSH2 0x1381 JUMP JUMPDEST POP MUL SWAP1 JUMP JUMPDEST PUSH1 0x0 JUMPDEST DUP4 DUP2 LT ISZERO PUSH2 0x12FC JUMPI DUP2 DUP2 ADD MLOAD DUP4 DUP3 ADD MSTORE PUSH1 0x20 ADD PUSH2 0x12E4 JUMP JUMPDEST DUP4 DUP2 GT ISZERO PUSH2 0x130B JUMPI PUSH1 0x0 DUP5 DUP5 ADD MSTORE JUMPDEST POP POP POP POP JUMP JUMPDEST PUSH1 0x0 DUP2 PUSH2 0x1320 JUMPI PUSH2 0x1320 PUSH2 0x1381 JUMP JUMPDEST POP PUSH1 0x0 NOT ADD SWAP1 JUMP JUMPDEST PUSH1 0x2 DUP2 DIV PUSH1 0x1 DUP3 AND DUP1 PUSH2 0x133C JUMPI PUSH1 0x7F DUP3 AND SWAP2 POP JUMPDEST PUSH1 0x20 DUP3 LT DUP2 EQ ISZERO PUSH2 0x1360 JUMPI PUSH1 0xE0 PUSH1 0x2 EXP PUSH4 0x4E487B71 MUL PUSH1 0x0 MSTORE PUSH1 0x22 PUSH1 0x4 MSTORE PUSH1 0x24 PUSH1 0x0 REVERT JUMPDEST POP SWAP2 SWAP1 POP JUMP JUMPDEST PUSH1 0x0 PUSH1 0x0 NOT DUP3 EQ ISZERO PUSH2 0x137A JUMPI PUSH2 0x137A PUSH2 0x1381 JUMP JUMPDEST POP PUSH1 0x1 ADD SWAP1 JUMP JUMPDEST PUSH1 0xE0 PUSH1 0x2 EXP PUSH4 0x4E487B71 MUL PUSH1 0x0 MSTORE PUSH1 0x11 PUSH1 0x4 MSTORE PUSH1 0x24 PUSH1 0x0 REVERT JUMPDEST PUSH1 0xE0 PUSH1 0x2 EXP PUSH4 0x4E487B71 MUL PUSH1 0x0 MSTORE PUSH1 0x32 PUSH1 0x4 MSTORE PUSH1 0x24 PUSH1 0x0 REVERT JUMPDEST PUSH1 0xE0 PUSH1 0x2 EXP PUSH4 0x4E487B71 MUL PUSH1 0x0 MSTORE PUSH1 0x41 PUSH1 0x4 MSTORE PUSH1 0x24 PUSH1 0x0 REVERT INVALID 0x22 PUSH13 0x4972AB1F314D4AD7FF65FBBF70 0xE5 PUSH5 0x7A0620354D SWAP8 0xBF CALL 0xB9 PUSH25 0xC4CF385EDFA26469706673582212209804C2F5AAFBB1E9674B PUSH13 0x3B70AC746414BA645359AF2E SWAP8 0x4C 0x26 0xC8 GASPRICE 0xDA 0x27 GAS PUSH5 0x736F6C6343 STOP ADDMOD SMOD STOP CALLER "
				},
				"gasEstimates": {
					"creation": {
						"codeDepositCost": "1030800",
						"executionCost": "infinite",
						"totalCost": "infinite"
					},
					"external": {
						"DEFAULT_ADMIN_ROLE()": "223",
						"ROLE_ADMIN()": "267",
						"ROLE_VOLTANTE()": "infinite",
						"addressGanador()": "infinite",
						"candidato1()": "infinite",
						"candidato2()": "infinite",
						"candidato3()": "infinite",
						"candidatoGanador()": "infinite",
						"derechoVoto()": "infinite",
						"duenoChecar()": "infinite",
						"getRoleAdmin(bytes32)": "645",
						"grantRole(bytes32,address)": "infinite",
						"hasRole(bytes32,address)": "984",
						"nombreGanador()": "infinite",
						"normalCosa()": "214",
						"owner()": "628",
						"permisoVotar()": "infinite",
						"renounceOwnership()": "infinite",
						"renounceRole(bytes32,address)": "23380",
						"revokeRole(bytes32,address)": "infinite",
						"supportsInterface(bytes4)": "407",
						"transferOwnership(address)": "22720",
						"votar(uint256)": "infinite",
						"voto()": "infinite",
						"votoBueno()": "infinite",
						"votoMalo()": "infinite"
					}
				},
				"methodIdentifiers": {
					"DEFAULT_ADMIN_ROLE()": "a217fddf",
					"ROLE_ADMIN()": "d391014b",
					"ROLE_VOLTANTE()": "8356e8e1",
					"addressGanador()": "c360a03b",
					"candidato1()": "fa0c3ab8",
					"candidato2()": "61c78cce",
					"candidato3()": "f222b579",
					"candidatoGanador()": "5792febf",
					"derechoVoto()": "226839ba",
					"duenoChecar()": "2b553fb4",
					"getRoleAdmin(bytes32)": "248a9ca3",
					"grantRole(bytes32,address)": "2f2ff15d",
					"hasRole(bytes32,address)": "91d14854",
					"nombreGanador()": "ffd7e4e7",
					"normalCosa()": "b49cd0f7",
					"owner()": "8da5cb5b",
					"permisoVotar()": "c363091c",
					"renounceOwnership()": "715018a6",
					"renounceRole(bytes32,address)": "36568abe",
					"revokeRole(bytes32,address)": "d547741f",
					"supportsInterface(bytes4)": "01ffc9a7",
					"transferOwnership(address)": "f2fde38b",
					"votar(uint256)": "21606831",
					"voto()": "c7876434",
					"votoBueno()": "b1c78ebc",
					"votoMalo()": "ae60bb23"
				}
			},
			"storageLayout": {
				"storage": [
					{
						"astId": 400,
						"contract": "votes.sol:projectVotes",
						"label": "_owner",
						"offset": 0,
						"slot": "0",
						"type": "t_address"
					},
					{
						"astId": 24,
						"contract": "votes.sol:projectVotes",
						"label": "_roles",
						"offset": 0,
						"slot": "1",
						"type": "t_mapping(t_bytes32,t_struct(RoleData)19_storage)"
					},
					{
						"astId": 810,
						"contract": "votes.sol:projectVotes",
						"label": "totalVotos",
						"offset": 0,
						"slot": "2",
						"type": "t_uint256"
					},
					{
						"astId": 813,
						"contract": "votes.sol:projectVotes",
						"label": "votoBueno",
						"offset": 0,
						"slot": "3",
						"type": "t_string_storage"
					},
					{
						"astId": 816,
						"contract": "votes.sol:projectVotes",
						"label": "votoMalo",
						"offset": 0,
						"slot": "4",
						"type": "t_string_storage"
					},
					{
						"astId": 873,
						"contract": "votes.sol:projectVotes",
						"label": "votantes",
						"offset": 0,
						"slot": "5",
						"type": "t_mapping(t_address,t_struct(Votante)868_storage)"
					},
					{
						"astId": 891,
						"contract": "votes.sol:projectVotes",
						"label": "candidato1",
						"offset": 0,
						"slot": "6",
						"type": "t_struct(Candidato)882_storage"
					},
					{
						"astId": 900,
						"contract": "votes.sol:projectVotes",
						"label": "candidato2",
						"offset": 0,
						"slot": "10",
						"type": "t_struct(Candidato)882_storage"
					},
					{
						"astId": 909,
						"contract": "votes.sol:projectVotes",
						"label": "candidato3",
						"offset": 0,
						"slot": "14",
						"type": "t_struct(Candidato)882_storage"
					}
				],
				"types": {
					"t_address": {
						"encoding": "inplace",
						"label": "address",
						"numberOfBytes": "20"
					},
					"t_bool": {
						"encoding": "inplace",
						"label": "bool",
						"numberOfBytes": "1"
					},
					"t_bytes32": {
						"encoding": "inplace",
						"label": "bytes32",
						"numberOfBytes": "32"
					},
					"t_mapping(t_address,t_bool)": {
						"encoding": "mapping",
						"key": "t_address",
						"label": "mapping(address => bool)",
						"numberOfBytes": "32",
						"value": "t_bool"
					},
					"t_mapping(t_address,t_struct(Votante)868_storage)": {
						"encoding": "mapping",
						"key": "t_address",
						"label": "mapping(address => struct projectVotes.Votante)",
						"numberOfBytes": "32",
						"value": "t_struct(Votante)868_storage"
					},
					"t_mapping(t_bytes32,t_struct(RoleData)19_storage)": {
						"encoding": "mapping",
						"key": "t_bytes32",
						"label": "mapping(bytes32 => struct AccessControl.RoleData)",
						"numberOfBytes": "32",
						"value": "t_struct(RoleData)19_storage"
					},
					"t_string_storage": {
						"encoding": "bytes",
						"label": "string",
						"numberOfBytes": "32"
					},
					"t_struct(Candidato)882_storage": {
						"encoding": "inplace",
						"label": "struct projectVotes.Candidato",
						"members": [
							{
								"astId": 875,
								"contract": "votes.sol:projectVotes",
								"label": "id",
								"offset": 0,
								"slot": "0",
								"type": "t_uint256"
							},
							{
								"astId": 877,
								"contract": "votes.sol:projectVotes",
								"label": "addressCandidato",
								"offset": 0,
								"slot": "1",
								"type": "t_address"
							},
							{
								"astId": 879,
								"contract": "votes.sol:projectVotes",
								"label": "nombre",
								"offset": 0,
								"slot": "2",
								"type": "t_string_storage"
							},
							{
								"astId": 881,
								"contract": "votes.sol:projectVotes",
								"label": "contadorVotos",
								"offset": 0,
								"slot": "3",
								"type": "t_uint256"
							}
						],
						"numberOfBytes": "128"
					},
					"t_struct(RoleData)19_storage": {
						"encoding": "inplace",
						"label": "struct AccessControl.RoleData",
						"members": [
							{
								"astId": 16,
								"contract": "votes.sol:projectVotes",
								"label": "members",
								"offset": 0,
								"slot": "0",
								"type": "t_mapping(t_address,t_bool)"
							},
							{
								"astId": 18,
								"contract": "votes.sol:projectVotes",
								"label": "adminRole",
								"offset": 0,
								"slot": "1",
								"type": "t_bytes32"
							}
						],
						"numberOfBytes": "64"
					},
					"t_struct(Votante)868_storage": {
						"encoding": "inplace",
						"label": "struct projectVotes.Votante",
						"members": [
							{
								"astId": 861,
								"contract": "votes.sol:projectVotes",
								"label": "voto",
								"offset": 0,
								"slot": "0",
								"type": "t_bool"
							},
							{
								"astId": 863,
								"contract": "votes.sol:projectVotes",
								"label": "puedeVotar",
								"offset": 1,
								"slot": "0",
								"type": "t_bool"
							},
							{
								"astId": 865,
								"contract": "votes.sol:projectVotes",
								"label": "votos",
								"offset": 0,
								"slot": "1",
								"type": "t_uint256"
							},
							{
								"astId": 867,
								"contract": "votes.sol:projectVotes",
								"label": "tiempoVoto",
								"offset": 0,
								"slot": "2",
								"type": "t_uint256"
							}
						],
						"numberOfBytes": "96"
					},
					"t_uint256": {
						"encoding": "inplace",
						"label": "uint256",
						"numberOfBytes": "32"
					}
				}
			},
			"userdoc": {
				"kind": "user",
				"methods": {},
				"version": 1
			}
		}
	}
}