{
	"votes.sol": {
		"projectVotes": {
			"abi": [
				{
					"inputs": [],
					"stateMutability": "nonpayable",
					"type": "constructor"
				},
				{
					"anonymous": false,
					"inputs": [
						{
							"indexed": true,
							"internalType": "address",
							"name": "previousOwner",
							"type": "address"
						},
						{
							"indexed": true,
							"internalType": "address",
							"name": "newOwner",
							"type": "address"
						}
					],
					"name": "OwnershipTransferred",
					"type": "event"
				},
				{
					"anonymous": false,
					"inputs": [
						{
							"indexed": true,
							"internalType": "bytes32",
							"name": "role",
							"type": "bytes32"
						},
						{
							"indexed": true,
							"internalType": "bytes32",
							"name": "previousAdminRole",
							"type": "bytes32"
						},
						{
							"indexed": true,
							"internalType": "bytes32",
							"name": "newAdminRole",
							"type": "bytes32"
						}
					],
					"name": "RoleAdminChanged",
					"type": "event"
				},
				{
					"anonymous": false,
					"inputs": [
						{
							"indexed": true,
							"internalType": "bytes32",
							"name": "role",
							"type": "bytes32"
						},
						{
							"indexed": true,
							"internalType": "address",
							"name": "account",
							"type": "address"
						},
						{
							"indexed": true,
							"internalType": "address",
							"name": "sender",
							"type": "address"
						}
					],
					"name": "RoleGranted",
					"type": "event"
				},
				{
					"anonymous": false,
					"inputs": [
						{
							"indexed": true,
							"internalType": "bytes32",
							"name": "role",
							"type": "bytes32"
						},
						{
							"indexed": true,
							"internalType": "address",
							"name": "account",
							"type": "address"
						},
						{
							"indexed": true,
							"internalType": "address",
							"name": "sender",
							"type": "address"
						}
					],
					"name": "RoleRevoked",
					"type": "event"
				},
				{
					"inputs": [],
					"name": "DEFAULT_ADMIN_ROLE",
					"outputs": [
						{
							"internalType": "bytes32",
							"name": "",
							"type": "bytes32"
						}
					],
					"stateMutability": "view",
					"type": "function"
				},
				{
					"inputs": [],
					"name": "ROLE_ADMIN",
					"outputs": [
						{
							"internalType": "bytes32",
							"name": "",
							"type": "bytes32"
						}
					],
					"stateMutability": "view",
					"type": "function"
				},
				{
					"inputs": [],
					"name": "ROLE_VOLTANTE",
					"outputs": [
						{
							"internalType": "bytes32",
							"name": "",
							"type": "bytes32"
						}
					],
					"stateMutability": "view",
					"type": "function"
				},
				{
					"inputs": [],
					"name": "addressGanador",
					"outputs": [
						{
							"internalType": "address",
							"name": "addressGanador_",
							"type": "address"
						}
					],
					"stateMutability": "view",
					"type": "function"
				},
				{
					"inputs": [],
					"name": "candidato1",
					"outputs": [
						{
							"internalType": "uint256",
							"name": "id",
							"type": "uint256"
						},
						{
							"internalType": "address",
							"name": "addressCandidato",
							"type": "address"
						},
						{
							"internalType": "string",
							"name": "nombre",
							"type": "string"
						},
						{
							"internalType": "uint256",
							"name": "contadorVotos",
							"type": "uint256"
						}
					],
					"stateMutability": "view",
					"type": "function"
				},
				{
					"inputs": [],
					"name": "candidato2",
					"outputs": [
						{
							"internalType": "uint256",
							"name": "id",
							"type": "uint256"
						},
						{
							"internalType": "address",
							"name": "addressCandidato",
							"type": "address"
						},
						{
							"internalType": "string",
							"name": "nombre",
							"type": "string"
						},
						{
							"internalType": "uint256",
							"name": "contadorVotos",
							"type": "uint256"
						}
					],
					"stateMutability": "view",
					"type": "function"
				},
				{
					"inputs": [],
					"name": "candidato3",
					"outputs": [
						{
							"internalType": "uint256",
							"name": "id",
							"type": "uint256"
						},
						{
							"internalType": "address",
							"name": "addressCandidato",
							"type": "address"
						},
						{
							"internalType": "string",
							"name": "nombre",
							"type": "string"
						},
						{
							"internalType": "uint256",
							"name": "contadorVotos",
							"type": "uint256"
						}
					],
					"stateMutability": "view",
					"type": "function"
				},
				{
					"inputs": [],
					"name": "candidatoGanador",
					"outputs": [
						{
							"internalType": "uint256",
							"name": "candidatoGanador_",
							"type": "uint256"
						}
					],
					"stateMutability": "view",
					"type": "function"
				},
				{
					"inputs": [],
					"name": "derechoVoto",
					"outputs": [
						{
							"internalType": "string",
							"name": "",
							"type": "string"
						}
					],
					"stateMutability": "view",
					"type": "function"
				},
				{
					"inputs": [],
					"name": "duenoChecar",
					"outputs": [],
					"stateMutability": "nonpayable",
					"type": "function"
				},
				{
					"inputs": [
						{
							"internalType": "bytes32",
							"name": "role",
							"type": "bytes32"
						}
					],
					"name": "getRoleAdmin",
					"outputs": [
						{
							"internalType": "bytes32",
							"name": "",
							"type": "bytes32"
						}
					],
					"stateMutability": "view",
					"type": "function"
				},
				{
					"inputs": [
						{
							"internalType": "bytes32",
							"name": "role",
							"type": "bytes32"
						},
						{
							"internalType": "address",
							"name": "account",
							"type": "address"
						}
					],
					"name": "grantRole",
					"outputs": [],
					"stateMutability": "nonpayable",
					"type": "function"
				},
				{
					"inputs": [
						{
							"internalType": "bytes32",
							"name": "role",
							"type": "bytes32"
						},
						{
							"internalType": "address",
							"name": "account",
							"type": "address"
						}
					],
					"name": "hasRole",
					"outputs": [
						{
							"internalType": "bool",
							"name": "",
							"type": "bool"
						}
					],
					"stateMutability": "view",
					"type": "function"
				},
				{
					"inputs": [],
					"name": "nombreGanador",
					"outputs": [
						{
							"internalType": "string",
							"name": "nombreGanador_",
							"type": "string"
						}
					],
					"stateMutability": "view",
					"type": "function"
				},
				{
					"inputs": [],
					"name": "normalCosa",
					"outputs": [],
					"stateMutability": "nonpayable",
					"type": "function"
				},
				{
					"inputs": [],
					"name": "owner",
					"outputs": [
						{
							"internalType": "address",
							"name": "",
							"type": "address"
						}
					],
					"stateMutability": "view",
					"type": "function"
				},
				{
					"inputs": [],
					"name": "permisoVotar",
					"outputs": [
						{
							"internalType": "bool",
							"name": "",
							"type": "bool"
						}
					],
					"stateMutability": "view",
					"type": "function"
				},
				{
					"inputs": [],
					"name": "renounceOwnership",
					"outputs": [],
					"stateMutability": "nonpayable",
					"type": "function"
				},
				{
					"inputs": [
						{
							"internalType": "bytes32",
							"name": "role",
							"type": "bytes32"
						},
						{
							"internalType": "address",
							"name": "account",
							"type": "address"
						}
					],
					"name": "renounceRole",
					"outputs": [],
					"stateMutability": "nonpayable",
					"type": "function"
				},
				{
					"inputs": [
						{
							"internalType": "bytes32",
							"name": "role",
							"type": "bytes32"
						},
						{
							"internalType": "address",
							"name": "account",
							"type": "address"
						}
					],
					"name": "revokeRole",
					"outputs": [],
					"stateMutability": "nonpayable",
					"type": "function"
				},
				{
					"inputs": [
						{
							"internalType": "bytes4",
							"name": "interfaceId",
							"type": "bytes4"
						}
					],
					"name": "supportsInterface",
					"outputs": [
						{
							"internalType": "bool",
							"name": "",
							"type": "bool"
						}
					],
					"stateMutability": "view",
					"type": "function"
				},
				{
					"inputs": [],
					"name": "tiempoinicio",
					"outputs": [
						{
							"internalType": "uint256",
							"name": "duracion",
							"type": "uint256"
						}
					],
					"stateMutability": "pure",
					"type": "function"
				},
				{
					"inputs": [
						{
							"internalType": "address",
							"name": "newOwner",
							"type": "address"
						}
					],
					"name": "transferOwnership",
					"outputs": [],
					"stateMutability": "nonpayable",
					"type": "function"
				},
				{
					"inputs": [
						{
							"internalType": "uint256",
							"name": "_candidato",
							"type": "uint256"
						}
					],
					"name": "votar",
					"outputs": [],
					"stateMutability": "nonpayable",
					"type": "function"
				},
				{
					"inputs": [],
					"name": "voto",
					"outputs": [
						{
							"internalType": "bool",
							"name": "",
							"type": "bool"
						}
					],
					"stateMutability": "view",
					"type": "function"
				},
				{
					"inputs": [],
					"name": "votoBueno",
					"outputs": [
						{
							"internalType": "string",
							"name": "",
							"type": "string"
						}
					],
					"stateMutability": "view",
					"type": "function"
				},
				{
					"inputs": [],
					"name": "votoMalo",
					"outputs": [
						{
							"internalType": "string",
							"name": "",
							"type": "string"
						}
					],
					"stateMutability": "view",
					"type": "function"
				}
			],
			"devdoc": {
				"kind": "dev",
				"methods": {
					"getRoleAdmin(bytes32)": {
						"details": "Returns the admin role that controls `role`. See {grantRole} and {revokeRole}. To change a role's admin, use {_setRoleAdmin}."
					},
					"grantRole(bytes32,address)": {
						"details": "Grants `role` to `account`. If `account` had not been already granted `role`, emits a {RoleGranted} event. Requirements: - the caller must have ``role``'s admin role. May emit a {RoleGranted} event."
					},
					"hasRole(bytes32,address)": {
						"details": "Returns `true` if `account` has been granted `role`."
					},
					"owner()": {
						"details": "Returns the address of the current owner."
					},
					"renounceOwnership()": {
						"details": "Leaves the contract without owner. It will not be possible to call `onlyOwner` functions anymore. Can only be called by the current owner. NOTE: Renouncing ownership will leave the contract without an owner, thereby removing any functionality that is only available to the owner."
					},
					"renounceRole(bytes32,address)": {
						"details": "Revokes `role` from the calling account. Roles are often managed via {grantRole} and {revokeRole}: this function's purpose is to provide a mechanism for accounts to lose their privileges if they are compromised (such as when a trusted device is misplaced). If the calling account had been revoked `role`, emits a {RoleRevoked} event. Requirements: - the caller must be `account`. May emit a {RoleRevoked} event."
					},
					"revokeRole(bytes32,address)": {
						"details": "Revokes `role` from `account`. If `account` had been granted `role`, emits a {RoleRevoked} event. Requirements: - the caller must have ``role``'s admin role. May emit a {RoleRevoked} event."
					},
					"supportsInterface(bytes4)": {
						"details": "See {IERC165-supportsInterface}."
					},
					"transferOwnership(address)": {
						"details": "Transfers ownership of the contract to a new account (`newOwner`). Can only be called by the current owner."
					}
				},
				"version": 1
			},
			"evm": {
				"assembly": "    /* \"votes.sol\":554:555  0 */\n  0x00\n    /* \"votes.sol\":536:555  uint totalVotos = 0 */\n  0x02\n  sstore\n    /* \"votes.sol\":561:597  string public votoBueno = \"Se Voto!\" */\n  0xc0\n    /* \"votes.sol\":170:6607  contract projectVotes is Ownable,AccessControl {... */\n  0x40\n    /* \"votes.sol\":561:597  string public votoBueno = \"Se Voto!\" */\n  mstore\n  0x08\n    /* \"votes.sol\":170:6607  contract projectVotes is Ownable,AccessControl {... */\n  0x80\n    /* \"votes.sol\":561:597  string public votoBueno = \"Se Voto!\" */\n  dup2\n  swap1\n  mstore\n  0x536520566f746f21000000000000000000000000000000000000000000000000\n  0xa0\n  swap1\n  dup2\n  mstore\n  tag_1\n  swap2\n  0x03\n  swap2\n  swap1\n  tag_2\n  jump\t// in\ntag_1:\n  pop\n    /* \"votes.sol\":603:638  string public votoMalo = \"No Voto!\" */\n  0x40\n  dup1\n  mload\n  dup1\n  dup3\n  add\n  swap1\n  swap2\n  mstore\n  0x08\n  dup1\n  dup3\n  mstore\n  0x4e6f20566f746f21000000000000000000000000000000000000000000000000\n  0x20\n  swap1\n  swap3\n  add\n  swap2\n  dup3\n  mstore\n  tag_3\n  swap2\n  0x04\n  swap2\n  tag_2\n  jump\t// in\ntag_3:\n  pop\n    /* \"votes.sol\":1653:1813  Candidato({... */\n  0x40\n  dup1\n  mload\n  0x80\n  dup2\n  add\n  dup3\n  mstore\n    /* \"votes.sol\":1677:1678  1 */\n  0x01\n    /* \"votes.sol\":1653:1813  Candidato({... */\n  dup2\n  mstore\n    /* \"votes.sol\":1764:1806  0x1234567890123456789100000000000000000000 */\n  0x1234567890123456789100000000000000000000\n    /* \"votes.sol\":1653:1813  Candidato({... */\n  0x20\n  dup1\n  dup4\n  add\n  swap2\n  dup3\n  mstore\n  dup4\n  mload\n  dup1\n  dup6\n  add\n  dup6\n  mstore\n  0x0c\n  dup2\n  mstore\n  0x54726176656c616e6469616e0000000000000000000000000000000000000000\n  swap2\n  dup2\n  add\n  swap2\n  dup3\n  mstore\n  swap4\n  dup4\n  add\n  dup5\n  swap1\n  mstore\n  0x00\n  0x60\n  dup5\n  add\n  mstore\n    /* \"votes.sol\":1623:1813  Candidato public candidato1 = Candidato({... */\n  dup3\n  mload\n  0x06\n  swap1\n  dup2\n  sstore\n  swap2\n  mload\n  0x07\n  dup1\n  sload\n  not(sub(exp(0x02, 0xa0), 0x01))\n  and\n  sub(exp(0x02, 0xa0), 0x01)\n  swap1\n  swap3\n  and\n  swap2\n  swap1\n  swap2\n  or\n  swap1\n  sstore\n  swap3\n  mload\n    /* \"votes.sol\":1653:1813  Candidato({... */\n  swap2\n  swap3\n    /* \"votes.sol\":1623:1813  Candidato public candidato1 = Candidato({... */\n  swap1\n  swap2\n  tag_4\n  swap2\n  0x08\n  swap2\n  tag_2\n  jump\t// in\ntag_4:\n  pop\n  0x60\n  swap2\n  dup3\n  add\n  mload\n  0x03\n  swap2\n  swap1\n  swap2\n  add\n  sstore\n    /* \"votes.sol\":1851:2009  Candidato({... */\n  0x40\n  dup1\n  mload\n  0x80\n  dup2\n  add\n  dup3\n  mstore\n    /* \"votes.sol\":1875:1876  2 */\n  0x02\n    /* \"votes.sol\":1851:2009  Candidato({... */\n  dup2\n  mstore\n    /* \"votes.sol\":1960:2002  0x1234567890123456789200000000000000000000 */\n  0x1234567890123456789200000000000000000000\n  0x20\n    /* \"votes.sol\":1851:2009  Candidato({... */\n  dup1\n  dup4\n  add\n  swap2\n  dup3\n  mstore\n  dup4\n  mload\n  dup1\n  dup6\n  add\n  dup6\n  mstore\n  0x0a\n  dup1\n  dup3\n  mstore\n  0x4564756c616e6469616e00000000000000000000000000000000000000000000\n  swap3\n  dup3\n  add\n  swap3\n  dup4\n  mstore\n  swap5\n  dup5\n  add\n  dup2\n  swap1\n  mstore\n  0x00\n  swap6\n  dup5\n  add\n  swap6\n  swap1\n  swap6\n  mstore\n    /* \"votes.sol\":1821:2009  Candidato public candidato2 = Candidato({... */\n  dup3\n  mload\n  dup5\n  sstore\n  swap1\n  mload\n  0x0b\n  dup1\n  sload\n  not(sub(exp(0x02, 0xa0), 0x01))\n  and\n  sub(exp(0x02, 0xa0), 0x01)\n  swap1\n  swap3\n  and\n  swap2\n  swap1\n  swap2\n  or\n  swap1\n  sstore\n  swap3\n  mload\n    /* \"votes.sol\":1851:2009  Candidato({... */\n  swap1\n  swap3\n    /* \"votes.sol\":1821:2009  Candidato public candidato2 = Candidato({... */\n  tag_5\n  swap2\n  0x0c\n  swap2\n    /* \"votes.sol\":1851:2009  Candidato({... */\n  swap1\n    /* \"votes.sol\":1821:2009  Candidato public candidato2 = Candidato({... */\n  tag_2\n  jump\t// in\ntag_5:\n  pop\n  0x60\n  swap2\n  dup3\n  add\n  mload\n  0x03\n  swap2\n  dup3\n  add\n  sstore\n    /* \"votes.sol\":2047:2206  Candidato({... */\n  0x40\n  dup1\n  mload\n  0x80\n  dup2\n  add\n  dup3\n  mstore\n  swap2\n  dup3\n  mstore\n    /* \"votes.sol\":2157:2199  0x1234567890123456789300000000000000000000 */\n  0x1234567890123456789300000000000000000000\n  0x20\n    /* \"votes.sol\":2047:2206  Candidato({... */\n  dup1\n  dup5\n  add\n  swap2\n  dup3\n  mstore\n  dup3\n  mload\n  dup1\n  dup5\n  add\n  dup5\n  mstore\n  0x0b\n  dup2\n  mstore\n  0x45636f6c616e6469616e32000000000000000000000000000000000000000000\n  swap2\n  dup2\n  add\n  swap2\n  dup3\n  mstore\n  swap3\n  dup5\n  add\n  dup4\n  swap1\n  mstore\n  0x00\n  swap5\n  dup5\n  add\n  swap5\n  swap1\n  swap5\n  mstore\n    /* \"votes.sol\":2017:2206  Candidato public candidato3 = Candidato({... */\n  dup3\n  mload\n  0x0e\n  swap1\n  dup2\n  sstore\n  swap1\n  mload\n  0x0f\n  dup1\n  sload\n  not(sub(exp(0x02, 0xa0), 0x01))\n  and\n  sub(exp(0x02, 0xa0), 0x01)\n  swap1\n  swap3\n  and\n  swap2\n  swap1\n  swap2\n  or\n  swap1\n  sstore\n  swap1\n  mload\n    /* \"votes.sol\":2047:2206  Candidato({... */\n  swap2\n  swap3\n    /* \"votes.sol\":2017:2206  Candidato public candidato3 = Candidato({... */\n  swap1\n  swap2\n  tag_6\n  swap2\n  0x10\n  swap2\n  tag_2\n  jump\t// in\ntag_6:\n  pop\n  0x60\n  dup3\n  add\n  mload\n  dup2\n  0x03\n  add\n  sstore\n  pop\n  pop\n    /* \"votes.sol\":645:900  constructor() {... */\n  callvalue\n  dup1\n  iszero\n  tag_7\n  jumpi\n  0x00\n  dup1\n  revert\ntag_7:\n  pop\n    /* \"@openzeppelin/contracts/access/Ownable.sol\":936:968  _transferOwnership(_msgSender()) */\n  tag_11\n    /* \"@openzeppelin/contracts/access/Ownable.sol\":955:967  _msgSender() */\n  tag_12\n    /* \"@openzeppelin/contracts/access/Ownable.sol\":955:965  _msgSender */\n  0x0100000000\n  tag_13\n  dup2\n  mul\n    /* \"@openzeppelin/contracts/access/Ownable.sol\":955:967  _msgSender() */\n  div\n  jump\t// in\ntag_12:\n    /* \"@openzeppelin/contracts/access/Ownable.sol\":936:954  _transferOwnership */\n  0x0100000000\n  tag_14\n  dup2\n  mul\n    /* \"@openzeppelin/contracts/access/Ownable.sol\":936:968  _transferOwnership(_msgSender()) */\n  div\n  jump\t// in\ntag_11:\n    /* \"votes.sol\":669:710  _setupRole(DEFAULT_ADMIN_ROLE,msg.sender) */\n  tag_16\n    /* \"@openzeppelin/contracts/access/AccessControl.sol\":2072:2076  0x00 */\n  0x00\n    /* \"votes.sol\":699:709  msg.sender */\n  caller\n    /* \"votes.sol\":669:679  _setupRole */\n  0x0100000000\n  tag_17\n  dup2\n  mul\n    /* \"votes.sol\":669:710  _setupRole(DEFAULT_ADMIN_ROLE,msg.sender) */\n  div\n  jump\t// in\ntag_16:\n    /* \"votes.sol\":720:757  _setupRole(ROLE_VOLTANTE, msg.sender) */\n  tag_18\n    /* \"votes.sol\":263:289  keccak256(\"ROLE_VOLTANTE\") */\n  0x226c4972ab1f314d4ad7ff65fbbf70e5647a0620354d97bff1b978c4cf385edf\n    /* \"votes.sol\":746:756  msg.sender */\n  caller\n    /* \"votes.sol\":720:730  _setupRole */\n  0x0100000000\n  tag_17\n  dup2\n  mul\n    /* \"votes.sol\":720:757  _setupRole(ROLE_VOLTANTE, msg.sender) */\n  div\n  jump\t// in\ntag_18:\n    /* \"votes.sol\":767:803  _setRoleAdmin(ROLE_ADMIN,ROLE_ADMIN) */\n  tag_19\n    /* \"votes.sol\":402:425  keccak256(\"ROLE_ADMIN\") */\n  0x2172861495e7b85edac73e3cd5fbb42dd675baadf627720e687bcfdaca025096\n  dup1\n    /* \"votes.sol\":767:780  _setRoleAdmin */\n  0x0100000000\n  tag_20\n  dup2\n  mul\n    /* \"votes.sol\":767:803  _setRoleAdmin(ROLE_ADMIN,ROLE_ADMIN) */\n  div\n  jump\t// in\ntag_19:\n    /* \"votes.sol\":170:6607  contract projectVotes is Ownable,AccessControl {... */\n  jump(tag_48)\n    /* \"@openzeppelin/contracts/utils/Context.sol\":640:736  function _msgSender() internal view virtual returns (address) {... */\ntag_13:\n    /* \"@openzeppelin/contracts/utils/Context.sol\":719:729  msg.sender */\n  caller\n  swap1\n    /* \"@openzeppelin/contracts/utils/Context.sol\":640:736  function _msgSender() internal view virtual returns (address) {... */\n  jump\t// out\n    /* \"@openzeppelin/contracts/access/Ownable.sol\":2433:2620  function _transferOwnership(address newOwner) internal virtual {... */\ntag_14:\n    /* \"@openzeppelin/contracts/access/Ownable.sol\":2506:2522  address oldOwner */\n  0x00\n    /* \"@openzeppelin/contracts/access/Ownable.sol\":2525:2531  _owner */\n  dup1\n  sload\n  sub(exp(0x02, 0xa0), 0x01)\n    /* \"@openzeppelin/contracts/access/Ownable.sol\":2541:2558  _owner = newOwner */\n  dup4\n  dup2\n  and\n  not(sub(exp(0x02, 0xa0), 0x01))\n  dup4\n  and\n  dup2\n  or\n  dup5\n  sstore\n    /* \"@openzeppelin/contracts/access/Ownable.sol\":2573:2613  OwnershipTransferred(oldOwner, newOwner) */\n  mload(0x40)\n    /* \"@openzeppelin/contracts/access/Ownable.sol\":2525:2531  _owner */\n  swap2\n  swap1\n  swap3\n  and\n  swap3\n  dup4\n  swap2\n    /* \"@openzeppelin/contracts/access/Ownable.sol\":2573:2613  OwnershipTransferred(oldOwner, newOwner) */\n  0x8be0079c531659141344cd1fd0a4f28419497f9722a3daafe3b4186f6b6457e0\n  swap2\n    /* \"@openzeppelin/contracts/access/Ownable.sol\":2506:2522  address oldOwner */\n  swap1\n    /* \"@openzeppelin/contracts/access/Ownable.sol\":2573:2613  OwnershipTransferred(oldOwner, newOwner) */\n  log3\n    /* \"@openzeppelin/contracts/access/Ownable.sol\":2496:2620  {... */\n  pop\n    /* \"@openzeppelin/contracts/access/Ownable.sol\":2433:2620  function _transferOwnership(address newOwner) internal virtual {... */\n  pop\n  jump\t// out\n    /* \"@openzeppelin/contracts/access/AccessControl.sol\":6824:6934  function _setupRole(bytes32 role, address account) internal virtual {... */\ntag_17:\n    /* \"@openzeppelin/contracts/access/AccessControl.sol\":6902:6927  _grantRole(role, account) */\n  tag_25\n    /* \"@openzeppelin/contracts/access/AccessControl.sol\":6913:6917  role */\n  dup3\n    /* \"@openzeppelin/contracts/access/AccessControl.sol\":6919:6926  account */\n  dup3\n    /* \"@openzeppelin/contracts/access/AccessControl.sol\":6902:6912  _grantRole */\n  0x0100000000\n  tag_26\n  dup2\n  mul\n    /* \"@openzeppelin/contracts/access/AccessControl.sol\":6902:6927  _grantRole(role, account) */\n  div\n  jump\t// in\ntag_25:\n    /* \"@openzeppelin/contracts/access/AccessControl.sol\":6824:6934  function _setupRole(bytes32 role, address account) internal virtual {... */\n  pop\n  pop\n  jump\t// out\n    /* \"@openzeppelin/contracts/access/AccessControl.sol\":7059:7306  function _setRoleAdmin(bytes32 role, bytes32 adminRole) internal virtual {... */\ntag_20:\n    /* \"@openzeppelin/contracts/access/AccessControl.sol\":7142:7167  bytes32 previousAdminRole */\n  0x00\n    /* \"@openzeppelin/contracts/access/AccessControl.sol\":7170:7188  getRoleAdmin(role) */\n  tag_28\n    /* \"@openzeppelin/contracts/access/AccessControl.sol\":7183:7187  role */\n  dup4\n    /* \"@openzeppelin/contracts/access/AccessControl.sol\":7170:7182  getRoleAdmin */\n  0x0100000000\n  tag_29\n  dup2\n  mul\n    /* \"@openzeppelin/contracts/access/AccessControl.sol\":7170:7188  getRoleAdmin(role) */\n  div\n  jump\t// in\ntag_28:\n    /* \"@openzeppelin/contracts/access/AccessControl.sol\":7198:7210  _roles[role] */\n  0x00\n  dup5\n  dup2\n  mstore\n    /* \"@openzeppelin/contracts/access/AccessControl.sol\":7198:7204  _roles */\n  0x01\n    /* \"@openzeppelin/contracts/access/AccessControl.sol\":7198:7210  _roles[role] */\n  0x20\n  dup2\n  swap1\n  mstore\n  0x40\n  dup1\n  dup4\n  keccak256\n    /* \"@openzeppelin/contracts/access/AccessControl.sol\":7198:7220  _roles[role].adminRole */\n  swap1\n  swap2\n  add\n    /* \"@openzeppelin/contracts/access/AccessControl.sol\":7198:7232  _roles[role].adminRole = adminRole */\n  dup6\n  swap1\n  sstore\n    /* \"@openzeppelin/contracts/access/AccessControl.sol\":7247:7299  RoleAdminChanged(role, previousAdminRole, adminRole) */\n  mload\n    /* \"@openzeppelin/contracts/access/AccessControl.sol\":7142:7188  bytes32 previousAdminRole = getRoleAdmin(role) */\n  swap2\n  swap3\n  pop\n    /* \"@openzeppelin/contracts/access/AccessControl.sol\":7223:7232  adminRole */\n  dup4\n  swap2\n    /* \"@openzeppelin/contracts/access/AccessControl.sol\":7142:7188  bytes32 previousAdminRole = getRoleAdmin(role) */\n  dup4\n  swap2\n    /* \"@openzeppelin/contracts/access/AccessControl.sol\":7205:7209  role */\n  dup7\n  swap2\n    /* \"@openzeppelin/contracts/access/AccessControl.sol\":7247:7299  RoleAdminChanged(role, previousAdminRole, adminRole) */\n  0xbd79b86ffe0ab8e8776151514217cd7cacd52c909f66475c3af44e129f0b00ff\n  swap2\n    /* \"@openzeppelin/contracts/access/AccessControl.sol\":7198:7210  _roles[role] */\n  swap1\n    /* \"@openzeppelin/contracts/access/AccessControl.sol\":7247:7299  RoleAdminChanged(role, previousAdminRole, adminRole) */\n  log4\n    /* \"@openzeppelin/contracts/access/AccessControl.sol\":7132:7306  {... */\n  pop\n    /* \"@openzeppelin/contracts/access/AccessControl.sol\":7059:7306  function _setRoleAdmin(bytes32 role, bytes32 adminRole) internal virtual {... */\n  pop\n  pop\n  jump\t// out\n    /* \"@openzeppelin/contracts/access/AccessControl.sol\":7474:7707  function _grantRole(bytes32 role, address account) internal virtual {... */\ntag_26:\n    /* \"@openzeppelin/contracts/access/AccessControl.sol\":7557:7579  hasRole(role, account) */\n  tag_31\n    /* \"@openzeppelin/contracts/access/AccessControl.sol\":7565:7569  role */\n  dup3\n    /* \"@openzeppelin/contracts/access/AccessControl.sol\":7571:7578  account */\n  dup3\n    /* \"@openzeppelin/contracts/access/AccessControl.sol\":7557:7564  hasRole */\n  0x0100000000\n  tag_32\n  dup2\n  mul\n    /* \"@openzeppelin/contracts/access/AccessControl.sol\":7557:7579  hasRole(role, account) */\n  div\n  jump\t// in\ntag_31:\n    /* \"@openzeppelin/contracts/access/AccessControl.sol\":7552:7701  if (!hasRole(role, account)) {... */\n  tag_25\n  jumpi\n    /* \"@openzeppelin/contracts/access/AccessControl.sol\":7595:7607  _roles[role] */\n  0x00\n  dup3\n  dup2\n  mstore\n    /* \"@openzeppelin/contracts/access/AccessControl.sol\":7627:7631  true */\n  0x01\n    /* \"@openzeppelin/contracts/access/AccessControl.sol\":7595:7607  _roles[role] */\n  0x20\n  dup2\n  dup2\n  mstore\n  0x40\n  dup1\n  dup5\n  keccak256\n  sub(exp(0x02, 0xa0), 0x01)\n    /* \"@openzeppelin/contracts/access/AccessControl.sol\":7595:7624  _roles[role].members[account] */\n  dup7\n  and\n  dup6\n  mstore\n  swap1\n  swap2\n  mstore\n  swap1\n  swap2\n  keccak256\n    /* \"@openzeppelin/contracts/access/AccessControl.sol\":7595:7631  _roles[role].members[account] = true */\n  dup1\n  sload\n  not(0xff)\n  and\n  swap1\n  swap2\n  or\n  swap1\n  sstore\n    /* \"@openzeppelin/contracts/access/AccessControl.sol\":7677:7689  _msgSender() */\n  tag_34\n    /* \"@openzeppelin/contracts/access/AccessControl.sol\":7677:7687  _msgSender */\n  0x0100000000\n  tag_13\n  dup2\n  mul\n    /* \"@openzeppelin/contracts/access/AccessControl.sol\":7677:7689  _msgSender() */\n  div\n  jump\t// in\ntag_34:\n  sub(exp(0x02, 0xa0), 0x01)\n    /* \"@openzeppelin/contracts/access/AccessControl.sol\":7650:7690  RoleGranted(role, account, _msgSender()) */\n  and\n    /* \"@openzeppelin/contracts/access/AccessControl.sol\":7668:7675  account */\n  dup2\n  sub(exp(0x02, 0xa0), 0x01)\n    /* \"@openzeppelin/contracts/access/AccessControl.sol\":7650:7690  RoleGranted(role, account, _msgSender()) */\n  and\n    /* \"@openzeppelin/contracts/access/AccessControl.sol\":7662:7666  role */\n  dup4\n    /* \"@openzeppelin/contracts/access/AccessControl.sol\":7650:7690  RoleGranted(role, account, _msgSender()) */\n  0x2f8788117e7eff1d82e926ec794901d17c78024a50270940304540a733656f0d\n  mload(0x40)\n  mload(0x40)\n  dup1\n  swap2\n  sub\n  swap1\n  log4\n    /* \"@openzeppelin/contracts/access/AccessControl.sol\":7474:7707  function _grantRole(bytes32 role, address account) internal virtual {... */\n  pop\n  pop\n  jump\t// out\n    /* \"@openzeppelin/contracts/access/AccessControl.sol\":4391:4520  function getRoleAdmin(bytes32 role) public view virtual override returns (bytes32) {... */\ntag_29:\n    /* \"@openzeppelin/contracts/access/AccessControl.sol\":4465:4472  bytes32 */\n  0x00\n    /* \"@openzeppelin/contracts/access/AccessControl.sol\":4491:4503  _roles[role] */\n  swap1\n  dup2\n  mstore\n    /* \"@openzeppelin/contracts/access/AccessControl.sol\":4491:4497  _roles */\n  0x01\n    /* \"@openzeppelin/contracts/access/AccessControl.sol\":4491:4503  _roles[role] */\n  0x20\n  dup2\n  swap1\n  mstore\n  0x40\n  swap1\n  swap2\n  keccak256\n    /* \"@openzeppelin/contracts/access/AccessControl.sol\":4491:4513  _roles[role].adminRole */\n  add\n  sload\n  swap1\n    /* \"@openzeppelin/contracts/access/AccessControl.sol\":4391:4520  function getRoleAdmin(bytes32 role) public view virtual override returns (bytes32) {... */\n  jump\t// out\n    /* \"@openzeppelin/contracts/access/AccessControl.sol\":2895:3040  function hasRole(bytes32 role, address account) public view virtual override returns (bool) {... */\ntag_32:\n    /* \"@openzeppelin/contracts/access/AccessControl.sol\":2981:2985  bool */\n  0x00\n    /* \"@openzeppelin/contracts/access/AccessControl.sol\":3004:3016  _roles[role] */\n  swap2\n  dup3\n  mstore\n    /* \"@openzeppelin/contracts/access/AccessControl.sol\":3004:3010  _roles */\n  0x01\n    /* \"@openzeppelin/contracts/access/AccessControl.sol\":3004:3016  _roles[role] */\n  0x20\n  swap1\n  dup2\n  mstore\n  0x40\n  dup1\n  dup5\n  keccak256\n  sub(exp(0x02, 0xa0), 0x01)\n    /* \"@openzeppelin/contracts/access/AccessControl.sol\":3004:3033  _roles[role].members[account] */\n  swap4\n  swap1\n  swap4\n  and\n  dup5\n  mstore\n  swap2\n  swap1\n  mstore\n  swap1\n  keccak256\n  sload\n  0xff\n  and\n  swap1\n    /* \"@openzeppelin/contracts/access/AccessControl.sol\":2895:3040  function hasRole(bytes32 role, address account) public view virtual override returns (bool) {... */\n  jump\t// out\n    /* \"votes.sol\":170:6607  contract projectVotes is Ownable,AccessControl {... */\ntag_2:\n  dup3\n  dup1\n  sload\n  tag_37\n  swap1\n  tag_38\n  jump\t// in\ntag_37:\n  swap1\n  0x00\n  mstore\n  keccak256(0x00, 0x20)\n  swap1\n  0x1f\n  add\n  0x20\n  swap1\n  div\n  dup2\n  add\n  swap3\n  dup3\n  tag_40\n  jumpi\n  0x00\n  dup6\n  sstore\n  jump(tag_43)\ntag_40:\n  dup3\n  0x1f\n  lt\n  tag_41\n  jumpi\n  dup1\n  mload\n  not(0xff)\n  and\n  dup4\n  dup1\n  add\n  or\n  dup6\n  sstore\n  jump(tag_43)\ntag_41:\n  dup3\n  dup1\n  add\n  0x01\n  add\n  dup6\n  sstore\n  dup3\n  iszero\n  tag_43\n  jumpi\n  swap2\n  dup3\n  add\ntag_42:\n  dup3\n  dup2\n  gt\n  iszero\n  tag_43\n  jumpi\n  dup3\n  mload\n  dup3\n  sstore\n  swap2\n  0x20\n  add\n  swap2\n  swap1\n  0x01\n  add\n  swap1\n  jump(tag_42)\ntag_43:\n  pop\n  tag_44\n  swap3\n  swap2\n  pop\n  tag_45\n  jump\t// in\ntag_44:\n  pop\n  swap1\n  jump\t// out\ntag_45:\ntag_46:\n  dup1\n  dup3\n  gt\n  iszero\n  tag_44\n  jumpi\n  0x00\n  dup2\n  sstore\n  0x01\n  add\n  jump(tag_46)\n    /* \"#utility.yul\":14:451   */\ntag_38:\n    /* \"#utility.yul\":99:100   */\n  0x02\n    /* \"#utility.yul\":89:101   */\n  dup2\n  div\n    /* \"#utility.yul\":146:147   */\n  0x01\n    /* \"#utility.yul\":136:148   */\n  dup3\n  and\n  dup1\n    /* \"#utility.yul\":157:218   */\n  tag_50\n  jumpi\n    /* \"#utility.yul\":211:215   */\n  0x7f\n    /* \"#utility.yul\":203:209   */\n  dup3\n    /* \"#utility.yul\":199:216   */\n  and\n    /* \"#utility.yul\":189:216   */\n  swap2\n  pop\n    /* \"#utility.yul\":157:218   */\ntag_50:\n    /* \"#utility.yul\":264:266   */\n  0x20\n    /* \"#utility.yul\":256:262   */\n  dup3\n    /* \"#utility.yul\":253:267   */\n  lt\n    /* \"#utility.yul\":233:251   */\n  dup2\n    /* \"#utility.yul\":230:268   */\n  eq\n    /* \"#utility.yul\":227:445   */\n  iszero\n  tag_51\n  jumpi\n    /* \"#utility.yul\":301:378   */\n  0x4e487b7100000000000000000000000000000000000000000000000000000000\n    /* \"#utility.yul\":298:299   */\n  0x00\n    /* \"#utility.yul\":291:379   */\n  mstore\n    /* \"#utility.yul\":402:406   */\n  0x22\n    /* \"#utility.yul\":399:400   */\n  0x04\n    /* \"#utility.yul\":392:407   */\n  mstore\n    /* \"#utility.yul\":430:434   */\n  0x24\n    /* \"#utility.yul\":427:428   */\n  0x00\n    /* \"#utility.yul\":420:435   */\n  revert\n    /* \"#utility.yul\":227:445   */\ntag_51:\n  pop\n    /* \"#utility.yul\":14:451   */\n  swap2\n  swap1\n  pop\n  jump\t// out\ntag_48:\n    /* \"votes.sol\":170:6607  contract projectVotes is Ownable,AccessControl {... */\n  dataSize(sub_0)\n  dup1\n  dataOffset(sub_0)\n  0x00\n  codecopy\n  0x00\n  return\nstop\n\nsub_0: assembly {\n        /* \"votes.sol\":170:6607  contract projectVotes is Ownable,AccessControl {... */\n      mstore(0x40, 0x80)\n      callvalue\n      dup1\n      iszero\n      tag_1\n      jumpi\n      0x00\n      dup1\n      revert\n    tag_1:\n      pop\n      jumpi(tag_2, lt(calldatasize, 0x04))\n      calldataload(0x00)\n      0x0100000000000000000000000000000000000000000000000000000000\n      swap1\n      div\n      dup1\n      0xa217fddf\n      gt\n      tag_30\n      jumpi\n      dup1\n      0xc7876434\n      gt\n      tag_31\n      jumpi\n      dup1\n      0xf222b579\n      gt\n      tag_32\n      jumpi\n      dup1\n      0xf222b579\n      eq\n      tag_26\n      jumpi\n      dup1\n      0xf2fde38b\n      eq\n      tag_27\n      jumpi\n      dup1\n      0xfa0c3ab8\n      eq\n      tag_28\n      jumpi\n      dup1\n      0xffd7e4e7\n      eq\n      tag_29\n      jumpi\n      0x00\n      dup1\n      revert\n    tag_32:\n      dup1\n      0xc7876434\n      eq\n      tag_23\n      jumpi\n      dup1\n      0xd391014b\n      eq\n      tag_24\n      jumpi\n      dup1\n      0xd547741f\n      eq\n      tag_25\n      jumpi\n      0x00\n      dup1\n      revert\n    tag_31:\n      dup1\n      0xb49cd0f7\n      gt\n      tag_33\n      jumpi\n      dup1\n      0xb49cd0f7\n      eq\n      tag_42\n      jumpi\n      dup1\n      0xb7d09ae5\n      eq\n      tag_20\n      jumpi\n      dup1\n      0xc360a03b\n      eq\n      tag_21\n      jumpi\n      dup1\n      0xc363091c\n      eq\n      tag_22\n      jumpi\n      0x00\n      dup1\n      revert\n    tag_33:\n      dup1\n      0xa217fddf\n      eq\n      tag_16\n      jumpi\n      dup1\n      0xae60bb23\n      eq\n      tag_17\n      jumpi\n      dup1\n      0xb1c78ebc\n      eq\n      tag_18\n      jumpi\n      0x00\n      dup1\n      revert\n    tag_30:\n      dup1\n      0x36568abe\n      gt\n      tag_34\n      jumpi\n      dup1\n      0x715018a6\n      gt\n      tag_35\n      jumpi\n      dup1\n      0x715018a6\n      eq\n      tag_12\n      jumpi\n      dup1\n      0x8356e8e1\n      eq\n      tag_13\n      jumpi\n      dup1\n      0x8da5cb5b\n      eq\n      tag_14\n      jumpi\n      dup1\n      0x91d14854\n      eq\n      tag_15\n      jumpi\n      0x00\n      dup1\n      revert\n    tag_35:\n      dup1\n      0x36568abe\n      eq\n      tag_9\n      jumpi\n      dup1\n      0x5792febf\n      eq\n      tag_10\n      jumpi\n      dup1\n      0x61c78cce\n      eq\n      tag_11\n      jumpi\n      0x00\n      dup1\n      revert\n    tag_34:\n      dup1\n      0x01ffc9a7\n      eq\n      tag_3\n      jumpi\n      dup1\n      0x21606831\n      eq\n      tag_4\n      jumpi\n      dup1\n      0x226839ba\n      eq\n      tag_5\n      jumpi\n      dup1\n      0x248a9ca3\n      eq\n      tag_6\n      jumpi\n      dup1\n      0x2b553fb4\n      eq\n      tag_7\n      jumpi\n      dup1\n      0x2f2ff15d\n      eq\n      tag_8\n      jumpi\n    tag_2:\n      0x00\n      dup1\n      revert\n        /* \"@openzeppelin/contracts/access/AccessControl.sol\":2606:2808  function supportsInterface(bytes4 interfaceId) public view virtual override returns (bool) {... */\n    tag_3:\n      tag_36\n      tag_37\n      calldatasize\n      0x04\n      tag_38\n      jump\t// in\n    tag_37:\n      tag_39\n      jump\t// in\n    tag_36:\n      mload(0x40)\n        /* \"#utility.yul\":2822:2836   */\n      swap1\n      iszero\n        /* \"#utility.yul\":2815:2837   */\n      iszero\n        /* \"#utility.yul\":2797:2838   */\n      dup2\n      mstore\n        /* \"#utility.yul\":2785:2787   */\n      0x20\n        /* \"#utility.yul\":2770:2788   */\n      add\n        /* \"@openzeppelin/contracts/access/AccessControl.sol\":2606:2808  function supportsInterface(bytes4 interfaceId) public view virtual override returns (bool) {... */\n    tag_40:\n      mload(0x40)\n      dup1\n      swap2\n      sub\n      swap1\n      return\n        /* \"votes.sol\":3084:3694  function votar (uint _candidato) public {... */\n    tag_4:\n      tag_42\n      tag_43\n      calldatasize\n      0x04\n      tag_52\n      jump\t// in\n    tag_43:\n      tag_45\n      jump\t// in\n    tag_42:\n      stop\n        /* \"votes.sol\":2794:2999  function derechoVoto() public view returns(string memory){... */\n    tag_5:\n      tag_46\n      tag_47\n      jump\t// in\n    tag_46:\n      mload(0x40)\n      tag_40\n      swap2\n      swap1\n      tag_49\n      jump\t// in\n        /* \"@openzeppelin/contracts/access/AccessControl.sol\":4391:4520  function getRoleAdmin(bytes32 role) public view virtual override returns (bytes32) {... */\n    tag_6:\n      tag_50\n      tag_51\n      calldatasize\n      0x04\n      tag_52\n      jump\t// in\n    tag_51:\n        /* \"@openzeppelin/contracts/access/AccessControl.sol\":4465:4472  bytes32 */\n      0x00\n        /* \"@openzeppelin/contracts/access/AccessControl.sol\":4491:4503  _roles[role] */\n      swap1\n      dup2\n      mstore\n        /* \"@openzeppelin/contracts/access/AccessControl.sol\":4491:4497  _roles */\n      0x01\n        /* \"@openzeppelin/contracts/access/AccessControl.sol\":4491:4503  _roles[role] */\n      0x20\n      dup2\n      swap1\n      mstore\n      0x40\n      swap1\n      swap2\n      keccak256\n        /* \"@openzeppelin/contracts/access/AccessControl.sol\":4491:4513  _roles[role].adminRole */\n      add\n      sload\n      swap1\n        /* \"@openzeppelin/contracts/access/AccessControl.sol\":4391:4520  function getRoleAdmin(bytes32 role) public view virtual override returns (bytes32) {... */\n      jump\n    tag_50:\n      mload(0x40)\n        /* \"#utility.yul\":2995:3020   */\n      swap1\n      dup2\n      mstore\n        /* \"#utility.yul\":2983:2985   */\n      0x20\n        /* \"#utility.yul\":2968:2986   */\n      add\n        /* \"@openzeppelin/contracts/access/AccessControl.sol\":4391:4520  function getRoleAdmin(bytes32 role) public view virtual override returns (bytes32) {... */\n      tag_40\n        /* \"#utility.yul\":2849:3026   */\n      jump\n        /* \"votes.sol\":2555:2635  function duenoChecar() public onlyOwner {... */\n    tag_7:\n      tag_42\n      tag_57\n      jump\t// in\n        /* \"@openzeppelin/contracts/access/AccessControl.sol\":4816:4961  function grantRole(bytes32 role, address account) public virtual override onlyRole(getRoleAdmin(role)) {... */\n    tag_8:\n      tag_42\n      tag_59\n      calldatasize\n      0x04\n      tag_60\n      jump\t// in\n    tag_59:\n      tag_61\n      jump\t// in\n        /* \"@openzeppelin/contracts/access/AccessControl.sol\":5925:6139  function renounceRole(bytes32 role, address account) public virtual override {... */\n    tag_9:\n      tag_42\n      tag_63\n      calldatasize\n      0x04\n      tag_60\n      jump\t// in\n    tag_63:\n      tag_64\n      jump\t// in\n        /* \"votes.sol\":4525:5704  function candidatoGanador() public view returns (uint candidatoGanador_)... */\n    tag_10:\n      tag_50\n      tag_66\n      jump\t// in\n        /* \"votes.sol\":1821:2009  Candidato public candidato2 = Candidato({... */\n    tag_11:\n      tag_69\n      tag_70\n      jump\t// in\n    tag_69:\n      mload(0x40)\n      tag_40\n      swap5\n      swap4\n      swap3\n      swap2\n      swap1\n      tag_72\n      jump\t// in\n        /* \"@openzeppelin/contracts/access/Ownable.sol\":1831:1932  function renounceOwnership() public virtual onlyOwner {... */\n    tag_12:\n      tag_42\n      tag_74\n      jump\t// in\n        /* \"votes.sol\":223:289  bytes32 public constant ROLE_VOLTANTE = keccak256(\"ROLE_VOLTANTE\") */\n    tag_13:\n      tag_50\n      0x00\n      dup1\n      mload\n      0x20\n      data_198bebe9962b5ee2dce0a2dd3eab4c01cd873d2542d3fc48a6e161e1a0e8d753\n      dup4\n      codecopy\n      dup2\n      mload\n      swap2\n      mstore\n      dup2\n      jump\n        /* \"@openzeppelin/contracts/access/Ownable.sol\":1201:1286  function owner() public view virtual returns (address) {... */\n    tag_14:\n        /* \"@openzeppelin/contracts/access/Ownable.sol\":1247:1254  address */\n      0x00\n        /* \"@openzeppelin/contracts/access/Ownable.sol\":1273:1279  _owner */\n      sload\n      sub(exp(0x02, 0xa0), 0x01)\n      and\n        /* \"@openzeppelin/contracts/access/Ownable.sol\":1201:1286  function owner() public view virtual returns (address) {... */\n    tag_78:\n      mload(0x40)\n      sub(exp(0x02, 0xa0), 0x01)\n        /* \"#utility.yul\":2590:2645   */\n      swap1\n      swap2\n      and\n        /* \"#utility.yul\":2572:2646   */\n      dup2\n      mstore\n        /* \"#utility.yul\":2560:2562   */\n      0x20\n        /* \"#utility.yul\":2545:2563   */\n      add\n        /* \"@openzeppelin/contracts/access/Ownable.sol\":1201:1286  function owner() public view virtual returns (address) {... */\n      tag_40\n        /* \"#utility.yul\":2426:2652   */\n      jump\n        /* \"@openzeppelin/contracts/access/AccessControl.sol\":2895:3040  function hasRole(bytes32 role, address account) public view virtual override returns (bool) {... */\n    tag_15:\n      tag_36\n      tag_83\n      calldatasize\n      0x04\n      tag_60\n      jump\t// in\n    tag_83:\n      tag_84\n      jump\t// in\n        /* \"@openzeppelin/contracts/access/AccessControl.sol\":2027:2076  bytes32 public constant DEFAULT_ADMIN_ROLE = 0x00 */\n    tag_16:\n      tag_50\n        /* \"@openzeppelin/contracts/access/AccessControl.sol\":2072:2076  0x00 */\n      0x00\n        /* \"@openzeppelin/contracts/access/AccessControl.sol\":2027:2076  bytes32 public constant DEFAULT_ADMIN_ROLE = 0x00 */\n      dup2\n      jump\n        /* \"votes.sol\":603:638  string public votoMalo = \"No Voto!\" */\n    tag_17:\n      tag_46\n      tag_90\n      jump\t// in\n        /* \"votes.sol\":561:597  string public votoBueno = \"Se Voto!\" */\n    tag_18:\n      tag_46\n      tag_93\n      jump\t// in\n        /* \"votes.sol\":4266:4436  function tiempoinicio() public pure returns (uint256 duracion){... */\n    tag_20:\n        /* \"votes.sol\":4389:4391  60 */\n      0x3c\n        /* \"votes.sol\":4266:4436  function tiempoinicio() public pure returns (uint256 duracion){... */\n      jump(tag_50)\n        /* \"votes.sol\":6188:6603  function addressGanador() external view returns (address addressGanador_){ ... */\n    tag_21:\n      tag_78\n      tag_101\n      jump\t// in\n        /* \"votes.sol\":2645:2788  function permisoVotar() public view returns(bool) {... */\n    tag_22:\n      tag_36\n      tag_104\n      jump\t// in\n        /* \"votes.sol\":906:1134  function voto() public view returns(bool) {... */\n    tag_23:\n      tag_36\n      tag_107\n      jump\t// in\n        /* \"votes.sol\":365:425  bytes32 public constant ROLE_ADMIN = keccak256(\"ROLE_ADMIN\") */\n    tag_24:\n      tag_50\n        /* \"votes.sol\":402:425  keccak256(\"ROLE_ADMIN\") */\n      0x2172861495e7b85edac73e3cd5fbb42dd675baadf627720e687bcfdaca025096\n        /* \"votes.sol\":365:425  bytes32 public constant ROLE_ADMIN = keccak256(\"ROLE_ADMIN\") */\n      dup2\n      jump\n        /* \"@openzeppelin/contracts/access/AccessControl.sol\":5241:5388  function revokeRole(bytes32 role, address account) public virtual override onlyRole(getRoleAdmin(role)) {... */\n    tag_25:\n      tag_42\n      tag_113\n      calldatasize\n      0x04\n      tag_60\n      jump\t// in\n    tag_113:\n      tag_114\n      jump\t// in\n        /* \"votes.sol\":2017:2206  Candidato public candidato3 = Candidato({... */\n    tag_26:\n      tag_69\n      tag_116\n      jump\t// in\n        /* \"@openzeppelin/contracts/access/Ownable.sol\":2081:2279  function transferOwnership(address newOwner) public virtual onlyOwner {... */\n    tag_27:\n      tag_42\n      tag_119\n      calldatasize\n      0x04\n      tag_120\n      jump\t// in\n    tag_119:\n      tag_121\n      jump\t// in\n        /* \"votes.sol\":1623:1813  Candidato public candidato1 = Candidato({... */\n    tag_28:\n      tag_69\n      tag_123\n      jump\t// in\n        /* \"votes.sol\":5711:6180  function nombreGanador() external view... */\n    tag_29:\n      tag_46\n      tag_126\n      jump\t// in\n        /* \"@openzeppelin/contracts/access/AccessControl.sol\":2606:2808  function supportsInterface(bytes4 interfaceId) public view virtual override returns (bool) {... */\n    tag_39:\n        /* \"@openzeppelin/contracts/access/AccessControl.sol\":2691:2695  bool */\n      0x00\n      not(0xffffffffffffffffffffffffffffffffffffffffffffffffffffffff)\n        /* \"@openzeppelin/contracts/access/AccessControl.sol\":2714:2761  interfaceId == type(IAccessControl).interfaceId */\n      dup3\n      and\n        /* \"@openzeppelin/contracts/access/AccessControl.sol\":2729:2761  type(IAccessControl).interfaceId */\n      0x7965db0b00000000000000000000000000000000000000000000000000000000\n        /* \"@openzeppelin/contracts/access/AccessControl.sol\":2714:2761  interfaceId == type(IAccessControl).interfaceId */\n      eq\n      dup1\n        /* \"@openzeppelin/contracts/access/AccessControl.sol\":2714:2801  interfaceId == type(IAccessControl).interfaceId || super.supportsInterface(interfaceId) */\n      tag_130\n      jumpi\n      pop\n        /* \"@openzeppelin/contracts/utils/introspection/ERC165.sol\":952:977  type(IERC165).interfaceId */\n      0x01ffc9a700000000000000000000000000000000000000000000000000000000\n      not(0xffffffffffffffffffffffffffffffffffffffffffffffffffffffff)\n        /* \"@openzeppelin/contracts/utils/introspection/ERC165.sol\":937:977  interfaceId == type(IERC165).interfaceId */\n      dup4\n      and\n      eq\n        /* \"@openzeppelin/contracts/access/AccessControl.sol\":2765:2801  super.supportsInterface(interfaceId) */\n    tag_130:\n        /* \"@openzeppelin/contracts/access/AccessControl.sol\":2707:2801  return interfaceId == type(IAccessControl).interfaceId || super.supportsInterface(interfaceId) */\n      swap3\n        /* \"@openzeppelin/contracts/access/AccessControl.sol\":2606:2808  function supportsInterface(bytes4 interfaceId) public view virtual override returns (bool) {... */\n      swap2\n      pop\n      pop\n      jump\t// out\n        /* \"votes.sol\":3084:3694  function votar (uint _candidato) public {... */\n    tag_45:\n        /* \"votes.sol\":3151:3161  msg.sender */\n      caller\n        /* \"votes.sol\":3142:3162  votantes[msg.sender] */\n      0x00\n      swap1\n      dup2\n      mstore\n        /* \"votes.sol\":3142:3150  votantes */\n      0x05\n        /* \"votes.sol\":3142:3162  votantes[msg.sender] */\n      0x20\n      mstore\n      0x40\n      swap1\n      keccak256\n        /* \"votes.sol\":3142:3173  votantes[msg.sender].puedeVotar */\n      sload\n      0x0100\n      swap1\n      div\n      0xff\n      and\n        /* \"votes.sol\":3134:3193  require(votantes[msg.sender].puedeVotar, \"No puedes votar\") */\n      tag_133\n      jumpi\n      mload(0x40)\n      mul(0x461bcd, exp(0x02, 0xe5))\n      dup2\n      mstore\n        /* \"#utility.yul\":5681:5683   */\n      0x20\n        /* \"votes.sol\":3134:3193  require(votantes[msg.sender].puedeVotar, \"No puedes votar\") */\n      0x04\n      dup3\n      add\n        /* \"#utility.yul\":5663:5684   */\n      mstore\n        /* \"#utility.yul\":5720:5722   */\n      0x0f\n        /* \"#utility.yul\":5700:5718   */\n      0x24\n      dup3\n      add\n        /* \"#utility.yul\":5693:5723   */\n      mstore\n        /* \"#utility.yul\":5759:5776   */\n      0x4e6f2070756564657320766f7461720000000000000000000000000000000000\n        /* \"#utility.yul\":5739:5757   */\n      0x44\n      dup3\n      add\n        /* \"#utility.yul\":5732:5777   */\n      mstore\n        /* \"#utility.yul\":5794:5812   */\n      0x64\n      add\n        /* \"votes.sol\":3134:3193  require(votantes[msg.sender].puedeVotar, \"No puedes votar\") */\n    tag_134:\n      mload(0x40)\n      dup1\n      swap2\n      sub\n      swap1\n      revert\n    tag_133:\n        /* \"votes.sol\":3212:3222  msg.sender */\n      caller\n        /* \"votes.sol\":3203:3223  votantes[msg.sender] */\n      0x00\n      swap1\n      dup2\n      mstore\n        /* \"votes.sol\":3203:3211  votantes */\n      0x05\n        /* \"votes.sol\":3203:3223  votantes[msg.sender] */\n      0x20\n      mstore\n      0x40\n      swap1\n      keccak256\n        /* \"votes.sol\":3203:3235  votantes[msg.sender].voto = true */\n      dup1\n      sload\n      not(0xff)\n      and\n        /* \"votes.sol\":3231:3235  true */\n      0x01\n        /* \"votes.sol\":3203:3235  votantes[msg.sender].voto = true */\n      swap1\n      dup2\n      or\n      swap1\n      swap2\n      sstore\n        /* \"votes.sol\":3316:3331  _candidato == 1 */\n      dup2\n      eq\n        /* \"votes.sol\":3312:3437  if (_candidato == 1){... */\n      iszero\n      tag_136\n      jumpi\n        /* \"votes.sol\":3412:3413  1 */\n      0x01\n        /* \"votes.sol\":3384:3394  candidato1 */\n      0x06\n        /* \"votes.sol\":3384:3408  candidato1.contadorVotos */\n      0x03\n      add\n      0x00\n        /* \"votes.sol\":3384:3413  candidato1.contadorVotos += 1 */\n      dup3\n      dup3\n      sload\n      tag_137\n      swap2\n      swap1\n      tag_138\n      jump\t// in\n    tag_137:\n      swap1\n      swap2\n      sstore\n      pop\n      pop\n        /* \"votes.sol\":3312:3437  if (_candidato == 1){... */\n    tag_136:\n        /* \"votes.sol\":3450:3460  _candidato */\n      dup1\n        /* \"votes.sol\":3464:3465  2 */\n      0x02\n        /* \"votes.sol\":3450:3465  _candidato == 2 */\n      eq\n        /* \"votes.sol\":3446:3568  if (_candidato == 2){ ... */\n      iszero\n      tag_139\n      jumpi\n        /* \"votes.sol\":3545:3546  1 */\n      0x01\n        /* \"votes.sol\":3517:3527  candidato2 */\n      0x0a\n        /* \"votes.sol\":3517:3541  candidato2.contadorVotos */\n      0x03\n      add\n      0x00\n        /* \"votes.sol\":3517:3546  candidato2.contadorVotos += 1 */\n      dup3\n      dup3\n      sload\n      tag_140\n      swap2\n      swap1\n      tag_138\n      jump\t// in\n    tag_140:\n      swap1\n      swap2\n      sstore\n      pop\n      pop\n        /* \"votes.sol\":3446:3568  if (_candidato == 2){ ... */\n    tag_139:\n        /* \"votes.sol\":3581:3591  _candidato */\n      dup1\n        /* \"votes.sol\":3595:3596  3 */\n      0x03\n        /* \"votes.sol\":3581:3596  _candidato == 3 */\n      eq\n        /* \"votes.sol\":3577:3687  if (_candidato == 3){... */\n      iszero\n      tag_141\n      jumpi\n        /* \"votes.sol\":3675:3676  1 */\n      0x01\n        /* \"votes.sol\":3647:3657  candidato3 */\n      0x0e\n        /* \"votes.sol\":3647:3671  candidato3.contadorVotos */\n      0x03\n      add\n      0x00\n        /* \"votes.sol\":3647:3676  candidato3.contadorVotos += 1 */\n      dup3\n      dup3\n      sload\n      tag_142\n      swap2\n      swap1\n      tag_138\n      jump\t// in\n    tag_142:\n      swap1\n      swap2\n      sstore\n      pop\n      pop\n        /* \"votes.sol\":3577:3687  if (_candidato == 3){... */\n    tag_141:\n        /* \"votes.sol\":3084:3694  function votar (uint _candidato) public {... */\n      pop\n      jump\t// out\n        /* \"votes.sol\":2794:2999  function derechoVoto() public view returns(string memory){... */\n    tag_47:\n        /* \"votes.sol\":2837:2850  string memory */\n      0x60\n        /* \"votes.sol\":2869:2903  hasRole(ROLE_VOLTANTE, msg.sender) */\n      tag_144\n      0x00\n      dup1\n      mload\n      0x20\n      data_198bebe9962b5ee2dce0a2dd3eab4c01cd873d2542d3fc48a6e161e1a0e8d753\n      dup4\n      codecopy\n      dup2\n      mload\n      swap2\n      mstore\n        /* \"votes.sol\":2892:2902  msg.sender */\n      caller\n        /* \"votes.sol\":2869:2876  hasRole */\n      tag_84\n        /* \"votes.sol\":2869:2903  hasRole(ROLE_VOLTANTE, msg.sender) */\n      jump\t// in\n    tag_144:\n        /* \"votes.sol\":2861:2954  require(hasRole(ROLE_VOLTANTE, msg.sender), \"Solo las voltante puede darte derecho al Voto.\") */\n      tag_145\n      jumpi\n      mload(0x40)\n      mul(0x461bcd, exp(0x02, 0xe5))\n      dup2\n      mstore\n        /* \"#utility.yul\":3819:3821   */\n      0x20\n        /* \"votes.sol\":2861:2954  require(hasRole(ROLE_VOLTANTE, msg.sender), \"Solo las voltante puede darte derecho al Voto.\") */\n      0x04\n      dup3\n      add\n        /* \"#utility.yul\":3801:3822   */\n      mstore\n        /* \"#utility.yul\":3858:3860   */\n      0x2e\n        /* \"#utility.yul\":3838:3856   */\n      0x24\n      dup3\n      add\n        /* \"#utility.yul\":3831:3861   */\n      mstore\n        /* \"#utility.yul\":3897:3931   */\n      0x536f6c6f206c617320766f6c74616e7465207075656465206461727465206465\n        /* \"#utility.yul\":3877:3895   */\n      0x44\n      dup3\n      add\n        /* \"#utility.yul\":3870:3932   */\n      mstore\n        /* \"#utility.yul\":3968:3984   */\n      0x726563686f20616c20566f746f2e000000000000000000000000000000000000\n        /* \"#utility.yul\":3948:3966   */\n      0x64\n      dup3\n      add\n        /* \"#utility.yul\":3941:3985   */\n      mstore\n        /* \"#utility.yul\":4002:4021   */\n      0x84\n      add\n        /* \"votes.sol\":2861:2954  require(hasRole(ROLE_VOLTANTE, msg.sender), \"Solo las voltante puede darte derecho al Voto.\") */\n      tag_134\n        /* \"#utility.yul\":3617:4027   */\n      jump\n        /* \"votes.sol\":2861:2954  require(hasRole(ROLE_VOLTANTE, msg.sender), \"Solo las voltante puede darte derecho al Voto.\") */\n    tag_145:\n      pop\n        /* \"votes.sol\":2964:2992  return \"El votante ya voto.\" */\n      0x40\n      dup1\n      mload\n      dup1\n      dup3\n      add\n      swap1\n      swap2\n      mstore\n      0x13\n      dup2\n      mstore\n      0x456c20766f74616e746520796120766f746f2e00000000000000000000000000\n      0x20\n      dup3\n      add\n      mstore\n      swap1\n        /* \"votes.sol\":2794:2999  function derechoVoto() public view returns(string memory){... */\n      jump\t// out\n        /* \"votes.sol\":2555:2635  function duenoChecar() public onlyOwner {... */\n    tag_57:\n        /* \"@openzeppelin/contracts/access/Ownable.sol\":1094:1107  _checkOwner() */\n      tag_150\n        /* \"@openzeppelin/contracts/access/Ownable.sol\":1094:1105  _checkOwner */\n      tag_151\n        /* \"@openzeppelin/contracts/access/Ownable.sol\":1094:1107  _checkOwner() */\n      jump\t// in\n    tag_150:\n        /* \"votes.sol\":2555:2635  function duenoChecar() public onlyOwner {... */\n      jump\t// out\n        /* \"@openzeppelin/contracts/access/AccessControl.sol\":4816:4961  function grantRole(bytes32 role, address account) public virtual override onlyRole(getRoleAdmin(role)) {... */\n    tag_61:\n        /* \"@openzeppelin/contracts/access/AccessControl.sol\":4465:4472  bytes32 */\n      0x00\n        /* \"@openzeppelin/contracts/access/AccessControl.sol\":4491:4503  _roles[role] */\n      dup3\n      dup2\n      mstore\n        /* \"@openzeppelin/contracts/access/AccessControl.sol\":4491:4497  _roles */\n      0x01\n        /* \"@openzeppelin/contracts/access/AccessControl.sol\":4491:4503  _roles[role] */\n      0x20\n      dup2\n      swap1\n      mstore\n      0x40\n      swap1\n      swap2\n      keccak256\n        /* \"@openzeppelin/contracts/access/AccessControl.sol\":4491:4513  _roles[role].adminRole */\n      add\n      sload\n        /* \"@openzeppelin/contracts/access/AccessControl.sol\":2505:2521  _checkRole(role) */\n      tag_155\n        /* \"@openzeppelin/contracts/access/AccessControl.sol\":2516:2520  role */\n      dup2\n        /* \"@openzeppelin/contracts/access/AccessControl.sol\":2505:2515  _checkRole */\n      tag_156\n        /* \"@openzeppelin/contracts/access/AccessControl.sol\":2505:2521  _checkRole(role) */\n      jump\t// in\n    tag_155:\n        /* \"@openzeppelin/contracts/access/AccessControl.sol\":4929:4954  _grantRole(role, account) */\n      tag_158\n        /* \"@openzeppelin/contracts/access/AccessControl.sol\":4940:4944  role */\n      dup4\n        /* \"@openzeppelin/contracts/access/AccessControl.sol\":4946:4953  account */\n      dup4\n        /* \"@openzeppelin/contracts/access/AccessControl.sol\":4929:4939  _grantRole */\n      tag_159\n        /* \"@openzeppelin/contracts/access/AccessControl.sol\":4929:4954  _grantRole(role, account) */\n      jump\t// in\n    tag_158:\n        /* \"@openzeppelin/contracts/access/AccessControl.sol\":4816:4961  function grantRole(bytes32 role, address account) public virtual override onlyRole(getRoleAdmin(role)) {... */\n      pop\n      pop\n      pop\n      jump\t// out\n        /* \"@openzeppelin/contracts/access/AccessControl.sol\":5925:6139  function renounceRole(bytes32 role, address account) public virtual override {... */\n    tag_64:\n      sub(exp(0x02, 0xa0), 0x01)\n        /* \"@openzeppelin/contracts/access/AccessControl.sol\":6020:6043  account == _msgSender() */\n      dup2\n      and\n        /* \"@openzeppelin/contracts/utils/Context.sol\":719:729  msg.sender */\n      caller\n        /* \"@openzeppelin/contracts/access/AccessControl.sol\":6020:6043  account == _msgSender() */\n      eq\n        /* \"@openzeppelin/contracts/access/AccessControl.sol\":6012:6095  require(account == _msgSender(), \"AccessControl: can only renounce roles for self\") */\n      tag_163\n      jumpi\n      mload(0x40)\n      mul(0x461bcd, exp(0x02, 0xe5))\n      dup2\n      mstore\n        /* \"#utility.yul\":6025:6027   */\n      0x20\n        /* \"@openzeppelin/contracts/access/AccessControl.sol\":6012:6095  require(account == _msgSender(), \"AccessControl: can only renounce roles for self\") */\n      0x04\n      dup3\n      add\n        /* \"#utility.yul\":6007:6028   */\n      mstore\n        /* \"#utility.yul\":6064:6066   */\n      0x2f\n        /* \"#utility.yul\":6044:6062   */\n      0x24\n      dup3\n      add\n        /* \"#utility.yul\":6037:6067   */\n      mstore\n        /* \"#utility.yul\":6103:6137   */\n      0x416363657373436f6e74726f6c3a2063616e206f6e6c792072656e6f756e6365\n        /* \"#utility.yul\":6083:6101   */\n      0x44\n      dup3\n      add\n        /* \"#utility.yul\":6076:6138   */\n      mstore\n        /* \"#utility.yul\":6174:6191   */\n      0x20726f6c657320666f722073656c660000000000000000000000000000000000\n        /* \"#utility.yul\":6154:6172   */\n      0x64\n      dup3\n      add\n        /* \"#utility.yul\":6147:6192   */\n      mstore\n        /* \"#utility.yul\":6209:6228   */\n      0x84\n      add\n        /* \"@openzeppelin/contracts/access/AccessControl.sol\":6012:6095  require(account == _msgSender(), \"AccessControl: can only renounce roles for self\") */\n      tag_134\n        /* \"#utility.yul\":5823:6234   */\n      jump\n        /* \"@openzeppelin/contracts/access/AccessControl.sol\":6012:6095  require(account == _msgSender(), \"AccessControl: can only renounce roles for self\") */\n    tag_163:\n        /* \"@openzeppelin/contracts/access/AccessControl.sol\":6106:6132  _revokeRole(role, account) */\n      tag_166\n        /* \"@openzeppelin/contracts/access/AccessControl.sol\":6118:6122  role */\n      dup3\n        /* \"@openzeppelin/contracts/access/AccessControl.sol\":6124:6131  account */\n      dup3\n        /* \"@openzeppelin/contracts/access/AccessControl.sol\":6106:6117  _revokeRole */\n      tag_167\n        /* \"@openzeppelin/contracts/access/AccessControl.sol\":6106:6132  _revokeRole(role, account) */\n      jump\t// in\n    tag_166:\n        /* \"@openzeppelin/contracts/access/AccessControl.sol\":5925:6139  function renounceRole(bytes32 role, address account) public virtual override {... */\n      pop\n      pop\n      jump\t// out\n        /* \"votes.sol\":4525:5704  function candidatoGanador() public view returns (uint candidatoGanador_)... */\n    tag_66:\n        /* \"votes.sol\":4574:4596  uint candidatoGanador_ */\n      0x00\n      dup1\n      dup1\n        /* \"votes.sol\":4968:5697  for (uint p = 0; p <= 3; p++) {... */\n    tag_169:\n        /* \"votes.sol\":4990:4991  3 */\n      0x03\n        /* \"votes.sol\":4985:4986  p */\n      dup2\n        /* \"votes.sol\":4985:4991  p <= 3 */\n      gt\n        /* \"votes.sol\":4968:5697  for (uint p = 0; p <= 3; p++) {... */\n      tag_170\n      jumpi\n        /* \"votes.sol\":5039:5063  candidato2.contadorVotos */\n      sload(0x0d)\n        /* \"votes.sol\":5012:5036  candidato1.contadorVotos */\n      sload(0x09)\n        /* \"votes.sol\":5012:5063  candidato1.contadorVotos > candidato2.contadorVotos */\n      gt\n        /* \"votes.sol\":5012:5118  candidato1.contadorVotos > candidato2.contadorVotos && candidato1.contadorVotos > candidato3.contadorVotos */\n      dup1\n      iszero\n      tag_172\n      jumpi\n      pop\n        /* \"votes.sol\":5094:5118  candidato3.contadorVotos */\n      sload(0x11)\n        /* \"votes.sol\":5067:5091  candidato1.contadorVotos */\n      sload(0x09)\n        /* \"votes.sol\":5067:5118  candidato1.contadorVotos > candidato3.contadorVotos */\n      gt\n        /* \"votes.sol\":5012:5118  candidato1.contadorVotos > candidato2.contadorVotos && candidato1.contadorVotos > candidato3.contadorVotos */\n    tag_172:\n        /* \"votes.sol\":5008:5228  if (candidato1.contadorVotos > candidato2.contadorVotos && candidato1.contadorVotos > candidato3.contadorVotos){... */\n      iszero\n      tag_173\n      jumpi\n        /* \"votes.sol\":5156:5180  candidato1.contadorVotos */\n      sload(0x09)\n        /* \"votes.sol\":5214:5215  1 */\n      0x01\n      swap4\n      pop\n        /* \"votes.sol\":5156:5180  candidato1.contadorVotos */\n      swap2\n      pop\n        /* \"votes.sol\":5008:5228  if (candidato1.contadorVotos > candidato2.contadorVotos && candidato1.contadorVotos > candidato3.contadorVotos){... */\n    tag_173:\n        /* \"votes.sol\":5268:5292  candidato1.contadorVotos */\n      sload(0x09)\n        /* \"votes.sol\":5241:5265  candidato2.contadorVotos */\n      sload(0x0d)\n        /* \"votes.sol\":5241:5292  candidato2.contadorVotos > candidato1.contadorVotos */\n      gt\n        /* \"votes.sol\":5241:5347  candidato2.contadorVotos > candidato1.contadorVotos && candidato2.contadorVotos > candidato3.contadorVotos */\n      dup1\n      iszero\n      tag_174\n      jumpi\n      pop\n        /* \"votes.sol\":5323:5347  candidato3.contadorVotos */\n      sload(0x11)\n        /* \"votes.sol\":5296:5320  candidato2.contadorVotos */\n      sload(0x0d)\n        /* \"votes.sol\":5296:5347  candidato2.contadorVotos > candidato3.contadorVotos */\n      gt\n        /* \"votes.sol\":5241:5347  candidato2.contadorVotos > candidato1.contadorVotos && candidato2.contadorVotos > candidato3.contadorVotos */\n    tag_174:\n        /* \"votes.sol\":5237:5455  if (candidato2.contadorVotos > candidato1.contadorVotos && candidato2.contadorVotos > candidato3.contadorVotos){... */\n      iszero\n      tag_175\n      jumpi\n        /* \"votes.sol\":5385:5409  candidato2.contadorVotos */\n      sload(0x0d)\n        /* \"votes.sol\":5443:5444  2 */\n      0x02\n      swap4\n      pop\n        /* \"votes.sol\":5385:5409  candidato2.contadorVotos */\n      swap2\n      pop\n        /* \"votes.sol\":5237:5455  if (candidato2.contadorVotos > candidato1.contadorVotos && candidato2.contadorVotos > candidato3.contadorVotos){... */\n    tag_175:\n        /* \"votes.sol\":5495:5519  candidato1.contadorVotos */\n      sload(0x09)\n        /* \"votes.sol\":5468:5492  candidato3.contadorVotos */\n      sload(0x11)\n        /* \"votes.sol\":5468:5519  candidato3.contadorVotos > candidato1.contadorVotos */\n      gt\n        /* \"votes.sol\":5468:5574  candidato3.contadorVotos > candidato1.contadorVotos && candidato3.contadorVotos > candidato2.contadorVotos */\n      dup1\n      iszero\n      tag_176\n      jumpi\n      pop\n        /* \"votes.sol\":5550:5574  candidato2.contadorVotos */\n      sload(0x0d)\n        /* \"votes.sol\":5523:5547  candidato3.contadorVotos */\n      sload(0x11)\n        /* \"votes.sol\":5523:5574  candidato3.contadorVotos > candidato2.contadorVotos */\n      gt\n        /* \"votes.sol\":5468:5574  candidato3.contadorVotos > candidato1.contadorVotos && candidato3.contadorVotos > candidato2.contadorVotos */\n    tag_176:\n        /* \"votes.sol\":5464:5682  if (candidato3.contadorVotos > candidato1.contadorVotos && candidato3.contadorVotos > candidato2.contadorVotos){... */\n      iszero\n      tag_177\n      jumpi\n        /* \"votes.sol\":5612:5636  candidato3.contadorVotos */\n      sload(0x11)\n      0x03\n      swap4\n      pop\n      swap2\n      pop\n        /* \"votes.sol\":5464:5682  if (candidato3.contadorVotos > candidato1.contadorVotos && candidato3.contadorVotos > candidato2.contadorVotos){... */\n    tag_177:\n        /* \"votes.sol\":4993:4996  p++ */\n      dup1\n      tag_178\n      dup2\n      tag_179\n      jump\t// in\n    tag_178:\n      swap2\n      pop\n      pop\n        /* \"votes.sol\":4968:5697  for (uint p = 0; p <= 3; p++) {... */\n      jump(tag_169)\n    tag_170:\n      pop\n        /* \"votes.sol\":4602:5704  {... */\n      pop\n        /* \"votes.sol\":4525:5704  function candidatoGanador() public view returns (uint candidatoGanador_)... */\n      swap1\n      jump\t// out\n        /* \"votes.sol\":1821:2009  Candidato public candidato2 = Candidato({... */\n    tag_70:\n      0x0a\n      dup1\n      sload\n      sload(0x0b)\n      0x0c\n      dup1\n      sload\n      swap3\n      swap4\n      sub(exp(0x02, 0xa0), 0x01)\n      swap1\n      swap3\n      and\n      swap3\n      tag_180\n      swap1\n      tag_181\n      jump\t// in\n    tag_180:\n      dup1\n      0x1f\n      add\n      0x20\n      dup1\n      swap2\n      div\n      mul\n      0x20\n      add\n      mload(0x40)\n      swap1\n      dup2\n      add\n      0x40\n      mstore\n      dup1\n      swap3\n      swap2\n      swap1\n      dup2\n      dup2\n      mstore\n      0x20\n      add\n      dup3\n      dup1\n      sload\n      tag_182\n      swap1\n      tag_181\n      jump\t// in\n    tag_182:\n      dup1\n      iszero\n      tag_183\n      jumpi\n      dup1\n      0x1f\n      lt\n      tag_184\n      jumpi\n      0x0100\n      dup1\n      dup4\n      sload\n      div\n      mul\n      dup4\n      mstore\n      swap2\n      0x20\n      add\n      swap2\n      jump(tag_183)\n    tag_184:\n      dup3\n      add\n      swap2\n      swap1\n      0x00\n      mstore\n      keccak256(0x00, 0x20)\n      swap1\n    tag_185:\n      dup2\n      sload\n      dup2\n      mstore\n      swap1\n      0x01\n      add\n      swap1\n      0x20\n      add\n      dup1\n      dup4\n      gt\n      tag_185\n      jumpi\n      dup3\n      swap1\n      sub\n      0x1f\n      and\n      dup3\n      add\n      swap2\n    tag_183:\n      pop\n      pop\n      pop\n      pop\n      pop\n      swap1\n      dup1\n      0x03\n      add\n      sload\n      swap1\n      pop\n      dup5\n      jump\t// out\n        /* \"@openzeppelin/contracts/access/Ownable.sol\":1831:1932  function renounceOwnership() public virtual onlyOwner {... */\n    tag_74:\n        /* \"@openzeppelin/contracts/access/Ownable.sol\":1094:1107  _checkOwner() */\n      tag_187\n        /* \"@openzeppelin/contracts/access/Ownable.sol\":1094:1105  _checkOwner */\n      tag_151\n        /* \"@openzeppelin/contracts/access/Ownable.sol\":1094:1107  _checkOwner() */\n      jump\t// in\n    tag_187:\n        /* \"@openzeppelin/contracts/access/Ownable.sol\":1895:1925  _transferOwnership(address(0)) */\n      tag_150\n        /* \"@openzeppelin/contracts/access/Ownable.sol\":1922:1923  0 */\n      0x00\n        /* \"@openzeppelin/contracts/access/Ownable.sol\":1895:1913  _transferOwnership */\n      tag_190\n        /* \"@openzeppelin/contracts/access/Ownable.sol\":1895:1925  _transferOwnership(address(0)) */\n      jump\t// in\n        /* \"@openzeppelin/contracts/access/AccessControl.sol\":2895:3040  function hasRole(bytes32 role, address account) public view virtual override returns (bool) {... */\n    tag_84:\n        /* \"@openzeppelin/contracts/access/AccessControl.sol\":2981:2985  bool */\n      0x00\n        /* \"@openzeppelin/contracts/access/AccessControl.sol\":3004:3016  _roles[role] */\n      swap2\n      dup3\n      mstore\n        /* \"@openzeppelin/contracts/access/AccessControl.sol\":3004:3010  _roles */\n      0x01\n        /* \"@openzeppelin/contracts/access/AccessControl.sol\":3004:3016  _roles[role] */\n      0x20\n      swap1\n      dup2\n      mstore\n      0x40\n      dup1\n      dup5\n      keccak256\n      sub(exp(0x02, 0xa0), 0x01)\n        /* \"@openzeppelin/contracts/access/AccessControl.sol\":3004:3033  _roles[role].members[account] */\n      swap4\n      swap1\n      swap4\n      and\n      dup5\n      mstore\n      swap2\n      swap1\n      mstore\n      swap1\n      keccak256\n      sload\n      0xff\n      and\n      swap1\n        /* \"@openzeppelin/contracts/access/AccessControl.sol\":2895:3040  function hasRole(bytes32 role, address account) public view virtual override returns (bool) {... */\n      jump\t// out\n        /* \"votes.sol\":603:638  string public votoMalo = \"No Voto!\" */\n    tag_90:\n      0x04\n      dup1\n      sload\n      tag_193\n      swap1\n      tag_181\n      jump\t// in\n    tag_193:\n      dup1\n      0x1f\n      add\n      0x20\n      dup1\n      swap2\n      div\n      mul\n      0x20\n      add\n      mload(0x40)\n      swap1\n      dup2\n      add\n      0x40\n      mstore\n      dup1\n      swap3\n      swap2\n      swap1\n      dup2\n      dup2\n      mstore\n      0x20\n      add\n      dup3\n      dup1\n      sload\n      tag_194\n      swap1\n      tag_181\n      jump\t// in\n    tag_194:\n      dup1\n      iszero\n      tag_195\n      jumpi\n      dup1\n      0x1f\n      lt\n      tag_196\n      jumpi\n      0x0100\n      dup1\n      dup4\n      sload\n      div\n      mul\n      dup4\n      mstore\n      swap2\n      0x20\n      add\n      swap2\n      jump(tag_195)\n    tag_196:\n      dup3\n      add\n      swap2\n      swap1\n      0x00\n      mstore\n      keccak256(0x00, 0x20)\n      swap1\n    tag_197:\n      dup2\n      sload\n      dup2\n      mstore\n      swap1\n      0x01\n      add\n      swap1\n      0x20\n      add\n      dup1\n      dup4\n      gt\n      tag_197\n      jumpi\n      dup3\n      swap1\n      sub\n      0x1f\n      and\n      dup3\n      add\n      swap2\n    tag_195:\n      pop\n      pop\n      pop\n      pop\n      pop\n      dup2\n      jump\t// out\n        /* \"votes.sol\":561:597  string public votoBueno = \"Se Voto!\" */\n    tag_93:\n      0x03\n      dup1\n      sload\n      tag_193\n      swap1\n      tag_181\n      jump\t// in\n        /* \"votes.sol\":6188:6603  function addressGanador() external view returns (address addressGanador_){ ... */\n    tag_101:\n        /* \"votes.sol\":6237:6260  address addressGanador_ */\n      0x00\n        /* \"votes.sol\":6285:6303  candidatoGanador() */\n      tag_206\n        /* \"votes.sol\":6285:6301  candidatoGanador */\n      tag_66\n        /* \"votes.sol\":6285:6303  candidatoGanador() */\n      jump\t// in\n    tag_206:\n        /* \"votes.sol\":6307:6308  1 */\n      0x01\n        /* \"votes.sol\":6285:6308  candidatoGanador() == 1 */\n      eq\n        /* \"votes.sol\":6281:6380  if (candidatoGanador() == 1){... */\n      iszero\n      tag_207\n      jumpi\n      pop\n        /* \"votes.sol\":6341:6368  candidato1.addressCandidato */\n      and(sub(exp(0x02, 0xa0), 0x01), sload(0x07))\n        /* \"votes.sol\":6281:6380  if (candidatoGanador() == 1){... */\n    tag_207:\n        /* \"votes.sol\":6393:6411  candidatoGanador() */\n      tag_208\n        /* \"votes.sol\":6393:6409  candidatoGanador */\n      tag_66\n        /* \"votes.sol\":6393:6411  candidatoGanador() */\n      jump\t// in\n    tag_208:\n        /* \"votes.sol\":6415:6416  2 */\n      0x02\n        /* \"votes.sol\":6393:6416  candidatoGanador() == 2 */\n      eq\n        /* \"votes.sol\":6389:6488  if (candidatoGanador() == 2){... */\n      iszero\n      tag_209\n      jumpi\n      pop\n        /* \"votes.sol\":6449:6476  candidato2.addressCandidato */\n      and(sub(exp(0x02, 0xa0), 0x01), sload(0x0b))\n        /* \"votes.sol\":6389:6488  if (candidatoGanador() == 2){... */\n    tag_209:\n        /* \"votes.sol\":6501:6519  candidatoGanador() */\n      tag_210\n        /* \"votes.sol\":6501:6517  candidatoGanador */\n      tag_66\n        /* \"votes.sol\":6501:6519  candidatoGanador() */\n      jump\t// in\n    tag_210:\n        /* \"votes.sol\":6523:6524  3 */\n      0x03\n        /* \"votes.sol\":6501:6524  candidatoGanador() == 3 */\n      eq\n        /* \"votes.sol\":6497:6596  if (candidatoGanador() == 3){... */\n      iszero\n      tag_211\n      jumpi\n      pop\n        /* \"votes.sol\":6557:6584  candidato3.addressCandidato */\n      and(sub(exp(0x02, 0xa0), 0x01), sload(0x0f))\n        /* \"votes.sol\":6497:6596  if (candidatoGanador() == 3){... */\n    tag_211:\n        /* \"votes.sol\":6188:6603  function addressGanador() external view returns (address addressGanador_){ ... */\n      swap1\n      jump\t// out\n        /* \"votes.sol\":2645:2788  function permisoVotar() public view returns(bool) {... */\n    tag_104:\n        /* \"votes.sol\":2689:2693  bool */\n      0x00\n        /* \"votes.sol\":2713:2747  hasRole(ROLE_VOLTANTE, msg.sender) */\n      tag_213\n      0x00\n      dup1\n      mload\n      0x20\n      data_198bebe9962b5ee2dce0a2dd3eab4c01cd873d2542d3fc48a6e161e1a0e8d753\n      dup4\n      codecopy\n      dup2\n      mload\n      swap2\n      mstore\n        /* \"votes.sol\":2736:2746  msg.sender */\n      caller\n        /* \"votes.sol\":2713:2720  hasRole */\n      tag_84\n        /* \"votes.sol\":2713:2747  hasRole(ROLE_VOLTANTE, msg.sender) */\n      jump\t// in\n    tag_213:\n        /* \"votes.sol\":2705:2760  require(hasRole(ROLE_VOLTANTE, msg.sender), \"No Voto!\") */\n      tag_214\n      jumpi\n      mload(0x40)\n      mul(0x461bcd, exp(0x02, 0xe5))\n      dup2\n      mstore\n        /* \"#utility.yul\":4641:4643   */\n      0x20\n        /* \"votes.sol\":2705:2760  require(hasRole(ROLE_VOLTANTE, msg.sender), \"No Voto!\") */\n      0x04\n      dup3\n      add\n        /* \"#utility.yul\":4623:4644   */\n      mstore\n        /* \"#utility.yul\":4680:4681   */\n      0x08\n        /* \"#utility.yul\":4660:4678   */\n      0x24\n      dup3\n      add\n        /* \"#utility.yul\":4653:4682   */\n      mstore\n        /* \"#utility.yul\":4718:4728   */\n      0x4e6f20566f746f21000000000000000000000000000000000000000000000000\n        /* \"#utility.yul\":4698:4716   */\n      0x44\n      dup3\n      add\n        /* \"#utility.yul\":4691:4729   */\n      mstore\n        /* \"#utility.yul\":4746:4764   */\n      0x64\n      add\n        /* \"votes.sol\":2705:2760  require(hasRole(ROLE_VOLTANTE, msg.sender), \"No Voto!\") */\n      tag_134\n        /* \"#utility.yul\":4439:4770   */\n      jump\n        /* \"votes.sol\":2705:2760  require(hasRole(ROLE_VOLTANTE, msg.sender), \"No Voto!\") */\n    tag_214:\n      pop\n        /* \"votes.sol\":2777:2781  true */\n      0x01\n      swap1\n        /* \"votes.sol\":2645:2788  function permisoVotar() public view returns(bool) {... */\n      jump\t// out\n        /* \"votes.sol\":906:1134  function voto() public view returns(bool) {... */\n    tag_107:\n        /* \"votes.sol\":942:946  bool */\n      0x00\n        /* \"votes.sol\":1053:1087  hasRole(ROLE_VOLTANTE, msg.sender) */\n      tag_218\n      0x00\n      dup1\n      mload\n      0x20\n      data_198bebe9962b5ee2dce0a2dd3eab4c01cd873d2542d3fc48a6e161e1a0e8d753\n      dup4\n      codecopy\n      dup2\n      mload\n      swap2\n      mstore\n        /* \"votes.sol\":1076:1086  msg.sender */\n      caller\n        /* \"votes.sol\":1053:1060  hasRole */\n      tag_84\n        /* \"votes.sol\":1053:1087  hasRole(ROLE_VOLTANTE, msg.sender) */\n      jump\t// in\n    tag_218:\n        /* \"votes.sol\":1045:1106  require(hasRole(ROLE_VOLTANTE, msg.sender), \"Tu puedes voto\") */\n      tag_214\n      jumpi\n      mload(0x40)\n      mul(0x461bcd, exp(0x02, 0xe5))\n      dup2\n      mstore\n        /* \"#utility.yul\":4977:4979   */\n      0x20\n        /* \"votes.sol\":1045:1106  require(hasRole(ROLE_VOLTANTE, msg.sender), \"Tu puedes voto\") */\n      0x04\n      dup3\n      add\n        /* \"#utility.yul\":4959:4980   */\n      mstore\n        /* \"#utility.yul\":5016:5018   */\n      0x0e\n        /* \"#utility.yul\":4996:5014   */\n      0x24\n      dup3\n      add\n        /* \"#utility.yul\":4989:5019   */\n      mstore\n        /* \"#utility.yul\":5055:5071   */\n      0x54752070756564657320766f746f000000000000000000000000000000000000\n        /* \"#utility.yul\":5035:5053   */\n      0x44\n      dup3\n      add\n        /* \"#utility.yul\":5028:5072   */\n      mstore\n        /* \"#utility.yul\":5089:5107   */\n      0x64\n      add\n        /* \"votes.sol\":1045:1106  require(hasRole(ROLE_VOLTANTE, msg.sender), \"Tu puedes voto\") */\n      tag_134\n        /* \"#utility.yul\":4775:5113   */\n      jump\n        /* \"@openzeppelin/contracts/access/AccessControl.sol\":5241:5388  function revokeRole(bytes32 role, address account) public virtual override onlyRole(getRoleAdmin(role)) {... */\n    tag_114:\n        /* \"@openzeppelin/contracts/access/AccessControl.sol\":4465:4472  bytes32 */\n      0x00\n        /* \"@openzeppelin/contracts/access/AccessControl.sol\":4491:4503  _roles[role] */\n      dup3\n      dup2\n      mstore\n        /* \"@openzeppelin/contracts/access/AccessControl.sol\":4491:4497  _roles */\n      0x01\n        /* \"@openzeppelin/contracts/access/AccessControl.sol\":4491:4503  _roles[role] */\n      0x20\n      dup2\n      swap1\n      mstore\n      0x40\n      swap1\n      swap2\n      keccak256\n        /* \"@openzeppelin/contracts/access/AccessControl.sol\":4491:4513  _roles[role].adminRole */\n      add\n      sload\n        /* \"@openzeppelin/contracts/access/AccessControl.sol\":2505:2521  _checkRole(role) */\n      tag_224\n        /* \"@openzeppelin/contracts/access/AccessControl.sol\":2516:2520  role */\n      dup2\n        /* \"@openzeppelin/contracts/access/AccessControl.sol\":2505:2515  _checkRole */\n      tag_156\n        /* \"@openzeppelin/contracts/access/AccessControl.sol\":2505:2521  _checkRole(role) */\n      jump\t// in\n    tag_224:\n        /* \"@openzeppelin/contracts/access/AccessControl.sol\":5355:5381  _revokeRole(role, account) */\n      tag_158\n        /* \"@openzeppelin/contracts/access/AccessControl.sol\":5367:5371  role */\n      dup4\n        /* \"@openzeppelin/contracts/access/AccessControl.sol\":5373:5380  account */\n      dup4\n        /* \"@openzeppelin/contracts/access/AccessControl.sol\":5355:5366  _revokeRole */\n      tag_167\n        /* \"@openzeppelin/contracts/access/AccessControl.sol\":5355:5381  _revokeRole(role, account) */\n      jump\t// in\n        /* \"votes.sol\":2017:2206  Candidato public candidato3 = Candidato({... */\n    tag_116:\n      0x0e\n      dup1\n      sload\n      sload(0x0f)\n      0x10\n      dup1\n      sload\n      swap3\n      swap4\n      sub(exp(0x02, 0xa0), 0x01)\n      swap1\n      swap3\n      and\n      swap3\n      tag_180\n      swap1\n      tag_181\n      jump\t// in\n        /* \"@openzeppelin/contracts/access/Ownable.sol\":2081:2279  function transferOwnership(address newOwner) public virtual onlyOwner {... */\n    tag_121:\n        /* \"@openzeppelin/contracts/access/Ownable.sol\":1094:1107  _checkOwner() */\n      tag_233\n        /* \"@openzeppelin/contracts/access/Ownable.sol\":1094:1105  _checkOwner */\n      tag_151\n        /* \"@openzeppelin/contracts/access/Ownable.sol\":1094:1107  _checkOwner() */\n      jump\t// in\n    tag_233:\n      sub(exp(0x02, 0xa0), 0x01)\n        /* \"@openzeppelin/contracts/access/Ownable.sol\":2169:2191  newOwner != address(0) */\n      dup2\n      and\n        /* \"@openzeppelin/contracts/access/Ownable.sol\":2161:2234  require(newOwner != address(0), \"Ownable: new owner is the zero address\") */\n      tag_235\n      jumpi\n      mload(0x40)\n      mul(0x461bcd, exp(0x02, 0xe5))\n      dup2\n      mstore\n        /* \"#utility.yul\":4234:4236   */\n      0x20\n        /* \"@openzeppelin/contracts/access/Ownable.sol\":2161:2234  require(newOwner != address(0), \"Ownable: new owner is the zero address\") */\n      0x04\n      dup3\n      add\n        /* \"#utility.yul\":4216:4237   */\n      mstore\n        /* \"#utility.yul\":4273:4275   */\n      0x26\n        /* \"#utility.yul\":4253:4271   */\n      0x24\n      dup3\n      add\n        /* \"#utility.yul\":4246:4276   */\n      mstore\n        /* \"#utility.yul\":4312:4346   */\n      0x4f776e61626c653a206e6577206f776e657220697320746865207a65726f2061\n        /* \"#utility.yul\":4292:4310   */\n      0x44\n      dup3\n      add\n        /* \"#utility.yul\":4285:4347   */\n      mstore\n        /* \"#utility.yul\":4383:4391   */\n      0x6464726573730000000000000000000000000000000000000000000000000000\n        /* \"#utility.yul\":4363:4381   */\n      0x64\n      dup3\n      add\n        /* \"#utility.yul\":4356:4392   */\n      mstore\n        /* \"#utility.yul\":4409:4428   */\n      0x84\n      add\n        /* \"@openzeppelin/contracts/access/Ownable.sol\":2161:2234  require(newOwner != address(0), \"Ownable: new owner is the zero address\") */\n      tag_134\n        /* \"#utility.yul\":4032:4434   */\n      jump\n        /* \"@openzeppelin/contracts/access/Ownable.sol\":2161:2234  require(newOwner != address(0), \"Ownable: new owner is the zero address\") */\n    tag_235:\n        /* \"@openzeppelin/contracts/access/Ownable.sol\":2244:2272  _transferOwnership(newOwner) */\n      tag_141\n        /* \"@openzeppelin/contracts/access/Ownable.sol\":2263:2271  newOwner */\n      dup2\n        /* \"@openzeppelin/contracts/access/Ownable.sol\":2244:2262  _transferOwnership */\n      tag_190\n        /* \"@openzeppelin/contracts/access/Ownable.sol\":2244:2272  _transferOwnership(newOwner) */\n      jump\t// in\n        /* \"votes.sol\":1623:1813  Candidato public candidato1 = Candidato({... */\n    tag_123:\n      0x06\n      dup1\n      sload\n      sload(0x07)\n      0x08\n      dup1\n      sload\n      swap3\n      swap4\n      sub(exp(0x02, 0xa0), 0x01)\n      swap1\n      swap3\n      and\n      swap3\n      tag_180\n      swap1\n      tag_181\n      jump\t// in\n        /* \"votes.sol\":5711:6180  function nombreGanador() external view... */\n    tag_126:\n        /* \"votes.sol\":5771:5799  string memory nombreGanador_ */\n      0x60\n        /* \"votes.sol\":5895:5913  candidatoGanador() */\n      tag_245\n        /* \"votes.sol\":5895:5911  candidatoGanador */\n      tag_66\n        /* \"votes.sol\":5895:5913  candidatoGanador() */\n      jump\t// in\n    tag_245:\n        /* \"votes.sol\":5917:5918  1 */\n      0x01\n        /* \"votes.sol\":5895:5918  candidatoGanador() == 1 */\n      eq\n        /* \"votes.sol\":5891:5979  if (candidatoGanador() == 1){... */\n      iszero\n      tag_246\n      jumpi\n        /* \"votes.sol\":5950:5967  candidato1.nombre */\n      0x08\n        /* \"votes.sol\":5933:5967  nombreGanador_ = candidato1.nombre */\n      dup1\n      sload\n      tag_247\n      swap1\n      tag_181\n      jump\t// in\n    tag_247:\n      dup1\n      0x1f\n      add\n      0x20\n      dup1\n      swap2\n      div\n      mul\n      0x20\n      add\n      mload(0x40)\n      swap1\n      dup2\n      add\n      0x40\n      mstore\n      dup1\n      swap3\n      swap2\n      swap1\n      dup2\n      dup2\n      mstore\n      0x20\n      add\n      dup3\n      dup1\n      sload\n      tag_248\n      swap1\n      tag_181\n      jump\t// in\n    tag_248:\n      dup1\n      iszero\n      tag_249\n      jumpi\n      dup1\n      0x1f\n      lt\n      tag_250\n      jumpi\n      0x0100\n      dup1\n      dup4\n      sload\n      div\n      mul\n      dup4\n      mstore\n      swap2\n      0x20\n      add\n      swap2\n      jump(tag_249)\n    tag_250:\n      dup3\n      add\n      swap2\n      swap1\n      0x00\n      mstore\n      keccak256(0x00, 0x20)\n      swap1\n    tag_251:\n      dup2\n      sload\n      dup2\n      mstore\n      swap1\n      0x01\n      add\n      swap1\n      0x20\n      add\n      dup1\n      dup4\n      gt\n      tag_251\n      jumpi\n      dup3\n      swap1\n      sub\n      0x1f\n      and\n      dup3\n      add\n      swap2\n    tag_249:\n      pop\n      pop\n      pop\n      pop\n      pop\n      swap1\n      pop\n        /* \"votes.sol\":5891:5979  if (candidatoGanador() == 1){... */\n    tag_246:\n        /* \"votes.sol\":5992:6010  candidatoGanador() */\n      tag_252\n        /* \"votes.sol\":5992:6008  candidatoGanador */\n      tag_66\n        /* \"votes.sol\":5992:6010  candidatoGanador() */\n      jump\t// in\n    tag_252:\n        /* \"votes.sol\":6014:6015  2 */\n      0x02\n        /* \"votes.sol\":5992:6015  candidatoGanador() == 2 */\n      eq\n        /* \"votes.sol\":5988:6076  if (candidatoGanador() == 2){... */\n      iszero\n      tag_253\n      jumpi\n        /* \"votes.sol\":6047:6064  candidato2.nombre */\n      0x0c\n        /* \"votes.sol\":6030:6064  nombreGanador_ = candidato2.nombre */\n      dup1\n      sload\n      tag_254\n      swap1\n      tag_181\n      jump\t// in\n    tag_254:\n      dup1\n      0x1f\n      add\n      0x20\n      dup1\n      swap2\n      div\n      mul\n      0x20\n      add\n      mload(0x40)\n      swap1\n      dup2\n      add\n      0x40\n      mstore\n      dup1\n      swap3\n      swap2\n      swap1\n      dup2\n      dup2\n      mstore\n      0x20\n      add\n      dup3\n      dup1\n      sload\n      tag_255\n      swap1\n      tag_181\n      jump\t// in\n    tag_255:\n      dup1\n      iszero\n      tag_256\n      jumpi\n      dup1\n      0x1f\n      lt\n      tag_257\n      jumpi\n      0x0100\n      dup1\n      dup4\n      sload\n      div\n      mul\n      dup4\n      mstore\n      swap2\n      0x20\n      add\n      swap2\n      jump(tag_256)\n    tag_257:\n      dup3\n      add\n      swap2\n      swap1\n      0x00\n      mstore\n      keccak256(0x00, 0x20)\n      swap1\n    tag_258:\n      dup2\n      sload\n      dup2\n      mstore\n      swap1\n      0x01\n      add\n      swap1\n      0x20\n      add\n      dup1\n      dup4\n      gt\n      tag_258\n      jumpi\n      dup3\n      swap1\n      sub\n      0x1f\n      and\n      dup3\n      add\n      swap2\n    tag_256:\n      pop\n      pop\n      pop\n      pop\n      pop\n      swap1\n      pop\n        /* \"votes.sol\":5988:6076  if (candidatoGanador() == 2){... */\n    tag_253:\n        /* \"votes.sol\":6089:6107  candidatoGanador() */\n      tag_259\n        /* \"votes.sol\":6089:6105  candidatoGanador */\n      tag_66\n        /* \"votes.sol\":6089:6107  candidatoGanador() */\n      jump\t// in\n    tag_259:\n        /* \"votes.sol\":6111:6112  3 */\n      0x03\n        /* \"votes.sol\":6089:6112  candidatoGanador() == 3 */\n      eq\n        /* \"votes.sol\":6085:6173  if (candidatoGanador() == 3){... */\n      iszero\n      tag_211\n      jumpi\n        /* \"votes.sol\":6144:6161  candidato3.nombre */\n      0x10\n        /* \"votes.sol\":6127:6161  nombreGanador_ = candidato3.nombre */\n      dup1\n      sload\n      tag_261\n      swap1\n      tag_181\n      jump\t// in\n    tag_261:\n      dup1\n      0x1f\n      add\n      0x20\n      dup1\n      swap2\n      div\n      mul\n      0x20\n      add\n      mload(0x40)\n      swap1\n      dup2\n      add\n      0x40\n      mstore\n      dup1\n      swap3\n      swap2\n      swap1\n      dup2\n      dup2\n      mstore\n      0x20\n      add\n      dup3\n      dup1\n      sload\n      tag_262\n      swap1\n      tag_181\n      jump\t// in\n    tag_262:\n      dup1\n      iszero\n      tag_263\n      jumpi\n      dup1\n      0x1f\n      lt\n      tag_264\n      jumpi\n      0x0100\n      dup1\n      dup4\n      sload\n      div\n      mul\n      dup4\n      mstore\n      swap2\n      0x20\n      add\n      swap2\n      jump(tag_263)\n    tag_264:\n      dup3\n      add\n      swap2\n      swap1\n      0x00\n      mstore\n      keccak256(0x00, 0x20)\n      swap1\n    tag_265:\n      dup2\n      sload\n      dup2\n      mstore\n      swap1\n      0x01\n      add\n      swap1\n      0x20\n      add\n      dup1\n      dup4\n      gt\n      tag_265\n      jumpi\n      dup3\n      swap1\n      sub\n      0x1f\n      and\n      dup3\n      add\n      swap2\n    tag_263:\n      pop\n      pop\n      pop\n      pop\n      pop\n      swap1\n      pop\n        /* \"votes.sol\":5711:6180  function nombreGanador() external view... */\n      swap1\n      jump\t// out\n        /* \"@openzeppelin/contracts/access/Ownable.sol\":1359:1489  function _checkOwner() internal view virtual {... */\n    tag_151:\n        /* \"@openzeppelin/contracts/access/Ownable.sol\":1247:1254  address */\n      0x00\n        /* \"@openzeppelin/contracts/access/Ownable.sol\":1273:1279  _owner */\n      sload\n      sub(exp(0x02, 0xa0), 0x01)\n      and\n        /* \"@openzeppelin/contracts/utils/Context.sol\":719:729  msg.sender */\n      caller\n        /* \"@openzeppelin/contracts/access/Ownable.sol\":1422:1445  owner() == _msgSender() */\n      eq\n        /* \"@openzeppelin/contracts/access/Ownable.sol\":1414:1482  require(owner() == _msgSender(), \"Ownable: caller is not the owner\") */\n      tag_150\n      jumpi\n      mload(0x40)\n      mul(0x461bcd, exp(0x02, 0xe5))\n      dup2\n      mstore\n        /* \"#utility.yul\":5320:5322   */\n      0x20\n        /* \"@openzeppelin/contracts/access/Ownable.sol\":1414:1482  require(owner() == _msgSender(), \"Ownable: caller is not the owner\") */\n      0x04\n      dup3\n      add\n        /* \"#utility.yul\":5302:5323   */\n      dup2\n      swap1\n      mstore\n        /* \"#utility.yul\":5339:5357   */\n      0x24\n      dup3\n      add\n        /* \"#utility.yul\":5332:5362   */\n      mstore\n        /* \"#utility.yul\":5398:5432   */\n      0x4f776e61626c653a2063616c6c6572206973206e6f7420746865206f776e6572\n        /* \"#utility.yul\":5378:5396   */\n      0x44\n      dup3\n      add\n        /* \"#utility.yul\":5371:5433   */\n      mstore\n        /* \"#utility.yul\":5450:5468   */\n      0x64\n      add\n        /* \"@openzeppelin/contracts/access/Ownable.sol\":1414:1482  require(owner() == _msgSender(), \"Ownable: caller is not the owner\") */\n      tag_134\n        /* \"#utility.yul\":5118:5474   */\n      jump\n        /* \"@openzeppelin/contracts/access/AccessControl.sol\":3334:3437  function _checkRole(bytes32 role) internal view virtual {... */\n    tag_156:\n        /* \"@openzeppelin/contracts/access/AccessControl.sol\":3400:3430  _checkRole(role, _msgSender()) */\n      tag_141\n        /* \"@openzeppelin/contracts/access/AccessControl.sol\":3411:3415  role */\n      dup2\n        /* \"@openzeppelin/contracts/utils/Context.sol\":719:729  msg.sender */\n      caller\n        /* \"@openzeppelin/contracts/access/AccessControl.sol\":3400:3410  _checkRole */\n      tag_276\n        /* \"@openzeppelin/contracts/access/AccessControl.sol\":3400:3430  _checkRole(role, _msgSender()) */\n      jump\t// in\n        /* \"@openzeppelin/contracts/access/AccessControl.sol\":7474:7707  function _grantRole(bytes32 role, address account) internal virtual {... */\n    tag_159:\n        /* \"@openzeppelin/contracts/access/AccessControl.sol\":7557:7579  hasRole(role, account) */\n      tag_278\n        /* \"@openzeppelin/contracts/access/AccessControl.sol\":7565:7569  role */\n      dup3\n        /* \"@openzeppelin/contracts/access/AccessControl.sol\":7571:7578  account */\n      dup3\n        /* \"@openzeppelin/contracts/access/AccessControl.sol\":7557:7564  hasRole */\n      tag_84\n        /* \"@openzeppelin/contracts/access/AccessControl.sol\":7557:7579  hasRole(role, account) */\n      jump\t// in\n    tag_278:\n        /* \"@openzeppelin/contracts/access/AccessControl.sol\":7552:7701  if (!hasRole(role, account)) {... */\n      tag_166\n      jumpi\n        /* \"@openzeppelin/contracts/access/AccessControl.sol\":7595:7607  _roles[role] */\n      0x00\n      dup3\n      dup2\n      mstore\n        /* \"@openzeppelin/contracts/access/AccessControl.sol\":7627:7631  true */\n      0x01\n        /* \"@openzeppelin/contracts/access/AccessControl.sol\":7595:7607  _roles[role] */\n      0x20\n      dup2\n      dup2\n      mstore\n      0x40\n      dup1\n      dup5\n      keccak256\n      sub(exp(0x02, 0xa0), 0x01)\n        /* \"@openzeppelin/contracts/access/AccessControl.sol\":7595:7624  _roles[role].members[account] */\n      dup7\n      and\n      dup1\n      dup7\n      mstore\n      swap3\n      mstore\n      dup1\n      dup5\n      keccak256\n        /* \"@openzeppelin/contracts/access/AccessControl.sol\":7595:7631  _roles[role].members[account] = true */\n      dup1\n      sload\n      not(0xff)\n      and\n      swap1\n      swap4\n      or\n      swap1\n      swap3\n      sstore\n        /* \"@openzeppelin/contracts/access/AccessControl.sol\":7650:7690  RoleGranted(role, account, _msgSender()) */\n      swap1\n      mload\n        /* \"@openzeppelin/contracts/utils/Context.sol\":719:729  msg.sender */\n      caller\n      swap3\n        /* \"@openzeppelin/contracts/access/AccessControl.sol\":7595:7607  _roles[role] */\n      dup6\n      swap2\n        /* \"@openzeppelin/contracts/access/AccessControl.sol\":7650:7690  RoleGranted(role, account, _msgSender()) */\n      0x2f8788117e7eff1d82e926ec794901d17c78024a50270940304540a733656f0d\n      swap2\n        /* \"@openzeppelin/contracts/access/AccessControl.sol\":7595:7607  _roles[role] */\n      swap1\n        /* \"@openzeppelin/contracts/access/AccessControl.sol\":7650:7690  RoleGranted(role, account, _msgSender()) */\n      log4\n        /* \"@openzeppelin/contracts/access/AccessControl.sol\":7474:7707  function _grantRole(bytes32 role, address account) internal virtual {... */\n      pop\n      pop\n      jump\t// out\n        /* \"@openzeppelin/contracts/access/AccessControl.sol\":7878:8112  function _revokeRole(bytes32 role, address account) internal virtual {... */\n    tag_167:\n        /* \"@openzeppelin/contracts/access/AccessControl.sol\":7961:7983  hasRole(role, account) */\n      tag_283\n        /* \"@openzeppelin/contracts/access/AccessControl.sol\":7969:7973  role */\n      dup3\n        /* \"@openzeppelin/contracts/access/AccessControl.sol\":7975:7982  account */\n      dup3\n        /* \"@openzeppelin/contracts/access/AccessControl.sol\":7961:7968  hasRole */\n      tag_84\n        /* \"@openzeppelin/contracts/access/AccessControl.sol\":7961:7983  hasRole(role, account) */\n      jump\t// in\n    tag_283:\n        /* \"@openzeppelin/contracts/access/AccessControl.sol\":7957:8106  if (hasRole(role, account)) {... */\n      iszero\n      tag_166\n      jumpi\n        /* \"@openzeppelin/contracts/access/AccessControl.sol\":8031:8036  false */\n      0x00\n        /* \"@openzeppelin/contracts/access/AccessControl.sol\":7999:8011  _roles[role] */\n      dup3\n      dup2\n      mstore\n        /* \"@openzeppelin/contracts/access/AccessControl.sol\":7999:8005  _roles */\n      0x01\n        /* \"@openzeppelin/contracts/access/AccessControl.sol\":7999:8011  _roles[role] */\n      0x20\n      swap1\n      dup2\n      mstore\n      0x40\n      dup1\n      dup4\n      keccak256\n      sub(exp(0x02, 0xa0), 0x01)\n        /* \"@openzeppelin/contracts/access/AccessControl.sol\":7999:8028  _roles[role].members[account] */\n      dup6\n      and\n      dup1\n      dup6\n      mstore\n      swap3\n      mstore\n      dup1\n      dup4\n      keccak256\n        /* \"@openzeppelin/contracts/access/AccessControl.sol\":7999:8036  _roles[role].members[account] = false */\n      dup1\n      sload\n      not(0xff)\n      and\n      swap1\n      sstore\n        /* \"@openzeppelin/contracts/access/AccessControl.sol\":8055:8095  RoleRevoked(role, account, _msgSender()) */\n      mload\n        /* \"@openzeppelin/contracts/utils/Context.sol\":719:729  msg.sender */\n      caller\n      swap3\n        /* \"@openzeppelin/contracts/access/AccessControl.sol\":7999:8011  _roles[role] */\n      dup6\n      swap2\n        /* \"@openzeppelin/contracts/access/AccessControl.sol\":8055:8095  RoleRevoked(role, account, _msgSender()) */\n      0xf6391f5c32d9c69d2a47ea670b442974b53935d1edc7fd64eb21e047a839171b\n      swap2\n        /* \"@openzeppelin/contracts/access/AccessControl.sol\":8031:8036  false */\n      swap1\n        /* \"@openzeppelin/contracts/access/AccessControl.sol\":8055:8095  RoleRevoked(role, account, _msgSender()) */\n      log4\n        /* \"@openzeppelin/contracts/access/AccessControl.sol\":7878:8112  function _revokeRole(bytes32 role, address account) internal virtual {... */\n      pop\n      pop\n      jump\t// out\n        /* \"@openzeppelin/contracts/access/Ownable.sol\":2433:2620  function _transferOwnership(address newOwner) internal virtual {... */\n    tag_190:\n        /* \"@openzeppelin/contracts/access/Ownable.sol\":2506:2522  address oldOwner */\n      0x00\n        /* \"@openzeppelin/contracts/access/Ownable.sol\":2525:2531  _owner */\n      dup1\n      sload\n      sub(exp(0x02, 0xa0), 0x01)\n        /* \"@openzeppelin/contracts/access/Ownable.sol\":2541:2558  _owner = newOwner */\n      dup4\n      dup2\n      and\n      not(0xffffffffffffffffffffffffffffffffffffffff)\n      dup4\n      and\n      dup2\n      or\n      dup5\n      sstore\n        /* \"@openzeppelin/contracts/access/Ownable.sol\":2573:2613  OwnershipTransferred(oldOwner, newOwner) */\n      mload(0x40)\n        /* \"@openzeppelin/contracts/access/Ownable.sol\":2525:2531  _owner */\n      swap2\n      swap1\n      swap3\n      and\n      swap3\n      dup4\n      swap2\n        /* \"@openzeppelin/contracts/access/Ownable.sol\":2573:2613  OwnershipTransferred(oldOwner, newOwner) */\n      0x8be0079c531659141344cd1fd0a4f28419497f9722a3daafe3b4186f6b6457e0\n      swap2\n        /* \"@openzeppelin/contracts/access/Ownable.sol\":2506:2522  address oldOwner */\n      swap1\n        /* \"@openzeppelin/contracts/access/Ownable.sol\":2573:2613  OwnershipTransferred(oldOwner, newOwner) */\n      log3\n        /* \"@openzeppelin/contracts/access/Ownable.sol\":2496:2620  {... */\n      pop\n        /* \"@openzeppelin/contracts/access/Ownable.sol\":2433:2620  function _transferOwnership(address newOwner) internal virtual {... */\n      pop\n      jump\t// out\n        /* \"@openzeppelin/contracts/access/AccessControl.sol\":3718:4210  function _checkRole(bytes32 role, address account) internal view virtual {... */\n    tag_276:\n        /* \"@openzeppelin/contracts/access/AccessControl.sol\":3806:3828  hasRole(role, account) */\n      tag_288\n        /* \"@openzeppelin/contracts/access/AccessControl.sol\":3814:3818  role */\n      dup3\n        /* \"@openzeppelin/contracts/access/AccessControl.sol\":3820:3827  account */\n      dup3\n        /* \"@openzeppelin/contracts/access/AccessControl.sol\":3806:3813  hasRole */\n      tag_84\n        /* \"@openzeppelin/contracts/access/AccessControl.sol\":3806:3828  hasRole(role, account) */\n      jump\t// in\n    tag_288:\n        /* \"@openzeppelin/contracts/access/AccessControl.sol\":3801:4204  if (!hasRole(role, account)) {... */\n      tag_166\n      jumpi\n        /* \"@openzeppelin/contracts/access/AccessControl.sol\":3989:4030  Strings.toHexString(uint160(account), 20) */\n      tag_290\n        /* \"@openzeppelin/contracts/access/AccessControl.sol\":4017:4024  account */\n      dup2\n      sub(exp(0x02, 0xa0), 0x01)\n        /* \"@openzeppelin/contracts/access/AccessControl.sol\":3989:4030  Strings.toHexString(uint160(account), 20) */\n      and\n        /* \"@openzeppelin/contracts/access/AccessControl.sol\":4027:4029  20 */\n      0x14\n        /* \"@openzeppelin/contracts/access/AccessControl.sol\":3989:4008  Strings.toHexString */\n      tag_291\n        /* \"@openzeppelin/contracts/access/AccessControl.sol\":3989:4030  Strings.toHexString(uint160(account), 20) */\n      jump\t// in\n    tag_290:\n        /* \"@openzeppelin/contracts/access/AccessControl.sol\":4101:4139  Strings.toHexString(uint256(role), 32) */\n      tag_292\n        /* \"@openzeppelin/contracts/access/AccessControl.sol\":4129:4133  role */\n      dup4\n        /* \"@openzeppelin/contracts/access/AccessControl.sol\":4136:4138  32 */\n      0x20\n        /* \"@openzeppelin/contracts/access/AccessControl.sol\":4101:4120  Strings.toHexString */\n      tag_291\n        /* \"@openzeppelin/contracts/access/AccessControl.sol\":4101:4139  Strings.toHexString(uint256(role), 32) */\n      jump\t// in\n    tag_292:\n        /* \"@openzeppelin/contracts/access/AccessControl.sol\":3896:4161  abi.encodePacked(... */\n      add(0x20, mload(0x40))\n      tag_293\n      swap3\n      swap2\n      swap1\n      tag_294\n      jump\t// in\n    tag_293:\n      0x40\n      dup1\n      mload\n      not(0x1f)\n      dup2\n      dup5\n      sub\n      add\n      dup2\n      mstore\n      swap1\n      dup3\n      swap1\n      mstore\n      mul(0x461bcd, exp(0x02, 0xe5))\n        /* \"@openzeppelin/contracts/access/AccessControl.sol\":3844:4193  revert(... */\n      dup3\n      mstore\n      tag_134\n      swap2\n      0x04\n      add\n      tag_49\n      jump\t// in\n        /* \"@openzeppelin/contracts/utils/Strings.sol\":1652:2093  function toHexString(uint256 value, uint256 length) internal pure returns (string memory) {... */\n    tag_291:\n        /* \"@openzeppelin/contracts/utils/Strings.sol\":1727:1740  string memory */\n      0x60\n        /* \"@openzeppelin/contracts/utils/Strings.sol\":1752:1771  bytes memory buffer */\n      0x00\n        /* \"@openzeppelin/contracts/utils/Strings.sol\":1784:1794  2 * length */\n      tag_297\n        /* \"@openzeppelin/contracts/utils/Strings.sol\":1788:1794  length */\n      dup4\n        /* \"@openzeppelin/contracts/utils/Strings.sol\":1784:1785  2 */\n      0x02\n        /* \"@openzeppelin/contracts/utils/Strings.sol\":1784:1794  2 * length */\n      tag_298\n      jump\t// in\n    tag_297:\n        /* \"@openzeppelin/contracts/utils/Strings.sol\":1784:1798  2 * length + 2 */\n      tag_299\n      swap1\n        /* \"@openzeppelin/contracts/utils/Strings.sol\":1797:1798  2 */\n      0x02\n        /* \"@openzeppelin/contracts/utils/Strings.sol\":1784:1798  2 * length + 2 */\n      tag_138\n      jump\t// in\n    tag_299:\n        /* \"@openzeppelin/contracts/utils/Strings.sol\":1774:1799  new bytes(2 * length + 2) */\n      0xffffffffffffffff\n      dup2\n      gt\n      iszero\n      tag_301\n      jumpi\n      tag_301\n      tag_302\n      jump\t// in\n    tag_301:\n      mload(0x40)\n      swap1\n      dup1\n      dup3\n      mstore\n      dup1\n      0x1f\n      add\n      not(0x1f)\n      and\n      0x20\n      add\n      dup3\n      add\n      0x40\n      mstore\n      dup1\n      iszero\n      tag_303\n      jumpi\n      0x20\n      dup3\n      add\n      dup2\n      dup1\n      calldatasize\n      dup4\n      calldatacopy\n      add\n      swap1\n      pop\n    tag_303:\n      pop\n        /* \"@openzeppelin/contracts/utils/Strings.sol\":1752:1799  bytes memory buffer = new bytes(2 * length + 2) */\n      swap1\n      pop\n        /* \"@openzeppelin/contracts/utils/Strings.sol\":1809:1824  buffer[0] = \"0\" */\n      0x3000000000000000000000000000000000000000000000000000000000000000\n        /* \"@openzeppelin/contracts/utils/Strings.sol\":1809:1815  buffer */\n      dup2\n        /* \"@openzeppelin/contracts/utils/Strings.sol\":1816:1817  0 */\n      0x00\n        /* \"@openzeppelin/contracts/utils/Strings.sol\":1809:1818  buffer[0] */\n      dup2\n      mload\n      dup2\n      lt\n      tag_305\n      jumpi\n      tag_305\n      tag_306\n      jump\t// in\n    tag_305:\n      0x20\n      add\n      add\n        /* \"@openzeppelin/contracts/utils/Strings.sol\":1809:1824  buffer[0] = \"0\" */\n      swap1\n      not(0xffffffffffffffffffffffffffffffffffffffffffffffffffffffffffffff)\n      and\n      swap1\n      dup2\n      0x00\n      byte\n      swap1\n      mstore8\n      pop\n        /* \"@openzeppelin/contracts/utils/Strings.sol\":1834:1849  buffer[1] = \"x\" */\n      0x7800000000000000000000000000000000000000000000000000000000000000\n        /* \"@openzeppelin/contracts/utils/Strings.sol\":1834:1840  buffer */\n      dup2\n        /* \"@openzeppelin/contracts/utils/Strings.sol\":1841:1842  1 */\n      0x01\n        /* \"@openzeppelin/contracts/utils/Strings.sol\":1834:1843  buffer[1] */\n      dup2\n      mload\n      dup2\n      lt\n      tag_308\n      jumpi\n      tag_308\n      tag_306\n      jump\t// in\n    tag_308:\n      0x20\n      add\n      add\n        /* \"@openzeppelin/contracts/utils/Strings.sol\":1834:1849  buffer[1] = \"x\" */\n      swap1\n      not(0xffffffffffffffffffffffffffffffffffffffffffffffffffffffffffffff)\n      and\n      swap1\n      dup2\n      0x00\n      byte\n      swap1\n      mstore8\n      pop\n        /* \"@openzeppelin/contracts/utils/Strings.sol\":1864:1873  uint256 i */\n      0x00\n        /* \"@openzeppelin/contracts/utils/Strings.sol\":1876:1886  2 * length */\n      tag_312\n        /* \"@openzeppelin/contracts/utils/Strings.sol\":1880:1886  length */\n      dup5\n        /* \"@openzeppelin/contracts/utils/Strings.sol\":1876:1877  2 */\n      0x02\n        /* \"@openzeppelin/contracts/utils/Strings.sol\":1876:1886  2 * length */\n      tag_298\n      jump\t// in\n    tag_312:\n        /* \"@openzeppelin/contracts/utils/Strings.sol\":1876:1890  2 * length + 1 */\n      tag_313\n      swap1\n        /* \"@openzeppelin/contracts/utils/Strings.sol\":1889:1890  1 */\n      0x01\n        /* \"@openzeppelin/contracts/utils/Strings.sol\":1876:1890  2 * length + 1 */\n      tag_138\n      jump\t// in\n    tag_313:\n        /* \"@openzeppelin/contracts/utils/Strings.sol\":1864:1890  uint256 i = 2 * length + 1 */\n      swap1\n      pop\n        /* \"@openzeppelin/contracts/utils/Strings.sol\":1859:1991  for (uint256 i = 2 * length + 1; i > 1; --i) {... */\n    tag_309:\n        /* \"@openzeppelin/contracts/utils/Strings.sol\":1896:1897  1 */\n      0x01\n        /* \"@openzeppelin/contracts/utils/Strings.sol\":1892:1893  i */\n      dup2\n        /* \"@openzeppelin/contracts/utils/Strings.sol\":1892:1897  i > 1 */\n      gt\n        /* \"@openzeppelin/contracts/utils/Strings.sol\":1859:1991  for (uint256 i = 2 * length + 1; i > 1; --i) {... */\n      iszero\n      tag_310\n      jumpi\n        /* \"@openzeppelin/contracts/utils/Strings.sol\":1930:1942  _HEX_SYMBOLS */\n      0x3031323334353637383961626364656600000000000000000000000000000000\n        /* \"@openzeppelin/contracts/utils/Strings.sol\":1943:1948  value */\n      dup6\n        /* \"@openzeppelin/contracts/utils/Strings.sol\":1951:1954  0xf */\n      0x0f\n        /* \"@openzeppelin/contracts/utils/Strings.sol\":1943:1954  value & 0xf */\n      and\n        /* \"@openzeppelin/contracts/utils/Strings.sol\":1930:1955  _HEX_SYMBOLS[value & 0xf] */\n      0x10\n      dup2\n      lt\n      tag_315\n      jumpi\n      tag_315\n      tag_306\n      jump\t// in\n    tag_315:\n      byte\n      0x0100000000000000000000000000000000000000000000000000000000000000\n      mul\n        /* \"@openzeppelin/contracts/utils/Strings.sol\":1918:1924  buffer */\n      dup3\n        /* \"@openzeppelin/contracts/utils/Strings.sol\":1925:1926  i */\n      dup3\n        /* \"@openzeppelin/contracts/utils/Strings.sol\":1918:1927  buffer[i] */\n      dup2\n      mload\n      dup2\n      lt\n      tag_317\n      jumpi\n      tag_317\n      tag_306\n      jump\t// in\n    tag_317:\n      0x20\n      add\n      add\n        /* \"@openzeppelin/contracts/utils/Strings.sol\":1918:1955  buffer[i] = _HEX_SYMBOLS[value & 0xf] */\n      swap1\n      not(0xffffffffffffffffffffffffffffffffffffffffffffffffffffffffffffff)\n      and\n      swap1\n      dup2\n      0x00\n      byte\n      swap1\n      mstore8\n      pop\n        /* \"@openzeppelin/contracts/utils/Strings.sol\":1969:1980  value >>= 4 */\n      0x10\n      swap1\n      swap5\n      div\n      swap4\n        /* \"@openzeppelin/contracts/utils/Strings.sol\":1899:1902  --i */\n      tag_318\n      dup2\n      tag_319\n      jump\t// in\n    tag_318:\n      swap1\n      pop\n        /* \"@openzeppelin/contracts/utils/Strings.sol\":1859:1991  for (uint256 i = 2 * length + 1; i > 1; --i) {... */\n      jump(tag_309)\n    tag_310:\n      pop\n        /* \"@openzeppelin/contracts/utils/Strings.sol\":2008:2018  value == 0 */\n      dup4\n      iszero\n        /* \"@openzeppelin/contracts/utils/Strings.sol\":2000:2055  require(value == 0, \"Strings: hex length insufficient\") */\n      tag_320\n      jumpi\n      mload(0x40)\n      mul(0x461bcd, exp(0x02, 0xe5))\n      dup2\n      mstore\n        /* \"#utility.yul\":3458:3460   */\n      0x20\n        /* \"@openzeppelin/contracts/utils/Strings.sol\":2000:2055  require(value == 0, \"Strings: hex length insufficient\") */\n      0x04\n      dup3\n      add\n        /* \"#utility.yul\":3440:3461   */\n      dup2\n      swap1\n      mstore\n        /* \"#utility.yul\":3477:3495   */\n      0x24\n      dup3\n      add\n        /* \"#utility.yul\":3470:3500   */\n      mstore\n        /* \"#utility.yul\":3536:3570   */\n      0x537472696e67733a20686578206c656e67746820696e73756666696369656e74\n        /* \"#utility.yul\":3516:3534   */\n      0x44\n      dup3\n      add\n        /* \"#utility.yul\":3509:3571   */\n      mstore\n        /* \"#utility.yul\":3588:3606   */\n      0x64\n      add\n        /* \"@openzeppelin/contracts/utils/Strings.sol\":2000:2055  require(value == 0, \"Strings: hex length insufficient\") */\n      tag_134\n        /* \"#utility.yul\":3256:3612   */\n      jump\n        /* \"@openzeppelin/contracts/utils/Strings.sol\":2000:2055  require(value == 0, \"Strings: hex length insufficient\") */\n    tag_320:\n        /* \"@openzeppelin/contracts/utils/Strings.sol\":2079:2085  buffer */\n      swap4\n        /* \"@openzeppelin/contracts/utils/Strings.sol\":1652:2093  function toHexString(uint256 value, uint256 length) internal pure returns (string memory) {... */\n      swap3\n      pop\n      pop\n      pop\n      jump\t// out\n        /* \"#utility.yul\":14:210   */\n    tag_324:\n        /* \"#utility.yul\":82:102   */\n      dup1\n      calldataload\n      sub(exp(0x02, 0xa0), 0x01)\n        /* \"#utility.yul\":131:185   */\n      dup2\n      and\n        /* \"#utility.yul\":121:186   */\n      dup2\n      eq\n        /* \"#utility.yul\":111:204   */\n      tag_326\n      jumpi\n        /* \"#utility.yul\":200:201   */\n      0x00\n        /* \"#utility.yul\":197:198   */\n      dup1\n        /* \"#utility.yul\":190:202   */\n      revert\n        /* \"#utility.yul\":111:204   */\n    tag_326:\n        /* \"#utility.yul\":14:210   */\n      swap2\n      swap1\n      pop\n      jump\t// out\n        /* \"#utility.yul\":215:401   */\n    tag_120:\n        /* \"#utility.yul\":274:280   */\n      0x00\n        /* \"#utility.yul\":327:329   */\n      0x20\n        /* \"#utility.yul\":315:324   */\n      dup3\n        /* \"#utility.yul\":306:313   */\n      dup5\n        /* \"#utility.yul\":302:325   */\n      sub\n        /* \"#utility.yul\":298:330   */\n      slt\n        /* \"#utility.yul\":295:347   */\n      iszero\n      tag_328\n      jumpi\n        /* \"#utility.yul\":343:344   */\n      0x00\n        /* \"#utility.yul\":340:341   */\n      dup1\n        /* \"#utility.yul\":333:345   */\n      revert\n        /* \"#utility.yul\":295:347   */\n    tag_328:\n        /* \"#utility.yul\":366:395   */\n      tag_320\n        /* \"#utility.yul\":385:394   */\n      dup3\n        /* \"#utility.yul\":366:395   */\n      tag_324\n      jump\t// in\n        /* \"#utility.yul\":406:586   */\n    tag_52:\n        /* \"#utility.yul\":465:471   */\n      0x00\n        /* \"#utility.yul\":518:520   */\n      0x20\n        /* \"#utility.yul\":506:515   */\n      dup3\n        /* \"#utility.yul\":497:504   */\n      dup5\n        /* \"#utility.yul\":493:516   */\n      sub\n        /* \"#utility.yul\":489:521   */\n      slt\n        /* \"#utility.yul\":486:538   */\n      iszero\n      tag_331\n      jumpi\n        /* \"#utility.yul\":534:535   */\n      0x00\n        /* \"#utility.yul\":531:532   */\n      dup1\n        /* \"#utility.yul\":524:536   */\n      revert\n        /* \"#utility.yul\":486:538   */\n    tag_331:\n      pop\n        /* \"#utility.yul\":557:580   */\n      calldataload\n      swap2\n        /* \"#utility.yul\":406:586   */\n      swap1\n      pop\n      jump\t// out\n        /* \"#utility.yul\":591:845   */\n    tag_60:\n        /* \"#utility.yul\":659:665   */\n      0x00\n        /* \"#utility.yul\":667:673   */\n      dup1\n        /* \"#utility.yul\":720:722   */\n      0x40\n        /* \"#utility.yul\":708:717   */\n      dup4\n        /* \"#utility.yul\":699:706   */\n      dup6\n        /* \"#utility.yul\":695:718   */\n      sub\n        /* \"#utility.yul\":691:723   */\n      slt\n        /* \"#utility.yul\":688:740   */\n      iszero\n      tag_333\n      jumpi\n        /* \"#utility.yul\":736:737   */\n      0x00\n        /* \"#utility.yul\":733:734   */\n      dup1\n        /* \"#utility.yul\":726:738   */\n      revert\n        /* \"#utility.yul\":688:740   */\n    tag_333:\n        /* \"#utility.yul\":772:781   */\n      dup3\n        /* \"#utility.yul\":759:782   */\n      calldataload\n        /* \"#utility.yul\":749:782   */\n      swap2\n      pop\n        /* \"#utility.yul\":801:839   */\n      tag_334\n        /* \"#utility.yul\":835:837   */\n      0x20\n        /* \"#utility.yul\":824:833   */\n      dup5\n        /* \"#utility.yul\":820:838   */\n      add\n        /* \"#utility.yul\":801:839   */\n      tag_324\n      jump\t// in\n    tag_334:\n        /* \"#utility.yul\":791:839   */\n      swap1\n      pop\n        /* \"#utility.yul\":591:845   */\n      swap3\n      pop\n      swap3\n      swap1\n      pop\n      jump\t// out\n        /* \"#utility.yul\":850:1182   */\n    tag_38:\n        /* \"#utility.yul\":908:914   */\n      0x00\n        /* \"#utility.yul\":961:963   */\n      0x20\n        /* \"#utility.yul\":949:958   */\n      dup3\n        /* \"#utility.yul\":940:947   */\n      dup5\n        /* \"#utility.yul\":936:959   */\n      sub\n        /* \"#utility.yul\":932:964   */\n      slt\n        /* \"#utility.yul\":929:981   */\n      iszero\n      tag_336\n      jumpi\n        /* \"#utility.yul\":977:978   */\n      0x00\n        /* \"#utility.yul\":974:975   */\n      dup1\n        /* \"#utility.yul\":967:979   */\n      revert\n        /* \"#utility.yul\":929:981   */\n    tag_336:\n        /* \"#utility.yul\":1016:1025   */\n      dup2\n        /* \"#utility.yul\":1003:1026   */\n      calldataload\n      not(0xffffffffffffffffffffffffffffffffffffffffffffffffffffffff)\n        /* \"#utility.yul\":1059:1064   */\n      dup2\n        /* \"#utility.yul\":1055:1133   */\n      and\n        /* \"#utility.yul\":1048:1053   */\n      dup2\n        /* \"#utility.yul\":1045:1134   */\n      eq\n        /* \"#utility.yul\":1035:1152   */\n      tag_320\n      jumpi\n        /* \"#utility.yul\":1148:1149   */\n      0x00\n        /* \"#utility.yul\":1145:1146   */\n      dup1\n        /* \"#utility.yul\":1138:1150   */\n      revert\n        /* \"#utility.yul\":1372:1630   */\n    tag_340:\n        /* \"#utility.yul\":1414:1417   */\n      0x00\n        /* \"#utility.yul\":1452:1457   */\n      dup2\n        /* \"#utility.yul\":1446:1458   */\n      mload\n        /* \"#utility.yul\":1479:1485   */\n      dup1\n        /* \"#utility.yul\":1474:1477   */\n      dup5\n        /* \"#utility.yul\":1467:1486   */\n      mstore\n        /* \"#utility.yul\":1495:1558   */\n      tag_342\n        /* \"#utility.yul\":1551:1557   */\n      dup2\n        /* \"#utility.yul\":1544:1548   */\n      0x20\n        /* \"#utility.yul\":1539:1542   */\n      dup7\n        /* \"#utility.yul\":1535:1549   */\n      add\n        /* \"#utility.yul\":1528:1532   */\n      0x20\n        /* \"#utility.yul\":1521:1526   */\n      dup7\n        /* \"#utility.yul\":1517:1533   */\n      add\n        /* \"#utility.yul\":1495:1558   */\n      tag_343\n      jump\t// in\n    tag_342:\n        /* \"#utility.yul\":1612:1614   */\n      0x1f\n        /* \"#utility.yul\":1591:1606   */\n      add\n      not(0x1f)\n        /* \"#utility.yul\":1587:1616   */\n      and\n        /* \"#utility.yul\":1578:1617   */\n      swap3\n      swap1\n      swap3\n      add\n        /* \"#utility.yul\":1619:1623   */\n      0x20\n        /* \"#utility.yul\":1574:1624   */\n      add\n      swap3\n        /* \"#utility.yul\":1372:1630   */\n      swap2\n      pop\n      pop\n      jump\t// out\n        /* \"#utility.yul\":1635:2421   */\n    tag_294:\n        /* \"#utility.yul\":2046:2071   */\n      0x416363657373436f6e74726f6c3a206163636f756e7420000000000000000000\n        /* \"#utility.yul\":2041:2044   */\n      dup2\n        /* \"#utility.yul\":2034:2072   */\n      mstore\n        /* \"#utility.yul\":2016:2019   */\n      0x00\n        /* \"#utility.yul\":2101:2107   */\n      dup4\n        /* \"#utility.yul\":2095:2108   */\n      mload\n        /* \"#utility.yul\":2117:2179   */\n      tag_345\n        /* \"#utility.yul\":2172:2178   */\n      dup2\n        /* \"#utility.yul\":2167:2169   */\n      0x17\n        /* \"#utility.yul\":2162:2165   */\n      dup6\n        /* \"#utility.yul\":2158:2170   */\n      add\n        /* \"#utility.yul\":2151:2155   */\n      0x20\n        /* \"#utility.yul\":2143:2149   */\n      dup9\n        /* \"#utility.yul\":2139:2156   */\n      add\n        /* \"#utility.yul\":2117:2179   */\n      tag_343\n      jump\t// in\n    tag_345:\n        /* \"#utility.yul\":2243:2262   */\n      0x206973206d697373696e6720726f6c6520000000000000000000000000000000\n        /* \"#utility.yul\":2238:2240   */\n      0x17\n        /* \"#utility.yul\":2198:2214   */\n      swap2\n      dup5\n      add\n        /* \"#utility.yul\":2230:2241   */\n      swap2\n      dup3\n      add\n        /* \"#utility.yul\":2223:2263   */\n      mstore\n        /* \"#utility.yul\":2288:2301   */\n      dup4\n      mload\n        /* \"#utility.yul\":2310:2373   */\n      tag_346\n        /* \"#utility.yul\":2288:2301   */\n      dup2\n        /* \"#utility.yul\":2359:2361   */\n      0x28\n        /* \"#utility.yul\":2351:2362   */\n      dup5\n      add\n        /* \"#utility.yul\":2344:2348   */\n      0x20\n        /* \"#utility.yul\":2332:2349   */\n      dup9\n      add\n        /* \"#utility.yul\":2310:2373   */\n      tag_343\n      jump\t// in\n    tag_346:\n        /* \"#utility.yul\":2393:2410   */\n      add\n        /* \"#utility.yul\":2412:2414   */\n      0x28\n        /* \"#utility.yul\":2389:2415   */\n      add\n      swap5\n        /* \"#utility.yul\":1635:2421   */\n      swap4\n      pop\n      pop\n      pop\n      pop\n      jump\t// out\n        /* \"#utility.yul\":3031:3251   */\n    tag_49:\n        /* \"#utility.yul\":3180:3182   */\n      0x20\n        /* \"#utility.yul\":3169:3178   */\n      dup2\n        /* \"#utility.yul\":3162:3183   */\n      mstore\n        /* \"#utility.yul\":3143:3147   */\n      0x00\n        /* \"#utility.yul\":3200:3245   */\n      tag_320\n        /* \"#utility.yul\":3241:3243   */\n      0x20\n        /* \"#utility.yul\":3230:3239   */\n      dup4\n        /* \"#utility.yul\":3226:3244   */\n      add\n        /* \"#utility.yul\":3218:3224   */\n      dup5\n        /* \"#utility.yul\":3200:3245   */\n      tag_340\n      jump\t// in\n        /* \"#utility.yul\":6421:6905   */\n    tag_72:\n        /* \"#utility.yul\":6654:6660   */\n      dup5\n        /* \"#utility.yul\":6643:6652   */\n      dup2\n        /* \"#utility.yul\":6636:6661   */\n      mstore\n      sub(exp(0x02, 0xa0), 0x01)\n        /* \"#utility.yul\":6701:6707   */\n      dup5\n        /* \"#utility.yul\":6697:6752   */\n      and\n        /* \"#utility.yul\":6692:6694   */\n      0x20\n        /* \"#utility.yul\":6681:6690   */\n      dup3\n        /* \"#utility.yul\":6677:6695   */\n      add\n        /* \"#utility.yul\":6670:6753   */\n      mstore\n        /* \"#utility.yul\":6789:6792   */\n      0x80\n        /* \"#utility.yul\":6784:6786   */\n      0x40\n        /* \"#utility.yul\":6773:6782   */\n      dup3\n        /* \"#utility.yul\":6769:6787   */\n      add\n        /* \"#utility.yul\":6762:6793   */\n      mstore\n        /* \"#utility.yul\":6617:6621   */\n      0x00\n        /* \"#utility.yul\":6810:6856   */\n      tag_362\n        /* \"#utility.yul\":6851:6854   */\n      0x80\n        /* \"#utility.yul\":6840:6849   */\n      dup4\n        /* \"#utility.yul\":6836:6855   */\n      add\n        /* \"#utility.yul\":6828:6834   */\n      dup6\n        /* \"#utility.yul\":6810:6856   */\n      tag_340\n      jump\t// in\n    tag_362:\n        /* \"#utility.yul\":6802:6856   */\n      swap1\n      pop\n        /* \"#utility.yul\":6892:6898   */\n      dup3\n        /* \"#utility.yul\":6887:6889   */\n      0x60\n        /* \"#utility.yul\":6876:6885   */\n      dup4\n        /* \"#utility.yul\":6872:6890   */\n      add\n        /* \"#utility.yul\":6865:6899   */\n      mstore\n        /* \"#utility.yul\":6421:6905   */\n      swap6\n      swap5\n      pop\n      pop\n      pop\n      pop\n      pop\n      jump\t// out\n        /* \"#utility.yul\":6910:7038   */\n    tag_138:\n        /* \"#utility.yul\":6950:6953   */\n      0x00\n        /* \"#utility.yul\":6981:6982   */\n      dup3\n        /* \"#utility.yul\":6977:6983   */\n      not\n        /* \"#utility.yul\":6974:6975   */\n      dup3\n        /* \"#utility.yul\":6971:6984   */\n      gt\n        /* \"#utility.yul\":6968:7007   */\n      iszero\n      tag_365\n      jumpi\n        /* \"#utility.yul\":6987:7005   */\n      tag_365\n      tag_366\n      jump\t// in\n    tag_365:\n      pop\n        /* \"#utility.yul\":7023:7032   */\n      add\n      swap1\n        /* \"#utility.yul\":6910:7038   */\n      jump\t// out\n        /* \"#utility.yul\":7043:7211   */\n    tag_298:\n        /* \"#utility.yul\":7083:7090   */\n      0x00\n        /* \"#utility.yul\":7149:7150   */\n      dup2\n        /* \"#utility.yul\":7145:7146   */\n      0x00\n        /* \"#utility.yul\":7141:7147   */\n      not\n        /* \"#utility.yul\":7137:7151   */\n      div\n        /* \"#utility.yul\":7134:7135   */\n      dup4\n        /* \"#utility.yul\":7131:7152   */\n      gt\n        /* \"#utility.yul\":7126:7127   */\n      dup3\n        /* \"#utility.yul\":7119:7128   */\n      iszero\n        /* \"#utility.yul\":7112:7129   */\n      iszero\n        /* \"#utility.yul\":7108:7153   */\n      and\n        /* \"#utility.yul\":7105:7176   */\n      iszero\n      tag_369\n      jumpi\n        /* \"#utility.yul\":7156:7174   */\n      tag_369\n      tag_366\n      jump\t// in\n    tag_369:\n      pop\n        /* \"#utility.yul\":7196:7205   */\n      mul\n      swap1\n        /* \"#utility.yul\":7043:7211   */\n      jump\t// out\n        /* \"#utility.yul\":7216:7474   */\n    tag_343:\n        /* \"#utility.yul\":7288:7289   */\n      0x00\n        /* \"#utility.yul\":7298:7411   */\n    tag_371:\n        /* \"#utility.yul\":7312:7318   */\n      dup4\n        /* \"#utility.yul\":7309:7310   */\n      dup2\n        /* \"#utility.yul\":7306:7319   */\n      lt\n        /* \"#utility.yul\":7298:7411   */\n      iszero\n      tag_373\n      jumpi\n        /* \"#utility.yul\":7388:7399   */\n      dup2\n      dup2\n      add\n        /* \"#utility.yul\":7382:7400   */\n      mload\n        /* \"#utility.yul\":7369:7380   */\n      dup4\n      dup3\n      add\n        /* \"#utility.yul\":7362:7401   */\n      mstore\n        /* \"#utility.yul\":7334:7336   */\n      0x20\n        /* \"#utility.yul\":7327:7337   */\n      add\n        /* \"#utility.yul\":7298:7411   */\n      jump(tag_371)\n    tag_373:\n        /* \"#utility.yul\":7429:7435   */\n      dup4\n        /* \"#utility.yul\":7426:7427   */\n      dup2\n        /* \"#utility.yul\":7423:7436   */\n      gt\n        /* \"#utility.yul\":7420:7468   */\n      iszero\n      tag_374\n      jumpi\n        /* \"#utility.yul\":7464:7465   */\n      0x00\n        /* \"#utility.yul\":7455:7461   */\n      dup5\n        /* \"#utility.yul\":7450:7453   */\n      dup5\n        /* \"#utility.yul\":7446:7462   */\n      add\n        /* \"#utility.yul\":7439:7466   */\n      mstore\n        /* \"#utility.yul\":7420:7468   */\n    tag_374:\n      pop\n        /* \"#utility.yul\":7216:7474   */\n      pop\n      pop\n      pop\n      jump\t// out\n        /* \"#utility.yul\":7479:7615   */\n    tag_319:\n        /* \"#utility.yul\":7518:7521   */\n      0x00\n        /* \"#utility.yul\":7546:7551   */\n      dup2\n        /* \"#utility.yul\":7536:7575   */\n      tag_377\n      jumpi\n        /* \"#utility.yul\":7555:7573   */\n      tag_377\n      tag_366\n      jump\t// in\n    tag_377:\n      pop\n      not(0x00)\n        /* \"#utility.yul\":7591:7609   */\n      add\n      swap1\n        /* \"#utility.yul\":7479:7615   */\n      jump\t// out\n        /* \"#utility.yul\":7620:8057   */\n    tag_181:\n        /* \"#utility.yul\":7705:7706   */\n      0x02\n        /* \"#utility.yul\":7695:7707   */\n      dup2\n      div\n        /* \"#utility.yul\":7752:7753   */\n      0x01\n        /* \"#utility.yul\":7742:7754   */\n      dup3\n      and\n      dup1\n        /* \"#utility.yul\":7763:7824   */\n      tag_379\n      jumpi\n        /* \"#utility.yul\":7817:7821   */\n      0x7f\n        /* \"#utility.yul\":7809:7815   */\n      dup3\n        /* \"#utility.yul\":7805:7822   */\n      and\n        /* \"#utility.yul\":7795:7822   */\n      swap2\n      pop\n        /* \"#utility.yul\":7763:7824   */\n    tag_379:\n        /* \"#utility.yul\":7870:7872   */\n      0x20\n        /* \"#utility.yul\":7862:7868   */\n      dup3\n        /* \"#utility.yul\":7859:7873   */\n      lt\n        /* \"#utility.yul\":7839:7857   */\n      dup2\n        /* \"#utility.yul\":7836:7874   */\n      eq\n        /* \"#utility.yul\":7833:8051   */\n      iszero\n      tag_380\n      jumpi\n      mul(0x4e487b71, exp(0x02, 0xe0))\n        /* \"#utility.yul\":7904:7905   */\n      0x00\n        /* \"#utility.yul\":7897:7985   */\n      mstore\n        /* \"#utility.yul\":8008:8012   */\n      0x22\n        /* \"#utility.yul\":8005:8006   */\n      0x04\n        /* \"#utility.yul\":7998:8013   */\n      mstore\n        /* \"#utility.yul\":8036:8040   */\n      0x24\n        /* \"#utility.yul\":8033:8034   */\n      0x00\n        /* \"#utility.yul\":8026:8041   */\n      revert\n        /* \"#utility.yul\":7833:8051   */\n    tag_380:\n      pop\n        /* \"#utility.yul\":7620:8057   */\n      swap2\n      swap1\n      pop\n      jump\t// out\n        /* \"#utility.yul\":8062:8197   */\n    tag_179:\n        /* \"#utility.yul\":8101:8104   */\n      0x00\n      not(0x00)\n        /* \"#utility.yul\":8122:8139   */\n      dup3\n      eq\n        /* \"#utility.yul\":8119:8162   */\n      iszero\n      tag_383\n      jumpi\n        /* \"#utility.yul\":8142:8160   */\n      tag_383\n      tag_366\n      jump\t// in\n    tag_383:\n      pop\n        /* \"#utility.yul\":8189:8190   */\n      0x01\n        /* \"#utility.yul\":8178:8191   */\n      add\n      swap1\n        /* \"#utility.yul\":8062:8197   */\n      jump\t// out\n        /* \"#utility.yul\":8202:8386   */\n    tag_366:\n      mul(0x4e487b71, exp(0x02, 0xe0))\n        /* \"#utility.yul\":8251:8252   */\n      0x00\n        /* \"#utility.yul\":8244:8332   */\n      mstore\n        /* \"#utility.yul\":8351:8355   */\n      0x11\n        /* \"#utility.yul\":8348:8349   */\n      0x04\n        /* \"#utility.yul\":8341:8356   */\n      mstore\n        /* \"#utility.yul\":8375:8379   */\n      0x24\n        /* \"#utility.yul\":8372:8373   */\n      0x00\n        /* \"#utility.yul\":8365:8380   */\n      revert\n        /* \"#utility.yul\":8391:8575   */\n    tag_306:\n      mul(0x4e487b71, exp(0x02, 0xe0))\n        /* \"#utility.yul\":8440:8441   */\n      0x00\n        /* \"#utility.yul\":8433:8521   */\n      mstore\n        /* \"#utility.yul\":8540:8544   */\n      0x32\n        /* \"#utility.yul\":8537:8538   */\n      0x04\n        /* \"#utility.yul\":8530:8545   */\n      mstore\n        /* \"#utility.yul\":8564:8568   */\n      0x24\n        /* \"#utility.yul\":8561:8562   */\n      0x00\n        /* \"#utility.yul\":8554:8569   */\n      revert\n        /* \"#utility.yul\":8580:8764   */\n    tag_302:\n      mul(0x4e487b71, exp(0x02, 0xe0))\n        /* \"#utility.yul\":8629:8630   */\n      0x00\n        /* \"#utility.yul\":8622:8710   */\n      mstore\n        /* \"#utility.yul\":8729:8733   */\n      0x41\n        /* \"#utility.yul\":8726:8727   */\n      0x04\n        /* \"#utility.yul\":8719:8734   */\n      mstore\n        /* \"#utility.yul\":8753:8757   */\n      0x24\n        /* \"#utility.yul\":8750:8751   */\n      0x00\n        /* \"#utility.yul\":8743:8758   */\n      revert\n    stop\n    data_198bebe9962b5ee2dce0a2dd3eab4c01cd873d2542d3fc48a6e161e1a0e8d753 226c4972ab1f314d4ad7ff65fbbf70e5647a0620354d97bff1b978c4cf385edf\n\n    auxdata: 0xa26469706673582212201416e7539450cdfcef265f9feaad2e6c502ca7a187a70a25ae951cb2d3b78cd164736f6c63430008070033\n}\n",
				"bytecode": {
					"linkReferences": {},
					"object": "600060025560c0604052600860808190527f536520566f746f2100000000000000000000000000000000000000000000000060a09081526200004591600391906200050e565b506040805180820190915260088082527f4e6f20566f746f2100000000000000000000000000000000000000000000000060209092019182526200008c916004916200050e565b506040805160808101825260018152731234567890123456789100000000000000000000602080830191825283518085018552600c81527f54726176656c616e6469616e00000000000000000000000000000000000000009181019182529383018490526000606084015282516006908155915160078054600160a060020a031916600160a060020a0390921691909117905592519192909162000133916008916200050e565b50606091820151600391909101556040805160808101825260028152731234567890123456789200000000000000000000602080830191825283518085018552600a8082527f4564756c616e6469616e00000000000000000000000000000000000000000000928201928352948401819052600095840195909552825184559051600b8054600160a060020a031916600160a060020a0390921691909117905592519092620001e691600c91906200050e565b5060609182015160039182015560408051608081018252918252731234567890123456789300000000000000000000602080840191825282518084018452600b81527f45636f6c616e6469616e320000000000000000000000000000000000000000009181019182529284018390526000948401949094528251600e9081559051600f8054600160a060020a031916600160a060020a039092169190911790559051919290916200029a916010916200050e565b50606082015181600301555050348015620002b457600080fd5b50620002db620002cc64010000000062000361810204565b64010000000062000365810204565b620002f1600033640100000000620003b5810204565b620003267f226c4972ab1f314d4ad7ff65fbbf70e5647a0620354d97bff1b978c4cf385edf33640100000000620003b5810204565b6200035b7f2172861495e7b85edac73e3cd5fbb42dd675baadf627720e687bcfdaca02509680640100000000620003ce810204565b6200060a565b3390565b60008054600160a060020a03838116600160a060020a0319831681178455604051919092169283917f8be0079c531659141344cd1fd0a4f28419497f9722a3daafe3b4186f6b6457e09190a35050565b620003ca82826401000000006200042e810204565b5050565b6000620003e483640100000000620004cd810204565b6000848152600160208190526040808320909101859055519192508391839186917fbd79b86ffe0ab8e8776151514217cd7cacd52c909f66475c3af44e129f0b00ff9190a4505050565b620004438282640100000000620004e3810204565b620003ca576000828152600160208181526040808420600160a060020a0386168552909152909120805460ff191690911790556200048964010000000062000361810204565b600160a060020a031681600160a060020a0316837f2f8788117e7eff1d82e926ec794901d17c78024a50270940304540a733656f0d60405160405180910390a45050565b6000908152600160208190526040909120015490565b6000918252600160209081526040808420600160a060020a0393909316845291905290205460ff1690565b8280546200051c90620005b4565b90600052602060002090601f0160209004810192826200054057600085556200058b565b82601f106200055b57805160ff19168380011785556200058b565b828001600101855582156200058b579182015b828111156200058b5782518255916020019190600101906200056e565b50620005999291506200059d565b5090565b5b808211156200059957600081556001016200059e565b600281046001821680620005c957607f821691505b6020821081141562000604577f4e487b7100000000000000000000000000000000000000000000000000000000600052602260045260246000fd5b50919050565b611444806200061a6000396000f3fe608060405234801561001057600080fd5b50600436106101c6576000357c010000000000000000000000000000000000000000000000000000000090048063a217fddf11610116578063c7876434116100b4578063f222b5791161008e578063f222b57914610363578063f2fde38b1461036b578063fa0c3ab81461037e578063ffd7e4e71461038657600080fd5b8063c787643414610321578063d391014b14610329578063d547741f1461035057600080fd5b8063b49cd0f7116100f0578063b49cd0f714610206578063b7d09ae51461030a578063c360a03b14610311578063c363091c1461031957600080fd5b8063a217fddf146102f2578063ae60bb23146102fa578063b1c78ebc1461030257600080fd5b806336568abe11610183578063715018a61161015d578063715018a61461029d5780638356e8e1146102a55780638da5cb5b146102ba57806391d14854146102df57600080fd5b806336568abe1461026a5780635792febf1461027d57806361c78cce1461028557600080fd5b806301ffc9a7146101cb57806321606831146101f3578063226839ba14610208578063248a9ca31461021d5780632b553fb41461024f5780632f2ff15d14610257575b600080fd5b6101de6101d9366004611194565b61038e565b60405190151581526020015b60405180910390f35b61020661020136600461114f565b610421565b005b61021061051a565b6040516101ea9190611280565b61024161022b36600461114f565b6000908152600160208190526040909120015490565b6040519081526020016101ea565b6102066105e1565b610206610265366004611168565b6105eb565b610206610278366004611168565b610616565b6102416106a5565b61028d610738565b6040516101ea9493929190611293565b6102066107e3565b6102416000805160206113ef83398151915281565b600054600160a060020a03165b604051600160a060020a0390911681526020016101ea565b6101de6102ed366004611168565b6107f5565b610241600081565b610210610820565b6102106108ae565b603c610241565b6102c76108bb565b6101de61091a565b6101de610989565b6102417f2172861495e7b85edac73e3cd5fbb42dd675baadf627720e687bcfdaca02509681565b61020661035e366004611168565b6109f2565b61028d610a18565b610206610379366004611134565b610a3a565b61028d610aca565b610210610aec565b60007bffffffffffffffffffffffffffffffffffffffffffffffffffffffff1982167f7965db0b00000000000000000000000000000000000000000000000000000000148061041b57507f01ffc9a7000000000000000000000000000000000000000000000000000000007bffffffffffffffffffffffffffffffffffffffffffffffffffffffff198316145b92915050565b33600090815260056020526040902054610100900460ff1661048d5760405160e560020a62461bcd02815260206004820152600f60248201527f4e6f2070756564657320766f746172000000000000000000000000000000000060448201526064015b60405180910390fd5b336000908152600560205260409020805460ff191660019081179091558114156104cd576001600660030160008282546104c791906112cc565b90915550505b80600214156104f2576001600a60030160008282546104ec91906112cc565b90915550505b8060031415610517576001600e600301600082825461051191906112cc565b90915550505b50565b60606105346000805160206113ef833981519152336107f5565b6105a95760405160e560020a62461bcd02815260206004820152602e60248201527f536f6c6f206c617320766f6c74616e746520707565646520646172746520646560448201527f726563686f20616c20566f746f2e0000000000000000000000000000000000006064820152608401610484565b5060408051808201909152601381527f456c20766f74616e746520796120766f746f2e00000000000000000000000000602082015290565b6105e9610cca565b565b6000828152600160208190526040909120015461060781610d27565b6106118383610d31565b505050565b600160a060020a03811633146106975760405160e560020a62461bcd02815260206004820152602f60248201527f416363657373436f6e74726f6c3a2063616e206f6e6c792072656e6f756e636560448201527f20726f6c657320666f722073656c6600000000000000000000000000000000006064820152608401610484565b6106a18282610d9c565b5050565b600080805b6003811161073357600d546009541180156106c85750601154600954115b156106d7576009546001935091505b600954600d541180156106ed5750601154600d54115b156106fc57600d546002935091505b6009546011541180156107125750600d54601154115b15610721576011546003935091505b8061072b81611388565b9150506106aa565b505090565b600a8054600b54600c80549293600160a060020a039092169261075a9061134a565b80601f01602080910402602001604051908101604052809291908181526020018280546107869061134a565b80156107d35780601f106107a8576101008083540402835291602001916107d3565b820191906000526020600020905b8154815290600101906020018083116107b657829003601f168201915b5050505050908060030154905084565b6107eb610cca565b6105e96000610e03565b6000918252600160209081526040808420600160a060020a0393909316845291905290205460ff1690565b6004805461082d9061134a565b80601f01602080910402602001604051908101604052809291908181526020018280546108599061134a565b80156108a65780601f1061087b576101008083540402835291602001916108a6565b820191906000526020600020905b81548152906001019060200180831161088957829003601f168201915b505050505081565b6003805461082d9061134a565b60006108c56106a5565b600114156108db5750600754600160a060020a03165b6108e36106a5565b600214156108f95750600b54600160a060020a03165b6109016106a5565b600314156109175750600f54600160a060020a03165b90565b60006109346000805160206113ef833981519152336107f5565b6109835760405160e560020a62461bcd02815260206004820152600860248201527f4e6f20566f746f210000000000000000000000000000000000000000000000006044820152606401610484565b50600190565b60006109a36000805160206113ef833981519152336107f5565b6109835760405160e560020a62461bcd02815260206004820152600e60248201527f54752070756564657320766f746f0000000000000000000000000000000000006044820152606401610484565b60008281526001602081905260409091200154610a0e81610d27565b6106118383610d9c565b600e8054600f54601080549293600160a060020a039092169261075a9061134a565b610a42610cca565b600160a060020a038116610ac15760405160e560020a62461bcd02815260206004820152602660248201527f4f776e61626c653a206e6577206f776e657220697320746865207a65726f206160448201527f64647265737300000000000000000000000000000000000000000000000000006064820152608401610484565b61051781610e03565b60068054600754600880549293600160a060020a039092169261075a9061134a565b6060610af66106a5565b60011415610b8c5760088054610b0b9061134a565b80601f0160208091040260200160405190810160405280929190818152602001828054610b379061134a565b8015610b845780601f10610b5957610100808354040283529160200191610b84565b820191906000526020600020905b815481529060010190602001808311610b6757829003601f168201915b505050505090505b610b946106a5565b60021415610c2a57600c8054610ba99061134a565b80601f0160208091040260200160405190810160405280929190818152602001828054610bd59061134a565b8015610c225780601f10610bf757610100808354040283529160200191610c22565b820191906000526020600020905b815481529060010190602001808311610c0557829003601f168201915b505050505090505b610c326106a5565b600314156109175760108054610c479061134a565b80601f0160208091040260200160405190810160405280929190818152602001828054610c739061134a565b8015610cc05780601f10610c9557610100808354040283529160200191610cc0565b820191906000526020600020905b815481529060010190602001808311610ca357829003601f168201915b5050505050905090565b600054600160a060020a031633146105e95760405160e560020a62461bcd02815260206004820181905260248201527f4f776e61626c653a2063616c6c6572206973206e6f7420746865206f776e65726044820152606401610484565b6105178133610e60565b610d3b82826107f5565b6106a1576000828152600160208181526040808420600160a060020a0386168086529252808420805460ff19169093179092559051339285917f2f8788117e7eff1d82e926ec794901d17c78024a50270940304540a733656f0d9190a45050565b610da682826107f5565b156106a1576000828152600160209081526040808320600160a060020a0385168085529252808320805460ff1916905551339285917ff6391f5c32d9c69d2a47ea670b442974b53935d1edc7fd64eb21e047a839171b9190a45050565b60008054600160a060020a0383811673ffffffffffffffffffffffffffffffffffffffff19831681178455604051919092169283917f8be0079c531659141344cd1fd0a4f28419497f9722a3daafe3b4186f6b6457e09190a35050565b610e6a82826107f5565b6106a157610e8281600160a060020a03166014610ec7565b610e8d836020610ec7565b604051602001610e9e9291906111ff565b60408051601f198184030181529082905260e560020a62461bcd02825261048491600401611280565b60606000610ed68360026112e4565b610ee19060026112cc565b67ffffffffffffffff811115610ef957610ef96113d5565b6040519080825280601f01601f191660200182016040528015610f23576020820181803683370190505b5090507f300000000000000000000000000000000000000000000000000000000000000081600081518110610f5a57610f5a6113bc565b60200101907effffffffffffffffffffffffffffffffffffffffffffffffffffffffffffff1916908160001a9053507f780000000000000000000000000000000000000000000000000000000000000081600181518110610fbd57610fbd6113bc565b60200101907effffffffffffffffffffffffffffffffffffffffffffffffffffffffffffff1916908160001a9053506000610ff98460026112e4565b6110049060016112cc565b90505b60018111156110bf577f303132333435363738396162636465660000000000000000000000000000000085600f1660108110611045576110456113bc565b1a7f01000000000000000000000000000000000000000000000000000000000000000282828151811061107a5761107a6113bc565b60200101907effffffffffffffffffffffffffffffffffffffffffffffffffffffffffffff1916908160001a9053506010909404936110b881611333565b9050611007565b5083156111115760405160e560020a62461bcd02815260206004820181905260248201527f537472696e67733a20686578206c656e67746820696e73756666696369656e746044820152606401610484565b9392505050565b8035600160a060020a038116811461112f57600080fd5b919050565b60006020828403121561114657600080fd5b61111182611118565b60006020828403121561116157600080fd5b5035919050565b6000806040838503121561117b57600080fd5b8235915061118b60208401611118565b90509250929050565b6000602082840312156111a657600080fd5b81357bffffffffffffffffffffffffffffffffffffffffffffffffffffffff198116811461111157600080fd5b600081518084526111eb816020860160208601611303565b601f01601f19169290920160200192915050565b7f416363657373436f6e74726f6c3a206163636f756e7420000000000000000000815260008351611237816017850160208801611303565b7f206973206d697373696e6720726f6c65200000000000000000000000000000006017918401918201528351611274816028840160208801611303565b01602801949350505050565b60208152600061111160208301846111d3565b848152600160a060020a03841660208201526080604082015260006112bb60808301856111d3565b905082606083015295945050505050565b600082198211156112df576112df6113a3565b500190565b60008160001904831182151516156112fe576112fe6113a3565b500290565b60005b8381101561131e578181015183820152602001611306565b8381111561132d576000848401525b50505050565b600081611342576113426113a3565b506000190190565b60028104600182168061135e57607f821691505b602082108114156113825760e060020a634e487b7102600052602260045260246000fd5b50919050565b600060001982141561139c5761139c6113a3565b5060010190565b60e060020a634e487b7102600052601160045260246000fd5b60e060020a634e487b7102600052603260045260246000fd5b60e060020a634e487b7102600052604160045260246000fdfe226c4972ab1f314d4ad7ff65fbbf70e5647a0620354d97bff1b978c4cf385edfa26469706673582212201416e7539450cdfcef265f9feaad2e6c502ca7a187a70a25ae951cb2d3b78cd164736f6c63430008070033",
					"opcodes": "PUSH1 0x0 PUSH1 0x2 SSTORE PUSH1 0xC0 PUSH1 0x40 MSTORE PUSH1 0x8 PUSH1 0x80 DUP2 SWAP1 MSTORE PUSH32 0x536520566F746F21000000000000000000000000000000000000000000000000 PUSH1 0xA0 SWAP1 DUP2 MSTORE PUSH3 0x45 SWAP2 PUSH1 0x3 SWAP2 SWAP1 PUSH3 0x50E JUMP JUMPDEST POP PUSH1 0x40 DUP1 MLOAD DUP1 DUP3 ADD SWAP1 SWAP2 MSTORE PUSH1 0x8 DUP1 DUP3 MSTORE PUSH32 0x4E6F20566F746F21000000000000000000000000000000000000000000000000 PUSH1 0x20 SWAP1 SWAP3 ADD SWAP2 DUP3 MSTORE PUSH3 0x8C SWAP2 PUSH1 0x4 SWAP2 PUSH3 0x50E JUMP JUMPDEST POP PUSH1 0x40 DUP1 MLOAD PUSH1 0x80 DUP2 ADD DUP3 MSTORE PUSH1 0x1 DUP2 MSTORE PUSH20 0x1234567890123456789100000000000000000000 PUSH1 0x20 DUP1 DUP4 ADD SWAP2 DUP3 MSTORE DUP4 MLOAD DUP1 DUP6 ADD DUP6 MSTORE PUSH1 0xC DUP2 MSTORE PUSH32 0x54726176656C616E6469616E0000000000000000000000000000000000000000 SWAP2 DUP2 ADD SWAP2 DUP3 MSTORE SWAP4 DUP4 ADD DUP5 SWAP1 MSTORE PUSH1 0x0 PUSH1 0x60 DUP5 ADD MSTORE DUP3 MLOAD PUSH1 0x6 SWAP1 DUP2 SSTORE SWAP2 MLOAD PUSH1 0x7 DUP1 SLOAD PUSH1 0x1 PUSH1 0xA0 PUSH1 0x2 EXP SUB NOT AND PUSH1 0x1 PUSH1 0xA0 PUSH1 0x2 EXP SUB SWAP1 SWAP3 AND SWAP2 SWAP1 SWAP2 OR SWAP1 SSTORE SWAP3 MLOAD SWAP2 SWAP3 SWAP1 SWAP2 PUSH3 0x133 SWAP2 PUSH1 0x8 SWAP2 PUSH3 0x50E JUMP JUMPDEST POP PUSH1 0x60 SWAP2 DUP3 ADD MLOAD PUSH1 0x3 SWAP2 SWAP1 SWAP2 ADD SSTORE PUSH1 0x40 DUP1 MLOAD PUSH1 0x80 DUP2 ADD DUP3 MSTORE PUSH1 0x2 DUP2 MSTORE PUSH20 0x1234567890123456789200000000000000000000 PUSH1 0x20 DUP1 DUP4 ADD SWAP2 DUP3 MSTORE DUP4 MLOAD DUP1 DUP6 ADD DUP6 MSTORE PUSH1 0xA DUP1 DUP3 MSTORE PUSH32 0x4564756C616E6469616E00000000000000000000000000000000000000000000 SWAP3 DUP3 ADD SWAP3 DUP4 MSTORE SWAP5 DUP5 ADD DUP2 SWAP1 MSTORE PUSH1 0x0 SWAP6 DUP5 ADD SWAP6 SWAP1 SWAP6 MSTORE DUP3 MLOAD DUP5 SSTORE SWAP1 MLOAD PUSH1 0xB DUP1 SLOAD PUSH1 0x1 PUSH1 0xA0 PUSH1 0x2 EXP SUB NOT AND PUSH1 0x1 PUSH1 0xA0 PUSH1 0x2 EXP SUB SWAP1 SWAP3 AND SWAP2 SWAP1 SWAP2 OR SWAP1 SSTORE SWAP3 MLOAD SWAP1 SWAP3 PUSH3 0x1E6 SWAP2 PUSH1 0xC SWAP2 SWAP1 PUSH3 0x50E JUMP JUMPDEST POP PUSH1 0x60 SWAP2 DUP3 ADD MLOAD PUSH1 0x3 SWAP2 DUP3 ADD SSTORE PUSH1 0x40 DUP1 MLOAD PUSH1 0x80 DUP2 ADD DUP3 MSTORE SWAP2 DUP3 MSTORE PUSH20 0x1234567890123456789300000000000000000000 PUSH1 0x20 DUP1 DUP5 ADD SWAP2 DUP3 MSTORE DUP3 MLOAD DUP1 DUP5 ADD DUP5 MSTORE PUSH1 0xB DUP2 MSTORE PUSH32 0x45636F6C616E6469616E32000000000000000000000000000000000000000000 SWAP2 DUP2 ADD SWAP2 DUP3 MSTORE SWAP3 DUP5 ADD DUP4 SWAP1 MSTORE PUSH1 0x0 SWAP5 DUP5 ADD SWAP5 SWAP1 SWAP5 MSTORE DUP3 MLOAD PUSH1 0xE SWAP1 DUP2 SSTORE SWAP1 MLOAD PUSH1 0xF DUP1 SLOAD PUSH1 0x1 PUSH1 0xA0 PUSH1 0x2 EXP SUB NOT AND PUSH1 0x1 PUSH1 0xA0 PUSH1 0x2 EXP SUB SWAP1 SWAP3 AND SWAP2 SWAP1 SWAP2 OR SWAP1 SSTORE SWAP1 MLOAD SWAP2 SWAP3 SWAP1 SWAP2 PUSH3 0x29A SWAP2 PUSH1 0x10 SWAP2 PUSH3 0x50E JUMP JUMPDEST POP PUSH1 0x60 DUP3 ADD MLOAD DUP2 PUSH1 0x3 ADD SSTORE POP POP CALLVALUE DUP1 ISZERO PUSH3 0x2B4 JUMPI PUSH1 0x0 DUP1 REVERT JUMPDEST POP PUSH3 0x2DB PUSH3 0x2CC PUSH5 0x100000000 PUSH3 0x361 DUP2 MUL DIV JUMP JUMPDEST PUSH5 0x100000000 PUSH3 0x365 DUP2 MUL DIV JUMP JUMPDEST PUSH3 0x2F1 PUSH1 0x0 CALLER PUSH5 0x100000000 PUSH3 0x3B5 DUP2 MUL DIV JUMP JUMPDEST PUSH3 0x326 PUSH32 0x226C4972AB1F314D4AD7FF65FBBF70E5647A0620354D97BFF1B978C4CF385EDF CALLER PUSH5 0x100000000 PUSH3 0x3B5 DUP2 MUL DIV JUMP JUMPDEST PUSH3 0x35B PUSH32 0x2172861495E7B85EDAC73E3CD5FBB42DD675BAADF627720E687BCFDACA025096 DUP1 PUSH5 0x100000000 PUSH3 0x3CE DUP2 MUL DIV JUMP JUMPDEST PUSH3 0x60A JUMP JUMPDEST CALLER SWAP1 JUMP JUMPDEST PUSH1 0x0 DUP1 SLOAD PUSH1 0x1 PUSH1 0xA0 PUSH1 0x2 EXP SUB DUP4 DUP2 AND PUSH1 0x1 PUSH1 0xA0 PUSH1 0x2 EXP SUB NOT DUP4 AND DUP2 OR DUP5 SSTORE PUSH1 0x40 MLOAD SWAP2 SWAP1 SWAP3 AND SWAP3 DUP4 SWAP2 PUSH32 0x8BE0079C531659141344CD1FD0A4F28419497F9722A3DAAFE3B4186F6B6457E0 SWAP2 SWAP1 LOG3 POP POP JUMP JUMPDEST PUSH3 0x3CA DUP3 DUP3 PUSH5 0x100000000 PUSH3 0x42E DUP2 MUL DIV JUMP JUMPDEST POP POP JUMP JUMPDEST PUSH1 0x0 PUSH3 0x3E4 DUP4 PUSH5 0x100000000 PUSH3 0x4CD DUP2 MUL DIV JUMP JUMPDEST PUSH1 0x0 DUP5 DUP2 MSTORE PUSH1 0x1 PUSH1 0x20 DUP2 SWAP1 MSTORE PUSH1 0x40 DUP1 DUP4 KECCAK256 SWAP1 SWAP2 ADD DUP6 SWAP1 SSTORE MLOAD SWAP2 SWAP3 POP DUP4 SWAP2 DUP4 SWAP2 DUP7 SWAP2 PUSH32 0xBD79B86FFE0AB8E8776151514217CD7CACD52C909F66475C3AF44E129F0B00FF SWAP2 SWAP1 LOG4 POP POP POP JUMP JUMPDEST PUSH3 0x443 DUP3 DUP3 PUSH5 0x100000000 PUSH3 0x4E3 DUP2 MUL DIV JUMP JUMPDEST PUSH3 0x3CA JUMPI PUSH1 0x0 DUP3 DUP2 MSTORE PUSH1 0x1 PUSH1 0x20 DUP2 DUP2 MSTORE PUSH1 0x40 DUP1 DUP5 KECCAK256 PUSH1 0x1 PUSH1 0xA0 PUSH1 0x2 EXP SUB DUP7 AND DUP6 MSTORE SWAP1 SWAP2 MSTORE SWAP1 SWAP2 KECCAK256 DUP1 SLOAD PUSH1 0xFF NOT AND SWAP1 SWAP2 OR SWAP1 SSTORE PUSH3 0x489 PUSH5 0x100000000 PUSH3 0x361 DUP2 MUL DIV JUMP JUMPDEST PUSH1 0x1 PUSH1 0xA0 PUSH1 0x2 EXP SUB AND DUP2 PUSH1 0x1 PUSH1 0xA0 PUSH1 0x2 EXP SUB AND DUP4 PUSH32 0x2F8788117E7EFF1D82E926EC794901D17C78024A50270940304540A733656F0D PUSH1 0x40 MLOAD PUSH1 0x40 MLOAD DUP1 SWAP2 SUB SWAP1 LOG4 POP POP JUMP JUMPDEST PUSH1 0x0 SWAP1 DUP2 MSTORE PUSH1 0x1 PUSH1 0x20 DUP2 SWAP1 MSTORE PUSH1 0x40 SWAP1 SWAP2 KECCAK256 ADD SLOAD SWAP1 JUMP JUMPDEST PUSH1 0x0 SWAP2 DUP3 MSTORE PUSH1 0x1 PUSH1 0x20 SWAP1 DUP2 MSTORE PUSH1 0x40 DUP1 DUP5 KECCAK256 PUSH1 0x1 PUSH1 0xA0 PUSH1 0x2 EXP SUB SWAP4 SWAP1 SWAP4 AND DUP5 MSTORE SWAP2 SWAP1 MSTORE SWAP1 KECCAK256 SLOAD PUSH1 0xFF AND SWAP1 JUMP JUMPDEST DUP3 DUP1 SLOAD PUSH3 0x51C SWAP1 PUSH3 0x5B4 JUMP JUMPDEST SWAP1 PUSH1 0x0 MSTORE PUSH1 0x20 PUSH1 0x0 KECCAK256 SWAP1 PUSH1 0x1F ADD PUSH1 0x20 SWAP1 DIV DUP2 ADD SWAP3 DUP3 PUSH3 0x540 JUMPI PUSH1 0x0 DUP6 SSTORE PUSH3 0x58B JUMP JUMPDEST DUP3 PUSH1 0x1F LT PUSH3 0x55B JUMPI DUP1 MLOAD PUSH1 0xFF NOT AND DUP4 DUP1 ADD OR DUP6 SSTORE PUSH3 0x58B JUMP JUMPDEST DUP3 DUP1 ADD PUSH1 0x1 ADD DUP6 SSTORE DUP3 ISZERO PUSH3 0x58B JUMPI SWAP2 DUP3 ADD JUMPDEST DUP3 DUP2 GT ISZERO PUSH3 0x58B JUMPI DUP3 MLOAD DUP3 SSTORE SWAP2 PUSH1 0x20 ADD SWAP2 SWAP1 PUSH1 0x1 ADD SWAP1 PUSH3 0x56E JUMP JUMPDEST POP PUSH3 0x599 SWAP3 SWAP2 POP PUSH3 0x59D JUMP JUMPDEST POP SWAP1 JUMP JUMPDEST JUMPDEST DUP1 DUP3 GT ISZERO PUSH3 0x599 JUMPI PUSH1 0x0 DUP2 SSTORE PUSH1 0x1 ADD PUSH3 0x59E JUMP JUMPDEST PUSH1 0x2 DUP2 DIV PUSH1 0x1 DUP3 AND DUP1 PUSH3 0x5C9 JUMPI PUSH1 0x7F DUP3 AND SWAP2 POP JUMPDEST PUSH1 0x20 DUP3 LT DUP2 EQ ISZERO PUSH3 0x604 JUMPI PUSH32 0x4E487B7100000000000000000000000000000000000000000000000000000000 PUSH1 0x0 MSTORE PUSH1 0x22 PUSH1 0x4 MSTORE PUSH1 0x24 PUSH1 0x0 REVERT JUMPDEST POP SWAP2 SWAP1 POP JUMP JUMPDEST PUSH2 0x1444 DUP1 PUSH3 0x61A PUSH1 0x0 CODECOPY PUSH1 0x0 RETURN INVALID PUSH1 0x80 PUSH1 0x40 MSTORE CALLVALUE DUP1 ISZERO PUSH2 0x10 JUMPI PUSH1 0x0 DUP1 REVERT JUMPDEST POP PUSH1 0x4 CALLDATASIZE LT PUSH2 0x1C6 JUMPI PUSH1 0x0 CALLDATALOAD PUSH29 0x100000000000000000000000000000000000000000000000000000000 SWAP1 DIV DUP1 PUSH4 0xA217FDDF GT PUSH2 0x116 JUMPI DUP1 PUSH4 0xC7876434 GT PUSH2 0xB4 JUMPI DUP1 PUSH4 0xF222B579 GT PUSH2 0x8E JUMPI DUP1 PUSH4 0xF222B579 EQ PUSH2 0x363 JUMPI DUP1 PUSH4 0xF2FDE38B EQ PUSH2 0x36B JUMPI DUP1 PUSH4 0xFA0C3AB8 EQ PUSH2 0x37E JUMPI DUP1 PUSH4 0xFFD7E4E7 EQ PUSH2 0x386 JUMPI PUSH1 0x0 DUP1 REVERT JUMPDEST DUP1 PUSH4 0xC7876434 EQ PUSH2 0x321 JUMPI DUP1 PUSH4 0xD391014B EQ PUSH2 0x329 JUMPI DUP1 PUSH4 0xD547741F EQ PUSH2 0x350 JUMPI PUSH1 0x0 DUP1 REVERT JUMPDEST DUP1 PUSH4 0xB49CD0F7 GT PUSH2 0xF0 JUMPI DUP1 PUSH4 0xB49CD0F7 EQ PUSH2 0x206 JUMPI DUP1 PUSH4 0xB7D09AE5 EQ PUSH2 0x30A JUMPI DUP1 PUSH4 0xC360A03B EQ PUSH2 0x311 JUMPI DUP1 PUSH4 0xC363091C EQ PUSH2 0x319 JUMPI PUSH1 0x0 DUP1 REVERT JUMPDEST DUP1 PUSH4 0xA217FDDF EQ PUSH2 0x2F2 JUMPI DUP1 PUSH4 0xAE60BB23 EQ PUSH2 0x2FA JUMPI DUP1 PUSH4 0xB1C78EBC EQ PUSH2 0x302 JUMPI PUSH1 0x0 DUP1 REVERT JUMPDEST DUP1 PUSH4 0x36568ABE GT PUSH2 0x183 JUMPI DUP1 PUSH4 0x715018A6 GT PUSH2 0x15D JUMPI DUP1 PUSH4 0x715018A6 EQ PUSH2 0x29D JUMPI DUP1 PUSH4 0x8356E8E1 EQ PUSH2 0x2A5 JUMPI DUP1 PUSH4 0x8DA5CB5B EQ PUSH2 0x2BA JUMPI DUP1 PUSH4 0x91D14854 EQ PUSH2 0x2DF JUMPI PUSH1 0x0 DUP1 REVERT JUMPDEST DUP1 PUSH4 0x36568ABE EQ PUSH2 0x26A JUMPI DUP1 PUSH4 0x5792FEBF EQ PUSH2 0x27D JUMPI DUP1 PUSH4 0x61C78CCE EQ PUSH2 0x285 JUMPI PUSH1 0x0 DUP1 REVERT JUMPDEST DUP1 PUSH4 0x1FFC9A7 EQ PUSH2 0x1CB JUMPI DUP1 PUSH4 0x21606831 EQ PUSH2 0x1F3 JUMPI DUP1 PUSH4 0x226839BA EQ PUSH2 0x208 JUMPI DUP1 PUSH4 0x248A9CA3 EQ PUSH2 0x21D JUMPI DUP1 PUSH4 0x2B553FB4 EQ PUSH2 0x24F JUMPI DUP1 PUSH4 0x2F2FF15D EQ PUSH2 0x257 JUMPI JUMPDEST PUSH1 0x0 DUP1 REVERT JUMPDEST PUSH2 0x1DE PUSH2 0x1D9 CALLDATASIZE PUSH1 0x4 PUSH2 0x1194 JUMP JUMPDEST PUSH2 0x38E JUMP JUMPDEST PUSH1 0x40 MLOAD SWAP1 ISZERO ISZERO DUP2 MSTORE PUSH1 0x20 ADD JUMPDEST PUSH1 0x40 MLOAD DUP1 SWAP2 SUB SWAP1 RETURN JUMPDEST PUSH2 0x206 PUSH2 0x201 CALLDATASIZE PUSH1 0x4 PUSH2 0x114F JUMP JUMPDEST PUSH2 0x421 JUMP JUMPDEST STOP JUMPDEST PUSH2 0x210 PUSH2 0x51A JUMP JUMPDEST PUSH1 0x40 MLOAD PUSH2 0x1EA SWAP2 SWAP1 PUSH2 0x1280 JUMP JUMPDEST PUSH2 0x241 PUSH2 0x22B CALLDATASIZE PUSH1 0x4 PUSH2 0x114F JUMP JUMPDEST PUSH1 0x0 SWAP1 DUP2 MSTORE PUSH1 0x1 PUSH1 0x20 DUP2 SWAP1 MSTORE PUSH1 0x40 SWAP1 SWAP2 KECCAK256 ADD SLOAD SWAP1 JUMP JUMPDEST PUSH1 0x40 MLOAD SWAP1 DUP2 MSTORE PUSH1 0x20 ADD PUSH2 0x1EA JUMP JUMPDEST PUSH2 0x206 PUSH2 0x5E1 JUMP JUMPDEST PUSH2 0x206 PUSH2 0x265 CALLDATASIZE PUSH1 0x4 PUSH2 0x1168 JUMP JUMPDEST PUSH2 0x5EB JUMP JUMPDEST PUSH2 0x206 PUSH2 0x278 CALLDATASIZE PUSH1 0x4 PUSH2 0x1168 JUMP JUMPDEST PUSH2 0x616 JUMP JUMPDEST PUSH2 0x241 PUSH2 0x6A5 JUMP JUMPDEST PUSH2 0x28D PUSH2 0x738 JUMP JUMPDEST PUSH1 0x40 MLOAD PUSH2 0x1EA SWAP5 SWAP4 SWAP3 SWAP2 SWAP1 PUSH2 0x1293 JUMP JUMPDEST PUSH2 0x206 PUSH2 0x7E3 JUMP JUMPDEST PUSH2 0x241 PUSH1 0x0 DUP1 MLOAD PUSH1 0x20 PUSH2 0x13EF DUP4 CODECOPY DUP2 MLOAD SWAP2 MSTORE DUP2 JUMP JUMPDEST PUSH1 0x0 SLOAD PUSH1 0x1 PUSH1 0xA0 PUSH1 0x2 EXP SUB AND JUMPDEST PUSH1 0x40 MLOAD PUSH1 0x1 PUSH1 0xA0 PUSH1 0x2 EXP SUB SWAP1 SWAP2 AND DUP2 MSTORE PUSH1 0x20 ADD PUSH2 0x1EA JUMP JUMPDEST PUSH2 0x1DE PUSH2 0x2ED CALLDATASIZE PUSH1 0x4 PUSH2 0x1168 JUMP JUMPDEST PUSH2 0x7F5 JUMP JUMPDEST PUSH2 0x241 PUSH1 0x0 DUP2 JUMP JUMPDEST PUSH2 0x210 PUSH2 0x820 JUMP JUMPDEST PUSH2 0x210 PUSH2 0x8AE JUMP JUMPDEST PUSH1 0x3C PUSH2 0x241 JUMP JUMPDEST PUSH2 0x2C7 PUSH2 0x8BB JUMP JUMPDEST PUSH2 0x1DE PUSH2 0x91A JUMP JUMPDEST PUSH2 0x1DE PUSH2 0x989 JUMP JUMPDEST PUSH2 0x241 PUSH32 0x2172861495E7B85EDAC73E3CD5FBB42DD675BAADF627720E687BCFDACA025096 DUP2 JUMP JUMPDEST PUSH2 0x206 PUSH2 0x35E CALLDATASIZE PUSH1 0x4 PUSH2 0x1168 JUMP JUMPDEST PUSH2 0x9F2 JUMP JUMPDEST PUSH2 0x28D PUSH2 0xA18 JUMP JUMPDEST PUSH2 0x206 PUSH2 0x379 CALLDATASIZE PUSH1 0x4 PUSH2 0x1134 JUMP JUMPDEST PUSH2 0xA3A JUMP JUMPDEST PUSH2 0x28D PUSH2 0xACA JUMP JUMPDEST PUSH2 0x210 PUSH2 0xAEC JUMP JUMPDEST PUSH1 0x0 PUSH28 0xFFFFFFFFFFFFFFFFFFFFFFFFFFFFFFFFFFFFFFFFFFFFFFFFFFFFFFFF NOT DUP3 AND PUSH32 0x7965DB0B00000000000000000000000000000000000000000000000000000000 EQ DUP1 PUSH2 0x41B JUMPI POP PUSH32 0x1FFC9A700000000000000000000000000000000000000000000000000000000 PUSH28 0xFFFFFFFFFFFFFFFFFFFFFFFFFFFFFFFFFFFFFFFFFFFFFFFFFFFFFFFF NOT DUP4 AND EQ JUMPDEST SWAP3 SWAP2 POP POP JUMP JUMPDEST CALLER PUSH1 0x0 SWAP1 DUP2 MSTORE PUSH1 0x5 PUSH1 0x20 MSTORE PUSH1 0x40 SWAP1 KECCAK256 SLOAD PUSH2 0x100 SWAP1 DIV PUSH1 0xFF AND PUSH2 0x48D JUMPI PUSH1 0x40 MLOAD PUSH1 0xE5 PUSH1 0x2 EXP PUSH3 0x461BCD MUL DUP2 MSTORE PUSH1 0x20 PUSH1 0x4 DUP3 ADD MSTORE PUSH1 0xF PUSH1 0x24 DUP3 ADD MSTORE PUSH32 0x4E6F2070756564657320766F7461720000000000000000000000000000000000 PUSH1 0x44 DUP3 ADD MSTORE PUSH1 0x64 ADD JUMPDEST PUSH1 0x40 MLOAD DUP1 SWAP2 SUB SWAP1 REVERT JUMPDEST CALLER PUSH1 0x0 SWAP1 DUP2 MSTORE PUSH1 0x5 PUSH1 0x20 MSTORE PUSH1 0x40 SWAP1 KECCAK256 DUP1 SLOAD PUSH1 0xFF NOT AND PUSH1 0x1 SWAP1 DUP2 OR SWAP1 SWAP2 SSTORE DUP2 EQ ISZERO PUSH2 0x4CD JUMPI PUSH1 0x1 PUSH1 0x6 PUSH1 0x3 ADD PUSH1 0x0 DUP3 DUP3 SLOAD PUSH2 0x4C7 SWAP2 SWAP1 PUSH2 0x12CC JUMP JUMPDEST SWAP1 SWAP2 SSTORE POP POP JUMPDEST DUP1 PUSH1 0x2 EQ ISZERO PUSH2 0x4F2 JUMPI PUSH1 0x1 PUSH1 0xA PUSH1 0x3 ADD PUSH1 0x0 DUP3 DUP3 SLOAD PUSH2 0x4EC SWAP2 SWAP1 PUSH2 0x12CC JUMP JUMPDEST SWAP1 SWAP2 SSTORE POP POP JUMPDEST DUP1 PUSH1 0x3 EQ ISZERO PUSH2 0x517 JUMPI PUSH1 0x1 PUSH1 0xE PUSH1 0x3 ADD PUSH1 0x0 DUP3 DUP3 SLOAD PUSH2 0x511 SWAP2 SWAP1 PUSH2 0x12CC JUMP JUMPDEST SWAP1 SWAP2 SSTORE POP POP JUMPDEST POP JUMP JUMPDEST PUSH1 0x60 PUSH2 0x534 PUSH1 0x0 DUP1 MLOAD PUSH1 0x20 PUSH2 0x13EF DUP4 CODECOPY DUP2 MLOAD SWAP2 MSTORE CALLER PUSH2 0x7F5 JUMP JUMPDEST PUSH2 0x5A9 JUMPI PUSH1 0x40 MLOAD PUSH1 0xE5 PUSH1 0x2 EXP PUSH3 0x461BCD MUL DUP2 MSTORE PUSH1 0x20 PUSH1 0x4 DUP3 ADD MSTORE PUSH1 0x2E PUSH1 0x24 DUP3 ADD MSTORE PUSH32 0x536F6C6F206C617320766F6C74616E7465207075656465206461727465206465 PUSH1 0x44 DUP3 ADD MSTORE PUSH32 0x726563686F20616C20566F746F2E000000000000000000000000000000000000 PUSH1 0x64 DUP3 ADD MSTORE PUSH1 0x84 ADD PUSH2 0x484 JUMP JUMPDEST POP PUSH1 0x40 DUP1 MLOAD DUP1 DUP3 ADD SWAP1 SWAP2 MSTORE PUSH1 0x13 DUP2 MSTORE PUSH32 0x456C20766F74616E746520796120766F746F2E00000000000000000000000000 PUSH1 0x20 DUP3 ADD MSTORE SWAP1 JUMP JUMPDEST PUSH2 0x5E9 PUSH2 0xCCA JUMP JUMPDEST JUMP JUMPDEST PUSH1 0x0 DUP3 DUP2 MSTORE PUSH1 0x1 PUSH1 0x20 DUP2 SWAP1 MSTORE PUSH1 0x40 SWAP1 SWAP2 KECCAK256 ADD SLOAD PUSH2 0x607 DUP2 PUSH2 0xD27 JUMP JUMPDEST PUSH2 0x611 DUP4 DUP4 PUSH2 0xD31 JUMP JUMPDEST POP POP POP JUMP JUMPDEST PUSH1 0x1 PUSH1 0xA0 PUSH1 0x2 EXP SUB DUP2 AND CALLER EQ PUSH2 0x697 JUMPI PUSH1 0x40 MLOAD PUSH1 0xE5 PUSH1 0x2 EXP PUSH3 0x461BCD MUL DUP2 MSTORE PUSH1 0x20 PUSH1 0x4 DUP3 ADD MSTORE PUSH1 0x2F PUSH1 0x24 DUP3 ADD MSTORE PUSH32 0x416363657373436F6E74726F6C3A2063616E206F6E6C792072656E6F756E6365 PUSH1 0x44 DUP3 ADD MSTORE PUSH32 0x20726F6C657320666F722073656C660000000000000000000000000000000000 PUSH1 0x64 DUP3 ADD MSTORE PUSH1 0x84 ADD PUSH2 0x484 JUMP JUMPDEST PUSH2 0x6A1 DUP3 DUP3 PUSH2 0xD9C JUMP JUMPDEST POP POP JUMP JUMPDEST PUSH1 0x0 DUP1 DUP1 JUMPDEST PUSH1 0x3 DUP2 GT PUSH2 0x733 JUMPI PUSH1 0xD SLOAD PUSH1 0x9 SLOAD GT DUP1 ISZERO PUSH2 0x6C8 JUMPI POP PUSH1 0x11 SLOAD PUSH1 0x9 SLOAD GT JUMPDEST ISZERO PUSH2 0x6D7 JUMPI PUSH1 0x9 SLOAD PUSH1 0x1 SWAP4 POP SWAP2 POP JUMPDEST PUSH1 0x9 SLOAD PUSH1 0xD SLOAD GT DUP1 ISZERO PUSH2 0x6ED JUMPI POP PUSH1 0x11 SLOAD PUSH1 0xD SLOAD GT JUMPDEST ISZERO PUSH2 0x6FC JUMPI PUSH1 0xD SLOAD PUSH1 0x2 SWAP4 POP SWAP2 POP JUMPDEST PUSH1 0x9 SLOAD PUSH1 0x11 SLOAD GT DUP1 ISZERO PUSH2 0x712 JUMPI POP PUSH1 0xD SLOAD PUSH1 0x11 SLOAD GT JUMPDEST ISZERO PUSH2 0x721 JUMPI PUSH1 0x11 SLOAD PUSH1 0x3 SWAP4 POP SWAP2 POP JUMPDEST DUP1 PUSH2 0x72B DUP2 PUSH2 0x1388 JUMP JUMPDEST SWAP2 POP POP PUSH2 0x6AA JUMP JUMPDEST POP POP SWAP1 JUMP JUMPDEST PUSH1 0xA DUP1 SLOAD PUSH1 0xB SLOAD PUSH1 0xC DUP1 SLOAD SWAP3 SWAP4 PUSH1 0x1 PUSH1 0xA0 PUSH1 0x2 EXP SUB SWAP1 SWAP3 AND SWAP3 PUSH2 0x75A SWAP1 PUSH2 0x134A JUMP JUMPDEST DUP1 PUSH1 0x1F ADD PUSH1 0x20 DUP1 SWAP2 DIV MUL PUSH1 0x20 ADD PUSH1 0x40 MLOAD SWAP1 DUP2 ADD PUSH1 0x40 MSTORE DUP1 SWAP3 SWAP2 SWAP1 DUP2 DUP2 MSTORE PUSH1 0x20 ADD DUP3 DUP1 SLOAD PUSH2 0x786 SWAP1 PUSH2 0x134A JUMP JUMPDEST DUP1 ISZERO PUSH2 0x7D3 JUMPI DUP1 PUSH1 0x1F LT PUSH2 0x7A8 JUMPI PUSH2 0x100 DUP1 DUP4 SLOAD DIV MUL DUP4 MSTORE SWAP2 PUSH1 0x20 ADD SWAP2 PUSH2 0x7D3 JUMP JUMPDEST DUP3 ADD SWAP2 SWAP1 PUSH1 0x0 MSTORE PUSH1 0x20 PUSH1 0x0 KECCAK256 SWAP1 JUMPDEST DUP2 SLOAD DUP2 MSTORE SWAP1 PUSH1 0x1 ADD SWAP1 PUSH1 0x20 ADD DUP1 DUP4 GT PUSH2 0x7B6 JUMPI DUP3 SWAP1 SUB PUSH1 0x1F AND DUP3 ADD SWAP2 JUMPDEST POP POP POP POP POP SWAP1 DUP1 PUSH1 0x3 ADD SLOAD SWAP1 POP DUP5 JUMP JUMPDEST PUSH2 0x7EB PUSH2 0xCCA JUMP JUMPDEST PUSH2 0x5E9 PUSH1 0x0 PUSH2 0xE03 JUMP JUMPDEST PUSH1 0x0 SWAP2 DUP3 MSTORE PUSH1 0x1 PUSH1 0x20 SWAP1 DUP2 MSTORE PUSH1 0x40 DUP1 DUP5 KECCAK256 PUSH1 0x1 PUSH1 0xA0 PUSH1 0x2 EXP SUB SWAP4 SWAP1 SWAP4 AND DUP5 MSTORE SWAP2 SWAP1 MSTORE SWAP1 KECCAK256 SLOAD PUSH1 0xFF AND SWAP1 JUMP JUMPDEST PUSH1 0x4 DUP1 SLOAD PUSH2 0x82D SWAP1 PUSH2 0x134A JUMP JUMPDEST DUP1 PUSH1 0x1F ADD PUSH1 0x20 DUP1 SWAP2 DIV MUL PUSH1 0x20 ADD PUSH1 0x40 MLOAD SWAP1 DUP2 ADD PUSH1 0x40 MSTORE DUP1 SWAP3 SWAP2 SWAP1 DUP2 DUP2 MSTORE PUSH1 0x20 ADD DUP3 DUP1 SLOAD PUSH2 0x859 SWAP1 PUSH2 0x134A JUMP JUMPDEST DUP1 ISZERO PUSH2 0x8A6 JUMPI DUP1 PUSH1 0x1F LT PUSH2 0x87B JUMPI PUSH2 0x100 DUP1 DUP4 SLOAD DIV MUL DUP4 MSTORE SWAP2 PUSH1 0x20 ADD SWAP2 PUSH2 0x8A6 JUMP JUMPDEST DUP3 ADD SWAP2 SWAP1 PUSH1 0x0 MSTORE PUSH1 0x20 PUSH1 0x0 KECCAK256 SWAP1 JUMPDEST DUP2 SLOAD DUP2 MSTORE SWAP1 PUSH1 0x1 ADD SWAP1 PUSH1 0x20 ADD DUP1 DUP4 GT PUSH2 0x889 JUMPI DUP3 SWAP1 SUB PUSH1 0x1F AND DUP3 ADD SWAP2 JUMPDEST POP POP POP POP POP DUP2 JUMP JUMPDEST PUSH1 0x3 DUP1 SLOAD PUSH2 0x82D SWAP1 PUSH2 0x134A JUMP JUMPDEST PUSH1 0x0 PUSH2 0x8C5 PUSH2 0x6A5 JUMP JUMPDEST PUSH1 0x1 EQ ISZERO PUSH2 0x8DB JUMPI POP PUSH1 0x7 SLOAD PUSH1 0x1 PUSH1 0xA0 PUSH1 0x2 EXP SUB AND JUMPDEST PUSH2 0x8E3 PUSH2 0x6A5 JUMP JUMPDEST PUSH1 0x2 EQ ISZERO PUSH2 0x8F9 JUMPI POP PUSH1 0xB SLOAD PUSH1 0x1 PUSH1 0xA0 PUSH1 0x2 EXP SUB AND JUMPDEST PUSH2 0x901 PUSH2 0x6A5 JUMP JUMPDEST PUSH1 0x3 EQ ISZERO PUSH2 0x917 JUMPI POP PUSH1 0xF SLOAD PUSH1 0x1 PUSH1 0xA0 PUSH1 0x2 EXP SUB AND JUMPDEST SWAP1 JUMP JUMPDEST PUSH1 0x0 PUSH2 0x934 PUSH1 0x0 DUP1 MLOAD PUSH1 0x20 PUSH2 0x13EF DUP4 CODECOPY DUP2 MLOAD SWAP2 MSTORE CALLER PUSH2 0x7F5 JUMP JUMPDEST PUSH2 0x983 JUMPI PUSH1 0x40 MLOAD PUSH1 0xE5 PUSH1 0x2 EXP PUSH3 0x461BCD MUL DUP2 MSTORE PUSH1 0x20 PUSH1 0x4 DUP3 ADD MSTORE PUSH1 0x8 PUSH1 0x24 DUP3 ADD MSTORE PUSH32 0x4E6F20566F746F21000000000000000000000000000000000000000000000000 PUSH1 0x44 DUP3 ADD MSTORE PUSH1 0x64 ADD PUSH2 0x484 JUMP JUMPDEST POP PUSH1 0x1 SWAP1 JUMP JUMPDEST PUSH1 0x0 PUSH2 0x9A3 PUSH1 0x0 DUP1 MLOAD PUSH1 0x20 PUSH2 0x13EF DUP4 CODECOPY DUP2 MLOAD SWAP2 MSTORE CALLER PUSH2 0x7F5 JUMP JUMPDEST PUSH2 0x983 JUMPI PUSH1 0x40 MLOAD PUSH1 0xE5 PUSH1 0x2 EXP PUSH3 0x461BCD MUL DUP2 MSTORE PUSH1 0x20 PUSH1 0x4 DUP3 ADD MSTORE PUSH1 0xE PUSH1 0x24 DUP3 ADD MSTORE PUSH32 0x54752070756564657320766F746F000000000000000000000000000000000000 PUSH1 0x44 DUP3 ADD MSTORE PUSH1 0x64 ADD PUSH2 0x484 JUMP JUMPDEST PUSH1 0x0 DUP3 DUP2 MSTORE PUSH1 0x1 PUSH1 0x20 DUP2 SWAP1 MSTORE PUSH1 0x40 SWAP1 SWAP2 KECCAK256 ADD SLOAD PUSH2 0xA0E DUP2 PUSH2 0xD27 JUMP JUMPDEST PUSH2 0x611 DUP4 DUP4 PUSH2 0xD9C JUMP JUMPDEST PUSH1 0xE DUP1 SLOAD PUSH1 0xF SLOAD PUSH1 0x10 DUP1 SLOAD SWAP3 SWAP4 PUSH1 0x1 PUSH1 0xA0 PUSH1 0x2 EXP SUB SWAP1 SWAP3 AND SWAP3 PUSH2 0x75A SWAP1 PUSH2 0x134A JUMP JUMPDEST PUSH2 0xA42 PUSH2 0xCCA JUMP JUMPDEST PUSH1 0x1 PUSH1 0xA0 PUSH1 0x2 EXP SUB DUP2 AND PUSH2 0xAC1 JUMPI PUSH1 0x40 MLOAD PUSH1 0xE5 PUSH1 0x2 EXP PUSH3 0x461BCD MUL DUP2 MSTORE PUSH1 0x20 PUSH1 0x4 DUP3 ADD MSTORE PUSH1 0x26 PUSH1 0x24 DUP3 ADD MSTORE PUSH32 0x4F776E61626C653A206E6577206F776E657220697320746865207A65726F2061 PUSH1 0x44 DUP3 ADD MSTORE PUSH32 0x6464726573730000000000000000000000000000000000000000000000000000 PUSH1 0x64 DUP3 ADD MSTORE PUSH1 0x84 ADD PUSH2 0x484 JUMP JUMPDEST PUSH2 0x517 DUP2 PUSH2 0xE03 JUMP JUMPDEST PUSH1 0x6 DUP1 SLOAD PUSH1 0x7 SLOAD PUSH1 0x8 DUP1 SLOAD SWAP3 SWAP4 PUSH1 0x1 PUSH1 0xA0 PUSH1 0x2 EXP SUB SWAP1 SWAP3 AND SWAP3 PUSH2 0x75A SWAP1 PUSH2 0x134A JUMP JUMPDEST PUSH1 0x60 PUSH2 0xAF6 PUSH2 0x6A5 JUMP JUMPDEST PUSH1 0x1 EQ ISZERO PUSH2 0xB8C JUMPI PUSH1 0x8 DUP1 SLOAD PUSH2 0xB0B SWAP1 PUSH2 0x134A JUMP JUMPDEST DUP1 PUSH1 0x1F ADD PUSH1 0x20 DUP1 SWAP2 DIV MUL PUSH1 0x20 ADD PUSH1 0x40 MLOAD SWAP1 DUP2 ADD PUSH1 0x40 MSTORE DUP1 SWAP3 SWAP2 SWAP1 DUP2 DUP2 MSTORE PUSH1 0x20 ADD DUP3 DUP1 SLOAD PUSH2 0xB37 SWAP1 PUSH2 0x134A JUMP JUMPDEST DUP1 ISZERO PUSH2 0xB84 JUMPI DUP1 PUSH1 0x1F LT PUSH2 0xB59 JUMPI PUSH2 0x100 DUP1 DUP4 SLOAD DIV MUL DUP4 MSTORE SWAP2 PUSH1 0x20 ADD SWAP2 PUSH2 0xB84 JUMP JUMPDEST DUP3 ADD SWAP2 SWAP1 PUSH1 0x0 MSTORE PUSH1 0x20 PUSH1 0x0 KECCAK256 SWAP1 JUMPDEST DUP2 SLOAD DUP2 MSTORE SWAP1 PUSH1 0x1 ADD SWAP1 PUSH1 0x20 ADD DUP1 DUP4 GT PUSH2 0xB67 JUMPI DUP3 SWAP1 SUB PUSH1 0x1F AND DUP3 ADD SWAP2 JUMPDEST POP POP POP POP POP SWAP1 POP JUMPDEST PUSH2 0xB94 PUSH2 0x6A5 JUMP JUMPDEST PUSH1 0x2 EQ ISZERO PUSH2 0xC2A JUMPI PUSH1 0xC DUP1 SLOAD PUSH2 0xBA9 SWAP1 PUSH2 0x134A JUMP JUMPDEST DUP1 PUSH1 0x1F ADD PUSH1 0x20 DUP1 SWAP2 DIV MUL PUSH1 0x20 ADD PUSH1 0x40 MLOAD SWAP1 DUP2 ADD PUSH1 0x40 MSTORE DUP1 SWAP3 SWAP2 SWAP1 DUP2 DUP2 MSTORE PUSH1 0x20 ADD DUP3 DUP1 SLOAD PUSH2 0xBD5 SWAP1 PUSH2 0x134A JUMP JUMPDEST DUP1 ISZERO PUSH2 0xC22 JUMPI DUP1 PUSH1 0x1F LT PUSH2 0xBF7 JUMPI PUSH2 0x100 DUP1 DUP4 SLOAD DIV MUL DUP4 MSTORE SWAP2 PUSH1 0x20 ADD SWAP2 PUSH2 0xC22 JUMP JUMPDEST DUP3 ADD SWAP2 SWAP1 PUSH1 0x0 MSTORE PUSH1 0x20 PUSH1 0x0 KECCAK256 SWAP1 JUMPDEST DUP2 SLOAD DUP2 MSTORE SWAP1 PUSH1 0x1 ADD SWAP1 PUSH1 0x20 ADD DUP1 DUP4 GT PUSH2 0xC05 JUMPI DUP3 SWAP1 SUB PUSH1 0x1F AND DUP3 ADD SWAP2 JUMPDEST POP POP POP POP POP SWAP1 POP JUMPDEST PUSH2 0xC32 PUSH2 0x6A5 JUMP JUMPDEST PUSH1 0x3 EQ ISZERO PUSH2 0x917 JUMPI PUSH1 0x10 DUP1 SLOAD PUSH2 0xC47 SWAP1 PUSH2 0x134A JUMP JUMPDEST DUP1 PUSH1 0x1F ADD PUSH1 0x20 DUP1 SWAP2 DIV MUL PUSH1 0x20 ADD PUSH1 0x40 MLOAD SWAP1 DUP2 ADD PUSH1 0x40 MSTORE DUP1 SWAP3 SWAP2 SWAP1 DUP2 DUP2 MSTORE PUSH1 0x20 ADD DUP3 DUP1 SLOAD PUSH2 0xC73 SWAP1 PUSH2 0x134A JUMP JUMPDEST DUP1 ISZERO PUSH2 0xCC0 JUMPI DUP1 PUSH1 0x1F LT PUSH2 0xC95 JUMPI PUSH2 0x100 DUP1 DUP4 SLOAD DIV MUL DUP4 MSTORE SWAP2 PUSH1 0x20 ADD SWAP2 PUSH2 0xCC0 JUMP JUMPDEST DUP3 ADD SWAP2 SWAP1 PUSH1 0x0 MSTORE PUSH1 0x20 PUSH1 0x0 KECCAK256 SWAP1 JUMPDEST DUP2 SLOAD DUP2 MSTORE SWAP1 PUSH1 0x1 ADD SWAP1 PUSH1 0x20 ADD DUP1 DUP4 GT PUSH2 0xCA3 JUMPI DUP3 SWAP1 SUB PUSH1 0x1F AND DUP3 ADD SWAP2 JUMPDEST POP POP POP POP POP SWAP1 POP SWAP1 JUMP JUMPDEST PUSH1 0x0 SLOAD PUSH1 0x1 PUSH1 0xA0 PUSH1 0x2 EXP SUB AND CALLER EQ PUSH2 0x5E9 JUMPI PUSH1 0x40 MLOAD PUSH1 0xE5 PUSH1 0x2 EXP PUSH3 0x461BCD MUL DUP2 MSTORE PUSH1 0x20 PUSH1 0x4 DUP3 ADD DUP2 SWAP1 MSTORE PUSH1 0x24 DUP3 ADD MSTORE PUSH32 0x4F776E61626C653A2063616C6C6572206973206E6F7420746865206F776E6572 PUSH1 0x44 DUP3 ADD MSTORE PUSH1 0x64 ADD PUSH2 0x484 JUMP JUMPDEST PUSH2 0x517 DUP2 CALLER PUSH2 0xE60 JUMP JUMPDEST PUSH2 0xD3B DUP3 DUP3 PUSH2 0x7F5 JUMP JUMPDEST PUSH2 0x6A1 JUMPI PUSH1 0x0 DUP3 DUP2 MSTORE PUSH1 0x1 PUSH1 0x20 DUP2 DUP2 MSTORE PUSH1 0x40 DUP1 DUP5 KECCAK256 PUSH1 0x1 PUSH1 0xA0 PUSH1 0x2 EXP SUB DUP7 AND DUP1 DUP7 MSTORE SWAP3 MSTORE DUP1 DUP5 KECCAK256 DUP1 SLOAD PUSH1 0xFF NOT AND SWAP1 SWAP4 OR SWAP1 SWAP3 SSTORE SWAP1 MLOAD CALLER SWAP3 DUP6 SWAP2 PUSH32 0x2F8788117E7EFF1D82E926EC794901D17C78024A50270940304540A733656F0D SWAP2 SWAP1 LOG4 POP POP JUMP JUMPDEST PUSH2 0xDA6 DUP3 DUP3 PUSH2 0x7F5 JUMP JUMPDEST ISZERO PUSH2 0x6A1 JUMPI PUSH1 0x0 DUP3 DUP2 MSTORE PUSH1 0x1 PUSH1 0x20 SWAP1 DUP2 MSTORE PUSH1 0x40 DUP1 DUP4 KECCAK256 PUSH1 0x1 PUSH1 0xA0 PUSH1 0x2 EXP SUB DUP6 AND DUP1 DUP6 MSTORE SWAP3 MSTORE DUP1 DUP4 KECCAK256 DUP1 SLOAD PUSH1 0xFF NOT AND SWAP1 SSTORE MLOAD CALLER SWAP3 DUP6 SWAP2 PUSH32 0xF6391F5C32D9C69D2A47EA670B442974B53935D1EDC7FD64EB21E047A839171B SWAP2 SWAP1 LOG4 POP POP JUMP JUMPDEST PUSH1 0x0 DUP1 SLOAD PUSH1 0x1 PUSH1 0xA0 PUSH1 0x2 EXP SUB DUP4 DUP2 AND PUSH20 0xFFFFFFFFFFFFFFFFFFFFFFFFFFFFFFFFFFFFFFFF NOT DUP4 AND DUP2 OR DUP5 SSTORE PUSH1 0x40 MLOAD SWAP2 SWAP1 SWAP3 AND SWAP3 DUP4 SWAP2 PUSH32 0x8BE0079C531659141344CD1FD0A4F28419497F9722A3DAAFE3B4186F6B6457E0 SWAP2 SWAP1 LOG3 POP POP JUMP JUMPDEST PUSH2 0xE6A DUP3 DUP3 PUSH2 0x7F5 JUMP JUMPDEST PUSH2 0x6A1 JUMPI PUSH2 0xE82 DUP2 PUSH1 0x1 PUSH1 0xA0 PUSH1 0x2 EXP SUB AND PUSH1 0x14 PUSH2 0xEC7 JUMP JUMPDEST PUSH2 0xE8D DUP4 PUSH1 0x20 PUSH2 0xEC7 JUMP JUMPDEST PUSH1 0x40 MLOAD PUSH1 0x20 ADD PUSH2 0xE9E SWAP3 SWAP2 SWAP1 PUSH2 0x11FF JUMP JUMPDEST PUSH1 0x40 DUP1 MLOAD PUSH1 0x1F NOT DUP2 DUP5 SUB ADD DUP2 MSTORE SWAP1 DUP3 SWAP1 MSTORE PUSH1 0xE5 PUSH1 0x2 EXP PUSH3 0x461BCD MUL DUP3 MSTORE PUSH2 0x484 SWAP2 PUSH1 0x4 ADD PUSH2 0x1280 JUMP JUMPDEST PUSH1 0x60 PUSH1 0x0 PUSH2 0xED6 DUP4 PUSH1 0x2 PUSH2 0x12E4 JUMP JUMPDEST PUSH2 0xEE1 SWAP1 PUSH1 0x2 PUSH2 0x12CC JUMP JUMPDEST PUSH8 0xFFFFFFFFFFFFFFFF DUP2 GT ISZERO PUSH2 0xEF9 JUMPI PUSH2 0xEF9 PUSH2 0x13D5 JUMP JUMPDEST PUSH1 0x40 MLOAD SWAP1 DUP1 DUP3 MSTORE DUP1 PUSH1 0x1F ADD PUSH1 0x1F NOT AND PUSH1 0x20 ADD DUP3 ADD PUSH1 0x40 MSTORE DUP1 ISZERO PUSH2 0xF23 JUMPI PUSH1 0x20 DUP3 ADD DUP2 DUP1 CALLDATASIZE DUP4 CALLDATACOPY ADD SWAP1 POP JUMPDEST POP SWAP1 POP PUSH32 0x3000000000000000000000000000000000000000000000000000000000000000 DUP2 PUSH1 0x0 DUP2 MLOAD DUP2 LT PUSH2 0xF5A JUMPI PUSH2 0xF5A PUSH2 0x13BC JUMP JUMPDEST PUSH1 0x20 ADD ADD SWAP1 PUSH31 0xFFFFFFFFFFFFFFFFFFFFFFFFFFFFFFFFFFFFFFFFFFFFFFFFFFFFFFFFFFFFFF NOT AND SWAP1 DUP2 PUSH1 0x0 BYTE SWAP1 MSTORE8 POP PUSH32 0x7800000000000000000000000000000000000000000000000000000000000000 DUP2 PUSH1 0x1 DUP2 MLOAD DUP2 LT PUSH2 0xFBD JUMPI PUSH2 0xFBD PUSH2 0x13BC JUMP JUMPDEST PUSH1 0x20 ADD ADD SWAP1 PUSH31 0xFFFFFFFFFFFFFFFFFFFFFFFFFFFFFFFFFFFFFFFFFFFFFFFFFFFFFFFFFFFFFF NOT AND SWAP1 DUP2 PUSH1 0x0 BYTE SWAP1 MSTORE8 POP PUSH1 0x0 PUSH2 0xFF9 DUP5 PUSH1 0x2 PUSH2 0x12E4 JUMP JUMPDEST PUSH2 0x1004 SWAP1 PUSH1 0x1 PUSH2 0x12CC JUMP JUMPDEST SWAP1 POP JUMPDEST PUSH1 0x1 DUP2 GT ISZERO PUSH2 0x10BF JUMPI PUSH32 0x3031323334353637383961626364656600000000000000000000000000000000 DUP6 PUSH1 0xF AND PUSH1 0x10 DUP2 LT PUSH2 0x1045 JUMPI PUSH2 0x1045 PUSH2 0x13BC JUMP JUMPDEST BYTE PUSH32 0x100000000000000000000000000000000000000000000000000000000000000 MUL DUP3 DUP3 DUP2 MLOAD DUP2 LT PUSH2 0x107A JUMPI PUSH2 0x107A PUSH2 0x13BC JUMP JUMPDEST PUSH1 0x20 ADD ADD SWAP1 PUSH31 0xFFFFFFFFFFFFFFFFFFFFFFFFFFFFFFFFFFFFFFFFFFFFFFFFFFFFFFFFFFFFFF NOT AND SWAP1 DUP2 PUSH1 0x0 BYTE SWAP1 MSTORE8 POP PUSH1 0x10 SWAP1 SWAP5 DIV SWAP4 PUSH2 0x10B8 DUP2 PUSH2 0x1333 JUMP JUMPDEST SWAP1 POP PUSH2 0x1007 JUMP JUMPDEST POP DUP4 ISZERO PUSH2 0x1111 JUMPI PUSH1 0x40 MLOAD PUSH1 0xE5 PUSH1 0x2 EXP PUSH3 0x461BCD MUL DUP2 MSTORE PUSH1 0x20 PUSH1 0x4 DUP3 ADD DUP2 SWAP1 MSTORE PUSH1 0x24 DUP3 ADD MSTORE PUSH32 0x537472696E67733A20686578206C656E67746820696E73756666696369656E74 PUSH1 0x44 DUP3 ADD MSTORE PUSH1 0x64 ADD PUSH2 0x484 JUMP JUMPDEST SWAP4 SWAP3 POP POP POP JUMP JUMPDEST DUP1 CALLDATALOAD PUSH1 0x1 PUSH1 0xA0 PUSH1 0x2 EXP SUB DUP2 AND DUP2 EQ PUSH2 0x112F JUMPI PUSH1 0x0 DUP1 REVERT JUMPDEST SWAP2 SWAP1 POP JUMP JUMPDEST PUSH1 0x0 PUSH1 0x20 DUP3 DUP5 SUB SLT ISZERO PUSH2 0x1146 JUMPI PUSH1 0x0 DUP1 REVERT JUMPDEST PUSH2 0x1111 DUP3 PUSH2 0x1118 JUMP JUMPDEST PUSH1 0x0 PUSH1 0x20 DUP3 DUP5 SUB SLT ISZERO PUSH2 0x1161 JUMPI PUSH1 0x0 DUP1 REVERT JUMPDEST POP CALLDATALOAD SWAP2 SWAP1 POP JUMP JUMPDEST PUSH1 0x0 DUP1 PUSH1 0x40 DUP4 DUP6 SUB SLT ISZERO PUSH2 0x117B JUMPI PUSH1 0x0 DUP1 REVERT JUMPDEST DUP3 CALLDATALOAD SWAP2 POP PUSH2 0x118B PUSH1 0x20 DUP5 ADD PUSH2 0x1118 JUMP JUMPDEST SWAP1 POP SWAP3 POP SWAP3 SWAP1 POP JUMP JUMPDEST PUSH1 0x0 PUSH1 0x20 DUP3 DUP5 SUB SLT ISZERO PUSH2 0x11A6 JUMPI PUSH1 0x0 DUP1 REVERT JUMPDEST DUP2 CALLDATALOAD PUSH28 0xFFFFFFFFFFFFFFFFFFFFFFFFFFFFFFFFFFFFFFFFFFFFFFFFFFFFFFFF NOT DUP2 AND DUP2 EQ PUSH2 0x1111 JUMPI PUSH1 0x0 DUP1 REVERT JUMPDEST PUSH1 0x0 DUP2 MLOAD DUP1 DUP5 MSTORE PUSH2 0x11EB DUP2 PUSH1 0x20 DUP7 ADD PUSH1 0x20 DUP7 ADD PUSH2 0x1303 JUMP JUMPDEST PUSH1 0x1F ADD PUSH1 0x1F NOT AND SWAP3 SWAP1 SWAP3 ADD PUSH1 0x20 ADD SWAP3 SWAP2 POP POP JUMP JUMPDEST PUSH32 0x416363657373436F6E74726F6C3A206163636F756E7420000000000000000000 DUP2 MSTORE PUSH1 0x0 DUP4 MLOAD PUSH2 0x1237 DUP2 PUSH1 0x17 DUP6 ADD PUSH1 0x20 DUP9 ADD PUSH2 0x1303 JUMP JUMPDEST PUSH32 0x206973206D697373696E6720726F6C6520000000000000000000000000000000 PUSH1 0x17 SWAP2 DUP5 ADD SWAP2 DUP3 ADD MSTORE DUP4 MLOAD PUSH2 0x1274 DUP2 PUSH1 0x28 DUP5 ADD PUSH1 0x20 DUP9 ADD PUSH2 0x1303 JUMP JUMPDEST ADD PUSH1 0x28 ADD SWAP5 SWAP4 POP POP POP POP JUMP JUMPDEST PUSH1 0x20 DUP2 MSTORE PUSH1 0x0 PUSH2 0x1111 PUSH1 0x20 DUP4 ADD DUP5 PUSH2 0x11D3 JUMP JUMPDEST DUP5 DUP2 MSTORE PUSH1 0x1 PUSH1 0xA0 PUSH1 0x2 EXP SUB DUP5 AND PUSH1 0x20 DUP3 ADD MSTORE PUSH1 0x80 PUSH1 0x40 DUP3 ADD MSTORE PUSH1 0x0 PUSH2 0x12BB PUSH1 0x80 DUP4 ADD DUP6 PUSH2 0x11D3 JUMP JUMPDEST SWAP1 POP DUP3 PUSH1 0x60 DUP4 ADD MSTORE SWAP6 SWAP5 POP POP POP POP POP JUMP JUMPDEST PUSH1 0x0 DUP3 NOT DUP3 GT ISZERO PUSH2 0x12DF JUMPI PUSH2 0x12DF PUSH2 0x13A3 JUMP JUMPDEST POP ADD SWAP1 JUMP JUMPDEST PUSH1 0x0 DUP2 PUSH1 0x0 NOT DIV DUP4 GT DUP3 ISZERO ISZERO AND ISZERO PUSH2 0x12FE JUMPI PUSH2 0x12FE PUSH2 0x13A3 JUMP JUMPDEST POP MUL SWAP1 JUMP JUMPDEST PUSH1 0x0 JUMPDEST DUP4 DUP2 LT ISZERO PUSH2 0x131E JUMPI DUP2 DUP2 ADD MLOAD DUP4 DUP3 ADD MSTORE PUSH1 0x20 ADD PUSH2 0x1306 JUMP JUMPDEST DUP4 DUP2 GT ISZERO PUSH2 0x132D JUMPI PUSH1 0x0 DUP5 DUP5 ADD MSTORE JUMPDEST POP POP POP POP JUMP JUMPDEST PUSH1 0x0 DUP2 PUSH2 0x1342 JUMPI PUSH2 0x1342 PUSH2 0x13A3 JUMP JUMPDEST POP PUSH1 0x0 NOT ADD SWAP1 JUMP JUMPDEST PUSH1 0x2 DUP2 DIV PUSH1 0x1 DUP3 AND DUP1 PUSH2 0x135E JUMPI PUSH1 0x7F DUP3 AND SWAP2 POP JUMPDEST PUSH1 0x20 DUP3 LT DUP2 EQ ISZERO PUSH2 0x1382 JUMPI PUSH1 0xE0 PUSH1 0x2 EXP PUSH4 0x4E487B71 MUL PUSH1 0x0 MSTORE PUSH1 0x22 PUSH1 0x4 MSTORE PUSH1 0x24 PUSH1 0x0 REVERT JUMPDEST POP SWAP2 SWAP1 POP JUMP JUMPDEST PUSH1 0x0 PUSH1 0x0 NOT DUP3 EQ ISZERO PUSH2 0x139C JUMPI PUSH2 0x139C PUSH2 0x13A3 JUMP JUMPDEST POP PUSH1 0x1 ADD SWAP1 JUMP JUMPDEST PUSH1 0xE0 PUSH1 0x2 EXP PUSH4 0x4E487B71 MUL PUSH1 0x0 MSTORE PUSH1 0x11 PUSH1 0x4 MSTORE PUSH1 0x24 PUSH1 0x0 REVERT JUMPDEST PUSH1 0xE0 PUSH1 0x2 EXP PUSH4 0x4E487B71 MUL PUSH1 0x0 MSTORE PUSH1 0x32 PUSH1 0x4 MSTORE PUSH1 0x24 PUSH1 0x0 REVERT JUMPDEST PUSH1 0xE0 PUSH1 0x2 EXP PUSH4 0x4E487B71 MUL PUSH1 0x0 MSTORE PUSH1 0x41 PUSH1 0x4 MSTORE PUSH1 0x24 PUSH1 0x0 REVERT INVALID 0x22 PUSH13 0x4972AB1F314D4AD7FF65FBBF70 0xE5 PUSH5 0x7A0620354D SWAP8 0xBF CALL 0xB9 PUSH25 0xC4CF385EDFA26469706673582212201416E7539450CDFCEF26 0x5F SWAP16 0xEA 0xAD 0x2E PUSH13 0x502CA7A187A70A25AE951CB2D3 0xB7 DUP13 0xD1 PUSH5 0x736F6C6343 STOP ADDMOD SMOD STOP CALLER "
				},
				"gasEstimates": {
					"creation": {
						"codeDepositCost": "1037600",
						"executionCost": "infinite",
						"totalCost": "infinite"
					},
					"external": {
						"DEFAULT_ADMIN_ROLE()": "246",
						"ROLE_ADMIN()": "267",
						"ROLE_VOLTANTE()": "infinite",
						"addressGanador()": "infinite",
						"candidato1()": "infinite",
						"candidato2()": "infinite",
						"candidato3()": "infinite",
						"candidatoGanador()": "infinite",
						"derechoVoto()": "infinite",
						"duenoChecar()": "infinite",
						"getRoleAdmin(bytes32)": "645",
						"grantRole(bytes32,address)": "infinite",
						"hasRole(bytes32,address)": "984",
						"nombreGanador()": "infinite",
						"normalCosa()": "170",
						"owner()": "628",
						"permisoVotar()": "infinite",
						"renounceOwnership()": "infinite",
						"renounceRole(bytes32,address)": "23380",
						"revokeRole(bytes32,address)": "infinite",
						"supportsInterface(bytes4)": "407",
						"tiempoinicio()": "264",
						"transferOwnership(address)": "22720",
						"votar(uint256)": "infinite",
						"voto()": "infinite",
						"votoBueno()": "infinite",
						"votoMalo()": "infinite"
					}
				},
				"methodIdentifiers": {
					"DEFAULT_ADMIN_ROLE()": "a217fddf",
					"ROLE_ADMIN()": "d391014b",
					"ROLE_VOLTANTE()": "8356e8e1",
					"addressGanador()": "c360a03b",
					"candidato1()": "fa0c3ab8",
					"candidato2()": "61c78cce",
					"candidato3()": "f222b579",
					"candidatoGanador()": "5792febf",
					"derechoVoto()": "226839ba",
					"duenoChecar()": "2b553fb4",
					"getRoleAdmin(bytes32)": "248a9ca3",
					"grantRole(bytes32,address)": "2f2ff15d",
					"hasRole(bytes32,address)": "91d14854",
					"nombreGanador()": "ffd7e4e7",
					"normalCosa()": "b49cd0f7",
					"owner()": "8da5cb5b",
					"permisoVotar()": "c363091c",
					"renounceOwnership()": "715018a6",
					"renounceRole(bytes32,address)": "36568abe",
					"revokeRole(bytes32,address)": "d547741f",
					"supportsInterface(bytes4)": "01ffc9a7",
					"tiempoinicio()": "b7d09ae5",
					"transferOwnership(address)": "f2fde38b",
					"votar(uint256)": "21606831",
					"voto()": "c7876434",
					"votoBueno()": "b1c78ebc",
					"votoMalo()": "ae60bb23"
				}
			},
			"storageLayout": {
				"storage": [
					{
						"astId": 400,
						"contract": "votes.sol:projectVotes",
						"label": "_owner",
						"offset": 0,
						"slot": "0",
						"type": "t_address"
					},
					{
						"astId": 24,
						"contract": "votes.sol:projectVotes",
						"label": "_roles",
						"offset": 0,
						"slot": "1",
						"type": "t_mapping(t_bytes32,t_struct(RoleData)19_storage)"
					},
					{
						"astId": 810,
						"contract": "votes.sol:projectVotes",
						"label": "totalVotos",
						"offset": 0,
						"slot": "2",
						"type": "t_uint256"
					},
					{
						"astId": 813,
						"contract": "votes.sol:projectVotes",
						"label": "votoBueno",
						"offset": 0,
						"slot": "3",
						"type": "t_string_storage"
					},
					{
						"astId": 816,
						"contract": "votes.sol:projectVotes",
						"label": "votoMalo",
						"offset": 0,
						"slot": "4",
						"type": "t_string_storage"
					},
					{
						"astId": 873,
						"contract": "votes.sol:projectVotes",
						"label": "votantes",
						"offset": 0,
						"slot": "5",
						"type": "t_mapping(t_address,t_struct(Votante)868_storage)"
					},
					{
						"astId": 891,
						"contract": "votes.sol:projectVotes",
						"label": "candidato1",
						"offset": 0,
						"slot": "6",
						"type": "t_struct(Candidato)882_storage"
					},
					{
						"astId": 900,
						"contract": "votes.sol:projectVotes",
						"label": "candidato2",
						"offset": 0,
						"slot": "10",
						"type": "t_struct(Candidato)882_storage"
					},
					{
						"astId": 909,
						"contract": "votes.sol:projectVotes",
						"label": "candidato3",
						"offset": 0,
						"slot": "14",
						"type": "t_struct(Candidato)882_storage"
					}
				],
				"types": {
					"t_address": {
						"encoding": "inplace",
						"label": "address",
						"numberOfBytes": "20"
					},
					"t_bool": {
						"encoding": "inplace",
						"label": "bool",
						"numberOfBytes": "1"
					},
					"t_bytes32": {
						"encoding": "inplace",
						"label": "bytes32",
						"numberOfBytes": "32"
					},
					"t_mapping(t_address,t_bool)": {
						"encoding": "mapping",
						"key": "t_address",
						"label": "mapping(address => bool)",
						"numberOfBytes": "32",
						"value": "t_bool"
					},
					"t_mapping(t_address,t_struct(Votante)868_storage)": {
						"encoding": "mapping",
						"key": "t_address",
						"label": "mapping(address => struct projectVotes.Votante)",
						"numberOfBytes": "32",
						"value": "t_struct(Votante)868_storage"
					},
					"t_mapping(t_bytes32,t_struct(RoleData)19_storage)": {
						"encoding": "mapping",
						"key": "t_bytes32",
						"label": "mapping(bytes32 => struct AccessControl.RoleData)",
						"numberOfBytes": "32",
						"value": "t_struct(RoleData)19_storage"
					},
					"t_string_storage": {
						"encoding": "bytes",
						"label": "string",
						"numberOfBytes": "32"
					},
					"t_struct(Candidato)882_storage": {
						"encoding": "inplace",
						"label": "struct projectVotes.Candidato",
						"members": [
							{
								"astId": 875,
								"contract": "votes.sol:projectVotes",
								"label": "id",
								"offset": 0,
								"slot": "0",
								"type": "t_uint256"
							},
							{
								"astId": 877,
								"contract": "votes.sol:projectVotes",
								"label": "addressCandidato",
								"offset": 0,
								"slot": "1",
								"type": "t_address"
							},
							{
								"astId": 879,
								"contract": "votes.sol:projectVotes",
								"label": "nombre",
								"offset": 0,
								"slot": "2",
								"type": "t_string_storage"
							},
							{
								"astId": 881,
								"contract": "votes.sol:projectVotes",
								"label": "contadorVotos",
								"offset": 0,
								"slot": "3",
								"type": "t_uint256"
							}
						],
						"numberOfBytes": "128"
					},
					"t_struct(RoleData)19_storage": {
						"encoding": "inplace",
						"label": "struct AccessControl.RoleData",
						"members": [
							{
								"astId": 16,
								"contract": "votes.sol:projectVotes",
								"label": "members",
								"offset": 0,
								"slot": "0",
								"type": "t_mapping(t_address,t_bool)"
							},
							{
								"astId": 18,
								"contract": "votes.sol:projectVotes",
								"label": "adminRole",
								"offset": 0,
								"slot": "1",
								"type": "t_bytes32"
							}
						],
						"numberOfBytes": "64"
					},
					"t_struct(Votante)868_storage": {
						"encoding": "inplace",
						"label": "struct projectVotes.Votante",
						"members": [
							{
								"astId": 861,
								"contract": "votes.sol:projectVotes",
								"label": "voto",
								"offset": 0,
								"slot": "0",
								"type": "t_bool"
							},
							{
								"astId": 863,
								"contract": "votes.sol:projectVotes",
								"label": "puedeVotar",
								"offset": 1,
								"slot": "0",
								"type": "t_bool"
							},
							{
								"astId": 865,
								"contract": "votes.sol:projectVotes",
								"label": "votos",
								"offset": 0,
								"slot": "1",
								"type": "t_uint256"
							},
							{
								"astId": 867,
								"contract": "votes.sol:projectVotes",
								"label": "tiempoVoto",
								"offset": 0,
								"slot": "2",
								"type": "t_uint256"
							}
						],
						"numberOfBytes": "96"
					},
					"t_uint256": {
						"encoding": "inplace",
						"label": "uint256",
						"numberOfBytes": "32"
					}
				}
			},
			"userdoc": {
				"kind": "user",
				"methods": {},
				"version": 1
			}
		}
	}
}