{
	"votes.sol": {
		"projectVotes": {
			"abi": [
				{
					"inputs": [],
					"name": "addressGanador",
					"outputs": [
						{
							"internalType": "address",
							"name": "addressGanador_",
							"type": "address"
						}
					],
					"stateMutability": "view",
					"type": "function"
				},
				{
					"inputs": [],
					"name": "candidato1",
					"outputs": [
						{
							"internalType": "uint256",
							"name": "id",
							"type": "uint256"
						},
						{
							"internalType": "address",
							"name": "addressCandidato",
							"type": "address"
						},
						{
							"internalType": "string",
							"name": "nombre",
							"type": "string"
						},
						{
							"internalType": "uint256",
							"name": "contadorVotos",
							"type": "uint256"
						}
					],
					"stateMutability": "view",
					"type": "function"
				},
				{
					"inputs": [],
					"name": "candidato2",
					"outputs": [
						{
							"internalType": "uint256",
							"name": "id",
							"type": "uint256"
						},
						{
							"internalType": "address",
							"name": "addressCandidato",
							"type": "address"
						},
						{
							"internalType": "string",
							"name": "nombre",
							"type": "string"
						},
						{
							"internalType": "uint256",
							"name": "contadorVotos",
							"type": "uint256"
						}
					],
					"stateMutability": "view",
					"type": "function"
				},
				{
					"inputs": [],
					"name": "candidato3",
					"outputs": [
						{
							"internalType": "uint256",
							"name": "id",
							"type": "uint256"
						},
						{
							"internalType": "address",
							"name": "addressCandidato",
							"type": "address"
						},
						{
							"internalType": "string",
							"name": "nombre",
							"type": "string"
						},
						{
							"internalType": "uint256",
							"name": "contadorVotos",
							"type": "uint256"
						}
					],
					"stateMutability": "view",
					"type": "function"
				},
				{
					"inputs": [],
					"name": "candidatoGanador",
					"outputs": [
						{
							"internalType": "uint256",
							"name": "candidatoGanador_",
							"type": "uint256"
						}
					],
					"stateMutability": "view",
					"type": "function"
				},
				{
					"inputs": [],
					"name": "duenoContrato",
					"outputs": [
						{
							"internalType": "address",
							"name": "",
							"type": "address"
						}
					],
					"stateMutability": "view",
					"type": "function"
				},
				{
					"inputs": [],
					"name": "nombreGanador",
					"outputs": [
						{
							"internalType": "string",
							"name": "nombreGanador_",
							"type": "string"
						}
					],
					"stateMutability": "view",
					"type": "function"
				},
				{
					"inputs": [
						{
							"internalType": "address",
							"name": "_votante",
							"type": "address"
						}
					],
					"name": "permisoVotar",
					"outputs": [
						{
							"internalType": "bool",
							"name": "",
							"type": "bool"
						}
					],
					"stateMutability": "nonpayable",
					"type": "function"
				},
				{
					"inputs": [
						{
							"internalType": "uint256",
							"name": "_candidato",
							"type": "uint256"
						}
					],
					"name": "votar",
					"outputs": [],
					"stateMutability": "nonpayable",
					"type": "function"
				}
			],
			"devdoc": {
				"kind": "dev",
				"methods": {},
				"version": 1
			},
			"evm": {
				"assembly": "    /* \"votes.sol\":135:136  0 */\n  0x00\n    /* \"votes.sol\":117:136  uint totalVotos = 0 */\n  dup1\n  dup1\n  sstore\n    /* \"votes.sol\":680:681  1 */\n  0x01\n    /* \"votes.sol\":58:5741  contract projectVotes {... */\n  0x80\n    /* \"votes.sol\":656:816  Candidato({... */\n  dup2\n  dup2\n  mstore\n    /* \"votes.sol\":767:809  0x1234567890123456789100000000000000000000 */\n  0x1234567890123456789100000000000000000000\n    /* \"votes.sol\":656:816  Candidato({... */\n  0xa0\n  dup2\n  swap1\n  mstore\n  0x0140\n    /* \"votes.sol\":58:5741  contract projectVotes {... */\n  0x40\n    /* \"votes.sol\":656:816  Candidato({... */\n  mstore\n  0x0c\n  0x0100\n  swap1\n  dup2\n  mstore\n  mstore(0x0120, 0x54726176656c616e6469616e0000000000000000000000000000000000000000)\n  0xc0\n  dup2\n  swap1\n  mstore\n  0xe0\n  swap5\n  swap1\n  swap5\n  mstore\n    /* \"votes.sol\":626:816  Candidato public candidato1 = Candidato({... */\n  0x02\n  swap3\n  dup4\n  sstore\n  0x03\n  dup1\n  sload\n  not(sub(exp(0x02, 0xa0), 0x01))\n  and\n  swap1\n  swap2\n  or\n  swap1\n  sstore\n    /* \"votes.sol\":58:5741  contract projectVotes {... */\n  swap2\n    /* \"votes.sol\":626:816  Candidato public candidato1 = Candidato({... */\n  0x04\n  swap1\n  tag_1\n  swap1\n  dup3\n  tag_2\n  jump\t// in\ntag_1:\n  pop\n  0x60\n  swap2\n  dup3\n  add\n  mload\n  0x03\n  swap2\n  swap1\n  swap2\n  add\n  sstore\n    /* \"votes.sol\":854:1012  Candidato({... */\n  0x40\n  dup1\n  mload\n  0x80\n  dup2\n  add\n  dup3\n  mstore\n    /* \"votes.sol\":878:879  2 */\n  0x02\n    /* \"votes.sol\":854:1012  Candidato({... */\n  dup2\n  mstore\n    /* \"votes.sol\":963:1005  0x1234567890123456789200000000000000000000 */\n  0x1234567890123456789200000000000000000000\n  0x20\n    /* \"votes.sol\":854:1012  Candidato({... */\n  dup1\n  dup4\n  add\n  swap2\n  dup3\n  mstore\n  dup4\n  mload\n  dup1\n  dup6\n  add\n  dup6\n  mstore\n  0x0a\n  dup2\n  mstore\n  0x4564756c616e6469616e00000000000000000000000000000000000000000000\n  swap2\n  dup2\n  add\n  swap2\n  swap1\n  swap2\n  mstore\n  swap3\n  dup3\n  add\n  dup4\n  swap1\n  mstore\n  0x00\n  swap4\n  dup3\n  add\n  swap4\n  swap1\n  swap4\n  mstore\n    /* \"votes.sol\":824:1012  Candidato public candidato2 = Candidato({... */\n  dup1\n  mload\n  0x06\n  swap1\n  dup2\n  sstore\n  swap3\n  mload\n  0x07\n  dup1\n  sload\n  not(sub(exp(0x02, 0xa0), 0x01))\n  and\n  sub(exp(0x02, 0xa0), 0x01)\n  swap1\n  swap3\n  and\n  swap2\n  swap1\n  swap2\n  or\n  swap1\n  sstore\n    /* \"votes.sol\":854:1012  Candidato({... */\n  swap2\n    /* \"votes.sol\":824:1012  Candidato public candidato2 = Candidato({... */\n  swap1\n  0x08\n  swap1\n  tag_3\n  swap1\n  dup3\n  tag_2\n  jump\t// in\ntag_3:\n  pop\n  0x60\n  swap2\n  dup3\n  add\n  mload\n  0x03\n  swap2\n  dup3\n  add\n  sstore\n    /* \"votes.sol\":1050:1208  Candidato({... */\n  0x40\n  dup1\n  mload\n  0x80\n  dup2\n  add\n  dup3\n  mstore\n  swap2\n  dup3\n  mstore\n    /* \"votes.sol\":1159:1201  0x1234567890123456789300000000000000000000 */\n  0x1234567890123456789300000000000000000000\n  0x20\n    /* \"votes.sol\":1050:1208  Candidato({... */\n  dup1\n  dup5\n  add\n  swap2\n  dup3\n  mstore\n  dup3\n  mload\n  dup1\n  dup5\n  add\n  dup5\n  mstore\n  0x0a\n  dup1\n  dup3\n  mstore\n  0x45636f6c616e6469616e00000000000000000000000000000000000000000000\n  swap3\n  dup3\n  add\n  swap3\n  swap1\n  swap3\n  mstore\n  swap3\n  dup5\n  add\n  dup4\n  swap1\n  mstore\n  0x00\n  swap5\n  dup5\n  add\n  swap5\n  swap1\n  swap5\n  mstore\n    /* \"votes.sol\":1020:1208  Candidato public candidato3 = Candidato({... */\n  dup3\n  mload\n  dup5\n  sstore\n  mload\n  0x0b\n  dup1\n  sload\n  not(sub(exp(0x02, 0xa0), 0x01))\n  and\n  sub(exp(0x02, 0xa0), 0x01)\n  swap1\n  swap3\n  and\n  swap2\n  swap1\n  swap2\n  or\n  swap1\n  sstore\n    /* \"votes.sol\":1050:1208  Candidato({... */\n  swap1\n  swap2\n  swap1\n    /* \"votes.sol\":1020:1208  Candidato public candidato3 = Candidato({... */\n  0x0c\n  swap1\n  tag_4\n  swap1\n  dup3\n  tag_2\n  jump\t// in\ntag_4:\n  pop\n  0x60\n  dup3\n  add\n  mload\n  dup2\n  0x03\n  add\n  sstore\n  pop\n  pop\n    /* \"votes.sol\":58:5741  contract projectVotes {... */\n  callvalue\n  dup1\n  iszero\n  tag_5\n  jumpi\n  0x00\n  dup1\n  revert\ntag_5:\n  pop\n  jump(tag_12)\n    /* \"#utility.yul\":14:198   */\ntag_7:\n    /* \"#utility.yul\":66:143   */\n  0x4e487b7100000000000000000000000000000000000000000000000000000000\n    /* \"#utility.yul\":63:64   */\n  0x00\n    /* \"#utility.yul\":56:144   */\n  mstore\n    /* \"#utility.yul\":163:167   */\n  0x41\n    /* \"#utility.yul\":160:161   */\n  0x04\n    /* \"#utility.yul\":153:168   */\n  mstore\n    /* \"#utility.yul\":187:191   */\n  0x24\n    /* \"#utility.yul\":184:185   */\n  0x00\n    /* \"#utility.yul\":177:192   */\n  revert\n    /* \"#utility.yul\":203:640   */\ntag_8:\n    /* \"#utility.yul\":288:289   */\n  0x02\n    /* \"#utility.yul\":278:290   */\n  dup2\n  div\n    /* \"#utility.yul\":335:336   */\n  0x01\n    /* \"#utility.yul\":325:337   */\n  dup3\n  and\n  dup1\n    /* \"#utility.yul\":346:407   */\n  tag_15\n  jumpi\n    /* \"#utility.yul\":400:404   */\n  0x7f\n    /* \"#utility.yul\":392:398   */\n  dup3\n    /* \"#utility.yul\":388:405   */\n  and\n    /* \"#utility.yul\":378:405   */\n  swap2\n  pop\n    /* \"#utility.yul\":346:407   */\ntag_15:\n    /* \"#utility.yul\":453:455   */\n  0x20\n    /* \"#utility.yul\":445:451   */\n  dup3\n    /* \"#utility.yul\":442:456   */\n  lt\n    /* \"#utility.yul\":422:440   */\n  dup2\n    /* \"#utility.yul\":419:457   */\n  sub\n    /* \"#utility.yul\":416:634   */\n  tag_16\n  jumpi\n    /* \"#utility.yul\":490:567   */\n  0x4e487b7100000000000000000000000000000000000000000000000000000000\n    /* \"#utility.yul\":487:488   */\n  0x00\n    /* \"#utility.yul\":480:568   */\n  mstore\n    /* \"#utility.yul\":591:595   */\n  0x22\n    /* \"#utility.yul\":588:589   */\n  0x04\n    /* \"#utility.yul\":581:596   */\n  mstore\n    /* \"#utility.yul\":619:623   */\n  0x24\n    /* \"#utility.yul\":616:617   */\n  0x00\n    /* \"#utility.yul\":609:624   */\n  revert\n    /* \"#utility.yul\":416:634   */\ntag_16:\n  pop\n    /* \"#utility.yul\":203:640   */\n  swap2\n  swap1\n  pop\n  jump\t// out\n    /* \"#utility.yul\":771:1322   */\ntag_10:\n    /* \"#utility.yul\":873:875   */\n  0x1f\n    /* \"#utility.yul\":868:871   */\n  dup3\n    /* \"#utility.yul\":865:876   */\n  gt\n    /* \"#utility.yul\":862:1316   */\n  iszero\n  tag_19\n  jumpi\n    /* \"#utility.yul\":909:910   */\n  0x00\n    /* \"#utility.yul\":934:939   */\n  dup2\n    /* \"#utility.yul\":930:932   */\n  dup2\n    /* \"#utility.yul\":923:940   */\n  mstore\n    /* \"#utility.yul\":979:983   */\n  0x20\n    /* \"#utility.yul\":975:977   */\n  dup2\n    /* \"#utility.yul\":965:984   */\n  keccak256\n    /* \"#utility.yul\":1051:1055   */\n  0x20\n    /* \"#utility.yul\":1046:1048   */\n  0x1f\n    /* \"#utility.yul\":1034:1044   */\n  dup7\n    /* \"#utility.yul\":1030:1049   */\n  add\n    /* \"#utility.yul\":1026:1056   */\n  div\n    /* \"#utility.yul\":1020:1024   */\n  dup2\n    /* \"#utility.yul\":1016:1057   */\n  add\n    /* \"#utility.yul\":1088:1092   */\n  0x20\n    /* \"#utility.yul\":1076:1086   */\n  dup7\n    /* \"#utility.yul\":1073:1093   */\n  lt\n    /* \"#utility.yul\":1070:1117   */\n  iszero\n  tag_20\n  jumpi\n  pop\n    /* \"#utility.yul\":1111:1115   */\n  dup1\n    /* \"#utility.yul\":1070:1117   */\ntag_20:\n    /* \"#utility.yul\":1168:1172   */\n  0x20\n    /* \"#utility.yul\":1163:1165   */\n  0x1f\n    /* \"#utility.yul\":1158:1161   */\n  dup7\n    /* \"#utility.yul\":1154:1166   */\n  add\n    /* \"#utility.yul\":1150:1173   */\n  div\n    /* \"#utility.yul\":1144:1148   */\n  dup3\n    /* \"#utility.yul\":1140:1174   */\n  add\n    /* \"#utility.yul\":1130:1174   */\n  swap2\n  pop\n    /* \"#utility.yul\":1224:1306   */\ntag_21:\n    /* \"#utility.yul\":1242:1244   */\n  dup2\n    /* \"#utility.yul\":1235:1240   */\n  dup2\n    /* \"#utility.yul\":1232:1245   */\n  lt\n    /* \"#utility.yul\":1224:1306   */\n  iszero\n  tag_23\n  jumpi\n    /* \"#utility.yul\":1287:1304   */\n  dup3\n  dup2\n  sstore\n    /* \"#utility.yul\":1268:1269   */\n  0x01\n    /* \"#utility.yul\":1257:1270   */\n  add\n    /* \"#utility.yul\":1224:1306   */\n  jump(tag_21)\ntag_23:\n    /* \"#utility.yul\":1228:1231   */\n  pop\n  pop\n  pop\n    /* \"#utility.yul\":862:1316   */\ntag_19:\n    /* \"#utility.yul\":771:1322   */\n  pop\n  pop\n  pop\n  jump\t// out\n    /* \"#utility.yul\":1506:2865   */\ntag_2:\n    /* \"#utility.yul\":1632:1635   */\n  dup2\n    /* \"#utility.yul\":1626:1636   */\n  mload\n    /* \"#utility.yul\":1659:1677   */\n  0xffffffffffffffff\n    /* \"#utility.yul\":1651:1657   */\n  dup2\n    /* \"#utility.yul\":1648:1678   */\n  gt\n    /* \"#utility.yul\":1645:1701   */\n  iszero\n  tag_27\n  jumpi\n    /* \"#utility.yul\":1681:1699   */\n  tag_27\n  tag_7\n  jump\t// in\ntag_27:\n    /* \"#utility.yul\":1710:1807   */\n  tag_28\n    /* \"#utility.yul\":1800:1806   */\n  dup2\n    /* \"#utility.yul\":1760:1798   */\n  tag_29\n    /* \"#utility.yul\":1792:1796   */\n  dup5\n    /* \"#utility.yul\":1786:1797   */\n  sload\n    /* \"#utility.yul\":1760:1798   */\n  tag_8\n  jump\t// in\ntag_29:\n    /* \"#utility.yul\":1754:1758   */\n  dup5\n    /* \"#utility.yul\":1710:1807   */\n  tag_10\n  jump\t// in\ntag_28:\n    /* \"#utility.yul\":1862:1866   */\n  0x20\n  dup1\n    /* \"#utility.yul\":1926:1928   */\n  0x1f\n    /* \"#utility.yul\":1915:1929   */\n  dup4\n  gt\n    /* \"#utility.yul\":1943:1944   */\n  0x01\n    /* \"#utility.yul\":1938:2608   */\n  dup2\n  eq\n  tag_31\n  jumpi\n    /* \"#utility.yul\":2652:2653   */\n  0x00\n    /* \"#utility.yul\":2669:2675   */\n  dup5\n    /* \"#utility.yul\":2666:2755   */\n  iszero\n  tag_32\n  jumpi\n  pop\n    /* \"#utility.yul\":2721:2740   */\n  dup6\n  dup4\n  add\n    /* \"#utility.yul\":2715:2741   */\n  mload\n    /* \"#utility.yul\":2666:2755   */\ntag_32:\n    /* \"#utility.yul\":1487:1488   */\n  0x02\n    /* \"#utility.yul\":1483:1494   */\n  dup1\n  dup7\n  mul\n    /* \"#utility.yul\":1470:1471   */\n  0x08\n    /* \"#utility.yul\":1466:1477   */\n  dup8\n  mul\n    /* \"#utility.yul\":1459:1478   */\n  swap1\n  swap2\n  exp\n  not(0x00)\n    /* \"#utility.yul\":1447:1479   */\n  div\n    /* \"#utility.yul\":1443:1480   */\n  not\n    /* \"#utility.yul\":1433:1481   */\n  dup3\n  and\n    /* \"#utility.yul\":1430:1495   */\n  or\n    /* \"#utility.yul\":2775:2779   */\n  dup7\n    /* \"#utility.yul\":2768:2849   */\n  sstore\n  pop\n    /* \"#utility.yul\":1908:2859   */\n  jump(tag_23)\n    /* \"#utility.yul\":1938:2608   */\ntag_31:\n    /* \"#utility.yul\":718:719   */\n  0x00\n    /* \"#utility.yul\":711:725   */\n  dup6\n  dup2\n  mstore\n    /* \"#utility.yul\":755:759   */\n  0x20\n    /* \"#utility.yul\":742:760   */\n  dup2\n  keccak256\n  not(0x1f)\n    /* \"#utility.yul\":1974:1994   */\n  dup7\n  and\n  swap2\n    /* \"#utility.yul\":2092:2328   */\ntag_35:\n    /* \"#utility.yul\":2106:2113   */\n  dup3\n    /* \"#utility.yul\":2103:2104   */\n  dup2\n    /* \"#utility.yul\":2100:2114   */\n  lt\n    /* \"#utility.yul\":2092:2328   */\n  iszero\n  tag_37\n  jumpi\n    /* \"#utility.yul\":2195:2214   */\n  dup9\n  dup7\n  add\n    /* \"#utility.yul\":2189:2215   */\n  mload\n    /* \"#utility.yul\":2174:2216   */\n  dup3\n  sstore\n    /* \"#utility.yul\":2287:2314   */\n  swap5\n  dup5\n  add\n  swap5\n    /* \"#utility.yul\":2255:2256   */\n  0x01\n    /* \"#utility.yul\":2243:2257   */\n  swap1\n  swap2\n  add\n  swap1\n    /* \"#utility.yul\":2122:2141   */\n  dup5\n  add\n    /* \"#utility.yul\":2092:2328   */\n  jump(tag_35)\ntag_37:\n    /* \"#utility.yul\":2096:2099   */\n  pop\n    /* \"#utility.yul\":2356:2362   */\n  dup6\n    /* \"#utility.yul\":2347:2354   */\n  dup3\n    /* \"#utility.yul\":2344:2363   */\n  lt\n    /* \"#utility.yul\":2341:2549   */\n  iszero\n  tag_38\n  jumpi\n    /* \"#utility.yul\":2417:2436   */\n  dup8\n  dup6\n  add\n    /* \"#utility.yul\":2411:2437   */\n  mload\n    /* \"#utility.yul\":2511:2512   */\n  0x08\n    /* \"#utility.yul\":2526:2528   */\n  0x1f\n    /* \"#utility.yul\":2514:2529   */\n  dup9\n  and\n    /* \"#utility.yul\":2507:2530   */\n  mul\n    /* \"#utility.yul\":2504:2505   */\n  0x02\n    /* \"#utility.yul\":2500:2531   */\n  exp\n  not(0x00)\n    /* \"#utility.yul\":2488:2532   */\n  div\n    /* \"#utility.yul\":2484:2533   */\n  not\n    /* \"#utility.yul\":2469:2534   */\n  and\n    /* \"#utility.yul\":2454:2535   */\n  dup2\n  sstore\n    /* \"#utility.yul\":2341:2549   */\ntag_38:\n  pop\n  pop\n  pop\n  pop\n  pop\n    /* \"#utility.yul\":2591:2592   */\n  0x02\n    /* \"#utility.yul\":2579:2593   */\n  mul\n    /* \"#utility.yul\":2595:2596   */\n  0x01\n    /* \"#utility.yul\":2575:2597   */\n  add\n    /* \"#utility.yul\":2562:2598   */\n  swap1\n  sstore\n  pop\n    /* \"#utility.yul\":1506:2865   */\n  jump\t// out\ntag_12:\n    /* \"votes.sol\":58:5741  contract projectVotes {... */\n  dataSize(sub_0)\n  dup1\n  dataOffset(sub_0)\n  0x00\n  codecopy\n  0x00\n  return\nstop\n\nsub_0: assembly {\n        /* \"votes.sol\":58:5741  contract projectVotes {... */\n      mstore(0x40, 0x80)\n      callvalue\n      dup1\n      iszero\n      tag_1\n      jumpi\n      0x00\n      dup1\n      revert\n    tag_1:\n      pop\n      jumpi(tag_2, lt(calldatasize, 0x04))\n      calldataload(0x00)\n      0x0100000000000000000000000000000000000000000000000000000000\n      swap1\n      div\n      dup1\n      0x61c78cce\n      gt\n      tag_12\n      jumpi\n      dup1\n      0x61c78cce\n      eq\n      tag_7\n      jumpi\n      dup1\n      0xc360a03b\n      eq\n      tag_8\n      jumpi\n      dup1\n      0xf222b579\n      eq\n      tag_9\n      jumpi\n      dup1\n      0xfa0c3ab8\n      eq\n      tag_10\n      jumpi\n      dup1\n      0xffd7e4e7\n      eq\n      tag_11\n      jumpi\n      0x00\n      dup1\n      revert\n    tag_12:\n      dup1\n      0x21606831\n      eq\n      tag_3\n      jumpi\n      dup1\n      0x33a6cd03\n      eq\n      tag_4\n      jumpi\n      dup1\n      0x3ef8bbc9\n      eq\n      tag_5\n      jumpi\n      dup1\n      0x5792febf\n      eq\n      tag_6\n      jumpi\n    tag_2:\n      0x00\n      dup1\n      revert\n        /* \"votes.sol\":2401:3002  function votar (uint _candidato) public {... */\n    tag_3:\n      tag_13\n      tag_14\n      calldatasize\n      0x04\n      tag_15\n      jump\t// in\n    tag_14:\n      tag_16\n      jump\t// in\n    tag_13:\n      stop\n        /* \"votes.sol\":1413:1441  address public duenoContrato */\n    tag_4:\n      sload(0x0e)\n      tag_17\n      swap1\n      sub(exp(0x02, 0xa0), 0x01)\n      and\n      dup2\n      jump\n    tag_17:\n      mload(0x40)\n      sub(exp(0x02, 0xa0), 0x01)\n        /* \"#utility.yul\":363:418   */\n      swap1\n      swap2\n      and\n        /* \"#utility.yul\":345:419   */\n      dup2\n      mstore\n        /* \"#utility.yul\":333:335   */\n      0x20\n        /* \"#utility.yul\":318:336   */\n      add\n        /* \"votes.sol\":1413:1441  address public duenoContrato */\n    tag_19:\n      mload(0x40)\n      dup1\n      swap2\n      sub\n      swap1\n      return\n        /* \"votes.sol\":1517:1652  function permisoVotar(address _votante) public returns(bool) {... */\n    tag_5:\n      tag_21\n      tag_22\n      calldatasize\n      0x04\n      tag_23\n      jump\t// in\n    tag_22:\n      sub(exp(0x02, 0xa0), 0x01)\n        /* \"votes.sol\":1588:1606  votantes[_votante] */\n      and\n        /* \"votes.sol\":1572:1576  bool */\n      0x00\n        /* \"votes.sol\":1588:1606  votantes[_votante] */\n      swap1\n      dup2\n      mstore\n        /* \"votes.sol\":1620:1624  true */\n      0x01\n        /* \"votes.sol\":1588:1606  votantes[_votante] */\n      0x20\n      dup2\n      swap1\n      mstore\n      0x40\n      swap1\n      swap2\n      keccak256\n        /* \"votes.sol\":1588:1624  votantes[_votante].puedeVotar = true */\n      dup1\n      sload\n      not(0xff00)\n      and\n      0x0100\n      or\n      swap1\n      sstore\n        /* \"votes.sol\":1620:1624  true */\n      swap1\n        /* \"votes.sol\":1517:1652  function permisoVotar(address _votante) public returns(bool) {... */\n      jump\n    tag_21:\n      mload(0x40)\n        /* \"#utility.yul\":909:923   */\n      swap1\n      iszero\n        /* \"#utility.yul\":902:924   */\n      iszero\n        /* \"#utility.yul\":884:925   */\n      dup2\n      mstore\n        /* \"#utility.yul\":872:874   */\n      0x20\n        /* \"#utility.yul\":857:875   */\n      add\n        /* \"votes.sol\":1517:1652  function permisoVotar(address _votante) public returns(bool) {... */\n      tag_19\n        /* \"#utility.yul\":744:931   */\n      jump\n        /* \"votes.sol\":3659:4838  function candidatoGanador() public view returns (uint candidatoGanador_)... */\n    tag_6:\n      tag_27\n      tag_28\n      jump\t// in\n    tag_27:\n      mload(0x40)\n        /* \"#utility.yul\":1082:1107   */\n      swap1\n      dup2\n      mstore\n        /* \"#utility.yul\":1070:1072   */\n      0x20\n        /* \"#utility.yul\":1055:1073   */\n      add\n        /* \"votes.sol\":3659:4838  function candidatoGanador() public view returns (uint candidatoGanador_)... */\n      tag_19\n        /* \"#utility.yul\":936:1113   */\n      jump\n        /* \"votes.sol\":824:1012  Candidato public candidato2 = Candidato({... */\n    tag_7:\n      tag_31\n      tag_32\n      jump\t// in\n    tag_31:\n      mload(0x40)\n      tag_19\n      swap5\n      swap4\n      swap3\n      swap2\n      swap1\n      tag_34\n      jump\t// in\n        /* \"votes.sol\":5322:5737  function addressGanador() external view returns (address addressGanador_){ ... */\n    tag_8:\n      tag_17\n      tag_36\n      jump\t// in\n        /* \"votes.sol\":1020:1208  Candidato public candidato3 = Candidato({... */\n    tag_9:\n      tag_31\n      tag_39\n      jump\t// in\n        /* \"votes.sol\":626:816  Candidato public candidato1 = Candidato({... */\n    tag_10:\n      tag_31\n      tag_42\n      jump\t// in\n        /* \"votes.sol\":4845:5314  function nombreGanador() external view... */\n    tag_11:\n      tag_44\n      tag_45\n      jump\t// in\n    tag_44:\n      mload(0x40)\n      tag_19\n      swap2\n      swap1\n      tag_47\n      jump\t// in\n        /* \"votes.sol\":2401:3002  function votar (uint _candidato) public {... */\n    tag_16:\n        /* \"votes.sol\":2468:2478  msg.sender */\n      caller\n        /* \"votes.sol\":2459:2479  votantes[msg.sender] */\n      0x00\n      swap1\n      dup2\n      mstore\n        /* \"votes.sol\":2459:2467  votantes */\n      0x01\n        /* \"votes.sol\":2459:2479  votantes[msg.sender] */\n      0x20\n      mstore\n      0x40\n      swap1\n      keccak256\n        /* \"votes.sol\":2459:2490  votantes[msg.sender].puedeVotar */\n      sload\n      0x0100\n      swap1\n      div\n      0xff\n      and\n        /* \"votes.sol\":2451:2510  require(votantes[msg.sender].puedeVotar, \"No puedes votar\") */\n      tag_49\n      jumpi\n      mload(0x40)\n      0x08c379a000000000000000000000000000000000000000000000000000000000\n      dup2\n      mstore\n        /* \"#utility.yul\":2462:2464   */\n      0x20\n        /* \"votes.sol\":2451:2510  require(votantes[msg.sender].puedeVotar, \"No puedes votar\") */\n      0x04\n      dup3\n      add\n        /* \"#utility.yul\":2444:2465   */\n      mstore\n        /* \"#utility.yul\":2501:2503   */\n      0x0f\n        /* \"#utility.yul\":2481:2499   */\n      0x24\n      dup3\n      add\n        /* \"#utility.yul\":2474:2504   */\n      mstore\n        /* \"#utility.yul\":2540:2557   */\n      0x4e6f2070756564657320766f7461720000000000000000000000000000000000\n        /* \"#utility.yul\":2520:2538   */\n      0x44\n      dup3\n      add\n        /* \"#utility.yul\":2513:2558   */\n      mstore\n        /* \"#utility.yul\":2575:2593   */\n      0x64\n      add\n        /* \"votes.sol\":2451:2510  require(votantes[msg.sender].puedeVotar, \"No puedes votar\") */\n      mload(0x40)\n      dup1\n      swap2\n      sub\n      swap1\n      revert\n    tag_49:\n        /* \"votes.sol\":2529:2539  msg.sender */\n      caller\n        /* \"votes.sol\":2520:2540  votantes[msg.sender] */\n      0x00\n      swap1\n      dup2\n      mstore\n        /* \"votes.sol\":2548:2552  true */\n      0x01\n        /* \"votes.sol\":2520:2540  votantes[msg.sender] */\n      0x20\n      dup2\n      swap1\n      mstore\n      0x40\n      swap1\n      swap2\n      keccak256\n        /* \"votes.sol\":2520:2552  votantes[msg.sender].voto = true */\n      dup1\n      sload\n      not(0xff)\n      and\n      dup3\n      or\n      swap1\n      sstore\n        /* \"votes.sol\":2624:2639  _candidato == 1 */\n      dup2\n      swap1\n      sub\n        /* \"votes.sol\":2620:2745  if (_candidato == 1){... */\n      tag_52\n      jumpi\n        /* \"votes.sol\":2720:2721  1 */\n      0x01\n        /* \"votes.sol\":2692:2702  candidato1 */\n      0x02\n        /* \"votes.sol\":2692:2716  candidato1.contadorVotos */\n      0x03\n      add\n      0x00\n        /* \"votes.sol\":2692:2721  candidato1.contadorVotos += 1 */\n      dup3\n      dup3\n      sload\n      tag_53\n      swap2\n      swap1\n      tag_54\n      jump\t// in\n    tag_53:\n      swap1\n      swap2\n      sstore\n      pop\n      pop\n        /* \"votes.sol\":2620:2745  if (_candidato == 1){... */\n    tag_52:\n        /* \"votes.sol\":2758:2768  _candidato */\n      dup1\n        /* \"votes.sol\":2772:2773  2 */\n      0x02\n        /* \"votes.sol\":2758:2773  _candidato == 2 */\n      sub\n        /* \"votes.sol\":2754:2876  if (_candidato == 2){ ... */\n      tag_55\n      jumpi\n        /* \"votes.sol\":2853:2854  1 */\n      0x01\n        /* \"votes.sol\":2825:2835  candidato2 */\n      0x06\n        /* \"votes.sol\":2825:2849  candidato2.contadorVotos */\n      0x03\n      add\n      0x00\n        /* \"votes.sol\":2825:2854  candidato2.contadorVotos += 1 */\n      dup3\n      dup3\n      sload\n      tag_56\n      swap2\n      swap1\n      tag_54\n      jump\t// in\n    tag_56:\n      swap1\n      swap2\n      sstore\n      pop\n      pop\n        /* \"votes.sol\":2754:2876  if (_candidato == 2){ ... */\n    tag_55:\n        /* \"votes.sol\":2889:2899  _candidato */\n      dup1\n        /* \"votes.sol\":2903:2904  3 */\n      0x03\n        /* \"votes.sol\":2889:2904  _candidato == 3 */\n      sub\n        /* \"votes.sol\":2885:2995  if (_candidato == 3){... */\n      tag_57\n      jumpi\n        /* \"votes.sol\":2983:2984  1 */\n      0x01\n        /* \"votes.sol\":2955:2965  candidato3 */\n      0x0a\n        /* \"votes.sol\":2955:2979  candidato3.contadorVotos */\n      0x03\n      add\n      0x00\n        /* \"votes.sol\":2955:2984  candidato3.contadorVotos += 1 */\n      dup3\n      dup3\n      sload\n      tag_58\n      swap2\n      swap1\n      tag_54\n      jump\t// in\n    tag_58:\n      swap1\n      swap2\n      sstore\n      pop\n      pop\n        /* \"votes.sol\":2885:2995  if (_candidato == 3){... */\n    tag_57:\n        /* \"votes.sol\":2401:3002  function votar (uint _candidato) public {... */\n      pop\n      jump\t// out\n        /* \"votes.sol\":3659:4838  function candidatoGanador() public view returns (uint candidatoGanador_)... */\n    tag_28:\n        /* \"votes.sol\":3708:3730  uint candidatoGanador_ */\n      0x00\n      dup1\n      dup1\n        /* \"votes.sol\":4102:4831  for (uint p = 0; p <= 3; p++) {... */\n    tag_61:\n        /* \"votes.sol\":4124:4125  3 */\n      0x03\n        /* \"votes.sol\":4119:4120  p */\n      dup2\n        /* \"votes.sol\":4119:4125  p <= 3 */\n      gt\n        /* \"votes.sol\":4102:4831  for (uint p = 0; p <= 3; p++) {... */\n      tag_62\n      jumpi\n        /* \"votes.sol\":4173:4197  candidato2.contadorVotos */\n      sload(0x09)\n        /* \"votes.sol\":4146:4170  candidato1.contadorVotos */\n      sload(0x05)\n        /* \"votes.sol\":4146:4197  candidato1.contadorVotos > candidato2.contadorVotos */\n      gt\n        /* \"votes.sol\":4146:4252  candidato1.contadorVotos > candidato2.contadorVotos && candidato1.contadorVotos > candidato3.contadorVotos */\n      dup1\n      iszero\n      tag_64\n      jumpi\n      pop\n        /* \"votes.sol\":4228:4252  candidato3.contadorVotos */\n      sload(0x0d)\n        /* \"votes.sol\":4201:4225  candidato1.contadorVotos */\n      sload(0x05)\n        /* \"votes.sol\":4201:4252  candidato1.contadorVotos > candidato3.contadorVotos */\n      gt\n        /* \"votes.sol\":4146:4252  candidato1.contadorVotos > candidato2.contadorVotos && candidato1.contadorVotos > candidato3.contadorVotos */\n    tag_64:\n        /* \"votes.sol\":4142:4362  if (candidato1.contadorVotos > candidato2.contadorVotos && candidato1.contadorVotos > candidato3.contadorVotos){... */\n      iszero\n      tag_65\n      jumpi\n        /* \"votes.sol\":4290:4314  candidato1.contadorVotos */\n      sload(0x05)\n        /* \"votes.sol\":4348:4349  1 */\n      0x01\n      swap4\n      pop\n        /* \"votes.sol\":4290:4314  candidato1.contadorVotos */\n      swap2\n      pop\n        /* \"votes.sol\":4142:4362  if (candidato1.contadorVotos > candidato2.contadorVotos && candidato1.contadorVotos > candidato3.contadorVotos){... */\n    tag_65:\n        /* \"votes.sol\":4402:4426  candidato1.contadorVotos */\n      sload(0x05)\n        /* \"votes.sol\":4375:4399  candidato2.contadorVotos */\n      sload(0x09)\n        /* \"votes.sol\":4375:4426  candidato2.contadorVotos > candidato1.contadorVotos */\n      gt\n        /* \"votes.sol\":4375:4481  candidato2.contadorVotos > candidato1.contadorVotos && candidato2.contadorVotos > candidato3.contadorVotos */\n      dup1\n      iszero\n      tag_66\n      jumpi\n      pop\n        /* \"votes.sol\":4457:4481  candidato3.contadorVotos */\n      sload(0x0d)\n        /* \"votes.sol\":4430:4454  candidato2.contadorVotos */\n      sload(0x09)\n        /* \"votes.sol\":4430:4481  candidato2.contadorVotos > candidato3.contadorVotos */\n      gt\n        /* \"votes.sol\":4375:4481  candidato2.contadorVotos > candidato1.contadorVotos && candidato2.contadorVotos > candidato3.contadorVotos */\n    tag_66:\n        /* \"votes.sol\":4371:4589  if (candidato2.contadorVotos > candidato1.contadorVotos && candidato2.contadorVotos > candidato3.contadorVotos){... */\n      iszero\n      tag_67\n      jumpi\n        /* \"votes.sol\":4519:4543  candidato2.contadorVotos */\n      sload(0x09)\n        /* \"votes.sol\":4577:4578  2 */\n      0x02\n      swap4\n      pop\n        /* \"votes.sol\":4519:4543  candidato2.contadorVotos */\n      swap2\n      pop\n        /* \"votes.sol\":4371:4589  if (candidato2.contadorVotos > candidato1.contadorVotos && candidato2.contadorVotos > candidato3.contadorVotos){... */\n    tag_67:\n        /* \"votes.sol\":4629:4653  candidato1.contadorVotos */\n      sload(0x05)\n        /* \"votes.sol\":4602:4626  candidato3.contadorVotos */\n      sload(0x0d)\n        /* \"votes.sol\":4602:4653  candidato3.contadorVotos > candidato1.contadorVotos */\n      gt\n        /* \"votes.sol\":4602:4708  candidato3.contadorVotos > candidato1.contadorVotos && candidato3.contadorVotos > candidato2.contadorVotos */\n      dup1\n      iszero\n      tag_68\n      jumpi\n      pop\n        /* \"votes.sol\":4684:4708  candidato2.contadorVotos */\n      sload(0x09)\n        /* \"votes.sol\":4657:4681  candidato3.contadorVotos */\n      sload(0x0d)\n        /* \"votes.sol\":4657:4708  candidato3.contadorVotos > candidato2.contadorVotos */\n      gt\n        /* \"votes.sol\":4602:4708  candidato3.contadorVotos > candidato1.contadorVotos && candidato3.contadorVotos > candidato2.contadorVotos */\n    tag_68:\n        /* \"votes.sol\":4598:4816  if (candidato3.contadorVotos > candidato1.contadorVotos && candidato3.contadorVotos > candidato2.contadorVotos){... */\n      iszero\n      tag_69\n      jumpi\n        /* \"votes.sol\":4746:4770  candidato3.contadorVotos */\n      sload(0x0d)\n      0x03\n      swap4\n      pop\n      swap2\n      pop\n        /* \"votes.sol\":4598:4816  if (candidato3.contadorVotos > candidato1.contadorVotos && candidato3.contadorVotos > candidato2.contadorVotos){... */\n    tag_69:\n        /* \"votes.sol\":4127:4130  p++ */\n      dup1\n      tag_70\n      dup2\n      tag_71\n      jump\t// in\n    tag_70:\n      swap2\n      pop\n      pop\n        /* \"votes.sol\":4102:4831  for (uint p = 0; p <= 3; p++) {... */\n      jump(tag_61)\n    tag_62:\n      pop\n        /* \"votes.sol\":3736:4838  {... */\n      pop\n        /* \"votes.sol\":3659:4838  function candidatoGanador() public view returns (uint candidatoGanador_)... */\n      swap1\n      jump\t// out\n        /* \"votes.sol\":824:1012  Candidato public candidato2 = Candidato({... */\n    tag_32:\n      0x06\n      dup1\n      sload\n      sload(0x07)\n      0x08\n      dup1\n      sload\n      swap3\n      swap4\n      sub(exp(0x02, 0xa0), 0x01)\n      swap1\n      swap3\n      and\n      swap3\n      tag_72\n      swap1\n      tag_73\n      jump\t// in\n    tag_72:\n      dup1\n      0x1f\n      add\n      0x20\n      dup1\n      swap2\n      div\n      mul\n      0x20\n      add\n      mload(0x40)\n      swap1\n      dup2\n      add\n      0x40\n      mstore\n      dup1\n      swap3\n      swap2\n      swap1\n      dup2\n      dup2\n      mstore\n      0x20\n      add\n      dup3\n      dup1\n      sload\n      tag_74\n      swap1\n      tag_73\n      jump\t// in\n    tag_74:\n      dup1\n      iszero\n      tag_75\n      jumpi\n      dup1\n      0x1f\n      lt\n      tag_76\n      jumpi\n      0x0100\n      dup1\n      dup4\n      sload\n      div\n      mul\n      dup4\n      mstore\n      swap2\n      0x20\n      add\n      swap2\n      jump(tag_75)\n    tag_76:\n      dup3\n      add\n      swap2\n      swap1\n      0x00\n      mstore\n      keccak256(0x00, 0x20)\n      swap1\n    tag_77:\n      dup2\n      sload\n      dup2\n      mstore\n      swap1\n      0x01\n      add\n      swap1\n      0x20\n      add\n      dup1\n      dup4\n      gt\n      tag_77\n      jumpi\n      dup3\n      swap1\n      sub\n      0x1f\n      and\n      dup3\n      add\n      swap2\n    tag_75:\n      pop\n      pop\n      pop\n      pop\n      pop\n      swap1\n      dup1\n      0x03\n      add\n      sload\n      swap1\n      pop\n      dup5\n      jump\t// out\n        /* \"votes.sol\":5322:5737  function addressGanador() external view returns (address addressGanador_){ ... */\n    tag_36:\n        /* \"votes.sol\":5371:5394  address addressGanador_ */\n      0x00\n        /* \"votes.sol\":5419:5437  candidatoGanador() */\n      tag_79\n        /* \"votes.sol\":5419:5435  candidatoGanador */\n      tag_28\n        /* \"votes.sol\":5419:5437  candidatoGanador() */\n      jump\t// in\n    tag_79:\n        /* \"votes.sol\":5441:5442  1 */\n      0x01\n        /* \"votes.sol\":5419:5442  candidatoGanador() == 1 */\n      sub\n        /* \"votes.sol\":5415:5514  if (candidatoGanador() == 1){... */\n      tag_80\n      jumpi\n      pop\n        /* \"votes.sol\":5475:5502  candidato1.addressCandidato */\n      and(sub(exp(0x02, 0xa0), 0x01), sload(0x03))\n        /* \"votes.sol\":5415:5514  if (candidatoGanador() == 1){... */\n    tag_80:\n        /* \"votes.sol\":5527:5545  candidatoGanador() */\n      tag_81\n        /* \"votes.sol\":5527:5543  candidatoGanador */\n      tag_28\n        /* \"votes.sol\":5527:5545  candidatoGanador() */\n      jump\t// in\n    tag_81:\n        /* \"votes.sol\":5549:5550  2 */\n      0x02\n        /* \"votes.sol\":5527:5550  candidatoGanador() == 2 */\n      sub\n        /* \"votes.sol\":5523:5622  if (candidatoGanador() == 2){... */\n      tag_82\n      jumpi\n      pop\n        /* \"votes.sol\":5583:5610  candidato2.addressCandidato */\n      and(sub(exp(0x02, 0xa0), 0x01), sload(0x07))\n        /* \"votes.sol\":5523:5622  if (candidatoGanador() == 2){... */\n    tag_82:\n        /* \"votes.sol\":5635:5653  candidatoGanador() */\n      tag_83\n        /* \"votes.sol\":5635:5651  candidatoGanador */\n      tag_28\n        /* \"votes.sol\":5635:5653  candidatoGanador() */\n      jump\t// in\n    tag_83:\n        /* \"votes.sol\":5657:5658  3 */\n      0x03\n        /* \"votes.sol\":5635:5658  candidatoGanador() == 3 */\n      sub\n        /* \"votes.sol\":5631:5730  if (candidatoGanador() == 3){... */\n      tag_84\n      jumpi\n      pop\n        /* \"votes.sol\":5691:5718  candidato3.addressCandidato */\n      and(sub(exp(0x02, 0xa0), 0x01), sload(0x0b))\n        /* \"votes.sol\":5631:5730  if (candidatoGanador() == 3){... */\n    tag_84:\n        /* \"votes.sol\":5322:5737  function addressGanador() external view returns (address addressGanador_){ ... */\n      swap1\n      jump\t// out\n        /* \"votes.sol\":1020:1208  Candidato public candidato3 = Candidato({... */\n    tag_39:\n      0x0a\n      dup1\n      sload\n      sload(0x0b)\n      0x0c\n      dup1\n      sload\n      swap3\n      swap4\n      sub(exp(0x02, 0xa0), 0x01)\n      swap1\n      swap3\n      and\n      swap3\n      tag_72\n      swap1\n      tag_73\n      jump\t// in\n        /* \"votes.sol\":626:816  Candidato public candidato1 = Candidato({... */\n    tag_42:\n      0x02\n      dup1\n      sload\n      sload(0x03)\n      0x04\n      dup1\n      sload\n      swap3\n      swap4\n      sub(exp(0x02, 0xa0), 0x01)\n      swap1\n      swap3\n      and\n      swap3\n      tag_72\n      swap1\n      tag_73\n      jump\t// in\n        /* \"votes.sol\":4845:5314  function nombreGanador() external view... */\n    tag_45:\n        /* \"votes.sol\":4905:4933  string memory nombreGanador_ */\n      0x60\n        /* \"votes.sol\":5029:5047  candidatoGanador() */\n      tag_96\n        /* \"votes.sol\":5029:5045  candidatoGanador */\n      tag_28\n        /* \"votes.sol\":5029:5047  candidatoGanador() */\n      jump\t// in\n    tag_96:\n        /* \"votes.sol\":5051:5052  1 */\n      0x01\n        /* \"votes.sol\":5029:5052  candidatoGanador() == 1 */\n      sub\n        /* \"votes.sol\":5025:5113  if (candidatoGanador() == 1){... */\n      tag_97\n      jumpi\n        /* \"votes.sol\":5084:5101  candidato1.nombre */\n      0x04\n        /* \"votes.sol\":5067:5101  nombreGanador_ = candidato1.nombre */\n      dup1\n      sload\n      tag_98\n      swap1\n      tag_73\n      jump\t// in\n    tag_98:\n      dup1\n      0x1f\n      add\n      0x20\n      dup1\n      swap2\n      div\n      mul\n      0x20\n      add\n      mload(0x40)\n      swap1\n      dup2\n      add\n      0x40\n      mstore\n      dup1\n      swap3\n      swap2\n      swap1\n      dup2\n      dup2\n      mstore\n      0x20\n      add\n      dup3\n      dup1\n      sload\n      tag_99\n      swap1\n      tag_73\n      jump\t// in\n    tag_99:\n      dup1\n      iszero\n      tag_100\n      jumpi\n      dup1\n      0x1f\n      lt\n      tag_101\n      jumpi\n      0x0100\n      dup1\n      dup4\n      sload\n      div\n      mul\n      dup4\n      mstore\n      swap2\n      0x20\n      add\n      swap2\n      jump(tag_100)\n    tag_101:\n      dup3\n      add\n      swap2\n      swap1\n      0x00\n      mstore\n      keccak256(0x00, 0x20)\n      swap1\n    tag_102:\n      dup2\n      sload\n      dup2\n      mstore\n      swap1\n      0x01\n      add\n      swap1\n      0x20\n      add\n      dup1\n      dup4\n      gt\n      tag_102\n      jumpi\n      dup3\n      swap1\n      sub\n      0x1f\n      and\n      dup3\n      add\n      swap2\n    tag_100:\n      pop\n      pop\n      pop\n      pop\n      pop\n      swap1\n      pop\n        /* \"votes.sol\":5025:5113  if (candidatoGanador() == 1){... */\n    tag_97:\n        /* \"votes.sol\":5126:5144  candidatoGanador() */\n      tag_103\n        /* \"votes.sol\":5126:5142  candidatoGanador */\n      tag_28\n        /* \"votes.sol\":5126:5144  candidatoGanador() */\n      jump\t// in\n    tag_103:\n        /* \"votes.sol\":5148:5149  2 */\n      0x02\n        /* \"votes.sol\":5126:5149  candidatoGanador() == 2 */\n      sub\n        /* \"votes.sol\":5122:5210  if (candidatoGanador() == 2){... */\n      tag_104\n      jumpi\n        /* \"votes.sol\":5181:5198  candidato2.nombre */\n      0x08\n        /* \"votes.sol\":5164:5198  nombreGanador_ = candidato2.nombre */\n      dup1\n      sload\n      tag_105\n      swap1\n      tag_73\n      jump\t// in\n    tag_105:\n      dup1\n      0x1f\n      add\n      0x20\n      dup1\n      swap2\n      div\n      mul\n      0x20\n      add\n      mload(0x40)\n      swap1\n      dup2\n      add\n      0x40\n      mstore\n      dup1\n      swap3\n      swap2\n      swap1\n      dup2\n      dup2\n      mstore\n      0x20\n      add\n      dup3\n      dup1\n      sload\n      tag_106\n      swap1\n      tag_73\n      jump\t// in\n    tag_106:\n      dup1\n      iszero\n      tag_107\n      jumpi\n      dup1\n      0x1f\n      lt\n      tag_108\n      jumpi\n      0x0100\n      dup1\n      dup4\n      sload\n      div\n      mul\n      dup4\n      mstore\n      swap2\n      0x20\n      add\n      swap2\n      jump(tag_107)\n    tag_108:\n      dup3\n      add\n      swap2\n      swap1\n      0x00\n      mstore\n      keccak256(0x00, 0x20)\n      swap1\n    tag_109:\n      dup2\n      sload\n      dup2\n      mstore\n      swap1\n      0x01\n      add\n      swap1\n      0x20\n      add\n      dup1\n      dup4\n      gt\n      tag_109\n      jumpi\n      dup3\n      swap1\n      sub\n      0x1f\n      and\n      dup3\n      add\n      swap2\n    tag_107:\n      pop\n      pop\n      pop\n      pop\n      pop\n      swap1\n      pop\n        /* \"votes.sol\":5122:5210  if (candidatoGanador() == 2){... */\n    tag_104:\n        /* \"votes.sol\":5223:5241  candidatoGanador() */\n      tag_110\n        /* \"votes.sol\":5223:5239  candidatoGanador */\n      tag_28\n        /* \"votes.sol\":5223:5241  candidatoGanador() */\n      jump\t// in\n    tag_110:\n        /* \"votes.sol\":5245:5246  3 */\n      0x03\n        /* \"votes.sol\":5223:5246  candidatoGanador() == 3 */\n      sub\n        /* \"votes.sol\":5219:5307  if (candidatoGanador() == 3){... */\n      tag_84\n      jumpi\n        /* \"votes.sol\":5278:5295  candidato3.nombre */\n      0x0c\n        /* \"votes.sol\":5261:5295  nombreGanador_ = candidato3.nombre */\n      dup1\n      sload\n      tag_112\n      swap1\n      tag_73\n      jump\t// in\n    tag_112:\n      dup1\n      0x1f\n      add\n      0x20\n      dup1\n      swap2\n      div\n      mul\n      0x20\n      add\n      mload(0x40)\n      swap1\n      dup2\n      add\n      0x40\n      mstore\n      dup1\n      swap3\n      swap2\n      swap1\n      dup2\n      dup2\n      mstore\n      0x20\n      add\n      dup3\n      dup1\n      sload\n      tag_113\n      swap1\n      tag_73\n      jump\t// in\n    tag_113:\n      dup1\n      iszero\n      tag_114\n      jumpi\n      dup1\n      0x1f\n      lt\n      tag_115\n      jumpi\n      0x0100\n      dup1\n      dup4\n      sload\n      div\n      mul\n      dup4\n      mstore\n      swap2\n      0x20\n      add\n      swap2\n      jump(tag_114)\n    tag_115:\n      dup3\n      add\n      swap2\n      swap1\n      0x00\n      mstore\n      keccak256(0x00, 0x20)\n      swap1\n    tag_116:\n      dup2\n      sload\n      dup2\n      mstore\n      swap1\n      0x01\n      add\n      swap1\n      0x20\n      add\n      dup1\n      dup4\n      gt\n      tag_116\n      jumpi\n      dup3\n      swap1\n      sub\n      0x1f\n      and\n      dup3\n      add\n      swap2\n    tag_114:\n      pop\n      pop\n      pop\n      pop\n      pop\n      swap1\n      pop\n        /* \"votes.sol\":4845:5314  function nombreGanador() external view... */\n      swap1\n      jump\t// out\n        /* \"#utility.yul\":14:194   */\n    tag_15:\n        /* \"#utility.yul\":73:79   */\n      0x00\n        /* \"#utility.yul\":126:128   */\n      0x20\n        /* \"#utility.yul\":114:123   */\n      dup3\n        /* \"#utility.yul\":105:112   */\n      dup5\n        /* \"#utility.yul\":101:124   */\n      sub\n        /* \"#utility.yul\":97:129   */\n      slt\n        /* \"#utility.yul\":94:146   */\n      iszero\n      tag_121\n      jumpi\n        /* \"#utility.yul\":142:143   */\n      0x00\n        /* \"#utility.yul\":139:140   */\n      dup1\n        /* \"#utility.yul\":132:144   */\n      revert\n        /* \"#utility.yul\":94:146   */\n    tag_121:\n      pop\n        /* \"#utility.yul\":165:188   */\n      calldataload\n      swap2\n        /* \"#utility.yul\":14:194   */\n      swap1\n      pop\n      jump\t// out\n        /* \"#utility.yul\":430:739   */\n    tag_23:\n        /* \"#utility.yul\":489:495   */\n      0x00\n        /* \"#utility.yul\":542:544   */\n      0x20\n        /* \"#utility.yul\":530:539   */\n      dup3\n        /* \"#utility.yul\":521:528   */\n      dup5\n        /* \"#utility.yul\":517:540   */\n      sub\n        /* \"#utility.yul\":513:545   */\n      slt\n        /* \"#utility.yul\":510:562   */\n      iszero\n      tag_124\n      jumpi\n        /* \"#utility.yul\":558:559   */\n      0x00\n        /* \"#utility.yul\":555:556   */\n      dup1\n        /* \"#utility.yul\":548:560   */\n      revert\n        /* \"#utility.yul\":510:562   */\n    tag_124:\n        /* \"#utility.yul\":597:606   */\n      dup2\n        /* \"#utility.yul\":584:607   */\n      calldataload\n      sub(exp(0x02, 0xa0), 0x01)\n        /* \"#utility.yul\":640:645   */\n      dup2\n        /* \"#utility.yul\":636:690   */\n      and\n        /* \"#utility.yul\":629:634   */\n      dup2\n        /* \"#utility.yul\":626:691   */\n      eq\n        /* \"#utility.yul\":616:709   */\n      tag_125\n      jumpi\n        /* \"#utility.yul\":705:706   */\n      0x00\n        /* \"#utility.yul\":702:703   */\n      dup1\n        /* \"#utility.yul\":695:707   */\n      revert\n        /* \"#utility.yul\":616:709   */\n    tag_125:\n        /* \"#utility.yul\":728:733   */\n      swap4\n        /* \"#utility.yul\":430:739   */\n      swap3\n      pop\n      pop\n      pop\n      jump\t// out\n        /* \"#utility.yul\":1118:1541   */\n    tag_117:\n        /* \"#utility.yul\":1160:1163   */\n      0x00\n        /* \"#utility.yul\":1198:1203   */\n      dup2\n        /* \"#utility.yul\":1192:1204   */\n      mload\n        /* \"#utility.yul\":1225:1231   */\n      dup1\n        /* \"#utility.yul\":1220:1223   */\n      dup5\n        /* \"#utility.yul\":1213:1232   */\n      mstore\n        /* \"#utility.yul\":1250:1251   */\n      0x00\n        /* \"#utility.yul\":1260:1422   */\n    tag_129:\n        /* \"#utility.yul\":1274:1280   */\n      dup2\n        /* \"#utility.yul\":1271:1272   */\n      dup2\n        /* \"#utility.yul\":1268:1281   */\n      lt\n        /* \"#utility.yul\":1260:1422   */\n      iszero\n      tag_131\n      jumpi\n        /* \"#utility.yul\":1336:1340   */\n      0x20\n        /* \"#utility.yul\":1392:1405   */\n      dup2\n      dup6\n      add\n        /* \"#utility.yul\":1388:1410   */\n      dup2\n      add\n        /* \"#utility.yul\":1382:1411   */\n      mload\n        /* \"#utility.yul\":1364:1375   */\n      dup7\n      dup4\n      add\n        /* \"#utility.yul\":1360:1380   */\n      dup3\n      add\n        /* \"#utility.yul\":1353:1412   */\n      mstore\n        /* \"#utility.yul\":1289:1301   */\n      add\n        /* \"#utility.yul\":1260:1422   */\n      jump(tag_129)\n    tag_131:\n        /* \"#utility.yul\":1264:1267   */\n      pop\n        /* \"#utility.yul\":1467:1468   */\n      0x00\n        /* \"#utility.yul\":1460:1464   */\n      0x20\n        /* \"#utility.yul\":1451:1457   */\n      dup3\n        /* \"#utility.yul\":1446:1449   */\n      dup7\n        /* \"#utility.yul\":1442:1458   */\n      add\n        /* \"#utility.yul\":1438:1465   */\n      add\n        /* \"#utility.yul\":1431:1469   */\n      mstore\n        /* \"#utility.yul\":1530:1534   */\n      0x20\n        /* \"#utility.yul\":1523:1525   */\n      0x1f\n        /* \"#utility.yul\":1519:1526   */\n      not\n        /* \"#utility.yul\":1514:1516   */\n      0x1f\n        /* \"#utility.yul\":1506:1512   */\n      dup4\n        /* \"#utility.yul\":1502:1517   */\n      add\n        /* \"#utility.yul\":1498:1527   */\n      and\n        /* \"#utility.yul\":1493:1496   */\n      dup6\n        /* \"#utility.yul\":1489:1528   */\n      add\n        /* \"#utility.yul\":1485:1535   */\n      add\n        /* \"#utility.yul\":1478:1535   */\n      swap2\n      pop\n      pop\n        /* \"#utility.yul\":1118:1541   */\n      swap3\n      swap2\n      pop\n      pop\n      jump\t// out\n        /* \"#utility.yul\":1546:2030   */\n    tag_34:\n        /* \"#utility.yul\":1779:1785   */\n      dup5\n        /* \"#utility.yul\":1768:1777   */\n      dup2\n        /* \"#utility.yul\":1761:1786   */\n      mstore\n      sub(exp(0x02, 0xa0), 0x01)\n        /* \"#utility.yul\":1826:1832   */\n      dup5\n        /* \"#utility.yul\":1822:1877   */\n      and\n        /* \"#utility.yul\":1817:1819   */\n      0x20\n        /* \"#utility.yul\":1806:1815   */\n      dup3\n        /* \"#utility.yul\":1802:1820   */\n      add\n        /* \"#utility.yul\":1795:1878   */\n      mstore\n        /* \"#utility.yul\":1914:1917   */\n      0x80\n        /* \"#utility.yul\":1909:1911   */\n      0x40\n        /* \"#utility.yul\":1898:1907   */\n      dup3\n        /* \"#utility.yul\":1894:1912   */\n      add\n        /* \"#utility.yul\":1887:1918   */\n      mstore\n        /* \"#utility.yul\":1742:1746   */\n      0x00\n        /* \"#utility.yul\":1935:1981   */\n      tag_133\n        /* \"#utility.yul\":1976:1979   */\n      0x80\n        /* \"#utility.yul\":1965:1974   */\n      dup4\n        /* \"#utility.yul\":1961:1980   */\n      add\n        /* \"#utility.yul\":1953:1959   */\n      dup6\n        /* \"#utility.yul\":1935:1981   */\n      tag_117\n      jump\t// in\n    tag_133:\n        /* \"#utility.yul\":1927:1981   */\n      swap1\n      pop\n        /* \"#utility.yul\":2017:2023   */\n      dup3\n        /* \"#utility.yul\":2012:2014   */\n      0x60\n        /* \"#utility.yul\":2001:2010   */\n      dup4\n        /* \"#utility.yul\":1997:2015   */\n      add\n        /* \"#utility.yul\":1990:2024   */\n      mstore\n        /* \"#utility.yul\":1546:2030   */\n      swap6\n      swap5\n      pop\n      pop\n      pop\n      pop\n      pop\n      jump\t// out\n        /* \"#utility.yul\":2035:2255   */\n    tag_47:\n        /* \"#utility.yul\":2184:2186   */\n      0x20\n        /* \"#utility.yul\":2173:2182   */\n      dup2\n        /* \"#utility.yul\":2166:2187   */\n      mstore\n        /* \"#utility.yul\":2147:2151   */\n      0x00\n        /* \"#utility.yul\":2204:2249   */\n      tag_125\n        /* \"#utility.yul\":2245:2247   */\n      0x20\n        /* \"#utility.yul\":2234:2243   */\n      dup4\n        /* \"#utility.yul\":2230:2248   */\n      add\n        /* \"#utility.yul\":2222:2228   */\n      dup5\n        /* \"#utility.yul\":2204:2249   */\n      tag_117\n      jump\t// in\n        /* \"#utility.yul\":2604:2788   */\n    tag_118:\n        /* \"#utility.yul\":2656:2733   */\n      0x4e487b7100000000000000000000000000000000000000000000000000000000\n        /* \"#utility.yul\":2653:2654   */\n      0x00\n        /* \"#utility.yul\":2646:2734   */\n      mstore\n        /* \"#utility.yul\":2753:2757   */\n      0x11\n        /* \"#utility.yul\":2750:2751   */\n      0x04\n        /* \"#utility.yul\":2743:2758   */\n      mstore\n        /* \"#utility.yul\":2777:2781   */\n      0x24\n        /* \"#utility.yul\":2774:2775   */\n      0x00\n        /* \"#utility.yul\":2767:2782   */\n      revert\n        /* \"#utility.yul\":2793:2918   */\n    tag_54:\n        /* \"#utility.yul\":2858:2867   */\n      dup1\n      dup3\n      add\n        /* \"#utility.yul\":2879:2889   */\n      dup1\n      dup3\n      gt\n        /* \"#utility.yul\":2876:2912   */\n      iszero\n      tag_140\n      jumpi\n        /* \"#utility.yul\":2892:2910   */\n      tag_140\n      tag_118\n      jump\t// in\n    tag_140:\n        /* \"#utility.yul\":2793:2918   */\n      swap3\n      swap2\n      pop\n      pop\n      jump\t// out\n        /* \"#utility.yul\":2923:3058   */\n    tag_71:\n        /* \"#utility.yul\":2962:2965   */\n      0x00\n        /* \"#utility.yul\":2983:3000   */\n      0x01\n      dup3\n      add\n        /* \"#utility.yul\":2980:3023   */\n      tag_143\n      jumpi\n        /* \"#utility.yul\":3003:3021   */\n      tag_143\n      tag_118\n      jump\t// in\n    tag_143:\n      pop\n        /* \"#utility.yul\":3050:3051   */\n      0x01\n        /* \"#utility.yul\":3039:3052   */\n      add\n      swap1\n        /* \"#utility.yul\":2923:3058   */\n      jump\t// out\n        /* \"#utility.yul\":3063:3500   */\n    tag_73:\n        /* \"#utility.yul\":3148:3149   */\n      0x02\n        /* \"#utility.yul\":3138:3150   */\n      dup2\n      div\n        /* \"#utility.yul\":3195:3196   */\n      0x01\n        /* \"#utility.yul\":3185:3197   */\n      dup3\n      and\n      dup1\n        /* \"#utility.yul\":3206:3267   */\n      tag_145\n      jumpi\n        /* \"#utility.yul\":3260:3264   */\n      0x7f\n        /* \"#utility.yul\":3252:3258   */\n      dup3\n        /* \"#utility.yul\":3248:3265   */\n      and\n        /* \"#utility.yul\":3238:3265   */\n      swap2\n      pop\n        /* \"#utility.yul\":3206:3267   */\n    tag_145:\n        /* \"#utility.yul\":3313:3315   */\n      0x20\n        /* \"#utility.yul\":3305:3311   */\n      dup3\n        /* \"#utility.yul\":3302:3316   */\n      lt\n        /* \"#utility.yul\":3282:3300   */\n      dup2\n        /* \"#utility.yul\":3279:3317   */\n      sub\n        /* \"#utility.yul\":3276:3494   */\n      tag_146\n      jumpi\n        /* \"#utility.yul\":3350:3427   */\n      0x4e487b7100000000000000000000000000000000000000000000000000000000\n        /* \"#utility.yul\":3347:3348   */\n      0x00\n        /* \"#utility.yul\":3340:3428   */\n      mstore\n        /* \"#utility.yul\":3451:3455   */\n      0x22\n        /* \"#utility.yul\":3448:3449   */\n      0x04\n        /* \"#utility.yul\":3441:3456   */\n      mstore\n        /* \"#utility.yul\":3479:3483   */\n      0x24\n        /* \"#utility.yul\":3476:3477   */\n      0x00\n        /* \"#utility.yul\":3469:3484   */\n      revert\n        /* \"#utility.yul\":3276:3494   */\n    tag_146:\n      pop\n        /* \"#utility.yul\":3063:3500   */\n      swap2\n      swap1\n      pop\n      jump\t// out\n\n    auxdata: 0xa264697066735822122027cb2f4d8e944b24d6d2c439ef2c4b54ba97233aca42adb8b1dcde283e6d27d064736f6c63430008100033\n}\n",
				"bytecode": {
					"linkReferences": {},
					"object": "60008080556001608081815273123456789012345678910000000000000000000060a0819052610140604052600c6101009081527f54726176656c616e6469616e00000000000000000000000000000000000000006101205260c081905260e094909452600292835560038054600160a060020a03191690911790559160049061008990826102d9565b50606091820151600391909101556040805160808101825260028152731234567890123456789200000000000000000000602080830191825283518085018552600a81527f4564756c616e6469616e000000000000000000000000000000000000000000009181019190915292820183905260009382019390935280516006908155925160078054600160a060020a031916600160a060020a03909216919091179055919060089061013b90826102d9565b5060609182015160039182015560408051608081018252918252731234567890123456789300000000000000000000602080840191825282518084018452600a8082527f45636f6c616e6469616e00000000000000000000000000000000000000000000928201929092529284018390526000948401949094528251845551600b8054600160a060020a031916600160a060020a03909216919091179055909190600c906101e990826102d9565b5060608201518160030155505034801561020257600080fd5b5061039f565b7f4e487b7100000000000000000000000000000000000000000000000000000000600052604160045260246000fd5b60028104600182168061024b57607f821691505b602082108103610284577f4e487b7100000000000000000000000000000000000000000000000000000000600052602260045260246000fd5b50919050565b601f8211156102d4576000818152602081206020601f860104810160208610156102b15750805b6020601f860104820191505b818110156102d0578281556001016102bd565b5050505b505050565b815167ffffffffffffffff8111156102f3576102f3610208565b610307816103018454610237565b8461028a565b602080601f83116001811461034057600084156103245750858301515b60028086026008870290910a60001904198216178655506102d0565b600085815260208120601f198616915b8281101561036f57888601518255948401946001909101908401610350565b508582101561038f57878501516008601f88160260020a60001904191681555b5050505050600202600101905550565b610827806103ae6000396000f3fe608060405234801561001057600080fd5b50600436106100b0576000357c01000000000000000000000000000000000000000000000000000000009004806361c78cce1161008357806361c78cce14610158578063c360a03b14610170578063f222b57914610178578063fa0c3ab814610180578063ffd7e4e71461018857600080fd5b806321606831146100b557806333a6cd03146100ca5780633ef8bbc9146100fa5780635792febf14610142575b600080fd5b6100c86100c3366004610662565b61019d565b005b600e546100dd90600160a060020a031681565b604051600160a060020a0390911681526020015b60405180910390f35b61013261010836600461067b565b600160a060020a03166000908152600160208190526040909120805461ff00191661010017905590565b60405190151581526020016100f1565b61014a6102a9565b6040519081526020016100f1565b61016061033c565b6040516100f194939291906106f1565b6100dd6103e7565b610160610443565b610160610465565b610190610487565b6040516100f1919061072a565b33600090815260016020526040902054610100900460ff1661021f576040517f08c379a000000000000000000000000000000000000000000000000000000000815260206004820152600f60248201527f4e6f2070756564657320766f7461720000000000000000000000000000000000604482015260640160405180910390fd5b336000908152600160208190526040909120805460ff19168217905581900361025e57600160026003016000828254610258919061076c565b90915550505b806002036102825760016006600301600082825461027c919061076c565b90915550505b806003036102a6576001600a60030160008282546102a0919061076c565b90915550505b50565b600080805b60038111610337576009546005541180156102cc5750600d54600554115b156102db576005546001935091505b6005546009541180156102f15750600d54600954115b15610300576009546002935091505b600554600d541180156103165750600954600d54115b1561032557600d546003935091505b8061032f81610785565b9150506102ae565b505090565b60068054600754600880549293600160a060020a039092169261035e9061079e565b80601f016020809104026020016040519081016040528092919081815260200182805461038a9061079e565b80156103d75780601f106103ac576101008083540402835291602001916103d7565b820191906000526020600020905b8154815290600101906020018083116103ba57829003601f168201915b5050505050908060030154905084565b60006103f16102a9565b6001036104065750600354600160a060020a03165b61040e6102a9565b6002036104235750600754600160a060020a03165b61042b6102a9565b6003036104405750600b54600160a060020a03165b90565b600a8054600b54600c80549293600160a060020a039092169261035e9061079e565b60028054600354600480549293600160a060020a039092169261035e9061079e565b60606104916102a9565b60010361052657600480546104a59061079e565b80601f01602080910402602001604051908101604052809291908181526020018280546104d19061079e565b801561051e5780601f106104f35761010080835404028352916020019161051e565b820191906000526020600020905b81548152906001019060200180831161050157829003601f168201915b505050505090505b61052e6102a9565b6002036105c357600880546105429061079e565b80601f016020809104026020016040519081016040528092919081815260200182805461056e9061079e565b80156105bb5780601f10610590576101008083540402835291602001916105bb565b820191906000526020600020905b81548152906001019060200180831161059e57829003601f168201915b505050505090505b6105cb6102a9565b60030361044057600c80546105df9061079e565b80601f016020809104026020016040519081016040528092919081815260200182805461060b9061079e565b80156106585780601f1061062d57610100808354040283529160200191610658565b820191906000526020600020905b81548152906001019060200180831161063b57829003601f168201915b5050505050905090565b60006020828403121561067457600080fd5b5035919050565b60006020828403121561068d57600080fd5b8135600160a060020a03811681146106a457600080fd5b9392505050565b6000815180845260005b818110156106d1576020818501810151868301820152016106b5565b506000602082860101526020601f19601f83011685010191505092915050565b848152600160a060020a038416602082015260806040820152600061071960808301856106ab565b905082606083015295945050505050565b6020815260006106a460208301846106ab565b7f4e487b7100000000000000000000000000000000000000000000000000000000600052601160045260246000fd5b8082018082111561077f5761077f61073d565b92915050565b6000600182016107975761079761073d565b5060010190565b6002810460018216806107b257607f821691505b6020821081036107eb577f4e487b7100000000000000000000000000000000000000000000000000000000600052602260045260246000fd5b5091905056fea264697066735822122027cb2f4d8e944b24d6d2c439ef2c4b54ba97233aca42adb8b1dcde283e6d27d064736f6c63430008100033",
					"opcodes": "PUSH1 0x0 DUP1 DUP1 SSTORE PUSH1 0x1 PUSH1 0x80 DUP2 DUP2 MSTORE PUSH20 0x1234567890123456789100000000000000000000 PUSH1 0xA0 DUP2 SWAP1 MSTORE PUSH2 0x140 PUSH1 0x40 MSTORE PUSH1 0xC PUSH2 0x100 SWAP1 DUP2 MSTORE PUSH32 0x54726176656C616E6469616E0000000000000000000000000000000000000000 PUSH2 0x120 MSTORE PUSH1 0xC0 DUP2 SWAP1 MSTORE PUSH1 0xE0 SWAP5 SWAP1 SWAP5 MSTORE PUSH1 0x2 SWAP3 DUP4 SSTORE PUSH1 0x3 DUP1 SLOAD PUSH1 0x1 PUSH1 0xA0 PUSH1 0x2 EXP SUB NOT AND SWAP1 SWAP2 OR SWAP1 SSTORE SWAP2 PUSH1 0x4 SWAP1 PUSH2 0x89 SWAP1 DUP3 PUSH2 0x2D9 JUMP JUMPDEST POP PUSH1 0x60 SWAP2 DUP3 ADD MLOAD PUSH1 0x3 SWAP2 SWAP1 SWAP2 ADD SSTORE PUSH1 0x40 DUP1 MLOAD PUSH1 0x80 DUP2 ADD DUP3 MSTORE PUSH1 0x2 DUP2 MSTORE PUSH20 0x1234567890123456789200000000000000000000 PUSH1 0x20 DUP1 DUP4 ADD SWAP2 DUP3 MSTORE DUP4 MLOAD DUP1 DUP6 ADD DUP6 MSTORE PUSH1 0xA DUP2 MSTORE PUSH32 0x4564756C616E6469616E00000000000000000000000000000000000000000000 SWAP2 DUP2 ADD SWAP2 SWAP1 SWAP2 MSTORE SWAP3 DUP3 ADD DUP4 SWAP1 MSTORE PUSH1 0x0 SWAP4 DUP3 ADD SWAP4 SWAP1 SWAP4 MSTORE DUP1 MLOAD PUSH1 0x6 SWAP1 DUP2 SSTORE SWAP3 MLOAD PUSH1 0x7 DUP1 SLOAD PUSH1 0x1 PUSH1 0xA0 PUSH1 0x2 EXP SUB NOT AND PUSH1 0x1 PUSH1 0xA0 PUSH1 0x2 EXP SUB SWAP1 SWAP3 AND SWAP2 SWAP1 SWAP2 OR SWAP1 SSTORE SWAP2 SWAP1 PUSH1 0x8 SWAP1 PUSH2 0x13B SWAP1 DUP3 PUSH2 0x2D9 JUMP JUMPDEST POP PUSH1 0x60 SWAP2 DUP3 ADD MLOAD PUSH1 0x3 SWAP2 DUP3 ADD SSTORE PUSH1 0x40 DUP1 MLOAD PUSH1 0x80 DUP2 ADD DUP3 MSTORE SWAP2 DUP3 MSTORE PUSH20 0x1234567890123456789300000000000000000000 PUSH1 0x20 DUP1 DUP5 ADD SWAP2 DUP3 MSTORE DUP3 MLOAD DUP1 DUP5 ADD DUP5 MSTORE PUSH1 0xA DUP1 DUP3 MSTORE PUSH32 0x45636F6C616E6469616E00000000000000000000000000000000000000000000 SWAP3 DUP3 ADD SWAP3 SWAP1 SWAP3 MSTORE SWAP3 DUP5 ADD DUP4 SWAP1 MSTORE PUSH1 0x0 SWAP5 DUP5 ADD SWAP5 SWAP1 SWAP5 MSTORE DUP3 MLOAD DUP5 SSTORE MLOAD PUSH1 0xB DUP1 SLOAD PUSH1 0x1 PUSH1 0xA0 PUSH1 0x2 EXP SUB NOT AND PUSH1 0x1 PUSH1 0xA0 PUSH1 0x2 EXP SUB SWAP1 SWAP3 AND SWAP2 SWAP1 SWAP2 OR SWAP1 SSTORE SWAP1 SWAP2 SWAP1 PUSH1 0xC SWAP1 PUSH2 0x1E9 SWAP1 DUP3 PUSH2 0x2D9 JUMP JUMPDEST POP PUSH1 0x60 DUP3 ADD MLOAD DUP2 PUSH1 0x3 ADD SSTORE POP POP CALLVALUE DUP1 ISZERO PUSH2 0x202 JUMPI PUSH1 0x0 DUP1 REVERT JUMPDEST POP PUSH2 0x39F JUMP JUMPDEST PUSH32 0x4E487B7100000000000000000000000000000000000000000000000000000000 PUSH1 0x0 MSTORE PUSH1 0x41 PUSH1 0x4 MSTORE PUSH1 0x24 PUSH1 0x0 REVERT JUMPDEST PUSH1 0x2 DUP2 DIV PUSH1 0x1 DUP3 AND DUP1 PUSH2 0x24B JUMPI PUSH1 0x7F DUP3 AND SWAP2 POP JUMPDEST PUSH1 0x20 DUP3 LT DUP2 SUB PUSH2 0x284 JUMPI PUSH32 0x4E487B7100000000000000000000000000000000000000000000000000000000 PUSH1 0x0 MSTORE PUSH1 0x22 PUSH1 0x4 MSTORE PUSH1 0x24 PUSH1 0x0 REVERT JUMPDEST POP SWAP2 SWAP1 POP JUMP JUMPDEST PUSH1 0x1F DUP3 GT ISZERO PUSH2 0x2D4 JUMPI PUSH1 0x0 DUP2 DUP2 MSTORE PUSH1 0x20 DUP2 KECCAK256 PUSH1 0x20 PUSH1 0x1F DUP7 ADD DIV DUP2 ADD PUSH1 0x20 DUP7 LT ISZERO PUSH2 0x2B1 JUMPI POP DUP1 JUMPDEST PUSH1 0x20 PUSH1 0x1F DUP7 ADD DIV DUP3 ADD SWAP2 POP JUMPDEST DUP2 DUP2 LT ISZERO PUSH2 0x2D0 JUMPI DUP3 DUP2 SSTORE PUSH1 0x1 ADD PUSH2 0x2BD JUMP JUMPDEST POP POP POP JUMPDEST POP POP POP JUMP JUMPDEST DUP2 MLOAD PUSH8 0xFFFFFFFFFFFFFFFF DUP2 GT ISZERO PUSH2 0x2F3 JUMPI PUSH2 0x2F3 PUSH2 0x208 JUMP JUMPDEST PUSH2 0x307 DUP2 PUSH2 0x301 DUP5 SLOAD PUSH2 0x237 JUMP JUMPDEST DUP5 PUSH2 0x28A JUMP JUMPDEST PUSH1 0x20 DUP1 PUSH1 0x1F DUP4 GT PUSH1 0x1 DUP2 EQ PUSH2 0x340 JUMPI PUSH1 0x0 DUP5 ISZERO PUSH2 0x324 JUMPI POP DUP6 DUP4 ADD MLOAD JUMPDEST PUSH1 0x2 DUP1 DUP7 MUL PUSH1 0x8 DUP8 MUL SWAP1 SWAP2 EXP PUSH1 0x0 NOT DIV NOT DUP3 AND OR DUP7 SSTORE POP PUSH2 0x2D0 JUMP JUMPDEST PUSH1 0x0 DUP6 DUP2 MSTORE PUSH1 0x20 DUP2 KECCAK256 PUSH1 0x1F NOT DUP7 AND SWAP2 JUMPDEST DUP3 DUP2 LT ISZERO PUSH2 0x36F JUMPI DUP9 DUP7 ADD MLOAD DUP3 SSTORE SWAP5 DUP5 ADD SWAP5 PUSH1 0x1 SWAP1 SWAP2 ADD SWAP1 DUP5 ADD PUSH2 0x350 JUMP JUMPDEST POP DUP6 DUP3 LT ISZERO PUSH2 0x38F JUMPI DUP8 DUP6 ADD MLOAD PUSH1 0x8 PUSH1 0x1F DUP9 AND MUL PUSH1 0x2 EXP PUSH1 0x0 NOT DIV NOT AND DUP2 SSTORE JUMPDEST POP POP POP POP POP PUSH1 0x2 MUL PUSH1 0x1 ADD SWAP1 SSTORE POP JUMP JUMPDEST PUSH2 0x827 DUP1 PUSH2 0x3AE PUSH1 0x0 CODECOPY PUSH1 0x0 RETURN INVALID PUSH1 0x80 PUSH1 0x40 MSTORE CALLVALUE DUP1 ISZERO PUSH2 0x10 JUMPI PUSH1 0x0 DUP1 REVERT JUMPDEST POP PUSH1 0x4 CALLDATASIZE LT PUSH2 0xB0 JUMPI PUSH1 0x0 CALLDATALOAD PUSH29 0x100000000000000000000000000000000000000000000000000000000 SWAP1 DIV DUP1 PUSH4 0x61C78CCE GT PUSH2 0x83 JUMPI DUP1 PUSH4 0x61C78CCE EQ PUSH2 0x158 JUMPI DUP1 PUSH4 0xC360A03B EQ PUSH2 0x170 JUMPI DUP1 PUSH4 0xF222B579 EQ PUSH2 0x178 JUMPI DUP1 PUSH4 0xFA0C3AB8 EQ PUSH2 0x180 JUMPI DUP1 PUSH4 0xFFD7E4E7 EQ PUSH2 0x188 JUMPI PUSH1 0x0 DUP1 REVERT JUMPDEST DUP1 PUSH4 0x21606831 EQ PUSH2 0xB5 JUMPI DUP1 PUSH4 0x33A6CD03 EQ PUSH2 0xCA JUMPI DUP1 PUSH4 0x3EF8BBC9 EQ PUSH2 0xFA JUMPI DUP1 PUSH4 0x5792FEBF EQ PUSH2 0x142 JUMPI JUMPDEST PUSH1 0x0 DUP1 REVERT JUMPDEST PUSH2 0xC8 PUSH2 0xC3 CALLDATASIZE PUSH1 0x4 PUSH2 0x662 JUMP JUMPDEST PUSH2 0x19D JUMP JUMPDEST STOP JUMPDEST PUSH1 0xE SLOAD PUSH2 0xDD SWAP1 PUSH1 0x1 PUSH1 0xA0 PUSH1 0x2 EXP SUB AND DUP2 JUMP JUMPDEST PUSH1 0x40 MLOAD PUSH1 0x1 PUSH1 0xA0 PUSH1 0x2 EXP SUB SWAP1 SWAP2 AND DUP2 MSTORE PUSH1 0x20 ADD JUMPDEST PUSH1 0x40 MLOAD DUP1 SWAP2 SUB SWAP1 RETURN JUMPDEST PUSH2 0x132 PUSH2 0x108 CALLDATASIZE PUSH1 0x4 PUSH2 0x67B JUMP JUMPDEST PUSH1 0x1 PUSH1 0xA0 PUSH1 0x2 EXP SUB AND PUSH1 0x0 SWAP1 DUP2 MSTORE PUSH1 0x1 PUSH1 0x20 DUP2 SWAP1 MSTORE PUSH1 0x40 SWAP1 SWAP2 KECCAK256 DUP1 SLOAD PUSH2 0xFF00 NOT AND PUSH2 0x100 OR SWAP1 SSTORE SWAP1 JUMP JUMPDEST PUSH1 0x40 MLOAD SWAP1 ISZERO ISZERO DUP2 MSTORE PUSH1 0x20 ADD PUSH2 0xF1 JUMP JUMPDEST PUSH2 0x14A PUSH2 0x2A9 JUMP JUMPDEST PUSH1 0x40 MLOAD SWAP1 DUP2 MSTORE PUSH1 0x20 ADD PUSH2 0xF1 JUMP JUMPDEST PUSH2 0x160 PUSH2 0x33C JUMP JUMPDEST PUSH1 0x40 MLOAD PUSH2 0xF1 SWAP5 SWAP4 SWAP3 SWAP2 SWAP1 PUSH2 0x6F1 JUMP JUMPDEST PUSH2 0xDD PUSH2 0x3E7 JUMP JUMPDEST PUSH2 0x160 PUSH2 0x443 JUMP JUMPDEST PUSH2 0x160 PUSH2 0x465 JUMP JUMPDEST PUSH2 0x190 PUSH2 0x487 JUMP JUMPDEST PUSH1 0x40 MLOAD PUSH2 0xF1 SWAP2 SWAP1 PUSH2 0x72A JUMP JUMPDEST CALLER PUSH1 0x0 SWAP1 DUP2 MSTORE PUSH1 0x1 PUSH1 0x20 MSTORE PUSH1 0x40 SWAP1 KECCAK256 SLOAD PUSH2 0x100 SWAP1 DIV PUSH1 0xFF AND PUSH2 0x21F JUMPI PUSH1 0x40 MLOAD PUSH32 0x8C379A000000000000000000000000000000000000000000000000000000000 DUP2 MSTORE PUSH1 0x20 PUSH1 0x4 DUP3 ADD MSTORE PUSH1 0xF PUSH1 0x24 DUP3 ADD MSTORE PUSH32 0x4E6F2070756564657320766F7461720000000000000000000000000000000000 PUSH1 0x44 DUP3 ADD MSTORE PUSH1 0x64 ADD PUSH1 0x40 MLOAD DUP1 SWAP2 SUB SWAP1 REVERT JUMPDEST CALLER PUSH1 0x0 SWAP1 DUP2 MSTORE PUSH1 0x1 PUSH1 0x20 DUP2 SWAP1 MSTORE PUSH1 0x40 SWAP1 SWAP2 KECCAK256 DUP1 SLOAD PUSH1 0xFF NOT AND DUP3 OR SWAP1 SSTORE DUP2 SWAP1 SUB PUSH2 0x25E JUMPI PUSH1 0x1 PUSH1 0x2 PUSH1 0x3 ADD PUSH1 0x0 DUP3 DUP3 SLOAD PUSH2 0x258 SWAP2 SWAP1 PUSH2 0x76C JUMP JUMPDEST SWAP1 SWAP2 SSTORE POP POP JUMPDEST DUP1 PUSH1 0x2 SUB PUSH2 0x282 JUMPI PUSH1 0x1 PUSH1 0x6 PUSH1 0x3 ADD PUSH1 0x0 DUP3 DUP3 SLOAD PUSH2 0x27C SWAP2 SWAP1 PUSH2 0x76C JUMP JUMPDEST SWAP1 SWAP2 SSTORE POP POP JUMPDEST DUP1 PUSH1 0x3 SUB PUSH2 0x2A6 JUMPI PUSH1 0x1 PUSH1 0xA PUSH1 0x3 ADD PUSH1 0x0 DUP3 DUP3 SLOAD PUSH2 0x2A0 SWAP2 SWAP1 PUSH2 0x76C JUMP JUMPDEST SWAP1 SWAP2 SSTORE POP POP JUMPDEST POP JUMP JUMPDEST PUSH1 0x0 DUP1 DUP1 JUMPDEST PUSH1 0x3 DUP2 GT PUSH2 0x337 JUMPI PUSH1 0x9 SLOAD PUSH1 0x5 SLOAD GT DUP1 ISZERO PUSH2 0x2CC JUMPI POP PUSH1 0xD SLOAD PUSH1 0x5 SLOAD GT JUMPDEST ISZERO PUSH2 0x2DB JUMPI PUSH1 0x5 SLOAD PUSH1 0x1 SWAP4 POP SWAP2 POP JUMPDEST PUSH1 0x5 SLOAD PUSH1 0x9 SLOAD GT DUP1 ISZERO PUSH2 0x2F1 JUMPI POP PUSH1 0xD SLOAD PUSH1 0x9 SLOAD GT JUMPDEST ISZERO PUSH2 0x300 JUMPI PUSH1 0x9 SLOAD PUSH1 0x2 SWAP4 POP SWAP2 POP JUMPDEST PUSH1 0x5 SLOAD PUSH1 0xD SLOAD GT DUP1 ISZERO PUSH2 0x316 JUMPI POP PUSH1 0x9 SLOAD PUSH1 0xD SLOAD GT JUMPDEST ISZERO PUSH2 0x325 JUMPI PUSH1 0xD SLOAD PUSH1 0x3 SWAP4 POP SWAP2 POP JUMPDEST DUP1 PUSH2 0x32F DUP2 PUSH2 0x785 JUMP JUMPDEST SWAP2 POP POP PUSH2 0x2AE JUMP JUMPDEST POP POP SWAP1 JUMP JUMPDEST PUSH1 0x6 DUP1 SLOAD PUSH1 0x7 SLOAD PUSH1 0x8 DUP1 SLOAD SWAP3 SWAP4 PUSH1 0x1 PUSH1 0xA0 PUSH1 0x2 EXP SUB SWAP1 SWAP3 AND SWAP3 PUSH2 0x35E SWAP1 PUSH2 0x79E JUMP JUMPDEST DUP1 PUSH1 0x1F ADD PUSH1 0x20 DUP1 SWAP2 DIV MUL PUSH1 0x20 ADD PUSH1 0x40 MLOAD SWAP1 DUP2 ADD PUSH1 0x40 MSTORE DUP1 SWAP3 SWAP2 SWAP1 DUP2 DUP2 MSTORE PUSH1 0x20 ADD DUP3 DUP1 SLOAD PUSH2 0x38A SWAP1 PUSH2 0x79E JUMP JUMPDEST DUP1 ISZERO PUSH2 0x3D7 JUMPI DUP1 PUSH1 0x1F LT PUSH2 0x3AC JUMPI PUSH2 0x100 DUP1 DUP4 SLOAD DIV MUL DUP4 MSTORE SWAP2 PUSH1 0x20 ADD SWAP2 PUSH2 0x3D7 JUMP JUMPDEST DUP3 ADD SWAP2 SWAP1 PUSH1 0x0 MSTORE PUSH1 0x20 PUSH1 0x0 KECCAK256 SWAP1 JUMPDEST DUP2 SLOAD DUP2 MSTORE SWAP1 PUSH1 0x1 ADD SWAP1 PUSH1 0x20 ADD DUP1 DUP4 GT PUSH2 0x3BA JUMPI DUP3 SWAP1 SUB PUSH1 0x1F AND DUP3 ADD SWAP2 JUMPDEST POP POP POP POP POP SWAP1 DUP1 PUSH1 0x3 ADD SLOAD SWAP1 POP DUP5 JUMP JUMPDEST PUSH1 0x0 PUSH2 0x3F1 PUSH2 0x2A9 JUMP JUMPDEST PUSH1 0x1 SUB PUSH2 0x406 JUMPI POP PUSH1 0x3 SLOAD PUSH1 0x1 PUSH1 0xA0 PUSH1 0x2 EXP SUB AND JUMPDEST PUSH2 0x40E PUSH2 0x2A9 JUMP JUMPDEST PUSH1 0x2 SUB PUSH2 0x423 JUMPI POP PUSH1 0x7 SLOAD PUSH1 0x1 PUSH1 0xA0 PUSH1 0x2 EXP SUB AND JUMPDEST PUSH2 0x42B PUSH2 0x2A9 JUMP JUMPDEST PUSH1 0x3 SUB PUSH2 0x440 JUMPI POP PUSH1 0xB SLOAD PUSH1 0x1 PUSH1 0xA0 PUSH1 0x2 EXP SUB AND JUMPDEST SWAP1 JUMP JUMPDEST PUSH1 0xA DUP1 SLOAD PUSH1 0xB SLOAD PUSH1 0xC DUP1 SLOAD SWAP3 SWAP4 PUSH1 0x1 PUSH1 0xA0 PUSH1 0x2 EXP SUB SWAP1 SWAP3 AND SWAP3 PUSH2 0x35E SWAP1 PUSH2 0x79E JUMP JUMPDEST PUSH1 0x2 DUP1 SLOAD PUSH1 0x3 SLOAD PUSH1 0x4 DUP1 SLOAD SWAP3 SWAP4 PUSH1 0x1 PUSH1 0xA0 PUSH1 0x2 EXP SUB SWAP1 SWAP3 AND SWAP3 PUSH2 0x35E SWAP1 PUSH2 0x79E JUMP JUMPDEST PUSH1 0x60 PUSH2 0x491 PUSH2 0x2A9 JUMP JUMPDEST PUSH1 0x1 SUB PUSH2 0x526 JUMPI PUSH1 0x4 DUP1 SLOAD PUSH2 0x4A5 SWAP1 PUSH2 0x79E JUMP JUMPDEST DUP1 PUSH1 0x1F ADD PUSH1 0x20 DUP1 SWAP2 DIV MUL PUSH1 0x20 ADD PUSH1 0x40 MLOAD SWAP1 DUP2 ADD PUSH1 0x40 MSTORE DUP1 SWAP3 SWAP2 SWAP1 DUP2 DUP2 MSTORE PUSH1 0x20 ADD DUP3 DUP1 SLOAD PUSH2 0x4D1 SWAP1 PUSH2 0x79E JUMP JUMPDEST DUP1 ISZERO PUSH2 0x51E JUMPI DUP1 PUSH1 0x1F LT PUSH2 0x4F3 JUMPI PUSH2 0x100 DUP1 DUP4 SLOAD DIV MUL DUP4 MSTORE SWAP2 PUSH1 0x20 ADD SWAP2 PUSH2 0x51E JUMP JUMPDEST DUP3 ADD SWAP2 SWAP1 PUSH1 0x0 MSTORE PUSH1 0x20 PUSH1 0x0 KECCAK256 SWAP1 JUMPDEST DUP2 SLOAD DUP2 MSTORE SWAP1 PUSH1 0x1 ADD SWAP1 PUSH1 0x20 ADD DUP1 DUP4 GT PUSH2 0x501 JUMPI DUP3 SWAP1 SUB PUSH1 0x1F AND DUP3 ADD SWAP2 JUMPDEST POP POP POP POP POP SWAP1 POP JUMPDEST PUSH2 0x52E PUSH2 0x2A9 JUMP JUMPDEST PUSH1 0x2 SUB PUSH2 0x5C3 JUMPI PUSH1 0x8 DUP1 SLOAD PUSH2 0x542 SWAP1 PUSH2 0x79E JUMP JUMPDEST DUP1 PUSH1 0x1F ADD PUSH1 0x20 DUP1 SWAP2 DIV MUL PUSH1 0x20 ADD PUSH1 0x40 MLOAD SWAP1 DUP2 ADD PUSH1 0x40 MSTORE DUP1 SWAP3 SWAP2 SWAP1 DUP2 DUP2 MSTORE PUSH1 0x20 ADD DUP3 DUP1 SLOAD PUSH2 0x56E SWAP1 PUSH2 0x79E JUMP JUMPDEST DUP1 ISZERO PUSH2 0x5BB JUMPI DUP1 PUSH1 0x1F LT PUSH2 0x590 JUMPI PUSH2 0x100 DUP1 DUP4 SLOAD DIV MUL DUP4 MSTORE SWAP2 PUSH1 0x20 ADD SWAP2 PUSH2 0x5BB JUMP JUMPDEST DUP3 ADD SWAP2 SWAP1 PUSH1 0x0 MSTORE PUSH1 0x20 PUSH1 0x0 KECCAK256 SWAP1 JUMPDEST DUP2 SLOAD DUP2 MSTORE SWAP1 PUSH1 0x1 ADD SWAP1 PUSH1 0x20 ADD DUP1 DUP4 GT PUSH2 0x59E JUMPI DUP3 SWAP1 SUB PUSH1 0x1F AND DUP3 ADD SWAP2 JUMPDEST POP POP POP POP POP SWAP1 POP JUMPDEST PUSH2 0x5CB PUSH2 0x2A9 JUMP JUMPDEST PUSH1 0x3 SUB PUSH2 0x440 JUMPI PUSH1 0xC DUP1 SLOAD PUSH2 0x5DF SWAP1 PUSH2 0x79E JUMP JUMPDEST DUP1 PUSH1 0x1F ADD PUSH1 0x20 DUP1 SWAP2 DIV MUL PUSH1 0x20 ADD PUSH1 0x40 MLOAD SWAP1 DUP2 ADD PUSH1 0x40 MSTORE DUP1 SWAP3 SWAP2 SWAP1 DUP2 DUP2 MSTORE PUSH1 0x20 ADD DUP3 DUP1 SLOAD PUSH2 0x60B SWAP1 PUSH2 0x79E JUMP JUMPDEST DUP1 ISZERO PUSH2 0x658 JUMPI DUP1 PUSH1 0x1F LT PUSH2 0x62D JUMPI PUSH2 0x100 DUP1 DUP4 SLOAD DIV MUL DUP4 MSTORE SWAP2 PUSH1 0x20 ADD SWAP2 PUSH2 0x658 JUMP JUMPDEST DUP3 ADD SWAP2 SWAP1 PUSH1 0x0 MSTORE PUSH1 0x20 PUSH1 0x0 KECCAK256 SWAP1 JUMPDEST DUP2 SLOAD DUP2 MSTORE SWAP1 PUSH1 0x1 ADD SWAP1 PUSH1 0x20 ADD DUP1 DUP4 GT PUSH2 0x63B JUMPI DUP3 SWAP1 SUB PUSH1 0x1F AND DUP3 ADD SWAP2 JUMPDEST POP POP POP POP POP SWAP1 POP SWAP1 JUMP JUMPDEST PUSH1 0x0 PUSH1 0x20 DUP3 DUP5 SUB SLT ISZERO PUSH2 0x674 JUMPI PUSH1 0x0 DUP1 REVERT JUMPDEST POP CALLDATALOAD SWAP2 SWAP1 POP JUMP JUMPDEST PUSH1 0x0 PUSH1 0x20 DUP3 DUP5 SUB SLT ISZERO PUSH2 0x68D JUMPI PUSH1 0x0 DUP1 REVERT JUMPDEST DUP2 CALLDATALOAD PUSH1 0x1 PUSH1 0xA0 PUSH1 0x2 EXP SUB DUP2 AND DUP2 EQ PUSH2 0x6A4 JUMPI PUSH1 0x0 DUP1 REVERT JUMPDEST SWAP4 SWAP3 POP POP POP JUMP JUMPDEST PUSH1 0x0 DUP2 MLOAD DUP1 DUP5 MSTORE PUSH1 0x0 JUMPDEST DUP2 DUP2 LT ISZERO PUSH2 0x6D1 JUMPI PUSH1 0x20 DUP2 DUP6 ADD DUP2 ADD MLOAD DUP7 DUP4 ADD DUP3 ADD MSTORE ADD PUSH2 0x6B5 JUMP JUMPDEST POP PUSH1 0x0 PUSH1 0x20 DUP3 DUP7 ADD ADD MSTORE PUSH1 0x20 PUSH1 0x1F NOT PUSH1 0x1F DUP4 ADD AND DUP6 ADD ADD SWAP2 POP POP SWAP3 SWAP2 POP POP JUMP JUMPDEST DUP5 DUP2 MSTORE PUSH1 0x1 PUSH1 0xA0 PUSH1 0x2 EXP SUB DUP5 AND PUSH1 0x20 DUP3 ADD MSTORE PUSH1 0x80 PUSH1 0x40 DUP3 ADD MSTORE PUSH1 0x0 PUSH2 0x719 PUSH1 0x80 DUP4 ADD DUP6 PUSH2 0x6AB JUMP JUMPDEST SWAP1 POP DUP3 PUSH1 0x60 DUP4 ADD MSTORE SWAP6 SWAP5 POP POP POP POP POP JUMP JUMPDEST PUSH1 0x20 DUP2 MSTORE PUSH1 0x0 PUSH2 0x6A4 PUSH1 0x20 DUP4 ADD DUP5 PUSH2 0x6AB JUMP JUMPDEST PUSH32 0x4E487B7100000000000000000000000000000000000000000000000000000000 PUSH1 0x0 MSTORE PUSH1 0x11 PUSH1 0x4 MSTORE PUSH1 0x24 PUSH1 0x0 REVERT JUMPDEST DUP1 DUP3 ADD DUP1 DUP3 GT ISZERO PUSH2 0x77F JUMPI PUSH2 0x77F PUSH2 0x73D JUMP JUMPDEST SWAP3 SWAP2 POP POP JUMP JUMPDEST PUSH1 0x0 PUSH1 0x1 DUP3 ADD PUSH2 0x797 JUMPI PUSH2 0x797 PUSH2 0x73D JUMP JUMPDEST POP PUSH1 0x1 ADD SWAP1 JUMP JUMPDEST PUSH1 0x2 DUP2 DIV PUSH1 0x1 DUP3 AND DUP1 PUSH2 0x7B2 JUMPI PUSH1 0x7F DUP3 AND SWAP2 POP JUMPDEST PUSH1 0x20 DUP3 LT DUP2 SUB PUSH2 0x7EB JUMPI PUSH32 0x4E487B7100000000000000000000000000000000000000000000000000000000 PUSH1 0x0 MSTORE PUSH1 0x22 PUSH1 0x4 MSTORE PUSH1 0x24 PUSH1 0x0 REVERT JUMPDEST POP SWAP2 SWAP1 POP JUMP INVALID LOG2 PUSH5 0x6970667358 0x22 SLT KECCAK256 0x27 0xCB 0x2F 0x4D DUP15 SWAP5 0x4B 0x24 0xD6 0xD2 0xC4 CODECOPY 0xEF 0x2C 0x4B SLOAD 0xBA SWAP8 0x23 GASPRICE 0xCA TIMESTAMP 0xAD 0xB8 0xB1 0xDC 0xDE 0x28 RETURNDATACOPY PUSH14 0x27D064736F6C6343000810003300 "
				},
				"gasEstimates": {
					"creation": {
						"codeDepositCost": "417400",
						"executionCost": "infinite",
						"totalCost": "infinite"
					},
					"external": {
						"addressGanador()": "infinite",
						"candidato1()": "infinite",
						"candidato2()": "infinite",
						"candidato3()": "infinite",
						"candidatoGanador()": "infinite",
						"duenoContrato()": "568",
						"nombreGanador()": "infinite",
						"permisoVotar(address)": "20802",
						"votar(uint256)": "infinite"
					}
				},
				"methodIdentifiers": {
					"addressGanador()": "c360a03b",
					"candidato1()": "fa0c3ab8",
					"candidato2()": "61c78cce",
					"candidato3()": "f222b579",
					"candidatoGanador()": "5792febf",
					"duenoContrato()": "33a6cd03",
					"nombreGanador()": "ffd7e4e7",
					"permisoVotar(address)": "3ef8bbc9",
					"votar(uint256)": "21606831"
				}
			},
			"storageLayout": {
				"storage": [
					{
						"astId": 4,
						"contract": "votes.sol:projectVotes",
						"label": "totalVotos",
						"offset": 0,
						"slot": "0",
						"type": "t_uint256"
					},
					{
						"astId": 18,
						"contract": "votes.sol:projectVotes",
						"label": "votantes",
						"offset": 0,
						"slot": "1",
						"type": "t_mapping(t_address,t_struct(Votante)13_storage)"
					},
					{
						"astId": 36,
						"contract": "votes.sol:projectVotes",
						"label": "candidato1",
						"offset": 0,
						"slot": "2",
						"type": "t_struct(Candidato)27_storage"
					},
					{
						"astId": 45,
						"contract": "votes.sol:projectVotes",
						"label": "candidato2",
						"offset": 0,
						"slot": "6",
						"type": "t_struct(Candidato)27_storage"
					},
					{
						"astId": 54,
						"contract": "votes.sol:projectVotes",
						"label": "candidato3",
						"offset": 0,
						"slot": "10",
						"type": "t_struct(Candidato)27_storage"
					},
					{
						"astId": 56,
						"contract": "votes.sol:projectVotes",
						"label": "duenoContrato",
						"offset": 0,
						"slot": "14",
						"type": "t_address"
					}
				],
				"types": {
					"t_address": {
						"encoding": "inplace",
						"label": "address",
						"numberOfBytes": "20"
					},
					"t_bool": {
						"encoding": "inplace",
						"label": "bool",
						"numberOfBytes": "1"
					},
					"t_mapping(t_address,t_struct(Votante)13_storage)": {
						"encoding": "mapping",
						"key": "t_address",
						"label": "mapping(address => struct projectVotes.Votante)",
						"numberOfBytes": "32",
						"value": "t_struct(Votante)13_storage"
					},
					"t_string_storage": {
						"encoding": "bytes",
						"label": "string",
						"numberOfBytes": "32"
					},
					"t_struct(Candidato)27_storage": {
						"encoding": "inplace",
						"label": "struct projectVotes.Candidato",
						"members": [
							{
								"astId": 20,
								"contract": "votes.sol:projectVotes",
								"label": "id",
								"offset": 0,
								"slot": "0",
								"type": "t_uint256"
							},
							{
								"astId": 22,
								"contract": "votes.sol:projectVotes",
								"label": "addressCandidato",
								"offset": 0,
								"slot": "1",
								"type": "t_address"
							},
							{
								"astId": 24,
								"contract": "votes.sol:projectVotes",
								"label": "nombre",
								"offset": 0,
								"slot": "2",
								"type": "t_string_storage"
							},
							{
								"astId": 26,
								"contract": "votes.sol:projectVotes",
								"label": "contadorVotos",
								"offset": 0,
								"slot": "3",
								"type": "t_uint256"
							}
						],
						"numberOfBytes": "128"
					},
					"t_struct(Votante)13_storage": {
						"encoding": "inplace",
						"label": "struct projectVotes.Votante",
						"members": [
							{
								"astId": 6,
								"contract": "votes.sol:projectVotes",
								"label": "voto",
								"offset": 0,
								"slot": "0",
								"type": "t_bool"
							},
							{
								"astId": 8,
								"contract": "votes.sol:projectVotes",
								"label": "puedeVotar",
								"offset": 1,
								"slot": "0",
								"type": "t_bool"
							},
							{
								"astId": 10,
								"contract": "votes.sol:projectVotes",
								"label": "votos",
								"offset": 0,
								"slot": "1",
								"type": "t_uint256"
							},
							{
								"astId": 12,
								"contract": "votes.sol:projectVotes",
								"label": "tiempoVoto",
								"offset": 0,
								"slot": "2",
								"type": "t_uint256"
							}
						],
						"numberOfBytes": "96"
					},
					"t_uint256": {
						"encoding": "inplace",
						"label": "uint256",
						"numberOfBytes": "32"
					}
				}
			},
			"userdoc": {
				"kind": "user",
				"methods": {},
				"version": 1
			}
		}
	}
}