{
	"data": {
		"bytecode": {
			"linkReferences": {},
			"object": "600060025560c0604052600860808190527f536520566f746f2100000000000000000000000000000000000000000000000060a09081526200004591600391906200050e565b506040805180820190915260088082527f4e6f20566f746f2100000000000000000000000000000000000000000000000060209092019182526200008c916004916200050e565b506040805160808101825260018152731234567890123456789100000000000000000000602080830191825283518085018552600c81527f54726176656c616e6469616e00000000000000000000000000000000000000009181019182529383018490526000606084015282516006908155915160078054600160a060020a031916600160a060020a0390921691909117905592519192909162000133916008916200050e565b50606091820151600391909101556040805160808101825260028152731234567890123456789200000000000000000000602080830191825283518085018552600a8082527f4564756c616e6469616e00000000000000000000000000000000000000000000928201928352948401819052600095840195909552825184559051600b8054600160a060020a031916600160a060020a0390921691909117905592519092620001e691600c91906200050e565b5060609182015160039182015560408051608081018252918252731234567890123456789300000000000000000000602080840191825282518084018452600b81527f45636f6c616e6469616e320000000000000000000000000000000000000000009181019182529284018390526000948401949094528251600e9081559051600f8054600160a060020a031916600160a060020a039092169190911790559051919290916200029a916010916200050e565b50606082015181600301555050348015620002b457600080fd5b50620002db620002cc64010000000062000361810204565b64010000000062000365810204565b620002f1600033640100000000620003b5810204565b620003267f226c4972ab1f314d4ad7ff65fbbf70e5647a0620354d97bff1b978c4cf385edf33640100000000620003b5810204565b6200035b7f2172861495e7b85edac73e3cd5fbb42dd675baadf627720e687bcfdaca02509680640100000000620003ce810204565b6200060a565b3390565b60008054600160a060020a03838116600160a060020a0319831681178455604051919092169283917f8be0079c531659141344cd1fd0a4f28419497f9722a3daafe3b4186f6b6457e09190a35050565b620003ca82826401000000006200042e810204565b5050565b6000620003e483640100000000620004cd810204565b6000848152600160208190526040808320909101859055519192508391839186917fbd79b86ffe0ab8e8776151514217cd7cacd52c909f66475c3af44e129f0b00ff9190a4505050565b620004438282640100000000620004e3810204565b620003ca576000828152600160208181526040808420600160a060020a0386168552909152909120805460ff191690911790556200048964010000000062000361810204565b600160a060020a031681600160a060020a0316837f2f8788117e7eff1d82e926ec794901d17c78024a50270940304540a733656f0d60405160405180910390a45050565b6000908152600160208190526040909120015490565b6000918252600160209081526040808420600160a060020a0393909316845291905290205460ff1690565b8280546200051c90620005b4565b90600052602060002090601f0160209004810192826200054057600085556200058b565b82601f106200055b57805160ff19168380011785556200058b565b828001600101855582156200058b579182015b828111156200058b5782518255916020019190600101906200056e565b50620005999291506200059d565b5090565b5b808211156200059957600081556001016200059e565b600281046001821680620005c957607f821691505b6020821081141562000604577f4e487b7100000000000000000000000000000000000000000000000000000000600052602260045260246000fd5b50919050565b611444806200061a6000396000f3fe608060405234801561001057600080fd5b50600436106101c6576000357c010000000000000000000000000000000000000000000000000000000090048063a217fddf11610116578063c7876434116100b4578063f222b5791161008e578063f222b57914610363578063f2fde38b1461036b578063fa0c3ab81461037e578063ffd7e4e71461038657600080fd5b8063c787643414610321578063d391014b14610329578063d547741f1461035057600080fd5b8063b1c78ebc116100f0578063b1c78ebc14610309578063b49cd0f714610206578063c360a03b14610311578063c363091c1461031957600080fd5b8063a217fddf146102f2578063a791e09b146102fa578063ae60bb231461030157600080fd5b806336568abe11610183578063715018a61161015d578063715018a61461029d5780638356e8e1146102a55780638da5cb5b146102ba57806391d14854146102df57600080fd5b806336568abe1461026a5780635792febf1461027d57806361c78cce1461028557600080fd5b806301ffc9a7146101cb57806321606831146101f3578063226839ba14610208578063248a9ca31461021d5780632b553fb41461024f5780632f2ff15d14610257575b600080fd5b6101de6101d9366004611194565b61038e565b60405190151581526020015b60405180910390f35b61020661020136600461114f565b610421565b005b61021061051a565b6040516101ea9190611280565b61024161022b36600461114f565b6000908152600160208190526040909120015490565b6040519081526020016101ea565b6102066105e1565b610206610265366004611168565b6105eb565b610206610278366004611168565b610616565b6102416106a5565b61028d610738565b6040516101ea9493929190611293565b6102066107e3565b6102416000805160206113ef83398151915281565b600054600160a060020a03165b604051600160a060020a0390911681526020016101ea565b6101de6102ed366004611168565b6107f5565b610241600081565b603c610241565b610210610820565b6102106108ae565b6102c76108bb565b6101de61091a565b6101de610989565b6102417f2172861495e7b85edac73e3cd5fbb42dd675baadf627720e687bcfdaca02509681565b61020661035e366004611168565b6109f2565b61028d610a18565b610206610379366004611134565b610a3a565b61028d610aca565b610210610aec565b60007bffffffffffffffffffffffffffffffffffffffffffffffffffffffff1982167f7965db0b00000000000000000000000000000000000000000000000000000000148061041b57507f01ffc9a7000000000000000000000000000000000000000000000000000000007bffffffffffffffffffffffffffffffffffffffffffffffffffffffff198316145b92915050565b33600090815260056020526040902054610100900460ff1661048d5760405160e560020a62461bcd02815260206004820152600f60248201527f4e6f2070756564657320766f746172000000000000000000000000000000000060448201526064015b60405180910390fd5b336000908152600560205260409020805460ff191660019081179091558114156104cd576001600660030160008282546104c791906112cc565b90915550505b80600214156104f2576001600a60030160008282546104ec91906112cc565b90915550505b8060031415610517576001600e600301600082825461051191906112cc565b90915550505b50565b60606105346000805160206113ef833981519152336107f5565b6105a95760405160e560020a62461bcd02815260206004820152602e60248201527f536f6c6f206c617320766f6c74616e746520707565646520646172746520646560448201527f726563686f20616c20566f746f2e0000000000000000000000000000000000006064820152608401610484565b5060408051808201909152601381527f456c20766f74616e746520796120766f746f2e00000000000000000000000000602082015290565b6105e9610cca565b565b6000828152600160208190526040909120015461060781610d27565b6106118383610d31565b505050565b600160a060020a03811633146106975760405160e560020a62461bcd02815260206004820152602f60248201527f416363657373436f6e74726f6c3a2063616e206f6e6c792072656e6f756e636560448201527f20726f6c657320666f722073656c6600000000000000000000000000000000006064820152608401610484565b6106a18282610d9c565b5050565b600080805b6003811161073357600d546009541180156106c85750601154600954115b156106d7576009546001935091505b600954600d541180156106ed5750601154600d54115b156106fc57600d546002935091505b6009546011541180156107125750600d54601154115b15610721576011546003935091505b8061072b81611388565b9150506106aa565b505090565b600a8054600b54600c80549293600160a060020a039092169261075a9061134a565b80601f01602080910402602001604051908101604052809291908181526020018280546107869061134a565b80156107d35780601f106107a8576101008083540402835291602001916107d3565b820191906000526020600020905b8154815290600101906020018083116107b657829003601f168201915b5050505050908060030154905084565b6107eb610cca565b6105e96000610e03565b6000918252600160209081526040808420600160a060020a0393909316845291905290205460ff1690565b6004805461082d9061134a565b80601f01602080910402602001604051908101604052809291908181526020018280546108599061134a565b80156108a65780601f1061087b576101008083540402835291602001916108a6565b820191906000526020600020905b81548152906001019060200180831161088957829003601f168201915b505050505081565b6003805461082d9061134a565b60006108c56106a5565b600114156108db5750600754600160a060020a03165b6108e36106a5565b600214156108f95750600b54600160a060020a03165b6109016106a5565b600314156109175750600f54600160a060020a03165b90565b60006109346000805160206113ef833981519152336107f5565b6109835760405160e560020a62461bcd02815260206004820152600860248201527f4e6f20566f746f210000000000000000000000000000000000000000000000006044820152606401610484565b50600190565b60006109a36000805160206113ef833981519152336107f5565b6109835760405160e560020a62461bcd02815260206004820152600e60248201527f54752070756564657320766f746f0000000000000000000000000000000000006044820152606401610484565b60008281526001602081905260409091200154610a0e81610d27565b6106118383610d9c565b600e8054600f54601080549293600160a060020a039092169261075a9061134a565b610a42610cca565b600160a060020a038116610ac15760405160e560020a62461bcd02815260206004820152602660248201527f4f776e61626c653a206e6577206f776e657220697320746865207a65726f206160448201527f64647265737300000000000000000000000000000000000000000000000000006064820152608401610484565b61051781610e03565b60068054600754600880549293600160a060020a039092169261075a9061134a565b6060610af66106a5565b60011415610b8c5760088054610b0b9061134a565b80601f0160208091040260200160405190810160405280929190818152602001828054610b379061134a565b8015610b845780601f10610b5957610100808354040283529160200191610b84565b820191906000526020600020905b815481529060010190602001808311610b6757829003601f168201915b505050505090505b610b946106a5565b60021415610c2a57600c8054610ba99061134a565b80601f0160208091040260200160405190810160405280929190818152602001828054610bd59061134a565b8015610c225780601f10610bf757610100808354040283529160200191610c22565b820191906000526020600020905b815481529060010190602001808311610c0557829003601f168201915b505050505090505b610c326106a5565b600314156109175760108054610c479061134a565b80601f0160208091040260200160405190810160405280929190818152602001828054610c739061134a565b8015610cc05780601f10610c9557610100808354040283529160200191610cc0565b820191906000526020600020905b815481529060010190602001808311610ca357829003601f168201915b5050505050905090565b600054600160a060020a031633146105e95760405160e560020a62461bcd02815260206004820181905260248201527f4f776e61626c653a2063616c6c6572206973206e6f7420746865206f776e65726044820152606401610484565b6105178133610e60565b610d3b82826107f5565b6106a1576000828152600160208181526040808420600160a060020a0386168086529252808420805460ff19169093179092559051339285917f2f8788117e7eff1d82e926ec794901d17c78024a50270940304540a733656f0d9190a45050565b610da682826107f5565b156106a1576000828152600160209081526040808320600160a060020a0385168085529252808320805460ff1916905551339285917ff6391f5c32d9c69d2a47ea670b442974b53935d1edc7fd64eb21e047a839171b9190a45050565b60008054600160a060020a0383811673ffffffffffffffffffffffffffffffffffffffff19831681178455604051919092169283917f8be0079c531659141344cd1fd0a4f28419497f9722a3daafe3b4186f6b6457e09190a35050565b610e6a82826107f5565b6106a157610e8281600160a060020a03166014610ec7565b610e8d836020610ec7565b604051602001610e9e9291906111ff565b60408051601f198184030181529082905260e560020a62461bcd02825261048491600401611280565b60606000610ed68360026112e4565b610ee19060026112cc565b67ffffffffffffffff811115610ef957610ef96113d5565b6040519080825280601f01601f191660200182016040528015610f23576020820181803683370190505b5090507f300000000000000000000000000000000000000000000000000000000000000081600081518110610f5a57610f5a6113bc565b60200101907effffffffffffffffffffffffffffffffffffffffffffffffffffffffffffff1916908160001a9053507f780000000000000000000000000000000000000000000000000000000000000081600181518110610fbd57610fbd6113bc565b60200101907effffffffffffffffffffffffffffffffffffffffffffffffffffffffffffff1916908160001a9053506000610ff98460026112e4565b6110049060016112cc565b90505b60018111156110bf577f303132333435363738396162636465660000000000000000000000000000000085600f1660108110611045576110456113bc565b1a7f01000000000000000000000000000000000000000000000000000000000000000282828151811061107a5761107a6113bc565b60200101907effffffffffffffffffffffffffffffffffffffffffffffffffffffffffffff1916908160001a9053506010909404936110b881611333565b9050611007565b5083156111115760405160e560020a62461bcd02815260206004820181905260248201527f537472696e67733a20686578206c656e67746820696e73756666696369656e746044820152606401610484565b9392505050565b8035600160a060020a038116811461112f57600080fd5b919050565b60006020828403121561114657600080fd5b61111182611118565b60006020828403121561116157600080fd5b5035919050565b6000806040838503121561117b57600080fd5b8235915061118b60208401611118565b90509250929050565b6000602082840312156111a657600080fd5b81357bffffffffffffffffffffffffffffffffffffffffffffffffffffffff198116811461111157600080fd5b600081518084526111eb816020860160208601611303565b601f01601f19169290920160200192915050565b7f416363657373436f6e74726f6c3a206163636f756e7420000000000000000000815260008351611237816017850160208801611303565b7f206973206d697373696e6720726f6c65200000000000000000000000000000006017918401918201528351611274816028840160208801611303565b01602801949350505050565b60208152600061111160208301846111d3565b848152600160a060020a03841660208201526080604082015260006112bb60808301856111d3565b905082606083015295945050505050565b600082198211156112df576112df6113a3565b500190565b60008160001904831182151516156112fe576112fe6113a3565b500290565b60005b8381101561131e578181015183820152602001611306565b8381111561132d576000848401525b50505050565b600081611342576113426113a3565b506000190190565b60028104600182168061135e57607f821691505b602082108114156113825760e060020a634e487b7102600052602260045260246000fd5b50919050565b600060001982141561139c5761139c6113a3565b5060010190565b60e060020a634e487b7102600052601160045260246000fd5b60e060020a634e487b7102600052603260045260246000fd5b60e060020a634e487b7102600052604160045260246000fdfe226c4972ab1f314d4ad7ff65fbbf70e5647a0620354d97bff1b978c4cf385edfa2646970667358221220e96e341dfa4c6d8de061c046d9960aaf3c207c46d44d0eeb76e3818a6a98739064736f6c63430008070033",
			"opcodes": "PUSH1 0x0 PUSH1 0x2 SSTORE PUSH1 0xC0 PUSH1 0x40 MSTORE PUSH1 0x8 PUSH1 0x80 DUP2 SWAP1 MSTORE PUSH32 0x536520566F746F21000000000000000000000000000000000000000000000000 PUSH1 0xA0 SWAP1 DUP2 MSTORE PUSH3 0x45 SWAP2 PUSH1 0x3 SWAP2 SWAP1 PUSH3 0x50E JUMP JUMPDEST POP PUSH1 0x40 DUP1 MLOAD DUP1 DUP3 ADD SWAP1 SWAP2 MSTORE PUSH1 0x8 DUP1 DUP3 MSTORE PUSH32 0x4E6F20566F746F21000000000000000000000000000000000000000000000000 PUSH1 0x20 SWAP1 SWAP3 ADD SWAP2 DUP3 MSTORE PUSH3 0x8C SWAP2 PUSH1 0x4 SWAP2 PUSH3 0x50E JUMP JUMPDEST POP PUSH1 0x40 DUP1 MLOAD PUSH1 0x80 DUP2 ADD DUP3 MSTORE PUSH1 0x1 DUP2 MSTORE PUSH20 0x1234567890123456789100000000000000000000 PUSH1 0x20 DUP1 DUP4 ADD SWAP2 DUP3 MSTORE DUP4 MLOAD DUP1 DUP6 ADD DUP6 MSTORE PUSH1 0xC DUP2 MSTORE PUSH32 0x54726176656C616E6469616E0000000000000000000000000000000000000000 SWAP2 DUP2 ADD SWAP2 DUP3 MSTORE SWAP4 DUP4 ADD DUP5 SWAP1 MSTORE PUSH1 0x0 PUSH1 0x60 DUP5 ADD MSTORE DUP3 MLOAD PUSH1 0x6 SWAP1 DUP2 SSTORE SWAP2 MLOAD PUSH1 0x7 DUP1 SLOAD PUSH1 0x1 PUSH1 0xA0 PUSH1 0x2 EXP SUB NOT AND PUSH1 0x1 PUSH1 0xA0 PUSH1 0x2 EXP SUB SWAP1 SWAP3 AND SWAP2 SWAP1 SWAP2 OR SWAP1 SSTORE SWAP3 MLOAD SWAP2 SWAP3 SWAP1 SWAP2 PUSH3 0x133 SWAP2 PUSH1 0x8 SWAP2 PUSH3 0x50E JUMP JUMPDEST POP PUSH1 0x60 SWAP2 DUP3 ADD MLOAD PUSH1 0x3 SWAP2 SWAP1 SWAP2 ADD SSTORE PUSH1 0x40 DUP1 MLOAD PUSH1 0x80 DUP2 ADD DUP3 MSTORE PUSH1 0x2 DUP2 MSTORE PUSH20 0x1234567890123456789200000000000000000000 PUSH1 0x20 DUP1 DUP4 ADD SWAP2 DUP3 MSTORE DUP4 MLOAD DUP1 DUP6 ADD DUP6 MSTORE PUSH1 0xA DUP1 DUP3 MSTORE PUSH32 0x4564756C616E6469616E00000000000000000000000000000000000000000000 SWAP3 DUP3 ADD SWAP3 DUP4 MSTORE SWAP5 DUP5 ADD DUP2 SWAP1 MSTORE PUSH1 0x0 SWAP6 DUP5 ADD SWAP6 SWAP1 SWAP6 MSTORE DUP3 MLOAD DUP5 SSTORE SWAP1 MLOAD PUSH1 0xB DUP1 SLOAD PUSH1 0x1 PUSH1 0xA0 PUSH1 0x2 EXP SUB NOT AND PUSH1 0x1 PUSH1 0xA0 PUSH1 0x2 EXP SUB SWAP1 SWAP3 AND SWAP2 SWAP1 SWAP2 OR SWAP1 SSTORE SWAP3 MLOAD SWAP1 SWAP3 PUSH3 0x1E6 SWAP2 PUSH1 0xC SWAP2 SWAP1 PUSH3 0x50E JUMP JUMPDEST POP PUSH1 0x60 SWAP2 DUP3 ADD MLOAD PUSH1 0x3 SWAP2 DUP3 ADD SSTORE PUSH1 0x40 DUP1 MLOAD PUSH1 0x80 DUP2 ADD DUP3 MSTORE SWAP2 DUP3 MSTORE PUSH20 0x1234567890123456789300000000000000000000 PUSH1 0x20 DUP1 DUP5 ADD SWAP2 DUP3 MSTORE DUP3 MLOAD DUP1 DUP5 ADD DUP5 MSTORE PUSH1 0xB DUP2 MSTORE PUSH32 0x45636F6C616E6469616E32000000000000000000000000000000000000000000 SWAP2 DUP2 ADD SWAP2 DUP3 MSTORE SWAP3 DUP5 ADD DUP4 SWAP1 MSTORE PUSH1 0x0 SWAP5 DUP5 ADD SWAP5 SWAP1 SWAP5 MSTORE DUP3 MLOAD PUSH1 0xE SWAP1 DUP2 SSTORE SWAP1 MLOAD PUSH1 0xF DUP1 SLOAD PUSH1 0x1 PUSH1 0xA0 PUSH1 0x2 EXP SUB NOT AND PUSH1 0x1 PUSH1 0xA0 PUSH1 0x2 EXP SUB SWAP1 SWAP3 AND SWAP2 SWAP1 SWAP2 OR SWAP1 SSTORE SWAP1 MLOAD SWAP2 SWAP3 SWAP1 SWAP2 PUSH3 0x29A SWAP2 PUSH1 0x10 SWAP2 PUSH3 0x50E JUMP JUMPDEST POP PUSH1 0x60 DUP3 ADD MLOAD DUP2 PUSH1 0x3 ADD SSTORE POP POP CALLVALUE DUP1 ISZERO PUSH3 0x2B4 JUMPI PUSH1 0x0 DUP1 REVERT JUMPDEST POP PUSH3 0x2DB PUSH3 0x2CC PUSH5 0x100000000 PUSH3 0x361 DUP2 MUL DIV JUMP JUMPDEST PUSH5 0x100000000 PUSH3 0x365 DUP2 MUL DIV JUMP JUMPDEST PUSH3 0x2F1 PUSH1 0x0 CALLER PUSH5 0x100000000 PUSH3 0x3B5 DUP2 MUL DIV JUMP JUMPDEST PUSH3 0x326 PUSH32 0x226C4972AB1F314D4AD7FF65FBBF70E5647A0620354D97BFF1B978C4CF385EDF CALLER PUSH5 0x100000000 PUSH3 0x3B5 DUP2 MUL DIV JUMP JUMPDEST PUSH3 0x35B PUSH32 0x2172861495E7B85EDAC73E3CD5FBB42DD675BAADF627720E687BCFDACA025096 DUP1 PUSH5 0x100000000 PUSH3 0x3CE DUP2 MUL DIV JUMP JUMPDEST PUSH3 0x60A JUMP JUMPDEST CALLER SWAP1 JUMP JUMPDEST PUSH1 0x0 DUP1 SLOAD PUSH1 0x1 PUSH1 0xA0 PUSH1 0x2 EXP SUB DUP4 DUP2 AND PUSH1 0x1 PUSH1 0xA0 PUSH1 0x2 EXP SUB NOT DUP4 AND DUP2 OR DUP5 SSTORE PUSH1 0x40 MLOAD SWAP2 SWAP1 SWAP3 AND SWAP3 DUP4 SWAP2 PUSH32 0x8BE0079C531659141344CD1FD0A4F28419497F9722A3DAAFE3B4186F6B6457E0 SWAP2 SWAP1 LOG3 POP POP JUMP JUMPDEST PUSH3 0x3CA DUP3 DUP3 PUSH5 0x100000000 PUSH3 0x42E DUP2 MUL DIV JUMP JUMPDEST POP POP JUMP JUMPDEST PUSH1 0x0 PUSH3 0x3E4 DUP4 PUSH5 0x100000000 PUSH3 0x4CD DUP2 MUL DIV JUMP JUMPDEST PUSH1 0x0 DUP5 DUP2 MSTORE PUSH1 0x1 PUSH1 0x20 DUP2 SWAP1 MSTORE PUSH1 0x40 DUP1 DUP4 KECCAK256 SWAP1 SWAP2 ADD DUP6 SWAP1 SSTORE MLOAD SWAP2 SWAP3 POP DUP4 SWAP2 DUP4 SWAP2 DUP7 SWAP2 PUSH32 0xBD79B86FFE0AB8E8776151514217CD7CACD52C909F66475C3AF44E129F0B00FF SWAP2 SWAP1 LOG4 POP POP POP JUMP JUMPDEST PUSH3 0x443 DUP3 DUP3 PUSH5 0x100000000 PUSH3 0x4E3 DUP2 MUL DIV JUMP JUMPDEST PUSH3 0x3CA JUMPI PUSH1 0x0 DUP3 DUP2 MSTORE PUSH1 0x1 PUSH1 0x20 DUP2 DUP2 MSTORE PUSH1 0x40 DUP1 DUP5 KECCAK256 PUSH1 0x1 PUSH1 0xA0 PUSH1 0x2 EXP SUB DUP7 AND DUP6 MSTORE SWAP1 SWAP2 MSTORE SWAP1 SWAP2 KECCAK256 DUP1 SLOAD PUSH1 0xFF NOT AND SWAP1 SWAP2 OR SWAP1 SSTORE PUSH3 0x489 PUSH5 0x100000000 PUSH3 0x361 DUP2 MUL DIV JUMP JUMPDEST PUSH1 0x1 PUSH1 0xA0 PUSH1 0x2 EXP SUB AND DUP2 PUSH1 0x1 PUSH1 0xA0 PUSH1 0x2 EXP SUB AND DUP4 PUSH32 0x2F8788117E7EFF1D82E926EC794901D17C78024A50270940304540A733656F0D PUSH1 0x40 MLOAD PUSH1 0x40 MLOAD DUP1 SWAP2 SUB SWAP1 LOG4 POP POP JUMP JUMPDEST PUSH1 0x0 SWAP1 DUP2 MSTORE PUSH1 0x1 PUSH1 0x20 DUP2 SWAP1 MSTORE PUSH1 0x40 SWAP1 SWAP2 KECCAK256 ADD SLOAD SWAP1 JUMP JUMPDEST PUSH1 0x0 SWAP2 DUP3 MSTORE PUSH1 0x1 PUSH1 0x20 SWAP1 DUP2 MSTORE PUSH1 0x40 DUP1 DUP5 KECCAK256 PUSH1 0x1 PUSH1 0xA0 PUSH1 0x2 EXP SUB SWAP4 SWAP1 SWAP4 AND DUP5 MSTORE SWAP2 SWAP1 MSTORE SWAP1 KECCAK256 SLOAD PUSH1 0xFF AND SWAP1 JUMP JUMPDEST DUP3 DUP1 SLOAD PUSH3 0x51C SWAP1 PUSH3 0x5B4 JUMP JUMPDEST SWAP1 PUSH1 0x0 MSTORE PUSH1 0x20 PUSH1 0x0 KECCAK256 SWAP1 PUSH1 0x1F ADD PUSH1 0x20 SWAP1 DIV DUP2 ADD SWAP3 DUP3 PUSH3 0x540 JUMPI PUSH1 0x0 DUP6 SSTORE PUSH3 0x58B JUMP JUMPDEST DUP3 PUSH1 0x1F LT PUSH3 0x55B JUMPI DUP1 MLOAD PUSH1 0xFF NOT AND DUP4 DUP1 ADD OR DUP6 SSTORE PUSH3 0x58B JUMP JUMPDEST DUP3 DUP1 ADD PUSH1 0x1 ADD DUP6 SSTORE DUP3 ISZERO PUSH3 0x58B JUMPI SWAP2 DUP3 ADD JUMPDEST DUP3 DUP2 GT ISZERO PUSH3 0x58B JUMPI DUP3 MLOAD DUP3 SSTORE SWAP2 PUSH1 0x20 ADD SWAP2 SWAP1 PUSH1 0x1 ADD SWAP1 PUSH3 0x56E JUMP JUMPDEST POP PUSH3 0x599 SWAP3 SWAP2 POP PUSH3 0x59D JUMP JUMPDEST POP SWAP1 JUMP JUMPDEST JUMPDEST DUP1 DUP3 GT ISZERO PUSH3 0x599 JUMPI PUSH1 0x0 DUP2 SSTORE PUSH1 0x1 ADD PUSH3 0x59E JUMP JUMPDEST PUSH1 0x2 DUP2 DIV PUSH1 0x1 DUP3 AND DUP1 PUSH3 0x5C9 JUMPI PUSH1 0x7F DUP3 AND SWAP2 POP JUMPDEST PUSH1 0x20 DUP3 LT DUP2 EQ ISZERO PUSH3 0x604 JUMPI PUSH32 0x4E487B7100000000000000000000000000000000000000000000000000000000 PUSH1 0x0 MSTORE PUSH1 0x22 PUSH1 0x4 MSTORE PUSH1 0x24 PUSH1 0x0 REVERT JUMPDEST POP SWAP2 SWAP1 POP JUMP JUMPDEST PUSH2 0x1444 DUP1 PUSH3 0x61A PUSH1 0x0 CODECOPY PUSH1 0x0 RETURN INVALID PUSH1 0x80 PUSH1 0x40 MSTORE CALLVALUE DUP1 ISZERO PUSH2 0x10 JUMPI PUSH1 0x0 DUP1 REVERT JUMPDEST POP PUSH1 0x4 CALLDATASIZE LT PUSH2 0x1C6 JUMPI PUSH1 0x0 CALLDATALOAD PUSH29 0x100000000000000000000000000000000000000000000000000000000 SWAP1 DIV DUP1 PUSH4 0xA217FDDF GT PUSH2 0x116 JUMPI DUP1 PUSH4 0xC7876434 GT PUSH2 0xB4 JUMPI DUP1 PUSH4 0xF222B579 GT PUSH2 0x8E JUMPI DUP1 PUSH4 0xF222B579 EQ PUSH2 0x363 JUMPI DUP1 PUSH4 0xF2FDE38B EQ PUSH2 0x36B JUMPI DUP1 PUSH4 0xFA0C3AB8 EQ PUSH2 0x37E JUMPI DUP1 PUSH4 0xFFD7E4E7 EQ PUSH2 0x386 JUMPI PUSH1 0x0 DUP1 REVERT JUMPDEST DUP1 PUSH4 0xC7876434 EQ PUSH2 0x321 JUMPI DUP1 PUSH4 0xD391014B EQ PUSH2 0x329 JUMPI DUP1 PUSH4 0xD547741F EQ PUSH2 0x350 JUMPI PUSH1 0x0 DUP1 REVERT JUMPDEST DUP1 PUSH4 0xB1C78EBC GT PUSH2 0xF0 JUMPI DUP1 PUSH4 0xB1C78EBC EQ PUSH2 0x309 JUMPI DUP1 PUSH4 0xB49CD0F7 EQ PUSH2 0x206 JUMPI DUP1 PUSH4 0xC360A03B EQ PUSH2 0x311 JUMPI DUP1 PUSH4 0xC363091C EQ PUSH2 0x319 JUMPI PUSH1 0x0 DUP1 REVERT JUMPDEST DUP1 PUSH4 0xA217FDDF EQ PUSH2 0x2F2 JUMPI DUP1 PUSH4 0xA791E09B EQ PUSH2 0x2FA JUMPI DUP1 PUSH4 0xAE60BB23 EQ PUSH2 0x301 JUMPI PUSH1 0x0 DUP1 REVERT JUMPDEST DUP1 PUSH4 0x36568ABE GT PUSH2 0x183 JUMPI DUP1 PUSH4 0x715018A6 GT PUSH2 0x15D JUMPI DUP1 PUSH4 0x715018A6 EQ PUSH2 0x29D JUMPI DUP1 PUSH4 0x8356E8E1 EQ PUSH2 0x2A5 JUMPI DUP1 PUSH4 0x8DA5CB5B EQ PUSH2 0x2BA JUMPI DUP1 PUSH4 0x91D14854 EQ PUSH2 0x2DF JUMPI PUSH1 0x0 DUP1 REVERT JUMPDEST DUP1 PUSH4 0x36568ABE EQ PUSH2 0x26A JUMPI DUP1 PUSH4 0x5792FEBF EQ PUSH2 0x27D JUMPI DUP1 PUSH4 0x61C78CCE EQ PUSH2 0x285 JUMPI PUSH1 0x0 DUP1 REVERT JUMPDEST DUP1 PUSH4 0x1FFC9A7 EQ PUSH2 0x1CB JUMPI DUP1 PUSH4 0x21606831 EQ PUSH2 0x1F3 JUMPI DUP1 PUSH4 0x226839BA EQ PUSH2 0x208 JUMPI DUP1 PUSH4 0x248A9CA3 EQ PUSH2 0x21D JUMPI DUP1 PUSH4 0x2B553FB4 EQ PUSH2 0x24F JUMPI DUP1 PUSH4 0x2F2FF15D EQ PUSH2 0x257 JUMPI JUMPDEST PUSH1 0x0 DUP1 REVERT JUMPDEST PUSH2 0x1DE PUSH2 0x1D9 CALLDATASIZE PUSH1 0x4 PUSH2 0x1194 JUMP JUMPDEST PUSH2 0x38E JUMP JUMPDEST PUSH1 0x40 MLOAD SWAP1 ISZERO ISZERO DUP2 MSTORE PUSH1 0x20 ADD JUMPDEST PUSH1 0x40 MLOAD DUP1 SWAP2 SUB SWAP1 RETURN JUMPDEST PUSH2 0x206 PUSH2 0x201 CALLDATASIZE PUSH1 0x4 PUSH2 0x114F JUMP JUMPDEST PUSH2 0x421 JUMP JUMPDEST STOP JUMPDEST PUSH2 0x210 PUSH2 0x51A JUMP JUMPDEST PUSH1 0x40 MLOAD PUSH2 0x1EA SWAP2 SWAP1 PUSH2 0x1280 JUMP JUMPDEST PUSH2 0x241 PUSH2 0x22B CALLDATASIZE PUSH1 0x4 PUSH2 0x114F JUMP JUMPDEST PUSH1 0x0 SWAP1 DUP2 MSTORE PUSH1 0x1 PUSH1 0x20 DUP2 SWAP1 MSTORE PUSH1 0x40 SWAP1 SWAP2 KECCAK256 ADD SLOAD SWAP1 JUMP JUMPDEST PUSH1 0x40 MLOAD SWAP1 DUP2 MSTORE PUSH1 0x20 ADD PUSH2 0x1EA JUMP JUMPDEST PUSH2 0x206 PUSH2 0x5E1 JUMP JUMPDEST PUSH2 0x206 PUSH2 0x265 CALLDATASIZE PUSH1 0x4 PUSH2 0x1168 JUMP JUMPDEST PUSH2 0x5EB JUMP JUMPDEST PUSH2 0x206 PUSH2 0x278 CALLDATASIZE PUSH1 0x4 PUSH2 0x1168 JUMP JUMPDEST PUSH2 0x616 JUMP JUMPDEST PUSH2 0x241 PUSH2 0x6A5 JUMP JUMPDEST PUSH2 0x28D PUSH2 0x738 JUMP JUMPDEST PUSH1 0x40 MLOAD PUSH2 0x1EA SWAP5 SWAP4 SWAP3 SWAP2 SWAP1 PUSH2 0x1293 JUMP JUMPDEST PUSH2 0x206 PUSH2 0x7E3 JUMP JUMPDEST PUSH2 0x241 PUSH1 0x0 DUP1 MLOAD PUSH1 0x20 PUSH2 0x13EF DUP4 CODECOPY DUP2 MLOAD SWAP2 MSTORE DUP2 JUMP JUMPDEST PUSH1 0x0 SLOAD PUSH1 0x1 PUSH1 0xA0 PUSH1 0x2 EXP SUB AND JUMPDEST PUSH1 0x40 MLOAD PUSH1 0x1 PUSH1 0xA0 PUSH1 0x2 EXP SUB SWAP1 SWAP2 AND DUP2 MSTORE PUSH1 0x20 ADD PUSH2 0x1EA JUMP JUMPDEST PUSH2 0x1DE PUSH2 0x2ED CALLDATASIZE PUSH1 0x4 PUSH2 0x1168 JUMP JUMPDEST PUSH2 0x7F5 JUMP JUMPDEST PUSH2 0x241 PUSH1 0x0 DUP2 JUMP JUMPDEST PUSH1 0x3C PUSH2 0x241 JUMP JUMPDEST PUSH2 0x210 PUSH2 0x820 JUMP JUMPDEST PUSH2 0x210 PUSH2 0x8AE JUMP JUMPDEST PUSH2 0x2C7 PUSH2 0x8BB JUMP JUMPDEST PUSH2 0x1DE PUSH2 0x91A JUMP JUMPDEST PUSH2 0x1DE PUSH2 0x989 JUMP JUMPDEST PUSH2 0x241 PUSH32 0x2172861495E7B85EDAC73E3CD5FBB42DD675BAADF627720E687BCFDACA025096 DUP2 JUMP JUMPDEST PUSH2 0x206 PUSH2 0x35E CALLDATASIZE PUSH1 0x4 PUSH2 0x1168 JUMP JUMPDEST PUSH2 0x9F2 JUMP JUMPDEST PUSH2 0x28D PUSH2 0xA18 JUMP JUMPDEST PUSH2 0x206 PUSH2 0x379 CALLDATASIZE PUSH1 0x4 PUSH2 0x1134 JUMP JUMPDEST PUSH2 0xA3A JUMP JUMPDEST PUSH2 0x28D PUSH2 0xACA JUMP JUMPDEST PUSH2 0x210 PUSH2 0xAEC JUMP JUMPDEST PUSH1 0x0 PUSH28 0xFFFFFFFFFFFFFFFFFFFFFFFFFFFFFFFFFFFFFFFFFFFFFFFFFFFFFFFF NOT DUP3 AND PUSH32 0x7965DB0B00000000000000000000000000000000000000000000000000000000 EQ DUP1 PUSH2 0x41B JUMPI POP PUSH32 0x1FFC9A700000000000000000000000000000000000000000000000000000000 PUSH28 0xFFFFFFFFFFFFFFFFFFFFFFFFFFFFFFFFFFFFFFFFFFFFFFFFFFFFFFFF NOT DUP4 AND EQ JUMPDEST SWAP3 SWAP2 POP POP JUMP JUMPDEST CALLER PUSH1 0x0 SWAP1 DUP2 MSTORE PUSH1 0x5 PUSH1 0x20 MSTORE PUSH1 0x40 SWAP1 KECCAK256 SLOAD PUSH2 0x100 SWAP1 DIV PUSH1 0xFF AND PUSH2 0x48D JUMPI PUSH1 0x40 MLOAD PUSH1 0xE5 PUSH1 0x2 EXP PUSH3 0x461BCD MUL DUP2 MSTORE PUSH1 0x20 PUSH1 0x4 DUP3 ADD MSTORE PUSH1 0xF PUSH1 0x24 DUP3 ADD MSTORE PUSH32 0x4E6F2070756564657320766F7461720000000000000000000000000000000000 PUSH1 0x44 DUP3 ADD MSTORE PUSH1 0x64 ADD JUMPDEST PUSH1 0x40 MLOAD DUP1 SWAP2 SUB SWAP1 REVERT JUMPDEST CALLER PUSH1 0x0 SWAP1 DUP2 MSTORE PUSH1 0x5 PUSH1 0x20 MSTORE PUSH1 0x40 SWAP1 KECCAK256 DUP1 SLOAD PUSH1 0xFF NOT AND PUSH1 0x1 SWAP1 DUP2 OR SWAP1 SWAP2 SSTORE DUP2 EQ ISZERO PUSH2 0x4CD JUMPI PUSH1 0x1 PUSH1 0x6 PUSH1 0x3 ADD PUSH1 0x0 DUP3 DUP3 SLOAD PUSH2 0x4C7 SWAP2 SWAP1 PUSH2 0x12CC JUMP JUMPDEST SWAP1 SWAP2 SSTORE POP POP JUMPDEST DUP1 PUSH1 0x2 EQ ISZERO PUSH2 0x4F2 JUMPI PUSH1 0x1 PUSH1 0xA PUSH1 0x3 ADD PUSH1 0x0 DUP3 DUP3 SLOAD PUSH2 0x4EC SWAP2 SWAP1 PUSH2 0x12CC JUMP JUMPDEST SWAP1 SWAP2 SSTORE POP POP JUMPDEST DUP1 PUSH1 0x3 EQ ISZERO PUSH2 0x517 JUMPI PUSH1 0x1 PUSH1 0xE PUSH1 0x3 ADD PUSH1 0x0 DUP3 DUP3 SLOAD PUSH2 0x511 SWAP2 SWAP1 PUSH2 0x12CC JUMP JUMPDEST SWAP1 SWAP2 SSTORE POP POP JUMPDEST POP JUMP JUMPDEST PUSH1 0x60 PUSH2 0x534 PUSH1 0x0 DUP1 MLOAD PUSH1 0x20 PUSH2 0x13EF DUP4 CODECOPY DUP2 MLOAD SWAP2 MSTORE CALLER PUSH2 0x7F5 JUMP JUMPDEST PUSH2 0x5A9 JUMPI PUSH1 0x40 MLOAD PUSH1 0xE5 PUSH1 0x2 EXP PUSH3 0x461BCD MUL DUP2 MSTORE PUSH1 0x20 PUSH1 0x4 DUP3 ADD MSTORE PUSH1 0x2E PUSH1 0x24 DUP3 ADD MSTORE PUSH32 0x536F6C6F206C617320766F6C74616E7465207075656465206461727465206465 PUSH1 0x44 DUP3 ADD MSTORE PUSH32 0x726563686F20616C20566F746F2E000000000000000000000000000000000000 PUSH1 0x64 DUP3 ADD MSTORE PUSH1 0x84 ADD PUSH2 0x484 JUMP JUMPDEST POP PUSH1 0x40 DUP1 MLOAD DUP1 DUP3 ADD SWAP1 SWAP2 MSTORE PUSH1 0x13 DUP2 MSTORE PUSH32 0x456C20766F74616E746520796120766F746F2E00000000000000000000000000 PUSH1 0x20 DUP3 ADD MSTORE SWAP1 JUMP JUMPDEST PUSH2 0x5E9 PUSH2 0xCCA JUMP JUMPDEST JUMP JUMPDEST PUSH1 0x0 DUP3 DUP2 MSTORE PUSH1 0x1 PUSH1 0x20 DUP2 SWAP1 MSTORE PUSH1 0x40 SWAP1 SWAP2 KECCAK256 ADD SLOAD PUSH2 0x607 DUP2 PUSH2 0xD27 JUMP JUMPDEST PUSH2 0x611 DUP4 DUP4 PUSH2 0xD31 JUMP JUMPDEST POP POP POP JUMP JUMPDEST PUSH1 0x1 PUSH1 0xA0 PUSH1 0x2 EXP SUB DUP2 AND CALLER EQ PUSH2 0x697 JUMPI PUSH1 0x40 MLOAD PUSH1 0xE5 PUSH1 0x2 EXP PUSH3 0x461BCD MUL DUP2 MSTORE PUSH1 0x20 PUSH1 0x4 DUP3 ADD MSTORE PUSH1 0x2F PUSH1 0x24 DUP3 ADD MSTORE PUSH32 0x416363657373436F6E74726F6C3A2063616E206F6E6C792072656E6F756E6365 PUSH1 0x44 DUP3 ADD MSTORE PUSH32 0x20726F6C657320666F722073656C660000000000000000000000000000000000 PUSH1 0x64 DUP3 ADD MSTORE PUSH1 0x84 ADD PUSH2 0x484 JUMP JUMPDEST PUSH2 0x6A1 DUP3 DUP3 PUSH2 0xD9C JUMP JUMPDEST POP POP JUMP JUMPDEST PUSH1 0x0 DUP1 DUP1 JUMPDEST PUSH1 0x3 DUP2 GT PUSH2 0x733 JUMPI PUSH1 0xD SLOAD PUSH1 0x9 SLOAD GT DUP1 ISZERO PUSH2 0x6C8 JUMPI POP PUSH1 0x11 SLOAD PUSH1 0x9 SLOAD GT JUMPDEST ISZERO PUSH2 0x6D7 JUMPI PUSH1 0x9 SLOAD PUSH1 0x1 SWAP4 POP SWAP2 POP JUMPDEST PUSH1 0x9 SLOAD PUSH1 0xD SLOAD GT DUP1 ISZERO PUSH2 0x6ED JUMPI POP PUSH1 0x11 SLOAD PUSH1 0xD SLOAD GT JUMPDEST ISZERO PUSH2 0x6FC JUMPI PUSH1 0xD SLOAD PUSH1 0x2 SWAP4 POP SWAP2 POP JUMPDEST PUSH1 0x9 SLOAD PUSH1 0x11 SLOAD GT DUP1 ISZERO PUSH2 0x712 JUMPI POP PUSH1 0xD SLOAD PUSH1 0x11 SLOAD GT JUMPDEST ISZERO PUSH2 0x721 JUMPI PUSH1 0x11 SLOAD PUSH1 0x3 SWAP4 POP SWAP2 POP JUMPDEST DUP1 PUSH2 0x72B DUP2 PUSH2 0x1388 JUMP JUMPDEST SWAP2 POP POP PUSH2 0x6AA JUMP JUMPDEST POP POP SWAP1 JUMP JUMPDEST PUSH1 0xA DUP1 SLOAD PUSH1 0xB SLOAD PUSH1 0xC DUP1 SLOAD SWAP3 SWAP4 PUSH1 0x1 PUSH1 0xA0 PUSH1 0x2 EXP SUB SWAP1 SWAP3 AND SWAP3 PUSH2 0x75A SWAP1 PUSH2 0x134A JUMP JUMPDEST DUP1 PUSH1 0x1F ADD PUSH1 0x20 DUP1 SWAP2 DIV MUL PUSH1 0x20 ADD PUSH1 0x40 MLOAD SWAP1 DUP2 ADD PUSH1 0x40 MSTORE DUP1 SWAP3 SWAP2 SWAP1 DUP2 DUP2 MSTORE PUSH1 0x20 ADD DUP3 DUP1 SLOAD PUSH2 0x786 SWAP1 PUSH2 0x134A JUMP JUMPDEST DUP1 ISZERO PUSH2 0x7D3 JUMPI DUP1 PUSH1 0x1F LT PUSH2 0x7A8 JUMPI PUSH2 0x100 DUP1 DUP4 SLOAD DIV MUL DUP4 MSTORE SWAP2 PUSH1 0x20 ADD SWAP2 PUSH2 0x7D3 JUMP JUMPDEST DUP3 ADD SWAP2 SWAP1 PUSH1 0x0 MSTORE PUSH1 0x20 PUSH1 0x0 KECCAK256 SWAP1 JUMPDEST DUP2 SLOAD DUP2 MSTORE SWAP1 PUSH1 0x1 ADD SWAP1 PUSH1 0x20 ADD DUP1 DUP4 GT PUSH2 0x7B6 JUMPI DUP3 SWAP1 SUB PUSH1 0x1F AND DUP3 ADD SWAP2 JUMPDEST POP POP POP POP POP SWAP1 DUP1 PUSH1 0x3 ADD SLOAD SWAP1 POP DUP5 JUMP JUMPDEST PUSH2 0x7EB PUSH2 0xCCA JUMP JUMPDEST PUSH2 0x5E9 PUSH1 0x0 PUSH2 0xE03 JUMP JUMPDEST PUSH1 0x0 SWAP2 DUP3 MSTORE PUSH1 0x1 PUSH1 0x20 SWAP1 DUP2 MSTORE PUSH1 0x40 DUP1 DUP5 KECCAK256 PUSH1 0x1 PUSH1 0xA0 PUSH1 0x2 EXP SUB SWAP4 SWAP1 SWAP4 AND DUP5 MSTORE SWAP2 SWAP1 MSTORE SWAP1 KECCAK256 SLOAD PUSH1 0xFF AND SWAP1 JUMP JUMPDEST PUSH1 0x4 DUP1 SLOAD PUSH2 0x82D SWAP1 PUSH2 0x134A JUMP JUMPDEST DUP1 PUSH1 0x1F ADD PUSH1 0x20 DUP1 SWAP2 DIV MUL PUSH1 0x20 ADD PUSH1 0x40 MLOAD SWAP1 DUP2 ADD PUSH1 0x40 MSTORE DUP1 SWAP3 SWAP2 SWAP1 DUP2 DUP2 MSTORE PUSH1 0x20 ADD DUP3 DUP1 SLOAD PUSH2 0x859 SWAP1 PUSH2 0x134A JUMP JUMPDEST DUP1 ISZERO PUSH2 0x8A6 JUMPI DUP1 PUSH1 0x1F LT PUSH2 0x87B JUMPI PUSH2 0x100 DUP1 DUP4 SLOAD DIV MUL DUP4 MSTORE SWAP2 PUSH1 0x20 ADD SWAP2 PUSH2 0x8A6 JUMP JUMPDEST DUP3 ADD SWAP2 SWAP1 PUSH1 0x0 MSTORE PUSH1 0x20 PUSH1 0x0 KECCAK256 SWAP1 JUMPDEST DUP2 SLOAD DUP2 MSTORE SWAP1 PUSH1 0x1 ADD SWAP1 PUSH1 0x20 ADD DUP1 DUP4 GT PUSH2 0x889 JUMPI DUP3 SWAP1 SUB PUSH1 0x1F AND DUP3 ADD SWAP2 JUMPDEST POP POP POP POP POP DUP2 JUMP JUMPDEST PUSH1 0x3 DUP1 SLOAD PUSH2 0x82D SWAP1 PUSH2 0x134A JUMP JUMPDEST PUSH1 0x0 PUSH2 0x8C5 PUSH2 0x6A5 JUMP JUMPDEST PUSH1 0x1 EQ ISZERO PUSH2 0x8DB JUMPI POP PUSH1 0x7 SLOAD PUSH1 0x1 PUSH1 0xA0 PUSH1 0x2 EXP SUB AND JUMPDEST PUSH2 0x8E3 PUSH2 0x6A5 JUMP JUMPDEST PUSH1 0x2 EQ ISZERO PUSH2 0x8F9 JUMPI POP PUSH1 0xB SLOAD PUSH1 0x1 PUSH1 0xA0 PUSH1 0x2 EXP SUB AND JUMPDEST PUSH2 0x901 PUSH2 0x6A5 JUMP JUMPDEST PUSH1 0x3 EQ ISZERO PUSH2 0x917 JUMPI POP PUSH1 0xF SLOAD PUSH1 0x1 PUSH1 0xA0 PUSH1 0x2 EXP SUB AND JUMPDEST SWAP1 JUMP JUMPDEST PUSH1 0x0 PUSH2 0x934 PUSH1 0x0 DUP1 MLOAD PUSH1 0x20 PUSH2 0x13EF DUP4 CODECOPY DUP2 MLOAD SWAP2 MSTORE CALLER PUSH2 0x7F5 JUMP JUMPDEST PUSH2 0x983 JUMPI PUSH1 0x40 MLOAD PUSH1 0xE5 PUSH1 0x2 EXP PUSH3 0x461BCD MUL DUP2 MSTORE PUSH1 0x20 PUSH1 0x4 DUP3 ADD MSTORE PUSH1 0x8 PUSH1 0x24 DUP3 ADD MSTORE PUSH32 0x4E6F20566F746F21000000000000000000000000000000000000000000000000 PUSH1 0x44 DUP3 ADD MSTORE PUSH1 0x64 ADD PUSH2 0x484 JUMP JUMPDEST POP PUSH1 0x1 SWAP1 JUMP JUMPDEST PUSH1 0x0 PUSH2 0x9A3 PUSH1 0x0 DUP1 MLOAD PUSH1 0x20 PUSH2 0x13EF DUP4 CODECOPY DUP2 MLOAD SWAP2 MSTORE CALLER PUSH2 0x7F5 JUMP JUMPDEST PUSH2 0x983 JUMPI PUSH1 0x40 MLOAD PUSH1 0xE5 PUSH1 0x2 EXP PUSH3 0x461BCD MUL DUP2 MSTORE PUSH1 0x20 PUSH1 0x4 DUP3 ADD MSTORE PUSH1 0xE PUSH1 0x24 DUP3 ADD MSTORE PUSH32 0x54752070756564657320766F746F000000000000000000000000000000000000 PUSH1 0x44 DUP3 ADD MSTORE PUSH1 0x64 ADD PUSH2 0x484 JUMP JUMPDEST PUSH1 0x0 DUP3 DUP2 MSTORE PUSH1 0x1 PUSH1 0x20 DUP2 SWAP1 MSTORE PUSH1 0x40 SWAP1 SWAP2 KECCAK256 ADD SLOAD PUSH2 0xA0E DUP2 PUSH2 0xD27 JUMP JUMPDEST PUSH2 0x611 DUP4 DUP4 PUSH2 0xD9C JUMP JUMPDEST PUSH1 0xE DUP1 SLOAD PUSH1 0xF SLOAD PUSH1 0x10 DUP1 SLOAD SWAP3 SWAP4 PUSH1 0x1 PUSH1 0xA0 PUSH1 0x2 EXP SUB SWAP1 SWAP3 AND SWAP3 PUSH2 0x75A SWAP1 PUSH2 0x134A JUMP JUMPDEST PUSH2 0xA42 PUSH2 0xCCA JUMP JUMPDEST PUSH1 0x1 PUSH1 0xA0 PUSH1 0x2 EXP SUB DUP2 AND PUSH2 0xAC1 JUMPI PUSH1 0x40 MLOAD PUSH1 0xE5 PUSH1 0x2 EXP PUSH3 0x461BCD MUL DUP2 MSTORE PUSH1 0x20 PUSH1 0x4 DUP3 ADD MSTORE PUSH1 0x26 PUSH1 0x24 DUP3 ADD MSTORE PUSH32 0x4F776E61626C653A206E6577206F776E657220697320746865207A65726F2061 PUSH1 0x44 DUP3 ADD MSTORE PUSH32 0x6464726573730000000000000000000000000000000000000000000000000000 PUSH1 0x64 DUP3 ADD MSTORE PUSH1 0x84 ADD PUSH2 0x484 JUMP JUMPDEST PUSH2 0x517 DUP2 PUSH2 0xE03 JUMP JUMPDEST PUSH1 0x6 DUP1 SLOAD PUSH1 0x7 SLOAD PUSH1 0x8 DUP1 SLOAD SWAP3 SWAP4 PUSH1 0x1 PUSH1 0xA0 PUSH1 0x2 EXP SUB SWAP1 SWAP3 AND SWAP3 PUSH2 0x75A SWAP1 PUSH2 0x134A JUMP JUMPDEST PUSH1 0x60 PUSH2 0xAF6 PUSH2 0x6A5 JUMP JUMPDEST PUSH1 0x1 EQ ISZERO PUSH2 0xB8C JUMPI PUSH1 0x8 DUP1 SLOAD PUSH2 0xB0B SWAP1 PUSH2 0x134A JUMP JUMPDEST DUP1 PUSH1 0x1F ADD PUSH1 0x20 DUP1 SWAP2 DIV MUL PUSH1 0x20 ADD PUSH1 0x40 MLOAD SWAP1 DUP2 ADD PUSH1 0x40 MSTORE DUP1 SWAP3 SWAP2 SWAP1 DUP2 DUP2 MSTORE PUSH1 0x20 ADD DUP3 DUP1 SLOAD PUSH2 0xB37 SWAP1 PUSH2 0x134A JUMP JUMPDEST DUP1 ISZERO PUSH2 0xB84 JUMPI DUP1 PUSH1 0x1F LT PUSH2 0xB59 JUMPI PUSH2 0x100 DUP1 DUP4 SLOAD DIV MUL DUP4 MSTORE SWAP2 PUSH1 0x20 ADD SWAP2 PUSH2 0xB84 JUMP JUMPDEST DUP3 ADD SWAP2 SWAP1 PUSH1 0x0 MSTORE PUSH1 0x20 PUSH1 0x0 KECCAK256 SWAP1 JUMPDEST DUP2 SLOAD DUP2 MSTORE SWAP1 PUSH1 0x1 ADD SWAP1 PUSH1 0x20 ADD DUP1 DUP4 GT PUSH2 0xB67 JUMPI DUP3 SWAP1 SUB PUSH1 0x1F AND DUP3 ADD SWAP2 JUMPDEST POP POP POP POP POP SWAP1 POP JUMPDEST PUSH2 0xB94 PUSH2 0x6A5 JUMP JUMPDEST PUSH1 0x2 EQ ISZERO PUSH2 0xC2A JUMPI PUSH1 0xC DUP1 SLOAD PUSH2 0xBA9 SWAP1 PUSH2 0x134A JUMP JUMPDEST DUP1 PUSH1 0x1F ADD PUSH1 0x20 DUP1 SWAP2 DIV MUL PUSH1 0x20 ADD PUSH1 0x40 MLOAD SWAP1 DUP2 ADD PUSH1 0x40 MSTORE DUP1 SWAP3 SWAP2 SWAP1 DUP2 DUP2 MSTORE PUSH1 0x20 ADD DUP3 DUP1 SLOAD PUSH2 0xBD5 SWAP1 PUSH2 0x134A JUMP JUMPDEST DUP1 ISZERO PUSH2 0xC22 JUMPI DUP1 PUSH1 0x1F LT PUSH2 0xBF7 JUMPI PUSH2 0x100 DUP1 DUP4 SLOAD DIV MUL DUP4 MSTORE SWAP2 PUSH1 0x20 ADD SWAP2 PUSH2 0xC22 JUMP JUMPDEST DUP3 ADD SWAP2 SWAP1 PUSH1 0x0 MSTORE PUSH1 0x20 PUSH1 0x0 KECCAK256 SWAP1 JUMPDEST DUP2 SLOAD DUP2 MSTORE SWAP1 PUSH1 0x1 ADD SWAP1 PUSH1 0x20 ADD DUP1 DUP4 GT PUSH2 0xC05 JUMPI DUP3 SWAP1 SUB PUSH1 0x1F AND DUP3 ADD SWAP2 JUMPDEST POP POP POP POP POP SWAP1 POP JUMPDEST PUSH2 0xC32 PUSH2 0x6A5 JUMP JUMPDEST PUSH1 0x3 EQ ISZERO PUSH2 0x917 JUMPI PUSH1 0x10 DUP1 SLOAD PUSH2 0xC47 SWAP1 PUSH2 0x134A JUMP JUMPDEST DUP1 PUSH1 0x1F ADD PUSH1 0x20 DUP1 SWAP2 DIV MUL PUSH1 0x20 ADD PUSH1 0x40 MLOAD SWAP1 DUP2 ADD PUSH1 0x40 MSTORE DUP1 SWAP3 SWAP2 SWAP1 DUP2 DUP2 MSTORE PUSH1 0x20 ADD DUP3 DUP1 SLOAD PUSH2 0xC73 SWAP1 PUSH2 0x134A JUMP JUMPDEST DUP1 ISZERO PUSH2 0xCC0 JUMPI DUP1 PUSH1 0x1F LT PUSH2 0xC95 JUMPI PUSH2 0x100 DUP1 DUP4 SLOAD DIV MUL DUP4 MSTORE SWAP2 PUSH1 0x20 ADD SWAP2 PUSH2 0xCC0 JUMP JUMPDEST DUP3 ADD SWAP2 SWAP1 PUSH1 0x0 MSTORE PUSH1 0x20 PUSH1 0x0 KECCAK256 SWAP1 JUMPDEST DUP2 SLOAD DUP2 MSTORE SWAP1 PUSH1 0x1 ADD SWAP1 PUSH1 0x20 ADD DUP1 DUP4 GT PUSH2 0xCA3 JUMPI DUP3 SWAP1 SUB PUSH1 0x1F AND DUP3 ADD SWAP2 JUMPDEST POP POP POP POP POP SWAP1 POP SWAP1 JUMP JUMPDEST PUSH1 0x0 SLOAD PUSH1 0x1 PUSH1 0xA0 PUSH1 0x2 EXP SUB AND CALLER EQ PUSH2 0x5E9 JUMPI PUSH1 0x40 MLOAD PUSH1 0xE5 PUSH1 0x2 EXP PUSH3 0x461BCD MUL DUP2 MSTORE PUSH1 0x20 PUSH1 0x4 DUP3 ADD DUP2 SWAP1 MSTORE PUSH1 0x24 DUP3 ADD MSTORE PUSH32 0x4F776E61626C653A2063616C6C6572206973206E6F7420746865206F776E6572 PUSH1 0x44 DUP3 ADD MSTORE PUSH1 0x64 ADD PUSH2 0x484 JUMP JUMPDEST PUSH2 0x517 DUP2 CALLER PUSH2 0xE60 JUMP JUMPDEST PUSH2 0xD3B DUP3 DUP3 PUSH2 0x7F5 JUMP JUMPDEST PUSH2 0x6A1 JUMPI PUSH1 0x0 DUP3 DUP2 MSTORE PUSH1 0x1 PUSH1 0x20 DUP2 DUP2 MSTORE PUSH1 0x40 DUP1 DUP5 KECCAK256 PUSH1 0x1 PUSH1 0xA0 PUSH1 0x2 EXP SUB DUP7 AND DUP1 DUP7 MSTORE SWAP3 MSTORE DUP1 DUP5 KECCAK256 DUP1 SLOAD PUSH1 0xFF NOT AND SWAP1 SWAP4 OR SWAP1 SWAP3 SSTORE SWAP1 MLOAD CALLER SWAP3 DUP6 SWAP2 PUSH32 0x2F8788117E7EFF1D82E926EC794901D17C78024A50270940304540A733656F0D SWAP2 SWAP1 LOG4 POP POP JUMP JUMPDEST PUSH2 0xDA6 DUP3 DUP3 PUSH2 0x7F5 JUMP JUMPDEST ISZERO PUSH2 0x6A1 JUMPI PUSH1 0x0 DUP3 DUP2 MSTORE PUSH1 0x1 PUSH1 0x20 SWAP1 DUP2 MSTORE PUSH1 0x40 DUP1 DUP4 KECCAK256 PUSH1 0x1 PUSH1 0xA0 PUSH1 0x2 EXP SUB DUP6 AND DUP1 DUP6 MSTORE SWAP3 MSTORE DUP1 DUP4 KECCAK256 DUP1 SLOAD PUSH1 0xFF NOT AND SWAP1 SSTORE MLOAD CALLER SWAP3 DUP6 SWAP2 PUSH32 0xF6391F5C32D9C69D2A47EA670B442974B53935D1EDC7FD64EB21E047A839171B SWAP2 SWAP1 LOG4 POP POP JUMP JUMPDEST PUSH1 0x0 DUP1 SLOAD PUSH1 0x1 PUSH1 0xA0 PUSH1 0x2 EXP SUB DUP4 DUP2 AND PUSH20 0xFFFFFFFFFFFFFFFFFFFFFFFFFFFFFFFFFFFFFFFF NOT DUP4 AND DUP2 OR DUP5 SSTORE PUSH1 0x40 MLOAD SWAP2 SWAP1 SWAP3 AND SWAP3 DUP4 SWAP2 PUSH32 0x8BE0079C531659141344CD1FD0A4F28419497F9722A3DAAFE3B4186F6B6457E0 SWAP2 SWAP1 LOG3 POP POP JUMP JUMPDEST PUSH2 0xE6A DUP3 DUP3 PUSH2 0x7F5 JUMP JUMPDEST PUSH2 0x6A1 JUMPI PUSH2 0xE82 DUP2 PUSH1 0x1 PUSH1 0xA0 PUSH1 0x2 EXP SUB AND PUSH1 0x14 PUSH2 0xEC7 JUMP JUMPDEST PUSH2 0xE8D DUP4 PUSH1 0x20 PUSH2 0xEC7 JUMP JUMPDEST PUSH1 0x40 MLOAD PUSH1 0x20 ADD PUSH2 0xE9E SWAP3 SWAP2 SWAP1 PUSH2 0x11FF JUMP JUMPDEST PUSH1 0x40 DUP1 MLOAD PUSH1 0x1F NOT DUP2 DUP5 SUB ADD DUP2 MSTORE SWAP1 DUP3 SWAP1 MSTORE PUSH1 0xE5 PUSH1 0x2 EXP PUSH3 0x461BCD MUL DUP3 MSTORE PUSH2 0x484 SWAP2 PUSH1 0x4 ADD PUSH2 0x1280 JUMP JUMPDEST PUSH1 0x60 PUSH1 0x0 PUSH2 0xED6 DUP4 PUSH1 0x2 PUSH2 0x12E4 JUMP JUMPDEST PUSH2 0xEE1 SWAP1 PUSH1 0x2 PUSH2 0x12CC JUMP JUMPDEST PUSH8 0xFFFFFFFFFFFFFFFF DUP2 GT ISZERO PUSH2 0xEF9 JUMPI PUSH2 0xEF9 PUSH2 0x13D5 JUMP JUMPDEST PUSH1 0x40 MLOAD SWAP1 DUP1 DUP3 MSTORE DUP1 PUSH1 0x1F ADD PUSH1 0x1F NOT AND PUSH1 0x20 ADD DUP3 ADD PUSH1 0x40 MSTORE DUP1 ISZERO PUSH2 0xF23 JUMPI PUSH1 0x20 DUP3 ADD DUP2 DUP1 CALLDATASIZE DUP4 CALLDATACOPY ADD SWAP1 POP JUMPDEST POP SWAP1 POP PUSH32 0x3000000000000000000000000000000000000000000000000000000000000000 DUP2 PUSH1 0x0 DUP2 MLOAD DUP2 LT PUSH2 0xF5A JUMPI PUSH2 0xF5A PUSH2 0x13BC JUMP JUMPDEST PUSH1 0x20 ADD ADD SWAP1 PUSH31 0xFFFFFFFFFFFFFFFFFFFFFFFFFFFFFFFFFFFFFFFFFFFFFFFFFFFFFFFFFFFFFF NOT AND SWAP1 DUP2 PUSH1 0x0 BYTE SWAP1 MSTORE8 POP PUSH32 0x7800000000000000000000000000000000000000000000000000000000000000 DUP2 PUSH1 0x1 DUP2 MLOAD DUP2 LT PUSH2 0xFBD JUMPI PUSH2 0xFBD PUSH2 0x13BC JUMP JUMPDEST PUSH1 0x20 ADD ADD SWAP1 PUSH31 0xFFFFFFFFFFFFFFFFFFFFFFFFFFFFFFFFFFFFFFFFFFFFFFFFFFFFFFFFFFFFFF NOT AND SWAP1 DUP2 PUSH1 0x0 BYTE SWAP1 MSTORE8 POP PUSH1 0x0 PUSH2 0xFF9 DUP5 PUSH1 0x2 PUSH2 0x12E4 JUMP JUMPDEST PUSH2 0x1004 SWAP1 PUSH1 0x1 PUSH2 0x12CC JUMP JUMPDEST SWAP1 POP JUMPDEST PUSH1 0x1 DUP2 GT ISZERO PUSH2 0x10BF JUMPI PUSH32 0x3031323334353637383961626364656600000000000000000000000000000000 DUP6 PUSH1 0xF AND PUSH1 0x10 DUP2 LT PUSH2 0x1045 JUMPI PUSH2 0x1045 PUSH2 0x13BC JUMP JUMPDEST BYTE PUSH32 0x100000000000000000000000000000000000000000000000000000000000000 MUL DUP3 DUP3 DUP2 MLOAD DUP2 LT PUSH2 0x107A JUMPI PUSH2 0x107A PUSH2 0x13BC JUMP JUMPDEST PUSH1 0x20 ADD ADD SWAP1 PUSH31 0xFFFFFFFFFFFFFFFFFFFFFFFFFFFFFFFFFFFFFFFFFFFFFFFFFFFFFFFFFFFFFF NOT AND SWAP1 DUP2 PUSH1 0x0 BYTE SWAP1 MSTORE8 POP PUSH1 0x10 SWAP1 SWAP5 DIV SWAP4 PUSH2 0x10B8 DUP2 PUSH2 0x1333 JUMP JUMPDEST SWAP1 POP PUSH2 0x1007 JUMP JUMPDEST POP DUP4 ISZERO PUSH2 0x1111 JUMPI PUSH1 0x40 MLOAD PUSH1 0xE5 PUSH1 0x2 EXP PUSH3 0x461BCD MUL DUP2 MSTORE PUSH1 0x20 PUSH1 0x4 DUP3 ADD DUP2 SWAP1 MSTORE PUSH1 0x24 DUP3 ADD MSTORE PUSH32 0x537472696E67733A20686578206C656E67746820696E73756666696369656E74 PUSH1 0x44 DUP3 ADD MSTORE PUSH1 0x64 ADD PUSH2 0x484 JUMP JUMPDEST SWAP4 SWAP3 POP POP POP JUMP JUMPDEST DUP1 CALLDATALOAD PUSH1 0x1 PUSH1 0xA0 PUSH1 0x2 EXP SUB DUP2 AND DUP2 EQ PUSH2 0x112F JUMPI PUSH1 0x0 DUP1 REVERT JUMPDEST SWAP2 SWAP1 POP JUMP JUMPDEST PUSH1 0x0 PUSH1 0x20 DUP3 DUP5 SUB SLT ISZERO PUSH2 0x1146 JUMPI PUSH1 0x0 DUP1 REVERT JUMPDEST PUSH2 0x1111 DUP3 PUSH2 0x1118 JUMP JUMPDEST PUSH1 0x0 PUSH1 0x20 DUP3 DUP5 SUB SLT ISZERO PUSH2 0x1161 JUMPI PUSH1 0x0 DUP1 REVERT JUMPDEST POP CALLDATALOAD SWAP2 SWAP1 POP JUMP JUMPDEST PUSH1 0x0 DUP1 PUSH1 0x40 DUP4 DUP6 SUB SLT ISZERO PUSH2 0x117B JUMPI PUSH1 0x0 DUP1 REVERT JUMPDEST DUP3 CALLDATALOAD SWAP2 POP PUSH2 0x118B PUSH1 0x20 DUP5 ADD PUSH2 0x1118 JUMP JUMPDEST SWAP1 POP SWAP3 POP SWAP3 SWAP1 POP JUMP JUMPDEST PUSH1 0x0 PUSH1 0x20 DUP3 DUP5 SUB SLT ISZERO PUSH2 0x11A6 JUMPI PUSH1 0x0 DUP1 REVERT JUMPDEST DUP2 CALLDATALOAD PUSH28 0xFFFFFFFFFFFFFFFFFFFFFFFFFFFFFFFFFFFFFFFFFFFFFFFFFFFFFFFF NOT DUP2 AND DUP2 EQ PUSH2 0x1111 JUMPI PUSH1 0x0 DUP1 REVERT JUMPDEST PUSH1 0x0 DUP2 MLOAD DUP1 DUP5 MSTORE PUSH2 0x11EB DUP2 PUSH1 0x20 DUP7 ADD PUSH1 0x20 DUP7 ADD PUSH2 0x1303 JUMP JUMPDEST PUSH1 0x1F ADD PUSH1 0x1F NOT AND SWAP3 SWAP1 SWAP3 ADD PUSH1 0x20 ADD SWAP3 SWAP2 POP POP JUMP JUMPDEST PUSH32 0x416363657373436F6E74726F6C3A206163636F756E7420000000000000000000 DUP2 MSTORE PUSH1 0x0 DUP4 MLOAD PUSH2 0x1237 DUP2 PUSH1 0x17 DUP6 ADD PUSH1 0x20 DUP9 ADD PUSH2 0x1303 JUMP JUMPDEST PUSH32 0x206973206D697373696E6720726F6C6520000000000000000000000000000000 PUSH1 0x17 SWAP2 DUP5 ADD SWAP2 DUP3 ADD MSTORE DUP4 MLOAD PUSH2 0x1274 DUP2 PUSH1 0x28 DUP5 ADD PUSH1 0x20 DUP9 ADD PUSH2 0x1303 JUMP JUMPDEST ADD PUSH1 0x28 ADD SWAP5 SWAP4 POP POP POP POP JUMP JUMPDEST PUSH1 0x20 DUP2 MSTORE PUSH1 0x0 PUSH2 0x1111 PUSH1 0x20 DUP4 ADD DUP5 PUSH2 0x11D3 JUMP JUMPDEST DUP5 DUP2 MSTORE PUSH1 0x1 PUSH1 0xA0 PUSH1 0x2 EXP SUB DUP5 AND PUSH1 0x20 DUP3 ADD MSTORE PUSH1 0x80 PUSH1 0x40 DUP3 ADD MSTORE PUSH1 0x0 PUSH2 0x12BB PUSH1 0x80 DUP4 ADD DUP6 PUSH2 0x11D3 JUMP JUMPDEST SWAP1 POP DUP3 PUSH1 0x60 DUP4 ADD MSTORE SWAP6 SWAP5 POP POP POP POP POP JUMP JUMPDEST PUSH1 0x0 DUP3 NOT DUP3 GT ISZERO PUSH2 0x12DF JUMPI PUSH2 0x12DF PUSH2 0x13A3 JUMP JUMPDEST POP ADD SWAP1 JUMP JUMPDEST PUSH1 0x0 DUP2 PUSH1 0x0 NOT DIV DUP4 GT DUP3 ISZERO ISZERO AND ISZERO PUSH2 0x12FE JUMPI PUSH2 0x12FE PUSH2 0x13A3 JUMP JUMPDEST POP MUL SWAP1 JUMP JUMPDEST PUSH1 0x0 JUMPDEST DUP4 DUP2 LT ISZERO PUSH2 0x131E JUMPI DUP2 DUP2 ADD MLOAD DUP4 DUP3 ADD MSTORE PUSH1 0x20 ADD PUSH2 0x1306 JUMP JUMPDEST DUP4 DUP2 GT ISZERO PUSH2 0x132D JUMPI PUSH1 0x0 DUP5 DUP5 ADD MSTORE JUMPDEST POP POP POP POP JUMP JUMPDEST PUSH1 0x0 DUP2 PUSH2 0x1342 JUMPI PUSH2 0x1342 PUSH2 0x13A3 JUMP JUMPDEST POP PUSH1 0x0 NOT ADD SWAP1 JUMP JUMPDEST PUSH1 0x2 DUP2 DIV PUSH1 0x1 DUP3 AND DUP1 PUSH2 0x135E JUMPI PUSH1 0x7F DUP3 AND SWAP2 POP JUMPDEST PUSH1 0x20 DUP3 LT DUP2 EQ ISZERO PUSH2 0x1382 JUMPI PUSH1 0xE0 PUSH1 0x2 EXP PUSH4 0x4E487B71 MUL PUSH1 0x0 MSTORE PUSH1 0x22 PUSH1 0x4 MSTORE PUSH1 0x24 PUSH1 0x0 REVERT JUMPDEST POP SWAP2 SWAP1 POP JUMP JUMPDEST PUSH1 0x0 PUSH1 0x0 NOT DUP3 EQ ISZERO PUSH2 0x139C JUMPI PUSH2 0x139C PUSH2 0x13A3 JUMP JUMPDEST POP PUSH1 0x1 ADD SWAP1 JUMP JUMPDEST PUSH1 0xE0 PUSH1 0x2 EXP PUSH4 0x4E487B71 MUL PUSH1 0x0 MSTORE PUSH1 0x11 PUSH1 0x4 MSTORE PUSH1 0x24 PUSH1 0x0 REVERT JUMPDEST PUSH1 0xE0 PUSH1 0x2 EXP PUSH4 0x4E487B71 MUL PUSH1 0x0 MSTORE PUSH1 0x32 PUSH1 0x4 MSTORE PUSH1 0x24 PUSH1 0x0 REVERT JUMPDEST PUSH1 0xE0 PUSH1 0x2 EXP PUSH4 0x4E487B71 MUL PUSH1 0x0 MSTORE PUSH1 0x41 PUSH1 0x4 MSTORE PUSH1 0x24 PUSH1 0x0 REVERT INVALID 0x22 PUSH13 0x4972AB1F314D4AD7FF65FBBF70 0xE5 PUSH5 0x7A0620354D SWAP8 0xBF CALL 0xB9 PUSH25 0xC4CF385EDFA2646970667358221220E96E341DFA4C6D8DE061 0xC0 CHAINID 0xD9 SWAP7 EXP 0xAF EXTCODECOPY KECCAK256 PUSH29 0x46D44D0EEB76E3818A6A98739064736F6C634300080700330000000000 "
		},
		"gasEstimates": {
			"creation": {
				"codeDepositCost": "1037600",
				"executionCost": "infinite",
				"totalCost": "infinite"
			},
			"external": {
				"DEFAULT_ADMIN_ROLE()": "246",
				"ROLE_ADMIN()": "267",
				"ROLE_VOLTANTE()": "infinite",
				"addressGanador()": "infinite",
				"candidato1()": "infinite",
				"candidato2()": "infinite",
				"candidato3()": "infinite",
				"candidatoGanador()": "infinite",
				"derechoVoto()": "infinite",
				"duenoChecar()": "infinite",
				"getRoleAdmin(bytes32)": "645",
				"grantRole(bytes32,address)": "infinite",
				"hasRole(bytes32,address)": "984",
				"nombreGanador()": "infinite",
				"normalCosa()": "192",
				"owner()": "628",
				"permisoVotar()": "infinite",
				"renounceOwnership()": "infinite",
				"renounceRole(bytes32,address)": "23380",
				"revokeRole(bytes32,address)": "infinite",
				"supportsInterface(bytes4)": "407",
				"tiempoInicio()": "265",
				"transferOwnership(address)": "22720",
				"votar(uint256)": "infinite",
				"voto()": "infinite",
				"votoBueno()": "infinite",
				"votoMalo()": "infinite"
			}
		},
		"methodIdentifiers": {
			"DEFAULT_ADMIN_ROLE()": "a217fddf",
			"ROLE_ADMIN()": "d391014b",
			"ROLE_VOLTANTE()": "8356e8e1",
			"addressGanador()": "c360a03b",
			"candidato1()": "fa0c3ab8",
			"candidato2()": "61c78cce",
			"candidato3()": "f222b579",
			"candidatoGanador()": "5792febf",
			"derechoVoto()": "226839ba",
			"duenoChecar()": "2b553fb4",
			"getRoleAdmin(bytes32)": "248a9ca3",
			"grantRole(bytes32,address)": "2f2ff15d",
			"hasRole(bytes32,address)": "91d14854",
			"nombreGanador()": "ffd7e4e7",
			"normalCosa()": "b49cd0f7",
			"owner()": "8da5cb5b",
			"permisoVotar()": "c363091c",
			"renounceOwnership()": "715018a6",
			"renounceRole(bytes32,address)": "36568abe",
			"revokeRole(bytes32,address)": "d547741f",
			"supportsInterface(bytes4)": "01ffc9a7",
			"tiempoInicio()": "a791e09b",
			"transferOwnership(address)": "f2fde38b",
			"votar(uint256)": "21606831",
			"voto()": "c7876434",
			"votoBueno()": "b1c78ebc",
			"votoMalo()": "ae60bb23"
		}
	},
	"abi": [
		{
			"inputs": [],
			"stateMutability": "nonpayable",
			"type": "constructor"
		},
		{
			"anonymous": false,
			"inputs": [
				{
					"indexed": true,
					"internalType": "address",
					"name": "previousOwner",
					"type": "address"
				},
				{
					"indexed": true,
					"internalType": "address",
					"name": "newOwner",
					"type": "address"
				}
			],
			"name": "OwnershipTransferred",
			"type": "event"
		},
		{
			"anonymous": false,
			"inputs": [
				{
					"indexed": true,
					"internalType": "bytes32",
					"name": "role",
					"type": "bytes32"
				},
				{
					"indexed": true,
					"internalType": "bytes32",
					"name": "previousAdminRole",
					"type": "bytes32"
				},
				{
					"indexed": true,
					"internalType": "bytes32",
					"name": "newAdminRole",
					"type": "bytes32"
				}
			],
			"name": "RoleAdminChanged",
			"type": "event"
		},
		{
			"anonymous": false,
			"inputs": [
				{
					"indexed": true,
					"internalType": "bytes32",
					"name": "role",
					"type": "bytes32"
				},
				{
					"indexed": true,
					"internalType": "address",
					"name": "account",
					"type": "address"
				},
				{
					"indexed": true,
					"internalType": "address",
					"name": "sender",
					"type": "address"
				}
			],
			"name": "RoleGranted",
			"type": "event"
		},
		{
			"anonymous": false,
			"inputs": [
				{
					"indexed": true,
					"internalType": "bytes32",
					"name": "role",
					"type": "bytes32"
				},
				{
					"indexed": true,
					"internalType": "address",
					"name": "account",
					"type": "address"
				},
				{
					"indexed": true,
					"internalType": "address",
					"name": "sender",
					"type": "address"
				}
			],
			"name": "RoleRevoked",
			"type": "event"
		},
		{
			"inputs": [],
			"name": "DEFAULT_ADMIN_ROLE",
			"outputs": [
				{
					"internalType": "bytes32",
					"name": "",
					"type": "bytes32"
				}
			],
			"stateMutability": "view",
			"type": "function"
		},
		{
			"inputs": [],
			"name": "ROLE_ADMIN",
			"outputs": [
				{
					"internalType": "bytes32",
					"name": "",
					"type": "bytes32"
				}
			],
			"stateMutability": "view",
			"type": "function"
		},
		{
			"inputs": [],
			"name": "ROLE_VOLTANTE",
			"outputs": [
				{
					"internalType": "bytes32",
					"name": "",
					"type": "bytes32"
				}
			],
			"stateMutability": "view",
			"type": "function"
		},
		{
			"inputs": [],
			"name": "addressGanador",
			"outputs": [
				{
					"internalType": "address",
					"name": "addressGanador_",
					"type": "address"
				}
			],
			"stateMutability": "view",
			"type": "function"
		},
		{
			"inputs": [],
			"name": "candidato1",
			"outputs": [
				{
					"internalType": "uint256",
					"name": "id",
					"type": "uint256"
				},
				{
					"internalType": "address",
					"name": "addressCandidato",
					"type": "address"
				},
				{
					"internalType": "string",
					"name": "nombre",
					"type": "string"
				},
				{
					"internalType": "uint256",
					"name": "contadorVotos",
					"type": "uint256"
				}
			],
			"stateMutability": "view",
			"type": "function"
		},
		{
			"inputs": [],
			"name": "candidato2",
			"outputs": [
				{
					"internalType": "uint256",
					"name": "id",
					"type": "uint256"
				},
				{
					"internalType": "address",
					"name": "addressCandidato",
					"type": "address"
				},
				{
					"internalType": "string",
					"name": "nombre",
					"type": "string"
				},
				{
					"internalType": "uint256",
					"name": "contadorVotos",
					"type": "uint256"
				}
			],
			"stateMutability": "view",
			"type": "function"
		},
		{
			"inputs": [],
			"name": "candidato3",
			"outputs": [
				{
					"internalType": "uint256",
					"name": "id",
					"type": "uint256"
				},
				{
					"internalType": "address",
					"name": "addressCandidato",
					"type": "address"
				},
				{
					"internalType": "string",
					"name": "nombre",
					"type": "string"
				},
				{
					"internalType": "uint256",
					"name": "contadorVotos",
					"type": "uint256"
				}
			],
			"stateMutability": "view",
			"type": "function"
		},
		{
			"inputs": [],
			"name": "candidatoGanador",
			"outputs": [
				{
					"internalType": "uint256",
					"name": "candidatoGanador_",
					"type": "uint256"
				}
			],
			"stateMutability": "view",
			"type": "function"
		},
		{
			"inputs": [],
			"name": "derechoVoto",
			"outputs": [
				{
					"internalType": "string",
					"name": "",
					"type": "string"
				}
			],
			"stateMutability": "view",
			"type": "function"
		},
		{
			"inputs": [],
			"name": "duenoChecar",
			"outputs": [],
			"stateMutability": "nonpayable",
			"type": "function"
		},
		{
			"inputs": [
				{
					"internalType": "bytes32",
					"name": "role",
					"type": "bytes32"
				}
			],
			"name": "getRoleAdmin",
			"outputs": [
				{
					"internalType": "bytes32",
					"name": "",
					"type": "bytes32"
				}
			],
			"stateMutability": "view",
			"type": "function"
		},
		{
			"inputs": [
				{
					"internalType": "bytes32",
					"name": "role",
					"type": "bytes32"
				},
				{
					"internalType": "address",
					"name": "account",
					"type": "address"
				}
			],
			"name": "grantRole",
			"outputs": [],
			"stateMutability": "nonpayable",
			"type": "function"
		},
		{
			"inputs": [
				{
					"internalType": "bytes32",
					"name": "role",
					"type": "bytes32"
				},
				{
					"internalType": "address",
					"name": "account",
					"type": "address"
				}
			],
			"name": "hasRole",
			"outputs": [
				{
					"internalType": "bool",
					"name": "",
					"type": "bool"
				}
			],
			"stateMutability": "view",
			"type": "function"
		},
		{
			"inputs": [],
			"name": "nombreGanador",
			"outputs": [
				{
					"internalType": "string",
					"name": "nombreGanador_",
					"type": "string"
				}
			],
			"stateMutability": "view",
			"type": "function"
		},
		{
			"inputs": [],
			"name": "normalCosa",
			"outputs": [],
			"stateMutability": "nonpayable",
			"type": "function"
		},
		{
			"inputs": [],
			"name": "owner",
			"outputs": [
				{
					"internalType": "address",
					"name": "",
					"type": "address"
				}
			],
			"stateMutability": "view",
			"type": "function"
		},
		{
			"inputs": [],
			"name": "permisoVotar",
			"outputs": [
				{
					"internalType": "bool",
					"name": "",
					"type": "bool"
				}
			],
			"stateMutability": "view",
			"type": "function"
		},
		{
			"inputs": [],
			"name": "renounceOwnership",
			"outputs": [],
			"stateMutability": "nonpayable",
			"type": "function"
		},
		{
			"inputs": [
				{
					"internalType": "bytes32",
					"name": "role",
					"type": "bytes32"
				},
				{
					"internalType": "address",
					"name": "account",
					"type": "address"
				}
			],
			"name": "renounceRole",
			"outputs": [],
			"stateMutability": "nonpayable",
			"type": "function"
		},
		{
			"inputs": [
				{
					"internalType": "bytes32",
					"name": "role",
					"type": "bytes32"
				},
				{
					"internalType": "address",
					"name": "account",
					"type": "address"
				}
			],
			"name": "revokeRole",
			"outputs": [],
			"stateMutability": "nonpayable",
			"type": "function"
		},
		{
			"inputs": [
				{
					"internalType": "bytes4",
					"name": "interfaceId",
					"type": "bytes4"
				}
			],
			"name": "supportsInterface",
			"outputs": [
				{
					"internalType": "bool",
					"name": "",
					"type": "bool"
				}
			],
			"stateMutability": "view",
			"type": "function"
		},
		{
			"inputs": [],
			"name": "tiempoInicio",
			"outputs": [
				{
					"internalType": "uint256",
					"name": "",
					"type": "uint256"
				}
			],
			"stateMutability": "pure",
			"type": "function"
		},
		{
			"inputs": [
				{
					"internalType": "address",
					"name": "newOwner",
					"type": "address"
				}
			],
			"name": "transferOwnership",
			"outputs": [],
			"stateMutability": "nonpayable",
			"type": "function"
		},
		{
			"inputs": [
				{
					"internalType": "uint256",
					"name": "_candidato",
					"type": "uint256"
				}
			],
			"name": "votar",
			"outputs": [],
			"stateMutability": "nonpayable",
			"type": "function"
		},
		{
			"inputs": [],
			"name": "voto",
			"outputs": [
				{
					"internalType": "bool",
					"name": "",
					"type": "bool"
				}
			],
			"stateMutability": "view",
			"type": "function"
		},
		{
			"inputs": [],
			"name": "votoBueno",
			"outputs": [
				{
					"internalType": "string",
					"name": "",
					"type": "string"
				}
			],
			"stateMutability": "view",
			"type": "function"
		},
		{
			"inputs": [],
			"name": "votoMalo",
			"outputs": [
				{
					"internalType": "string",
					"name": "",
					"type": "string"
				}
			],
			"stateMutability": "view",
			"type": "function"
		}
	]
}